{
	"DiscreetLog_flat.sol": {
		"DiscreetLog": {
			"abi": [
				{
					"inputs": [],
					"stateMutability": "nonpayable",
					"type": "constructor"
				},
				{
					"anonymous": false,
					"inputs": [
						{
							"indexed": false,
							"internalType": "string",
							"name": "uuid",
							"type": "string"
						},
						{
							"indexed": false,
							"internalType": "int256",
							"name": "payoutRatio",
							"type": "int256"
						},
						{
							"indexed": false,
							"internalType": "int256",
							"name": "closingPrice",
							"type": "int256"
						},
						{
							"indexed": false,
							"internalType": "uint256",
							"name": "actualClosingTime",
							"type": "uint256"
						}
					],
					"name": "CloseDLC",
					"type": "event"
				},
				{
					"anonymous": false,
					"inputs": [
						{
							"indexed": false,
							"internalType": "uint256",
							"name": "vaultLoanAmount",
							"type": "uint256"
						},
						{
							"indexed": false,
							"internalType": "uint256",
							"name": "btcDeposit",
							"type": "uint256"
						},
						{
							"indexed": false,
							"internalType": "uint256",
							"name": "liquidationRatio",
							"type": "uint256"
						},
						{
							"indexed": false,
							"internalType": "uint256",
							"name": "liquidationFee",
							"type": "uint256"
						},
						{
							"indexed": false,
							"internalType": "address",
							"name": "creator",
							"type": "address"
						},
						{
							"indexed": false,
							"internalType": "uint256",
							"name": "emergencyRefundTime",
							"type": "uint256"
						},
						{
							"indexed": false,
							"internalType": "uint256",
							"name": "nonce",
							"type": "uint256"
						},
						{
							"indexed": false,
							"internalType": "string",
							"name": "eventSource",
							"type": "string"
						}
					],
					"name": "CreateDLC",
					"type": "event"
				},
				{
					"anonymous": false,
					"inputs": [
						{
							"indexed": false,
							"internalType": "string",
							"name": "uuid",
							"type": "string"
						},
						{
							"indexed": false,
							"internalType": "uint256",
							"name": "btcDeposit",
							"type": "uint256"
						},
						{
							"indexed": false,
							"internalType": "uint256",
							"name": "liquidationRatio",
							"type": "uint256"
						},
						{
							"indexed": false,
							"internalType": "uint256",
							"name": "liquidationFee",
							"type": "uint256"
						},
						{
							"indexed": false,
							"internalType": "uint256",
							"name": "emergencyRefundTime",
							"type": "uint256"
						},
						{
							"indexed": false,
							"internalType": "address",
							"name": "creator",
							"type": "address"
						},
						{
							"indexed": false,
							"internalType": "string",
							"name": "eventSource",
							"type": "string"
						}
					],
					"name": "CreateDLCInternal",
					"type": "event"
				},
				{
					"anonymous": false,
					"inputs": [
						{
							"indexed": false,
							"internalType": "string",
							"name": "uuid",
							"type": "string"
						},
						{
							"indexed": false,
							"internalType": "string",
							"name": "eventSource",
							"type": "string"
						}
					],
					"name": "SetStatusFunded",
					"type": "event"
				},
				{
					"inputs": [
						{
							"internalType": "string",
							"name": "_uuid",
							"type": "string"
						}
					],
					"name": "closeDlc",
					"outputs": [],
					"stateMutability": "nonpayable",
					"type": "function"
				},
				{
					"inputs": [
						{
							"internalType": "string",
							"name": "_uuid",
							"type": "string"
						}
					],
					"name": "closeDlcLiquidate",
					"outputs": [],
					"stateMutability": "nonpayable",
					"type": "function"
				},
				{
					"inputs": [
						{
							"internalType": "string",
							"name": "_uuid",
							"type": "string"
						},
						{
							"internalType": "uint256",
							"name": "_btcDeposit",
							"type": "uint256"
						},
						{
							"internalType": "uint256",
							"name": "_liquidationRatio",
							"type": "uint256"
						},
						{
							"internalType": "uint256",
							"name": "_liquidationFee",
							"type": "uint256"
						},
						{
							"internalType": "uint256",
							"name": "_emergencyRefundTime",
							"type": "uint256"
						},
						{
							"internalType": "address",
							"name": "_creator",
							"type": "address"
						},
						{
							"internalType": "uint256",
							"name": "_nonce",
							"type": "uint256"
						}
					],
					"name": "createDLCInternal",
					"outputs": [],
					"stateMutability": "nonpayable",
					"type": "function"
				},
				{
					"inputs": [
						{
							"internalType": "uint256",
							"name": "_vaultLoanAmount",
							"type": "uint256"
						},
						{
							"internalType": "uint256",
							"name": "_btcDeposit",
							"type": "uint256"
						},
						{
							"internalType": "uint256",
							"name": "_liquidationRatio",
							"type": "uint256"
						},
						{
							"internalType": "uint256",
							"name": "_liquidationFee",
							"type": "uint256"
						},
						{
							"internalType": "address",
							"name": "_creator",
							"type": "address"
						},
						{
							"internalType": "uint256",
							"name": "_emergencyRefundTime",
							"type": "uint256"
						},
						{
							"internalType": "uint256",
							"name": "_nonce",
							"type": "uint256"
						}
					],
					"name": "createDlc",
					"outputs": [],
					"stateMutability": "nonpayable",
					"type": "function"
				},
				{
					"inputs": [
						{
							"internalType": "string",
							"name": "",
							"type": "string"
						}
					],
					"name": "dlcs",
					"outputs": [
						{
							"internalType": "string",
							"name": "uuid",
							"type": "string"
						},
						{
							"internalType": "uint256",
							"name": "btcDeposit",
							"type": "uint256"
						},
						{
							"internalType": "uint256",
							"name": "liquidationRatio",
							"type": "uint256"
						},
						{
							"internalType": "uint256",
							"name": "liquidationFee",
							"type": "uint256"
						},
						{
							"internalType": "uint256",
							"name": "closingTime",
							"type": "uint256"
						},
						{
							"internalType": "int256",
							"name": "closingPrice",
							"type": "int256"
						},
						{
							"internalType": "uint256",
							"name": "actualClosingTime",
							"type": "uint256"
						},
						{
							"internalType": "uint256",
							"name": "emergencyRefundTime",
							"type": "uint256"
						},
						{
							"internalType": "address",
							"name": "creator",
							"type": "address"
						}
					],
					"stateMutability": "view",
					"type": "function"
				},
				{
					"inputs": [
						{
							"internalType": "address",
							"name": "_addy",
							"type": "address"
						}
					],
					"name": "getAllLoansForAddress",
					"outputs": [
						{
							"components": [
								{
									"internalType": "uint256",
									"name": "id",
									"type": "uint256"
								},
								{
									"internalType": "string",
									"name": "dlc_uuid",
									"type": "string"
								},
								{
									"internalType": "string",
									"name": "status",
									"type": "string"
								},
								{
									"internalType": "uint256",
									"name": "vaultLoan",
									"type": "uint256"
								},
								{
									"internalType": "uint256",
									"name": "vaultCollateral",
									"type": "uint256"
								},
								{
									"internalType": "uint256",
									"name": "liquidationRatio",
									"type": "uint256"
								},
								{
									"internalType": "uint256",
									"name": "liquidationFee",
									"type": "uint256"
								},
								{
									"internalType": "uint256",
									"name": "closingPrice",
									"type": "uint256"
								},
								{
									"internalType": "address",
									"name": "owner",
									"type": "address"
								}
							],
							"internalType": "struct DiscreetLog.Loan[]",
							"name": "",
							"type": "tuple[]"
						}
					],
					"stateMutability": "view",
					"type": "function"
				},
				{
					"inputs": [],
					"name": "getAllUUIDs",
					"outputs": [
						{
							"internalType": "string[]",
							"name": "",
							"type": "string[]"
						}
					],
					"stateMutability": "view",
					"type": "function"
				},
				{
					"inputs": [
						{
							"internalType": "uint256",
							"name": "loanId",
							"type": "uint256"
						}
					],
					"name": "liquidateLoan",
					"outputs": [],
					"stateMutability": "nonpayable",
					"type": "function"
				},
				{
					"inputs": [
						{
							"internalType": "uint256",
							"name": "",
							"type": "uint256"
						}
					],
					"name": "loans",
					"outputs": [
						{
							"internalType": "uint256",
							"name": "id",
							"type": "uint256"
						},
						{
							"internalType": "string",
							"name": "dlc_uuid",
							"type": "string"
						},
						{
							"internalType": "string",
							"name": "status",
							"type": "string"
						},
						{
							"internalType": "uint256",
							"name": "vaultLoan",
							"type": "uint256"
						},
						{
							"internalType": "uint256",
							"name": "vaultCollateral",
							"type": "uint256"
						},
						{
							"internalType": "uint256",
							"name": "liquidationRatio",
							"type": "uint256"
						},
						{
							"internalType": "uint256",
							"name": "liquidationFee",
							"type": "uint256"
						},
						{
							"internalType": "uint256",
							"name": "closingPrice",
							"type": "uint256"
						},
						{
							"internalType": "address",
							"name": "owner",
							"type": "address"
						}
					],
					"stateMutability": "view",
					"type": "function"
				},
				{
					"inputs": [
						{
							"internalType": "address",
							"name": "",
							"type": "address"
						}
					],
					"name": "loansPerAddress",
					"outputs": [
						{
							"internalType": "uint256",
							"name": "",
							"type": "uint256"
						}
					],
					"stateMutability": "view",
					"type": "function"
				},
				{
					"inputs": [],
					"name": "numLoans",
					"outputs": [
						{
							"internalType": "uint256",
							"name": "",
							"type": "uint256"
						}
					],
					"stateMutability": "view",
					"type": "function"
				},
				{
					"inputs": [
						{
							"internalType": "uint256",
							"name": "",
							"type": "uint256"
						}
					],
					"name": "openUUIDs",
					"outputs": [
						{
							"internalType": "string",
							"name": "",
							"type": "string"
						}
					],
					"stateMutability": "view",
					"type": "function"
				},
				{
					"inputs": [
						{
							"internalType": "uint256",
							"name": "loanId",
							"type": "uint256"
						}
					],
					"name": "repayLoan",
					"outputs": [],
					"stateMutability": "nonpayable",
					"type": "function"
				},
				{
					"inputs": [
						{
							"internalType": "string",
							"name": "_uuid",
							"type": "string"
						}
					],
					"name": "setStatusFunded",
					"outputs": [],
					"stateMutability": "nonpayable",
					"type": "function"
				},
				{
					"inputs": [
						{
							"internalType": "uint256",
							"name": "vaultLoanAmount",
							"type": "uint256"
						},
						{
							"internalType": "uint256",
							"name": "btcDeposit",
							"type": "uint256"
						},
						{
							"internalType": "uint256",
							"name": "liquidationRatio",
							"type": "uint256"
						},
						{
							"internalType": "uint256",
							"name": "liquidationFee",
							"type": "uint256"
						},
						{
							"internalType": "uint256",
							"name": "emergencyRefundTime",
							"type": "uint256"
						}
					],
					"name": "setupLoan",
					"outputs": [
						{
							"internalType": "uint256",
							"name": "",
							"type": "uint256"
						}
					],
					"stateMutability": "nonpayable",
					"type": "function"
				},
				{
					"inputs": [],
					"name": "status",
					"outputs": [
						{
							"internalType": "enum DiscreetLog.Status",
							"name": "",
							"type": "uint8"
						}
					],
					"stateMutability": "view",
					"type": "function"
				},
				{
					"inputs": [
						{
							"internalType": "enum DiscreetLog.Status",
							"name": "",
							"type": "uint8"
						}
					],
					"name": "statuses",
					"outputs": [
						{
							"internalType": "string",
							"name": "",
							"type": "string"
						}
					],
					"stateMutability": "view",
					"type": "function"
				}
			],
			"devdoc": {
				"kind": "dev",
				"methods": {},
				"version": 1
			},
			"evm": {
				"assembly": "    /* \"DiscreetLog_flat.sol\":941:11146  contract DiscreetLog {... */\n  mstore(0x40, 0x80)\n    /* \"DiscreetLog_flat.sol\":1109:1110  0 */\n  0x00\n    /* \"DiscreetLog_flat.sol\":1083:1110  uint256 public numLoans = 0 */\n  0x03\n  sstore\n    /* \"DiscreetLog_flat.sol\":2309:2671  constructor() {... */\n  callvalue\n  dup1\n  iszero\n  tag_1\n  jumpi\n  0x00\n  dup1\n  revert\ntag_1:\n  pop\n    /* \"DiscreetLog_flat.sol\":2333:2372  statuses[Status.NotReady] = \"not-ready\" */\n  mload(0x40)\n  dup1\n  0x40\n  add\n  0x40\n  mstore\n  dup1\n  0x09\n  dup2\n  mstore\n  0x20\n  add\n  0x6e6f742d72656164790000000000000000000000000000000000000000000000\n  dup2\n  mstore\n  pop\n    /* \"DiscreetLog_flat.sol\":2333:2341  statuses */\n  0x06\n    /* \"DiscreetLog_flat.sol\":2333:2358  statuses[Status.NotReady] */\n  0x00\n    /* \"DiscreetLog_flat.sol\":2342:2357  Status.NotReady */\n  dup1\n    /* \"DiscreetLog_flat.sol\":2333:2358  statuses[Status.NotReady] */\n  0x06\n  dup2\n  gt\n  iszero\n  tag_4\n  jumpi\n  tag_5\n  tag_6\n  jump\t// in\ntag_5:\ntag_4:\n  0x06\n  dup2\n  gt\n  iszero\n  tag_7\n  jumpi\n  tag_8\n  tag_6\n  jump\t// in\ntag_8:\ntag_7:\n  dup2\n  mstore\n  0x20\n  add\n  swap1\n  dup2\n  mstore\n  0x20\n  add\n  0x00\n  keccak256\n    /* \"DiscreetLog_flat.sol\":2333:2372  statuses[Status.NotReady] = \"not-ready\" */\n  swap1\n  dup1\n  mload\n  swap1\n  0x20\n  add\n  swap1\n  tag_9\n  swap3\n  swap2\n  swap1\n  tag_10\n  jump\t// in\ntag_9:\n  pop\n    /* \"DiscreetLog_flat.sol\":2382:2414  statuses[Status.Ready] = \"ready\" */\n  mload(0x40)\n  dup1\n  0x40\n  add\n  0x40\n  mstore\n  dup1\n  0x05\n  dup2\n  mstore\n  0x20\n  add\n  0x7265616479000000000000000000000000000000000000000000000000000000\n  dup2\n  mstore\n  pop\n    /* \"DiscreetLog_flat.sol\":2382:2390  statuses */\n  0x06\n    /* \"DiscreetLog_flat.sol\":2382:2404  statuses[Status.Ready] */\n  0x00\n    /* \"DiscreetLog_flat.sol\":2391:2403  Status.Ready */\n  0x01\n    /* \"DiscreetLog_flat.sol\":2382:2404  statuses[Status.Ready] */\n  0x06\n  dup2\n  gt\n  iszero\n  tag_11\n  jumpi\n  tag_12\n  tag_6\n  jump\t// in\ntag_12:\ntag_11:\n  0x06\n  dup2\n  gt\n  iszero\n  tag_13\n  jumpi\n  tag_14\n  tag_6\n  jump\t// in\ntag_14:\ntag_13:\n  dup2\n  mstore\n  0x20\n  add\n  swap1\n  dup2\n  mstore\n  0x20\n  add\n  0x00\n  keccak256\n    /* \"DiscreetLog_flat.sol\":2382:2414  statuses[Status.Ready] = \"ready\" */\n  swap1\n  dup1\n  mload\n  swap1\n  0x20\n  add\n  swap1\n  tag_15\n  swap3\n  swap2\n  swap1\n  tag_10\n  jump\t// in\ntag_15:\n  pop\n    /* \"DiscreetLog_flat.sol\":2424:2458  statuses[Status.Funded] = \"funded\" */\n  mload(0x40)\n  dup1\n  0x40\n  add\n  0x40\n  mstore\n  dup1\n  0x06\n  dup2\n  mstore\n  0x20\n  add\n  0x66756e6465640000000000000000000000000000000000000000000000000000\n  dup2\n  mstore\n  pop\n    /* \"DiscreetLog_flat.sol\":2424:2432  statuses */\n  0x06\n    /* \"DiscreetLog_flat.sol\":2424:2447  statuses[Status.Funded] */\n  0x00\n    /* \"DiscreetLog_flat.sol\":2433:2446  Status.Funded */\n  0x02\n    /* \"DiscreetLog_flat.sol\":2424:2447  statuses[Status.Funded] */\n  0x06\n  dup2\n  gt\n  iszero\n  tag_16\n  jumpi\n  tag_17\n  tag_6\n  jump\t// in\ntag_17:\ntag_16:\n  0x06\n  dup2\n  gt\n  iszero\n  tag_18\n  jumpi\n  tag_19\n  tag_6\n  jump\t// in\ntag_19:\ntag_18:\n  dup2\n  mstore\n  0x20\n  add\n  swap1\n  dup2\n  mstore\n  0x20\n  add\n  0x00\n  keccak256\n    /* \"DiscreetLog_flat.sol\":2424:2458  statuses[Status.Funded] = \"funded\" */\n  swap1\n  dup1\n  mload\n  swap1\n  0x20\n  add\n  swap1\n  tag_20\n  swap3\n  swap2\n  swap1\n  tag_10\n  jump\t// in\ntag_20:\n  pop\n    /* \"DiscreetLog_flat.sol\":2468:2509  statuses[Status.PreRepaid] = \"pre-repaid\" */\n  mload(0x40)\n  dup1\n  0x40\n  add\n  0x40\n  mstore\n  dup1\n  0x0a\n  dup2\n  mstore\n  0x20\n  add\n  0x7072652d72657061696400000000000000000000000000000000000000000000\n  dup2\n  mstore\n  pop\n    /* \"DiscreetLog_flat.sol\":2468:2476  statuses */\n  0x06\n    /* \"DiscreetLog_flat.sol\":2468:2494  statuses[Status.PreRepaid] */\n  0x00\n    /* \"DiscreetLog_flat.sol\":2477:2493  Status.PreRepaid */\n  0x03\n    /* \"DiscreetLog_flat.sol\":2468:2494  statuses[Status.PreRepaid] */\n  0x06\n  dup2\n  gt\n  iszero\n  tag_21\n  jumpi\n  tag_22\n  tag_6\n  jump\t// in\ntag_22:\ntag_21:\n  0x06\n  dup2\n  gt\n  iszero\n  tag_23\n  jumpi\n  tag_24\n  tag_6\n  jump\t// in\ntag_24:\ntag_23:\n  dup2\n  mstore\n  0x20\n  add\n  swap1\n  dup2\n  mstore\n  0x20\n  add\n  0x00\n  keccak256\n    /* \"DiscreetLog_flat.sol\":2468:2509  statuses[Status.PreRepaid] = \"pre-repaid\" */\n  swap1\n  dup1\n  mload\n  swap1\n  0x20\n  add\n  swap1\n  tag_25\n  swap3\n  swap2\n  swap1\n  tag_10\n  jump\t// in\ntag_25:\n  pop\n    /* \"DiscreetLog_flat.sol\":2519:2553  statuses[Status.Repaid] = \"repaid\" */\n  mload(0x40)\n  dup1\n  0x40\n  add\n  0x40\n  mstore\n  dup1\n  0x06\n  dup2\n  mstore\n  0x20\n  add\n  0x7265706169640000000000000000000000000000000000000000000000000000\n  dup2\n  mstore\n  pop\n    /* \"DiscreetLog_flat.sol\":2519:2527  statuses */\n  0x06\n    /* \"DiscreetLog_flat.sol\":2519:2542  statuses[Status.Repaid] */\n  0x00\n    /* \"DiscreetLog_flat.sol\":2528:2541  Status.Repaid */\n  0x04\n    /* \"DiscreetLog_flat.sol\":2519:2542  statuses[Status.Repaid] */\n  0x06\n  dup2\n  gt\n  iszero\n  tag_26\n  jumpi\n  tag_27\n  tag_6\n  jump\t// in\ntag_27:\ntag_26:\n  0x06\n  dup2\n  gt\n  iszero\n  tag_28\n  jumpi\n  tag_29\n  tag_6\n  jump\t// in\ntag_29:\ntag_28:\n  dup2\n  mstore\n  0x20\n  add\n  swap1\n  dup2\n  mstore\n  0x20\n  add\n  0x00\n  keccak256\n    /* \"DiscreetLog_flat.sol\":2519:2553  statuses[Status.Repaid] = \"repaid\" */\n  swap1\n  dup1\n  mload\n  swap1\n  0x20\n  add\n  swap1\n  tag_30\n  swap3\n  swap2\n  swap1\n  tag_10\n  jump\t// in\ntag_30:\n  pop\n    /* \"DiscreetLog_flat.sol\":2563:2612  statuses[Status.PreLiquidated] = \"pre-liquidated\" */\n  mload(0x40)\n  dup1\n  0x40\n  add\n  0x40\n  mstore\n  dup1\n  0x0e\n  dup2\n  mstore\n  0x20\n  add\n  0x7072652d6c697175696461746564000000000000000000000000000000000000\n  dup2\n  mstore\n  pop\n    /* \"DiscreetLog_flat.sol\":2563:2571  statuses */\n  0x06\n    /* \"DiscreetLog_flat.sol\":2563:2593  statuses[Status.PreLiquidated] */\n  0x00\n    /* \"DiscreetLog_flat.sol\":2572:2592  Status.PreLiquidated */\n  0x05\n    /* \"DiscreetLog_flat.sol\":2563:2593  statuses[Status.PreLiquidated] */\n  0x06\n  dup2\n  gt\n  iszero\n  tag_31\n  jumpi\n  tag_32\n  tag_6\n  jump\t// in\ntag_32:\ntag_31:\n  0x06\n  dup2\n  gt\n  iszero\n  tag_33\n  jumpi\n  tag_34\n  tag_6\n  jump\t// in\ntag_34:\ntag_33:\n  dup2\n  mstore\n  0x20\n  add\n  swap1\n  dup2\n  mstore\n  0x20\n  add\n  0x00\n  keccak256\n    /* \"DiscreetLog_flat.sol\":2563:2612  statuses[Status.PreLiquidated] = \"pre-liquidated\" */\n  swap1\n  dup1\n  mload\n  swap1\n  0x20\n  add\n  swap1\n  tag_35\n  swap3\n  swap2\n  swap1\n  tag_10\n  jump\t// in\ntag_35:\n  pop\n    /* \"DiscreetLog_flat.sol\":2622:2664  statuses[Status.Liquidated] = \"liquidated\" */\n  mload(0x40)\n  dup1\n  0x40\n  add\n  0x40\n  mstore\n  dup1\n  0x0a\n  dup2\n  mstore\n  0x20\n  add\n  0x6c69717569646174656400000000000000000000000000000000000000000000\n  dup2\n  mstore\n  pop\n    /* \"DiscreetLog_flat.sol\":2622:2630  statuses */\n  0x06\n    /* \"DiscreetLog_flat.sol\":2622:2649  statuses[Status.Liquidated] */\n  0x00\n    /* \"DiscreetLog_flat.sol\":2631:2648  Status.Liquidated */\n  0x06\n    /* \"DiscreetLog_flat.sol\":2622:2649  statuses[Status.Liquidated] */\n  dup1\n  dup2\n  gt\n  iszero\n  tag_36\n  jumpi\n  tag_37\n  tag_6\n  jump\t// in\ntag_37:\ntag_36:\n  0x06\n  dup2\n  gt\n  iszero\n  tag_38\n  jumpi\n  tag_39\n  tag_6\n  jump\t// in\ntag_39:\ntag_38:\n  dup2\n  mstore\n  0x20\n  add\n  swap1\n  dup2\n  mstore\n  0x20\n  add\n  0x00\n  keccak256\n    /* \"DiscreetLog_flat.sol\":2622:2664  statuses[Status.Liquidated] = \"liquidated\" */\n  swap1\n  dup1\n  mload\n  swap1\n  0x20\n  add\n  swap1\n  tag_40\n  swap3\n  swap2\n  swap1\n  tag_10\n  jump\t// in\ntag_40:\n  pop\n    /* \"DiscreetLog_flat.sol\":941:11146  contract DiscreetLog {... */\n  jump(tag_41)\ntag_10:\n  dup3\n  dup1\n  sload\n  tag_42\n  swap1\n  tag_43\n  jump\t// in\ntag_42:\n  swap1\n  0x00\n  mstore\n  keccak256(0x00, 0x20)\n  swap1\n  0x1f\n  add\n  0x20\n  swap1\n  div\n  dup2\n  add\n  swap3\n  dup3\n  tag_45\n  jumpi\n  0x00\n  dup6\n  sstore\n  jump(tag_44)\ntag_45:\n  dup3\n  0x1f\n  lt\n  tag_46\n  jumpi\n  dup1\n  mload\n  not(0xff)\n  and\n  dup4\n  dup1\n  add\n  or\n  dup6\n  sstore\n  jump(tag_44)\ntag_46:\n  dup3\n  dup1\n  add\n  0x01\n  add\n  dup6\n  sstore\n  dup3\n  iszero\n  tag_44\n  jumpi\n  swap2\n  dup3\n  add\ntag_47:\n  dup3\n  dup2\n  gt\n  iszero\n  tag_48\n  jumpi\n  dup3\n  mload\n  dup3\n  sstore\n  swap2\n  0x20\n  add\n  swap2\n  swap1\n  0x01\n  add\n  swap1\n  jump(tag_47)\ntag_48:\ntag_44:\n  pop\n  swap1\n  pop\n  tag_49\n  swap2\n  swap1\n  tag_50\n  jump\t// in\ntag_49:\n  pop\n  swap1\n  jump\t// out\ntag_50:\ntag_51:\n  dup1\n  dup3\n  gt\n  iszero\n  tag_52\n  jumpi\n  0x00\n  dup2\n  0x00\n  swap1\n  sstore\n  pop\n  0x01\n  add\n  jump(tag_51)\ntag_52:\n  pop\n  swap1\n  jump\t// out\n    /* \"#utility.yul\":7:327   */\ntag_43:\n    /* \"#utility.yul\":51:57   */\n  0x00\n    /* \"#utility.yul\":88:89   */\n  0x02\n    /* \"#utility.yul\":82:86   */\n  dup3\n    /* \"#utility.yul\":78:90   */\n  div\n    /* \"#utility.yul\":68:90   */\n  swap1\n  pop\n    /* \"#utility.yul\":135:136   */\n  0x01\n    /* \"#utility.yul\":129:133   */\n  dup3\n    /* \"#utility.yul\":125:137   */\n  and\n    /* \"#utility.yul\":156:174   */\n  dup1\n    /* \"#utility.yul\":146:227   */\n  tag_55\n  jumpi\n    /* \"#utility.yul\":212:216   */\n  0x7f\n    /* \"#utility.yul\":204:210   */\n  dup3\n    /* \"#utility.yul\":200:217   */\n  and\n    /* \"#utility.yul\":190:217   */\n  swap2\n  pop\n    /* \"#utility.yul\":146:227   */\ntag_55:\n    /* \"#utility.yul\":274:276   */\n  0x20\n    /* \"#utility.yul\":266:272   */\n  dup3\n    /* \"#utility.yul\":263:277   */\n  lt\n    /* \"#utility.yul\":243:261   */\n  dup2\n    /* \"#utility.yul\":240:278   */\n  eq\n    /* \"#utility.yul\":237:321   */\n  iszero\n  tag_56\n  jumpi\n    /* \"#utility.yul\":293:311   */\n  tag_57\n  tag_58\n  jump\t// in\ntag_57:\n    /* \"#utility.yul\":237:321   */\ntag_56:\n    /* \"#utility.yul\":58:327   */\n  pop\n    /* \"#utility.yul\":7:327   */\n  swap2\n  swap1\n  pop\n  jump\t// out\n    /* \"#utility.yul\":333:513   */\ntag_6:\n    /* \"#utility.yul\":381:458   */\n  0x4e487b7100000000000000000000000000000000000000000000000000000000\n    /* \"#utility.yul\":378:379   */\n  0x00\n    /* \"#utility.yul\":371:459   */\n  mstore\n    /* \"#utility.yul\":478:482   */\n  0x21\n    /* \"#utility.yul\":475:476   */\n  0x04\n    /* \"#utility.yul\":468:483   */\n  mstore\n    /* \"#utility.yul\":502:506   */\n  0x24\n    /* \"#utility.yul\":499:500   */\n  0x00\n    /* \"#utility.yul\":492:507   */\n  revert\n    /* \"#utility.yul\":519:699   */\ntag_58:\n    /* \"#utility.yul\":567:644   */\n  0x4e487b7100000000000000000000000000000000000000000000000000000000\n    /* \"#utility.yul\":564:565   */\n  0x00\n    /* \"#utility.yul\":557:645   */\n  mstore\n    /* \"#utility.yul\":664:668   */\n  0x22\n    /* \"#utility.yul\":661:662   */\n  0x04\n    /* \"#utility.yul\":654:669   */\n  mstore\n    /* \"#utility.yul\":688:692   */\n  0x24\n    /* \"#utility.yul\":685:686   */\n  0x00\n    /* \"#utility.yul\":678:693   */\n  revert\n    /* \"DiscreetLog_flat.sol\":941:11146  contract DiscreetLog {... */\ntag_41:\n  dataSize(sub_0)\n  dup1\n  dataOffset(sub_0)\n  0x00\n  codecopy\n  0x00\n  return\nstop\n\nsub_0: assembly {\n        /* \"DiscreetLog_flat.sol\":941:11146  contract DiscreetLog {... */\n      mstore(0x40, 0x80)\n      callvalue\n      dup1\n      iszero\n      tag_1\n      jumpi\n      0x00\n      dup1\n      revert\n    tag_1:\n      pop\n      jumpi(tag_2, lt(calldatasize, 0x04))\n      shr(0xe0, calldataload(0x00))\n      dup1\n      0x62e87240\n      gt\n      tag_20\n      jumpi\n      dup1\n      0xab7b1c89\n      gt\n      tag_21\n      jumpi\n      dup1\n      0xab7b1c89\n      eq\n      tag_15\n      jumpi\n      dup1\n      0xccdd9f5d\n      eq\n      tag_16\n      jumpi\n      dup1\n      0xd4252cc3\n      eq\n      tag_17\n      jumpi\n      dup1\n      0xd463eeb3\n      eq\n      tag_18\n      jumpi\n      dup1\n      0xe1ec3c68\n      eq\n      tag_19\n      jumpi\n      jump(tag_2)\n    tag_21:\n      dup1\n      0x62e87240\n      eq\n      tag_11\n      jumpi\n      dup1\n      0x89a12db4\n      eq\n      tag_12\n      jumpi\n      dup1\n      0x8ff37151\n      eq\n      tag_13\n      jumpi\n      dup1\n      0x9e098026\n      eq\n      tag_14\n      jumpi\n      jump(tag_2)\n    tag_20:\n      dup1\n      0x3902fe90\n      gt\n      tag_22\n      jumpi\n      dup1\n      0x3902fe90\n      eq\n      tag_7\n      jumpi\n      dup1\n      0x41f5d7cd\n      eq\n      tag_8\n      jumpi\n      dup1\n      0x47f8bf1c\n      eq\n      tag_9\n      jumpi\n      dup1\n      0x572343f1\n      eq\n      tag_10\n      jumpi\n      jump(tag_2)\n    tag_22:\n      dup1\n      0x0ef2feff\n      eq\n      tag_3\n      jumpi\n      dup1\n      0x200d2ed2\n      eq\n      tag_4\n      jumpi\n      dup1\n      0x2e730910\n      eq\n      tag_5\n      jumpi\n      dup1\n      0x35dd76ce\n      eq\n      tag_6\n      jumpi\n    tag_2:\n      0x00\n      dup1\n      revert\n        /* \"DiscreetLog_flat.sol\":999:1033  mapping(string => DLC) public dlcs */\n    tag_3:\n      tag_23\n      0x04\n      dup1\n      calldatasize\n      sub\n      dup2\n      add\n      swap1\n      tag_24\n      swap2\n      swap1\n      tag_25\n      jump\t// in\n    tag_24:\n      tag_26\n      jump\t// in\n    tag_23:\n      mload(0x40)\n      tag_27\n      swap10\n      swap9\n      swap8\n      swap7\n      swap6\n      swap5\n      swap4\n      swap3\n      swap2\n      swap1\n      tag_28\n      jump\t// in\n    tag_27:\n      mload(0x40)\n      dup1\n      swap2\n      sub\n      swap1\n      return\n        /* \"DiscreetLog_flat.sol\":1325:1345  Status public status */\n    tag_4:\n      tag_29\n      tag_30\n      jump\t// in\n    tag_29:\n      mload(0x40)\n      tag_31\n      swap2\n      swap1\n      tag_32\n      jump\t// in\n    tag_31:\n      mload(0x40)\n      dup1\n      swap2\n      sub\n      swap1\n      return\n        /* \"DiscreetLog_flat.sol\":968:993  string[] public openUUIDs */\n    tag_5:\n      tag_33\n      0x04\n      dup1\n      calldatasize\n      sub\n      dup2\n      add\n      swap1\n      tag_34\n      swap2\n      swap1\n      tag_35\n      jump\t// in\n    tag_34:\n      tag_36\n      jump\t// in\n    tag_33:\n      mload(0x40)\n      tag_37\n      swap2\n      swap1\n      tag_38\n      jump\t// in\n    tag_37:\n      mload(0x40)\n      dup1\n      swap2\n      sub\n      swap1\n      return\n        /* \"DiscreetLog_flat.sol\":5135:6163  function createDLCInternal(... */\n    tag_6:\n      tag_39\n      0x04\n      dup1\n      calldatasize\n      sub\n      dup2\n      add\n      swap1\n      tag_40\n      swap2\n      swap1\n      tag_41\n      jump\t// in\n    tag_40:\n      tag_42\n      jump\t// in\n    tag_39:\n      stop\n        /* \"DiscreetLog_flat.sol\":4368:4888  function createDlc(... */\n    tag_7:\n      tag_43\n      0x04\n      dup1\n      calldatasize\n      sub\n      dup2\n      add\n      swap1\n      tag_44\n      swap2\n      swap1\n      tag_45\n      jump\t// in\n    tag_44:\n      tag_46\n      jump\t// in\n    tag_43:\n      stop\n        /* \"DiscreetLog_flat.sol\":1117:1167  mapping(address => uint256) public loansPerAddress */\n    tag_8:\n      tag_47\n      0x04\n      dup1\n      calldatasize\n      sub\n      dup2\n      add\n      swap1\n      tag_48\n      swap2\n      swap1\n      tag_49\n      jump\t// in\n    tag_48:\n      tag_50\n      jump\t// in\n    tag_47:\n      mload(0x40)\n      tag_51\n      swap2\n      swap1\n      tag_52\n      jump\t// in\n    tag_51:\n      mload(0x40)\n      dup1\n      swap2\n      sub\n      swap1\n      return\n        /* \"DiscreetLog_flat.sol\":3174:4094  function setupLoan(... */\n    tag_9:\n      tag_53\n      0x04\n      dup1\n      calldatasize\n      sub\n      dup2\n      add\n      swap1\n      tag_54\n      swap2\n      swap1\n      tag_55\n      jump\t// in\n    tag_54:\n      tag_56\n      jump\t// in\n    tag_53:\n      mload(0x40)\n      tag_57\n      swap2\n      swap1\n      tag_52\n      jump\t// in\n    tag_57:\n      mload(0x40)\n      dup1\n      swap2\n      sub\n      swap1\n      return\n        /* \"DiscreetLog_flat.sol\":10227:10597  function getAllLoansForAddress(address _addy) public view returns (Loan[] memory) {... */\n    tag_10:\n      tag_58\n      0x04\n      dup1\n      calldatasize\n      sub\n      dup2\n      add\n      swap1\n      tag_59\n      swap2\n      swap1\n      tag_49\n      jump\t// in\n    tag_59:\n      tag_60\n      jump\t// in\n    tag_58:\n      mload(0x40)\n      tag_61\n      swap2\n      swap1\n      tag_62\n      jump\t// in\n    tag_61:\n      mload(0x40)\n      dup1\n      swap2\n      sub\n      swap1\n      return\n        /* \"DiscreetLog_flat.sol\":1351:1392  mapping(Status => string) public statuses */\n    tag_11:\n      tag_63\n      0x04\n      dup1\n      calldatasize\n      sub\n      dup2\n      add\n      swap1\n      tag_64\n      swap2\n      swap1\n      tag_65\n      jump\t// in\n    tag_64:\n      tag_66\n      jump\t// in\n    tag_63:\n      mload(0x40)\n      tag_67\n      swap2\n      swap1\n      tag_38\n      jump\t// in\n    tag_67:\n      mload(0x40)\n      dup1\n      swap2\n      sub\n      swap1\n      return\n        /* \"DiscreetLog_flat.sol\":6230:6431  function setStatusFunded(string memory _uuid) external {... */\n    tag_12:\n      tag_68\n      0x04\n      dup1\n      calldatasize\n      sub\n      dup2\n      add\n      swap1\n      tag_69\n      swap2\n      swap1\n      tag_25\n      jump\t// in\n    tag_69:\n      tag_70\n      jump\t// in\n    tag_68:\n      stop\n        /* \"DiscreetLog_flat.sol\":11050:11144  function getAllUUIDs() public view returns (string[] memory) {... */\n    tag_13:\n      tag_71\n      tag_72\n      jump\t// in\n    tag_71:\n      mload(0x40)\n      tag_73\n      swap2\n      swap1\n      tag_74\n      jump\t// in\n    tag_73:\n      mload(0x40)\n      dup1\n      swap2\n      sub\n      swap1\n      return\n        /* \"DiscreetLog_flat.sol\":7481:7899  function closeDlc(string memory _uuid) public {... */\n    tag_14:\n      tag_75\n      0x04\n      dup1\n      calldatasize\n      sub\n      dup2\n      add\n      swap1\n      tag_76\n      swap2\n      swap1\n      tag_25\n      jump\t// in\n    tag_76:\n      tag_77\n      jump\t// in\n    tag_75:\n      stop\n        /* \"DiscreetLog_flat.sol\":7154:7303  function repayLoan(uint256 loanId) external {... */\n    tag_15:\n      tag_78\n      0x04\n      dup1\n      calldatasize\n      sub\n      dup2\n      add\n      swap1\n      tag_79\n      swap2\n      swap1\n      tag_35\n      jump\t// in\n    tag_79:\n      tag_80\n      jump\t// in\n    tag_78:\n      stop\n        /* \"DiscreetLog_flat.sol\":7309:7475  function liquidateLoan(uint256 loanId) external {... */\n    tag_16:\n      tag_81\n      0x04\n      dup1\n      calldatasize\n      sub\n      dup2\n      add\n      swap1\n      tag_82\n      swap2\n      swap1\n      tag_35\n      jump\t// in\n    tag_82:\n      tag_83\n      jump\t// in\n    tag_81:\n      stop\n        /* \"DiscreetLog_flat.sol\":7905:8581  function closeDlcLiquidate(string memory _uuid) public {... */\n    tag_17:\n      tag_84\n      0x04\n      dup1\n      calldatasize\n      sub\n      dup2\n      add\n      swap1\n      tag_85\n      swap2\n      swap1\n      tag_25\n      jump\t// in\n    tag_85:\n      tag_86\n      jump\t// in\n    tag_84:\n      stop\n        /* \"DiscreetLog_flat.sol\":1083:1110  uint256 public numLoans = 0 */\n    tag_18:\n      tag_87\n      tag_88\n      jump\t// in\n    tag_87:\n      mload(0x40)\n      tag_89\n      swap2\n      swap1\n      tag_52\n      jump\t// in\n    tag_89:\n      mload(0x40)\n      dup1\n      swap2\n      sub\n      swap1\n      return\n        /* \"DiscreetLog_flat.sol\":1040:1077  mapping(uint256 => Loan) public loans */\n    tag_19:\n      tag_90\n      0x04\n      dup1\n      calldatasize\n      sub\n      dup2\n      add\n      swap1\n      tag_91\n      swap2\n      swap1\n      tag_35\n      jump\t// in\n    tag_91:\n      tag_92\n      jump\t// in\n    tag_90:\n      mload(0x40)\n      tag_93\n      swap10\n      swap9\n      swap8\n      swap7\n      swap6\n      swap5\n      swap4\n      swap3\n      swap2\n      swap1\n      tag_94\n      jump\t// in\n    tag_93:\n      mload(0x40)\n      dup1\n      swap2\n      sub\n      swap1\n      return\n        /* \"DiscreetLog_flat.sol\":999:1033  mapping(string => DLC) public dlcs */\n    tag_26:\n      0x01\n      dup2\n      dup1\n      mload\n      0x20\n      dup2\n      add\n      dup3\n      add\n      dup1\n      mload\n      dup5\n      dup3\n      mstore\n      0x20\n      dup4\n      add\n      0x20\n      dup6\n      add\n      keccak256\n      dup2\n      dup4\n      mstore\n      dup1\n      swap6\n      pop\n      pop\n      pop\n      pop\n      pop\n      pop\n      0x00\n      swap2\n      pop\n      swap1\n      pop\n      dup1\n      0x00\n      add\n      dup1\n      sload\n      tag_95\n      swap1\n      tag_96\n      jump\t// in\n    tag_95:\n      dup1\n      0x1f\n      add\n      0x20\n      dup1\n      swap2\n      div\n      mul\n      0x20\n      add\n      mload(0x40)\n      swap1\n      dup2\n      add\n      0x40\n      mstore\n      dup1\n      swap3\n      swap2\n      swap1\n      dup2\n      dup2\n      mstore\n      0x20\n      add\n      dup3\n      dup1\n      sload\n      tag_97\n      swap1\n      tag_96\n      jump\t// in\n    tag_97:\n      dup1\n      iszero\n      tag_98\n      jumpi\n      dup1\n      0x1f\n      lt\n      tag_99\n      jumpi\n      0x0100\n      dup1\n      dup4\n      sload\n      div\n      mul\n      dup4\n      mstore\n      swap2\n      0x20\n      add\n      swap2\n      jump(tag_98)\n    tag_99:\n      dup3\n      add\n      swap2\n      swap1\n      0x00\n      mstore\n      keccak256(0x00, 0x20)\n      swap1\n    tag_100:\n      dup2\n      sload\n      dup2\n      mstore\n      swap1\n      0x01\n      add\n      swap1\n      0x20\n      add\n      dup1\n      dup4\n      gt\n      tag_100\n      jumpi\n      dup3\n      swap1\n      sub\n      0x1f\n      and\n      dup3\n      add\n      swap2\n    tag_98:\n      pop\n      pop\n      pop\n      pop\n      pop\n      swap1\n      dup1\n      0x01\n      add\n      sload\n      swap1\n      dup1\n      0x02\n      add\n      sload\n      swap1\n      dup1\n      0x03\n      add\n      sload\n      swap1\n      dup1\n      0x04\n      add\n      sload\n      swap1\n      dup1\n      0x05\n      add\n      sload\n      swap1\n      dup1\n      0x06\n      add\n      sload\n      swap1\n      dup1\n      0x07\n      add\n      sload\n      swap1\n      dup1\n      0x08\n      add\n      0x00\n      swap1\n      sload\n      swap1\n      0x0100\n      exp\n      swap1\n      div\n      0xffffffffffffffffffffffffffffffffffffffff\n      and\n      swap1\n      pop\n      dup10\n      jump\t// out\n        /* \"DiscreetLog_flat.sol\":1325:1345  Status public status */\n    tag_30:\n      0x05\n      0x00\n      swap1\n      sload\n      swap1\n      0x0100\n      exp\n      swap1\n      div\n      0xff\n      and\n      dup2\n      jump\t// out\n        /* \"DiscreetLog_flat.sol\":968:993  string[] public openUUIDs */\n    tag_36:\n      0x00\n      dup2\n      dup2\n      sload\n      dup2\n      lt\n      tag_101\n      jumpi\n      0x00\n      dup1\n      revert\n    tag_101:\n      swap1\n      0x00\n      mstore\n      keccak256(0x00, 0x20)\n      add\n      0x00\n      swap2\n      pop\n      swap1\n      pop\n      dup1\n      sload\n      tag_103\n      swap1\n      tag_96\n      jump\t// in\n    tag_103:\n      dup1\n      0x1f\n      add\n      0x20\n      dup1\n      swap2\n      div\n      mul\n      0x20\n      add\n      mload(0x40)\n      swap1\n      dup2\n      add\n      0x40\n      mstore\n      dup1\n      swap3\n      swap2\n      swap1\n      dup2\n      dup2\n      mstore\n      0x20\n      add\n      dup3\n      dup1\n      sload\n      tag_104\n      swap1\n      tag_96\n      jump\t// in\n    tag_104:\n      dup1\n      iszero\n      tag_105\n      jumpi\n      dup1\n      0x1f\n      lt\n      tag_106\n      jumpi\n      0x0100\n      dup1\n      dup4\n      sload\n      div\n      mul\n      dup4\n      mstore\n      swap2\n      0x20\n      add\n      swap2\n      jump(tag_105)\n    tag_106:\n      dup3\n      add\n      swap2\n      swap1\n      0x00\n      mstore\n      keccak256(0x00, 0x20)\n      swap1\n    tag_107:\n      dup2\n      sload\n      dup2\n      mstore\n      swap1\n      0x01\n      add\n      swap1\n      0x20\n      add\n      dup1\n      dup4\n      gt\n      tag_107\n      jumpi\n      dup3\n      swap1\n      sub\n      0x1f\n      and\n      dup3\n      add\n      swap2\n    tag_105:\n      pop\n      pop\n      pop\n      pop\n      pop\n      dup2\n      jump\t// out\n        /* \"DiscreetLog_flat.sol\":5135:6163  function createDLCInternal(... */\n    tag_42:\n        /* \"DiscreetLog_flat.sol\":5415:5782  DLC({... */\n      mload(0x40)\n      dup1\n      0x0120\n      add\n      0x40\n      mstore\n      dup1\n        /* \"DiscreetLog_flat.sol\":5439:5444  _uuid */\n      dup9\n        /* \"DiscreetLog_flat.sol\":5415:5782  DLC({... */\n      dup2\n      mstore\n      0x20\n      add\n        /* \"DiscreetLog_flat.sol\":5470:5481  _btcDeposit */\n      dup8\n        /* \"DiscreetLog_flat.sol\":5415:5782  DLC({... */\n      dup2\n      mstore\n      0x20\n      add\n        /* \"DiscreetLog_flat.sol\":5513:5530  _liquidationRatio */\n      dup7\n        /* \"DiscreetLog_flat.sol\":5415:5782  DLC({... */\n      dup2\n      mstore\n      0x20\n      add\n        /* \"DiscreetLog_flat.sol\":5560:5575  _liquidationFee */\n      dup6\n        /* \"DiscreetLog_flat.sol\":5415:5782  DLC({... */\n      dup2\n      mstore\n      0x20\n      add\n        /* \"DiscreetLog_flat.sol\":5631:5651  _emergencyRefundTime */\n      dup5\n        /* \"DiscreetLog_flat.sol\":5415:5782  DLC({... */\n      dup2\n      mstore\n      0x20\n      add\n        /* \"DiscreetLog_flat.sol\":5603:5604  0 */\n      0x00\n        /* \"DiscreetLog_flat.sol\":5415:5782  DLC({... */\n      dup2\n      mstore\n      0x20\n      add\n        /* \"DiscreetLog_flat.sol\":5684:5685  0 */\n      0x00\n        /* \"DiscreetLog_flat.sol\":5415:5782  DLC({... */\n      dup2\n      mstore\n      0x20\n      add\n        /* \"DiscreetLog_flat.sol\":5720:5740  _emergencyRefundTime */\n      dup5\n        /* \"DiscreetLog_flat.sol\":5415:5782  DLC({... */\n      dup2\n      mstore\n      0x20\n      add\n        /* \"DiscreetLog_flat.sol\":5763:5771  _creator */\n      dup4\n        /* \"DiscreetLog_flat.sol\":5415:5782  DLC({... */\n      0xffffffffffffffffffffffffffffffffffffffff\n      and\n      dup2\n      mstore\n      pop\n        /* \"DiscreetLog_flat.sol\":5401:5405  dlcs */\n      0x01\n        /* \"DiscreetLog_flat.sol\":5406:5411  _uuid */\n      dup9\n        /* \"DiscreetLog_flat.sol\":5401:5412  dlcs[_uuid] */\n      mload(0x40)\n      tag_109\n      swap2\n      swap1\n      tag_110\n      jump\t// in\n    tag_109:\n      swap1\n      dup2\n      mstore\n      0x20\n      add\n      mload(0x40)\n      dup1\n      swap2\n      sub\n      swap1\n      keccak256\n        /* \"DiscreetLog_flat.sol\":5401:5782  dlcs[_uuid] = DLC({... */\n      0x00\n      dup3\n      add\n      mload\n      dup2\n      0x00\n      add\n      swap1\n      dup1\n      mload\n      swap1\n      0x20\n      add\n      swap1\n      tag_111\n      swap3\n      swap2\n      swap1\n      tag_112\n      jump\t// in\n    tag_111:\n      pop\n      0x20\n      dup3\n      add\n      mload\n      dup2\n      0x01\n      add\n      sstore\n      0x40\n      dup3\n      add\n      mload\n      dup2\n      0x02\n      add\n      sstore\n      0x60\n      dup3\n      add\n      mload\n      dup2\n      0x03\n      add\n      sstore\n      0x80\n      dup3\n      add\n      mload\n      dup2\n      0x04\n      add\n      sstore\n      0xa0\n      dup3\n      add\n      mload\n      dup2\n      0x05\n      add\n      sstore\n      0xc0\n      dup3\n      add\n      mload\n      dup2\n      0x06\n      add\n      sstore\n      0xe0\n      dup3\n      add\n      mload\n      dup2\n      0x07\n      add\n      sstore\n      0x0100\n      dup3\n      add\n      mload\n      dup2\n      0x08\n      add\n      exp(0x0100, 0x00)\n      dup2\n      sload\n      dup2\n      0xffffffffffffffffffffffffffffffffffffffff\n      mul\n      not\n      and\n      swap1\n      dup4\n      0xffffffffffffffffffffffffffffffffffffffff\n      and\n      mul\n      or\n      swap1\n      sstore\n      pop\n      swap1\n      pop\n      pop\n        /* \"DiscreetLog_flat.sol\":5792:5801  openUUIDs */\n      0x00\n        /* \"DiscreetLog_flat.sol\":5807:5812  _uuid */\n      dup8\n        /* \"DiscreetLog_flat.sol\":5792:5813  openUUIDs.push(_uuid) */\n      swap1\n      dup1\n      0x01\n      dup2\n      sload\n      add\n      dup1\n      dup3\n      sstore\n      dup1\n      swap2\n      pop\n      pop\n      0x01\n      swap1\n      sub\n      swap1\n      0x00\n      mstore\n      keccak256(0x00, 0x20)\n      add\n      0x00\n      swap1\n      swap2\n      swap1\n      swap2\n      swap1\n      swap2\n      pop\n      swap1\n      dup1\n      mload\n      swap1\n      0x20\n      add\n      swap1\n      tag_114\n      swap3\n      swap2\n      swap1\n      tag_112\n      jump\t// in\n    tag_114:\n      pop\n        /* \"DiscreetLog_flat.sol\":5848:5853  _uuid */\n      dup7\n        /* \"DiscreetLog_flat.sol\":5823:5828  loans */\n      0x02\n        /* \"DiscreetLog_flat.sol\":5823:5836  loans[_nonce] */\n      0x00\n        /* \"DiscreetLog_flat.sol\":5829:5835  _nonce */\n      dup4\n        /* \"DiscreetLog_flat.sol\":5823:5836  loans[_nonce] */\n      dup2\n      mstore\n      0x20\n      add\n      swap1\n      dup2\n      mstore\n      0x20\n      add\n      0x00\n      keccak256\n        /* \"DiscreetLog_flat.sol\":5823:5845  loans[_nonce].dlc_uuid */\n      0x01\n      add\n        /* \"DiscreetLog_flat.sol\":5823:5853  loans[_nonce].dlc_uuid = _uuid */\n      swap1\n      dup1\n      mload\n      swap1\n      0x20\n      add\n      swap1\n      tag_115\n      swap3\n      swap2\n      swap1\n      tag_112\n      jump\t// in\n    tag_115:\n      pop\n        /* \"DiscreetLog_flat.sol\":5886:5894  statuses */\n      0x06\n        /* \"DiscreetLog_flat.sol\":5886:5908  statuses[Status.Ready] */\n      0x00\n        /* \"DiscreetLog_flat.sol\":5895:5907  Status.Ready */\n      0x01\n        /* \"DiscreetLog_flat.sol\":5886:5908  statuses[Status.Ready] */\n      0x06\n      dup2\n      gt\n      iszero\n      tag_116\n      jumpi\n      tag_117\n      tag_118\n      jump\t// in\n    tag_117:\n    tag_116:\n      0x06\n      dup2\n      gt\n      iszero\n      tag_119\n      jumpi\n      tag_120\n      tag_118\n      jump\t// in\n    tag_120:\n    tag_119:\n      dup2\n      mstore\n      0x20\n      add\n      swap1\n      dup2\n      mstore\n      0x20\n      add\n      0x00\n      keccak256\n        /* \"DiscreetLog_flat.sol\":5863:5868  loans */\n      0x02\n        /* \"DiscreetLog_flat.sol\":5863:5876  loans[_nonce] */\n      0x00\n        /* \"DiscreetLog_flat.sol\":5869:5875  _nonce */\n      dup4\n        /* \"DiscreetLog_flat.sol\":5863:5876  loans[_nonce] */\n      dup2\n      mstore\n      0x20\n      add\n      swap1\n      dup2\n      mstore\n      0x20\n      add\n      0x00\n      keccak256\n        /* \"DiscreetLog_flat.sol\":5863:5883  loans[_nonce].status */\n      0x02\n      add\n        /* \"DiscreetLog_flat.sol\":5863:5908  loans[_nonce].status = statuses[Status.Ready] */\n      swap1\n      dup1\n      sload\n      tag_121\n      swap1\n      tag_96\n      jump\t// in\n    tag_121:\n      tag_122\n      swap3\n      swap2\n      swap1\n      tag_123\n      jump\t// in\n    tag_122:\n      pop\n        /* \"DiscreetLog_flat.sol\":5923:6156  CreateDLCInternal(... */\n      0xcd8f439d8f2acfcf615ca81a06950b502d3931221c697bd53d5d1c06a88d9965\n        /* \"DiscreetLog_flat.sol\":5954:5959  _uuid */\n      dup8\n        /* \"DiscreetLog_flat.sol\":5973:5984  _btcDeposit */\n      dup8\n        /* \"DiscreetLog_flat.sol\":5998:6015  _liquidationRatio */\n      dup8\n        /* \"DiscreetLog_flat.sol\":6029:6044  _liquidationFee */\n      dup8\n        /* \"DiscreetLog_flat.sol\":6058:6078  _emergencyRefundTime */\n      dup8\n        /* \"DiscreetLog_flat.sol\":6092:6100  _creator */\n      dup8\n        /* \"DiscreetLog_flat.sol\":5923:6156  CreateDLCInternal(... */\n      mload(0x40)\n      tag_124\n      swap7\n      swap6\n      swap5\n      swap4\n      swap3\n      swap2\n      swap1\n      tag_125\n      jump\t// in\n    tag_124:\n      mload(0x40)\n      dup1\n      swap2\n      sub\n      swap1\n      log1\n        /* \"DiscreetLog_flat.sol\":5135:6163  function createDLCInternal(... */\n      pop\n      pop\n      pop\n      pop\n      pop\n      pop\n      pop\n      jump\t// out\n        /* \"DiscreetLog_flat.sol\":4368:4888  function createDlc(... */\n    tag_46:\n        /* \"DiscreetLog_flat.sol\":4634:4881  CreateDLC(... */\n      0x4df421c7b448afa81019b53a86a0489ced7b8b4c57f454dba77aced8b710fb8d\n        /* \"DiscreetLog_flat.sol\":4657:4673  _vaultLoanAmount */\n      dup8\n        /* \"DiscreetLog_flat.sol\":4687:4698  _btcDeposit */\n      dup8\n        /* \"DiscreetLog_flat.sol\":4712:4729  _liquidationRatio */\n      dup8\n        /* \"DiscreetLog_flat.sol\":4743:4758  _liquidationFee */\n      dup8\n        /* \"DiscreetLog_flat.sol\":4772:4780  _creator */\n      dup8\n        /* \"DiscreetLog_flat.sol\":4794:4814  _emergencyRefundTime */\n      dup8\n        /* \"DiscreetLog_flat.sol\":4828:4834  _nonce */\n      dup8\n        /* \"DiscreetLog_flat.sol\":4634:4881  CreateDLC(... */\n      mload(0x40)\n      tag_127\n      swap8\n      swap7\n      swap6\n      swap5\n      swap4\n      swap3\n      swap2\n      swap1\n      tag_128\n      jump\t// in\n    tag_127:\n      mload(0x40)\n      dup1\n      swap2\n      sub\n      swap1\n      log1\n        /* \"DiscreetLog_flat.sol\":4368:4888  function createDlc(... */\n      pop\n      pop\n      pop\n      pop\n      pop\n      pop\n      pop\n      jump\t// out\n        /* \"DiscreetLog_flat.sol\":1117:1167  mapping(address => uint256) public loansPerAddress */\n    tag_50:\n      mstore(0x20, 0x04)\n      dup1\n      0x00\n      mstore\n      keccak256(0x00, 0x40)\n      0x00\n      swap2\n      pop\n      swap1\n      pop\n      sload\n      dup2\n      jump\t// out\n        /* \"DiscreetLog_flat.sol\":3174:4094  function setupLoan(... */\n    tag_56:\n        /* \"DiscreetLog_flat.sol\":3389:3396  uint256 */\n      0x00\n        /* \"DiscreetLog_flat.sol\":3430:3778  Loan({... */\n      mload(0x40)\n      dup1\n      0x0120\n      add\n      0x40\n      mstore\n      dup1\n        /* \"DiscreetLog_flat.sol\":3453:3461  numLoans */\n      sload(0x03)\n        /* \"DiscreetLog_flat.sol\":3430:3778  Loan({... */\n      dup2\n      mstore\n      0x20\n      add\n      mload(0x40)\n      dup1\n      0x20\n      add\n      0x40\n      mstore\n      dup1\n      0x00\n      dup2\n      mstore\n      pop\n      dup2\n      mstore\n      0x20\n      add\n        /* \"DiscreetLog_flat.sol\":3509:3517  statuses */\n      0x06\n        /* \"DiscreetLog_flat.sol\":3509:3534  statuses[Status.NotReady] */\n      0x00\n        /* \"DiscreetLog_flat.sol\":3518:3533  Status.NotReady */\n      dup1\n        /* \"DiscreetLog_flat.sol\":3509:3534  statuses[Status.NotReady] */\n      0x06\n      dup2\n      gt\n      iszero\n      tag_130\n      jumpi\n      tag_131\n      tag_118\n      jump\t// in\n    tag_131:\n    tag_130:\n      0x06\n      dup2\n      gt\n      iszero\n      tag_132\n      jumpi\n      tag_133\n      tag_118\n      jump\t// in\n    tag_133:\n    tag_132:\n      dup2\n      mstore\n      0x20\n      add\n      swap1\n      dup2\n      mstore\n      0x20\n      add\n      0x00\n      keccak256\n        /* \"DiscreetLog_flat.sol\":3430:3778  Loan({... */\n      dup1\n      sload\n      tag_134\n      swap1\n      tag_96\n      jump\t// in\n    tag_134:\n      dup1\n      0x1f\n      add\n      0x20\n      dup1\n      swap2\n      div\n      mul\n      0x20\n      add\n      mload(0x40)\n      swap1\n      dup2\n      add\n      0x40\n      mstore\n      dup1\n      swap3\n      swap2\n      swap1\n      dup2\n      dup2\n      mstore\n      0x20\n      add\n      dup3\n      dup1\n      sload\n      tag_135\n      swap1\n      tag_96\n      jump\t// in\n    tag_135:\n      dup1\n      iszero\n      tag_136\n      jumpi\n      dup1\n      0x1f\n      lt\n      tag_137\n      jumpi\n      0x0100\n      dup1\n      dup4\n      sload\n      div\n      mul\n      dup4\n      mstore\n      swap2\n      0x20\n      add\n      swap2\n      jump(tag_136)\n    tag_137:\n      dup3\n      add\n      swap2\n      swap1\n      0x00\n      mstore\n      keccak256(0x00, 0x20)\n      swap1\n    tag_138:\n      dup2\n      sload\n      dup2\n      mstore\n      swap1\n      0x01\n      add\n      swap1\n      0x20\n      add\n      dup1\n      dup4\n      gt\n      tag_138\n      jumpi\n      dup3\n      swap1\n      sub\n      0x1f\n      and\n      dup3\n      add\n      swap2\n    tag_136:\n      pop\n      pop\n      pop\n      pop\n      pop\n      dup2\n      mstore\n      0x20\n      add\n        /* \"DiscreetLog_flat.sol\":3559:3574  vaultLoanAmount */\n      dup8\n        /* \"DiscreetLog_flat.sol\":3430:3778  Loan({... */\n      dup2\n      mstore\n      0x20\n      add\n        /* \"DiscreetLog_flat.sol\":3605:3615  btcDeposit */\n      dup7\n        /* \"DiscreetLog_flat.sol\":3430:3778  Loan({... */\n      dup2\n      mstore\n      0x20\n      add\n        /* \"DiscreetLog_flat.sol\":3647:3663  liquidationRatio */\n      dup6\n        /* \"DiscreetLog_flat.sol\":3430:3778  Loan({... */\n      dup2\n      mstore\n      0x20\n      add\n        /* \"DiscreetLog_flat.sol\":3693:3707  liquidationFee */\n      dup5\n        /* \"DiscreetLog_flat.sol\":3430:3778  Loan({... */\n      dup2\n      mstore\n      0x20\n      add\n        /* \"DiscreetLog_flat.sol\":3735:3736  0 */\n      0x00\n        /* \"DiscreetLog_flat.sol\":3430:3778  Loan({... */\n      dup2\n      mstore\n      0x20\n      add\n        /* \"DiscreetLog_flat.sol\":3757:3767  msg.sender */\n      caller\n        /* \"DiscreetLog_flat.sol\":3430:3778  Loan({... */\n      0xffffffffffffffffffffffffffffffffffffffff\n      and\n      dup2\n      mstore\n      pop\n        /* \"DiscreetLog_flat.sol\":3412:3417  loans */\n      0x02\n        /* \"DiscreetLog_flat.sol\":3412:3427  loans[numLoans] */\n      0x00\n        /* \"DiscreetLog_flat.sol\":3418:3426  numLoans */\n      sload(0x03)\n        /* \"DiscreetLog_flat.sol\":3412:3427  loans[numLoans] */\n      dup2\n      mstore\n      0x20\n      add\n      swap1\n      dup2\n      mstore\n      0x20\n      add\n      0x00\n      keccak256\n        /* \"DiscreetLog_flat.sol\":3412:3778  loans[numLoans] = Loan({... */\n      0x00\n      dup3\n      add\n      mload\n      dup2\n      0x00\n      add\n      sstore\n      0x20\n      dup3\n      add\n      mload\n      dup2\n      0x01\n      add\n      swap1\n      dup1\n      mload\n      swap1\n      0x20\n      add\n      swap1\n      tag_139\n      swap3\n      swap2\n      swap1\n      tag_112\n      jump\t// in\n    tag_139:\n      pop\n      0x40\n      dup3\n      add\n      mload\n      dup2\n      0x02\n      add\n      swap1\n      dup1\n      mload\n      swap1\n      0x20\n      add\n      swap1\n      tag_140\n      swap3\n      swap2\n      swap1\n      tag_112\n      jump\t// in\n    tag_140:\n      pop\n      0x60\n      dup3\n      add\n      mload\n      dup2\n      0x03\n      add\n      sstore\n      0x80\n      dup3\n      add\n      mload\n      dup2\n      0x04\n      add\n      sstore\n      0xa0\n      dup3\n      add\n      mload\n      dup2\n      0x05\n      add\n      sstore\n      0xc0\n      dup3\n      add\n      mload\n      dup2\n      0x06\n      add\n      sstore\n      0xe0\n      dup3\n      add\n      mload\n      dup2\n      0x07\n      add\n      sstore\n      0x0100\n      dup3\n      add\n      mload\n      dup2\n      0x08\n      add\n      exp(0x0100, 0x00)\n      dup2\n      sload\n      dup2\n      0xffffffffffffffffffffffffffffffffffffffff\n      mul\n      not\n      and\n      swap1\n      dup4\n      0xffffffffffffffffffffffffffffffffffffffff\n      and\n      mul\n      or\n      swap1\n      sstore\n      pop\n      swap1\n      pop\n      pop\n        /* \"DiscreetLog_flat.sol\":3789:3998  createDlc(... */\n      tag_141\n        /* \"DiscreetLog_flat.sol\":3812:3827  vaultLoanAmount */\n      dup7\n        /* \"DiscreetLog_flat.sol\":3841:3851  btcDeposit */\n      dup7\n        /* \"DiscreetLog_flat.sol\":3865:3881  liquidationRatio */\n      dup7\n        /* \"DiscreetLog_flat.sol\":3895:3909  liquidationFee */\n      dup7\n        /* \"DiscreetLog_flat.sol\":3923:3933  msg.sender */\n      caller\n        /* \"DiscreetLog_flat.sol\":3947:3966  emergencyRefundTime */\n      dup8\n        /* \"DiscreetLog_flat.sol\":3980:3988  numLoans */\n      sload(0x03)\n        /* \"DiscreetLog_flat.sol\":3789:3798  createDlc */\n      tag_46\n        /* \"DiscreetLog_flat.sol\":3789:3998  createDlc(... */\n      jump\t// in\n    tag_141:\n        /* \"DiscreetLog_flat.sol\":4008:4023  loansPerAddress */\n      0x04\n        /* \"DiscreetLog_flat.sol\":4008:4035  loansPerAddress[msg.sender] */\n      0x00\n        /* \"DiscreetLog_flat.sol\":4024:4034  msg.sender */\n      caller\n        /* \"DiscreetLog_flat.sol\":4008:4035  loansPerAddress[msg.sender] */\n      0xffffffffffffffffffffffffffffffffffffffff\n      and\n      0xffffffffffffffffffffffffffffffffffffffff\n      and\n      dup2\n      mstore\n      0x20\n      add\n      swap1\n      dup2\n      mstore\n      0x20\n      add\n      0x00\n      keccak256\n      0x00\n        /* \"DiscreetLog_flat.sol\":4008:4037  loansPerAddress[msg.sender]++ */\n      dup2\n      sload\n      dup1\n      swap3\n      swap2\n      swap1\n      tag_142\n      swap1\n      tag_143\n      jump\t// in\n    tag_142:\n      swap2\n      swap1\n      pop\n      sstore\n      pop\n        /* \"DiscreetLog_flat.sol\":4047:4055  numLoans */\n      0x03\n      0x00\n        /* \"DiscreetLog_flat.sol\":4047:4057  numLoans++ */\n      dup2\n      sload\n      dup1\n      swap3\n      swap2\n      swap1\n      tag_144\n      swap1\n      tag_143\n      jump\t// in\n    tag_144:\n      swap2\n      swap1\n      pop\n      sstore\n      pop\n        /* \"DiscreetLog_flat.sol\":4085:4086  1 */\n      0x01\n        /* \"DiscreetLog_flat.sol\":4074:4082  numLoans */\n      sload(0x03)\n        /* \"DiscreetLog_flat.sol\":4074:4086  numLoans - 1 */\n      tag_145\n      swap2\n      swap1\n      tag_146\n      jump\t// in\n    tag_145:\n        /* \"DiscreetLog_flat.sol\":4067:4087  return(numLoans - 1) */\n      swap1\n      pop\n        /* \"DiscreetLog_flat.sol\":3174:4094  function setupLoan(... */\n      swap6\n      swap5\n      pop\n      pop\n      pop\n      pop\n      pop\n      jump\t// out\n        /* \"DiscreetLog_flat.sol\":10227:10597  function getAllLoansForAddress(address _addy) public view returns (Loan[] memory) {... */\n    tag_60:\n        /* \"DiscreetLog_flat.sol\":10294:10307  Loan[] memory */\n      0x60\n        /* \"DiscreetLog_flat.sol\":10319:10343  Loan[] memory ownedLoans */\n      0x00\n        /* \"DiscreetLog_flat.sol\":10357:10372  loansPerAddress */\n      0x04\n        /* \"DiscreetLog_flat.sol\":10357:10379  loansPerAddress[_addy] */\n      0x00\n        /* \"DiscreetLog_flat.sol\":10373:10378  _addy */\n      dup5\n        /* \"DiscreetLog_flat.sol\":10357:10379  loansPerAddress[_addy] */\n      0xffffffffffffffffffffffffffffffffffffffff\n      and\n      0xffffffffffffffffffffffffffffffffffffffff\n      and\n      dup2\n      mstore\n      0x20\n      add\n      swap1\n      dup2\n      mstore\n      0x20\n      add\n      0x00\n      keccak256\n      sload\n        /* \"DiscreetLog_flat.sol\":10346:10380  new Loan[](loansPerAddress[_addy]) */\n      0xffffffffffffffff\n      dup2\n      gt\n      iszero\n      tag_148\n      jumpi\n      tag_149\n      tag_150\n      jump\t// in\n    tag_149:\n    tag_148:\n      mload(0x40)\n      swap1\n      dup1\n      dup3\n      mstore\n      dup1\n      0x20\n      mul\n      0x20\n      add\n      dup3\n      add\n      0x40\n      mstore\n      dup1\n      iszero\n      tag_151\n      jumpi\n      dup2\n      0x20\n      add\n    tag_152:\n      tag_153\n      tag_154\n      jump\t// in\n    tag_153:\n      dup2\n      mstore\n      0x20\n      add\n      swap1\n      0x01\n      swap1\n      sub\n      swap1\n      dup2\n      tag_152\n      jumpi\n      swap1\n      pop\n    tag_151:\n      pop\n        /* \"DiscreetLog_flat.sol\":10319:10380  Loan[] memory ownedLoans = new Loan[](loansPerAddress[_addy]) */\n      swap1\n      pop\n        /* \"DiscreetLog_flat.sol\":10390:10399  uint256 j */\n      0x00\n        /* \"DiscreetLog_flat.sol\":10418:10427  uint256 i */\n      dup1\n        /* \"DiscreetLog_flat.sol\":10413:10564  for (uint256 i = 0; i < numLoans; i++) {... */\n    tag_155:\n        /* \"DiscreetLog_flat.sol\":10437:10445  numLoans */\n      sload(0x03)\n        /* \"DiscreetLog_flat.sol\":10433:10434  i */\n      dup2\n        /* \"DiscreetLog_flat.sol\":10433:10445  i < numLoans */\n      lt\n        /* \"DiscreetLog_flat.sol\":10413:10564  for (uint256 i = 0; i < numLoans; i++) {... */\n      iszero\n      tag_156\n      jumpi\n        /* \"DiscreetLog_flat.sol\":10488:10493  _addy */\n      dup5\n        /* \"DiscreetLog_flat.sol\":10470:10493  loans[i].owner == _addy */\n      0xffffffffffffffffffffffffffffffffffffffff\n      and\n        /* \"DiscreetLog_flat.sol\":10470:10475  loans */\n      0x02\n        /* \"DiscreetLog_flat.sol\":10470:10478  loans[i] */\n      0x00\n        /* \"DiscreetLog_flat.sol\":10476:10477  i */\n      dup4\n        /* \"DiscreetLog_flat.sol\":10470:10478  loans[i] */\n      dup2\n      mstore\n      0x20\n      add\n      swap1\n      dup2\n      mstore\n      0x20\n      add\n      0x00\n      keccak256\n        /* \"DiscreetLog_flat.sol\":10470:10484  loans[i].owner */\n      0x08\n      add\n      0x00\n      swap1\n      sload\n      swap1\n      0x0100\n      exp\n      swap1\n      div\n      0xffffffffffffffffffffffffffffffffffffffff\n      and\n        /* \"DiscreetLog_flat.sol\":10470:10493  loans[i].owner == _addy */\n      0xffffffffffffffffffffffffffffffffffffffff\n      and\n      eq\n        /* \"DiscreetLog_flat.sol\":10466:10554  if (loans[i].owner == _addy) {... */\n      iszero\n      tag_158\n      jumpi\n        /* \"DiscreetLog_flat.sol\":10531:10536  loans */\n      0x02\n        /* \"DiscreetLog_flat.sol\":10531:10539  loans[i] */\n      0x00\n        /* \"DiscreetLog_flat.sol\":10537:10538  i */\n      dup3\n        /* \"DiscreetLog_flat.sol\":10531:10539  loans[i] */\n      dup2\n      mstore\n      0x20\n      add\n      swap1\n      dup2\n      mstore\n      0x20\n      add\n      0x00\n      keccak256\n        /* \"DiscreetLog_flat.sol\":10513:10539  ownedLoans[j++] = loans[i] */\n      mload(0x40)\n      dup1\n      0x0120\n      add\n      0x40\n      mstore\n      swap1\n      dup2\n      0x00\n      dup3\n      add\n      sload\n      dup2\n      mstore\n      0x20\n      add\n      0x01\n      dup3\n      add\n      dup1\n      sload\n      tag_159\n      swap1\n      tag_96\n      jump\t// in\n    tag_159:\n      dup1\n      0x1f\n      add\n      0x20\n      dup1\n      swap2\n      div\n      mul\n      0x20\n      add\n      mload(0x40)\n      swap1\n      dup2\n      add\n      0x40\n      mstore\n      dup1\n      swap3\n      swap2\n      swap1\n      dup2\n      dup2\n      mstore\n      0x20\n      add\n      dup3\n      dup1\n      sload\n      tag_160\n      swap1\n      tag_96\n      jump\t// in\n    tag_160:\n      dup1\n      iszero\n      tag_161\n      jumpi\n      dup1\n      0x1f\n      lt\n      tag_162\n      jumpi\n      0x0100\n      dup1\n      dup4\n      sload\n      div\n      mul\n      dup4\n      mstore\n      swap2\n      0x20\n      add\n      swap2\n      jump(tag_161)\n    tag_162:\n      dup3\n      add\n      swap2\n      swap1\n      0x00\n      mstore\n      keccak256(0x00, 0x20)\n      swap1\n    tag_163:\n      dup2\n      sload\n      dup2\n      mstore\n      swap1\n      0x01\n      add\n      swap1\n      0x20\n      add\n      dup1\n      dup4\n      gt\n      tag_163\n      jumpi\n      dup3\n      swap1\n      sub\n      0x1f\n      and\n      dup3\n      add\n      swap2\n    tag_161:\n      pop\n      pop\n      pop\n      pop\n      pop\n      dup2\n      mstore\n      0x20\n      add\n      0x02\n      dup3\n      add\n      dup1\n      sload\n      tag_164\n      swap1\n      tag_96\n      jump\t// in\n    tag_164:\n      dup1\n      0x1f\n      add\n      0x20\n      dup1\n      swap2\n      div\n      mul\n      0x20\n      add\n      mload(0x40)\n      swap1\n      dup2\n      add\n      0x40\n      mstore\n      dup1\n      swap3\n      swap2\n      swap1\n      dup2\n      dup2\n      mstore\n      0x20\n      add\n      dup3\n      dup1\n      sload\n      tag_165\n      swap1\n      tag_96\n      jump\t// in\n    tag_165:\n      dup1\n      iszero\n      tag_166\n      jumpi\n      dup1\n      0x1f\n      lt\n      tag_167\n      jumpi\n      0x0100\n      dup1\n      dup4\n      sload\n      div\n      mul\n      dup4\n      mstore\n      swap2\n      0x20\n      add\n      swap2\n      jump(tag_166)\n    tag_167:\n      dup3\n      add\n      swap2\n      swap1\n      0x00\n      mstore\n      keccak256(0x00, 0x20)\n      swap1\n    tag_168:\n      dup2\n      sload\n      dup2\n      mstore\n      swap1\n      0x01\n      add\n      swap1\n      0x20\n      add\n      dup1\n      dup4\n      gt\n      tag_168\n      jumpi\n      dup3\n      swap1\n      sub\n      0x1f\n      and\n      dup3\n      add\n      swap2\n    tag_166:\n      pop\n      pop\n      pop\n      pop\n      pop\n      dup2\n      mstore\n      0x20\n      add\n      0x03\n      dup3\n      add\n      sload\n      dup2\n      mstore\n      0x20\n      add\n      0x04\n      dup3\n      add\n      sload\n      dup2\n      mstore\n      0x20\n      add\n      0x05\n      dup3\n      add\n      sload\n      dup2\n      mstore\n      0x20\n      add\n      0x06\n      dup3\n      add\n      sload\n      dup2\n      mstore\n      0x20\n      add\n      0x07\n      dup3\n      add\n      sload\n      dup2\n      mstore\n      0x20\n      add\n      0x08\n      dup3\n      add\n      0x00\n      swap1\n      sload\n      swap1\n      0x0100\n      exp\n      swap1\n      div\n      0xffffffffffffffffffffffffffffffffffffffff\n      and\n      0xffffffffffffffffffffffffffffffffffffffff\n      and\n      0xffffffffffffffffffffffffffffffffffffffff\n      and\n      dup2\n      mstore\n      pop\n      pop\n        /* \"DiscreetLog_flat.sol\":10513:10523  ownedLoans */\n      dup4\n        /* \"DiscreetLog_flat.sol\":10524:10527  j++ */\n      dup4\n      dup1\n      tag_169\n      swap1\n      tag_143\n      jump\t// in\n    tag_169:\n      swap5\n      pop\n        /* \"DiscreetLog_flat.sol\":10513:10528  ownedLoans[j++] */\n      dup2\n      mload\n      dup2\n      lt\n      tag_170\n      jumpi\n      tag_171\n      tag_172\n      jump\t// in\n    tag_171:\n    tag_170:\n      0x20\n      mul\n      0x20\n      add\n      add\n        /* \"DiscreetLog_flat.sol\":10513:10539  ownedLoans[j++] = loans[i] */\n      dup2\n      swap1\n      mstore\n      pop\n        /* \"DiscreetLog_flat.sol\":10466:10554  if (loans[i].owner == _addy) {... */\n    tag_158:\n        /* \"DiscreetLog_flat.sol\":10447:10450  i++ */\n      dup1\n      dup1\n      tag_173\n      swap1\n      tag_143\n      jump\t// in\n    tag_173:\n      swap2\n      pop\n      pop\n        /* \"DiscreetLog_flat.sol\":10413:10564  for (uint256 i = 0; i < numLoans; i++) {... */\n      jump(tag_155)\n    tag_156:\n      pop\n        /* \"DiscreetLog_flat.sol\":10580:10590  ownedLoans */\n      dup2\n        /* \"DiscreetLog_flat.sol\":10573:10590  return ownedLoans */\n      swap3\n      pop\n      pop\n      pop\n        /* \"DiscreetLog_flat.sol\":10227:10597  function getAllLoansForAddress(address _addy) public view returns (Loan[] memory) {... */\n      swap2\n      swap1\n      pop\n      jump\t// out\n        /* \"DiscreetLog_flat.sol\":1351:1392  mapping(Status => string) public statuses */\n    tag_66:\n      mstore(0x20, 0x06)\n      dup1\n      0x00\n      mstore\n      keccak256(0x00, 0x40)\n      0x00\n      swap2\n      pop\n      swap1\n      pop\n      dup1\n      sload\n      tag_174\n      swap1\n      tag_96\n      jump\t// in\n    tag_174:\n      dup1\n      0x1f\n      add\n      0x20\n      dup1\n      swap2\n      div\n      mul\n      0x20\n      add\n      mload(0x40)\n      swap1\n      dup2\n      add\n      0x40\n      mstore\n      dup1\n      swap3\n      swap2\n      swap1\n      dup2\n      dup2\n      mstore\n      0x20\n      add\n      dup3\n      dup1\n      sload\n      tag_175\n      swap1\n      tag_96\n      jump\t// in\n    tag_175:\n      dup1\n      iszero\n      tag_176\n      jumpi\n      dup1\n      0x1f\n      lt\n      tag_177\n      jumpi\n      0x0100\n      dup1\n      dup4\n      sload\n      div\n      mul\n      dup4\n      mstore\n      swap2\n      0x20\n      add\n      swap2\n      jump(tag_176)\n    tag_177:\n      dup3\n      add\n      swap2\n      swap1\n      0x00\n      mstore\n      keccak256(0x00, 0x20)\n      swap1\n    tag_178:\n      dup2\n      sload\n      dup2\n      mstore\n      swap1\n      0x01\n      add\n      swap1\n      0x20\n      add\n      dup1\n      dup4\n      gt\n      tag_178\n      jumpi\n      dup3\n      swap1\n      sub\n      0x1f\n      and\n      dup3\n      add\n      swap2\n    tag_176:\n      pop\n      pop\n      pop\n      pop\n      pop\n      dup2\n      jump\t// out\n        /* \"DiscreetLog_flat.sol\":6230:6431  function setStatusFunded(string memory _uuid) external {... */\n    tag_70:\n        /* \"DiscreetLog_flat.sol\":6332:6340  statuses */\n      0x06\n        /* \"DiscreetLog_flat.sol\":6332:6355  statuses[Status.Funded] */\n      0x00\n        /* \"DiscreetLog_flat.sol\":6341:6354  Status.Funded */\n      0x02\n        /* \"DiscreetLog_flat.sol\":6332:6355  statuses[Status.Funded] */\n      0x06\n      dup2\n      gt\n      iszero\n      tag_180\n      jumpi\n      tag_181\n      tag_118\n      jump\t// in\n    tag_181:\n    tag_180:\n      0x06\n      dup2\n      gt\n      iszero\n      tag_182\n      jumpi\n      tag_183\n      tag_118\n      jump\t// in\n    tag_183:\n    tag_182:\n      dup2\n      mstore\n      0x20\n      add\n      swap1\n      dup2\n      mstore\n      0x20\n      add\n      0x00\n      keccak256\n        /* \"DiscreetLog_flat.sol\":6295:6300  loans */\n      0x02\n        /* \"DiscreetLog_flat.sol\":6295:6322  loans[findLoanIndex(_uuid)] */\n      0x00\n        /* \"DiscreetLog_flat.sol\":6301:6321  findLoanIndex(_uuid) */\n      tag_184\n        /* \"DiscreetLog_flat.sol\":6315:6320  _uuid */\n      dup5\n        /* \"DiscreetLog_flat.sol\":6301:6314  findLoanIndex */\n      tag_185\n        /* \"DiscreetLog_flat.sol\":6301:6321  findLoanIndex(_uuid) */\n      jump\t// in\n    tag_184:\n        /* \"DiscreetLog_flat.sol\":6295:6322  loans[findLoanIndex(_uuid)] */\n      dup2\n      mstore\n      0x20\n      add\n      swap1\n      dup2\n      mstore\n      0x20\n      add\n      0x00\n      keccak256\n        /* \"DiscreetLog_flat.sol\":6295:6329  loans[findLoanIndex(_uuid)].status */\n      0x02\n      add\n        /* \"DiscreetLog_flat.sol\":6295:6355  loans[findLoanIndex(_uuid)].status = statuses[Status.Funded] */\n      swap1\n      dup1\n      sload\n      tag_186\n      swap1\n      tag_96\n      jump\t// in\n    tag_186:\n      tag_187\n      swap3\n      swap2\n      swap1\n      tag_123\n      jump\t// in\n    tag_187:\n      pop\n        /* \"DiscreetLog_flat.sol\":6370:6424  SetStatusFunded(_uuid, \"dlclink:set-status-funded:v0\") */\n      0x315900bbe635fecc5728b8562969ce616fd5ec4c23ec22fc7930c46d826f906d\n        /* \"DiscreetLog_flat.sol\":6386:6391  _uuid */\n      dup2\n        /* \"DiscreetLog_flat.sol\":6370:6424  SetStatusFunded(_uuid, \"dlclink:set-status-funded:v0\") */\n      mload(0x40)\n      tag_188\n      swap2\n      swap1\n      tag_189\n      jump\t// in\n    tag_188:\n      mload(0x40)\n      dup1\n      swap2\n      sub\n      swap1\n      log1\n        /* \"DiscreetLog_flat.sol\":6230:6431  function setStatusFunded(string memory _uuid) external {... */\n      pop\n      jump\t// out\n        /* \"DiscreetLog_flat.sol\":11050:11144  function getAllUUIDs() public view returns (string[] memory) {... */\n    tag_72:\n        /* \"DiscreetLog_flat.sol\":11094:11109  string[] memory */\n      0x60\n        /* \"DiscreetLog_flat.sol\":11128:11137  openUUIDs */\n      0x00\n        /* \"DiscreetLog_flat.sol\":11121:11137  return openUUIDs */\n      dup1\n      sload\n      dup1\n      0x20\n      mul\n      0x20\n      add\n      mload(0x40)\n      swap1\n      dup2\n      add\n      0x40\n      mstore\n      dup1\n      swap3\n      swap2\n      swap1\n      dup2\n      dup2\n      mstore\n      0x20\n      add\n      0x00\n      swap1\n    tag_191:\n      dup3\n      dup3\n      lt\n      iszero\n      tag_192\n      jumpi\n      dup4\n      dup3\n      swap1\n      0x00\n      mstore\n      keccak256(0x00, 0x20)\n      add\n      dup1\n      sload\n      tag_194\n      swap1\n      tag_96\n      jump\t// in\n    tag_194:\n      dup1\n      0x1f\n      add\n      0x20\n      dup1\n      swap2\n      div\n      mul\n      0x20\n      add\n      mload(0x40)\n      swap1\n      dup2\n      add\n      0x40\n      mstore\n      dup1\n      swap3\n      swap2\n      swap1\n      dup2\n      dup2\n      mstore\n      0x20\n      add\n      dup3\n      dup1\n      sload\n      tag_195\n      swap1\n      tag_96\n      jump\t// in\n    tag_195:\n      dup1\n      iszero\n      tag_196\n      jumpi\n      dup1\n      0x1f\n      lt\n      tag_197\n      jumpi\n      0x0100\n      dup1\n      dup4\n      sload\n      div\n      mul\n      dup4\n      mstore\n      swap2\n      0x20\n      add\n      swap2\n      jump(tag_196)\n    tag_197:\n      dup3\n      add\n      swap2\n      swap1\n      0x00\n      mstore\n      keccak256(0x00, 0x20)\n      swap1\n    tag_198:\n      dup2\n      sload\n      dup2\n      mstore\n      swap1\n      0x01\n      add\n      swap1\n      0x20\n      add\n      dup1\n      dup4\n      gt\n      tag_198\n      jumpi\n      dup3\n      swap1\n      sub\n      0x1f\n      and\n      dup3\n      add\n      swap2\n    tag_196:\n      pop\n      pop\n      pop\n      pop\n      pop\n      dup2\n      mstore\n      0x20\n      add\n      swap1\n      0x01\n      add\n      swap1\n      jump(tag_191)\n    tag_192:\n      pop\n      pop\n      pop\n      pop\n      swap1\n      pop\n        /* \"DiscreetLog_flat.sol\":11050:11144  function getAllUUIDs() public view returns (string[] memory) {... */\n      swap1\n      jump\t// out\n        /* \"DiscreetLog_flat.sol\":7481:7899  function closeDlc(string memory _uuid) public {... */\n    tag_77:\n        /* \"DiscreetLog_flat.sol\":7537:7552  DLC storage dlc */\n      0x00\n        /* \"DiscreetLog_flat.sol\":7555:7559  dlcs */\n      0x01\n        /* \"DiscreetLog_flat.sol\":7560:7565  _uuid */\n      dup3\n        /* \"DiscreetLog_flat.sol\":7555:7566  dlcs[_uuid] */\n      mload(0x40)\n      tag_200\n      swap2\n      swap1\n      tag_110\n      jump\t// in\n    tag_200:\n      swap1\n      dup2\n      mstore\n      0x20\n      add\n      mload(0x40)\n      dup1\n      swap2\n      sub\n      swap1\n      keccak256\n        /* \"DiscreetLog_flat.sol\":7537:7566  DLC storage dlc = dlcs[_uuid] */\n      swap1\n      pop\n        /* \"DiscreetLog_flat.sol\":7616:7631  block.timestamp */\n      timestamp\n        /* \"DiscreetLog_flat.sol\":7597:7600  dlc */\n      dup2\n        /* \"DiscreetLog_flat.sol\":7597:7612  dlc.closingTime */\n      0x04\n      add\n      sload\n        /* \"DiscreetLog_flat.sol\":7597:7631  dlc.closingTime <= block.timestamp */\n      gt\n      iszero\n        /* \"DiscreetLog_flat.sol\":7597:7661  dlc.closingTime <= block.timestamp && dlc.actualClosingTime == 0 */\n      dup1\n      iszero\n      tag_201\n      jumpi\n      pop\n        /* \"DiscreetLog_flat.sol\":7660:7661  0 */\n      0x00\n        /* \"DiscreetLog_flat.sol\":7635:7638  dlc */\n      dup2\n        /* \"DiscreetLog_flat.sol\":7635:7656  dlc.actualClosingTime */\n      0x06\n      add\n      sload\n        /* \"DiscreetLog_flat.sol\":7635:7661  dlc.actualClosingTime == 0 */\n      eq\n        /* \"DiscreetLog_flat.sol\":7597:7661  dlc.closingTime <= block.timestamp && dlc.actualClosingTime == 0 */\n    tag_201:\n        /* \"DiscreetLog_flat.sol\":7576:7717  require(... */\n      tag_202\n      jumpi\n      mload(0x40)\n      0x08c379a000000000000000000000000000000000000000000000000000000000\n      dup2\n      mstore\n      0x04\n      add\n      tag_203\n      swap1\n      tag_204\n      jump\t// in\n    tag_203:\n      mload(0x40)\n      dup1\n      swap2\n      sub\n      swap1\n      revert\n    tag_202:\n        /* \"DiscreetLog_flat.sol\":7728:7746  int256 payoutRatio */\n      0x00\n        /* \"DiscreetLog_flat.sol\":7796:7829  removeClosedDLC(findIndex(_uuid)) */\n      tag_205\n        /* \"DiscreetLog_flat.sol\":7812:7828  findIndex(_uuid) */\n      tag_206\n        /* \"DiscreetLog_flat.sol\":7822:7827  _uuid */\n      dup5\n        /* \"DiscreetLog_flat.sol\":7812:7821  findIndex */\n      tag_207\n        /* \"DiscreetLog_flat.sol\":7812:7828  findIndex(_uuid) */\n      jump\t// in\n    tag_206:\n        /* \"DiscreetLog_flat.sol\":7796:7811  removeClosedDLC */\n      tag_208\n        /* \"DiscreetLog_flat.sol\":7796:7829  removeClosedDLC(findIndex(_uuid)) */\n      jump\t// in\n    tag_205:\n      pop\n        /* \"DiscreetLog_flat.sol\":7844:7892  CloseDLC(_uuid, payoutRatio, 0, block.timestamp) */\n      0xc244ef6abb581fce6ec7f623ffa560ac7d27f787d59020e83a6936bfb9d1d731\n        /* \"DiscreetLog_flat.sol\":7853:7858  _uuid */\n      dup4\n        /* \"DiscreetLog_flat.sol\":7860:7871  payoutRatio */\n      dup3\n        /* \"DiscreetLog_flat.sol\":7873:7874  0 */\n      0x00\n        /* \"DiscreetLog_flat.sol\":7876:7891  block.timestamp */\n      timestamp\n        /* \"DiscreetLog_flat.sol\":7844:7892  CloseDLC(_uuid, payoutRatio, 0, block.timestamp) */\n      mload(0x40)\n      tag_209\n      swap5\n      swap4\n      swap3\n      swap2\n      swap1\n      tag_210\n      jump\t// in\n    tag_209:\n      mload(0x40)\n      dup1\n      swap2\n      sub\n      swap1\n      log1\n        /* \"DiscreetLog_flat.sol\":7527:7899  {... */\n      pop\n      pop\n        /* \"DiscreetLog_flat.sol\":7481:7899  function closeDlc(string memory _uuid) public {... */\n      pop\n      jump\t// out\n        /* \"DiscreetLog_flat.sol\":7154:7303  function repayLoan(uint256 loanId) external {... */\n    tag_80:\n        /* \"DiscreetLog_flat.sol\":7208:7240  closeDlc(loans[loanId].dlc_uuid) */\n      tag_212\n        /* \"DiscreetLog_flat.sol\":7217:7222  loans */\n      0x02\n        /* \"DiscreetLog_flat.sol\":7217:7230  loans[loanId] */\n      0x00\n        /* \"DiscreetLog_flat.sol\":7223:7229  loanId */\n      dup4\n        /* \"DiscreetLog_flat.sol\":7217:7230  loans[loanId] */\n      dup2\n      mstore\n      0x20\n      add\n      swap1\n      dup2\n      mstore\n      0x20\n      add\n      0x00\n      keccak256\n        /* \"DiscreetLog_flat.sol\":7217:7239  loans[loanId].dlc_uuid */\n      0x01\n      add\n        /* \"DiscreetLog_flat.sol\":7208:7240  closeDlc(loans[loanId].dlc_uuid) */\n      dup1\n      sload\n      tag_213\n      swap1\n      tag_96\n      jump\t// in\n    tag_213:\n      dup1\n      0x1f\n      add\n      0x20\n      dup1\n      swap2\n      div\n      mul\n      0x20\n      add\n      mload(0x40)\n      swap1\n      dup2\n      add\n      0x40\n      mstore\n      dup1\n      swap3\n      swap2\n      swap1\n      dup2\n      dup2\n      mstore\n      0x20\n      add\n      dup3\n      dup1\n      sload\n      tag_214\n      swap1\n      tag_96\n      jump\t// in\n    tag_214:\n      dup1\n      iszero\n      tag_215\n      jumpi\n      dup1\n      0x1f\n      lt\n      tag_216\n      jumpi\n      0x0100\n      dup1\n      dup4\n      sload\n      div\n      mul\n      dup4\n      mstore\n      swap2\n      0x20\n      add\n      swap2\n      jump(tag_215)\n    tag_216:\n      dup3\n      add\n      swap2\n      swap1\n      0x00\n      mstore\n      keccak256(0x00, 0x20)\n      swap1\n    tag_217:\n      dup2\n      sload\n      dup2\n      mstore\n      swap1\n      0x01\n      add\n      swap1\n      0x20\n      add\n      dup1\n      dup4\n      gt\n      tag_217\n      jumpi\n      dup3\n      swap1\n      sub\n      0x1f\n      and\n      dup3\n      add\n      swap2\n    tag_215:\n      pop\n      pop\n      pop\n      pop\n      pop\n        /* \"DiscreetLog_flat.sol\":7208:7216  closeDlc */\n      tag_77\n        /* \"DiscreetLog_flat.sol\":7208:7240  closeDlc(loans[loanId].dlc_uuid) */\n      jump\t// in\n    tag_212:\n        /* \"DiscreetLog_flat.sol\":7273:7281  statuses */\n      0x06\n        /* \"DiscreetLog_flat.sol\":7273:7296  statuses[Status.Repaid] */\n      0x00\n        /* \"DiscreetLog_flat.sol\":7282:7295  Status.Repaid */\n      0x04\n        /* \"DiscreetLog_flat.sol\":7273:7296  statuses[Status.Repaid] */\n      0x06\n      dup2\n      gt\n      iszero\n      tag_218\n      jumpi\n      tag_219\n      tag_118\n      jump\t// in\n    tag_219:\n    tag_218:\n      0x06\n      dup2\n      gt\n      iszero\n      tag_220\n      jumpi\n      tag_221\n      tag_118\n      jump\t// in\n    tag_221:\n    tag_220:\n      dup2\n      mstore\n      0x20\n      add\n      swap1\n      dup2\n      mstore\n      0x20\n      add\n      0x00\n      keccak256\n        /* \"DiscreetLog_flat.sol\":7250:7255  loans */\n      0x02\n        /* \"DiscreetLog_flat.sol\":7250:7263  loans[loanId] */\n      0x00\n        /* \"DiscreetLog_flat.sol\":7256:7262  loanId */\n      dup4\n        /* \"DiscreetLog_flat.sol\":7250:7263  loans[loanId] */\n      dup2\n      mstore\n      0x20\n      add\n      swap1\n      dup2\n      mstore\n      0x20\n      add\n      0x00\n      keccak256\n        /* \"DiscreetLog_flat.sol\":7250:7270  loans[loanId].status */\n      0x02\n      add\n        /* \"DiscreetLog_flat.sol\":7250:7296  loans[loanId].status = statuses[Status.Repaid] */\n      swap1\n      dup1\n      sload\n      tag_222\n      swap1\n      tag_96\n      jump\t// in\n    tag_222:\n      tag_223\n      swap3\n      swap2\n      swap1\n      tag_123\n      jump\t// in\n    tag_223:\n      pop\n        /* \"DiscreetLog_flat.sol\":7154:7303  function repayLoan(uint256 loanId) external {... */\n      pop\n      jump\t// out\n        /* \"DiscreetLog_flat.sol\":7309:7475  function liquidateLoan(uint256 loanId) external {... */\n    tag_83:\n        /* \"DiscreetLog_flat.sol\":7367:7408  closeDlcLiquidate(loans[loanId].dlc_uuid) */\n      tag_225\n        /* \"DiscreetLog_flat.sol\":7385:7390  loans */\n      0x02\n        /* \"DiscreetLog_flat.sol\":7385:7398  loans[loanId] */\n      0x00\n        /* \"DiscreetLog_flat.sol\":7391:7397  loanId */\n      dup4\n        /* \"DiscreetLog_flat.sol\":7385:7398  loans[loanId] */\n      dup2\n      mstore\n      0x20\n      add\n      swap1\n      dup2\n      mstore\n      0x20\n      add\n      0x00\n      keccak256\n        /* \"DiscreetLog_flat.sol\":7385:7407  loans[loanId].dlc_uuid */\n      0x01\n      add\n        /* \"DiscreetLog_flat.sol\":7367:7408  closeDlcLiquidate(loans[loanId].dlc_uuid) */\n      dup1\n      sload\n      tag_226\n      swap1\n      tag_96\n      jump\t// in\n    tag_226:\n      dup1\n      0x1f\n      add\n      0x20\n      dup1\n      swap2\n      div\n      mul\n      0x20\n      add\n      mload(0x40)\n      swap1\n      dup2\n      add\n      0x40\n      mstore\n      dup1\n      swap3\n      swap2\n      swap1\n      dup2\n      dup2\n      mstore\n      0x20\n      add\n      dup3\n      dup1\n      sload\n      tag_227\n      swap1\n      tag_96\n      jump\t// in\n    tag_227:\n      dup1\n      iszero\n      tag_228\n      jumpi\n      dup1\n      0x1f\n      lt\n      tag_229\n      jumpi\n      0x0100\n      dup1\n      dup4\n      sload\n      div\n      mul\n      dup4\n      mstore\n      swap2\n      0x20\n      add\n      swap2\n      jump(tag_228)\n    tag_229:\n      dup3\n      add\n      swap2\n      swap1\n      0x00\n      mstore\n      keccak256(0x00, 0x20)\n      swap1\n    tag_230:\n      dup2\n      sload\n      dup2\n      mstore\n      swap1\n      0x01\n      add\n      swap1\n      0x20\n      add\n      dup1\n      dup4\n      gt\n      tag_230\n      jumpi\n      dup3\n      swap1\n      sub\n      0x1f\n      and\n      dup3\n      add\n      swap2\n    tag_228:\n      pop\n      pop\n      pop\n      pop\n      pop\n        /* \"DiscreetLog_flat.sol\":7367:7384  closeDlcLiquidate */\n      tag_86\n        /* \"DiscreetLog_flat.sol\":7367:7408  closeDlcLiquidate(loans[loanId].dlc_uuid) */\n      jump\t// in\n    tag_225:\n        /* \"DiscreetLog_flat.sol\":7441:7449  statuses */\n      0x06\n        /* \"DiscreetLog_flat.sol\":7441:7468  statuses[Status.Liquidated] */\n      0x00\n        /* \"DiscreetLog_flat.sol\":7450:7467  Status.Liquidated */\n      0x06\n        /* \"DiscreetLog_flat.sol\":7441:7468  statuses[Status.Liquidated] */\n      dup1\n      dup2\n      gt\n      iszero\n      tag_231\n      jumpi\n      tag_232\n      tag_118\n      jump\t// in\n    tag_232:\n    tag_231:\n      0x06\n      dup2\n      gt\n      iszero\n      tag_233\n      jumpi\n      tag_234\n      tag_118\n      jump\t// in\n    tag_234:\n    tag_233:\n      dup2\n      mstore\n      0x20\n      add\n      swap1\n      dup2\n      mstore\n      0x20\n      add\n      0x00\n      keccak256\n        /* \"DiscreetLog_flat.sol\":7418:7423  loans */\n      0x02\n        /* \"DiscreetLog_flat.sol\":7418:7431  loans[loanId] */\n      0x00\n        /* \"DiscreetLog_flat.sol\":7424:7430  loanId */\n      dup4\n        /* \"DiscreetLog_flat.sol\":7418:7431  loans[loanId] */\n      dup2\n      mstore\n      0x20\n      add\n      swap1\n      dup2\n      mstore\n      0x20\n      add\n      0x00\n      keccak256\n        /* \"DiscreetLog_flat.sol\":7418:7438  loans[loanId].status */\n      0x02\n      add\n        /* \"DiscreetLog_flat.sol\":7418:7468  loans[loanId].status = statuses[Status.Liquidated] */\n      swap1\n      dup1\n      sload\n      tag_235\n      swap1\n      tag_96\n      jump\t// in\n    tag_235:\n      tag_236\n      swap3\n      swap2\n      swap1\n      tag_123\n      jump\t// in\n    tag_236:\n      pop\n        /* \"DiscreetLog_flat.sol\":7309:7475  function liquidateLoan(uint256 loanId) external {... */\n      pop\n      jump\t// out\n        /* \"DiscreetLog_flat.sol\":7905:8581  function closeDlcLiquidate(string memory _uuid) public {... */\n    tag_86:\n        /* \"DiscreetLog_flat.sol\":7970:7985  DLC storage dlc */\n      0x00\n        /* \"DiscreetLog_flat.sol\":7988:7992  dlcs */\n      0x01\n        /* \"DiscreetLog_flat.sol\":7993:7998  _uuid */\n      dup3\n        /* \"DiscreetLog_flat.sol\":7988:7999  dlcs[_uuid] */\n      mload(0x40)\n      tag_238\n      swap2\n      swap1\n      tag_110\n      jump\t// in\n    tag_238:\n      swap1\n      dup2\n      mstore\n      0x20\n      add\n      mload(0x40)\n      dup1\n      swap2\n      sub\n      swap1\n      keccak256\n        /* \"DiscreetLog_flat.sol\":7970:7999  DLC storage dlc = dlcs[_uuid] */\n      swap1\n      pop\n        /* \"DiscreetLog_flat.sol\":8049:8064  block.timestamp */\n      timestamp\n        /* \"DiscreetLog_flat.sol\":8030:8033  dlc */\n      dup2\n        /* \"DiscreetLog_flat.sol\":8030:8045  dlc.closingTime */\n      0x04\n      add\n      sload\n        /* \"DiscreetLog_flat.sol\":8030:8064  dlc.closingTime <= block.timestamp */\n      gt\n      iszero\n        /* \"DiscreetLog_flat.sol\":8030:8094  dlc.closingTime <= block.timestamp && dlc.actualClosingTime == 0 */\n      dup1\n      iszero\n      tag_239\n      jumpi\n      pop\n        /* \"DiscreetLog_flat.sol\":8093:8094  0 */\n      0x00\n        /* \"DiscreetLog_flat.sol\":8068:8071  dlc */\n      dup2\n        /* \"DiscreetLog_flat.sol\":8068:8089  dlc.actualClosingTime */\n      0x06\n      add\n      sload\n        /* \"DiscreetLog_flat.sol\":8068:8094  dlc.actualClosingTime == 0 */\n      eq\n        /* \"DiscreetLog_flat.sol\":8030:8094  dlc.closingTime <= block.timestamp && dlc.actualClosingTime == 0 */\n    tag_239:\n        /* \"DiscreetLog_flat.sol\":8009:8150  require(... */\n      tag_240\n      jumpi\n      mload(0x40)\n      0x08c379a000000000000000000000000000000000000000000000000000000000\n      dup2\n      mstore\n      0x04\n      add\n      tag_241\n      swap1\n      tag_204\n      jump\t// in\n    tag_241:\n      mload(0x40)\n      dup1\n      swap2\n      sub\n      swap1\n      revert\n    tag_240:\n        /* \"DiscreetLog_flat.sol\":8162:8174  int256 price */\n      0x00\n        /* \"DiscreetLog_flat.sol\":8176:8193  uint256 timestamp */\n      dup1\n        /* \"DiscreetLog_flat.sol\":8197:8286  getLatestPrice(... */\n      tag_242\n        /* \"DiscreetLog_flat.sol\":8233:8275  0xA39434A63A52E749F02807ae27335515BA4b07F7 */\n      0xa39434a63a52e749f02807ae27335515ba4b07f7\n        /* \"DiscreetLog_flat.sol\":8197:8211  getLatestPrice */\n      tag_243\n        /* \"DiscreetLog_flat.sol\":8197:8286  getLatestPrice(... */\n      jump\t// in\n    tag_242:\n        /* \"DiscreetLog_flat.sol\":8161:8286  (int256 price, uint256 timestamp) = getLatestPrice(... */\n      swap2\n      pop\n      swap2\n      pop\n        /* \"DiscreetLog_flat.sol\":8315:8320  price */\n      dup2\n        /* \"DiscreetLog_flat.sol\":8296:8299  dlc */\n      dup4\n        /* \"DiscreetLog_flat.sol\":8296:8312  dlc.closingPrice */\n      0x05\n      add\n        /* \"DiscreetLog_flat.sol\":8296:8320  dlc.closingPrice = price */\n      dup2\n      swap1\n      sstore\n      pop\n        /* \"DiscreetLog_flat.sol\":8411:8429  int256 payoutRatio */\n      0x00\n        /* \"DiscreetLog_flat.sol\":8480:8513  removeClosedDLC(findIndex(_uuid)) */\n      tag_244\n        /* \"DiscreetLog_flat.sol\":8496:8512  findIndex(_uuid) */\n      tag_245\n        /* \"DiscreetLog_flat.sol\":8506:8511  _uuid */\n      dup7\n        /* \"DiscreetLog_flat.sol\":8496:8505  findIndex */\n      tag_207\n        /* \"DiscreetLog_flat.sol\":8496:8512  findIndex(_uuid) */\n      jump\t// in\n    tag_245:\n        /* \"DiscreetLog_flat.sol\":8480:8495  removeClosedDLC */\n      tag_208\n        /* \"DiscreetLog_flat.sol\":8480:8513  removeClosedDLC(findIndex(_uuid)) */\n      jump\t// in\n    tag_244:\n      pop\n        /* \"DiscreetLog_flat.sol\":8528:8574  CloseDLC(_uuid, payoutRatio, price, timestamp) */\n      0xc244ef6abb581fce6ec7f623ffa560ac7d27f787d59020e83a6936bfb9d1d731\n        /* \"DiscreetLog_flat.sol\":8537:8542  _uuid */\n      dup6\n        /* \"DiscreetLog_flat.sol\":8544:8555  payoutRatio */\n      dup3\n        /* \"DiscreetLog_flat.sol\":8557:8562  price */\n      dup6\n        /* \"DiscreetLog_flat.sol\":8564:8573  timestamp */\n      dup6\n        /* \"DiscreetLog_flat.sol\":8528:8574  CloseDLC(_uuid, payoutRatio, price, timestamp) */\n      mload(0x40)\n      tag_246\n      swap5\n      swap4\n      swap3\n      swap2\n      swap1\n      tag_247\n      jump\t// in\n    tag_246:\n      mload(0x40)\n      dup1\n      swap2\n      sub\n      swap1\n      log1\n        /* \"DiscreetLog_flat.sol\":7960:8581  {... */\n      pop\n      pop\n      pop\n      pop\n        /* \"DiscreetLog_flat.sol\":7905:8581  function closeDlcLiquidate(string memory _uuid) public {... */\n      pop\n      jump\t// out\n        /* \"DiscreetLog_flat.sol\":1083:1110  uint256 public numLoans = 0 */\n    tag_88:\n      sload(0x03)\n      dup2\n      jump\t// out\n        /* \"DiscreetLog_flat.sol\":1040:1077  mapping(uint256 => Loan) public loans */\n    tag_92:\n      mstore(0x20, 0x02)\n      dup1\n      0x00\n      mstore\n      keccak256(0x00, 0x40)\n      0x00\n      swap2\n      pop\n      swap1\n      pop\n      dup1\n      0x00\n      add\n      sload\n      swap1\n      dup1\n      0x01\n      add\n      dup1\n      sload\n      tag_248\n      swap1\n      tag_96\n      jump\t// in\n    tag_248:\n      dup1\n      0x1f\n      add\n      0x20\n      dup1\n      swap2\n      div\n      mul\n      0x20\n      add\n      mload(0x40)\n      swap1\n      dup2\n      add\n      0x40\n      mstore\n      dup1\n      swap3\n      swap2\n      swap1\n      dup2\n      dup2\n      mstore\n      0x20\n      add\n      dup3\n      dup1\n      sload\n      tag_249\n      swap1\n      tag_96\n      jump\t// in\n    tag_249:\n      dup1\n      iszero\n      tag_250\n      jumpi\n      dup1\n      0x1f\n      lt\n      tag_251\n      jumpi\n      0x0100\n      dup1\n      dup4\n      sload\n      div\n      mul\n      dup4\n      mstore\n      swap2\n      0x20\n      add\n      swap2\n      jump(tag_250)\n    tag_251:\n      dup3\n      add\n      swap2\n      swap1\n      0x00\n      mstore\n      keccak256(0x00, 0x20)\n      swap1\n    tag_252:\n      dup2\n      sload\n      dup2\n      mstore\n      swap1\n      0x01\n      add\n      swap1\n      0x20\n      add\n      dup1\n      dup4\n      gt\n      tag_252\n      jumpi\n      dup3\n      swap1\n      sub\n      0x1f\n      and\n      dup3\n      add\n      swap2\n    tag_250:\n      pop\n      pop\n      pop\n      pop\n      pop\n      swap1\n      dup1\n      0x02\n      add\n      dup1\n      sload\n      tag_253\n      swap1\n      tag_96\n      jump\t// in\n    tag_253:\n      dup1\n      0x1f\n      add\n      0x20\n      dup1\n      swap2\n      div\n      mul\n      0x20\n      add\n      mload(0x40)\n      swap1\n      dup2\n      add\n      0x40\n      mstore\n      dup1\n      swap3\n      swap2\n      swap1\n      dup2\n      dup2\n      mstore\n      0x20\n      add\n      dup3\n      dup1\n      sload\n      tag_254\n      swap1\n      tag_96\n      jump\t// in\n    tag_254:\n      dup1\n      iszero\n      tag_255\n      jumpi\n      dup1\n      0x1f\n      lt\n      tag_256\n      jumpi\n      0x0100\n      dup1\n      dup4\n      sload\n      div\n      mul\n      dup4\n      mstore\n      swap2\n      0x20\n      add\n      swap2\n      jump(tag_255)\n    tag_256:\n      dup3\n      add\n      swap2\n      swap1\n      0x00\n      mstore\n      keccak256(0x00, 0x20)\n      swap1\n    tag_257:\n      dup2\n      sload\n      dup2\n      mstore\n      swap1\n      0x01\n      add\n      swap1\n      0x20\n      add\n      dup1\n      dup4\n      gt\n      tag_257\n      jumpi\n      dup3\n      swap1\n      sub\n      0x1f\n      and\n      dup3\n      add\n      swap2\n    tag_255:\n      pop\n      pop\n      pop\n      pop\n      pop\n      swap1\n      dup1\n      0x03\n      add\n      sload\n      swap1\n      dup1\n      0x04\n      add\n      sload\n      swap1\n      dup1\n      0x05\n      add\n      sload\n      swap1\n      dup1\n      0x06\n      add\n      sload\n      swap1\n      dup1\n      0x07\n      add\n      sload\n      swap1\n      dup1\n      0x08\n      add\n      0x00\n      swap1\n      sload\n      swap1\n      0x0100\n      exp\n      swap1\n      div\n      0xffffffffffffffffffffffffffffffffffffffff\n      and\n      swap1\n      pop\n      dup10\n      jump\t// out\n        /* \"DiscreetLog_flat.sol\":10603:11044  function findLoanIndex(string memory _uuid) private view returns (uint256) {... */\n    tag_185:\n        /* \"DiscreetLog_flat.sol\":10669:10676  uint256 */\n      0x00\n        /* \"DiscreetLog_flat.sol\":10740:10749  uint256 i */\n      dup1\n        /* \"DiscreetLog_flat.sol\":10752:10753  0 */\n      0x00\n        /* \"DiscreetLog_flat.sol\":10740:10753  uint256 i = 0 */\n      swap1\n      pop\n        /* \"DiscreetLog_flat.sol\":10735:10975  for (uint256 i = 0; i < numLoans; i++) {... */\n    tag_259:\n        /* \"DiscreetLog_flat.sol\":10759:10767  numLoans */\n      sload(0x03)\n        /* \"DiscreetLog_flat.sol\":10755:10756  i */\n      dup2\n        /* \"DiscreetLog_flat.sol\":10755:10767  i < numLoans */\n      lt\n        /* \"DiscreetLog_flat.sol\":10735:10975  for (uint256 i = 0; i < numLoans; i++) {... */\n      iszero\n      tag_260\n      jumpi\n        /* \"DiscreetLog_flat.sol\":10902:10907  _uuid */\n      dup3\n        /* \"DiscreetLog_flat.sol\":10885:10908  abi.encodePacked(_uuid) */\n      add(0x20, mload(0x40))\n      tag_262\n      swap2\n      swap1\n      tag_110\n      jump\t// in\n    tag_262:\n      mload(0x40)\n      0x20\n      dup2\n      dup4\n      sub\n      sub\n      dup2\n      mstore\n      swap1\n      0x40\n      mstore\n        /* \"DiscreetLog_flat.sol\":10875:10909  keccak256(abi.encodePacked(_uuid)) */\n      dup1\n      mload\n      swap1\n      0x20\n      add\n      keccak256\n        /* \"DiscreetLog_flat.sol\":10836:10841  loans */\n      0x02\n        /* \"DiscreetLog_flat.sol\":10836:10844  loans[i] */\n      0x00\n        /* \"DiscreetLog_flat.sol\":10842:10843  i */\n      dup4\n        /* \"DiscreetLog_flat.sol\":10836:10844  loans[i] */\n      dup2\n      mstore\n      0x20\n      add\n      swap1\n      dup2\n      mstore\n      0x20\n      add\n      0x00\n      keccak256\n        /* \"DiscreetLog_flat.sol\":10836:10853  loans[i].dlc_uuid */\n      0x01\n      add\n        /* \"DiscreetLog_flat.sol\":10819:10854  abi.encodePacked(loans[i].dlc_uuid) */\n      add(0x20, mload(0x40))\n      tag_263\n      swap2\n      swap1\n      tag_264\n      jump\t// in\n    tag_263:\n      mload(0x40)\n      0x20\n      dup2\n      dup4\n      sub\n      sub\n      dup2\n      mstore\n      swap1\n      0x40\n      mstore\n        /* \"DiscreetLog_flat.sol\":10809:10855  keccak256(abi.encodePacked(loans[i].dlc_uuid)) */\n      dup1\n      mload\n      swap1\n      0x20\n      add\n      keccak256\n        /* \"DiscreetLog_flat.sol\":10809:10909  keccak256(abi.encodePacked(loans[i].dlc_uuid)) ==... */\n      eq\n        /* \"DiscreetLog_flat.sol\":10788:10965  if (... */\n      iszero\n      tag_265\n      jumpi\n        /* \"DiscreetLog_flat.sol\":10949:10950  i */\n      dup1\n        /* \"DiscreetLog_flat.sol\":10942:10950  return i */\n      swap2\n      pop\n      pop\n      jump(tag_258)\n        /* \"DiscreetLog_flat.sol\":10788:10965  if (... */\n    tag_265:\n        /* \"DiscreetLog_flat.sol\":10769:10772  i++ */\n      dup1\n      dup1\n      tag_266\n      swap1\n      tag_143\n      jump\t// in\n    tag_266:\n      swap2\n      pop\n      pop\n        /* \"DiscreetLog_flat.sol\":10735:10975  for (uint256 i = 0; i < numLoans; i++) {... */\n      jump(tag_259)\n    tag_260:\n      pop\n        /* \"DiscreetLog_flat.sol\":10984:11003  revert(\"Not Found\") */\n      mload(0x40)\n      0x08c379a000000000000000000000000000000000000000000000000000000000\n      dup2\n      mstore\n      0x04\n      add\n      tag_267\n      swap1\n      tag_268\n      jump\t// in\n    tag_267:\n      mload(0x40)\n      dup1\n      swap2\n      sub\n      swap1\n      revert\n        /* \"DiscreetLog_flat.sol\":10603:11044  function findLoanIndex(string memory _uuid) private view returns (uint256) {... */\n    tag_258:\n      swap2\n      swap1\n      pop\n      jump\t// out\n        /* \"DiscreetLog_flat.sol\":9781:10221  function findIndex(string memory _uuid) private view returns (uint256) {... */\n    tag_207:\n        /* \"DiscreetLog_flat.sol\":9843:9850  uint256 */\n      0x00\n        /* \"DiscreetLog_flat.sol\":9914:9923  uint256 i */\n      dup1\n        /* \"DiscreetLog_flat.sol\":9926:9927  0 */\n      0x00\n        /* \"DiscreetLog_flat.sol\":9914:9927  uint256 i = 0 */\n      swap1\n      pop\n        /* \"DiscreetLog_flat.sol\":9909:10152  for (uint256 i = 0; i < openUUIDs.length; i++) {... */\n    tag_270:\n        /* \"DiscreetLog_flat.sol\":9933:9942  openUUIDs */\n      0x00\n        /* \"DiscreetLog_flat.sol\":9933:9949  openUUIDs.length */\n      dup1\n      sload\n      swap1\n      pop\n        /* \"DiscreetLog_flat.sol\":9929:9930  i */\n      dup2\n        /* \"DiscreetLog_flat.sol\":9929:9949  i < openUUIDs.length */\n      lt\n        /* \"DiscreetLog_flat.sol\":9909:10152  for (uint256 i = 0; i < openUUIDs.length; i++) {... */\n      iszero\n      tag_271\n      jumpi\n        /* \"DiscreetLog_flat.sol\":10079:10084  _uuid */\n      dup3\n        /* \"DiscreetLog_flat.sol\":10062:10085  abi.encodePacked(_uuid) */\n      add(0x20, mload(0x40))\n      tag_273\n      swap2\n      swap1\n      tag_110\n      jump\t// in\n    tag_273:\n      mload(0x40)\n      0x20\n      dup2\n      dup4\n      sub\n      sub\n      dup2\n      mstore\n      swap1\n      0x40\n      mstore\n        /* \"DiscreetLog_flat.sol\":10052:10086  keccak256(abi.encodePacked(_uuid)) */\n      dup1\n      mload\n      swap1\n      0x20\n      add\n      keccak256\n        /* \"DiscreetLog_flat.sol\":10018:10027  openUUIDs */\n      0x00\n        /* \"DiscreetLog_flat.sol\":10028:10029  i */\n      dup3\n        /* \"DiscreetLog_flat.sol\":10018:10030  openUUIDs[i] */\n      dup2\n      sload\n      dup2\n      lt\n      tag_274\n      jumpi\n      tag_275\n      tag_172\n      jump\t// in\n    tag_275:\n    tag_274:\n      swap1\n      0x00\n      mstore\n      keccak256(0x00, 0x20)\n      add\n        /* \"DiscreetLog_flat.sol\":10001:10031  abi.encodePacked(openUUIDs[i]) */\n      add(0x20, mload(0x40))\n      tag_277\n      swap2\n      swap1\n      tag_264\n      jump\t// in\n    tag_277:\n      mload(0x40)\n      0x20\n      dup2\n      dup4\n      sub\n      sub\n      dup2\n      mstore\n      swap1\n      0x40\n      mstore\n        /* \"DiscreetLog_flat.sol\":9991:10032  keccak256(abi.encodePacked(openUUIDs[i])) */\n      dup1\n      mload\n      swap1\n      0x20\n      add\n      keccak256\n        /* \"DiscreetLog_flat.sol\":9991:10086  keccak256(abi.encodePacked(openUUIDs[i])) ==... */\n      eq\n        /* \"DiscreetLog_flat.sol\":9970:10142  if (... */\n      iszero\n      tag_278\n      jumpi\n        /* \"DiscreetLog_flat.sol\":10126:10127  i */\n      dup1\n        /* \"DiscreetLog_flat.sol\":10119:10127  return i */\n      swap2\n      pop\n      pop\n      jump(tag_269)\n        /* \"DiscreetLog_flat.sol\":9970:10142  if (... */\n    tag_278:\n        /* \"DiscreetLog_flat.sol\":9951:9954  i++ */\n      dup1\n      dup1\n      tag_279\n      swap1\n      tag_143\n      jump\t// in\n    tag_279:\n      swap2\n      pop\n      pop\n        /* \"DiscreetLog_flat.sol\":9909:10152  for (uint256 i = 0; i < openUUIDs.length; i++) {... */\n      jump(tag_270)\n    tag_271:\n      pop\n        /* \"DiscreetLog_flat.sol\":10161:10180  revert(\"Not Found\") */\n      mload(0x40)\n      0x08c379a000000000000000000000000000000000000000000000000000000000\n      dup2\n      mstore\n      0x04\n      add\n      tag_280\n      swap1\n      tag_268\n      jump\t// in\n    tag_280:\n      mload(0x40)\n      dup1\n      swap2\n      sub\n      swap1\n      revert\n        /* \"DiscreetLog_flat.sol\":9781:10221  function findIndex(string memory _uuid) private view returns (uint256) {... */\n    tag_269:\n      swap2\n      swap1\n      pop\n      jump\t// out\n        /* \"DiscreetLog_flat.sol\":9452:9775  function removeClosedDLC(uint256 index) private returns (string[] memory) {... */\n    tag_208:\n        /* \"DiscreetLog_flat.sol\":9509:9524  string[] memory */\n      0x60\n        /* \"DiscreetLog_flat.sol\":9552:9561  openUUIDs */\n      0x00\n        /* \"DiscreetLog_flat.sol\":9552:9568  openUUIDs.length */\n      dup1\n      sload\n      swap1\n      pop\n        /* \"DiscreetLog_flat.sol\":9544:9549  index */\n      dup3\n        /* \"DiscreetLog_flat.sol\":9544:9568  index < openUUIDs.length */\n      lt\n        /* \"DiscreetLog_flat.sol\":9536:9569  require(index < openUUIDs.length) */\n      tag_282\n      jumpi\n      0x00\n      dup1\n      revert\n    tag_282:\n        /* \"DiscreetLog_flat.sol\":9651:9660  openUUIDs */\n      0x00\n        /* \"DiscreetLog_flat.sol\":9680:9681  1 */\n      0x01\n        /* \"DiscreetLog_flat.sol\":9661:9670  openUUIDs */\n      0x00\n        /* \"DiscreetLog_flat.sol\":9661:9677  openUUIDs.length */\n      dup1\n      sload\n      swap1\n      pop\n        /* \"DiscreetLog_flat.sol\":9661:9681  openUUIDs.length - 1 */\n      tag_283\n      swap2\n      swap1\n      tag_146\n      jump\t// in\n    tag_283:\n        /* \"DiscreetLog_flat.sol\":9651:9682  openUUIDs[openUUIDs.length - 1] */\n      dup2\n      sload\n      dup2\n      lt\n      tag_284\n      jumpi\n      tag_285\n      tag_172\n      jump\t// in\n    tag_285:\n    tag_284:\n      swap1\n      0x00\n      mstore\n      keccak256(0x00, 0x20)\n      add\n        /* \"DiscreetLog_flat.sol\":9632:9641  openUUIDs */\n      0x00\n        /* \"DiscreetLog_flat.sol\":9642:9647  index */\n      dup4\n        /* \"DiscreetLog_flat.sol\":9632:9648  openUUIDs[index] */\n      dup2\n      sload\n      dup2\n      lt\n      tag_287\n      jumpi\n      tag_288\n      tag_172\n      jump\t// in\n    tag_288:\n    tag_287:\n      swap1\n      0x00\n      mstore\n      keccak256(0x00, 0x20)\n      add\n        /* \"DiscreetLog_flat.sol\":9632:9682  openUUIDs[index] = openUUIDs[openUUIDs.length - 1] */\n      swap1\n      dup1\n      sload\n      tag_290\n      swap1\n      tag_96\n      jump\t// in\n    tag_290:\n      tag_291\n      swap3\n      swap2\n      swap1\n      tag_123\n      jump\t// in\n    tag_291:\n      pop\n        /* \"DiscreetLog_flat.sol\":9727:9736  openUUIDs */\n      0x00\n        /* \"DiscreetLog_flat.sol\":9727:9742  openUUIDs.pop() */\n      dup1\n      sload\n      dup1\n      tag_292\n      jumpi\n      tag_293\n      tag_294\n      jump\t// in\n    tag_293:\n    tag_292:\n      0x01\n      swap1\n      sub\n      dup2\n      dup2\n      swap1\n      0x00\n      mstore\n      keccak256(0x00, 0x20)\n      add\n      0x00\n      tag_296\n      swap2\n      swap1\n      tag_297\n      jump\t// in\n    tag_296:\n      swap1\n      sstore\n        /* \"DiscreetLog_flat.sol\":9759:9768  openUUIDs */\n      0x00\n        /* \"DiscreetLog_flat.sol\":9752:9768  return openUUIDs */\n      dup1\n      sload\n      dup1\n      0x20\n      mul\n      0x20\n      add\n      mload(0x40)\n      swap1\n      dup2\n      add\n      0x40\n      mstore\n      dup1\n      swap3\n      swap2\n      swap1\n      dup2\n      dup2\n      mstore\n      0x20\n      add\n      0x00\n      swap1\n    tag_298:\n      dup3\n      dup3\n      lt\n      iszero\n      tag_299\n      jumpi\n      dup4\n      dup3\n      swap1\n      0x00\n      mstore\n      keccak256(0x00, 0x20)\n      add\n      dup1\n      sload\n      tag_301\n      swap1\n      tag_96\n      jump\t// in\n    tag_301:\n      dup1\n      0x1f\n      add\n      0x20\n      dup1\n      swap2\n      div\n      mul\n      0x20\n      add\n      mload(0x40)\n      swap1\n      dup2\n      add\n      0x40\n      mstore\n      dup1\n      swap3\n      swap2\n      swap1\n      dup2\n      dup2\n      mstore\n      0x20\n      add\n      dup3\n      dup1\n      sload\n      tag_302\n      swap1\n      tag_96\n      jump\t// in\n    tag_302:\n      dup1\n      iszero\n      tag_303\n      jumpi\n      dup1\n      0x1f\n      lt\n      tag_304\n      jumpi\n      0x0100\n      dup1\n      dup4\n      sload\n      div\n      mul\n      dup4\n      mstore\n      swap2\n      0x20\n      add\n      swap2\n      jump(tag_303)\n    tag_304:\n      dup3\n      add\n      swap2\n      swap1\n      0x00\n      mstore\n      keccak256(0x00, 0x20)\n      swap1\n    tag_305:\n      dup2\n      sload\n      dup2\n      mstore\n      swap1\n      0x01\n      add\n      swap1\n      0x20\n      add\n      dup1\n      dup4\n      gt\n      tag_305\n      jumpi\n      dup3\n      swap1\n      sub\n      0x1f\n      and\n      dup3\n      add\n      swap2\n    tag_303:\n      pop\n      pop\n      pop\n      pop\n      pop\n      dup2\n      mstore\n      0x20\n      add\n      swap1\n      0x01\n      add\n      swap1\n      jump(tag_298)\n    tag_299:\n      pop\n      pop\n      pop\n      pop\n      swap1\n      pop\n        /* \"DiscreetLog_flat.sol\":9452:9775  function removeClosedDLC(uint256 index) private returns (string[] memory) {... */\n      swap2\n      swap1\n      pop\n      jump\t// out\n        /* \"DiscreetLog_flat.sol\":9082:9396  function getLatestPrice(address _feedAddress)... */\n    tag_243:\n        /* \"DiscreetLog_flat.sol\":9175:9181  int256 */\n      0x00\n        /* \"DiscreetLog_flat.sol\":9183:9190  uint256 */\n      dup1\n        /* \"DiscreetLog_flat.sol\":9206:9237  AggregatorV3Interface priceFeed */\n      0x00\n        /* \"DiscreetLog_flat.sol\":9262:9274  _feedAddress */\n      dup4\n        /* \"DiscreetLog_flat.sol\":9206:9275  AggregatorV3Interface priceFeed = AggregatorV3Interface(_feedAddress) */\n      swap1\n      pop\n        /* \"DiscreetLog_flat.sol\":9288:9300  int256 price */\n      0x00\n        /* \"DiscreetLog_flat.sol\":9304:9321  uint256 timeStamp */\n      dup1\n        /* \"DiscreetLog_flat.sol\":9327:9336  priceFeed */\n      dup3\n        /* \"DiscreetLog_flat.sol\":9327:9352  priceFeed.latestRoundData */\n      0xffffffffffffffffffffffffffffffffffffffff\n      and\n      0xfeaf968c\n        /* \"DiscreetLog_flat.sol\":9327:9354  priceFeed.latestRoundData() */\n      mload(0x40)\n      dup2\n      0xffffffff\n      and\n      0xe0\n      shl\n      dup2\n      mstore\n      0x04\n      add\n      0xa0\n      mload(0x40)\n      dup1\n      dup4\n      sub\n      dup2\n      dup7\n      dup1\n      extcodesize\n      iszero\n      dup1\n      iszero\n      tag_307\n      jumpi\n      0x00\n      dup1\n      revert\n    tag_307:\n      pop\n      gas\n      staticcall\n      iszero\n      dup1\n      iszero\n      tag_309\n      jumpi\n      returndatasize\n      0x00\n      dup1\n      returndatacopy\n      revert(0x00, returndatasize)\n    tag_309:\n      pop\n      pop\n      pop\n      pop\n      mload(0x40)\n      returndatasize\n      not(0x1f)\n      0x1f\n      dup3\n      add\n      and\n      dup3\n      add\n      dup1\n      0x40\n      mstore\n      pop\n      dup2\n      add\n      swap1\n      tag_310\n      swap2\n      swap1\n      tag_311\n      jump\t// in\n    tag_310:\n        /* \"DiscreetLog_flat.sol\":9285:9354  (, int256 price, , uint256 timeStamp, ) = priceFeed.latestRoundData() */\n      pop\n      swap4\n      pop\n      pop\n      swap3\n      pop\n      pop\n        /* \"DiscreetLog_flat.sol\":9372:9377  price */\n      dup2\n        /* \"DiscreetLog_flat.sol\":9379:9388  timeStamp */\n      dup2\n        /* \"DiscreetLog_flat.sol\":9364:9389  return (price, timeStamp) */\n      swap5\n      pop\n      swap5\n      pop\n      pop\n      pop\n      pop\n        /* \"DiscreetLog_flat.sol\":9082:9396  function getLatestPrice(address _feedAddress)... */\n      swap2\n      pop\n      swap2\n      jump\t// out\n    tag_112:\n      dup3\n      dup1\n      sload\n      tag_312\n      swap1\n      tag_96\n      jump\t// in\n    tag_312:\n      swap1\n      0x00\n      mstore\n      keccak256(0x00, 0x20)\n      swap1\n      0x1f\n      add\n      0x20\n      swap1\n      div\n      dup2\n      add\n      swap3\n      dup3\n      tag_314\n      jumpi\n      0x00\n      dup6\n      sstore\n      jump(tag_313)\n    tag_314:\n      dup3\n      0x1f\n      lt\n      tag_315\n      jumpi\n      dup1\n      mload\n      not(0xff)\n      and\n      dup4\n      dup1\n      add\n      or\n      dup6\n      sstore\n      jump(tag_313)\n    tag_315:\n      dup3\n      dup1\n      add\n      0x01\n      add\n      dup6\n      sstore\n      dup3\n      iszero\n      tag_313\n      jumpi\n      swap2\n      dup3\n      add\n    tag_316:\n      dup3\n      dup2\n      gt\n      iszero\n      tag_317\n      jumpi\n      dup3\n      mload\n      dup3\n      sstore\n      swap2\n      0x20\n      add\n      swap2\n      swap1\n      0x01\n      add\n      swap1\n      jump(tag_316)\n    tag_317:\n    tag_313:\n      pop\n      swap1\n      pop\n      tag_318\n      swap2\n      swap1\n      tag_319\n      jump\t// in\n    tag_318:\n      pop\n      swap1\n      jump\t// out\n    tag_123:\n      dup3\n      dup1\n      sload\n      tag_320\n      swap1\n      tag_96\n      jump\t// in\n    tag_320:\n      swap1\n      0x00\n      mstore\n      keccak256(0x00, 0x20)\n      swap1\n      0x1f\n      add\n      0x20\n      swap1\n      div\n      dup2\n      add\n      swap3\n      dup3\n      tag_322\n      jumpi\n      0x00\n      dup6\n      sstore\n      jump(tag_321)\n    tag_322:\n      dup3\n      0x1f\n      lt\n      tag_323\n      jumpi\n      dup1\n      sload\n      dup6\n      sstore\n      jump(tag_321)\n    tag_323:\n      dup3\n      dup1\n      add\n      0x01\n      add\n      dup6\n      sstore\n      dup3\n      iszero\n      tag_321\n      jumpi\n      0x00\n      mstore\n      keccak256(0x00, 0x20)\n      swap2\n      0x1f\n      add\n      0x20\n      swap1\n      div\n      dup3\n      add\n    tag_324:\n      dup3\n      dup2\n      gt\n      iszero\n      tag_325\n      jumpi\n      dup3\n      sload\n      dup3\n      sstore\n      swap2\n      0x01\n      add\n      swap2\n      swap1\n      0x01\n      add\n      swap1\n      jump(tag_324)\n    tag_325:\n    tag_321:\n      pop\n      swap1\n      pop\n      tag_326\n      swap2\n      swap1\n      tag_319\n      jump\t// in\n    tag_326:\n      pop\n      swap1\n      jump\t// out\n    tag_154:\n      mload(0x40)\n      dup1\n      0x0120\n      add\n      0x40\n      mstore\n      dup1\n      0x00\n      dup2\n      mstore\n      0x20\n      add\n      0x60\n      dup2\n      mstore\n      0x20\n      add\n      0x60\n      dup2\n      mstore\n      0x20\n      add\n      0x00\n      dup2\n      mstore\n      0x20\n      add\n      0x00\n      dup2\n      mstore\n      0x20\n      add\n      0x00\n      dup2\n      mstore\n      0x20\n      add\n      0x00\n      dup2\n      mstore\n      0x20\n      add\n      0x00\n      dup2\n      mstore\n      0x20\n      add\n      and(0xffffffffffffffffffffffffffffffffffffffff, 0x00)\n      dup2\n      mstore\n      pop\n      swap1\n      jump\t// out\n    tag_297:\n      pop\n      dup1\n      sload\n      tag_327\n      swap1\n      tag_96\n      jump\t// in\n    tag_327:\n      0x00\n      dup3\n      sstore\n      dup1\n      0x1f\n      lt\n      tag_329\n      jumpi\n      pop\n      jump(tag_328)\n    tag_329:\n      0x1f\n      add\n      0x20\n      swap1\n      div\n      swap1\n      0x00\n      mstore\n      keccak256(0x00, 0x20)\n      swap1\n      dup2\n      add\n      swap1\n      tag_330\n      swap2\n      swap1\n      tag_319\n      jump\t// in\n    tag_330:\n    tag_328:\n      pop\n      jump\t// out\n    tag_319:\n    tag_331:\n      dup1\n      dup3\n      gt\n      iszero\n      tag_332\n      jumpi\n      0x00\n      dup2\n      0x00\n      swap1\n      sstore\n      pop\n      0x01\n      add\n      jump(tag_331)\n    tag_332:\n      pop\n      swap1\n      jump\t// out\n        /* \"#utility.yul\":7:419   */\n    tag_334:\n        /* \"#utility.yul\":85:90   */\n      0x00\n        /* \"#utility.yul\":110:176   */\n      tag_336\n        /* \"#utility.yul\":126:175   */\n      tag_337\n        /* \"#utility.yul\":168:174   */\n      dup5\n        /* \"#utility.yul\":126:175   */\n      tag_338\n      jump\t// in\n    tag_337:\n        /* \"#utility.yul\":110:176   */\n      tag_339\n      jump\t// in\n    tag_336:\n        /* \"#utility.yul\":101:176   */\n      swap1\n      pop\n        /* \"#utility.yul\":199:205   */\n      dup3\n        /* \"#utility.yul\":192:197   */\n      dup2\n        /* \"#utility.yul\":185:206   */\n      mstore\n        /* \"#utility.yul\":237:241   */\n      0x20\n        /* \"#utility.yul\":230:235   */\n      dup2\n        /* \"#utility.yul\":226:242   */\n      add\n        /* \"#utility.yul\":275:278   */\n      dup5\n        /* \"#utility.yul\":266:272   */\n      dup5\n        /* \"#utility.yul\":261:264   */\n      dup5\n        /* \"#utility.yul\":257:273   */\n      add\n        /* \"#utility.yul\":254:279   */\n      gt\n        /* \"#utility.yul\":251:363   */\n      iszero\n      tag_340\n      jumpi\n        /* \"#utility.yul\":282:361   */\n      tag_341\n      tag_342\n      jump\t// in\n    tag_341:\n        /* \"#utility.yul\":251:363   */\n    tag_340:\n        /* \"#utility.yul\":372:413   */\n      tag_343\n        /* \"#utility.yul\":406:412   */\n      dup5\n        /* \"#utility.yul\":401:404   */\n      dup3\n        /* \"#utility.yul\":396:399   */\n      dup6\n        /* \"#utility.yul\":372:413   */\n      tag_344\n      jump\t// in\n    tag_343:\n        /* \"#utility.yul\":91:419   */\n      pop\n        /* \"#utility.yul\":7:419   */\n      swap4\n      swap3\n      pop\n      pop\n      pop\n      jump\t// out\n        /* \"#utility.yul\":425:564   */\n    tag_345:\n        /* \"#utility.yul\":471:476   */\n      0x00\n        /* \"#utility.yul\":509:515   */\n      dup2\n        /* \"#utility.yul\":496:516   */\n      calldataload\n        /* \"#utility.yul\":487:516   */\n      swap1\n      pop\n        /* \"#utility.yul\":525:558   */\n      tag_347\n        /* \"#utility.yul\":552:557   */\n      dup2\n        /* \"#utility.yul\":525:558   */\n      tag_348\n      jump\t// in\n    tag_347:\n        /* \"#utility.yul\":425:564   */\n      swap3\n      swap2\n      pop\n      pop\n      jump\t// out\n        /* \"#utility.yul\":570:727   */\n    tag_349:\n        /* \"#utility.yul\":625:630   */\n      0x00\n        /* \"#utility.yul\":663:669   */\n      dup2\n        /* \"#utility.yul\":650:670   */\n      calldataload\n        /* \"#utility.yul\":641:670   */\n      swap1\n      pop\n        /* \"#utility.yul\":679:721   */\n      tag_351\n        /* \"#utility.yul\":715:720   */\n      dup2\n        /* \"#utility.yul\":679:721   */\n      tag_352\n      jump\t// in\n    tag_351:\n        /* \"#utility.yul\":570:727   */\n      swap3\n      swap2\n      pop\n      pop\n      jump\t// out\n        /* \"#utility.yul\":733:874   */\n    tag_353:\n        /* \"#utility.yul\":789:794   */\n      0x00\n        /* \"#utility.yul\":820:826   */\n      dup2\n        /* \"#utility.yul\":814:827   */\n      mload\n        /* \"#utility.yul\":805:827   */\n      swap1\n      pop\n        /* \"#utility.yul\":836:868   */\n      tag_355\n        /* \"#utility.yul\":862:867   */\n      dup2\n        /* \"#utility.yul\":836:868   */\n      tag_356\n      jump\t// in\n    tag_355:\n        /* \"#utility.yul\":733:874   */\n      swap3\n      swap2\n      pop\n      pop\n      jump\t// out\n        /* \"#utility.yul\":894:1234   */\n    tag_357:\n        /* \"#utility.yul\":950:955   */\n      0x00\n        /* \"#utility.yul\":999:1002   */\n      dup3\n        /* \"#utility.yul\":992:996   */\n      0x1f\n        /* \"#utility.yul\":984:990   */\n      dup4\n        /* \"#utility.yul\":980:997   */\n      add\n        /* \"#utility.yul\":976:1003   */\n      slt\n        /* \"#utility.yul\":966:1088   */\n      tag_359\n      jumpi\n        /* \"#utility.yul\":1007:1086   */\n      tag_360\n      tag_361\n      jump\t// in\n    tag_360:\n        /* \"#utility.yul\":966:1088   */\n    tag_359:\n        /* \"#utility.yul\":1124:1130   */\n      dup2\n        /* \"#utility.yul\":1111:1131   */\n      calldataload\n        /* \"#utility.yul\":1149:1228   */\n      tag_362\n        /* \"#utility.yul\":1224:1227   */\n      dup5\n        /* \"#utility.yul\":1216:1222   */\n      dup3\n        /* \"#utility.yul\":1209:1213   */\n      0x20\n        /* \"#utility.yul\":1201:1207   */\n      dup7\n        /* \"#utility.yul\":1197:1214   */\n      add\n        /* \"#utility.yul\":1149:1228   */\n      tag_334\n      jump\t// in\n    tag_362:\n        /* \"#utility.yul\":1140:1228   */\n      swap2\n      pop\n        /* \"#utility.yul\":956:1234   */\n      pop\n        /* \"#utility.yul\":894:1234   */\n      swap3\n      swap2\n      pop\n      pop\n      jump\t// out\n        /* \"#utility.yul\":1240:1379   */\n    tag_363:\n        /* \"#utility.yul\":1286:1291   */\n      0x00\n        /* \"#utility.yul\":1324:1330   */\n      dup2\n        /* \"#utility.yul\":1311:1331   */\n      calldataload\n        /* \"#utility.yul\":1302:1331   */\n      swap1\n      pop\n        /* \"#utility.yul\":1340:1373   */\n      tag_365\n        /* \"#utility.yul\":1367:1372   */\n      dup2\n        /* \"#utility.yul\":1340:1373   */\n      tag_366\n      jump\t// in\n    tag_365:\n        /* \"#utility.yul\":1240:1379   */\n      swap3\n      swap2\n      pop\n      pop\n      jump\t// out\n        /* \"#utility.yul\":1385:1528   */\n    tag_367:\n        /* \"#utility.yul\":1442:1447   */\n      0x00\n        /* \"#utility.yul\":1473:1479   */\n      dup2\n        /* \"#utility.yul\":1467:1480   */\n      mload\n        /* \"#utility.yul\":1458:1480   */\n      swap1\n      pop\n        /* \"#utility.yul\":1489:1522   */\n      tag_369\n        /* \"#utility.yul\":1516:1521   */\n      dup2\n        /* \"#utility.yul\":1489:1522   */\n      tag_366\n      jump\t// in\n    tag_369:\n        /* \"#utility.yul\":1385:1528   */\n      swap3\n      swap2\n      pop\n      pop\n      jump\t// out\n        /* \"#utility.yul\":1534:1675   */\n    tag_370:\n        /* \"#utility.yul\":1590:1595   */\n      0x00\n        /* \"#utility.yul\":1621:1627   */\n      dup2\n        /* \"#utility.yul\":1615:1628   */\n      mload\n        /* \"#utility.yul\":1606:1628   */\n      swap1\n      pop\n        /* \"#utility.yul\":1637:1669   */\n      tag_372\n        /* \"#utility.yul\":1663:1668   */\n      dup2\n        /* \"#utility.yul\":1637:1669   */\n      tag_373\n      jump\t// in\n    tag_372:\n        /* \"#utility.yul\":1534:1675   */\n      swap3\n      swap2\n      pop\n      pop\n      jump\t// out\n        /* \"#utility.yul\":1681:2010   */\n    tag_49:\n        /* \"#utility.yul\":1740:1746   */\n      0x00\n        /* \"#utility.yul\":1789:1791   */\n      0x20\n        /* \"#utility.yul\":1777:1786   */\n      dup3\n        /* \"#utility.yul\":1768:1775   */\n      dup5\n        /* \"#utility.yul\":1764:1787   */\n      sub\n        /* \"#utility.yul\":1760:1792   */\n      slt\n        /* \"#utility.yul\":1757:1876   */\n      iszero\n      tag_375\n      jumpi\n        /* \"#utility.yul\":1795:1874   */\n      tag_376\n      tag_377\n      jump\t// in\n    tag_376:\n        /* \"#utility.yul\":1757:1876   */\n    tag_375:\n        /* \"#utility.yul\":1915:1916   */\n      0x00\n        /* \"#utility.yul\":1940:1993   */\n      tag_378\n        /* \"#utility.yul\":1985:1992   */\n      dup5\n        /* \"#utility.yul\":1976:1982   */\n      dup3\n        /* \"#utility.yul\":1965:1974   */\n      dup6\n        /* \"#utility.yul\":1961:1983   */\n      add\n        /* \"#utility.yul\":1940:1993   */\n      tag_345\n      jump\t// in\n    tag_378:\n        /* \"#utility.yul\":1930:1993   */\n      swap2\n      pop\n        /* \"#utility.yul\":1886:2003   */\n      pop\n        /* \"#utility.yul\":1681:2010   */\n      swap3\n      swap2\n      pop\n      pop\n      jump\t// out\n        /* \"#utility.yul\":2016:2363   */\n    tag_65:\n        /* \"#utility.yul\":2084:2090   */\n      0x00\n        /* \"#utility.yul\":2133:2135   */\n      0x20\n        /* \"#utility.yul\":2121:2130   */\n      dup3\n        /* \"#utility.yul\":2112:2119   */\n      dup5\n        /* \"#utility.yul\":2108:2131   */\n      sub\n        /* \"#utility.yul\":2104:2136   */\n      slt\n        /* \"#utility.yul\":2101:2220   */\n      iszero\n      tag_380\n      jumpi\n        /* \"#utility.yul\":2139:2218   */\n      tag_381\n      tag_377\n      jump\t// in\n    tag_381:\n        /* \"#utility.yul\":2101:2220   */\n    tag_380:\n        /* \"#utility.yul\":2259:2260   */\n      0x00\n        /* \"#utility.yul\":2284:2346   */\n      tag_382\n        /* \"#utility.yul\":2338:2345   */\n      dup5\n        /* \"#utility.yul\":2329:2335   */\n      dup3\n        /* \"#utility.yul\":2318:2327   */\n      dup6\n        /* \"#utility.yul\":2314:2336   */\n      add\n        /* \"#utility.yul\":2284:2346   */\n      tag_349\n      jump\t// in\n    tag_382:\n        /* \"#utility.yul\":2274:2346   */\n      swap2\n      pop\n        /* \"#utility.yul\":2230:2356   */\n      pop\n        /* \"#utility.yul\":2016:2363   */\n      swap3\n      swap2\n      pop\n      pop\n      jump\t// out\n        /* \"#utility.yul\":2369:2878   */\n    tag_25:\n        /* \"#utility.yul\":2438:2444   */\n      0x00\n        /* \"#utility.yul\":2487:2489   */\n      0x20\n        /* \"#utility.yul\":2475:2484   */\n      dup3\n        /* \"#utility.yul\":2466:2473   */\n      dup5\n        /* \"#utility.yul\":2462:2485   */\n      sub\n        /* \"#utility.yul\":2458:2490   */\n      slt\n        /* \"#utility.yul\":2455:2574   */\n      iszero\n      tag_384\n      jumpi\n        /* \"#utility.yul\":2493:2572   */\n      tag_385\n      tag_377\n      jump\t// in\n    tag_385:\n        /* \"#utility.yul\":2455:2574   */\n    tag_384:\n        /* \"#utility.yul\":2641:2642   */\n      0x00\n        /* \"#utility.yul\":2630:2639   */\n      dup3\n        /* \"#utility.yul\":2626:2643   */\n      add\n        /* \"#utility.yul\":2613:2644   */\n      calldataload\n        /* \"#utility.yul\":2671:2689   */\n      0xffffffffffffffff\n        /* \"#utility.yul\":2663:2669   */\n      dup2\n        /* \"#utility.yul\":2660:2690   */\n      gt\n        /* \"#utility.yul\":2657:2774   */\n      iszero\n      tag_386\n      jumpi\n        /* \"#utility.yul\":2693:2772   */\n      tag_387\n      tag_388\n      jump\t// in\n    tag_387:\n        /* \"#utility.yul\":2657:2774   */\n    tag_386:\n        /* \"#utility.yul\":2798:2861   */\n      tag_389\n        /* \"#utility.yul\":2853:2860   */\n      dup5\n        /* \"#utility.yul\":2844:2850   */\n      dup3\n        /* \"#utility.yul\":2833:2842   */\n      dup6\n        /* \"#utility.yul\":2829:2851   */\n      add\n        /* \"#utility.yul\":2798:2861   */\n      tag_357\n      jump\t// in\n    tag_389:\n        /* \"#utility.yul\":2788:2861   */\n      swap2\n      pop\n        /* \"#utility.yul\":2584:2871   */\n      pop\n        /* \"#utility.yul\":2369:2878   */\n      swap3\n      swap2\n      pop\n      pop\n      jump\t// out\n        /* \"#utility.yul\":2884:4267   */\n    tag_41:\n        /* \"#utility.yul\":3007:3013   */\n      0x00\n        /* \"#utility.yul\":3015:3021   */\n      dup1\n        /* \"#utility.yul\":3023:3029   */\n      0x00\n        /* \"#utility.yul\":3031:3037   */\n      dup1\n        /* \"#utility.yul\":3039:3045   */\n      0x00\n        /* \"#utility.yul\":3047:3053   */\n      dup1\n        /* \"#utility.yul\":3055:3061   */\n      0x00\n        /* \"#utility.yul\":3104:3107   */\n      0xe0\n        /* \"#utility.yul\":3092:3101   */\n      dup9\n        /* \"#utility.yul\":3083:3090   */\n      dup11\n        /* \"#utility.yul\":3079:3102   */\n      sub\n        /* \"#utility.yul\":3075:3108   */\n      slt\n        /* \"#utility.yul\":3072:3192   */\n      iszero\n      tag_391\n      jumpi\n        /* \"#utility.yul\":3111:3190   */\n      tag_392\n      tag_377\n      jump\t// in\n    tag_392:\n        /* \"#utility.yul\":3072:3192   */\n    tag_391:\n        /* \"#utility.yul\":3259:3260   */\n      0x00\n        /* \"#utility.yul\":3248:3257   */\n      dup9\n        /* \"#utility.yul\":3244:3261   */\n      add\n        /* \"#utility.yul\":3231:3262   */\n      calldataload\n        /* \"#utility.yul\":3289:3307   */\n      0xffffffffffffffff\n        /* \"#utility.yul\":3281:3287   */\n      dup2\n        /* \"#utility.yul\":3278:3308   */\n      gt\n        /* \"#utility.yul\":3275:3392   */\n      iszero\n      tag_393\n      jumpi\n        /* \"#utility.yul\":3311:3390   */\n      tag_394\n      tag_388\n      jump\t// in\n    tag_394:\n        /* \"#utility.yul\":3275:3392   */\n    tag_393:\n        /* \"#utility.yul\":3416:3479   */\n      tag_395\n        /* \"#utility.yul\":3471:3478   */\n      dup11\n        /* \"#utility.yul\":3462:3468   */\n      dup3\n        /* \"#utility.yul\":3451:3460   */\n      dup12\n        /* \"#utility.yul\":3447:3469   */\n      add\n        /* \"#utility.yul\":3416:3479   */\n      tag_357\n      jump\t// in\n    tag_395:\n        /* \"#utility.yul\":3406:3479   */\n      swap8\n      pop\n        /* \"#utility.yul\":3202:3489   */\n      pop\n        /* \"#utility.yul\":3528:3530   */\n      0x20\n        /* \"#utility.yul\":3554:3607   */\n      tag_396\n        /* \"#utility.yul\":3599:3606   */\n      dup11\n        /* \"#utility.yul\":3590:3596   */\n      dup3\n        /* \"#utility.yul\":3579:3588   */\n      dup12\n        /* \"#utility.yul\":3575:3597   */\n      add\n        /* \"#utility.yul\":3554:3607   */\n      tag_363\n      jump\t// in\n    tag_396:\n        /* \"#utility.yul\":3544:3607   */\n      swap7\n      pop\n        /* \"#utility.yul\":3499:3617   */\n      pop\n        /* \"#utility.yul\":3656:3658   */\n      0x40\n        /* \"#utility.yul\":3682:3735   */\n      tag_397\n        /* \"#utility.yul\":3727:3734   */\n      dup11\n        /* \"#utility.yul\":3718:3724   */\n      dup3\n        /* \"#utility.yul\":3707:3716   */\n      dup12\n        /* \"#utility.yul\":3703:3725   */\n      add\n        /* \"#utility.yul\":3682:3735   */\n      tag_363\n      jump\t// in\n    tag_397:\n        /* \"#utility.yul\":3672:3735   */\n      swap6\n      pop\n        /* \"#utility.yul\":3627:3745   */\n      pop\n        /* \"#utility.yul\":3784:3786   */\n      0x60\n        /* \"#utility.yul\":3810:3863   */\n      tag_398\n        /* \"#utility.yul\":3855:3862   */\n      dup11\n        /* \"#utility.yul\":3846:3852   */\n      dup3\n        /* \"#utility.yul\":3835:3844   */\n      dup12\n        /* \"#utility.yul\":3831:3853   */\n      add\n        /* \"#utility.yul\":3810:3863   */\n      tag_363\n      jump\t// in\n    tag_398:\n        /* \"#utility.yul\":3800:3863   */\n      swap5\n      pop\n        /* \"#utility.yul\":3755:3873   */\n      pop\n        /* \"#utility.yul\":3912:3915   */\n      0x80\n        /* \"#utility.yul\":3939:3992   */\n      tag_399\n        /* \"#utility.yul\":3984:3991   */\n      dup11\n        /* \"#utility.yul\":3975:3981   */\n      dup3\n        /* \"#utility.yul\":3964:3973   */\n      dup12\n        /* \"#utility.yul\":3960:3982   */\n      add\n        /* \"#utility.yul\":3939:3992   */\n      tag_363\n      jump\t// in\n    tag_399:\n        /* \"#utility.yul\":3929:3992   */\n      swap4\n      pop\n        /* \"#utility.yul\":3883:4002   */\n      pop\n        /* \"#utility.yul\":4041:4044   */\n      0xa0\n        /* \"#utility.yul\":4068:4121   */\n      tag_400\n        /* \"#utility.yul\":4113:4120   */\n      dup11\n        /* \"#utility.yul\":4104:4110   */\n      dup3\n        /* \"#utility.yul\":4093:4102   */\n      dup12\n        /* \"#utility.yul\":4089:4111   */\n      add\n        /* \"#utility.yul\":4068:4121   */\n      tag_345\n      jump\t// in\n    tag_400:\n        /* \"#utility.yul\":4058:4121   */\n      swap3\n      pop\n        /* \"#utility.yul\":4012:4131   */\n      pop\n        /* \"#utility.yul\":4170:4173   */\n      0xc0\n        /* \"#utility.yul\":4197:4250   */\n      tag_401\n        /* \"#utility.yul\":4242:4249   */\n      dup11\n        /* \"#utility.yul\":4233:4239   */\n      dup3\n        /* \"#utility.yul\":4222:4231   */\n      dup12\n        /* \"#utility.yul\":4218:4240   */\n      add\n        /* \"#utility.yul\":4197:4250   */\n      tag_363\n      jump\t// in\n    tag_401:\n        /* \"#utility.yul\":4187:4250   */\n      swap2\n      pop\n        /* \"#utility.yul\":4141:4260   */\n      pop\n        /* \"#utility.yul\":2884:4267   */\n      swap3\n      swap6\n      swap9\n      swap2\n      swap5\n      swap8\n      pop\n      swap3\n      swap6\n      pop\n      jump\t// out\n        /* \"#utility.yul\":4273:4602   */\n    tag_35:\n        /* \"#utility.yul\":4332:4338   */\n      0x00\n        /* \"#utility.yul\":4381:4383   */\n      0x20\n        /* \"#utility.yul\":4369:4378   */\n      dup3\n        /* \"#utility.yul\":4360:4367   */\n      dup5\n        /* \"#utility.yul\":4356:4379   */\n      sub\n        /* \"#utility.yul\":4352:4384   */\n      slt\n        /* \"#utility.yul\":4349:4468   */\n      iszero\n      tag_403\n      jumpi\n        /* \"#utility.yul\":4387:4466   */\n      tag_404\n      tag_377\n      jump\t// in\n    tag_404:\n        /* \"#utility.yul\":4349:4468   */\n    tag_403:\n        /* \"#utility.yul\":4507:4508   */\n      0x00\n        /* \"#utility.yul\":4532:4585   */\n      tag_405\n        /* \"#utility.yul\":4577:4584   */\n      dup5\n        /* \"#utility.yul\":4568:4574   */\n      dup3\n        /* \"#utility.yul\":4557:4566   */\n      dup6\n        /* \"#utility.yul\":4553:4575   */\n      add\n        /* \"#utility.yul\":4532:4585   */\n      tag_363\n      jump\t// in\n    tag_405:\n        /* \"#utility.yul\":4522:4585   */\n      swap2\n      pop\n        /* \"#utility.yul\":4478:4595   */\n      pop\n        /* \"#utility.yul\":4273:4602   */\n      swap3\n      swap2\n      pop\n      pop\n      jump\t// out\n        /* \"#utility.yul\":4608:5811   */\n    tag_45:\n        /* \"#utility.yul\":4721:4727   */\n      0x00\n        /* \"#utility.yul\":4729:4735   */\n      dup1\n        /* \"#utility.yul\":4737:4743   */\n      0x00\n        /* \"#utility.yul\":4745:4751   */\n      dup1\n        /* \"#utility.yul\":4753:4759   */\n      0x00\n        /* \"#utility.yul\":4761:4767   */\n      dup1\n        /* \"#utility.yul\":4769:4775   */\n      0x00\n        /* \"#utility.yul\":4818:4821   */\n      0xe0\n        /* \"#utility.yul\":4806:4815   */\n      dup9\n        /* \"#utility.yul\":4797:4804   */\n      dup11\n        /* \"#utility.yul\":4793:4816   */\n      sub\n        /* \"#utility.yul\":4789:4822   */\n      slt\n        /* \"#utility.yul\":4786:4906   */\n      iszero\n      tag_407\n      jumpi\n        /* \"#utility.yul\":4825:4904   */\n      tag_408\n      tag_377\n      jump\t// in\n    tag_408:\n        /* \"#utility.yul\":4786:4906   */\n    tag_407:\n        /* \"#utility.yul\":4945:4946   */\n      0x00\n        /* \"#utility.yul\":4970:5023   */\n      tag_409\n        /* \"#utility.yul\":5015:5022   */\n      dup11\n        /* \"#utility.yul\":5006:5012   */\n      dup3\n        /* \"#utility.yul\":4995:5004   */\n      dup12\n        /* \"#utility.yul\":4991:5013   */\n      add\n        /* \"#utility.yul\":4970:5023   */\n      tag_363\n      jump\t// in\n    tag_409:\n        /* \"#utility.yul\":4960:5023   */\n      swap8\n      pop\n        /* \"#utility.yul\":4916:5033   */\n      pop\n        /* \"#utility.yul\":5072:5074   */\n      0x20\n        /* \"#utility.yul\":5098:5151   */\n      tag_410\n        /* \"#utility.yul\":5143:5150   */\n      dup11\n        /* \"#utility.yul\":5134:5140   */\n      dup3\n        /* \"#utility.yul\":5123:5132   */\n      dup12\n        /* \"#utility.yul\":5119:5141   */\n      add\n        /* \"#utility.yul\":5098:5151   */\n      tag_363\n      jump\t// in\n    tag_410:\n        /* \"#utility.yul\":5088:5151   */\n      swap7\n      pop\n        /* \"#utility.yul\":5043:5161   */\n      pop\n        /* \"#utility.yul\":5200:5202   */\n      0x40\n        /* \"#utility.yul\":5226:5279   */\n      tag_411\n        /* \"#utility.yul\":5271:5278   */\n      dup11\n        /* \"#utility.yul\":5262:5268   */\n      dup3\n        /* \"#utility.yul\":5251:5260   */\n      dup12\n        /* \"#utility.yul\":5247:5269   */\n      add\n        /* \"#utility.yul\":5226:5279   */\n      tag_363\n      jump\t// in\n    tag_411:\n        /* \"#utility.yul\":5216:5279   */\n      swap6\n      pop\n        /* \"#utility.yul\":5171:5289   */\n      pop\n        /* \"#utility.yul\":5328:5330   */\n      0x60\n        /* \"#utility.yul\":5354:5407   */\n      tag_412\n        /* \"#utility.yul\":5399:5406   */\n      dup11\n        /* \"#utility.yul\":5390:5396   */\n      dup3\n        /* \"#utility.yul\":5379:5388   */\n      dup12\n        /* \"#utility.yul\":5375:5397   */\n      add\n        /* \"#utility.yul\":5354:5407   */\n      tag_363\n      jump\t// in\n    tag_412:\n        /* \"#utility.yul\":5344:5407   */\n      swap5\n      pop\n        /* \"#utility.yul\":5299:5417   */\n      pop\n        /* \"#utility.yul\":5456:5459   */\n      0x80\n        /* \"#utility.yul\":5483:5536   */\n      tag_413\n        /* \"#utility.yul\":5528:5535   */\n      dup11\n        /* \"#utility.yul\":5519:5525   */\n      dup3\n        /* \"#utility.yul\":5508:5517   */\n      dup12\n        /* \"#utility.yul\":5504:5526   */\n      add\n        /* \"#utility.yul\":5483:5536   */\n      tag_345\n      jump\t// in\n    tag_413:\n        /* \"#utility.yul\":5473:5536   */\n      swap4\n      pop\n        /* \"#utility.yul\":5427:5546   */\n      pop\n        /* \"#utility.yul\":5585:5588   */\n      0xa0\n        /* \"#utility.yul\":5612:5665   */\n      tag_414\n        /* \"#utility.yul\":5657:5664   */\n      dup11\n        /* \"#utility.yul\":5648:5654   */\n      dup3\n        /* \"#utility.yul\":5637:5646   */\n      dup12\n        /* \"#utility.yul\":5633:5655   */\n      add\n        /* \"#utility.yul\":5612:5665   */\n      tag_363\n      jump\t// in\n    tag_414:\n        /* \"#utility.yul\":5602:5665   */\n      swap3\n      pop\n        /* \"#utility.yul\":5556:5675   */\n      pop\n        /* \"#utility.yul\":5714:5717   */\n      0xc0\n        /* \"#utility.yul\":5741:5794   */\n      tag_415\n        /* \"#utility.yul\":5786:5793   */\n      dup11\n        /* \"#utility.yul\":5777:5783   */\n      dup3\n        /* \"#utility.yul\":5766:5775   */\n      dup12\n        /* \"#utility.yul\":5762:5784   */\n      add\n        /* \"#utility.yul\":5741:5794   */\n      tag_363\n      jump\t// in\n    tag_415:\n        /* \"#utility.yul\":5731:5794   */\n      swap2\n      pop\n        /* \"#utility.yul\":5685:5804   */\n      pop\n        /* \"#utility.yul\":4608:5811   */\n      swap3\n      swap6\n      swap9\n      swap2\n      swap5\n      swap8\n      pop\n      swap3\n      swap6\n      pop\n      jump\t// out\n        /* \"#utility.yul\":5817:6728   */\n    tag_55:\n        /* \"#utility.yul\":5912:5918   */\n      0x00\n        /* \"#utility.yul\":5920:5926   */\n      dup1\n        /* \"#utility.yul\":5928:5934   */\n      0x00\n        /* \"#utility.yul\":5936:5942   */\n      dup1\n        /* \"#utility.yul\":5944:5950   */\n      0x00\n        /* \"#utility.yul\":5993:5996   */\n      0xa0\n        /* \"#utility.yul\":5981:5990   */\n      dup7\n        /* \"#utility.yul\":5972:5979   */\n      dup9\n        /* \"#utility.yul\":5968:5991   */\n      sub\n        /* \"#utility.yul\":5964:5997   */\n      slt\n        /* \"#utility.yul\":5961:6081   */\n      iszero\n      tag_417\n      jumpi\n        /* \"#utility.yul\":6000:6079   */\n      tag_418\n      tag_377\n      jump\t// in\n    tag_418:\n        /* \"#utility.yul\":5961:6081   */\n    tag_417:\n        /* \"#utility.yul\":6120:6121   */\n      0x00\n        /* \"#utility.yul\":6145:6198   */\n      tag_419\n        /* \"#utility.yul\":6190:6197   */\n      dup9\n        /* \"#utility.yul\":6181:6187   */\n      dup3\n        /* \"#utility.yul\":6170:6179   */\n      dup10\n        /* \"#utility.yul\":6166:6188   */\n      add\n        /* \"#utility.yul\":6145:6198   */\n      tag_363\n      jump\t// in\n    tag_419:\n        /* \"#utility.yul\":6135:6198   */\n      swap6\n      pop\n        /* \"#utility.yul\":6091:6208   */\n      pop\n        /* \"#utility.yul\":6247:6249   */\n      0x20\n        /* \"#utility.yul\":6273:6326   */\n      tag_420\n        /* \"#utility.yul\":6318:6325   */\n      dup9\n        /* \"#utility.yul\":6309:6315   */\n      dup3\n        /* \"#utility.yul\":6298:6307   */\n      dup10\n        /* \"#utility.yul\":6294:6316   */\n      add\n        /* \"#utility.yul\":6273:6326   */\n      tag_363\n      jump\t// in\n    tag_420:\n        /* \"#utility.yul\":6263:6326   */\n      swap5\n      pop\n        /* \"#utility.yul\":6218:6336   */\n      pop\n        /* \"#utility.yul\":6375:6377   */\n      0x40\n        /* \"#utility.yul\":6401:6454   */\n      tag_421\n        /* \"#utility.yul\":6446:6453   */\n      dup9\n        /* \"#utility.yul\":6437:6443   */\n      dup3\n        /* \"#utility.yul\":6426:6435   */\n      dup10\n        /* \"#utility.yul\":6422:6444   */\n      add\n        /* \"#utility.yul\":6401:6454   */\n      tag_363\n      jump\t// in\n    tag_421:\n        /* \"#utility.yul\":6391:6454   */\n      swap4\n      pop\n        /* \"#utility.yul\":6346:6464   */\n      pop\n        /* \"#utility.yul\":6503:6505   */\n      0x60\n        /* \"#utility.yul\":6529:6582   */\n      tag_422\n        /* \"#utility.yul\":6574:6581   */\n      dup9\n        /* \"#utility.yul\":6565:6571   */\n      dup3\n        /* \"#utility.yul\":6554:6563   */\n      dup10\n        /* \"#utility.yul\":6550:6572   */\n      add\n        /* \"#utility.yul\":6529:6582   */\n      tag_363\n      jump\t// in\n    tag_422:\n        /* \"#utility.yul\":6519:6582   */\n      swap3\n      pop\n        /* \"#utility.yul\":6474:6592   */\n      pop\n        /* \"#utility.yul\":6631:6634   */\n      0x80\n        /* \"#utility.yul\":6658:6711   */\n      tag_423\n        /* \"#utility.yul\":6703:6710   */\n      dup9\n        /* \"#utility.yul\":6694:6700   */\n      dup3\n        /* \"#utility.yul\":6683:6692   */\n      dup10\n        /* \"#utility.yul\":6679:6701   */\n      add\n        /* \"#utility.yul\":6658:6711   */\n      tag_363\n      jump\t// in\n    tag_423:\n        /* \"#utility.yul\":6648:6711   */\n      swap2\n      pop\n        /* \"#utility.yul\":6602:6721   */\n      pop\n        /* \"#utility.yul\":5817:6728   */\n      swap3\n      swap6\n      pop\n      swap3\n      swap6\n      swap1\n      swap4\n      pop\n      jump\t// out\n        /* \"#utility.yul\":6734:7705   */\n    tag_311:\n        /* \"#utility.yul\":6837:6843   */\n      0x00\n        /* \"#utility.yul\":6845:6851   */\n      dup1\n        /* \"#utility.yul\":6853:6859   */\n      0x00\n        /* \"#utility.yul\":6861:6867   */\n      dup1\n        /* \"#utility.yul\":6869:6875   */\n      0x00\n        /* \"#utility.yul\":6918:6921   */\n      0xa0\n        /* \"#utility.yul\":6906:6915   */\n      dup7\n        /* \"#utility.yul\":6897:6904   */\n      dup9\n        /* \"#utility.yul\":6893:6916   */\n      sub\n        /* \"#utility.yul\":6889:6922   */\n      slt\n        /* \"#utility.yul\":6886:7006   */\n      iszero\n      tag_425\n      jumpi\n        /* \"#utility.yul\":6925:7004   */\n      tag_426\n      tag_377\n      jump\t// in\n    tag_426:\n        /* \"#utility.yul\":6886:7006   */\n    tag_425:\n        /* \"#utility.yul\":7045:7046   */\n      0x00\n        /* \"#utility.yul\":7070:7133   */\n      tag_427\n        /* \"#utility.yul\":7125:7132   */\n      dup9\n        /* \"#utility.yul\":7116:7122   */\n      dup3\n        /* \"#utility.yul\":7105:7114   */\n      dup10\n        /* \"#utility.yul\":7101:7123   */\n      add\n        /* \"#utility.yul\":7070:7133   */\n      tag_370\n      jump\t// in\n    tag_427:\n        /* \"#utility.yul\":7060:7133   */\n      swap6\n      pop\n        /* \"#utility.yul\":7016:7143   */\n      pop\n        /* \"#utility.yul\":7182:7184   */\n      0x20\n        /* \"#utility.yul\":7208:7271   */\n      tag_428\n        /* \"#utility.yul\":7263:7270   */\n      dup9\n        /* \"#utility.yul\":7254:7260   */\n      dup3\n        /* \"#utility.yul\":7243:7252   */\n      dup10\n        /* \"#utility.yul\":7239:7261   */\n      add\n        /* \"#utility.yul\":7208:7271   */\n      tag_353\n      jump\t// in\n    tag_428:\n        /* \"#utility.yul\":7198:7271   */\n      swap5\n      pop\n        /* \"#utility.yul\":7153:7281   */\n      pop\n        /* \"#utility.yul\":7320:7322   */\n      0x40\n        /* \"#utility.yul\":7346:7410   */\n      tag_429\n        /* \"#utility.yul\":7402:7409   */\n      dup9\n        /* \"#utility.yul\":7393:7399   */\n      dup3\n        /* \"#utility.yul\":7382:7391   */\n      dup10\n        /* \"#utility.yul\":7378:7400   */\n      add\n        /* \"#utility.yul\":7346:7410   */\n      tag_367\n      jump\t// in\n    tag_429:\n        /* \"#utility.yul\":7336:7410   */\n      swap4\n      pop\n        /* \"#utility.yul\":7291:7420   */\n      pop\n        /* \"#utility.yul\":7459:7461   */\n      0x60\n        /* \"#utility.yul\":7485:7549   */\n      tag_430\n        /* \"#utility.yul\":7541:7548   */\n      dup9\n        /* \"#utility.yul\":7532:7538   */\n      dup3\n        /* \"#utility.yul\":7521:7530   */\n      dup10\n        /* \"#utility.yul\":7517:7539   */\n      add\n        /* \"#utility.yul\":7485:7549   */\n      tag_367\n      jump\t// in\n    tag_430:\n        /* \"#utility.yul\":7475:7549   */\n      swap3\n      pop\n        /* \"#utility.yul\":7430:7559   */\n      pop\n        /* \"#utility.yul\":7598:7601   */\n      0x80\n        /* \"#utility.yul\":7625:7688   */\n      tag_431\n        /* \"#utility.yul\":7680:7687   */\n      dup9\n        /* \"#utility.yul\":7671:7677   */\n      dup3\n        /* \"#utility.yul\":7660:7669   */\n      dup10\n        /* \"#utility.yul\":7656:7678   */\n      add\n        /* \"#utility.yul\":7625:7688   */\n      tag_370\n      jump\t// in\n    tag_431:\n        /* \"#utility.yul\":7615:7688   */\n      swap2\n      pop\n        /* \"#utility.yul\":7569:7698   */\n      pop\n        /* \"#utility.yul\":6734:7705   */\n      swap3\n      swap6\n      pop\n      swap3\n      swap6\n      swap1\n      swap4\n      pop\n      jump\t// out\n        /* \"#utility.yul\":7711:7907   */\n    tag_432:\n        /* \"#utility.yul\":7800:7810   */\n      0x00\n        /* \"#utility.yul\":7835:7901   */\n      tag_434\n        /* \"#utility.yul\":7897:7900   */\n      dup4\n        /* \"#utility.yul\":7889:7895   */\n      dup4\n        /* \"#utility.yul\":7835:7901   */\n      tag_435\n      jump\t// in\n    tag_434:\n        /* \"#utility.yul\":7821:7901   */\n      swap1\n      pop\n        /* \"#utility.yul\":7711:7907   */\n      swap3\n      swap2\n      pop\n      pop\n      jump\t// out\n        /* \"#utility.yul\":7913:8153   */\n    tag_436:\n        /* \"#utility.yul\":8024:8034   */\n      0x00\n        /* \"#utility.yul\":8059:8147   */\n      tag_438\n        /* \"#utility.yul\":8143:8146   */\n      dup4\n        /* \"#utility.yul\":8135:8141   */\n      dup4\n        /* \"#utility.yul\":8059:8147   */\n      tag_439\n      jump\t// in\n    tag_438:\n        /* \"#utility.yul\":8045:8147   */\n      swap1\n      pop\n        /* \"#utility.yul\":7913:8153   */\n      swap3\n      swap2\n      pop\n      pop\n      jump\t// out\n        /* \"#utility.yul\":8159:8267   */\n    tag_440:\n        /* \"#utility.yul\":8236:8260   */\n      tag_442\n        /* \"#utility.yul\":8254:8259   */\n      dup2\n        /* \"#utility.yul\":8236:8260   */\n      tag_443\n      jump\t// in\n    tag_442:\n        /* \"#utility.yul\":8231:8234   */\n      dup3\n        /* \"#utility.yul\":8224:8261   */\n      mstore\n        /* \"#utility.yul\":8159:8267   */\n      pop\n      pop\n      jump\t// out\n        /* \"#utility.yul\":8273:8391   */\n    tag_444:\n        /* \"#utility.yul\":8360:8384   */\n      tag_446\n        /* \"#utility.yul\":8378:8383   */\n      dup2\n        /* \"#utility.yul\":8360:8384   */\n      tag_443\n      jump\t// in\n    tag_446:\n        /* \"#utility.yul\":8355:8358   */\n      dup3\n        /* \"#utility.yul\":8348:8385   */\n      mstore\n        /* \"#utility.yul\":8273:8391   */\n      pop\n      pop\n      jump\t// out\n        /* \"#utility.yul\":8425:9416   */\n    tag_447:\n        /* \"#utility.yul\":8564:8567   */\n      0x00\n        /* \"#utility.yul\":8593:8657   */\n      tag_449\n        /* \"#utility.yul\":8651:8656   */\n      dup3\n        /* \"#utility.yul\":8593:8657   */\n      tag_450\n      jump\t// in\n    tag_449:\n        /* \"#utility.yul\":8673:8769   */\n      tag_451\n        /* \"#utility.yul\":8762:8768   */\n      dup2\n        /* \"#utility.yul\":8757:8760   */\n      dup6\n        /* \"#utility.yul\":8673:8769   */\n      tag_452\n      jump\t// in\n    tag_451:\n        /* \"#utility.yul\":8666:8769   */\n      swap4\n      pop\n        /* \"#utility.yul\":8795:8798   */\n      dup4\n        /* \"#utility.yul\":8840:8844   */\n      0x20\n        /* \"#utility.yul\":8832:8838   */\n      dup3\n        /* \"#utility.yul\":8828:8845   */\n      mul\n        /* \"#utility.yul\":8823:8826   */\n      dup6\n        /* \"#utility.yul\":8819:8846   */\n      add\n        /* \"#utility.yul\":8870:8936   */\n      tag_453\n        /* \"#utility.yul\":8930:8935   */\n      dup6\n        /* \"#utility.yul\":8870:8936   */\n      tag_454\n      jump\t// in\n    tag_453:\n        /* \"#utility.yul\":8959:8966   */\n      dup1\n        /* \"#utility.yul\":8990:8991   */\n      0x00\n        /* \"#utility.yul\":8975:9371   */\n    tag_455:\n        /* \"#utility.yul\":9000:9006   */\n      dup6\n        /* \"#utility.yul\":8997:8998   */\n      dup2\n        /* \"#utility.yul\":8994:9007   */\n      lt\n        /* \"#utility.yul\":8975:9371   */\n      iszero\n      tag_457\n      jumpi\n        /* \"#utility.yul\":9071:9080   */\n      dup5\n        /* \"#utility.yul\":9065:9069   */\n      dup5\n        /* \"#utility.yul\":9061:9081   */\n      sub\n        /* \"#utility.yul\":9056:9059   */\n      dup10\n        /* \"#utility.yul\":9049:9082   */\n      mstore\n        /* \"#utility.yul\":9122:9128   */\n      dup2\n        /* \"#utility.yul\":9116:9129   */\n      mload\n        /* \"#utility.yul\":9150:9234   */\n      tag_458\n        /* \"#utility.yul\":9229:9233   */\n      dup6\n        /* \"#utility.yul\":9214:9227   */\n      dup3\n        /* \"#utility.yul\":9150:9234   */\n      tag_432\n      jump\t// in\n    tag_458:\n        /* \"#utility.yul\":9142:9234   */\n      swap5\n      pop\n        /* \"#utility.yul\":9257:9327   */\n      tag_459\n        /* \"#utility.yul\":9320:9326   */\n      dup4\n        /* \"#utility.yul\":9257:9327   */\n      tag_460\n      jump\t// in\n    tag_459:\n        /* \"#utility.yul\":9247:9327   */\n      swap3\n      pop\n        /* \"#utility.yul\":9356:9360   */\n      0x20\n        /* \"#utility.yul\":9351:9354   */\n      dup11\n        /* \"#utility.yul\":9347:9361   */\n      add\n        /* \"#utility.yul\":9340:9361   */\n      swap10\n      pop\n        /* \"#utility.yul\":9035:9371   */\n      pop\n        /* \"#utility.yul\":9022:9023   */\n      0x01\n        /* \"#utility.yul\":9019:9020   */\n      dup2\n        /* \"#utility.yul\":9015:9024   */\n      add\n        /* \"#utility.yul\":9010:9024   */\n      swap1\n      pop\n        /* \"#utility.yul\":8975:9371   */\n      jump(tag_455)\n    tag_457:\n        /* \"#utility.yul\":8979:8993   */\n      pop\n        /* \"#utility.yul\":9387:9391   */\n      dup3\n        /* \"#utility.yul\":9380:9391   */\n      swap8\n      pop\n        /* \"#utility.yul\":9407:9410   */\n      dup8\n        /* \"#utility.yul\":9400:9410   */\n      swap6\n      pop\n        /* \"#utility.yul\":8569:9416   */\n      pop\n      pop\n      pop\n      pop\n      pop\n        /* \"#utility.yul\":8425:9416   */\n      swap3\n      swap2\n      pop\n      pop\n      jump\t// out\n        /* \"#utility.yul\":9484:10563   */\n    tag_461:\n        /* \"#utility.yul\":9645:9648   */\n      0x00\n        /* \"#utility.yul\":9674:9749   */\n      tag_463\n        /* \"#utility.yul\":9743:9748   */\n      dup3\n        /* \"#utility.yul\":9674:9749   */\n      tag_464\n      jump\t// in\n    tag_463:\n        /* \"#utility.yul\":9765:9872   */\n      tag_465\n        /* \"#utility.yul\":9865:9871   */\n      dup2\n        /* \"#utility.yul\":9860:9863   */\n      dup6\n        /* \"#utility.yul\":9765:9872   */\n      tag_466\n      jump\t// in\n    tag_465:\n        /* \"#utility.yul\":9758:9872   */\n      swap4\n      pop\n        /* \"#utility.yul\":9898:9901   */\n      dup4\n        /* \"#utility.yul\":9943:9947   */\n      0x20\n        /* \"#utility.yul\":9935:9941   */\n      dup3\n        /* \"#utility.yul\":9931:9948   */\n      mul\n        /* \"#utility.yul\":9926:9929   */\n      dup6\n        /* \"#utility.yul\":9922:9949   */\n      add\n        /* \"#utility.yul\":9973:10050   */\n      tag_467\n        /* \"#utility.yul\":10044:10049   */\n      dup6\n        /* \"#utility.yul\":9973:10050   */\n      tag_468\n      jump\t// in\n    tag_467:\n        /* \"#utility.yul\":10073:10080   */\n      dup1\n        /* \"#utility.yul\":10104:10105   */\n      0x00\n        /* \"#utility.yul\":10089:10518   */\n    tag_469:\n        /* \"#utility.yul\":10114:10120   */\n      dup6\n        /* \"#utility.yul\":10111:10112   */\n      dup2\n        /* \"#utility.yul\":10108:10121   */\n      lt\n        /* \"#utility.yul\":10089:10518   */\n      iszero\n      tag_471\n      jumpi\n        /* \"#utility.yul\":10185:10194   */\n      dup5\n        /* \"#utility.yul\":10179:10183   */\n      dup5\n        /* \"#utility.yul\":10175:10195   */\n      sub\n        /* \"#utility.yul\":10170:10173   */\n      dup10\n        /* \"#utility.yul\":10163:10196   */\n      mstore\n        /* \"#utility.yul\":10236:10242   */\n      dup2\n        /* \"#utility.yul\":10230:10243   */\n      mload\n        /* \"#utility.yul\":10264:10370   */\n      tag_472\n        /* \"#utility.yul\":10365:10369   */\n      dup6\n        /* \"#utility.yul\":10350:10363   */\n      dup3\n        /* \"#utility.yul\":10264:10370   */\n      tag_436\n      jump\t// in\n    tag_472:\n        /* \"#utility.yul\":10256:10370   */\n      swap5\n      pop\n        /* \"#utility.yul\":10393:10474   */\n      tag_473\n        /* \"#utility.yul\":10467:10473   */\n      dup4\n        /* \"#utility.yul\":10393:10474   */\n      tag_474\n      jump\t// in\n    tag_473:\n        /* \"#utility.yul\":10383:10474   */\n      swap3\n      pop\n        /* \"#utility.yul\":10503:10507   */\n      0x20\n        /* \"#utility.yul\":10498:10501   */\n      dup11\n        /* \"#utility.yul\":10494:10508   */\n      add\n        /* \"#utility.yul\":10487:10508   */\n      swap10\n      pop\n        /* \"#utility.yul\":10149:10518   */\n      pop\n        /* \"#utility.yul\":10136:10137   */\n      0x01\n        /* \"#utility.yul\":10133:10134   */\n      dup2\n        /* \"#utility.yul\":10129:10138   */\n      add\n        /* \"#utility.yul\":10124:10138   */\n      swap1\n      pop\n        /* \"#utility.yul\":10089:10518   */\n      jump(tag_469)\n    tag_471:\n        /* \"#utility.yul\":10093:10107   */\n      pop\n        /* \"#utility.yul\":10534:10538   */\n      dup3\n        /* \"#utility.yul\":10527:10538   */\n      swap8\n      pop\n        /* \"#utility.yul\":10554:10557   */\n      dup8\n        /* \"#utility.yul\":10547:10557   */\n      swap6\n      pop\n        /* \"#utility.yul\":9650:10563   */\n      pop\n      pop\n      pop\n      pop\n      pop\n        /* \"#utility.yul\":9484:10563   */\n      swap3\n      swap2\n      pop\n      pop\n      jump\t// out\n        /* \"#utility.yul\":10569:10714   */\n    tag_475:\n        /* \"#utility.yul\":10663:10707   */\n      tag_477\n        /* \"#utility.yul\":10701:10706   */\n      dup2\n        /* \"#utility.yul\":10663:10707   */\n      tag_478\n      jump\t// in\n    tag_477:\n        /* \"#utility.yul\":10658:10661   */\n      dup3\n        /* \"#utility.yul\":10651:10708   */\n      mstore\n        /* \"#utility.yul\":10569:10714   */\n      pop\n      pop\n      jump\t// out\n        /* \"#utility.yul\":10720:10835   */\n    tag_479:\n        /* \"#utility.yul\":10805:10828   */\n      tag_481\n        /* \"#utility.yul\":10822:10827   */\n      dup2\n        /* \"#utility.yul\":10805:10828   */\n      tag_482\n      jump\t// in\n    tag_481:\n        /* \"#utility.yul\":10800:10803   */\n      dup3\n        /* \"#utility.yul\":10793:10829   */\n      mstore\n        /* \"#utility.yul\":10720:10835   */\n      pop\n      pop\n      jump\t// out\n        /* \"#utility.yul\":10841:10986   */\n    tag_483:\n        /* \"#utility.yul\":10935:10979   */\n      tag_485\n        /* \"#utility.yul\":10973:10978   */\n      dup2\n        /* \"#utility.yul\":10935:10979   */\n      tag_486\n      jump\t// in\n    tag_485:\n        /* \"#utility.yul\":10930:10933   */\n      dup3\n        /* \"#utility.yul\":10923:10980   */\n      mstore\n        /* \"#utility.yul\":10841:10986   */\n      pop\n      pop\n      jump\t// out\n        /* \"#utility.yul\":10992:11336   */\n    tag_435:\n        /* \"#utility.yul\":11070:11073   */\n      0x00\n        /* \"#utility.yul\":11098:11137   */\n      tag_488\n        /* \"#utility.yul\":11131:11136   */\n      dup3\n        /* \"#utility.yul\":11098:11137   */\n      tag_489\n      jump\t// in\n    tag_488:\n        /* \"#utility.yul\":11153:11214   */\n      tag_490\n        /* \"#utility.yul\":11207:11213   */\n      dup2\n        /* \"#utility.yul\":11202:11205   */\n      dup6\n        /* \"#utility.yul\":11153:11214   */\n      tag_491\n      jump\t// in\n    tag_490:\n        /* \"#utility.yul\":11146:11214   */\n      swap4\n      pop\n        /* \"#utility.yul\":11223:11275   */\n      tag_492\n        /* \"#utility.yul\":11268:11274   */\n      dup2\n        /* \"#utility.yul\":11263:11266   */\n      dup6\n        /* \"#utility.yul\":11256:11260   */\n      0x20\n        /* \"#utility.yul\":11249:11254   */\n      dup7\n        /* \"#utility.yul\":11245:11261   */\n      add\n        /* \"#utility.yul\":11223:11275   */\n      tag_493\n      jump\t// in\n    tag_492:\n        /* \"#utility.yul\":11300:11329   */\n      tag_494\n        /* \"#utility.yul\":11322:11328   */\n      dup2\n        /* \"#utility.yul\":11300:11329   */\n      tag_495\n      jump\t// in\n    tag_494:\n        /* \"#utility.yul\":11295:11298   */\n      dup5\n        /* \"#utility.yul\":11291:11330   */\n      add\n        /* \"#utility.yul\":11284:11330   */\n      swap2\n      pop\n        /* \"#utility.yul\":11074:11336   */\n      pop\n        /* \"#utility.yul\":10992:11336   */\n      swap3\n      swap2\n      pop\n      pop\n      jump\t// out\n        /* \"#utility.yul\":11342:11706   */\n    tag_496:\n        /* \"#utility.yul\":11430:11433   */\n      0x00\n        /* \"#utility.yul\":11458:11497   */\n      tag_498\n        /* \"#utility.yul\":11491:11496   */\n      dup3\n        /* \"#utility.yul\":11458:11497   */\n      tag_489\n      jump\t// in\n    tag_498:\n        /* \"#utility.yul\":11513:11584   */\n      tag_499\n        /* \"#utility.yul\":11577:11583   */\n      dup2\n        /* \"#utility.yul\":11572:11575   */\n      dup6\n        /* \"#utility.yul\":11513:11584   */\n      tag_500\n      jump\t// in\n    tag_499:\n        /* \"#utility.yul\":11506:11584   */\n      swap4\n      pop\n        /* \"#utility.yul\":11593:11645   */\n      tag_501\n        /* \"#utility.yul\":11638:11644   */\n      dup2\n        /* \"#utility.yul\":11633:11636   */\n      dup6\n        /* \"#utility.yul\":11626:11630   */\n      0x20\n        /* \"#utility.yul\":11619:11624   */\n      dup7\n        /* \"#utility.yul\":11615:11631   */\n      add\n        /* \"#utility.yul\":11593:11645   */\n      tag_493\n      jump\t// in\n    tag_501:\n        /* \"#utility.yul\":11670:11699   */\n      tag_502\n        /* \"#utility.yul\":11692:11698   */\n      dup2\n        /* \"#utility.yul\":11670:11699   */\n      tag_495\n      jump\t// in\n    tag_502:\n        /* \"#utility.yul\":11665:11668   */\n      dup5\n        /* \"#utility.yul\":11661:11700   */\n      add\n        /* \"#utility.yul\":11654:11700   */\n      swap2\n      pop\n        /* \"#utility.yul\":11434:11706   */\n      pop\n        /* \"#utility.yul\":11342:11706   */\n      swap3\n      swap2\n      pop\n      pop\n      jump\t// out\n        /* \"#utility.yul\":11712:12089   */\n    tag_503:\n        /* \"#utility.yul\":11818:11821   */\n      0x00\n        /* \"#utility.yul\":11846:11885   */\n      tag_505\n        /* \"#utility.yul\":11879:11884   */\n      dup3\n        /* \"#utility.yul\":11846:11885   */\n      tag_489\n      jump\t// in\n    tag_505:\n        /* \"#utility.yul\":11901:11990   */\n      tag_506\n        /* \"#utility.yul\":11983:11989   */\n      dup2\n        /* \"#utility.yul\":11978:11981   */\n      dup6\n        /* \"#utility.yul\":11901:11990   */\n      tag_507\n      jump\t// in\n    tag_506:\n        /* \"#utility.yul\":11894:11990   */\n      swap4\n      pop\n        /* \"#utility.yul\":11999:12051   */\n      tag_508\n        /* \"#utility.yul\":12044:12050   */\n      dup2\n        /* \"#utility.yul\":12039:12042   */\n      dup6\n        /* \"#utility.yul\":12032:12036   */\n      0x20\n        /* \"#utility.yul\":12025:12030   */\n      dup7\n        /* \"#utility.yul\":12021:12037   */\n      add\n        /* \"#utility.yul\":11999:12051   */\n      tag_493\n      jump\t// in\n    tag_508:\n        /* \"#utility.yul\":12076:12082   */\n      dup1\n        /* \"#utility.yul\":12071:12074   */\n      dup5\n        /* \"#utility.yul\":12067:12083   */\n      add\n        /* \"#utility.yul\":12060:12083   */\n      swap2\n      pop\n        /* \"#utility.yul\":11822:12089   */\n      pop\n        /* \"#utility.yul\":11712:12089   */\n      swap3\n      swap2\n      pop\n      pop\n      jump\t// out\n        /* \"#utility.yul\":12119:12964   */\n    tag_509:\n        /* \"#utility.yul\":12222:12225   */\n      0x00\n        /* \"#utility.yul\":12259:12264   */\n      dup2\n        /* \"#utility.yul\":12253:12265   */\n      sload\n        /* \"#utility.yul\":12288:12324   */\n      tag_511\n        /* \"#utility.yul\":12314:12323   */\n      dup2\n        /* \"#utility.yul\":12288:12324   */\n      tag_96\n      jump\t// in\n    tag_511:\n        /* \"#utility.yul\":12340:12429   */\n      tag_512\n        /* \"#utility.yul\":12422:12428   */\n      dup2\n        /* \"#utility.yul\":12417:12420   */\n      dup7\n        /* \"#utility.yul\":12340:12429   */\n      tag_507\n      jump\t// in\n    tag_512:\n        /* \"#utility.yul\":12333:12429   */\n      swap5\n      pop\n        /* \"#utility.yul\":12460:12461   */\n      0x01\n        /* \"#utility.yul\":12449:12458   */\n      dup3\n        /* \"#utility.yul\":12445:12462   */\n      and\n        /* \"#utility.yul\":12476:12477   */\n      0x00\n        /* \"#utility.yul\":12471:12608   */\n      dup2\n      eq\n      tag_514\n      jumpi\n        /* \"#utility.yul\":12622:12623   */\n      0x01\n        /* \"#utility.yul\":12617:12958   */\n      dup2\n      eq\n      tag_515\n      jumpi\n        /* \"#utility.yul\":12438:12958   */\n      jump(tag_513)\n        /* \"#utility.yul\":12471:12608   */\n    tag_514:\n        /* \"#utility.yul\":12555:12559   */\n      0xff\n        /* \"#utility.yul\":12551:12560   */\n      not\n        /* \"#utility.yul\":12540:12549   */\n      dup4\n        /* \"#utility.yul\":12536:12561   */\n      and\n        /* \"#utility.yul\":12531:12534   */\n      dup7\n        /* \"#utility.yul\":12524:12562   */\n      mstore\n        /* \"#utility.yul\":12591:12597   */\n      dup2\n        /* \"#utility.yul\":12586:12589   */\n      dup7\n        /* \"#utility.yul\":12582:12598   */\n      add\n        /* \"#utility.yul\":12575:12598   */\n      swap4\n      pop\n        /* \"#utility.yul\":12471:12608   */\n      jump(tag_513)\n        /* \"#utility.yul\":12617:12958   */\n    tag_515:\n        /* \"#utility.yul\":12684:12722   */\n      tag_516\n        /* \"#utility.yul\":12716:12721   */\n      dup6\n        /* \"#utility.yul\":12684:12722   */\n      tag_517\n      jump\t// in\n    tag_516:\n        /* \"#utility.yul\":12744:12745   */\n      0x00\n        /* \"#utility.yul\":12758:12912   */\n    tag_518:\n        /* \"#utility.yul\":12772:12778   */\n      dup4\n        /* \"#utility.yul\":12769:12770   */\n      dup2\n        /* \"#utility.yul\":12766:12779   */\n      lt\n        /* \"#utility.yul\":12758:12912   */\n      iszero\n      tag_520\n      jumpi\n        /* \"#utility.yul\":12846:12853   */\n      dup2\n        /* \"#utility.yul\":12840:12854   */\n      sload\n        /* \"#utility.yul\":12836:12837   */\n      dup2\n        /* \"#utility.yul\":12831:12834   */\n      dup10\n        /* \"#utility.yul\":12827:12838   */\n      add\n        /* \"#utility.yul\":12820:12855   */\n      mstore\n        /* \"#utility.yul\":12896:12897   */\n      0x01\n        /* \"#utility.yul\":12887:12894   */\n      dup3\n        /* \"#utility.yul\":12883:12898   */\n      add\n        /* \"#utility.yul\":12872:12898   */\n      swap2\n      pop\n        /* \"#utility.yul\":12794:12798   */\n      0x20\n        /* \"#utility.yul\":12791:12792   */\n      dup2\n        /* \"#utility.yul\":12787:12799   */\n      add\n        /* \"#utility.yul\":12782:12799   */\n      swap1\n      pop\n        /* \"#utility.yul\":12758:12912   */\n      jump(tag_518)\n    tag_520:\n        /* \"#utility.yul\":12941:12947   */\n      dup4\n        /* \"#utility.yul\":12936:12939   */\n      dup9\n        /* \"#utility.yul\":12932:12948   */\n      add\n        /* \"#utility.yul\":12925:12948   */\n      swap6\n      pop\n        /* \"#utility.yul\":12624:12958   */\n      pop\n      pop\n        /* \"#utility.yul\":12438:12958   */\n    tag_513:\n      pop\n        /* \"#utility.yul\":12226:12964   */\n      pop\n      pop\n        /* \"#utility.yul\":12119:12964   */\n      swap3\n      swap2\n      pop\n      pop\n      jump\t// out\n        /* \"#utility.yul\":12970:13336   */\n    tag_521:\n        /* \"#utility.yul\":13112:13115   */\n      0x00\n        /* \"#utility.yul\":13133:13200   */\n      tag_523\n        /* \"#utility.yul\":13197:13199   */\n      0x15\n        /* \"#utility.yul\":13192:13195   */\n      dup4\n        /* \"#utility.yul\":13133:13200   */\n      tag_500\n      jump\t// in\n    tag_523:\n        /* \"#utility.yul\":13126:13200   */\n      swap2\n      pop\n        /* \"#utility.yul\":13209:13302   */\n      tag_524\n        /* \"#utility.yul\":13298:13301   */\n      dup3\n        /* \"#utility.yul\":13209:13302   */\n      tag_525\n      jump\t// in\n    tag_524:\n        /* \"#utility.yul\":13327:13329   */\n      0x20\n        /* \"#utility.yul\":13322:13325   */\n      dup3\n        /* \"#utility.yul\":13318:13330   */\n      add\n        /* \"#utility.yul\":13311:13330   */\n      swap1\n      pop\n        /* \"#utility.yul\":12970:13336   */\n      swap2\n      swap1\n      pop\n      jump\t// out\n        /* \"#utility.yul\":13342:13707   */\n    tag_526:\n        /* \"#utility.yul\":13484:13487   */\n      0x00\n        /* \"#utility.yul\":13505:13571   */\n      tag_528\n        /* \"#utility.yul\":13569:13570   */\n      0x09\n        /* \"#utility.yul\":13564:13567   */\n      dup4\n        /* \"#utility.yul\":13505:13571   */\n      tag_500\n      jump\t// in\n    tag_528:\n        /* \"#utility.yul\":13498:13571   */\n      swap2\n      pop\n        /* \"#utility.yul\":13580:13673   */\n      tag_529\n        /* \"#utility.yul\":13669:13672   */\n      dup3\n        /* \"#utility.yul\":13580:13673   */\n      tag_530\n      jump\t// in\n    tag_529:\n        /* \"#utility.yul\":13698:13700   */\n      0x20\n        /* \"#utility.yul\":13693:13696   */\n      dup3\n        /* \"#utility.yul\":13689:13701   */\n      add\n        /* \"#utility.yul\":13682:13701   */\n      swap1\n      pop\n        /* \"#utility.yul\":13342:13707   */\n      swap2\n      swap1\n      pop\n      jump\t// out\n        /* \"#utility.yul\":13713:14079   */\n    tag_531:\n        /* \"#utility.yul\":13855:13858   */\n      0x00\n        /* \"#utility.yul\":13876:13943   */\n      tag_533\n        /* \"#utility.yul\":13940:13942   */\n      0x1c\n        /* \"#utility.yul\":13935:13938   */\n      dup4\n        /* \"#utility.yul\":13876:13943   */\n      tag_500\n      jump\t// in\n    tag_533:\n        /* \"#utility.yul\":13869:13943   */\n      swap2\n      pop\n        /* \"#utility.yul\":13952:14045   */\n      tag_534\n        /* \"#utility.yul\":14041:14044   */\n      dup3\n        /* \"#utility.yul\":13952:14045   */\n      tag_535\n      jump\t// in\n    tag_534:\n        /* \"#utility.yul\":14070:14072   */\n      0x20\n        /* \"#utility.yul\":14065:14068   */\n      dup3\n        /* \"#utility.yul\":14061:14073   */\n      add\n        /* \"#utility.yul\":14054:14073   */\n      swap1\n      pop\n        /* \"#utility.yul\":13713:14079   */\n      swap2\n      swap1\n      pop\n      jump\t// out\n        /* \"#utility.yul\":14085:14451   */\n    tag_536:\n        /* \"#utility.yul\":14227:14230   */\n      0x00\n        /* \"#utility.yul\":14248:14315   */\n      tag_538\n        /* \"#utility.yul\":14312:14314   */\n      0x1e\n        /* \"#utility.yul\":14307:14310   */\n      dup4\n        /* \"#utility.yul\":14248:14315   */\n      tag_500\n      jump\t// in\n    tag_538:\n        /* \"#utility.yul\":14241:14315   */\n      swap2\n      pop\n        /* \"#utility.yul\":14324:14417   */\n      tag_539\n        /* \"#utility.yul\":14413:14416   */\n      dup3\n        /* \"#utility.yul\":14324:14417   */\n      tag_540\n      jump\t// in\n    tag_539:\n        /* \"#utility.yul\":14442:14444   */\n      0x20\n        /* \"#utility.yul\":14437:14440   */\n      dup3\n        /* \"#utility.yul\":14433:14445   */\n      add\n        /* \"#utility.yul\":14426:14445   */\n      swap1\n      pop\n        /* \"#utility.yul\":14085:14451   */\n      swap2\n      swap1\n      pop\n      jump\t// out\n        /* \"#utility.yul\":14457:14823   */\n    tag_541:\n        /* \"#utility.yul\":14599:14602   */\n      0x00\n        /* \"#utility.yul\":14620:14687   */\n      tag_543\n        /* \"#utility.yul\":14684:14686   */\n      0x1e\n        /* \"#utility.yul\":14679:14682   */\n      dup4\n        /* \"#utility.yul\":14620:14687   */\n      tag_500\n      jump\t// in\n    tag_543:\n        /* \"#utility.yul\":14613:14687   */\n      swap2\n      pop\n        /* \"#utility.yul\":14696:14789   */\n      tag_544\n        /* \"#utility.yul\":14785:14788   */\n      dup3\n        /* \"#utility.yul\":14696:14789   */\n      tag_545\n      jump\t// in\n    tag_544:\n        /* \"#utility.yul\":14814:14816   */\n      0x20\n        /* \"#utility.yul\":14809:14812   */\n      dup3\n        /* \"#utility.yul\":14805:14817   */\n      add\n        /* \"#utility.yul\":14798:14817   */\n      swap1\n      pop\n        /* \"#utility.yul\":14457:14823   */\n      swap2\n      swap1\n      pop\n      jump\t// out\n        /* \"#utility.yul\":14887:16821   */\n    tag_439:\n        /* \"#utility.yul\":14988:14991   */\n      0x00\n        /* \"#utility.yul\":15024:15030   */\n      0x0120\n        /* \"#utility.yul\":15019:15022   */\n      dup4\n        /* \"#utility.yul\":15015:15031   */\n      add\n        /* \"#utility.yul\":15111:15115   */\n      0x00\n        /* \"#utility.yul\":15104:15109   */\n      dup4\n        /* \"#utility.yul\":15100:15116   */\n      add\n        /* \"#utility.yul\":15094:15117   */\n      mload\n        /* \"#utility.yul\":15130:15193   */\n      tag_547\n        /* \"#utility.yul\":15187:15191   */\n      0x00\n        /* \"#utility.yul\":15182:15185   */\n      dup7\n        /* \"#utility.yul\":15178:15192   */\n      add\n        /* \"#utility.yul\":15164:15176   */\n      dup3\n        /* \"#utility.yul\":15130:15193   */\n      tag_548\n      jump\t// in\n    tag_547:\n        /* \"#utility.yul\":15041:15203   */\n      pop\n        /* \"#utility.yul\":15289:15293   */\n      0x20\n        /* \"#utility.yul\":15282:15287   */\n      dup4\n        /* \"#utility.yul\":15278:15294   */\n      add\n        /* \"#utility.yul\":15272:15295   */\n      mload\n        /* \"#utility.yul\":15342:15345   */\n      dup5\n        /* \"#utility.yul\":15336:15340   */\n      dup3\n        /* \"#utility.yul\":15332:15346   */\n      sub\n        /* \"#utility.yul\":15325:15329   */\n      0x20\n        /* \"#utility.yul\":15320:15323   */\n      dup7\n        /* \"#utility.yul\":15316:15330   */\n      add\n        /* \"#utility.yul\":15309:15347   */\n      mstore\n        /* \"#utility.yul\":15368:15441   */\n      tag_549\n        /* \"#utility.yul\":15436:15440   */\n      dup3\n        /* \"#utility.yul\":15422:15434   */\n      dup3\n        /* \"#utility.yul\":15368:15441   */\n      tag_435\n      jump\t// in\n    tag_549:\n        /* \"#utility.yul\":15360:15441   */\n      swap2\n      pop\n        /* \"#utility.yul\":15213:15452   */\n      pop\n        /* \"#utility.yul\":15536:15540   */\n      0x40\n        /* \"#utility.yul\":15529:15534   */\n      dup4\n        /* \"#utility.yul\":15525:15541   */\n      add\n        /* \"#utility.yul\":15519:15542   */\n      mload\n        /* \"#utility.yul\":15589:15592   */\n      dup5\n        /* \"#utility.yul\":15583:15587   */\n      dup3\n        /* \"#utility.yul\":15579:15593   */\n      sub\n        /* \"#utility.yul\":15572:15576   */\n      0x40\n        /* \"#utility.yul\":15567:15570   */\n      dup7\n        /* \"#utility.yul\":15563:15577   */\n      add\n        /* \"#utility.yul\":15556:15594   */\n      mstore\n        /* \"#utility.yul\":15615:15688   */\n      tag_550\n        /* \"#utility.yul\":15683:15687   */\n      dup3\n        /* \"#utility.yul\":15669:15681   */\n      dup3\n        /* \"#utility.yul\":15615:15688   */\n      tag_435\n      jump\t// in\n    tag_550:\n        /* \"#utility.yul\":15607:15688   */\n      swap2\n      pop\n        /* \"#utility.yul\":15462:15699   */\n      pop\n        /* \"#utility.yul\":15786:15790   */\n      0x60\n        /* \"#utility.yul\":15779:15784   */\n      dup4\n        /* \"#utility.yul\":15775:15791   */\n      add\n        /* \"#utility.yul\":15769:15792   */\n      mload\n        /* \"#utility.yul\":15805:15868   */\n      tag_551\n        /* \"#utility.yul\":15862:15866   */\n      0x60\n        /* \"#utility.yul\":15857:15860   */\n      dup7\n        /* \"#utility.yul\":15853:15867   */\n      add\n        /* \"#utility.yul\":15839:15851   */\n      dup3\n        /* \"#utility.yul\":15805:15868   */\n      tag_548\n      jump\t// in\n    tag_551:\n        /* \"#utility.yul\":15709:15878   */\n      pop\n        /* \"#utility.yul\":15971:15975   */\n      0x80\n        /* \"#utility.yul\":15964:15969   */\n      dup4\n        /* \"#utility.yul\":15960:15976   */\n      add\n        /* \"#utility.yul\":15954:15977   */\n      mload\n        /* \"#utility.yul\":15990:16053   */\n      tag_552\n        /* \"#utility.yul\":16047:16051   */\n      0x80\n        /* \"#utility.yul\":16042:16045   */\n      dup7\n        /* \"#utility.yul\":16038:16052   */\n      add\n        /* \"#utility.yul\":16024:16036   */\n      dup3\n        /* \"#utility.yul\":15990:16053   */\n      tag_548\n      jump\t// in\n    tag_552:\n        /* \"#utility.yul\":15888:16063   */\n      pop\n        /* \"#utility.yul\":16157:16161   */\n      0xa0\n        /* \"#utility.yul\":16150:16155   */\n      dup4\n        /* \"#utility.yul\":16146:16162   */\n      add\n        /* \"#utility.yul\":16140:16163   */\n      mload\n        /* \"#utility.yul\":16176:16239   */\n      tag_553\n        /* \"#utility.yul\":16233:16237   */\n      0xa0\n        /* \"#utility.yul\":16228:16231   */\n      dup7\n        /* \"#utility.yul\":16224:16238   */\n      add\n        /* \"#utility.yul\":16210:16222   */\n      dup3\n        /* \"#utility.yul\":16176:16239   */\n      tag_548\n      jump\t// in\n    tag_553:\n        /* \"#utility.yul\":16073:16249   */\n      pop\n        /* \"#utility.yul\":16341:16345   */\n      0xc0\n        /* \"#utility.yul\":16334:16339   */\n      dup4\n        /* \"#utility.yul\":16330:16346   */\n      add\n        /* \"#utility.yul\":16324:16347   */\n      mload\n        /* \"#utility.yul\":16360:16423   */\n      tag_554\n        /* \"#utility.yul\":16417:16421   */\n      0xc0\n        /* \"#utility.yul\":16412:16415   */\n      dup7\n        /* \"#utility.yul\":16408:16422   */\n      add\n        /* \"#utility.yul\":16394:16406   */\n      dup3\n        /* \"#utility.yul\":16360:16423   */\n      tag_548\n      jump\t// in\n    tag_554:\n        /* \"#utility.yul\":16259:16433   */\n      pop\n        /* \"#utility.yul\":16523:16527   */\n      0xe0\n        /* \"#utility.yul\":16516:16521   */\n      dup4\n        /* \"#utility.yul\":16512:16528   */\n      add\n        /* \"#utility.yul\":16506:16529   */\n      mload\n        /* \"#utility.yul\":16542:16605   */\n      tag_555\n        /* \"#utility.yul\":16599:16603   */\n      0xe0\n        /* \"#utility.yul\":16594:16597   */\n      dup7\n        /* \"#utility.yul\":16590:16604   */\n      add\n        /* \"#utility.yul\":16576:16588   */\n      dup3\n        /* \"#utility.yul\":16542:16605   */\n      tag_548\n      jump\t// in\n    tag_555:\n        /* \"#utility.yul\":16443:16615   */\n      pop\n        /* \"#utility.yul\":16698:16704   */\n      0x0100\n        /* \"#utility.yul\":16691:16696   */\n      dup4\n        /* \"#utility.yul\":16687:16705   */\n      add\n        /* \"#utility.yul\":16681:16706   */\n      mload\n        /* \"#utility.yul\":16719:16784   */\n      tag_556\n        /* \"#utility.yul\":16776:16782   */\n      0x0100\n        /* \"#utility.yul\":16771:16774   */\n      dup7\n        /* \"#utility.yul\":16767:16783   */\n      add\n        /* \"#utility.yul\":16753:16765   */\n      dup3\n        /* \"#utility.yul\":16719:16784   */\n      tag_440\n      jump\t// in\n    tag_556:\n        /* \"#utility.yul\":16625:16794   */\n      pop\n        /* \"#utility.yul\":16811:16815   */\n      dup1\n        /* \"#utility.yul\":16804:16815   */\n      swap2\n      pop\n        /* \"#utility.yul\":14993:16821   */\n      pop\n        /* \"#utility.yul\":14887:16821   */\n      swap3\n      swap2\n      pop\n      pop\n      jump\t// out\n        /* \"#utility.yul\":16827:16935   */\n    tag_548:\n        /* \"#utility.yul\":16904:16928   */\n      tag_558\n        /* \"#utility.yul\":16922:16927   */\n      dup2\n        /* \"#utility.yul\":16904:16928   */\n      tag_559\n      jump\t// in\n    tag_558:\n        /* \"#utility.yul\":16899:16902   */\n      dup3\n        /* \"#utility.yul\":16892:16929   */\n      mstore\n        /* \"#utility.yul\":16827:16935   */\n      pop\n      pop\n      jump\t// out\n        /* \"#utility.yul\":16941:17059   */\n    tag_560:\n        /* \"#utility.yul\":17028:17052   */\n      tag_562\n        /* \"#utility.yul\":17046:17051   */\n      dup2\n        /* \"#utility.yul\":17028:17052   */\n      tag_559\n      jump\t// in\n    tag_562:\n        /* \"#utility.yul\":17023:17026   */\n      dup3\n        /* \"#utility.yul\":17016:17053   */\n      mstore\n        /* \"#utility.yul\":16941:17059   */\n      pop\n      pop\n      jump\t// out\n        /* \"#utility.yul\":17065:17340   */\n    tag_110:\n        /* \"#utility.yul\":17197:17200   */\n      0x00\n        /* \"#utility.yul\":17219:17314   */\n      tag_564\n        /* \"#utility.yul\":17310:17313   */\n      dup3\n        /* \"#utility.yul\":17301:17307   */\n      dup5\n        /* \"#utility.yul\":17219:17314   */\n      tag_503\n      jump\t// in\n    tag_564:\n        /* \"#utility.yul\":17212:17314   */\n      swap2\n      pop\n        /* \"#utility.yul\":17331:17334   */\n      dup2\n        /* \"#utility.yul\":17324:17334   */\n      swap1\n      pop\n        /* \"#utility.yul\":17065:17340   */\n      swap3\n      swap2\n      pop\n      pop\n      jump\t// out\n        /* \"#utility.yul\":17346:17615   */\n    tag_264:\n        /* \"#utility.yul\":17475:17478   */\n      0x00\n        /* \"#utility.yul\":17497:17589   */\n      tag_566\n        /* \"#utility.yul\":17585:17588   */\n      dup3\n        /* \"#utility.yul\":17576:17582   */\n      dup5\n        /* \"#utility.yul\":17497:17589   */\n      tag_509\n      jump\t// in\n    tag_566:\n        /* \"#utility.yul\":17490:17589   */\n      swap2\n      pop\n        /* \"#utility.yul\":17606:17609   */\n      dup2\n        /* \"#utility.yul\":17599:17609   */\n      swap1\n      pop\n        /* \"#utility.yul\":17346:17615   */\n      swap3\n      swap2\n      pop\n      pop\n      jump\t// out\n        /* \"#utility.yul\":17621:18034   */\n    tag_74:\n        /* \"#utility.yul\":17784:17788   */\n      0x00\n        /* \"#utility.yul\":17822:17824   */\n      0x20\n        /* \"#utility.yul\":17811:17820   */\n      dup3\n        /* \"#utility.yul\":17807:17825   */\n      add\n        /* \"#utility.yul\":17799:17825   */\n      swap1\n      pop\n        /* \"#utility.yul\":17871:17880   */\n      dup2\n        /* \"#utility.yul\":17865:17869   */\n      dup2\n        /* \"#utility.yul\":17861:17881   */\n      sub\n        /* \"#utility.yul\":17857:17858   */\n      0x00\n        /* \"#utility.yul\":17846:17855   */\n      dup4\n        /* \"#utility.yul\":17842:17859   */\n      add\n        /* \"#utility.yul\":17835:17882   */\n      mstore\n        /* \"#utility.yul\":17899:18027   */\n      tag_568\n        /* \"#utility.yul\":18022:18026   */\n      dup2\n        /* \"#utility.yul\":18013:18019   */\n      dup5\n        /* \"#utility.yul\":17899:18027   */\n      tag_447\n      jump\t// in\n    tag_568:\n        /* \"#utility.yul\":17891:18027   */\n      swap1\n      pop\n        /* \"#utility.yul\":17621:18034   */\n      swap3\n      swap2\n      pop\n      pop\n      jump\t// out\n        /* \"#utility.yul\":18040:18497   */\n    tag_62:\n        /* \"#utility.yul\":18225:18229   */\n      0x00\n        /* \"#utility.yul\":18263:18265   */\n      0x20\n        /* \"#utility.yul\":18252:18261   */\n      dup3\n        /* \"#utility.yul\":18248:18266   */\n      add\n        /* \"#utility.yul\":18240:18266   */\n      swap1\n      pop\n        /* \"#utility.yul\":18312:18321   */\n      dup2\n        /* \"#utility.yul\":18306:18310   */\n      dup2\n        /* \"#utility.yul\":18302:18322   */\n      sub\n        /* \"#utility.yul\":18298:18299   */\n      0x00\n        /* \"#utility.yul\":18287:18296   */\n      dup4\n        /* \"#utility.yul\":18283:18300   */\n      add\n        /* \"#utility.yul\":18276:18323   */\n      mstore\n        /* \"#utility.yul\":18340:18490   */\n      tag_570\n        /* \"#utility.yul\":18485:18489   */\n      dup2\n        /* \"#utility.yul\":18476:18482   */\n      dup5\n        /* \"#utility.yul\":18340:18490   */\n      tag_461\n      jump\t// in\n    tag_570:\n        /* \"#utility.yul\":18332:18490   */\n      swap1\n      pop\n        /* \"#utility.yul\":18040:18497   */\n      swap3\n      swap2\n      pop\n      pop\n      jump\t// out\n        /* \"#utility.yul\":18503:18739   */\n    tag_32:\n        /* \"#utility.yul\":18603:18607   */\n      0x00\n        /* \"#utility.yul\":18641:18643   */\n      0x20\n        /* \"#utility.yul\":18630:18639   */\n      dup3\n        /* \"#utility.yul\":18626:18644   */\n      add\n        /* \"#utility.yul\":18618:18644   */\n      swap1\n      pop\n        /* \"#utility.yul\":18654:18732   */\n      tag_572\n        /* \"#utility.yul\":18729:18730   */\n      0x00\n        /* \"#utility.yul\":18718:18727   */\n      dup4\n        /* \"#utility.yul\":18714:18731   */\n      add\n        /* \"#utility.yul\":18705:18711   */\n      dup5\n        /* \"#utility.yul\":18654:18732   */\n      tag_475\n      jump\t// in\n    tag_572:\n        /* \"#utility.yul\":18503:18739   */\n      swap3\n      swap2\n      pop\n      pop\n      jump\t// out\n        /* \"#utility.yul\":18745:19058   */\n    tag_38:\n        /* \"#utility.yul\":18858:18862   */\n      0x00\n        /* \"#utility.yul\":18896:18898   */\n      0x20\n        /* \"#utility.yul\":18885:18894   */\n      dup3\n        /* \"#utility.yul\":18881:18899   */\n      add\n        /* \"#utility.yul\":18873:18899   */\n      swap1\n      pop\n        /* \"#utility.yul\":18945:18954   */\n      dup2\n        /* \"#utility.yul\":18939:18943   */\n      dup2\n        /* \"#utility.yul\":18935:18955   */\n      sub\n        /* \"#utility.yul\":18931:18932   */\n      0x00\n        /* \"#utility.yul\":18920:18929   */\n      dup4\n        /* \"#utility.yul\":18916:18933   */\n      add\n        /* \"#utility.yul\":18909:18956   */\n      mstore\n        /* \"#utility.yul\":18973:19051   */\n      tag_574\n        /* \"#utility.yul\":19046:19050   */\n      dup2\n        /* \"#utility.yul\":19037:19043   */\n      dup5\n        /* \"#utility.yul\":18973:19051   */\n      tag_496\n      jump\t// in\n    tag_574:\n        /* \"#utility.yul\":18965:19051   */\n      swap1\n      pop\n        /* \"#utility.yul\":18745:19058   */\n      swap3\n      swap2\n      pop\n      pop\n      jump\t// out\n        /* \"#utility.yul\":19064:19700   */\n    tag_247:\n        /* \"#utility.yul\":19257:19261   */\n      0x00\n        /* \"#utility.yul\":19295:19298   */\n      0x80\n        /* \"#utility.yul\":19284:19293   */\n      dup3\n        /* \"#utility.yul\":19280:19299   */\n      add\n        /* \"#utility.yul\":19272:19299   */\n      swap1\n      pop\n        /* \"#utility.yul\":19345:19354   */\n      dup2\n        /* \"#utility.yul\":19339:19343   */\n      dup2\n        /* \"#utility.yul\":19335:19355   */\n      sub\n        /* \"#utility.yul\":19331:19332   */\n      0x00\n        /* \"#utility.yul\":19320:19329   */\n      dup4\n        /* \"#utility.yul\":19316:19333   */\n      add\n        /* \"#utility.yul\":19309:19356   */\n      mstore\n        /* \"#utility.yul\":19373:19451   */\n      tag_576\n        /* \"#utility.yul\":19446:19450   */\n      dup2\n        /* \"#utility.yul\":19437:19443   */\n      dup8\n        /* \"#utility.yul\":19373:19451   */\n      tag_496\n      jump\t// in\n    tag_576:\n        /* \"#utility.yul\":19365:19451   */\n      swap1\n      pop\n        /* \"#utility.yul\":19461:19531   */\n      tag_577\n        /* \"#utility.yul\":19527:19529   */\n      0x20\n        /* \"#utility.yul\":19516:19525   */\n      dup4\n        /* \"#utility.yul\":19512:19530   */\n      add\n        /* \"#utility.yul\":19503:19509   */\n      dup7\n        /* \"#utility.yul\":19461:19531   */\n      tag_479\n      jump\t// in\n    tag_577:\n        /* \"#utility.yul\":19541:19611   */\n      tag_578\n        /* \"#utility.yul\":19607:19609   */\n      0x40\n        /* \"#utility.yul\":19596:19605   */\n      dup4\n        /* \"#utility.yul\":19592:19610   */\n      add\n        /* \"#utility.yul\":19583:19589   */\n      dup6\n        /* \"#utility.yul\":19541:19611   */\n      tag_479\n      jump\t// in\n    tag_578:\n        /* \"#utility.yul\":19621:19693   */\n      tag_579\n        /* \"#utility.yul\":19689:19691   */\n      0x60\n        /* \"#utility.yul\":19678:19687   */\n      dup4\n        /* \"#utility.yul\":19674:19692   */\n      add\n        /* \"#utility.yul\":19665:19671   */\n      dup5\n        /* \"#utility.yul\":19621:19693   */\n      tag_560\n      jump\t// in\n    tag_579:\n        /* \"#utility.yul\":19064:19700   */\n      swap6\n      swap5\n      pop\n      pop\n      pop\n      pop\n      pop\n      jump\t// out\n        /* \"#utility.yul\":19706:20360   */\n    tag_210:\n        /* \"#utility.yul\":19908:19912   */\n      0x00\n        /* \"#utility.yul\":19946:19949   */\n      0x80\n        /* \"#utility.yul\":19935:19944   */\n      dup3\n        /* \"#utility.yul\":19931:19950   */\n      add\n        /* \"#utility.yul\":19923:19950   */\n      swap1\n      pop\n        /* \"#utility.yul\":19996:20005   */\n      dup2\n        /* \"#utility.yul\":19990:19994   */\n      dup2\n        /* \"#utility.yul\":19986:20006   */\n      sub\n        /* \"#utility.yul\":19982:19983   */\n      0x00\n        /* \"#utility.yul\":19971:19980   */\n      dup4\n        /* \"#utility.yul\":19967:19984   */\n      add\n        /* \"#utility.yul\":19960:20007   */\n      mstore\n        /* \"#utility.yul\":20024:20102   */\n      tag_581\n        /* \"#utility.yul\":20097:20101   */\n      dup2\n        /* \"#utility.yul\":20088:20094   */\n      dup8\n        /* \"#utility.yul\":20024:20102   */\n      tag_496\n      jump\t// in\n    tag_581:\n        /* \"#utility.yul\":20016:20102   */\n      swap1\n      pop\n        /* \"#utility.yul\":20112:20182   */\n      tag_582\n        /* \"#utility.yul\":20178:20180   */\n      0x20\n        /* \"#utility.yul\":20167:20176   */\n      dup4\n        /* \"#utility.yul\":20163:20181   */\n      add\n        /* \"#utility.yul\":20154:20160   */\n      dup7\n        /* \"#utility.yul\":20112:20182   */\n      tag_479\n      jump\t// in\n    tag_582:\n        /* \"#utility.yul\":20192:20271   */\n      tag_583\n        /* \"#utility.yul\":20267:20269   */\n      0x40\n        /* \"#utility.yul\":20256:20265   */\n      dup4\n        /* \"#utility.yul\":20252:20270   */\n      add\n        /* \"#utility.yul\":20243:20249   */\n      dup6\n        /* \"#utility.yul\":20192:20271   */\n      tag_483\n      jump\t// in\n    tag_583:\n        /* \"#utility.yul\":20281:20353   */\n      tag_584\n        /* \"#utility.yul\":20349:20351   */\n      0x60\n        /* \"#utility.yul\":20338:20347   */\n      dup4\n        /* \"#utility.yul\":20334:20352   */\n      add\n        /* \"#utility.yul\":20325:20331   */\n      dup5\n        /* \"#utility.yul\":20281:20353   */\n      tag_560\n      jump\t// in\n    tag_584:\n        /* \"#utility.yul\":19706:20360   */\n      swap6\n      swap5\n      pop\n      pop\n      pop\n      pop\n      pop\n      jump\t// out\n        /* \"#utility.yul\":20366:20986   */\n    tag_189:\n        /* \"#utility.yul\":20580:20584   */\n      0x00\n        /* \"#utility.yul\":20618:20620   */\n      0x40\n        /* \"#utility.yul\":20607:20616   */\n      dup3\n        /* \"#utility.yul\":20603:20621   */\n      add\n        /* \"#utility.yul\":20595:20621   */\n      swap1\n      pop\n        /* \"#utility.yul\":20667:20676   */\n      dup2\n        /* \"#utility.yul\":20661:20665   */\n      dup2\n        /* \"#utility.yul\":20657:20677   */\n      sub\n        /* \"#utility.yul\":20653:20654   */\n      0x00\n        /* \"#utility.yul\":20642:20651   */\n      dup4\n        /* \"#utility.yul\":20638:20655   */\n      add\n        /* \"#utility.yul\":20631:20678   */\n      mstore\n        /* \"#utility.yul\":20695:20773   */\n      tag_586\n        /* \"#utility.yul\":20768:20772   */\n      dup2\n        /* \"#utility.yul\":20759:20765   */\n      dup5\n        /* \"#utility.yul\":20695:20773   */\n      tag_496\n      jump\t// in\n    tag_586:\n        /* \"#utility.yul\":20687:20773   */\n      swap1\n      pop\n        /* \"#utility.yul\":20820:20829   */\n      dup2\n        /* \"#utility.yul\":20814:20818   */\n      dup2\n        /* \"#utility.yul\":20810:20830   */\n      sub\n        /* \"#utility.yul\":20805:20807   */\n      0x20\n        /* \"#utility.yul\":20794:20803   */\n      dup4\n        /* \"#utility.yul\":20790:20808   */\n      add\n        /* \"#utility.yul\":20783:20831   */\n      mstore\n        /* \"#utility.yul\":20848:20979   */\n      tag_587\n        /* \"#utility.yul\":20974:20978   */\n      dup2\n        /* \"#utility.yul\":20848:20979   */\n      tag_531\n      jump\t// in\n    tag_587:\n        /* \"#utility.yul\":20840:20979   */\n      swap1\n      pop\n        /* \"#utility.yul\":20366:20986   */\n      swap3\n      swap2\n      pop\n      pop\n      jump\t// out\n        /* \"#utility.yul\":20992:22166   */\n    tag_125:\n        /* \"#utility.yul\":21346:21350   */\n      0x00\n        /* \"#utility.yul\":21384:21387   */\n      0xe0\n        /* \"#utility.yul\":21373:21382   */\n      dup3\n        /* \"#utility.yul\":21369:21388   */\n      add\n        /* \"#utility.yul\":21361:21388   */\n      swap1\n      pop\n        /* \"#utility.yul\":21434:21443   */\n      dup2\n        /* \"#utility.yul\":21428:21432   */\n      dup2\n        /* \"#utility.yul\":21424:21444   */\n      sub\n        /* \"#utility.yul\":21420:21421   */\n      0x00\n        /* \"#utility.yul\":21409:21418   */\n      dup4\n        /* \"#utility.yul\":21405:21422   */\n      add\n        /* \"#utility.yul\":21398:21445   */\n      mstore\n        /* \"#utility.yul\":21462:21540   */\n      tag_589\n        /* \"#utility.yul\":21535:21539   */\n      dup2\n        /* \"#utility.yul\":21526:21532   */\n      dup10\n        /* \"#utility.yul\":21462:21540   */\n      tag_496\n      jump\t// in\n    tag_589:\n        /* \"#utility.yul\":21454:21540   */\n      swap1\n      pop\n        /* \"#utility.yul\":21550:21622   */\n      tag_590\n        /* \"#utility.yul\":21618:21620   */\n      0x20\n        /* \"#utility.yul\":21607:21616   */\n      dup4\n        /* \"#utility.yul\":21603:21621   */\n      add\n        /* \"#utility.yul\":21594:21600   */\n      dup9\n        /* \"#utility.yul\":21550:21622   */\n      tag_560\n      jump\t// in\n    tag_590:\n        /* \"#utility.yul\":21632:21704   */\n      tag_591\n        /* \"#utility.yul\":21700:21702   */\n      0x40\n        /* \"#utility.yul\":21689:21698   */\n      dup4\n        /* \"#utility.yul\":21685:21703   */\n      add\n        /* \"#utility.yul\":21676:21682   */\n      dup8\n        /* \"#utility.yul\":21632:21704   */\n      tag_560\n      jump\t// in\n    tag_591:\n        /* \"#utility.yul\":21714:21786   */\n      tag_592\n        /* \"#utility.yul\":21782:21784   */\n      0x60\n        /* \"#utility.yul\":21771:21780   */\n      dup4\n        /* \"#utility.yul\":21767:21785   */\n      add\n        /* \"#utility.yul\":21758:21764   */\n      dup7\n        /* \"#utility.yul\":21714:21786   */\n      tag_560\n      jump\t// in\n    tag_592:\n        /* \"#utility.yul\":21796:21869   */\n      tag_593\n        /* \"#utility.yul\":21864:21867   */\n      0x80\n        /* \"#utility.yul\":21853:21862   */\n      dup4\n        /* \"#utility.yul\":21849:21868   */\n      add\n        /* \"#utility.yul\":21840:21846   */\n      dup6\n        /* \"#utility.yul\":21796:21869   */\n      tag_560\n      jump\t// in\n    tag_593:\n        /* \"#utility.yul\":21879:21952   */\n      tag_594\n        /* \"#utility.yul\":21947:21950   */\n      0xa0\n        /* \"#utility.yul\":21936:21945   */\n      dup4\n        /* \"#utility.yul\":21932:21951   */\n      add\n        /* \"#utility.yul\":21923:21929   */\n      dup5\n        /* \"#utility.yul\":21879:21952   */\n      tag_444\n      jump\t// in\n    tag_594:\n        /* \"#utility.yul\":22000:22009   */\n      dup2\n        /* \"#utility.yul\":21994:21998   */\n      dup2\n        /* \"#utility.yul\":21990:22010   */\n      sub\n        /* \"#utility.yul\":21984:21987   */\n      0xc0\n        /* \"#utility.yul\":21973:21982   */\n      dup4\n        /* \"#utility.yul\":21969:21988   */\n      add\n        /* \"#utility.yul\":21962:22011   */\n      mstore\n        /* \"#utility.yul\":22028:22159   */\n      tag_595\n        /* \"#utility.yul\":22154:22158   */\n      dup2\n        /* \"#utility.yul\":22028:22159   */\n      tag_541\n      jump\t// in\n    tag_595:\n        /* \"#utility.yul\":22020:22159   */\n      swap1\n      pop\n        /* \"#utility.yul\":20992:22166   */\n      swap8\n      swap7\n      pop\n      pop\n      pop\n      pop\n      pop\n      pop\n      pop\n      jump\t// out\n        /* \"#utility.yul\":22172:23367   */\n    tag_28:\n        /* \"#utility.yul\":22507:22511   */\n      0x00\n        /* \"#utility.yul\":22545:22548   */\n      0x0120\n        /* \"#utility.yul\":22534:22543   */\n      dup3\n        /* \"#utility.yul\":22530:22549   */\n      add\n        /* \"#utility.yul\":22522:22549   */\n      swap1\n      pop\n        /* \"#utility.yul\":22595:22604   */\n      dup2\n        /* \"#utility.yul\":22589:22593   */\n      dup2\n        /* \"#utility.yul\":22585:22605   */\n      sub\n        /* \"#utility.yul\":22581:22582   */\n      0x00\n        /* \"#utility.yul\":22570:22579   */\n      dup4\n        /* \"#utility.yul\":22566:22583   */\n      add\n        /* \"#utility.yul\":22559:22606   */\n      mstore\n        /* \"#utility.yul\":22623:22701   */\n      tag_597\n        /* \"#utility.yul\":22696:22700   */\n      dup2\n        /* \"#utility.yul\":22687:22693   */\n      dup13\n        /* \"#utility.yul\":22623:22701   */\n      tag_496\n      jump\t// in\n    tag_597:\n        /* \"#utility.yul\":22615:22701   */\n      swap1\n      pop\n        /* \"#utility.yul\":22711:22783   */\n      tag_598\n        /* \"#utility.yul\":22779:22781   */\n      0x20\n        /* \"#utility.yul\":22768:22777   */\n      dup4\n        /* \"#utility.yul\":22764:22782   */\n      add\n        /* \"#utility.yul\":22755:22761   */\n      dup12\n        /* \"#utility.yul\":22711:22783   */\n      tag_560\n      jump\t// in\n    tag_598:\n        /* \"#utility.yul\":22793:22865   */\n      tag_599\n        /* \"#utility.yul\":22861:22863   */\n      0x40\n        /* \"#utility.yul\":22850:22859   */\n      dup4\n        /* \"#utility.yul\":22846:22864   */\n      add\n        /* \"#utility.yul\":22837:22843   */\n      dup11\n        /* \"#utility.yul\":22793:22865   */\n      tag_560\n      jump\t// in\n    tag_599:\n        /* \"#utility.yul\":22875:22947   */\n      tag_600\n        /* \"#utility.yul\":22943:22945   */\n      0x60\n        /* \"#utility.yul\":22932:22941   */\n      dup4\n        /* \"#utility.yul\":22928:22946   */\n      add\n        /* \"#utility.yul\":22919:22925   */\n      dup10\n        /* \"#utility.yul\":22875:22947   */\n      tag_560\n      jump\t// in\n    tag_600:\n        /* \"#utility.yul\":22957:23030   */\n      tag_601\n        /* \"#utility.yul\":23025:23028   */\n      0x80\n        /* \"#utility.yul\":23014:23023   */\n      dup4\n        /* \"#utility.yul\":23010:23029   */\n      add\n        /* \"#utility.yul\":23001:23007   */\n      dup9\n        /* \"#utility.yul\":22957:23030   */\n      tag_560\n      jump\t// in\n    tag_601:\n        /* \"#utility.yul\":23040:23111   */\n      tag_602\n        /* \"#utility.yul\":23106:23109   */\n      0xa0\n        /* \"#utility.yul\":23095:23104   */\n      dup4\n        /* \"#utility.yul\":23091:23110   */\n      add\n        /* \"#utility.yul\":23082:23088   */\n      dup8\n        /* \"#utility.yul\":23040:23111   */\n      tag_479\n      jump\t// in\n    tag_602:\n        /* \"#utility.yul\":23121:23194   */\n      tag_603\n        /* \"#utility.yul\":23189:23192   */\n      0xc0\n        /* \"#utility.yul\":23178:23187   */\n      dup4\n        /* \"#utility.yul\":23174:23193   */\n      add\n        /* \"#utility.yul\":23165:23171   */\n      dup7\n        /* \"#utility.yul\":23121:23194   */\n      tag_560\n      jump\t// in\n    tag_603:\n        /* \"#utility.yul\":23204:23277   */\n      tag_604\n        /* \"#utility.yul\":23272:23275   */\n      0xe0\n        /* \"#utility.yul\":23261:23270   */\n      dup4\n        /* \"#utility.yul\":23257:23276   */\n      add\n        /* \"#utility.yul\":23248:23254   */\n      dup6\n        /* \"#utility.yul\":23204:23277   */\n      tag_560\n      jump\t// in\n    tag_604:\n        /* \"#utility.yul\":23287:23360   */\n      tag_605\n        /* \"#utility.yul\":23355:23358   */\n      0x0100\n        /* \"#utility.yul\":23344:23353   */\n      dup4\n        /* \"#utility.yul\":23340:23359   */\n      add\n        /* \"#utility.yul\":23331:23337   */\n      dup5\n        /* \"#utility.yul\":23287:23360   */\n      tag_444\n      jump\t// in\n    tag_605:\n        /* \"#utility.yul\":22172:23367   */\n      swap11\n      swap10\n      pop\n      pop\n      pop\n      pop\n      pop\n      pop\n      pop\n      pop\n      pop\n      pop\n      jump\t// out\n        /* \"#utility.yul\":23373:23792   */\n    tag_268:\n        /* \"#utility.yul\":23539:23543   */\n      0x00\n        /* \"#utility.yul\":23577:23579   */\n      0x20\n        /* \"#utility.yul\":23566:23575   */\n      dup3\n        /* \"#utility.yul\":23562:23580   */\n      add\n        /* \"#utility.yul\":23554:23580   */\n      swap1\n      pop\n        /* \"#utility.yul\":23626:23635   */\n      dup2\n        /* \"#utility.yul\":23620:23624   */\n      dup2\n        /* \"#utility.yul\":23616:23636   */\n      sub\n        /* \"#utility.yul\":23612:23613   */\n      0x00\n        /* \"#utility.yul\":23601:23610   */\n      dup4\n        /* \"#utility.yul\":23597:23614   */\n      add\n        /* \"#utility.yul\":23590:23637   */\n      mstore\n        /* \"#utility.yul\":23654:23785   */\n      tag_607\n        /* \"#utility.yul\":23780:23784   */\n      dup2\n        /* \"#utility.yul\":23654:23785   */\n      tag_526\n      jump\t// in\n    tag_607:\n        /* \"#utility.yul\":23646:23785   */\n      swap1\n      pop\n        /* \"#utility.yul\":23373:23792   */\n      swap2\n      swap1\n      pop\n      jump\t// out\n        /* \"#utility.yul\":23798:24217   */\n    tag_204:\n        /* \"#utility.yul\":23964:23968   */\n      0x00\n        /* \"#utility.yul\":24002:24004   */\n      0x20\n        /* \"#utility.yul\":23991:24000   */\n      dup3\n        /* \"#utility.yul\":23987:24005   */\n      add\n        /* \"#utility.yul\":23979:24005   */\n      swap1\n      pop\n        /* \"#utility.yul\":24051:24060   */\n      dup2\n        /* \"#utility.yul\":24045:24049   */\n      dup2\n        /* \"#utility.yul\":24041:24061   */\n      sub\n        /* \"#utility.yul\":24037:24038   */\n      0x00\n        /* \"#utility.yul\":24026:24035   */\n      dup4\n        /* \"#utility.yul\":24022:24039   */\n      add\n        /* \"#utility.yul\":24015:24062   */\n      mstore\n        /* \"#utility.yul\":24079:24210   */\n      tag_609\n        /* \"#utility.yul\":24205:24209   */\n      dup2\n        /* \"#utility.yul\":24079:24210   */\n      tag_536\n      jump\t// in\n    tag_609:\n        /* \"#utility.yul\":24071:24210   */\n      swap1\n      pop\n        /* \"#utility.yul\":23798:24217   */\n      swap2\n      swap1\n      pop\n      jump\t// out\n        /* \"#utility.yul\":24223:24445   */\n    tag_52:\n        /* \"#utility.yul\":24316:24320   */\n      0x00\n        /* \"#utility.yul\":24354:24356   */\n      0x20\n        /* \"#utility.yul\":24343:24352   */\n      dup3\n        /* \"#utility.yul\":24339:24357   */\n      add\n        /* \"#utility.yul\":24331:24357   */\n      swap1\n      pop\n        /* \"#utility.yul\":24367:24438   */\n      tag_611\n        /* \"#utility.yul\":24435:24436   */\n      0x00\n        /* \"#utility.yul\":24424:24433   */\n      dup4\n        /* \"#utility.yul\":24420:24437   */\n      add\n        /* \"#utility.yul\":24411:24417   */\n      dup5\n        /* \"#utility.yul\":24367:24438   */\n      tag_560\n      jump\t// in\n    tag_611:\n        /* \"#utility.yul\":24223:24445   */\n      swap3\n      swap2\n      pop\n      pop\n      jump\t// out\n        /* \"#utility.yul\":24451:25741   */\n    tag_94:\n        /* \"#utility.yul\":24808:24812   */\n      0x00\n        /* \"#utility.yul\":24846:24849   */\n      0x0120\n        /* \"#utility.yul\":24835:24844   */\n      dup3\n        /* \"#utility.yul\":24831:24850   */\n      add\n        /* \"#utility.yul\":24823:24850   */\n      swap1\n      pop\n        /* \"#utility.yul\":24860:24931   */\n      tag_613\n        /* \"#utility.yul\":24928:24929   */\n      0x00\n        /* \"#utility.yul\":24917:24926   */\n      dup4\n        /* \"#utility.yul\":24913:24930   */\n      add\n        /* \"#utility.yul\":24904:24910   */\n      dup13\n        /* \"#utility.yul\":24860:24931   */\n      tag_560\n      jump\t// in\n    tag_613:\n        /* \"#utility.yul\":24978:24987   */\n      dup2\n        /* \"#utility.yul\":24972:24976   */\n      dup2\n        /* \"#utility.yul\":24968:24988   */\n      sub\n        /* \"#utility.yul\":24963:24965   */\n      0x20\n        /* \"#utility.yul\":24952:24961   */\n      dup4\n        /* \"#utility.yul\":24948:24966   */\n      add\n        /* \"#utility.yul\":24941:24989   */\n      mstore\n        /* \"#utility.yul\":25006:25084   */\n      tag_614\n        /* \"#utility.yul\":25079:25083   */\n      dup2\n        /* \"#utility.yul\":25070:25076   */\n      dup12\n        /* \"#utility.yul\":25006:25084   */\n      tag_496\n      jump\t// in\n    tag_614:\n        /* \"#utility.yul\":24998:25084   */\n      swap1\n      pop\n        /* \"#utility.yul\":25131:25140   */\n      dup2\n        /* \"#utility.yul\":25125:25129   */\n      dup2\n        /* \"#utility.yul\":25121:25141   */\n      sub\n        /* \"#utility.yul\":25116:25118   */\n      0x40\n        /* \"#utility.yul\":25105:25114   */\n      dup4\n        /* \"#utility.yul\":25101:25119   */\n      add\n        /* \"#utility.yul\":25094:25142   */\n      mstore\n        /* \"#utility.yul\":25159:25237   */\n      tag_615\n        /* \"#utility.yul\":25232:25236   */\n      dup2\n        /* \"#utility.yul\":25223:25229   */\n      dup11\n        /* \"#utility.yul\":25159:25237   */\n      tag_496\n      jump\t// in\n    tag_615:\n        /* \"#utility.yul\":25151:25237   */\n      swap1\n      pop\n        /* \"#utility.yul\":25247:25319   */\n      tag_616\n        /* \"#utility.yul\":25315:25317   */\n      0x60\n        /* \"#utility.yul\":25304:25313   */\n      dup4\n        /* \"#utility.yul\":25300:25318   */\n      add\n        /* \"#utility.yul\":25291:25297   */\n      dup10\n        /* \"#utility.yul\":25247:25319   */\n      tag_560\n      jump\t// in\n    tag_616:\n        /* \"#utility.yul\":25329:25402   */\n      tag_617\n        /* \"#utility.yul\":25397:25400   */\n      0x80\n        /* \"#utility.yul\":25386:25395   */\n      dup4\n        /* \"#utility.yul\":25382:25401   */\n      add\n        /* \"#utility.yul\":25373:25379   */\n      dup9\n        /* \"#utility.yul\":25329:25402   */\n      tag_560\n      jump\t// in\n    tag_617:\n        /* \"#utility.yul\":25412:25485   */\n      tag_618\n        /* \"#utility.yul\":25480:25483   */\n      0xa0\n        /* \"#utility.yul\":25469:25478   */\n      dup4\n        /* \"#utility.yul\":25465:25484   */\n      add\n        /* \"#utility.yul\":25456:25462   */\n      dup8\n        /* \"#utility.yul\":25412:25485   */\n      tag_560\n      jump\t// in\n    tag_618:\n        /* \"#utility.yul\":25495:25568   */\n      tag_619\n        /* \"#utility.yul\":25563:25566   */\n      0xc0\n        /* \"#utility.yul\":25552:25561   */\n      dup4\n        /* \"#utility.yul\":25548:25567   */\n      add\n        /* \"#utility.yul\":25539:25545   */\n      dup7\n        /* \"#utility.yul\":25495:25568   */\n      tag_560\n      jump\t// in\n    tag_619:\n        /* \"#utility.yul\":25578:25651   */\n      tag_620\n        /* \"#utility.yul\":25646:25649   */\n      0xe0\n        /* \"#utility.yul\":25635:25644   */\n      dup4\n        /* \"#utility.yul\":25631:25650   */\n      add\n        /* \"#utility.yul\":25622:25628   */\n      dup6\n        /* \"#utility.yul\":25578:25651   */\n      tag_560\n      jump\t// in\n    tag_620:\n        /* \"#utility.yul\":25661:25734   */\n      tag_621\n        /* \"#utility.yul\":25729:25732   */\n      0x0100\n        /* \"#utility.yul\":25718:25727   */\n      dup4\n        /* \"#utility.yul\":25714:25733   */\n      add\n        /* \"#utility.yul\":25705:25711   */\n      dup5\n        /* \"#utility.yul\":25661:25734   */\n      tag_444\n      jump\t// in\n    tag_621:\n        /* \"#utility.yul\":24451:25741   */\n      swap11\n      swap10\n      pop\n      pop\n      pop\n      pop\n      pop\n      pop\n      pop\n      pop\n      pop\n      pop\n      jump\t// out\n        /* \"#utility.yul\":25747:26941   */\n    tag_128:\n        /* \"#utility.yul\":26109:26113   */\n      0x00\n        /* \"#utility.yul\":26147:26150   */\n      0x0100\n        /* \"#utility.yul\":26136:26145   */\n      dup3\n        /* \"#utility.yul\":26132:26151   */\n      add\n        /* \"#utility.yul\":26124:26151   */\n      swap1\n      pop\n        /* \"#utility.yul\":26161:26232   */\n      tag_623\n        /* \"#utility.yul\":26229:26230   */\n      0x00\n        /* \"#utility.yul\":26218:26227   */\n      dup4\n        /* \"#utility.yul\":26214:26231   */\n      add\n        /* \"#utility.yul\":26205:26211   */\n      dup11\n        /* \"#utility.yul\":26161:26232   */\n      tag_560\n      jump\t// in\n    tag_623:\n        /* \"#utility.yul\":26242:26314   */\n      tag_624\n        /* \"#utility.yul\":26310:26312   */\n      0x20\n        /* \"#utility.yul\":26299:26308   */\n      dup4\n        /* \"#utility.yul\":26295:26313   */\n      add\n        /* \"#utility.yul\":26286:26292   */\n      dup10\n        /* \"#utility.yul\":26242:26314   */\n      tag_560\n      jump\t// in\n    tag_624:\n        /* \"#utility.yul\":26324:26396   */\n      tag_625\n        /* \"#utility.yul\":26392:26394   */\n      0x40\n        /* \"#utility.yul\":26381:26390   */\n      dup4\n        /* \"#utility.yul\":26377:26395   */\n      add\n        /* \"#utility.yul\":26368:26374   */\n      dup9\n        /* \"#utility.yul\":26324:26396   */\n      tag_560\n      jump\t// in\n    tag_625:\n        /* \"#utility.yul\":26406:26478   */\n      tag_626\n        /* \"#utility.yul\":26474:26476   */\n      0x60\n        /* \"#utility.yul\":26463:26472   */\n      dup4\n        /* \"#utility.yul\":26459:26477   */\n      add\n        /* \"#utility.yul\":26450:26456   */\n      dup8\n        /* \"#utility.yul\":26406:26478   */\n      tag_560\n      jump\t// in\n    tag_626:\n        /* \"#utility.yul\":26488:26561   */\n      tag_627\n        /* \"#utility.yul\":26556:26559   */\n      0x80\n        /* \"#utility.yul\":26545:26554   */\n      dup4\n        /* \"#utility.yul\":26541:26560   */\n      add\n        /* \"#utility.yul\":26532:26538   */\n      dup7\n        /* \"#utility.yul\":26488:26561   */\n      tag_444\n      jump\t// in\n    tag_627:\n        /* \"#utility.yul\":26571:26644   */\n      tag_628\n        /* \"#utility.yul\":26639:26642   */\n      0xa0\n        /* \"#utility.yul\":26628:26637   */\n      dup4\n        /* \"#utility.yul\":26624:26643   */\n      add\n        /* \"#utility.yul\":26615:26621   */\n      dup6\n        /* \"#utility.yul\":26571:26644   */\n      tag_560\n      jump\t// in\n    tag_628:\n        /* \"#utility.yul\":26654:26727   */\n      tag_629\n        /* \"#utility.yul\":26722:26725   */\n      0xc0\n        /* \"#utility.yul\":26711:26720   */\n      dup4\n        /* \"#utility.yul\":26707:26726   */\n      add\n        /* \"#utility.yul\":26698:26704   */\n      dup5\n        /* \"#utility.yul\":26654:26727   */\n      tag_560\n      jump\t// in\n    tag_629:\n        /* \"#utility.yul\":26775:26784   */\n      dup2\n        /* \"#utility.yul\":26769:26773   */\n      dup2\n        /* \"#utility.yul\":26765:26785   */\n      sub\n        /* \"#utility.yul\":26759:26762   */\n      0xe0\n        /* \"#utility.yul\":26748:26757   */\n      dup4\n        /* \"#utility.yul\":26744:26763   */\n      add\n        /* \"#utility.yul\":26737:26786   */\n      mstore\n        /* \"#utility.yul\":26803:26934   */\n      tag_630\n        /* \"#utility.yul\":26929:26933   */\n      dup2\n        /* \"#utility.yul\":26803:26934   */\n      tag_521\n      jump\t// in\n    tag_630:\n        /* \"#utility.yul\":26795:26934   */\n      swap1\n      pop\n        /* \"#utility.yul\":25747:26941   */\n      swap9\n      swap8\n      pop\n      pop\n      pop\n      pop\n      pop\n      pop\n      pop\n      pop\n      jump\t// out\n        /* \"#utility.yul\":26947:27076   */\n    tag_339:\n        /* \"#utility.yul\":26981:26987   */\n      0x00\n        /* \"#utility.yul\":27008:27028   */\n      tag_632\n      tag_633\n      jump\t// in\n    tag_632:\n        /* \"#utility.yul\":26998:27028   */\n      swap1\n      pop\n        /* \"#utility.yul\":27037:27070   */\n      tag_634\n        /* \"#utility.yul\":27065:27069   */\n      dup3\n        /* \"#utility.yul\":27057:27063   */\n      dup3\n        /* \"#utility.yul\":27037:27070   */\n      tag_635\n      jump\t// in\n    tag_634:\n        /* \"#utility.yul\":26947:27076   */\n      swap2\n      swap1\n      pop\n      jump\t// out\n        /* \"#utility.yul\":27082:27157   */\n    tag_633:\n        /* \"#utility.yul\":27115:27121   */\n      0x00\n        /* \"#utility.yul\":27148:27150   */\n      0x40\n        /* \"#utility.yul\":27142:27151   */\n      mload\n        /* \"#utility.yul\":27132:27151   */\n      swap1\n      pop\n        /* \"#utility.yul\":27082:27157   */\n      swap1\n      jump\t// out\n        /* \"#utility.yul\":27163:27471   */\n    tag_338:\n        /* \"#utility.yul\":27225:27229   */\n      0x00\n        /* \"#utility.yul\":27315:27333   */\n      0xffffffffffffffff\n        /* \"#utility.yul\":27307:27313   */\n      dup3\n        /* \"#utility.yul\":27304:27334   */\n      gt\n        /* \"#utility.yul\":27301:27357   */\n      iszero\n      tag_638\n      jumpi\n        /* \"#utility.yul\":27337:27355   */\n      tag_639\n      tag_150\n      jump\t// in\n    tag_639:\n        /* \"#utility.yul\":27301:27357   */\n    tag_638:\n        /* \"#utility.yul\":27375:27404   */\n      tag_640\n        /* \"#utility.yul\":27397:27403   */\n      dup3\n        /* \"#utility.yul\":27375:27404   */\n      tag_495\n      jump\t// in\n    tag_640:\n        /* \"#utility.yul\":27367:27404   */\n      swap1\n      pop\n        /* \"#utility.yul\":27459:27463   */\n      0x20\n        /* \"#utility.yul\":27453:27457   */\n      dup2\n        /* \"#utility.yul\":27449:27464   */\n      add\n        /* \"#utility.yul\":27441:27464   */\n      swap1\n      pop\n        /* \"#utility.yul\":27163:27471   */\n      swap2\n      swap1\n      pop\n      jump\t// out\n        /* \"#utility.yul\":27477:27619   */\n    tag_454:\n        /* \"#utility.yul\":27554:27558   */\n      0x00\n        /* \"#utility.yul\":27577:27580   */\n      dup2\n        /* \"#utility.yul\":27569:27580   */\n      swap1\n      pop\n        /* \"#utility.yul\":27607:27611   */\n      0x20\n        /* \"#utility.yul\":27602:27605   */\n      dup3\n        /* \"#utility.yul\":27598:27612   */\n      add\n        /* \"#utility.yul\":27590:27612   */\n      swap1\n      pop\n        /* \"#utility.yul\":27477:27619   */\n      swap2\n      swap1\n      pop\n      jump\t// out\n        /* \"#utility.yul\":27625:27778   */\n    tag_468:\n        /* \"#utility.yul\":27713:27717   */\n      0x00\n        /* \"#utility.yul\":27736:27739   */\n      dup2\n        /* \"#utility.yul\":27728:27739   */\n      swap1\n      pop\n        /* \"#utility.yul\":27766:27770   */\n      0x20\n        /* \"#utility.yul\":27761:27764   */\n      dup3\n        /* \"#utility.yul\":27757:27771   */\n      add\n        /* \"#utility.yul\":27749:27771   */\n      swap1\n      pop\n        /* \"#utility.yul\":27625:27778   */\n      swap2\n      swap1\n      pop\n      jump\t// out\n        /* \"#utility.yul\":27784:27925   */\n    tag_517:\n        /* \"#utility.yul\":27833:27837   */\n      0x00\n        /* \"#utility.yul\":27856:27859   */\n      dup2\n        /* \"#utility.yul\":27848:27859   */\n      swap1\n      pop\n        /* \"#utility.yul\":27879:27882   */\n      dup2\n        /* \"#utility.yul\":27876:27877   */\n      0x00\n        /* \"#utility.yul\":27869:27883   */\n      mstore\n        /* \"#utility.yul\":27913:27917   */\n      0x20\n        /* \"#utility.yul\":27910:27911   */\n      0x00\n        /* \"#utility.yul\":27900:27918   */\n      keccak256\n        /* \"#utility.yul\":27892:27918   */\n      swap1\n      pop\n        /* \"#utility.yul\":27784:27925   */\n      swap2\n      swap1\n      pop\n      jump\t// out\n        /* \"#utility.yul\":27931:28055   */\n    tag_450:\n        /* \"#utility.yul\":28008:28014   */\n      0x00\n        /* \"#utility.yul\":28042:28047   */\n      dup2\n        /* \"#utility.yul\":28036:28048   */\n      mload\n        /* \"#utility.yul\":28026:28048   */\n      swap1\n      pop\n        /* \"#utility.yul\":27931:28055   */\n      swap2\n      swap1\n      pop\n      jump\t// out\n        /* \"#utility.yul\":28061:28196   */\n    tag_464:\n        /* \"#utility.yul\":28149:28155   */\n      0x00\n        /* \"#utility.yul\":28183:28188   */\n      dup2\n        /* \"#utility.yul\":28177:28189   */\n      mload\n        /* \"#utility.yul\":28167:28189   */\n      swap1\n      pop\n        /* \"#utility.yul\":28061:28196   */\n      swap2\n      swap1\n      pop\n      jump\t// out\n        /* \"#utility.yul\":28202:28301   */\n    tag_489:\n        /* \"#utility.yul\":28254:28260   */\n      0x00\n        /* \"#utility.yul\":28288:28293   */\n      dup2\n        /* \"#utility.yul\":28282:28294   */\n      mload\n        /* \"#utility.yul\":28272:28294   */\n      swap1\n      pop\n        /* \"#utility.yul\":28202:28301   */\n      swap2\n      swap1\n      pop\n      jump\t// out\n        /* \"#utility.yul\":28307:28430   */\n    tag_460:\n        /* \"#utility.yul\":28387:28391   */\n      0x00\n        /* \"#utility.yul\":28419:28423   */\n      0x20\n        /* \"#utility.yul\":28414:28417   */\n      dup3\n        /* \"#utility.yul\":28410:28424   */\n      add\n        /* \"#utility.yul\":28402:28424   */\n      swap1\n      pop\n        /* \"#utility.yul\":28307:28430   */\n      swap2\n      swap1\n      pop\n      jump\t// out\n        /* \"#utility.yul\":28436:28570   */\n    tag_474:\n        /* \"#utility.yul\":28527:28531   */\n      0x00\n        /* \"#utility.yul\":28559:28563   */\n      0x20\n        /* \"#utility.yul\":28554:28557   */\n      dup3\n        /* \"#utility.yul\":28550:28564   */\n      add\n        /* \"#utility.yul\":28542:28564   */\n      swap1\n      pop\n        /* \"#utility.yul\":28436:28570   */\n      swap2\n      swap1\n      pop\n      jump\t// out\n        /* \"#utility.yul\":28576:28770   */\n    tag_452:\n        /* \"#utility.yul\":28685:28696   */\n      0x00\n        /* \"#utility.yul\":28719:28725   */\n      dup3\n        /* \"#utility.yul\":28714:28717   */\n      dup3\n        /* \"#utility.yul\":28707:28726   */\n      mstore\n        /* \"#utility.yul\":28759:28763   */\n      0x20\n        /* \"#utility.yul\":28754:28757   */\n      dup3\n        /* \"#utility.yul\":28750:28764   */\n      add\n        /* \"#utility.yul\":28735:28764   */\n      swap1\n      pop\n        /* \"#utility.yul\":28576:28770   */\n      swap3\n      swap2\n      pop\n      pop\n      jump\t// out\n        /* \"#utility.yul\":28776:28981   */\n    tag_466:\n        /* \"#utility.yul\":28896:28907   */\n      0x00\n        /* \"#utility.yul\":28930:28936   */\n      dup3\n        /* \"#utility.yul\":28925:28928   */\n      dup3\n        /* \"#utility.yul\":28918:28937   */\n      mstore\n        /* \"#utility.yul\":28970:28974   */\n      0x20\n        /* \"#utility.yul\":28965:28968   */\n      dup3\n        /* \"#utility.yul\":28961:28975   */\n      add\n        /* \"#utility.yul\":28946:28975   */\n      swap1\n      pop\n        /* \"#utility.yul\":28776:28981   */\n      swap3\n      swap2\n      pop\n      pop\n      jump\t// out\n        /* \"#utility.yul\":28987:29146   */\n    tag_491:\n        /* \"#utility.yul\":29061:29072   */\n      0x00\n        /* \"#utility.yul\":29095:29101   */\n      dup3\n        /* \"#utility.yul\":29090:29093   */\n      dup3\n        /* \"#utility.yul\":29083:29102   */\n      mstore\n        /* \"#utility.yul\":29135:29139   */\n      0x20\n        /* \"#utility.yul\":29130:29133   */\n      dup3\n        /* \"#utility.yul\":29126:29140   */\n      add\n        /* \"#utility.yul\":29111:29140   */\n      swap1\n      pop\n        /* \"#utility.yul\":28987:29146   */\n      swap3\n      swap2\n      pop\n      pop\n      jump\t// out\n        /* \"#utility.yul\":29152:29321   */\n    tag_500:\n        /* \"#utility.yul\":29236:29247   */\n      0x00\n        /* \"#utility.yul\":29270:29276   */\n      dup3\n        /* \"#utility.yul\":29265:29268   */\n      dup3\n        /* \"#utility.yul\":29258:29277   */\n      mstore\n        /* \"#utility.yul\":29310:29314   */\n      0x20\n        /* \"#utility.yul\":29305:29308   */\n      dup3\n        /* \"#utility.yul\":29301:29315   */\n      add\n        /* \"#utility.yul\":29286:29315   */\n      swap1\n      pop\n        /* \"#utility.yul\":29152:29321   */\n      swap3\n      swap2\n      pop\n      pop\n      jump\t// out\n        /* \"#utility.yul\":29327:29475   */\n    tag_507:\n        /* \"#utility.yul\":29429:29440   */\n      0x00\n        /* \"#utility.yul\":29466:29469   */\n      dup2\n        /* \"#utility.yul\":29451:29469   */\n      swap1\n      pop\n        /* \"#utility.yul\":29327:29475   */\n      swap3\n      swap2\n      pop\n      pop\n      jump\t// out\n        /* \"#utility.yul\":29481:29672   */\n    tag_146:\n        /* \"#utility.yul\":29521:29525   */\n      0x00\n        /* \"#utility.yul\":29541:29561   */\n      tag_655\n        /* \"#utility.yul\":29559:29560   */\n      dup3\n        /* \"#utility.yul\":29541:29561   */\n      tag_559\n      jump\t// in\n    tag_655:\n        /* \"#utility.yul\":29536:29561   */\n      swap2\n      pop\n        /* \"#utility.yul\":29575:29595   */\n      tag_656\n        /* \"#utility.yul\":29593:29594   */\n      dup4\n        /* \"#utility.yul\":29575:29595   */\n      tag_559\n      jump\t// in\n    tag_656:\n        /* \"#utility.yul\":29570:29595   */\n      swap3\n      pop\n        /* \"#utility.yul\":29614:29615   */\n      dup3\n        /* \"#utility.yul\":29611:29612   */\n      dup3\n        /* \"#utility.yul\":29608:29616   */\n      lt\n        /* \"#utility.yul\":29605:29639   */\n      iszero\n      tag_657\n      jumpi\n        /* \"#utility.yul\":29619:29637   */\n      tag_658\n      tag_659\n      jump\t// in\n    tag_658:\n        /* \"#utility.yul\":29605:29639   */\n    tag_657:\n        /* \"#utility.yul\":29664:29665   */\n      dup3\n        /* \"#utility.yul\":29661:29662   */\n      dup3\n        /* \"#utility.yul\":29657:29666   */\n      sub\n        /* \"#utility.yul\":29649:29666   */\n      swap1\n      pop\n        /* \"#utility.yul\":29481:29672   */\n      swap3\n      swap2\n      pop\n      pop\n      jump\t// out\n        /* \"#utility.yul\":29678:29774   */\n    tag_443:\n        /* \"#utility.yul\":29715:29722   */\n      0x00\n        /* \"#utility.yul\":29744:29768   */\n      tag_661\n        /* \"#utility.yul\":29762:29767   */\n      dup3\n        /* \"#utility.yul\":29744:29768   */\n      tag_662\n      jump\t// in\n    tag_661:\n        /* \"#utility.yul\":29733:29768   */\n      swap1\n      pop\n        /* \"#utility.yul\":29678:29774   */\n      swap2\n      swap1\n      pop\n      jump\t// out\n        /* \"#utility.yul\":29780:29909   */\n    tag_663:\n        /* \"#utility.yul\":29826:29833   */\n      0x00\n        /* \"#utility.yul\":29855:29860   */\n      dup2\n        /* \"#utility.yul\":29844:29860   */\n      swap1\n      pop\n        /* \"#utility.yul\":29861:29903   */\n      tag_665\n        /* \"#utility.yul\":29897:29902   */\n      dup3\n        /* \"#utility.yul\":29861:29903   */\n      tag_666\n      jump\t// in\n    tag_665:\n        /* \"#utility.yul\":29780:29909   */\n      swap2\n      swap1\n      pop\n      jump\t// out\n        /* \"#utility.yul\":29915:29991   */\n    tag_482:\n        /* \"#utility.yul\":29951:29958   */\n      0x00\n        /* \"#utility.yul\":29980:29985   */\n      dup2\n        /* \"#utility.yul\":29969:29985   */\n      swap1\n      pop\n        /* \"#utility.yul\":29915:29991   */\n      swap2\n      swap1\n      pop\n      jump\t// out\n        /* \"#utility.yul\":29997:30123   */\n    tag_662:\n        /* \"#utility.yul\":30034:30041   */\n      0x00\n        /* \"#utility.yul\":30074:30116   */\n      0xffffffffffffffffffffffffffffffffffffffff\n        /* \"#utility.yul\":30067:30072   */\n      dup3\n        /* \"#utility.yul\":30063:30117   */\n      and\n        /* \"#utility.yul\":30052:30117   */\n      swap1\n      pop\n        /* \"#utility.yul\":29997:30123   */\n      swap2\n      swap1\n      pop\n      jump\t// out\n        /* \"#utility.yul\":30129:30206   */\n    tag_559:\n        /* \"#utility.yul\":30166:30173   */\n      0x00\n        /* \"#utility.yul\":30195:30200   */\n      dup2\n        /* \"#utility.yul\":30184:30200   */\n      swap1\n      pop\n        /* \"#utility.yul\":30129:30206   */\n      swap2\n      swap1\n      pop\n      jump\t// out\n        /* \"#utility.yul\":30212:30317   */\n    tag_670:\n        /* \"#utility.yul\":30248:30255   */\n      0x00\n        /* \"#utility.yul\":30288:30310   */\n      0xffffffffffffffffffff\n        /* \"#utility.yul\":30281:30286   */\n      dup3\n        /* \"#utility.yul\":30277:30311   */\n      and\n        /* \"#utility.yul\":30266:30311   */\n      swap1\n      pop\n        /* \"#utility.yul\":30212:30317   */\n      swap2\n      swap1\n      pop\n      jump\t// out\n        /* \"#utility.yul\":30323:30452   */\n    tag_478:\n        /* \"#utility.yul\":30380:30389   */\n      0x00\n        /* \"#utility.yul\":30413:30446   */\n      tag_673\n        /* \"#utility.yul\":30440:30445   */\n      dup3\n        /* \"#utility.yul\":30413:30446   */\n      tag_663\n      jump\t// in\n    tag_673:\n        /* \"#utility.yul\":30400:30446   */\n      swap1\n      pop\n        /* \"#utility.yul\":30323:30452   */\n      swap2\n      swap1\n      pop\n      jump\t// out\n        /* \"#utility.yul\":30458:30577   */\n    tag_486:\n        /* \"#utility.yul\":30515:30524   */\n      0x00\n        /* \"#utility.yul\":30548:30571   */\n      tag_675\n        /* \"#utility.yul\":30565:30570   */\n      dup3\n        /* \"#utility.yul\":30548:30571   */\n      tag_482\n      jump\t// in\n    tag_675:\n        /* \"#utility.yul\":30535:30571   */\n      swap1\n      pop\n        /* \"#utility.yul\":30458:30577   */\n      swap2\n      swap1\n      pop\n      jump\t// out\n        /* \"#utility.yul\":30583:30737   */\n    tag_344:\n        /* \"#utility.yul\":30667:30673   */\n      dup3\n        /* \"#utility.yul\":30662:30665   */\n      dup2\n        /* \"#utility.yul\":30657:30660   */\n      dup4\n        /* \"#utility.yul\":30644:30674   */\n      calldatacopy\n        /* \"#utility.yul\":30729:30730   */\n      0x00\n        /* \"#utility.yul\":30720:30726   */\n      dup4\n        /* \"#utility.yul\":30715:30718   */\n      dup4\n        /* \"#utility.yul\":30711:30727   */\n      add\n        /* \"#utility.yul\":30704:30731   */\n      mstore\n        /* \"#utility.yul\":30583:30737   */\n      pop\n      pop\n      pop\n      jump\t// out\n        /* \"#utility.yul\":30743:31050   */\n    tag_493:\n        /* \"#utility.yul\":30811:30812   */\n      0x00\n        /* \"#utility.yul\":30821:30934   */\n    tag_678:\n        /* \"#utility.yul\":30835:30841   */\n      dup4\n        /* \"#utility.yul\":30832:30833   */\n      dup2\n        /* \"#utility.yul\":30829:30842   */\n      lt\n        /* \"#utility.yul\":30821:30934   */\n      iszero\n      tag_680\n      jumpi\n        /* \"#utility.yul\":30920:30921   */\n      dup1\n        /* \"#utility.yul\":30915:30918   */\n      dup3\n        /* \"#utility.yul\":30911:30922   */\n      add\n        /* \"#utility.yul\":30905:30923   */\n      mload\n        /* \"#utility.yul\":30901:30902   */\n      dup2\n        /* \"#utility.yul\":30896:30899   */\n      dup5\n        /* \"#utility.yul\":30892:30903   */\n      add\n        /* \"#utility.yul\":30885:30924   */\n      mstore\n        /* \"#utility.yul\":30857:30859   */\n      0x20\n        /* \"#utility.yul\":30854:30855   */\n      dup2\n        /* \"#utility.yul\":30850:30860   */\n      add\n        /* \"#utility.yul\":30845:30860   */\n      swap1\n      pop\n        /* \"#utility.yul\":30821:30934   */\n      jump(tag_678)\n    tag_680:\n        /* \"#utility.yul\":30952:30958   */\n      dup4\n        /* \"#utility.yul\":30949:30950   */\n      dup2\n        /* \"#utility.yul\":30946:30959   */\n      gt\n        /* \"#utility.yul\":30943:31044   */\n      iszero\n      tag_681\n      jumpi\n        /* \"#utility.yul\":31032:31033   */\n      0x00\n        /* \"#utility.yul\":31023:31029   */\n      dup5\n        /* \"#utility.yul\":31018:31021   */\n      dup5\n        /* \"#utility.yul\":31014:31030   */\n      add\n        /* \"#utility.yul\":31007:31034   */\n      mstore\n        /* \"#utility.yul\":30943:31044   */\n    tag_681:\n        /* \"#utility.yul\":30792:31050   */\n      pop\n        /* \"#utility.yul\":30743:31050   */\n      pop\n      pop\n      pop\n      jump\t// out\n        /* \"#utility.yul\":31056:31376   */\n    tag_96:\n        /* \"#utility.yul\":31100:31106   */\n      0x00\n        /* \"#utility.yul\":31137:31138   */\n      0x02\n        /* \"#utility.yul\":31131:31135   */\n      dup3\n        /* \"#utility.yul\":31127:31139   */\n      div\n        /* \"#utility.yul\":31117:31139   */\n      swap1\n      pop\n        /* \"#utility.yul\":31184:31185   */\n      0x01\n        /* \"#utility.yul\":31178:31182   */\n      dup3\n        /* \"#utility.yul\":31174:31186   */\n      and\n        /* \"#utility.yul\":31205:31223   */\n      dup1\n        /* \"#utility.yul\":31195:31276   */\n      tag_683\n      jumpi\n        /* \"#utility.yul\":31261:31265   */\n      0x7f\n        /* \"#utility.yul\":31253:31259   */\n      dup3\n        /* \"#utility.yul\":31249:31266   */\n      and\n        /* \"#utility.yul\":31239:31266   */\n      swap2\n      pop\n        /* \"#utility.yul\":31195:31276   */\n    tag_683:\n        /* \"#utility.yul\":31323:31325   */\n      0x20\n        /* \"#utility.yul\":31315:31321   */\n      dup3\n        /* \"#utility.yul\":31312:31326   */\n      lt\n        /* \"#utility.yul\":31292:31310   */\n      dup2\n        /* \"#utility.yul\":31289:31327   */\n      eq\n        /* \"#utility.yul\":31286:31370   */\n      iszero\n      tag_684\n      jumpi\n        /* \"#utility.yul\":31342:31360   */\n      tag_685\n      tag_686\n      jump\t// in\n    tag_685:\n        /* \"#utility.yul\":31286:31370   */\n    tag_684:\n        /* \"#utility.yul\":31107:31376   */\n      pop\n        /* \"#utility.yul\":31056:31376   */\n      swap2\n      swap1\n      pop\n      jump\t// out\n        /* \"#utility.yul\":31382:31663   */\n    tag_635:\n        /* \"#utility.yul\":31465:31492   */\n      tag_688\n        /* \"#utility.yul\":31487:31491   */\n      dup3\n        /* \"#utility.yul\":31465:31492   */\n      tag_495\n      jump\t// in\n    tag_688:\n        /* \"#utility.yul\":31457:31463   */\n      dup2\n        /* \"#utility.yul\":31453:31493   */\n      add\n        /* \"#utility.yul\":31595:31601   */\n      dup2\n        /* \"#utility.yul\":31583:31593   */\n      dup2\n        /* \"#utility.yul\":31580:31602   */\n      lt\n        /* \"#utility.yul\":31559:31577   */\n      0xffffffffffffffff\n        /* \"#utility.yul\":31547:31557   */\n      dup3\n        /* \"#utility.yul\":31544:31578   */\n      gt\n        /* \"#utility.yul\":31541:31603   */\n      or\n        /* \"#utility.yul\":31538:31626   */\n      iszero\n      tag_689\n      jumpi\n        /* \"#utility.yul\":31606:31624   */\n      tag_690\n      tag_150\n      jump\t// in\n    tag_690:\n        /* \"#utility.yul\":31538:31626   */\n    tag_689:\n        /* \"#utility.yul\":31646:31656   */\n      dup1\n        /* \"#utility.yul\":31642:31644   */\n      0x40\n        /* \"#utility.yul\":31635:31657   */\n      mstore\n        /* \"#utility.yul\":31425:31663   */\n      pop\n        /* \"#utility.yul\":31382:31663   */\n      pop\n      pop\n      jump\t// out\n        /* \"#utility.yul\":31669:31902   */\n    tag_143:\n        /* \"#utility.yul\":31708:31711   */\n      0x00\n        /* \"#utility.yul\":31731:31755   */\n      tag_692\n        /* \"#utility.yul\":31749:31754   */\n      dup3\n        /* \"#utility.yul\":31731:31755   */\n      tag_559\n      jump\t// in\n    tag_692:\n        /* \"#utility.yul\":31722:31755   */\n      swap2\n      pop\n        /* \"#utility.yul\":31777:31843   */\n      0xffffffffffffffffffffffffffffffffffffffffffffffffffffffffffffffff\n        /* \"#utility.yul\":31770:31775   */\n      dup3\n        /* \"#utility.yul\":31767:31844   */\n      eq\n        /* \"#utility.yul\":31764:31867   */\n      iszero\n      tag_693\n      jumpi\n        /* \"#utility.yul\":31847:31865   */\n      tag_694\n      tag_659\n      jump\t// in\n    tag_694:\n        /* \"#utility.yul\":31764:31867   */\n    tag_693:\n        /* \"#utility.yul\":31894:31895   */\n      0x01\n        /* \"#utility.yul\":31887:31892   */\n      dup3\n        /* \"#utility.yul\":31883:31896   */\n      add\n        /* \"#utility.yul\":31876:31896   */\n      swap1\n      pop\n        /* \"#utility.yul\":31669:31902   */\n      swap2\n      swap1\n      pop\n      jump\t// out\n        /* \"#utility.yul\":31908:32088   */\n    tag_659:\n        /* \"#utility.yul\":31956:32033   */\n      0x4e487b7100000000000000000000000000000000000000000000000000000000\n        /* \"#utility.yul\":31953:31954   */\n      0x00\n        /* \"#utility.yul\":31946:32034   */\n      mstore\n        /* \"#utility.yul\":32053:32057   */\n      0x11\n        /* \"#utility.yul\":32050:32051   */\n      0x04\n        /* \"#utility.yul\":32043:32058   */\n      mstore\n        /* \"#utility.yul\":32077:32081   */\n      0x24\n        /* \"#utility.yul\":32074:32075   */\n      0x00\n        /* \"#utility.yul\":32067:32082   */\n      revert\n        /* \"#utility.yul\":32094:32274   */\n    tag_118:\n        /* \"#utility.yul\":32142:32219   */\n      0x4e487b7100000000000000000000000000000000000000000000000000000000\n        /* \"#utility.yul\":32139:32140   */\n      0x00\n        /* \"#utility.yul\":32132:32220   */\n      mstore\n        /* \"#utility.yul\":32239:32243   */\n      0x21\n        /* \"#utility.yul\":32236:32237   */\n      0x04\n        /* \"#utility.yul\":32229:32244   */\n      mstore\n        /* \"#utility.yul\":32263:32267   */\n      0x24\n        /* \"#utility.yul\":32260:32261   */\n      0x00\n        /* \"#utility.yul\":32253:32268   */\n      revert\n        /* \"#utility.yul\":32280:32460   */\n    tag_686:\n        /* \"#utility.yul\":32328:32405   */\n      0x4e487b7100000000000000000000000000000000000000000000000000000000\n        /* \"#utility.yul\":32325:32326   */\n      0x00\n        /* \"#utility.yul\":32318:32406   */\n      mstore\n        /* \"#utility.yul\":32425:32429   */\n      0x22\n        /* \"#utility.yul\":32422:32423   */\n      0x04\n        /* \"#utility.yul\":32415:32430   */\n      mstore\n        /* \"#utility.yul\":32449:32453   */\n      0x24\n        /* \"#utility.yul\":32446:32447   */\n      0x00\n        /* \"#utility.yul\":32439:32454   */\n      revert\n        /* \"#utility.yul\":32466:32646   */\n    tag_294:\n        /* \"#utility.yul\":32514:32591   */\n      0x4e487b7100000000000000000000000000000000000000000000000000000000\n        /* \"#utility.yul\":32511:32512   */\n      0x00\n        /* \"#utility.yul\":32504:32592   */\n      mstore\n        /* \"#utility.yul\":32611:32615   */\n      0x31\n        /* \"#utility.yul\":32608:32609   */\n      0x04\n        /* \"#utility.yul\":32601:32616   */\n      mstore\n        /* \"#utility.yul\":32635:32639   */\n      0x24\n        /* \"#utility.yul\":32632:32633   */\n      0x00\n        /* \"#utility.yul\":32625:32640   */\n      revert\n        /* \"#utility.yul\":32652:32832   */\n    tag_172:\n        /* \"#utility.yul\":32700:32777   */\n      0x4e487b7100000000000000000000000000000000000000000000000000000000\n        /* \"#utility.yul\":32697:32698   */\n      0x00\n        /* \"#utility.yul\":32690:32778   */\n      mstore\n        /* \"#utility.yul\":32797:32801   */\n      0x32\n        /* \"#utility.yul\":32794:32795   */\n      0x04\n        /* \"#utility.yul\":32787:32802   */\n      mstore\n        /* \"#utility.yul\":32821:32825   */\n      0x24\n        /* \"#utility.yul\":32818:32819   */\n      0x00\n        /* \"#utility.yul\":32811:32826   */\n      revert\n        /* \"#utility.yul\":32838:33018   */\n    tag_150:\n        /* \"#utility.yul\":32886:32963   */\n      0x4e487b7100000000000000000000000000000000000000000000000000000000\n        /* \"#utility.yul\":32883:32884   */\n      0x00\n        /* \"#utility.yul\":32876:32964   */\n      mstore\n        /* \"#utility.yul\":32983:32987   */\n      0x41\n        /* \"#utility.yul\":32980:32981   */\n      0x04\n        /* \"#utility.yul\":32973:32988   */\n      mstore\n        /* \"#utility.yul\":33007:33011   */\n      0x24\n        /* \"#utility.yul\":33004:33005   */\n      0x00\n        /* \"#utility.yul\":32997:33012   */\n      revert\n        /* \"#utility.yul\":33024:33141   */\n    tag_361:\n        /* \"#utility.yul\":33133:33134   */\n      0x00\n        /* \"#utility.yul\":33130:33131   */\n      dup1\n        /* \"#utility.yul\":33123:33135   */\n      revert\n        /* \"#utility.yul\":33147:33264   */\n    tag_342:\n        /* \"#utility.yul\":33256:33257   */\n      0x00\n        /* \"#utility.yul\":33253:33254   */\n      dup1\n        /* \"#utility.yul\":33246:33258   */\n      revert\n        /* \"#utility.yul\":33270:33387   */\n    tag_388:\n        /* \"#utility.yul\":33379:33380   */\n      0x00\n        /* \"#utility.yul\":33376:33377   */\n      dup1\n        /* \"#utility.yul\":33369:33381   */\n      revert\n        /* \"#utility.yul\":33393:33510   */\n    tag_377:\n        /* \"#utility.yul\":33502:33503   */\n      0x00\n        /* \"#utility.yul\":33499:33500   */\n      dup1\n        /* \"#utility.yul\":33492:33504   */\n      revert\n        /* \"#utility.yul\":33516:33618   */\n    tag_495:\n        /* \"#utility.yul\":33557:33563   */\n      0x00\n        /* \"#utility.yul\":33608:33610   */\n      0x1f\n        /* \"#utility.yul\":33604:33611   */\n      not\n        /* \"#utility.yul\":33599:33601   */\n      0x1f\n        /* \"#utility.yul\":33592:33597   */\n      dup4\n        /* \"#utility.yul\":33588:33602   */\n      add\n        /* \"#utility.yul\":33584:33612   */\n      and\n        /* \"#utility.yul\":33574:33612   */\n      swap1\n      pop\n        /* \"#utility.yul\":33516:33618   */\n      swap2\n      swap1\n      pop\n      jump\t// out\n        /* \"#utility.yul\":33624:33795   */\n    tag_525:\n        /* \"#utility.yul\":33764:33787   */\n      0x646c636c696e6b3a6372656174652d646c633a76300000000000000000000000\n        /* \"#utility.yul\":33760:33761   */\n      0x00\n        /* \"#utility.yul\":33752:33758   */\n      dup3\n        /* \"#utility.yul\":33748:33762   */\n      add\n        /* \"#utility.yul\":33741:33788   */\n      mstore\n        /* \"#utility.yul\":33624:33795   */\n      pop\n      jump\t// out\n        /* \"#utility.yul\":33801:33960   */\n    tag_530:\n        /* \"#utility.yul\":33941:33952   */\n      0x4e6f7420466f756e640000000000000000000000000000000000000000000000\n        /* \"#utility.yul\":33937:33938   */\n      0x00\n        /* \"#utility.yul\":33929:33935   */\n      dup3\n        /* \"#utility.yul\":33925:33939   */\n      add\n        /* \"#utility.yul\":33918:33953   */\n      mstore\n        /* \"#utility.yul\":33801:33960   */\n      pop\n      jump\t// out\n        /* \"#utility.yul\":33966:34144   */\n    tag_535:\n        /* \"#utility.yul\":34106:34136   */\n      0x646c636c696e6b3a7365742d7374617475732d66756e6465643a763000000000\n        /* \"#utility.yul\":34102:34103   */\n      0x00\n        /* \"#utility.yul\":34094:34100   */\n      dup3\n        /* \"#utility.yul\":34090:34104   */\n      add\n        /* \"#utility.yul\":34083:34137   */\n      mstore\n        /* \"#utility.yul\":33966:34144   */\n      pop\n      jump\t// out\n        /* \"#utility.yul\":34150:34330   */\n    tag_540:\n        /* \"#utility.yul\":34290:34322   */\n      0x56616c69646174696f6e206661696c656420666f7220636c6f7365446c630000\n        /* \"#utility.yul\":34286:34287   */\n      0x00\n        /* \"#utility.yul\":34278:34284   */\n      dup3\n        /* \"#utility.yul\":34274:34288   */\n      add\n        /* \"#utility.yul\":34267:34323   */\n      mstore\n        /* \"#utility.yul\":34150:34330   */\n      pop\n      jump\t// out\n        /* \"#utility.yul\":34336:34516   */\n    tag_545:\n        /* \"#utility.yul\":34476:34508   */\n      0x646c636c696e6b3a6372656174652d646c632d696e7465726e616c3a76300000\n        /* \"#utility.yul\":34472:34473   */\n      0x00\n        /* \"#utility.yul\":34464:34470   */\n      dup3\n        /* \"#utility.yul\":34460:34474   */\n      add\n        /* \"#utility.yul\":34453:34509   */\n      mstore\n        /* \"#utility.yul\":34336:34516   */\n      pop\n      jump\t// out\n        /* \"#utility.yul\":34522:34636   */\n    tag_666:\n        /* \"#utility.yul\":34604:34605   */\n      0x07\n        /* \"#utility.yul\":34597:34602   */\n      dup2\n        /* \"#utility.yul\":34594:34606   */\n      lt\n        /* \"#utility.yul\":34584:34630   */\n      tag_712\n      jumpi\n        /* \"#utility.yul\":34610:34628   */\n      tag_713\n      tag_118\n      jump\t// in\n    tag_713:\n        /* \"#utility.yul\":34584:34630   */\n    tag_712:\n        /* \"#utility.yul\":34522:34636   */\n      pop\n      jump\t// out\n        /* \"#utility.yul\":34642:34764   */\n    tag_348:\n        /* \"#utility.yul\":34715:34739   */\n      tag_715\n        /* \"#utility.yul\":34733:34738   */\n      dup2\n        /* \"#utility.yul\":34715:34739   */\n      tag_443\n      jump\t// in\n    tag_715:\n        /* \"#utility.yul\":34708:34713   */\n      dup2\n        /* \"#utility.yul\":34705:34740   */\n      eq\n        /* \"#utility.yul\":34695:34758   */\n      tag_716\n      jumpi\n        /* \"#utility.yul\":34754:34755   */\n      0x00\n        /* \"#utility.yul\":34751:34752   */\n      dup1\n        /* \"#utility.yul\":34744:34756   */\n      revert\n        /* \"#utility.yul\":34695:34758   */\n    tag_716:\n        /* \"#utility.yul\":34642:34764   */\n      pop\n      jump\t// out\n        /* \"#utility.yul\":34770:34878   */\n    tag_352:\n        /* \"#utility.yul\":34852:34853   */\n      0x07\n        /* \"#utility.yul\":34845:34850   */\n      dup2\n        /* \"#utility.yul\":34842:34854   */\n      lt\n        /* \"#utility.yul\":34832:34872   */\n      tag_718\n      jumpi\n        /* \"#utility.yul\":34868:34869   */\n      0x00\n        /* \"#utility.yul\":34865:34866   */\n      dup1\n        /* \"#utility.yul\":34858:34870   */\n      revert\n        /* \"#utility.yul\":34832:34872   */\n    tag_718:\n        /* \"#utility.yul\":34770:34878   */\n      pop\n      jump\t// out\n        /* \"#utility.yul\":34884:35004   */\n    tag_356:\n        /* \"#utility.yul\":34956:34979   */\n      tag_720\n        /* \"#utility.yul\":34973:34978   */\n      dup2\n        /* \"#utility.yul\":34956:34979   */\n      tag_482\n      jump\t// in\n    tag_720:\n        /* \"#utility.yul\":34949:34954   */\n      dup2\n        /* \"#utility.yul\":34946:34980   */\n      eq\n        /* \"#utility.yul\":34936:34998   */\n      tag_721\n      jumpi\n        /* \"#utility.yul\":34994:34995   */\n      0x00\n        /* \"#utility.yul\":34991:34992   */\n      dup1\n        /* \"#utility.yul\":34984:34996   */\n      revert\n        /* \"#utility.yul\":34936:34998   */\n    tag_721:\n        /* \"#utility.yul\":34884:35004   */\n      pop\n      jump\t// out\n        /* \"#utility.yul\":35010:35132   */\n    tag_366:\n        /* \"#utility.yul\":35083:35107   */\n      tag_723\n        /* \"#utility.yul\":35101:35106   */\n      dup2\n        /* \"#utility.yul\":35083:35107   */\n      tag_559\n      jump\t// in\n    tag_723:\n        /* \"#utility.yul\":35076:35081   */\n      dup2\n        /* \"#utility.yul\":35073:35108   */\n      eq\n        /* \"#utility.yul\":35063:35126   */\n      tag_724\n      jumpi\n        /* \"#utility.yul\":35122:35123   */\n      0x00\n        /* \"#utility.yul\":35119:35120   */\n      dup1\n        /* \"#utility.yul\":35112:35124   */\n      revert\n        /* \"#utility.yul\":35063:35126   */\n    tag_724:\n        /* \"#utility.yul\":35010:35132   */\n      pop\n      jump\t// out\n        /* \"#utility.yul\":35138:35258   */\n    tag_373:\n        /* \"#utility.yul\":35210:35233   */\n      tag_726\n        /* \"#utility.yul\":35227:35232   */\n      dup2\n        /* \"#utility.yul\":35210:35233   */\n      tag_670\n      jump\t// in\n    tag_726:\n        /* \"#utility.yul\":35203:35208   */\n      dup2\n        /* \"#utility.yul\":35200:35234   */\n      eq\n        /* \"#utility.yul\":35190:35252   */\n      tag_727\n      jumpi\n        /* \"#utility.yul\":35248:35249   */\n      0x00\n        /* \"#utility.yul\":35245:35246   */\n      dup1\n        /* \"#utility.yul\":35238:35250   */\n      revert\n        /* \"#utility.yul\":35190:35252   */\n    tag_727:\n        /* \"#utility.yul\":35138:35258   */\n      pop\n      jump\t// out\n\n    auxdata: 0xa2646970667358221220cd66498a11da7c9b794d2fa5acb67900f68ea504ff8698b2286edd52d01bba4464736f6c63430008070033\n}\n",
				"bytecode": {
					"linkReferences": {},
					"object": "608060405260006003553480156200001657600080fd5b506040518060400160405280600981526020017f6e6f742d7265616479000000000000000000000000000000000000000000000081525060066000806006811115620000675762000066620004c7565b5b60068111156200007c576200007b620004c7565b5b815260200190815260200160002090805190602001906200009f929190620003e1565b506040518060400160405280600581526020017f72656164790000000000000000000000000000000000000000000000000000008152506006600060016006811115620000f157620000f0620004c7565b5b6006811115620001065762000105620004c7565b5b8152602001908152602001600020908051906020019062000129929190620003e1565b506040518060400160405280600681526020017f66756e646564000000000000000000000000000000000000000000000000000081525060066000600260068111156200017b576200017a620004c7565b5b600681111562000190576200018f620004c7565b5b81526020019081526020016000209080519060200190620001b3929190620003e1565b506040518060400160405280600a81526020017f7072652d726570616964000000000000000000000000000000000000000000008152506006600060036006811115620002055762000204620004c7565b5b60068111156200021a5762000219620004c7565b5b815260200190815260200160002090805190602001906200023d929190620003e1565b506040518060400160405280600681526020017f726570616964000000000000000000000000000000000000000000000000000081525060066000600460068111156200028f576200028e620004c7565b5b6006811115620002a457620002a3620004c7565b5b81526020019081526020016000209080519060200190620002c7929190620003e1565b506040518060400160405280600e81526020017f7072652d6c6971756964617465640000000000000000000000000000000000008152506006600060056006811115620003195762000318620004c7565b5b60068111156200032e576200032d620004c7565b5b8152602001908152602001600020908051906020019062000351929190620003e1565b506040518060400160405280600a81526020017f6c6971756964617465640000000000000000000000000000000000000000000081525060066000600680811115620003a257620003a1620004c7565b5b6006811115620003b757620003b6620004c7565b5b81526020019081526020016000209080519060200190620003da929190620003e1565b5062000525565b828054620003ef9062000491565b90600052602060002090601f0160209004810192826200041357600085556200045f565b82601f106200042e57805160ff19168380011785556200045f565b828001600101855582156200045f579182015b828111156200045e57825182559160200191906001019062000441565b5b5090506200046e919062000472565b5090565b5b808211156200048d57600081600090555060010162000473565b5090565b60006002820490506001821680620004aa57607f821691505b60208210811415620004c157620004c0620004f6565b5b50919050565b7f4e487b7100000000000000000000000000000000000000000000000000000000600052602160045260246000fd5b7f4e487b7100000000000000000000000000000000000000000000000000000000600052602260045260246000fd5b612cb880620005356000396000f3fe608060405234801561001057600080fd5b506004361061010b5760003560e01c806362e87240116100a2578063ab7b1c8911610071578063ab7b1c89146102e4578063ccdd9f5d14610300578063d4252cc31461031c578063d463eeb314610338578063e1ec3c68146103565761010b565b806362e872401461025e57806389a12db41461028e5780638ff37151146102aa5780639e098026146102c85761010b565b80633902fe90116100de5780633902fe90146101b257806341f5d7cd146101ce57806347f8bf1c146101fe578063572343f11461022e5761010b565b80630ef2feff14610110578063200d2ed2146101485780632e7309101461016657806335dd76ce14610196575b600080fd5b61012a60048036038101906101259190611c44565b61038e565b60405161013f9998979695949392919061251f565b60405180910390f35b61015061049a565b60405161015d919061239a565b60405180910390f35b610180600480360381019061017b9190611d4b565b6104ad565b60405161018d91906123b5565b60405180910390f35b6101b060048036038101906101ab9190611c8d565b610559565b005b6101cc60048036038101906101c79190611d78565b610794565b005b6101e860048036038101906101e39190611bea565b6107e0565b6040516101f591906125f3565b60405180910390f35b61021860048036038101906102139190611e1a565b6107f8565b60405161022591906125f3565b60405180910390f35b61024860048036038101906102439190611bea565b610a8f565b6040516102559190612378565b60405180910390f35b61027860048036038101906102739190611c17565b610dbe565b60405161028591906123b5565b60405180910390f35b6102a860048036038101906102a39190611c44565b610e5e565b005b6102b2610f06565b6040516102bf9190612356565b60405180910390f35b6102e260048036038101906102dd9190611c44565b610fdf565b005b6102fe60048036038101906102f99190611d4b565b6110af565b005b61031a60048036038101906103159190611d4b565b6111bf565b005b61033660048036038101906103319190611c44565b6112ce565b005b6103406113cc565b60405161034d91906125f3565b60405180910390f35b610370600480360381019061036b9190611d4b565b6113d2565b6040516103859998979695949392919061260e565b60405180910390f35b6001818051602081018201805184825260208301602085012081835280955050505050506000915090508060000180546103c79061294a565b80601f01602080910402602001604051908101604052809291908181526020018280546103f39061294a565b80156104405780601f1061041557610100808354040283529160200191610440565b820191906000526020600020905b81548152906001019060200180831161042357829003601f168201915b5050505050908060010154908060020154908060030154908060040154908060050154908060060154908060070154908060080160009054906101000a900473ffffffffffffffffffffffffffffffffffffffff16905089565b600560009054906101000a900460ff1681565b600081815481106104bd57600080fd5b9060005260206000200160009150905080546104d89061294a565b80601f01602080910402602001604051908101604052809291908181526020018280546105049061294a565b80156105515780601f1061052657610100808354040283529160200191610551565b820191906000526020600020905b81548152906001019060200180831161053457829003601f168201915b505050505081565b60405180610120016040528088815260200187815260200186815260200185815260200184815260200160008152602001600081526020018481526020018373ffffffffffffffffffffffffffffffffffffffff168152506001886040516105c19190612328565b908152602001604051809103902060008201518160000190805190602001906105eb92919061192a565b506020820151816001015560408201518160020155606082015181600301556080820151816004015560a0820151816005015560c0820151816006015560e082015181600701556101008201518160080160006101000a81548173ffffffffffffffffffffffffffffffffffffffff021916908373ffffffffffffffffffffffffffffffffffffffff1602179055509050506000879080600181540180825580915050600190039060005260206000200160009091909190915090805190602001906106b892919061192a565b50866002600083815260200190815260200160002060010190805190602001906106e392919061192a565b5060066000600160068111156106fc576106fb612a25565b5b600681111561070e5761070d612a25565b5b81526020019081526020016000206002600083815260200190815260200160002060020190805461073e9061294a565b6107499291906119b0565b507fcd8f439d8f2acfcf615ca81a06950b502d3931221c697bd53d5d1c06a88d9965878787878787604051610783969594939291906124a4565b60405180910390a150505050505050565b7f4df421c7b448afa81019b53a86a0489ced7b8b4c57f454dba77aced8b710fb8d878787878787876040516107cf97969594939291906126a9565b60405180910390a150505050505050565b60046020528060005260406000206000915090505481565b600060405180610120016040528060035481526020016040518060200160405280600081525081526020016006600080600681111561083a57610839612a25565b5b600681111561084c5761084b612a25565b5b815260200190815260200160002080546108659061294a565b80601f01602080910402602001604051908101604052809291908181526020018280546108919061294a565b80156108de5780601f106108b3576101008083540402835291602001916108de565b820191906000526020600020905b8154815290600101906020018083116108c157829003601f168201915b50505050508152602001878152602001868152602001858152602001848152602001600081526020013373ffffffffffffffffffffffffffffffffffffffff1681525060026000600354815260200190815260200160002060008201518160000155602082015181600101908051906020019061095c92919061192a565b50604082015181600201908051906020019061097992919061192a565b50606082015181600301556080820151816004015560a0820151816005015560c0820151816006015560e082015181600701556101008201518160080160006101000a81548173ffffffffffffffffffffffffffffffffffffffff021916908373ffffffffffffffffffffffffffffffffffffffff160217905550905050610a08868686863387600354610794565b600460003373ffffffffffffffffffffffffffffffffffffffff1673ffffffffffffffffffffffffffffffffffffffff1681526020019081526020016000206000815480929190610a58906129ad565b919050555060036000815480929190610a70906129ad565b91905055506001600354610a849190612841565b905095945050505050565b60606000600460008473ffffffffffffffffffffffffffffffffffffffff1673ffffffffffffffffffffffffffffffffffffffff1681526020019081526020016000205467ffffffffffffffff811115610aec57610aeb612ae1565b5b604051908082528060200260200182016040528015610b2557816020015b610b12611a3d565b815260200190600190039081610b0a5790505b5090506000805b600354811015610db3578473ffffffffffffffffffffffffffffffffffffffff166002600083815260200190815260200160002060080160009054906101000a900473ffffffffffffffffffffffffffffffffffffffff1673ffffffffffffffffffffffffffffffffffffffff161415610da057600260008281526020019081526020016000206040518061012001604052908160008201548152602001600182018054610bd99061294a565b80601f0160208091040260200160405190810160405280929190818152602001828054610c059061294a565b8015610c525780601f10610c2757610100808354040283529160200191610c52565b820191906000526020600020905b815481529060010190602001808311610c3557829003601f168201915b50505050508152602001600282018054610c6b9061294a565b80601f0160208091040260200160405190810160405280929190818152602001828054610c979061294a565b8015610ce45780601f10610cb957610100808354040283529160200191610ce4565b820191906000526020600020905b815481529060010190602001808311610cc757829003601f168201915b5050505050815260200160038201548152602001600482015481526020016005820154815260200160068201548152602001600782015481526020016008820160009054906101000a900473ffffffffffffffffffffffffffffffffffffffff1673ffffffffffffffffffffffffffffffffffffffff1673ffffffffffffffffffffffffffffffffffffffff1681525050838380610d81906129ad565b945081518110610d9457610d93612ab2565b5b60200260200101819052505b8080610dab906129ad565b915050610b2c565b508192505050919050565b60066020528060005260406000206000915090508054610ddd9061294a565b80601f0160208091040260200160405190810160405280929190818152602001828054610e099061294a565b8015610e565780601f10610e2b57610100808354040283529160200191610e56565b820191906000526020600020905b815481529060010190602001808311610e3957829003601f168201915b505050505081565b6006600060026006811115610e7657610e75612a25565b5b6006811115610e8857610e87612a25565b5b815260200190815260200160002060026000610ea384611550565b8152602001908152602001600020600201908054610ec09061294a565b610ecb9291906119b0565b507f315900bbe635fecc5728b8562969ce616fd5ec4c23ec22fc7930c46d826f906d81604051610efb919061246f565b60405180910390a150565b60606000805480602002602001604051908101604052809291908181526020016000905b82821015610fd6578382906000526020600020018054610f499061294a565b80601f0160208091040260200160405190810160405280929190818152602001828054610f759061294a565b8015610fc25780601f10610f9757610100808354040283529160200191610fc2565b820191906000526020600020905b815481529060010190602001808311610fa557829003601f168201915b505050505081526020019060010190610f2a565b50505050905090565b6000600182604051610ff19190612328565b9081526020016040518091039020905042816004015411158015611019575060008160060154145b611058576040517f08c379a000000000000000000000000000000000000000000000000000000000815260040161104f906125d3565b60405180910390fd5b600061106b61106684611628565b61170b565b507fc244ef6abb581fce6ec7f623ffa560ac7d27f787d59020e83a6936bfb9d1d73183826000426040516110a29493929190612423565b60405180910390a1505050565b6111566002600083815260200190815260200160002060010180546110d39061294a565b80601f01602080910402602001604051908101604052809291908181526020018280546110ff9061294a565b801561114c5780601f106111215761010080835404028352916020019161114c565b820191906000526020600020905b81548152906001019060200180831161112f57829003601f168201915b5050505050610fdf565b600660006004600681111561116e5761116d612a25565b5b60068111156111805761117f612a25565b5b8152602001908152602001600020600260008381526020019081526020016000206002019080546111b09061294a565b6111bb9291906119b0565b5050565b6112666002600083815260200190815260200160002060010180546111e39061294a565b80601f016020809104026020016040519081016040528092919081815260200182805461120f9061294a565b801561125c5780601f106112315761010080835404028352916020019161125c565b820191906000526020600020905b81548152906001019060200180831161123f57829003601f168201915b50505050506112ce565b6006600060068081111561127d5761127c612a25565b5b600681111561128f5761128e612a25565b5b8152602001908152602001600020600260008381526020019081526020016000206002019080546112bf9061294a565b6112ca9291906119b0565b5050565b60006001826040516112e09190612328565b9081526020016040518091039020905042816004015411158015611308575060008160060154145b611347576040517f08c379a000000000000000000000000000000000000000000000000000000000815260040161133e906125d3565b60405180910390fd5b60008061136773a39434a63a52e749f02807ae27335515ba4b07f761188c565b91509150818360050181905550600061138761138286611628565b61170b565b507fc244ef6abb581fce6ec7f623ffa560ac7d27f787d59020e83a6936bfb9d1d731858285856040516113bd94939291906123d7565b60405180910390a15050505050565b60035481565b60026020528060005260406000206000915090508060000154908060010180546113fb9061294a565b80601f01602080910402602001604051908101604052809291908181526020018280546114279061294a565b80156114745780601f1061144957610100808354040283529160200191611474565b820191906000526020600020905b81548152906001019060200180831161145757829003601f168201915b5050505050908060020180546114899061294a565b80601f01602080910402602001604051908101604052809291908181526020018280546114b59061294a565b80156115025780601f106114d757610100808354040283529160200191611502565b820191906000526020600020905b8154815290600101906020018083116114e557829003601f168201915b5050505050908060030154908060040154908060050154908060060154908060070154908060080160009054906101000a900473ffffffffffffffffffffffffffffffffffffffff16905089565b600080600090505b6003548110156115e757826040516020016115739190612328565b60405160208183030381529060405280519060200120600260008381526020019081526020016000206001016040516020016115af919061233f565b6040516020818303038152906040528051906020012014156115d45780915050611623565b80806115df906129ad565b915050611558565b506040517f08c379a000000000000000000000000000000000000000000000000000000000815260040161161a906125b3565b60405180910390fd5b919050565b600080600090505b6000805490508110156116ca578260405160200161164e9190612328565b604051602081830303815290604052805190602001206000828154811061167857611677612ab2565b5b90600052602060002001604051602001611692919061233f565b6040516020818303038152906040528051906020012014156116b75780915050611706565b80806116c2906129ad565b915050611630565b506040517f08c379a00000000000000000000000000000000000000000000000000000000081526004016116fd906125b3565b60405180910390fd5b919050565b6060600080549050821061171e57600080fd5b600060016000805490506117329190612841565b8154811061174357611742612ab2565b5b906000526020600020016000838154811061176157611760612ab2565b5b906000526020600020019080546117779061294a565b6117829291906119b0565b50600080548061179557611794612a83565b5b6001900381819060005260206000200160006117b19190611a9f565b90556000805480602002602001604051908101604052809291908181526020016000905b828210156118815783829060005260206000200180546117f49061294a565b80601f01602080910402602001604051908101604052809291908181526020018280546118209061294a565b801561186d5780601f106118425761010080835404028352916020019161186d565b820191906000526020600020905b81548152906001019060200180831161185057829003601f168201915b5050505050815260200190600101906117d5565b505050509050919050565b60008060008390506000808273ffffffffffffffffffffffffffffffffffffffff1663feaf968c6040518163ffffffff1660e01b815260040160a06040518083038186803b1580156118dd57600080fd5b505afa1580156118f1573d6000803e3d6000fd5b505050506040513d601f19601f820116820180604052508101906119159190611e95565b50935050925050818194509450505050915091565b8280546119369061294a565b90600052602060002090601f016020900481019282611958576000855561199f565b82601f1061197157805160ff191683800117855561199f565b8280016001018555821561199f579182015b8281111561199e578251825591602001919060010190611983565b5b5090506119ac9190611adf565b5090565b8280546119bc9061294a565b90600052602060002090601f0160209004810192826119de5760008555611a2c565b82601f106119ef5780548555611a2c565b82800160010185558215611a2c57600052602060002091601f016020900482015b82811115611a2b578254825591600101919060010190611a10565b5b509050611a399190611adf565b5090565b6040518061012001604052806000815260200160608152602001606081526020016000815260200160008152602001600081526020016000815260200160008152602001600073ffffffffffffffffffffffffffffffffffffffff1681525090565b508054611aab9061294a565b6000825580601f10611abd5750611adc565b601f016020900490600052602060002090810190611adb9190611adf565b5b50565b5b80821115611af8576000816000905550600101611ae0565b5090565b6000611b0f611b0a84612751565b61272c565b905082815260208101848484011115611b2b57611b2a612b15565b5b611b36848285612908565b509392505050565b600081359050611b4d81612c16565b92915050565b600081359050611b6281612c2d565b92915050565b600081519050611b7781612c3d565b92915050565b600082601f830112611b9257611b91612b10565b5b8135611ba2848260208601611afc565b91505092915050565b600081359050611bba81612c54565b92915050565b600081519050611bcf81612c54565b92915050565b600081519050611be481612c6b565b92915050565b600060208284031215611c0057611bff612b1f565b5b6000611c0e84828501611b3e565b91505092915050565b600060208284031215611c2d57611c2c612b1f565b5b6000611c3b84828501611b53565b91505092915050565b600060208284031215611c5a57611c59612b1f565b5b600082013567ffffffffffffffff811115611c7857611c77612b1a565b5b611c8484828501611b7d565b91505092915050565b600080600080600080600060e0888a031215611cac57611cab612b1f565b5b600088013567ffffffffffffffff811115611cca57611cc9612b1a565b5b611cd68a828b01611b7d565b9750506020611ce78a828b01611bab565b9650506040611cf88a828b01611bab565b9550506060611d098a828b01611bab565b9450506080611d1a8a828b01611bab565b93505060a0611d2b8a828b01611b3e565b92505060c0611d3c8a828b01611bab565b91505092959891949750929550565b600060208284031215611d6157611d60612b1f565b5b6000611d6f84828501611bab565b91505092915050565b600080600080600080600060e0888a031215611d9757611d96612b1f565b5b6000611da58a828b01611bab565b9750506020611db68a828b01611bab565b9650506040611dc78a828b01611bab565b9550506060611dd88a828b01611bab565b9450506080611de98a828b01611b3e565b93505060a0611dfa8a828b01611bab565b92505060c0611e0b8a828b01611bab565b91505092959891949750929550565b600080600080600060a08688031215611e3657611e35612b1f565b5b6000611e4488828901611bab565b9550506020611e5588828901611bab565b9450506040611e6688828901611bab565b9350506060611e7788828901611bab565b9250506080611e8888828901611bab565b9150509295509295909350565b600080600080600060a08688031215611eb157611eb0612b1f565b5b6000611ebf88828901611bd5565b9550506020611ed088828901611b68565b9450506040611ee188828901611bc0565b9350506060611ef288828901611bc0565b9250506080611f0388828901611bd5565b9150509295509295909350565b6000611f1c838361206d565b905092915050565b6000611f30838361223e565b905092915050565b611f4181612875565b82525050565b611f5081612875565b82525050565b6000611f61826127b7565b611f6b81856127f2565b935083602082028501611f7d85612782565b8060005b85811015611fb95784840389528151611f9a8582611f10565b9450611fa5836127d8565b925060208a01995050600181019050611f81565b50829750879550505050505092915050565b6000611fd6826127c2565b611fe08185612803565b935083602082028501611ff285612792565b8060005b8581101561202e578484038952815161200f8582611f24565b945061201a836127e5565b925060208a01995050600181019050611ff6565b50829750879550505050505092915050565b612049816128e4565b82525050565b6120588161289a565b82525050565b612067816128f6565b82525050565b6000612078826127cd565b6120828185612814565b9350612092818560208601612917565b61209b81612b24565b840191505092915050565b60006120b1826127cd565b6120bb8185612825565b93506120cb818560208601612917565b6120d481612b24565b840191505092915050565b60006120ea826127cd565b6120f48185612836565b9350612104818560208601612917565b80840191505092915050565b6000815461211d8161294a565b6121278186612836565b94506001821660008114612142576001811461215357612186565b60ff19831686528186019350612186565b61215c856127a2565b60005b8381101561217e5781548189015260018201915060208101905061215f565b838801955050505b50505092915050565b600061219c601583612825565b91506121a782612b35565b602082019050919050565b60006121bf600983612825565b91506121ca82612b5e565b602082019050919050565b60006121e2601c83612825565b91506121ed82612b87565b602082019050919050565b6000612205601e83612825565b915061221082612bb0565b602082019050919050565b6000612228601e83612825565b915061223382612bd9565b602082019050919050565b600061012083016000830151612257600086018261230a565b506020830151848203602086015261226f828261206d565b91505060408301518482036040860152612289828261206d565b915050606083015161229e606086018261230a565b5060808301516122b1608086018261230a565b5060a08301516122c460a086018261230a565b5060c08301516122d760c086018261230a565b5060e08301516122ea60e086018261230a565b506101008301516122ff610100860182611f38565b508091505092915050565b612313816128c4565b82525050565b612322816128c4565b82525050565b600061233482846120df565b915081905092915050565b600061234b8284612110565b915081905092915050565b600060208201905081810360008301526123708184611f56565b905092915050565b600060208201905081810360008301526123928184611fcb565b905092915050565b60006020820190506123af6000830184612040565b92915050565b600060208201905081810360008301526123cf81846120a6565b905092915050565b600060808201905081810360008301526123f181876120a6565b9050612400602083018661204f565b61240d604083018561204f565b61241a6060830184612319565b95945050505050565b6000608082019050818103600083015261243d81876120a6565b905061244c602083018661204f565b612459604083018561205e565b6124666060830184612319565b95945050505050565b6000604082019050818103600083015261248981846120a6565b9050818103602083015261249c816121d5565b905092915050565b600060e08201905081810360008301526124be81896120a6565b90506124cd6020830188612319565b6124da6040830187612319565b6124e76060830186612319565b6124f46080830185612319565b61250160a0830184611f47565b81810360c08301526125128161221b565b9050979650505050505050565b600061012082019050818103600083015261253a818c6120a6565b9050612549602083018b612319565b612556604083018a612319565b6125636060830189612319565b6125706080830188612319565b61257d60a083018761204f565b61258a60c0830186612319565b61259760e0830185612319565b6125a5610100830184611f47565b9a9950505050505050505050565b600060208201905081810360008301526125cc816121b2565b9050919050565b600060208201905081810360008301526125ec816121f8565b9050919050565b60006020820190506126086000830184612319565b92915050565b600061012082019050612624600083018c612319565b8181036020830152612636818b6120a6565b9050818103604083015261264a818a6120a6565b90506126596060830189612319565b6126666080830188612319565b61267360a0830187612319565b61268060c0830186612319565b61268d60e0830185612319565b61269b610100830184611f47565b9a9950505050505050505050565b6000610100820190506126bf600083018a612319565b6126cc6020830189612319565b6126d96040830188612319565b6126e66060830187612319565b6126f36080830186611f47565b61270060a0830185612319565b61270d60c0830184612319565b81810360e083015261271e8161218f565b905098975050505050505050565b6000612736612747565b9050612742828261297c565b919050565b6000604051905090565b600067ffffffffffffffff82111561276c5761276b612ae1565b5b61277582612b24565b9050602081019050919050565b6000819050602082019050919050565b6000819050602082019050919050565b60008190508160005260206000209050919050565b600081519050919050565b600081519050919050565b600081519050919050565b6000602082019050919050565b6000602082019050919050565b600082825260208201905092915050565b600082825260208201905092915050565b600082825260208201905092915050565b600082825260208201905092915050565b600081905092915050565b600061284c826128c4565b9150612857836128c4565b92508282101561286a576128696129f6565b5b828203905092915050565b6000612880826128a4565b9050919050565b600081905061289582612c02565b919050565b6000819050919050565b600073ffffffffffffffffffffffffffffffffffffffff82169050919050565b6000819050919050565b600069ffffffffffffffffffff82169050919050565b60006128ef82612887565b9050919050565b60006129018261289a565b9050919050565b82818337600083830152505050565b60005b8381101561293557808201518184015260208101905061291a565b83811115612944576000848401525b50505050565b6000600282049050600182168061296257607f821691505b6020821081141561297657612975612a54565b5b50919050565b61298582612b24565b810181811067ffffffffffffffff821117156129a4576129a3612ae1565b5b80604052505050565b60006129b8826128c4565b91507fffffffffffffffffffffffffffffffffffffffffffffffffffffffffffffffff8214156129eb576129ea6129f6565b5b600182019050919050565b7f4e487b7100000000000000000000000000000000000000000000000000000000600052601160045260246000fd5b7f4e487b7100000000000000000000000000000000000000000000000000000000600052602160045260246000fd5b7f4e487b7100000000000000000000000000000000000000000000000000000000600052602260045260246000fd5b7f4e487b7100000000000000000000000000000000000000000000000000000000600052603160045260246000fd5b7f4e487b7100000000000000000000000000000000000000000000000000000000600052603260045260246000fd5b7f4e487b7100000000000000000000000000000000000000000000000000000000600052604160045260246000fd5b600080fd5b600080fd5b600080fd5b600080fd5b6000601f19601f8301169050919050565b7f646c636c696e6b3a6372656174652d646c633a76300000000000000000000000600082015250565b7f4e6f7420466f756e640000000000000000000000000000000000000000000000600082015250565b7f646c636c696e6b3a7365742d7374617475732d66756e6465643a763000000000600082015250565b7f56616c69646174696f6e206661696c656420666f7220636c6f7365446c630000600082015250565b7f646c636c696e6b3a6372656174652d646c632d696e7465726e616c3a76300000600082015250565b60078110612c1357612c12612a25565b5b50565b612c1f81612875565b8114612c2a57600080fd5b50565b60078110612c3a57600080fd5b50565b612c468161289a565b8114612c5157600080fd5b50565b612c5d816128c4565b8114612c6857600080fd5b50565b612c74816128ce565b8114612c7f57600080fd5b5056fea2646970667358221220cd66498a11da7c9b794d2fa5acb67900f68ea504ff8698b2286edd52d01bba4464736f6c63430008070033",
					"opcodes": "PUSH1 0x80 PUSH1 0x40 MSTORE PUSH1 0x0 PUSH1 0x3 SSTORE CALLVALUE DUP1 ISZERO PUSH3 0x16 JUMPI PUSH1 0x0 DUP1 REVERT JUMPDEST POP PUSH1 0x40 MLOAD DUP1 PUSH1 0x40 ADD PUSH1 0x40 MSTORE DUP1 PUSH1 0x9 DUP2 MSTORE PUSH1 0x20 ADD PUSH32 0x6E6F742D72656164790000000000000000000000000000000000000000000000 DUP2 MSTORE POP PUSH1 0x6 PUSH1 0x0 DUP1 PUSH1 0x6 DUP2 GT ISZERO PUSH3 0x67 JUMPI PUSH3 0x66 PUSH3 0x4C7 JUMP JUMPDEST JUMPDEST PUSH1 0x6 DUP2 GT ISZERO PUSH3 0x7C JUMPI PUSH3 0x7B PUSH3 0x4C7 JUMP JUMPDEST JUMPDEST DUP2 MSTORE PUSH1 0x20 ADD SWAP1 DUP2 MSTORE PUSH1 0x20 ADD PUSH1 0x0 KECCAK256 SWAP1 DUP1 MLOAD SWAP1 PUSH1 0x20 ADD SWAP1 PUSH3 0x9F SWAP3 SWAP2 SWAP1 PUSH3 0x3E1 JUMP JUMPDEST POP PUSH1 0x40 MLOAD DUP1 PUSH1 0x40 ADD PUSH1 0x40 MSTORE DUP1 PUSH1 0x5 DUP2 MSTORE PUSH1 0x20 ADD PUSH32 0x7265616479000000000000000000000000000000000000000000000000000000 DUP2 MSTORE POP PUSH1 0x6 PUSH1 0x0 PUSH1 0x1 PUSH1 0x6 DUP2 GT ISZERO PUSH3 0xF1 JUMPI PUSH3 0xF0 PUSH3 0x4C7 JUMP JUMPDEST JUMPDEST PUSH1 0x6 DUP2 GT ISZERO PUSH3 0x106 JUMPI PUSH3 0x105 PUSH3 0x4C7 JUMP JUMPDEST JUMPDEST DUP2 MSTORE PUSH1 0x20 ADD SWAP1 DUP2 MSTORE PUSH1 0x20 ADD PUSH1 0x0 KECCAK256 SWAP1 DUP1 MLOAD SWAP1 PUSH1 0x20 ADD SWAP1 PUSH3 0x129 SWAP3 SWAP2 SWAP1 PUSH3 0x3E1 JUMP JUMPDEST POP PUSH1 0x40 MLOAD DUP1 PUSH1 0x40 ADD PUSH1 0x40 MSTORE DUP1 PUSH1 0x6 DUP2 MSTORE PUSH1 0x20 ADD PUSH32 0x66756E6465640000000000000000000000000000000000000000000000000000 DUP2 MSTORE POP PUSH1 0x6 PUSH1 0x0 PUSH1 0x2 PUSH1 0x6 DUP2 GT ISZERO PUSH3 0x17B JUMPI PUSH3 0x17A PUSH3 0x4C7 JUMP JUMPDEST JUMPDEST PUSH1 0x6 DUP2 GT ISZERO PUSH3 0x190 JUMPI PUSH3 0x18F PUSH3 0x4C7 JUMP JUMPDEST JUMPDEST DUP2 MSTORE PUSH1 0x20 ADD SWAP1 DUP2 MSTORE PUSH1 0x20 ADD PUSH1 0x0 KECCAK256 SWAP1 DUP1 MLOAD SWAP1 PUSH1 0x20 ADD SWAP1 PUSH3 0x1B3 SWAP3 SWAP2 SWAP1 PUSH3 0x3E1 JUMP JUMPDEST POP PUSH1 0x40 MLOAD DUP1 PUSH1 0x40 ADD PUSH1 0x40 MSTORE DUP1 PUSH1 0xA DUP2 MSTORE PUSH1 0x20 ADD PUSH32 0x7072652D72657061696400000000000000000000000000000000000000000000 DUP2 MSTORE POP PUSH1 0x6 PUSH1 0x0 PUSH1 0x3 PUSH1 0x6 DUP2 GT ISZERO PUSH3 0x205 JUMPI PUSH3 0x204 PUSH3 0x4C7 JUMP JUMPDEST JUMPDEST PUSH1 0x6 DUP2 GT ISZERO PUSH3 0x21A JUMPI PUSH3 0x219 PUSH3 0x4C7 JUMP JUMPDEST JUMPDEST DUP2 MSTORE PUSH1 0x20 ADD SWAP1 DUP2 MSTORE PUSH1 0x20 ADD PUSH1 0x0 KECCAK256 SWAP1 DUP1 MLOAD SWAP1 PUSH1 0x20 ADD SWAP1 PUSH3 0x23D SWAP3 SWAP2 SWAP1 PUSH3 0x3E1 JUMP JUMPDEST POP PUSH1 0x40 MLOAD DUP1 PUSH1 0x40 ADD PUSH1 0x40 MSTORE DUP1 PUSH1 0x6 DUP2 MSTORE PUSH1 0x20 ADD PUSH32 0x7265706169640000000000000000000000000000000000000000000000000000 DUP2 MSTORE POP PUSH1 0x6 PUSH1 0x0 PUSH1 0x4 PUSH1 0x6 DUP2 GT ISZERO PUSH3 0x28F JUMPI PUSH3 0x28E PUSH3 0x4C7 JUMP JUMPDEST JUMPDEST PUSH1 0x6 DUP2 GT ISZERO PUSH3 0x2A4 JUMPI PUSH3 0x2A3 PUSH3 0x4C7 JUMP JUMPDEST JUMPDEST DUP2 MSTORE PUSH1 0x20 ADD SWAP1 DUP2 MSTORE PUSH1 0x20 ADD PUSH1 0x0 KECCAK256 SWAP1 DUP1 MLOAD SWAP1 PUSH1 0x20 ADD SWAP1 PUSH3 0x2C7 SWAP3 SWAP2 SWAP1 PUSH3 0x3E1 JUMP JUMPDEST POP PUSH1 0x40 MLOAD DUP1 PUSH1 0x40 ADD PUSH1 0x40 MSTORE DUP1 PUSH1 0xE DUP2 MSTORE PUSH1 0x20 ADD PUSH32 0x7072652D6C697175696461746564000000000000000000000000000000000000 DUP2 MSTORE POP PUSH1 0x6 PUSH1 0x0 PUSH1 0x5 PUSH1 0x6 DUP2 GT ISZERO PUSH3 0x319 JUMPI PUSH3 0x318 PUSH3 0x4C7 JUMP JUMPDEST JUMPDEST PUSH1 0x6 DUP2 GT ISZERO PUSH3 0x32E JUMPI PUSH3 0x32D PUSH3 0x4C7 JUMP JUMPDEST JUMPDEST DUP2 MSTORE PUSH1 0x20 ADD SWAP1 DUP2 MSTORE PUSH1 0x20 ADD PUSH1 0x0 KECCAK256 SWAP1 DUP1 MLOAD SWAP1 PUSH1 0x20 ADD SWAP1 PUSH3 0x351 SWAP3 SWAP2 SWAP1 PUSH3 0x3E1 JUMP JUMPDEST POP PUSH1 0x40 MLOAD DUP1 PUSH1 0x40 ADD PUSH1 0x40 MSTORE DUP1 PUSH1 0xA DUP2 MSTORE PUSH1 0x20 ADD PUSH32 0x6C69717569646174656400000000000000000000000000000000000000000000 DUP2 MSTORE POP PUSH1 0x6 PUSH1 0x0 PUSH1 0x6 DUP1 DUP2 GT ISZERO PUSH3 0x3A2 JUMPI PUSH3 0x3A1 PUSH3 0x4C7 JUMP JUMPDEST JUMPDEST PUSH1 0x6 DUP2 GT ISZERO PUSH3 0x3B7 JUMPI PUSH3 0x3B6 PUSH3 0x4C7 JUMP JUMPDEST JUMPDEST DUP2 MSTORE PUSH1 0x20 ADD SWAP1 DUP2 MSTORE PUSH1 0x20 ADD PUSH1 0x0 KECCAK256 SWAP1 DUP1 MLOAD SWAP1 PUSH1 0x20 ADD SWAP1 PUSH3 0x3DA SWAP3 SWAP2 SWAP1 PUSH3 0x3E1 JUMP JUMPDEST POP PUSH3 0x525 JUMP JUMPDEST DUP3 DUP1 SLOAD PUSH3 0x3EF SWAP1 PUSH3 0x491 JUMP JUMPDEST SWAP1 PUSH1 0x0 MSTORE PUSH1 0x20 PUSH1 0x0 KECCAK256 SWAP1 PUSH1 0x1F ADD PUSH1 0x20 SWAP1 DIV DUP2 ADD SWAP3 DUP3 PUSH3 0x413 JUMPI PUSH1 0x0 DUP6 SSTORE PUSH3 0x45F JUMP JUMPDEST DUP3 PUSH1 0x1F LT PUSH3 0x42E JUMPI DUP1 MLOAD PUSH1 0xFF NOT AND DUP4 DUP1 ADD OR DUP6 SSTORE PUSH3 0x45F JUMP JUMPDEST DUP3 DUP1 ADD PUSH1 0x1 ADD DUP6 SSTORE DUP3 ISZERO PUSH3 0x45F JUMPI SWAP2 DUP3 ADD JUMPDEST DUP3 DUP2 GT ISZERO PUSH3 0x45E JUMPI DUP3 MLOAD DUP3 SSTORE SWAP2 PUSH1 0x20 ADD SWAP2 SWAP1 PUSH1 0x1 ADD SWAP1 PUSH3 0x441 JUMP JUMPDEST JUMPDEST POP SWAP1 POP PUSH3 0x46E SWAP2 SWAP1 PUSH3 0x472 JUMP JUMPDEST POP SWAP1 JUMP JUMPDEST JUMPDEST DUP1 DUP3 GT ISZERO PUSH3 0x48D JUMPI PUSH1 0x0 DUP2 PUSH1 0x0 SWAP1 SSTORE POP PUSH1 0x1 ADD PUSH3 0x473 JUMP JUMPDEST POP SWAP1 JUMP JUMPDEST PUSH1 0x0 PUSH1 0x2 DUP3 DIV SWAP1 POP PUSH1 0x1 DUP3 AND DUP1 PUSH3 0x4AA JUMPI PUSH1 0x7F DUP3 AND SWAP2 POP JUMPDEST PUSH1 0x20 DUP3 LT DUP2 EQ ISZERO PUSH3 0x4C1 JUMPI PUSH3 0x4C0 PUSH3 0x4F6 JUMP JUMPDEST JUMPDEST POP SWAP2 SWAP1 POP JUMP JUMPDEST PUSH32 0x4E487B7100000000000000000000000000000000000000000000000000000000 PUSH1 0x0 MSTORE PUSH1 0x21 PUSH1 0x4 MSTORE PUSH1 0x24 PUSH1 0x0 REVERT JUMPDEST PUSH32 0x4E487B7100000000000000000000000000000000000000000000000000000000 PUSH1 0x0 MSTORE PUSH1 0x22 PUSH1 0x4 MSTORE PUSH1 0x24 PUSH1 0x0 REVERT JUMPDEST PUSH2 0x2CB8 DUP1 PUSH3 0x535 PUSH1 0x0 CODECOPY PUSH1 0x0 RETURN INVALID PUSH1 0x80 PUSH1 0x40 MSTORE CALLVALUE DUP1 ISZERO PUSH2 0x10 JUMPI PUSH1 0x0 DUP1 REVERT JUMPDEST POP PUSH1 0x4 CALLDATASIZE LT PUSH2 0x10B JUMPI PUSH1 0x0 CALLDATALOAD PUSH1 0xE0 SHR DUP1 PUSH4 0x62E87240 GT PUSH2 0xA2 JUMPI DUP1 PUSH4 0xAB7B1C89 GT PUSH2 0x71 JUMPI DUP1 PUSH4 0xAB7B1C89 EQ PUSH2 0x2E4 JUMPI DUP1 PUSH4 0xCCDD9F5D EQ PUSH2 0x300 JUMPI DUP1 PUSH4 0xD4252CC3 EQ PUSH2 0x31C JUMPI DUP1 PUSH4 0xD463EEB3 EQ PUSH2 0x338 JUMPI DUP1 PUSH4 0xE1EC3C68 EQ PUSH2 0x356 JUMPI PUSH2 0x10B JUMP JUMPDEST DUP1 PUSH4 0x62E87240 EQ PUSH2 0x25E JUMPI DUP1 PUSH4 0x89A12DB4 EQ PUSH2 0x28E JUMPI DUP1 PUSH4 0x8FF37151 EQ PUSH2 0x2AA JUMPI DUP1 PUSH4 0x9E098026 EQ PUSH2 0x2C8 JUMPI PUSH2 0x10B JUMP JUMPDEST DUP1 PUSH4 0x3902FE90 GT PUSH2 0xDE JUMPI DUP1 PUSH4 0x3902FE90 EQ PUSH2 0x1B2 JUMPI DUP1 PUSH4 0x41F5D7CD EQ PUSH2 0x1CE JUMPI DUP1 PUSH4 0x47F8BF1C EQ PUSH2 0x1FE JUMPI DUP1 PUSH4 0x572343F1 EQ PUSH2 0x22E JUMPI PUSH2 0x10B JUMP JUMPDEST DUP1 PUSH4 0xEF2FEFF EQ PUSH2 0x110 JUMPI DUP1 PUSH4 0x200D2ED2 EQ PUSH2 0x148 JUMPI DUP1 PUSH4 0x2E730910 EQ PUSH2 0x166 JUMPI DUP1 PUSH4 0x35DD76CE EQ PUSH2 0x196 JUMPI JUMPDEST PUSH1 0x0 DUP1 REVERT JUMPDEST PUSH2 0x12A PUSH1 0x4 DUP1 CALLDATASIZE SUB DUP2 ADD SWAP1 PUSH2 0x125 SWAP2 SWAP1 PUSH2 0x1C44 JUMP JUMPDEST PUSH2 0x38E JUMP JUMPDEST PUSH1 0x40 MLOAD PUSH2 0x13F SWAP10 SWAP9 SWAP8 SWAP7 SWAP6 SWAP5 SWAP4 SWAP3 SWAP2 SWAP1 PUSH2 0x251F JUMP JUMPDEST PUSH1 0x40 MLOAD DUP1 SWAP2 SUB SWAP1 RETURN JUMPDEST PUSH2 0x150 PUSH2 0x49A JUMP JUMPDEST PUSH1 0x40 MLOAD PUSH2 0x15D SWAP2 SWAP1 PUSH2 0x239A JUMP JUMPDEST PUSH1 0x40 MLOAD DUP1 SWAP2 SUB SWAP1 RETURN JUMPDEST PUSH2 0x180 PUSH1 0x4 DUP1 CALLDATASIZE SUB DUP2 ADD SWAP1 PUSH2 0x17B SWAP2 SWAP1 PUSH2 0x1D4B JUMP JUMPDEST PUSH2 0x4AD JUMP JUMPDEST PUSH1 0x40 MLOAD PUSH2 0x18D SWAP2 SWAP1 PUSH2 0x23B5 JUMP JUMPDEST PUSH1 0x40 MLOAD DUP1 SWAP2 SUB SWAP1 RETURN JUMPDEST PUSH2 0x1B0 PUSH1 0x4 DUP1 CALLDATASIZE SUB DUP2 ADD SWAP1 PUSH2 0x1AB SWAP2 SWAP1 PUSH2 0x1C8D JUMP JUMPDEST PUSH2 0x559 JUMP JUMPDEST STOP JUMPDEST PUSH2 0x1CC PUSH1 0x4 DUP1 CALLDATASIZE SUB DUP2 ADD SWAP1 PUSH2 0x1C7 SWAP2 SWAP1 PUSH2 0x1D78 JUMP JUMPDEST PUSH2 0x794 JUMP JUMPDEST STOP JUMPDEST PUSH2 0x1E8 PUSH1 0x4 DUP1 CALLDATASIZE SUB DUP2 ADD SWAP1 PUSH2 0x1E3 SWAP2 SWAP1 PUSH2 0x1BEA JUMP JUMPDEST PUSH2 0x7E0 JUMP JUMPDEST PUSH1 0x40 MLOAD PUSH2 0x1F5 SWAP2 SWAP1 PUSH2 0x25F3 JUMP JUMPDEST PUSH1 0x40 MLOAD DUP1 SWAP2 SUB SWAP1 RETURN JUMPDEST PUSH2 0x218 PUSH1 0x4 DUP1 CALLDATASIZE SUB DUP2 ADD SWAP1 PUSH2 0x213 SWAP2 SWAP1 PUSH2 0x1E1A JUMP JUMPDEST PUSH2 0x7F8 JUMP JUMPDEST PUSH1 0x40 MLOAD PUSH2 0x225 SWAP2 SWAP1 PUSH2 0x25F3 JUMP JUMPDEST PUSH1 0x40 MLOAD DUP1 SWAP2 SUB SWAP1 RETURN JUMPDEST PUSH2 0x248 PUSH1 0x4 DUP1 CALLDATASIZE SUB DUP2 ADD SWAP1 PUSH2 0x243 SWAP2 SWAP1 PUSH2 0x1BEA JUMP JUMPDEST PUSH2 0xA8F JUMP JUMPDEST PUSH1 0x40 MLOAD PUSH2 0x255 SWAP2 SWAP1 PUSH2 0x2378 JUMP JUMPDEST PUSH1 0x40 MLOAD DUP1 SWAP2 SUB SWAP1 RETURN JUMPDEST PUSH2 0x278 PUSH1 0x4 DUP1 CALLDATASIZE SUB DUP2 ADD SWAP1 PUSH2 0x273 SWAP2 SWAP1 PUSH2 0x1C17 JUMP JUMPDEST PUSH2 0xDBE JUMP JUMPDEST PUSH1 0x40 MLOAD PUSH2 0x285 SWAP2 SWAP1 PUSH2 0x23B5 JUMP JUMPDEST PUSH1 0x40 MLOAD DUP1 SWAP2 SUB SWAP1 RETURN JUMPDEST PUSH2 0x2A8 PUSH1 0x4 DUP1 CALLDATASIZE SUB DUP2 ADD SWAP1 PUSH2 0x2A3 SWAP2 SWAP1 PUSH2 0x1C44 JUMP JUMPDEST PUSH2 0xE5E JUMP JUMPDEST STOP JUMPDEST PUSH2 0x2B2 PUSH2 0xF06 JUMP JUMPDEST PUSH1 0x40 MLOAD PUSH2 0x2BF SWAP2 SWAP1 PUSH2 0x2356 JUMP JUMPDEST PUSH1 0x40 MLOAD DUP1 SWAP2 SUB SWAP1 RETURN JUMPDEST PUSH2 0x2E2 PUSH1 0x4 DUP1 CALLDATASIZE SUB DUP2 ADD SWAP1 PUSH2 0x2DD SWAP2 SWAP1 PUSH2 0x1C44 JUMP JUMPDEST PUSH2 0xFDF JUMP JUMPDEST STOP JUMPDEST PUSH2 0x2FE PUSH1 0x4 DUP1 CALLDATASIZE SUB DUP2 ADD SWAP1 PUSH2 0x2F9 SWAP2 SWAP1 PUSH2 0x1D4B JUMP JUMPDEST PUSH2 0x10AF JUMP JUMPDEST STOP JUMPDEST PUSH2 0x31A PUSH1 0x4 DUP1 CALLDATASIZE SUB DUP2 ADD SWAP1 PUSH2 0x315 SWAP2 SWAP1 PUSH2 0x1D4B JUMP JUMPDEST PUSH2 0x11BF JUMP JUMPDEST STOP JUMPDEST PUSH2 0x336 PUSH1 0x4 DUP1 CALLDATASIZE SUB DUP2 ADD SWAP1 PUSH2 0x331 SWAP2 SWAP1 PUSH2 0x1C44 JUMP JUMPDEST PUSH2 0x12CE JUMP JUMPDEST STOP JUMPDEST PUSH2 0x340 PUSH2 0x13CC JUMP JUMPDEST PUSH1 0x40 MLOAD PUSH2 0x34D SWAP2 SWAP1 PUSH2 0x25F3 JUMP JUMPDEST PUSH1 0x40 MLOAD DUP1 SWAP2 SUB SWAP1 RETURN JUMPDEST PUSH2 0x370 PUSH1 0x4 DUP1 CALLDATASIZE SUB DUP2 ADD SWAP1 PUSH2 0x36B SWAP2 SWAP1 PUSH2 0x1D4B JUMP JUMPDEST PUSH2 0x13D2 JUMP JUMPDEST PUSH1 0x40 MLOAD PUSH2 0x385 SWAP10 SWAP9 SWAP8 SWAP7 SWAP6 SWAP5 SWAP4 SWAP3 SWAP2 SWAP1 PUSH2 0x260E JUMP JUMPDEST PUSH1 0x40 MLOAD DUP1 SWAP2 SUB SWAP1 RETURN JUMPDEST PUSH1 0x1 DUP2 DUP1 MLOAD PUSH1 0x20 DUP2 ADD DUP3 ADD DUP1 MLOAD DUP5 DUP3 MSTORE PUSH1 0x20 DUP4 ADD PUSH1 0x20 DUP6 ADD KECCAK256 DUP2 DUP4 MSTORE DUP1 SWAP6 POP POP POP POP POP POP PUSH1 0x0 SWAP2 POP SWAP1 POP DUP1 PUSH1 0x0 ADD DUP1 SLOAD PUSH2 0x3C7 SWAP1 PUSH2 0x294A JUMP JUMPDEST DUP1 PUSH1 0x1F ADD PUSH1 0x20 DUP1 SWAP2 DIV MUL PUSH1 0x20 ADD PUSH1 0x40 MLOAD SWAP1 DUP2 ADD PUSH1 0x40 MSTORE DUP1 SWAP3 SWAP2 SWAP1 DUP2 DUP2 MSTORE PUSH1 0x20 ADD DUP3 DUP1 SLOAD PUSH2 0x3F3 SWAP1 PUSH2 0x294A JUMP JUMPDEST DUP1 ISZERO PUSH2 0x440 JUMPI DUP1 PUSH1 0x1F LT PUSH2 0x415 JUMPI PUSH2 0x100 DUP1 DUP4 SLOAD DIV MUL DUP4 MSTORE SWAP2 PUSH1 0x20 ADD SWAP2 PUSH2 0x440 JUMP JUMPDEST DUP3 ADD SWAP2 SWAP1 PUSH1 0x0 MSTORE PUSH1 0x20 PUSH1 0x0 KECCAK256 SWAP1 JUMPDEST DUP2 SLOAD DUP2 MSTORE SWAP1 PUSH1 0x1 ADD SWAP1 PUSH1 0x20 ADD DUP1 DUP4 GT PUSH2 0x423 JUMPI DUP3 SWAP1 SUB PUSH1 0x1F AND DUP3 ADD SWAP2 JUMPDEST POP POP POP POP POP SWAP1 DUP1 PUSH1 0x1 ADD SLOAD SWAP1 DUP1 PUSH1 0x2 ADD SLOAD SWAP1 DUP1 PUSH1 0x3 ADD SLOAD SWAP1 DUP1 PUSH1 0x4 ADD SLOAD SWAP1 DUP1 PUSH1 0x5 ADD SLOAD SWAP1 DUP1 PUSH1 0x6 ADD SLOAD SWAP1 DUP1 PUSH1 0x7 ADD SLOAD SWAP1 DUP1 PUSH1 0x8 ADD PUSH1 0x0 SWAP1 SLOAD SWAP1 PUSH2 0x100 EXP SWAP1 DIV PUSH20 0xFFFFFFFFFFFFFFFFFFFFFFFFFFFFFFFFFFFFFFFF AND SWAP1 POP DUP10 JUMP JUMPDEST PUSH1 0x5 PUSH1 0x0 SWAP1 SLOAD SWAP1 PUSH2 0x100 EXP SWAP1 DIV PUSH1 0xFF AND DUP2 JUMP JUMPDEST PUSH1 0x0 DUP2 DUP2 SLOAD DUP2 LT PUSH2 0x4BD JUMPI PUSH1 0x0 DUP1 REVERT JUMPDEST SWAP1 PUSH1 0x0 MSTORE PUSH1 0x20 PUSH1 0x0 KECCAK256 ADD PUSH1 0x0 SWAP2 POP SWAP1 POP DUP1 SLOAD PUSH2 0x4D8 SWAP1 PUSH2 0x294A JUMP JUMPDEST DUP1 PUSH1 0x1F ADD PUSH1 0x20 DUP1 SWAP2 DIV MUL PUSH1 0x20 ADD PUSH1 0x40 MLOAD SWAP1 DUP2 ADD PUSH1 0x40 MSTORE DUP1 SWAP3 SWAP2 SWAP1 DUP2 DUP2 MSTORE PUSH1 0x20 ADD DUP3 DUP1 SLOAD PUSH2 0x504 SWAP1 PUSH2 0x294A JUMP JUMPDEST DUP1 ISZERO PUSH2 0x551 JUMPI DUP1 PUSH1 0x1F LT PUSH2 0x526 JUMPI PUSH2 0x100 DUP1 DUP4 SLOAD DIV MUL DUP4 MSTORE SWAP2 PUSH1 0x20 ADD SWAP2 PUSH2 0x551 JUMP JUMPDEST DUP3 ADD SWAP2 SWAP1 PUSH1 0x0 MSTORE PUSH1 0x20 PUSH1 0x0 KECCAK256 SWAP1 JUMPDEST DUP2 SLOAD DUP2 MSTORE SWAP1 PUSH1 0x1 ADD SWAP1 PUSH1 0x20 ADD DUP1 DUP4 GT PUSH2 0x534 JUMPI DUP3 SWAP1 SUB PUSH1 0x1F AND DUP3 ADD SWAP2 JUMPDEST POP POP POP POP POP DUP2 JUMP JUMPDEST PUSH1 0x40 MLOAD DUP1 PUSH2 0x120 ADD PUSH1 0x40 MSTORE DUP1 DUP9 DUP2 MSTORE PUSH1 0x20 ADD DUP8 DUP2 MSTORE PUSH1 0x20 ADD DUP7 DUP2 MSTORE PUSH1 0x20 ADD DUP6 DUP2 MSTORE PUSH1 0x20 ADD DUP5 DUP2 MSTORE PUSH1 0x20 ADD PUSH1 0x0 DUP2 MSTORE PUSH1 0x20 ADD PUSH1 0x0 DUP2 MSTORE PUSH1 0x20 ADD DUP5 DUP2 MSTORE PUSH1 0x20 ADD DUP4 PUSH20 0xFFFFFFFFFFFFFFFFFFFFFFFFFFFFFFFFFFFFFFFF AND DUP2 MSTORE POP PUSH1 0x1 DUP9 PUSH1 0x40 MLOAD PUSH2 0x5C1 SWAP2 SWAP1 PUSH2 0x2328 JUMP JUMPDEST SWAP1 DUP2 MSTORE PUSH1 0x20 ADD PUSH1 0x40 MLOAD DUP1 SWAP2 SUB SWAP1 KECCAK256 PUSH1 0x0 DUP3 ADD MLOAD DUP2 PUSH1 0x0 ADD SWAP1 DUP1 MLOAD SWAP1 PUSH1 0x20 ADD SWAP1 PUSH2 0x5EB SWAP3 SWAP2 SWAP1 PUSH2 0x192A JUMP JUMPDEST POP PUSH1 0x20 DUP3 ADD MLOAD DUP2 PUSH1 0x1 ADD SSTORE PUSH1 0x40 DUP3 ADD MLOAD DUP2 PUSH1 0x2 ADD SSTORE PUSH1 0x60 DUP3 ADD MLOAD DUP2 PUSH1 0x3 ADD SSTORE PUSH1 0x80 DUP3 ADD MLOAD DUP2 PUSH1 0x4 ADD SSTORE PUSH1 0xA0 DUP3 ADD MLOAD DUP2 PUSH1 0x5 ADD SSTORE PUSH1 0xC0 DUP3 ADD MLOAD DUP2 PUSH1 0x6 ADD SSTORE PUSH1 0xE0 DUP3 ADD MLOAD DUP2 PUSH1 0x7 ADD SSTORE PUSH2 0x100 DUP3 ADD MLOAD DUP2 PUSH1 0x8 ADD PUSH1 0x0 PUSH2 0x100 EXP DUP2 SLOAD DUP2 PUSH20 0xFFFFFFFFFFFFFFFFFFFFFFFFFFFFFFFFFFFFFFFF MUL NOT AND SWAP1 DUP4 PUSH20 0xFFFFFFFFFFFFFFFFFFFFFFFFFFFFFFFFFFFFFFFF AND MUL OR SWAP1 SSTORE POP SWAP1 POP POP PUSH1 0x0 DUP8 SWAP1 DUP1 PUSH1 0x1 DUP2 SLOAD ADD DUP1 DUP3 SSTORE DUP1 SWAP2 POP POP PUSH1 0x1 SWAP1 SUB SWAP1 PUSH1 0x0 MSTORE PUSH1 0x20 PUSH1 0x0 KECCAK256 ADD PUSH1 0x0 SWAP1 SWAP2 SWAP1 SWAP2 SWAP1 SWAP2 POP SWAP1 DUP1 MLOAD SWAP1 PUSH1 0x20 ADD SWAP1 PUSH2 0x6B8 SWAP3 SWAP2 SWAP1 PUSH2 0x192A JUMP JUMPDEST POP DUP7 PUSH1 0x2 PUSH1 0x0 DUP4 DUP2 MSTORE PUSH1 0x20 ADD SWAP1 DUP2 MSTORE PUSH1 0x20 ADD PUSH1 0x0 KECCAK256 PUSH1 0x1 ADD SWAP1 DUP1 MLOAD SWAP1 PUSH1 0x20 ADD SWAP1 PUSH2 0x6E3 SWAP3 SWAP2 SWAP1 PUSH2 0x192A JUMP JUMPDEST POP PUSH1 0x6 PUSH1 0x0 PUSH1 0x1 PUSH1 0x6 DUP2 GT ISZERO PUSH2 0x6FC JUMPI PUSH2 0x6FB PUSH2 0x2A25 JUMP JUMPDEST JUMPDEST PUSH1 0x6 DUP2 GT ISZERO PUSH2 0x70E JUMPI PUSH2 0x70D PUSH2 0x2A25 JUMP JUMPDEST JUMPDEST DUP2 MSTORE PUSH1 0x20 ADD SWAP1 DUP2 MSTORE PUSH1 0x20 ADD PUSH1 0x0 KECCAK256 PUSH1 0x2 PUSH1 0x0 DUP4 DUP2 MSTORE PUSH1 0x20 ADD SWAP1 DUP2 MSTORE PUSH1 0x20 ADD PUSH1 0x0 KECCAK256 PUSH1 0x2 ADD SWAP1 DUP1 SLOAD PUSH2 0x73E SWAP1 PUSH2 0x294A JUMP JUMPDEST PUSH2 0x749 SWAP3 SWAP2 SWAP1 PUSH2 0x19B0 JUMP JUMPDEST POP PUSH32 0xCD8F439D8F2ACFCF615CA81A06950B502D3931221C697BD53D5D1C06A88D9965 DUP8 DUP8 DUP8 DUP8 DUP8 DUP8 PUSH1 0x40 MLOAD PUSH2 0x783 SWAP7 SWAP6 SWAP5 SWAP4 SWAP3 SWAP2 SWAP1 PUSH2 0x24A4 JUMP JUMPDEST PUSH1 0x40 MLOAD DUP1 SWAP2 SUB SWAP1 LOG1 POP POP POP POP POP POP POP JUMP JUMPDEST PUSH32 0x4DF421C7B448AFA81019B53A86A0489CED7B8B4C57F454DBA77ACED8B710FB8D DUP8 DUP8 DUP8 DUP8 DUP8 DUP8 DUP8 PUSH1 0x40 MLOAD PUSH2 0x7CF SWAP8 SWAP7 SWAP6 SWAP5 SWAP4 SWAP3 SWAP2 SWAP1 PUSH2 0x26A9 JUMP JUMPDEST PUSH1 0x40 MLOAD DUP1 SWAP2 SUB SWAP1 LOG1 POP POP POP POP POP POP POP JUMP JUMPDEST PUSH1 0x4 PUSH1 0x20 MSTORE DUP1 PUSH1 0x0 MSTORE PUSH1 0x40 PUSH1 0x0 KECCAK256 PUSH1 0x0 SWAP2 POP SWAP1 POP SLOAD DUP2 JUMP JUMPDEST PUSH1 0x0 PUSH1 0x40 MLOAD DUP1 PUSH2 0x120 ADD PUSH1 0x40 MSTORE DUP1 PUSH1 0x3 SLOAD DUP2 MSTORE PUSH1 0x20 ADD PUSH1 0x40 MLOAD DUP1 PUSH1 0x20 ADD PUSH1 0x40 MSTORE DUP1 PUSH1 0x0 DUP2 MSTORE POP DUP2 MSTORE PUSH1 0x20 ADD PUSH1 0x6 PUSH1 0x0 DUP1 PUSH1 0x6 DUP2 GT ISZERO PUSH2 0x83A JUMPI PUSH2 0x839 PUSH2 0x2A25 JUMP JUMPDEST JUMPDEST PUSH1 0x6 DUP2 GT ISZERO PUSH2 0x84C JUMPI PUSH2 0x84B PUSH2 0x2A25 JUMP JUMPDEST JUMPDEST DUP2 MSTORE PUSH1 0x20 ADD SWAP1 DUP2 MSTORE PUSH1 0x20 ADD PUSH1 0x0 KECCAK256 DUP1 SLOAD PUSH2 0x865 SWAP1 PUSH2 0x294A JUMP JUMPDEST DUP1 PUSH1 0x1F ADD PUSH1 0x20 DUP1 SWAP2 DIV MUL PUSH1 0x20 ADD PUSH1 0x40 MLOAD SWAP1 DUP2 ADD PUSH1 0x40 MSTORE DUP1 SWAP3 SWAP2 SWAP1 DUP2 DUP2 MSTORE PUSH1 0x20 ADD DUP3 DUP1 SLOAD PUSH2 0x891 SWAP1 PUSH2 0x294A JUMP JUMPDEST DUP1 ISZERO PUSH2 0x8DE JUMPI DUP1 PUSH1 0x1F LT PUSH2 0x8B3 JUMPI PUSH2 0x100 DUP1 DUP4 SLOAD DIV MUL DUP4 MSTORE SWAP2 PUSH1 0x20 ADD SWAP2 PUSH2 0x8DE JUMP JUMPDEST DUP3 ADD SWAP2 SWAP1 PUSH1 0x0 MSTORE PUSH1 0x20 PUSH1 0x0 KECCAK256 SWAP1 JUMPDEST DUP2 SLOAD DUP2 MSTORE SWAP1 PUSH1 0x1 ADD SWAP1 PUSH1 0x20 ADD DUP1 DUP4 GT PUSH2 0x8C1 JUMPI DUP3 SWAP1 SUB PUSH1 0x1F AND DUP3 ADD SWAP2 JUMPDEST POP POP POP POP POP DUP2 MSTORE PUSH1 0x20 ADD DUP8 DUP2 MSTORE PUSH1 0x20 ADD DUP7 DUP2 MSTORE PUSH1 0x20 ADD DUP6 DUP2 MSTORE PUSH1 0x20 ADD DUP5 DUP2 MSTORE PUSH1 0x20 ADD PUSH1 0x0 DUP2 MSTORE PUSH1 0x20 ADD CALLER PUSH20 0xFFFFFFFFFFFFFFFFFFFFFFFFFFFFFFFFFFFFFFFF AND DUP2 MSTORE POP PUSH1 0x2 PUSH1 0x0 PUSH1 0x3 SLOAD DUP2 MSTORE PUSH1 0x20 ADD SWAP1 DUP2 MSTORE PUSH1 0x20 ADD PUSH1 0x0 KECCAK256 PUSH1 0x0 DUP3 ADD MLOAD DUP2 PUSH1 0x0 ADD SSTORE PUSH1 0x20 DUP3 ADD MLOAD DUP2 PUSH1 0x1 ADD SWAP1 DUP1 MLOAD SWAP1 PUSH1 0x20 ADD SWAP1 PUSH2 0x95C SWAP3 SWAP2 SWAP1 PUSH2 0x192A JUMP JUMPDEST POP PUSH1 0x40 DUP3 ADD MLOAD DUP2 PUSH1 0x2 ADD SWAP1 DUP1 MLOAD SWAP1 PUSH1 0x20 ADD SWAP1 PUSH2 0x979 SWAP3 SWAP2 SWAP1 PUSH2 0x192A JUMP JUMPDEST POP PUSH1 0x60 DUP3 ADD MLOAD DUP2 PUSH1 0x3 ADD SSTORE PUSH1 0x80 DUP3 ADD MLOAD DUP2 PUSH1 0x4 ADD SSTORE PUSH1 0xA0 DUP3 ADD MLOAD DUP2 PUSH1 0x5 ADD SSTORE PUSH1 0xC0 DUP3 ADD MLOAD DUP2 PUSH1 0x6 ADD SSTORE PUSH1 0xE0 DUP3 ADD MLOAD DUP2 PUSH1 0x7 ADD SSTORE PUSH2 0x100 DUP3 ADD MLOAD DUP2 PUSH1 0x8 ADD PUSH1 0x0 PUSH2 0x100 EXP DUP2 SLOAD DUP2 PUSH20 0xFFFFFFFFFFFFFFFFFFFFFFFFFFFFFFFFFFFFFFFF MUL NOT AND SWAP1 DUP4 PUSH20 0xFFFFFFFFFFFFFFFFFFFFFFFFFFFFFFFFFFFFFFFF AND MUL OR SWAP1 SSTORE POP SWAP1 POP POP PUSH2 0xA08 DUP7 DUP7 DUP7 DUP7 CALLER DUP8 PUSH1 0x3 SLOAD PUSH2 0x794 JUMP JUMPDEST PUSH1 0x4 PUSH1 0x0 CALLER PUSH20 0xFFFFFFFFFFFFFFFFFFFFFFFFFFFFFFFFFFFFFFFF AND PUSH20 0xFFFFFFFFFFFFFFFFFFFFFFFFFFFFFFFFFFFFFFFF AND DUP2 MSTORE PUSH1 0x20 ADD SWAP1 DUP2 MSTORE PUSH1 0x20 ADD PUSH1 0x0 KECCAK256 PUSH1 0x0 DUP2 SLOAD DUP1 SWAP3 SWAP2 SWAP1 PUSH2 0xA58 SWAP1 PUSH2 0x29AD JUMP JUMPDEST SWAP2 SWAP1 POP SSTORE POP PUSH1 0x3 PUSH1 0x0 DUP2 SLOAD DUP1 SWAP3 SWAP2 SWAP1 PUSH2 0xA70 SWAP1 PUSH2 0x29AD JUMP JUMPDEST SWAP2 SWAP1 POP SSTORE POP PUSH1 0x1 PUSH1 0x3 SLOAD PUSH2 0xA84 SWAP2 SWAP1 PUSH2 0x2841 JUMP JUMPDEST SWAP1 POP SWAP6 SWAP5 POP POP POP POP POP JUMP JUMPDEST PUSH1 0x60 PUSH1 0x0 PUSH1 0x4 PUSH1 0x0 DUP5 PUSH20 0xFFFFFFFFFFFFFFFFFFFFFFFFFFFFFFFFFFFFFFFF AND PUSH20 0xFFFFFFFFFFFFFFFFFFFFFFFFFFFFFFFFFFFFFFFF AND DUP2 MSTORE PUSH1 0x20 ADD SWAP1 DUP2 MSTORE PUSH1 0x20 ADD PUSH1 0x0 KECCAK256 SLOAD PUSH8 0xFFFFFFFFFFFFFFFF DUP2 GT ISZERO PUSH2 0xAEC JUMPI PUSH2 0xAEB PUSH2 0x2AE1 JUMP JUMPDEST JUMPDEST PUSH1 0x40 MLOAD SWAP1 DUP1 DUP3 MSTORE DUP1 PUSH1 0x20 MUL PUSH1 0x20 ADD DUP3 ADD PUSH1 0x40 MSTORE DUP1 ISZERO PUSH2 0xB25 JUMPI DUP2 PUSH1 0x20 ADD JUMPDEST PUSH2 0xB12 PUSH2 0x1A3D JUMP JUMPDEST DUP2 MSTORE PUSH1 0x20 ADD SWAP1 PUSH1 0x1 SWAP1 SUB SWAP1 DUP2 PUSH2 0xB0A JUMPI SWAP1 POP JUMPDEST POP SWAP1 POP PUSH1 0x0 DUP1 JUMPDEST PUSH1 0x3 SLOAD DUP2 LT ISZERO PUSH2 0xDB3 JUMPI DUP5 PUSH20 0xFFFFFFFFFFFFFFFFFFFFFFFFFFFFFFFFFFFFFFFF AND PUSH1 0x2 PUSH1 0x0 DUP4 DUP2 MSTORE PUSH1 0x20 ADD SWAP1 DUP2 MSTORE PUSH1 0x20 ADD PUSH1 0x0 KECCAK256 PUSH1 0x8 ADD PUSH1 0x0 SWAP1 SLOAD SWAP1 PUSH2 0x100 EXP SWAP1 DIV PUSH20 0xFFFFFFFFFFFFFFFFFFFFFFFFFFFFFFFFFFFFFFFF AND PUSH20 0xFFFFFFFFFFFFFFFFFFFFFFFFFFFFFFFFFFFFFFFF AND EQ ISZERO PUSH2 0xDA0 JUMPI PUSH1 0x2 PUSH1 0x0 DUP3 DUP2 MSTORE PUSH1 0x20 ADD SWAP1 DUP2 MSTORE PUSH1 0x20 ADD PUSH1 0x0 KECCAK256 PUSH1 0x40 MLOAD DUP1 PUSH2 0x120 ADD PUSH1 0x40 MSTORE SWAP1 DUP2 PUSH1 0x0 DUP3 ADD SLOAD DUP2 MSTORE PUSH1 0x20 ADD PUSH1 0x1 DUP3 ADD DUP1 SLOAD PUSH2 0xBD9 SWAP1 PUSH2 0x294A JUMP JUMPDEST DUP1 PUSH1 0x1F ADD PUSH1 0x20 DUP1 SWAP2 DIV MUL PUSH1 0x20 ADD PUSH1 0x40 MLOAD SWAP1 DUP2 ADD PUSH1 0x40 MSTORE DUP1 SWAP3 SWAP2 SWAP1 DUP2 DUP2 MSTORE PUSH1 0x20 ADD DUP3 DUP1 SLOAD PUSH2 0xC05 SWAP1 PUSH2 0x294A JUMP JUMPDEST DUP1 ISZERO PUSH2 0xC52 JUMPI DUP1 PUSH1 0x1F LT PUSH2 0xC27 JUMPI PUSH2 0x100 DUP1 DUP4 SLOAD DIV MUL DUP4 MSTORE SWAP2 PUSH1 0x20 ADD SWAP2 PUSH2 0xC52 JUMP JUMPDEST DUP3 ADD SWAP2 SWAP1 PUSH1 0x0 MSTORE PUSH1 0x20 PUSH1 0x0 KECCAK256 SWAP1 JUMPDEST DUP2 SLOAD DUP2 MSTORE SWAP1 PUSH1 0x1 ADD SWAP1 PUSH1 0x20 ADD DUP1 DUP4 GT PUSH2 0xC35 JUMPI DUP3 SWAP1 SUB PUSH1 0x1F AND DUP3 ADD SWAP2 JUMPDEST POP POP POP POP POP DUP2 MSTORE PUSH1 0x20 ADD PUSH1 0x2 DUP3 ADD DUP1 SLOAD PUSH2 0xC6B SWAP1 PUSH2 0x294A JUMP JUMPDEST DUP1 PUSH1 0x1F ADD PUSH1 0x20 DUP1 SWAP2 DIV MUL PUSH1 0x20 ADD PUSH1 0x40 MLOAD SWAP1 DUP2 ADD PUSH1 0x40 MSTORE DUP1 SWAP3 SWAP2 SWAP1 DUP2 DUP2 MSTORE PUSH1 0x20 ADD DUP3 DUP1 SLOAD PUSH2 0xC97 SWAP1 PUSH2 0x294A JUMP JUMPDEST DUP1 ISZERO PUSH2 0xCE4 JUMPI DUP1 PUSH1 0x1F LT PUSH2 0xCB9 JUMPI PUSH2 0x100 DUP1 DUP4 SLOAD DIV MUL DUP4 MSTORE SWAP2 PUSH1 0x20 ADD SWAP2 PUSH2 0xCE4 JUMP JUMPDEST DUP3 ADD SWAP2 SWAP1 PUSH1 0x0 MSTORE PUSH1 0x20 PUSH1 0x0 KECCAK256 SWAP1 JUMPDEST DUP2 SLOAD DUP2 MSTORE SWAP1 PUSH1 0x1 ADD SWAP1 PUSH1 0x20 ADD DUP1 DUP4 GT PUSH2 0xCC7 JUMPI DUP3 SWAP1 SUB PUSH1 0x1F AND DUP3 ADD SWAP2 JUMPDEST POP POP POP POP POP DUP2 MSTORE PUSH1 0x20 ADD PUSH1 0x3 DUP3 ADD SLOAD DUP2 MSTORE PUSH1 0x20 ADD PUSH1 0x4 DUP3 ADD SLOAD DUP2 MSTORE PUSH1 0x20 ADD PUSH1 0x5 DUP3 ADD SLOAD DUP2 MSTORE PUSH1 0x20 ADD PUSH1 0x6 DUP3 ADD SLOAD DUP2 MSTORE PUSH1 0x20 ADD PUSH1 0x7 DUP3 ADD SLOAD DUP2 MSTORE PUSH1 0x20 ADD PUSH1 0x8 DUP3 ADD PUSH1 0x0 SWAP1 SLOAD SWAP1 PUSH2 0x100 EXP SWAP1 DIV PUSH20 0xFFFFFFFFFFFFFFFFFFFFFFFFFFFFFFFFFFFFFFFF AND PUSH20 0xFFFFFFFFFFFFFFFFFFFFFFFFFFFFFFFFFFFFFFFF AND PUSH20 0xFFFFFFFFFFFFFFFFFFFFFFFFFFFFFFFFFFFFFFFF AND DUP2 MSTORE POP POP DUP4 DUP4 DUP1 PUSH2 0xD81 SWAP1 PUSH2 0x29AD JUMP JUMPDEST SWAP5 POP DUP2 MLOAD DUP2 LT PUSH2 0xD94 JUMPI PUSH2 0xD93 PUSH2 0x2AB2 JUMP JUMPDEST JUMPDEST PUSH1 0x20 MUL PUSH1 0x20 ADD ADD DUP2 SWAP1 MSTORE POP JUMPDEST DUP1 DUP1 PUSH2 0xDAB SWAP1 PUSH2 0x29AD JUMP JUMPDEST SWAP2 POP POP PUSH2 0xB2C JUMP JUMPDEST POP DUP2 SWAP3 POP POP POP SWAP2 SWAP1 POP JUMP JUMPDEST PUSH1 0x6 PUSH1 0x20 MSTORE DUP1 PUSH1 0x0 MSTORE PUSH1 0x40 PUSH1 0x0 KECCAK256 PUSH1 0x0 SWAP2 POP SWAP1 POP DUP1 SLOAD PUSH2 0xDDD SWAP1 PUSH2 0x294A JUMP JUMPDEST DUP1 PUSH1 0x1F ADD PUSH1 0x20 DUP1 SWAP2 DIV MUL PUSH1 0x20 ADD PUSH1 0x40 MLOAD SWAP1 DUP2 ADD PUSH1 0x40 MSTORE DUP1 SWAP3 SWAP2 SWAP1 DUP2 DUP2 MSTORE PUSH1 0x20 ADD DUP3 DUP1 SLOAD PUSH2 0xE09 SWAP1 PUSH2 0x294A JUMP JUMPDEST DUP1 ISZERO PUSH2 0xE56 JUMPI DUP1 PUSH1 0x1F LT PUSH2 0xE2B JUMPI PUSH2 0x100 DUP1 DUP4 SLOAD DIV MUL DUP4 MSTORE SWAP2 PUSH1 0x20 ADD SWAP2 PUSH2 0xE56 JUMP JUMPDEST DUP3 ADD SWAP2 SWAP1 PUSH1 0x0 MSTORE PUSH1 0x20 PUSH1 0x0 KECCAK256 SWAP1 JUMPDEST DUP2 SLOAD DUP2 MSTORE SWAP1 PUSH1 0x1 ADD SWAP1 PUSH1 0x20 ADD DUP1 DUP4 GT PUSH2 0xE39 JUMPI DUP3 SWAP1 SUB PUSH1 0x1F AND DUP3 ADD SWAP2 JUMPDEST POP POP POP POP POP DUP2 JUMP JUMPDEST PUSH1 0x6 PUSH1 0x0 PUSH1 0x2 PUSH1 0x6 DUP2 GT ISZERO PUSH2 0xE76 JUMPI PUSH2 0xE75 PUSH2 0x2A25 JUMP JUMPDEST JUMPDEST PUSH1 0x6 DUP2 GT ISZERO PUSH2 0xE88 JUMPI PUSH2 0xE87 PUSH2 0x2A25 JUMP JUMPDEST JUMPDEST DUP2 MSTORE PUSH1 0x20 ADD SWAP1 DUP2 MSTORE PUSH1 0x20 ADD PUSH1 0x0 KECCAK256 PUSH1 0x2 PUSH1 0x0 PUSH2 0xEA3 DUP5 PUSH2 0x1550 JUMP JUMPDEST DUP2 MSTORE PUSH1 0x20 ADD SWAP1 DUP2 MSTORE PUSH1 0x20 ADD PUSH1 0x0 KECCAK256 PUSH1 0x2 ADD SWAP1 DUP1 SLOAD PUSH2 0xEC0 SWAP1 PUSH2 0x294A JUMP JUMPDEST PUSH2 0xECB SWAP3 SWAP2 SWAP1 PUSH2 0x19B0 JUMP JUMPDEST POP PUSH32 0x315900BBE635FECC5728B8562969CE616FD5EC4C23EC22FC7930C46D826F906D DUP2 PUSH1 0x40 MLOAD PUSH2 0xEFB SWAP2 SWAP1 PUSH2 0x246F JUMP JUMPDEST PUSH1 0x40 MLOAD DUP1 SWAP2 SUB SWAP1 LOG1 POP JUMP JUMPDEST PUSH1 0x60 PUSH1 0x0 DUP1 SLOAD DUP1 PUSH1 0x20 MUL PUSH1 0x20 ADD PUSH1 0x40 MLOAD SWAP1 DUP2 ADD PUSH1 0x40 MSTORE DUP1 SWAP3 SWAP2 SWAP1 DUP2 DUP2 MSTORE PUSH1 0x20 ADD PUSH1 0x0 SWAP1 JUMPDEST DUP3 DUP3 LT ISZERO PUSH2 0xFD6 JUMPI DUP4 DUP3 SWAP1 PUSH1 0x0 MSTORE PUSH1 0x20 PUSH1 0x0 KECCAK256 ADD DUP1 SLOAD PUSH2 0xF49 SWAP1 PUSH2 0x294A JUMP JUMPDEST DUP1 PUSH1 0x1F ADD PUSH1 0x20 DUP1 SWAP2 DIV MUL PUSH1 0x20 ADD PUSH1 0x40 MLOAD SWAP1 DUP2 ADD PUSH1 0x40 MSTORE DUP1 SWAP3 SWAP2 SWAP1 DUP2 DUP2 MSTORE PUSH1 0x20 ADD DUP3 DUP1 SLOAD PUSH2 0xF75 SWAP1 PUSH2 0x294A JUMP JUMPDEST DUP1 ISZERO PUSH2 0xFC2 JUMPI DUP1 PUSH1 0x1F LT PUSH2 0xF97 JUMPI PUSH2 0x100 DUP1 DUP4 SLOAD DIV MUL DUP4 MSTORE SWAP2 PUSH1 0x20 ADD SWAP2 PUSH2 0xFC2 JUMP JUMPDEST DUP3 ADD SWAP2 SWAP1 PUSH1 0x0 MSTORE PUSH1 0x20 PUSH1 0x0 KECCAK256 SWAP1 JUMPDEST DUP2 SLOAD DUP2 MSTORE SWAP1 PUSH1 0x1 ADD SWAP1 PUSH1 0x20 ADD DUP1 DUP4 GT PUSH2 0xFA5 JUMPI DUP3 SWAP1 SUB PUSH1 0x1F AND DUP3 ADD SWAP2 JUMPDEST POP POP POP POP POP DUP2 MSTORE PUSH1 0x20 ADD SWAP1 PUSH1 0x1 ADD SWAP1 PUSH2 0xF2A JUMP JUMPDEST POP POP POP POP SWAP1 POP SWAP1 JUMP JUMPDEST PUSH1 0x0 PUSH1 0x1 DUP3 PUSH1 0x40 MLOAD PUSH2 0xFF1 SWAP2 SWAP1 PUSH2 0x2328 JUMP JUMPDEST SWAP1 DUP2 MSTORE PUSH1 0x20 ADD PUSH1 0x40 MLOAD DUP1 SWAP2 SUB SWAP1 KECCAK256 SWAP1 POP TIMESTAMP DUP2 PUSH1 0x4 ADD SLOAD GT ISZERO DUP1 ISZERO PUSH2 0x1019 JUMPI POP PUSH1 0x0 DUP2 PUSH1 0x6 ADD SLOAD EQ JUMPDEST PUSH2 0x1058 JUMPI PUSH1 0x40 MLOAD PUSH32 0x8C379A000000000000000000000000000000000000000000000000000000000 DUP2 MSTORE PUSH1 0x4 ADD PUSH2 0x104F SWAP1 PUSH2 0x25D3 JUMP JUMPDEST PUSH1 0x40 MLOAD DUP1 SWAP2 SUB SWAP1 REVERT JUMPDEST PUSH1 0x0 PUSH2 0x106B PUSH2 0x1066 DUP5 PUSH2 0x1628 JUMP JUMPDEST PUSH2 0x170B JUMP JUMPDEST POP PUSH32 0xC244EF6ABB581FCE6EC7F623FFA560AC7D27F787D59020E83A6936BFB9D1D731 DUP4 DUP3 PUSH1 0x0 TIMESTAMP PUSH1 0x40 MLOAD PUSH2 0x10A2 SWAP5 SWAP4 SWAP3 SWAP2 SWAP1 PUSH2 0x2423 JUMP JUMPDEST PUSH1 0x40 MLOAD DUP1 SWAP2 SUB SWAP1 LOG1 POP POP POP JUMP JUMPDEST PUSH2 0x1156 PUSH1 0x2 PUSH1 0x0 DUP4 DUP2 MSTORE PUSH1 0x20 ADD SWAP1 DUP2 MSTORE PUSH1 0x20 ADD PUSH1 0x0 KECCAK256 PUSH1 0x1 ADD DUP1 SLOAD PUSH2 0x10D3 SWAP1 PUSH2 0x294A JUMP JUMPDEST DUP1 PUSH1 0x1F ADD PUSH1 0x20 DUP1 SWAP2 DIV MUL PUSH1 0x20 ADD PUSH1 0x40 MLOAD SWAP1 DUP2 ADD PUSH1 0x40 MSTORE DUP1 SWAP3 SWAP2 SWAP1 DUP2 DUP2 MSTORE PUSH1 0x20 ADD DUP3 DUP1 SLOAD PUSH2 0x10FF SWAP1 PUSH2 0x294A JUMP JUMPDEST DUP1 ISZERO PUSH2 0x114C JUMPI DUP1 PUSH1 0x1F LT PUSH2 0x1121 JUMPI PUSH2 0x100 DUP1 DUP4 SLOAD DIV MUL DUP4 MSTORE SWAP2 PUSH1 0x20 ADD SWAP2 PUSH2 0x114C JUMP JUMPDEST DUP3 ADD SWAP2 SWAP1 PUSH1 0x0 MSTORE PUSH1 0x20 PUSH1 0x0 KECCAK256 SWAP1 JUMPDEST DUP2 SLOAD DUP2 MSTORE SWAP1 PUSH1 0x1 ADD SWAP1 PUSH1 0x20 ADD DUP1 DUP4 GT PUSH2 0x112F JUMPI DUP3 SWAP1 SUB PUSH1 0x1F AND DUP3 ADD SWAP2 JUMPDEST POP POP POP POP POP PUSH2 0xFDF JUMP JUMPDEST PUSH1 0x6 PUSH1 0x0 PUSH1 0x4 PUSH1 0x6 DUP2 GT ISZERO PUSH2 0x116E JUMPI PUSH2 0x116D PUSH2 0x2A25 JUMP JUMPDEST JUMPDEST PUSH1 0x6 DUP2 GT ISZERO PUSH2 0x1180 JUMPI PUSH2 0x117F PUSH2 0x2A25 JUMP JUMPDEST JUMPDEST DUP2 MSTORE PUSH1 0x20 ADD SWAP1 DUP2 MSTORE PUSH1 0x20 ADD PUSH1 0x0 KECCAK256 PUSH1 0x2 PUSH1 0x0 DUP4 DUP2 MSTORE PUSH1 0x20 ADD SWAP1 DUP2 MSTORE PUSH1 0x20 ADD PUSH1 0x0 KECCAK256 PUSH1 0x2 ADD SWAP1 DUP1 SLOAD PUSH2 0x11B0 SWAP1 PUSH2 0x294A JUMP JUMPDEST PUSH2 0x11BB SWAP3 SWAP2 SWAP1 PUSH2 0x19B0 JUMP JUMPDEST POP POP JUMP JUMPDEST PUSH2 0x1266 PUSH1 0x2 PUSH1 0x0 DUP4 DUP2 MSTORE PUSH1 0x20 ADD SWAP1 DUP2 MSTORE PUSH1 0x20 ADD PUSH1 0x0 KECCAK256 PUSH1 0x1 ADD DUP1 SLOAD PUSH2 0x11E3 SWAP1 PUSH2 0x294A JUMP JUMPDEST DUP1 PUSH1 0x1F ADD PUSH1 0x20 DUP1 SWAP2 DIV MUL PUSH1 0x20 ADD PUSH1 0x40 MLOAD SWAP1 DUP2 ADD PUSH1 0x40 MSTORE DUP1 SWAP3 SWAP2 SWAP1 DUP2 DUP2 MSTORE PUSH1 0x20 ADD DUP3 DUP1 SLOAD PUSH2 0x120F SWAP1 PUSH2 0x294A JUMP JUMPDEST DUP1 ISZERO PUSH2 0x125C JUMPI DUP1 PUSH1 0x1F LT PUSH2 0x1231 JUMPI PUSH2 0x100 DUP1 DUP4 SLOAD DIV MUL DUP4 MSTORE SWAP2 PUSH1 0x20 ADD SWAP2 PUSH2 0x125C JUMP JUMPDEST DUP3 ADD SWAP2 SWAP1 PUSH1 0x0 MSTORE PUSH1 0x20 PUSH1 0x0 KECCAK256 SWAP1 JUMPDEST DUP2 SLOAD DUP2 MSTORE SWAP1 PUSH1 0x1 ADD SWAP1 PUSH1 0x20 ADD DUP1 DUP4 GT PUSH2 0x123F JUMPI DUP3 SWAP1 SUB PUSH1 0x1F AND DUP3 ADD SWAP2 JUMPDEST POP POP POP POP POP PUSH2 0x12CE JUMP JUMPDEST PUSH1 0x6 PUSH1 0x0 PUSH1 0x6 DUP1 DUP2 GT ISZERO PUSH2 0x127D JUMPI PUSH2 0x127C PUSH2 0x2A25 JUMP JUMPDEST JUMPDEST PUSH1 0x6 DUP2 GT ISZERO PUSH2 0x128F JUMPI PUSH2 0x128E PUSH2 0x2A25 JUMP JUMPDEST JUMPDEST DUP2 MSTORE PUSH1 0x20 ADD SWAP1 DUP2 MSTORE PUSH1 0x20 ADD PUSH1 0x0 KECCAK256 PUSH1 0x2 PUSH1 0x0 DUP4 DUP2 MSTORE PUSH1 0x20 ADD SWAP1 DUP2 MSTORE PUSH1 0x20 ADD PUSH1 0x0 KECCAK256 PUSH1 0x2 ADD SWAP1 DUP1 SLOAD PUSH2 0x12BF SWAP1 PUSH2 0x294A JUMP JUMPDEST PUSH2 0x12CA SWAP3 SWAP2 SWAP1 PUSH2 0x19B0 JUMP JUMPDEST POP POP JUMP JUMPDEST PUSH1 0x0 PUSH1 0x1 DUP3 PUSH1 0x40 MLOAD PUSH2 0x12E0 SWAP2 SWAP1 PUSH2 0x2328 JUMP JUMPDEST SWAP1 DUP2 MSTORE PUSH1 0x20 ADD PUSH1 0x40 MLOAD DUP1 SWAP2 SUB SWAP1 KECCAK256 SWAP1 POP TIMESTAMP DUP2 PUSH1 0x4 ADD SLOAD GT ISZERO DUP1 ISZERO PUSH2 0x1308 JUMPI POP PUSH1 0x0 DUP2 PUSH1 0x6 ADD SLOAD EQ JUMPDEST PUSH2 0x1347 JUMPI PUSH1 0x40 MLOAD PUSH32 0x8C379A000000000000000000000000000000000000000000000000000000000 DUP2 MSTORE PUSH1 0x4 ADD PUSH2 0x133E SWAP1 PUSH2 0x25D3 JUMP JUMPDEST PUSH1 0x40 MLOAD DUP1 SWAP2 SUB SWAP1 REVERT JUMPDEST PUSH1 0x0 DUP1 PUSH2 0x1367 PUSH20 0xA39434A63A52E749F02807AE27335515BA4B07F7 PUSH2 0x188C JUMP JUMPDEST SWAP2 POP SWAP2 POP DUP2 DUP4 PUSH1 0x5 ADD DUP2 SWAP1 SSTORE POP PUSH1 0x0 PUSH2 0x1387 PUSH2 0x1382 DUP7 PUSH2 0x1628 JUMP JUMPDEST PUSH2 0x170B JUMP JUMPDEST POP PUSH32 0xC244EF6ABB581FCE6EC7F623FFA560AC7D27F787D59020E83A6936BFB9D1D731 DUP6 DUP3 DUP6 DUP6 PUSH1 0x40 MLOAD PUSH2 0x13BD SWAP5 SWAP4 SWAP3 SWAP2 SWAP1 PUSH2 0x23D7 JUMP JUMPDEST PUSH1 0x40 MLOAD DUP1 SWAP2 SUB SWAP1 LOG1 POP POP POP POP POP JUMP JUMPDEST PUSH1 0x3 SLOAD DUP2 JUMP JUMPDEST PUSH1 0x2 PUSH1 0x20 MSTORE DUP1 PUSH1 0x0 MSTORE PUSH1 0x40 PUSH1 0x0 KECCAK256 PUSH1 0x0 SWAP2 POP SWAP1 POP DUP1 PUSH1 0x0 ADD SLOAD SWAP1 DUP1 PUSH1 0x1 ADD DUP1 SLOAD PUSH2 0x13FB SWAP1 PUSH2 0x294A JUMP JUMPDEST DUP1 PUSH1 0x1F ADD PUSH1 0x20 DUP1 SWAP2 DIV MUL PUSH1 0x20 ADD PUSH1 0x40 MLOAD SWAP1 DUP2 ADD PUSH1 0x40 MSTORE DUP1 SWAP3 SWAP2 SWAP1 DUP2 DUP2 MSTORE PUSH1 0x20 ADD DUP3 DUP1 SLOAD PUSH2 0x1427 SWAP1 PUSH2 0x294A JUMP JUMPDEST DUP1 ISZERO PUSH2 0x1474 JUMPI DUP1 PUSH1 0x1F LT PUSH2 0x1449 JUMPI PUSH2 0x100 DUP1 DUP4 SLOAD DIV MUL DUP4 MSTORE SWAP2 PUSH1 0x20 ADD SWAP2 PUSH2 0x1474 JUMP JUMPDEST DUP3 ADD SWAP2 SWAP1 PUSH1 0x0 MSTORE PUSH1 0x20 PUSH1 0x0 KECCAK256 SWAP1 JUMPDEST DUP2 SLOAD DUP2 MSTORE SWAP1 PUSH1 0x1 ADD SWAP1 PUSH1 0x20 ADD DUP1 DUP4 GT PUSH2 0x1457 JUMPI DUP3 SWAP1 SUB PUSH1 0x1F AND DUP3 ADD SWAP2 JUMPDEST POP POP POP POP POP SWAP1 DUP1 PUSH1 0x2 ADD DUP1 SLOAD PUSH2 0x1489 SWAP1 PUSH2 0x294A JUMP JUMPDEST DUP1 PUSH1 0x1F ADD PUSH1 0x20 DUP1 SWAP2 DIV MUL PUSH1 0x20 ADD PUSH1 0x40 MLOAD SWAP1 DUP2 ADD PUSH1 0x40 MSTORE DUP1 SWAP3 SWAP2 SWAP1 DUP2 DUP2 MSTORE PUSH1 0x20 ADD DUP3 DUP1 SLOAD PUSH2 0x14B5 SWAP1 PUSH2 0x294A JUMP JUMPDEST DUP1 ISZERO PUSH2 0x1502 JUMPI DUP1 PUSH1 0x1F LT PUSH2 0x14D7 JUMPI PUSH2 0x100 DUP1 DUP4 SLOAD DIV MUL DUP4 MSTORE SWAP2 PUSH1 0x20 ADD SWAP2 PUSH2 0x1502 JUMP JUMPDEST DUP3 ADD SWAP2 SWAP1 PUSH1 0x0 MSTORE PUSH1 0x20 PUSH1 0x0 KECCAK256 SWAP1 JUMPDEST DUP2 SLOAD DUP2 MSTORE SWAP1 PUSH1 0x1 ADD SWAP1 PUSH1 0x20 ADD DUP1 DUP4 GT PUSH2 0x14E5 JUMPI DUP3 SWAP1 SUB PUSH1 0x1F AND DUP3 ADD SWAP2 JUMPDEST POP POP POP POP POP SWAP1 DUP1 PUSH1 0x3 ADD SLOAD SWAP1 DUP1 PUSH1 0x4 ADD SLOAD SWAP1 DUP1 PUSH1 0x5 ADD SLOAD SWAP1 DUP1 PUSH1 0x6 ADD SLOAD SWAP1 DUP1 PUSH1 0x7 ADD SLOAD SWAP1 DUP1 PUSH1 0x8 ADD PUSH1 0x0 SWAP1 SLOAD SWAP1 PUSH2 0x100 EXP SWAP1 DIV PUSH20 0xFFFFFFFFFFFFFFFFFFFFFFFFFFFFFFFFFFFFFFFF AND SWAP1 POP DUP10 JUMP JUMPDEST PUSH1 0x0 DUP1 PUSH1 0x0 SWAP1 POP JUMPDEST PUSH1 0x3 SLOAD DUP2 LT ISZERO PUSH2 0x15E7 JUMPI DUP3 PUSH1 0x40 MLOAD PUSH1 0x20 ADD PUSH2 0x1573 SWAP2 SWAP1 PUSH2 0x2328 JUMP JUMPDEST PUSH1 0x40 MLOAD PUSH1 0x20 DUP2 DUP4 SUB SUB DUP2 MSTORE SWAP1 PUSH1 0x40 MSTORE DUP1 MLOAD SWAP1 PUSH1 0x20 ADD KECCAK256 PUSH1 0x2 PUSH1 0x0 DUP4 DUP2 MSTORE PUSH1 0x20 ADD SWAP1 DUP2 MSTORE PUSH1 0x20 ADD PUSH1 0x0 KECCAK256 PUSH1 0x1 ADD PUSH1 0x40 MLOAD PUSH1 0x20 ADD PUSH2 0x15AF SWAP2 SWAP1 PUSH2 0x233F JUMP JUMPDEST PUSH1 0x40 MLOAD PUSH1 0x20 DUP2 DUP4 SUB SUB DUP2 MSTORE SWAP1 PUSH1 0x40 MSTORE DUP1 MLOAD SWAP1 PUSH1 0x20 ADD KECCAK256 EQ ISZERO PUSH2 0x15D4 JUMPI DUP1 SWAP2 POP POP PUSH2 0x1623 JUMP JUMPDEST DUP1 DUP1 PUSH2 0x15DF SWAP1 PUSH2 0x29AD JUMP JUMPDEST SWAP2 POP POP PUSH2 0x1558 JUMP JUMPDEST POP PUSH1 0x40 MLOAD PUSH32 0x8C379A000000000000000000000000000000000000000000000000000000000 DUP2 MSTORE PUSH1 0x4 ADD PUSH2 0x161A SWAP1 PUSH2 0x25B3 JUMP JUMPDEST PUSH1 0x40 MLOAD DUP1 SWAP2 SUB SWAP1 REVERT JUMPDEST SWAP2 SWAP1 POP JUMP JUMPDEST PUSH1 0x0 DUP1 PUSH1 0x0 SWAP1 POP JUMPDEST PUSH1 0x0 DUP1 SLOAD SWAP1 POP DUP2 LT ISZERO PUSH2 0x16CA JUMPI DUP3 PUSH1 0x40 MLOAD PUSH1 0x20 ADD PUSH2 0x164E SWAP2 SWAP1 PUSH2 0x2328 JUMP JUMPDEST PUSH1 0x40 MLOAD PUSH1 0x20 DUP2 DUP4 SUB SUB DUP2 MSTORE SWAP1 PUSH1 0x40 MSTORE DUP1 MLOAD SWAP1 PUSH1 0x20 ADD KECCAK256 PUSH1 0x0 DUP3 DUP2 SLOAD DUP2 LT PUSH2 0x1678 JUMPI PUSH2 0x1677 PUSH2 0x2AB2 JUMP JUMPDEST JUMPDEST SWAP1 PUSH1 0x0 MSTORE PUSH1 0x20 PUSH1 0x0 KECCAK256 ADD PUSH1 0x40 MLOAD PUSH1 0x20 ADD PUSH2 0x1692 SWAP2 SWAP1 PUSH2 0x233F JUMP JUMPDEST PUSH1 0x40 MLOAD PUSH1 0x20 DUP2 DUP4 SUB SUB DUP2 MSTORE SWAP1 PUSH1 0x40 MSTORE DUP1 MLOAD SWAP1 PUSH1 0x20 ADD KECCAK256 EQ ISZERO PUSH2 0x16B7 JUMPI DUP1 SWAP2 POP POP PUSH2 0x1706 JUMP JUMPDEST DUP1 DUP1 PUSH2 0x16C2 SWAP1 PUSH2 0x29AD JUMP JUMPDEST SWAP2 POP POP PUSH2 0x1630 JUMP JUMPDEST POP PUSH1 0x40 MLOAD PUSH32 0x8C379A000000000000000000000000000000000000000000000000000000000 DUP2 MSTORE PUSH1 0x4 ADD PUSH2 0x16FD SWAP1 PUSH2 0x25B3 JUMP JUMPDEST PUSH1 0x40 MLOAD DUP1 SWAP2 SUB SWAP1 REVERT JUMPDEST SWAP2 SWAP1 POP JUMP JUMPDEST PUSH1 0x60 PUSH1 0x0 DUP1 SLOAD SWAP1 POP DUP3 LT PUSH2 0x171E JUMPI PUSH1 0x0 DUP1 REVERT JUMPDEST PUSH1 0x0 PUSH1 0x1 PUSH1 0x0 DUP1 SLOAD SWAP1 POP PUSH2 0x1732 SWAP2 SWAP1 PUSH2 0x2841 JUMP JUMPDEST DUP2 SLOAD DUP2 LT PUSH2 0x1743 JUMPI PUSH2 0x1742 PUSH2 0x2AB2 JUMP JUMPDEST JUMPDEST SWAP1 PUSH1 0x0 MSTORE PUSH1 0x20 PUSH1 0x0 KECCAK256 ADD PUSH1 0x0 DUP4 DUP2 SLOAD DUP2 LT PUSH2 0x1761 JUMPI PUSH2 0x1760 PUSH2 0x2AB2 JUMP JUMPDEST JUMPDEST SWAP1 PUSH1 0x0 MSTORE PUSH1 0x20 PUSH1 0x0 KECCAK256 ADD SWAP1 DUP1 SLOAD PUSH2 0x1777 SWAP1 PUSH2 0x294A JUMP JUMPDEST PUSH2 0x1782 SWAP3 SWAP2 SWAP1 PUSH2 0x19B0 JUMP JUMPDEST POP PUSH1 0x0 DUP1 SLOAD DUP1 PUSH2 0x1795 JUMPI PUSH2 0x1794 PUSH2 0x2A83 JUMP JUMPDEST JUMPDEST PUSH1 0x1 SWAP1 SUB DUP2 DUP2 SWAP1 PUSH1 0x0 MSTORE PUSH1 0x20 PUSH1 0x0 KECCAK256 ADD PUSH1 0x0 PUSH2 0x17B1 SWAP2 SWAP1 PUSH2 0x1A9F JUMP JUMPDEST SWAP1 SSTORE PUSH1 0x0 DUP1 SLOAD DUP1 PUSH1 0x20 MUL PUSH1 0x20 ADD PUSH1 0x40 MLOAD SWAP1 DUP2 ADD PUSH1 0x40 MSTORE DUP1 SWAP3 SWAP2 SWAP1 DUP2 DUP2 MSTORE PUSH1 0x20 ADD PUSH1 0x0 SWAP1 JUMPDEST DUP3 DUP3 LT ISZERO PUSH2 0x1881 JUMPI DUP4 DUP3 SWAP1 PUSH1 0x0 MSTORE PUSH1 0x20 PUSH1 0x0 KECCAK256 ADD DUP1 SLOAD PUSH2 0x17F4 SWAP1 PUSH2 0x294A JUMP JUMPDEST DUP1 PUSH1 0x1F ADD PUSH1 0x20 DUP1 SWAP2 DIV MUL PUSH1 0x20 ADD PUSH1 0x40 MLOAD SWAP1 DUP2 ADD PUSH1 0x40 MSTORE DUP1 SWAP3 SWAP2 SWAP1 DUP2 DUP2 MSTORE PUSH1 0x20 ADD DUP3 DUP1 SLOAD PUSH2 0x1820 SWAP1 PUSH2 0x294A JUMP JUMPDEST DUP1 ISZERO PUSH2 0x186D JUMPI DUP1 PUSH1 0x1F LT PUSH2 0x1842 JUMPI PUSH2 0x100 DUP1 DUP4 SLOAD DIV MUL DUP4 MSTORE SWAP2 PUSH1 0x20 ADD SWAP2 PUSH2 0x186D JUMP JUMPDEST DUP3 ADD SWAP2 SWAP1 PUSH1 0x0 MSTORE PUSH1 0x20 PUSH1 0x0 KECCAK256 SWAP1 JUMPDEST DUP2 SLOAD DUP2 MSTORE SWAP1 PUSH1 0x1 ADD SWAP1 PUSH1 0x20 ADD DUP1 DUP4 GT PUSH2 0x1850 JUMPI DUP3 SWAP1 SUB PUSH1 0x1F AND DUP3 ADD SWAP2 JUMPDEST POP POP POP POP POP DUP2 MSTORE PUSH1 0x20 ADD SWAP1 PUSH1 0x1 ADD SWAP1 PUSH2 0x17D5 JUMP JUMPDEST POP POP POP POP SWAP1 POP SWAP2 SWAP1 POP JUMP JUMPDEST PUSH1 0x0 DUP1 PUSH1 0x0 DUP4 SWAP1 POP PUSH1 0x0 DUP1 DUP3 PUSH20 0xFFFFFFFFFFFFFFFFFFFFFFFFFFFFFFFFFFFFFFFF AND PUSH4 0xFEAF968C PUSH1 0x40 MLOAD DUP2 PUSH4 0xFFFFFFFF AND PUSH1 0xE0 SHL DUP2 MSTORE PUSH1 0x4 ADD PUSH1 0xA0 PUSH1 0x40 MLOAD DUP1 DUP4 SUB DUP2 DUP7 DUP1 EXTCODESIZE ISZERO DUP1 ISZERO PUSH2 0x18DD JUMPI PUSH1 0x0 DUP1 REVERT JUMPDEST POP GAS STATICCALL ISZERO DUP1 ISZERO PUSH2 0x18F1 JUMPI RETURNDATASIZE PUSH1 0x0 DUP1 RETURNDATACOPY RETURNDATASIZE PUSH1 0x0 REVERT JUMPDEST POP POP POP POP PUSH1 0x40 MLOAD RETURNDATASIZE PUSH1 0x1F NOT PUSH1 0x1F DUP3 ADD AND DUP3 ADD DUP1 PUSH1 0x40 MSTORE POP DUP2 ADD SWAP1 PUSH2 0x1915 SWAP2 SWAP1 PUSH2 0x1E95 JUMP JUMPDEST POP SWAP4 POP POP SWAP3 POP POP DUP2 DUP2 SWAP5 POP SWAP5 POP POP POP POP SWAP2 POP SWAP2 JUMP JUMPDEST DUP3 DUP1 SLOAD PUSH2 0x1936 SWAP1 PUSH2 0x294A JUMP JUMPDEST SWAP1 PUSH1 0x0 MSTORE PUSH1 0x20 PUSH1 0x0 KECCAK256 SWAP1 PUSH1 0x1F ADD PUSH1 0x20 SWAP1 DIV DUP2 ADD SWAP3 DUP3 PUSH2 0x1958 JUMPI PUSH1 0x0 DUP6 SSTORE PUSH2 0x199F JUMP JUMPDEST DUP3 PUSH1 0x1F LT PUSH2 0x1971 JUMPI DUP1 MLOAD PUSH1 0xFF NOT AND DUP4 DUP1 ADD OR DUP6 SSTORE PUSH2 0x199F JUMP JUMPDEST DUP3 DUP1 ADD PUSH1 0x1 ADD DUP6 SSTORE DUP3 ISZERO PUSH2 0x199F JUMPI SWAP2 DUP3 ADD JUMPDEST DUP3 DUP2 GT ISZERO PUSH2 0x199E JUMPI DUP3 MLOAD DUP3 SSTORE SWAP2 PUSH1 0x20 ADD SWAP2 SWAP1 PUSH1 0x1 ADD SWAP1 PUSH2 0x1983 JUMP JUMPDEST JUMPDEST POP SWAP1 POP PUSH2 0x19AC SWAP2 SWAP1 PUSH2 0x1ADF JUMP JUMPDEST POP SWAP1 JUMP JUMPDEST DUP3 DUP1 SLOAD PUSH2 0x19BC SWAP1 PUSH2 0x294A JUMP JUMPDEST SWAP1 PUSH1 0x0 MSTORE PUSH1 0x20 PUSH1 0x0 KECCAK256 SWAP1 PUSH1 0x1F ADD PUSH1 0x20 SWAP1 DIV DUP2 ADD SWAP3 DUP3 PUSH2 0x19DE JUMPI PUSH1 0x0 DUP6 SSTORE PUSH2 0x1A2C JUMP JUMPDEST DUP3 PUSH1 0x1F LT PUSH2 0x19EF JUMPI DUP1 SLOAD DUP6 SSTORE PUSH2 0x1A2C JUMP JUMPDEST DUP3 DUP1 ADD PUSH1 0x1 ADD DUP6 SSTORE DUP3 ISZERO PUSH2 0x1A2C JUMPI PUSH1 0x0 MSTORE PUSH1 0x20 PUSH1 0x0 KECCAK256 SWAP2 PUSH1 0x1F ADD PUSH1 0x20 SWAP1 DIV DUP3 ADD JUMPDEST DUP3 DUP2 GT ISZERO PUSH2 0x1A2B JUMPI DUP3 SLOAD DUP3 SSTORE SWAP2 PUSH1 0x1 ADD SWAP2 SWAP1 PUSH1 0x1 ADD SWAP1 PUSH2 0x1A10 JUMP JUMPDEST JUMPDEST POP SWAP1 POP PUSH2 0x1A39 SWAP2 SWAP1 PUSH2 0x1ADF JUMP JUMPDEST POP SWAP1 JUMP JUMPDEST PUSH1 0x40 MLOAD DUP1 PUSH2 0x120 ADD PUSH1 0x40 MSTORE DUP1 PUSH1 0x0 DUP2 MSTORE PUSH1 0x20 ADD PUSH1 0x60 DUP2 MSTORE PUSH1 0x20 ADD PUSH1 0x60 DUP2 MSTORE PUSH1 0x20 ADD PUSH1 0x0 DUP2 MSTORE PUSH1 0x20 ADD PUSH1 0x0 DUP2 MSTORE PUSH1 0x20 ADD PUSH1 0x0 DUP2 MSTORE PUSH1 0x20 ADD PUSH1 0x0 DUP2 MSTORE PUSH1 0x20 ADD PUSH1 0x0 DUP2 MSTORE PUSH1 0x20 ADD PUSH1 0x0 PUSH20 0xFFFFFFFFFFFFFFFFFFFFFFFFFFFFFFFFFFFFFFFF AND DUP2 MSTORE POP SWAP1 JUMP JUMPDEST POP DUP1 SLOAD PUSH2 0x1AAB SWAP1 PUSH2 0x294A JUMP JUMPDEST PUSH1 0x0 DUP3 SSTORE DUP1 PUSH1 0x1F LT PUSH2 0x1ABD JUMPI POP PUSH2 0x1ADC JUMP JUMPDEST PUSH1 0x1F ADD PUSH1 0x20 SWAP1 DIV SWAP1 PUSH1 0x0 MSTORE PUSH1 0x20 PUSH1 0x0 KECCAK256 SWAP1 DUP2 ADD SWAP1 PUSH2 0x1ADB SWAP2 SWAP1 PUSH2 0x1ADF JUMP JUMPDEST JUMPDEST POP JUMP JUMPDEST JUMPDEST DUP1 DUP3 GT ISZERO PUSH2 0x1AF8 JUMPI PUSH1 0x0 DUP2 PUSH1 0x0 SWAP1 SSTORE POP PUSH1 0x1 ADD PUSH2 0x1AE0 JUMP JUMPDEST POP SWAP1 JUMP JUMPDEST PUSH1 0x0 PUSH2 0x1B0F PUSH2 0x1B0A DUP5 PUSH2 0x2751 JUMP JUMPDEST PUSH2 0x272C JUMP JUMPDEST SWAP1 POP DUP3 DUP2 MSTORE PUSH1 0x20 DUP2 ADD DUP5 DUP5 DUP5 ADD GT ISZERO PUSH2 0x1B2B JUMPI PUSH2 0x1B2A PUSH2 0x2B15 JUMP JUMPDEST JUMPDEST PUSH2 0x1B36 DUP5 DUP3 DUP6 PUSH2 0x2908 JUMP JUMPDEST POP SWAP4 SWAP3 POP POP POP JUMP JUMPDEST PUSH1 0x0 DUP2 CALLDATALOAD SWAP1 POP PUSH2 0x1B4D DUP2 PUSH2 0x2C16 JUMP JUMPDEST SWAP3 SWAP2 POP POP JUMP JUMPDEST PUSH1 0x0 DUP2 CALLDATALOAD SWAP1 POP PUSH2 0x1B62 DUP2 PUSH2 0x2C2D JUMP JUMPDEST SWAP3 SWAP2 POP POP JUMP JUMPDEST PUSH1 0x0 DUP2 MLOAD SWAP1 POP PUSH2 0x1B77 DUP2 PUSH2 0x2C3D JUMP JUMPDEST SWAP3 SWAP2 POP POP JUMP JUMPDEST PUSH1 0x0 DUP3 PUSH1 0x1F DUP4 ADD SLT PUSH2 0x1B92 JUMPI PUSH2 0x1B91 PUSH2 0x2B10 JUMP JUMPDEST JUMPDEST DUP2 CALLDATALOAD PUSH2 0x1BA2 DUP5 DUP3 PUSH1 0x20 DUP7 ADD PUSH2 0x1AFC JUMP JUMPDEST SWAP2 POP POP SWAP3 SWAP2 POP POP JUMP JUMPDEST PUSH1 0x0 DUP2 CALLDATALOAD SWAP1 POP PUSH2 0x1BBA DUP2 PUSH2 0x2C54 JUMP JUMPDEST SWAP3 SWAP2 POP POP JUMP JUMPDEST PUSH1 0x0 DUP2 MLOAD SWAP1 POP PUSH2 0x1BCF DUP2 PUSH2 0x2C54 JUMP JUMPDEST SWAP3 SWAP2 POP POP JUMP JUMPDEST PUSH1 0x0 DUP2 MLOAD SWAP1 POP PUSH2 0x1BE4 DUP2 PUSH2 0x2C6B JUMP JUMPDEST SWAP3 SWAP2 POP POP JUMP JUMPDEST PUSH1 0x0 PUSH1 0x20 DUP3 DUP5 SUB SLT ISZERO PUSH2 0x1C00 JUMPI PUSH2 0x1BFF PUSH2 0x2B1F JUMP JUMPDEST JUMPDEST PUSH1 0x0 PUSH2 0x1C0E DUP5 DUP3 DUP6 ADD PUSH2 0x1B3E JUMP JUMPDEST SWAP2 POP POP SWAP3 SWAP2 POP POP JUMP JUMPDEST PUSH1 0x0 PUSH1 0x20 DUP3 DUP5 SUB SLT ISZERO PUSH2 0x1C2D JUMPI PUSH2 0x1C2C PUSH2 0x2B1F JUMP JUMPDEST JUMPDEST PUSH1 0x0 PUSH2 0x1C3B DUP5 DUP3 DUP6 ADD PUSH2 0x1B53 JUMP JUMPDEST SWAP2 POP POP SWAP3 SWAP2 POP POP JUMP JUMPDEST PUSH1 0x0 PUSH1 0x20 DUP3 DUP5 SUB SLT ISZERO PUSH2 0x1C5A JUMPI PUSH2 0x1C59 PUSH2 0x2B1F JUMP JUMPDEST JUMPDEST PUSH1 0x0 DUP3 ADD CALLDATALOAD PUSH8 0xFFFFFFFFFFFFFFFF DUP2 GT ISZERO PUSH2 0x1C78 JUMPI PUSH2 0x1C77 PUSH2 0x2B1A JUMP JUMPDEST JUMPDEST PUSH2 0x1C84 DUP5 DUP3 DUP6 ADD PUSH2 0x1B7D JUMP JUMPDEST SWAP2 POP POP SWAP3 SWAP2 POP POP JUMP JUMPDEST PUSH1 0x0 DUP1 PUSH1 0x0 DUP1 PUSH1 0x0 DUP1 PUSH1 0x0 PUSH1 0xE0 DUP9 DUP11 SUB SLT ISZERO PUSH2 0x1CAC JUMPI PUSH2 0x1CAB PUSH2 0x2B1F JUMP JUMPDEST JUMPDEST PUSH1 0x0 DUP9 ADD CALLDATALOAD PUSH8 0xFFFFFFFFFFFFFFFF DUP2 GT ISZERO PUSH2 0x1CCA JUMPI PUSH2 0x1CC9 PUSH2 0x2B1A JUMP JUMPDEST JUMPDEST PUSH2 0x1CD6 DUP11 DUP3 DUP12 ADD PUSH2 0x1B7D JUMP JUMPDEST SWAP8 POP POP PUSH1 0x20 PUSH2 0x1CE7 DUP11 DUP3 DUP12 ADD PUSH2 0x1BAB JUMP JUMPDEST SWAP7 POP POP PUSH1 0x40 PUSH2 0x1CF8 DUP11 DUP3 DUP12 ADD PUSH2 0x1BAB JUMP JUMPDEST SWAP6 POP POP PUSH1 0x60 PUSH2 0x1D09 DUP11 DUP3 DUP12 ADD PUSH2 0x1BAB JUMP JUMPDEST SWAP5 POP POP PUSH1 0x80 PUSH2 0x1D1A DUP11 DUP3 DUP12 ADD PUSH2 0x1BAB JUMP JUMPDEST SWAP4 POP POP PUSH1 0xA0 PUSH2 0x1D2B DUP11 DUP3 DUP12 ADD PUSH2 0x1B3E JUMP JUMPDEST SWAP3 POP POP PUSH1 0xC0 PUSH2 0x1D3C DUP11 DUP3 DUP12 ADD PUSH2 0x1BAB JUMP JUMPDEST SWAP2 POP POP SWAP3 SWAP6 SWAP9 SWAP2 SWAP5 SWAP8 POP SWAP3 SWAP6 POP JUMP JUMPDEST PUSH1 0x0 PUSH1 0x20 DUP3 DUP5 SUB SLT ISZERO PUSH2 0x1D61 JUMPI PUSH2 0x1D60 PUSH2 0x2B1F JUMP JUMPDEST JUMPDEST PUSH1 0x0 PUSH2 0x1D6F DUP5 DUP3 DUP6 ADD PUSH2 0x1BAB JUMP JUMPDEST SWAP2 POP POP SWAP3 SWAP2 POP POP JUMP JUMPDEST PUSH1 0x0 DUP1 PUSH1 0x0 DUP1 PUSH1 0x0 DUP1 PUSH1 0x0 PUSH1 0xE0 DUP9 DUP11 SUB SLT ISZERO PUSH2 0x1D97 JUMPI PUSH2 0x1D96 PUSH2 0x2B1F JUMP JUMPDEST JUMPDEST PUSH1 0x0 PUSH2 0x1DA5 DUP11 DUP3 DUP12 ADD PUSH2 0x1BAB JUMP JUMPDEST SWAP8 POP POP PUSH1 0x20 PUSH2 0x1DB6 DUP11 DUP3 DUP12 ADD PUSH2 0x1BAB JUMP JUMPDEST SWAP7 POP POP PUSH1 0x40 PUSH2 0x1DC7 DUP11 DUP3 DUP12 ADD PUSH2 0x1BAB JUMP JUMPDEST SWAP6 POP POP PUSH1 0x60 PUSH2 0x1DD8 DUP11 DUP3 DUP12 ADD PUSH2 0x1BAB JUMP JUMPDEST SWAP5 POP POP PUSH1 0x80 PUSH2 0x1DE9 DUP11 DUP3 DUP12 ADD PUSH2 0x1B3E JUMP JUMPDEST SWAP4 POP POP PUSH1 0xA0 PUSH2 0x1DFA DUP11 DUP3 DUP12 ADD PUSH2 0x1BAB JUMP JUMPDEST SWAP3 POP POP PUSH1 0xC0 PUSH2 0x1E0B DUP11 DUP3 DUP12 ADD PUSH2 0x1BAB JUMP JUMPDEST SWAP2 POP POP SWAP3 SWAP6 SWAP9 SWAP2 SWAP5 SWAP8 POP SWAP3 SWAP6 POP JUMP JUMPDEST PUSH1 0x0 DUP1 PUSH1 0x0 DUP1 PUSH1 0x0 PUSH1 0xA0 DUP7 DUP9 SUB SLT ISZERO PUSH2 0x1E36 JUMPI PUSH2 0x1E35 PUSH2 0x2B1F JUMP JUMPDEST JUMPDEST PUSH1 0x0 PUSH2 0x1E44 DUP9 DUP3 DUP10 ADD PUSH2 0x1BAB JUMP JUMPDEST SWAP6 POP POP PUSH1 0x20 PUSH2 0x1E55 DUP9 DUP3 DUP10 ADD PUSH2 0x1BAB JUMP JUMPDEST SWAP5 POP POP PUSH1 0x40 PUSH2 0x1E66 DUP9 DUP3 DUP10 ADD PUSH2 0x1BAB JUMP JUMPDEST SWAP4 POP POP PUSH1 0x60 PUSH2 0x1E77 DUP9 DUP3 DUP10 ADD PUSH2 0x1BAB JUMP JUMPDEST SWAP3 POP POP PUSH1 0x80 PUSH2 0x1E88 DUP9 DUP3 DUP10 ADD PUSH2 0x1BAB JUMP JUMPDEST SWAP2 POP POP SWAP3 SWAP6 POP SWAP3 SWAP6 SWAP1 SWAP4 POP JUMP JUMPDEST PUSH1 0x0 DUP1 PUSH1 0x0 DUP1 PUSH1 0x0 PUSH1 0xA0 DUP7 DUP9 SUB SLT ISZERO PUSH2 0x1EB1 JUMPI PUSH2 0x1EB0 PUSH2 0x2B1F JUMP JUMPDEST JUMPDEST PUSH1 0x0 PUSH2 0x1EBF DUP9 DUP3 DUP10 ADD PUSH2 0x1BD5 JUMP JUMPDEST SWAP6 POP POP PUSH1 0x20 PUSH2 0x1ED0 DUP9 DUP3 DUP10 ADD PUSH2 0x1B68 JUMP JUMPDEST SWAP5 POP POP PUSH1 0x40 PUSH2 0x1EE1 DUP9 DUP3 DUP10 ADD PUSH2 0x1BC0 JUMP JUMPDEST SWAP4 POP POP PUSH1 0x60 PUSH2 0x1EF2 DUP9 DUP3 DUP10 ADD PUSH2 0x1BC0 JUMP JUMPDEST SWAP3 POP POP PUSH1 0x80 PUSH2 0x1F03 DUP9 DUP3 DUP10 ADD PUSH2 0x1BD5 JUMP JUMPDEST SWAP2 POP POP SWAP3 SWAP6 POP SWAP3 SWAP6 SWAP1 SWAP4 POP JUMP JUMPDEST PUSH1 0x0 PUSH2 0x1F1C DUP4 DUP4 PUSH2 0x206D JUMP JUMPDEST SWAP1 POP SWAP3 SWAP2 POP POP JUMP JUMPDEST PUSH1 0x0 PUSH2 0x1F30 DUP4 DUP4 PUSH2 0x223E JUMP JUMPDEST SWAP1 POP SWAP3 SWAP2 POP POP JUMP JUMPDEST PUSH2 0x1F41 DUP2 PUSH2 0x2875 JUMP JUMPDEST DUP3 MSTORE POP POP JUMP JUMPDEST PUSH2 0x1F50 DUP2 PUSH2 0x2875 JUMP JUMPDEST DUP3 MSTORE POP POP JUMP JUMPDEST PUSH1 0x0 PUSH2 0x1F61 DUP3 PUSH2 0x27B7 JUMP JUMPDEST PUSH2 0x1F6B DUP2 DUP6 PUSH2 0x27F2 JUMP JUMPDEST SWAP4 POP DUP4 PUSH1 0x20 DUP3 MUL DUP6 ADD PUSH2 0x1F7D DUP6 PUSH2 0x2782 JUMP JUMPDEST DUP1 PUSH1 0x0 JUMPDEST DUP6 DUP2 LT ISZERO PUSH2 0x1FB9 JUMPI DUP5 DUP5 SUB DUP10 MSTORE DUP2 MLOAD PUSH2 0x1F9A DUP6 DUP3 PUSH2 0x1F10 JUMP JUMPDEST SWAP5 POP PUSH2 0x1FA5 DUP4 PUSH2 0x27D8 JUMP JUMPDEST SWAP3 POP PUSH1 0x20 DUP11 ADD SWAP10 POP POP PUSH1 0x1 DUP2 ADD SWAP1 POP PUSH2 0x1F81 JUMP JUMPDEST POP DUP3 SWAP8 POP DUP8 SWAP6 POP POP POP POP POP POP SWAP3 SWAP2 POP POP JUMP JUMPDEST PUSH1 0x0 PUSH2 0x1FD6 DUP3 PUSH2 0x27C2 JUMP JUMPDEST PUSH2 0x1FE0 DUP2 DUP6 PUSH2 0x2803 JUMP JUMPDEST SWAP4 POP DUP4 PUSH1 0x20 DUP3 MUL DUP6 ADD PUSH2 0x1FF2 DUP6 PUSH2 0x2792 JUMP JUMPDEST DUP1 PUSH1 0x0 JUMPDEST DUP6 DUP2 LT ISZERO PUSH2 0x202E JUMPI DUP5 DUP5 SUB DUP10 MSTORE DUP2 MLOAD PUSH2 0x200F DUP6 DUP3 PUSH2 0x1F24 JUMP JUMPDEST SWAP5 POP PUSH2 0x201A DUP4 PUSH2 0x27E5 JUMP JUMPDEST SWAP3 POP PUSH1 0x20 DUP11 ADD SWAP10 POP POP PUSH1 0x1 DUP2 ADD SWAP1 POP PUSH2 0x1FF6 JUMP JUMPDEST POP DUP3 SWAP8 POP DUP8 SWAP6 POP POP POP POP POP POP SWAP3 SWAP2 POP POP JUMP JUMPDEST PUSH2 0x2049 DUP2 PUSH2 0x28E4 JUMP JUMPDEST DUP3 MSTORE POP POP JUMP JUMPDEST PUSH2 0x2058 DUP2 PUSH2 0x289A JUMP JUMPDEST DUP3 MSTORE POP POP JUMP JUMPDEST PUSH2 0x2067 DUP2 PUSH2 0x28F6 JUMP JUMPDEST DUP3 MSTORE POP POP JUMP JUMPDEST PUSH1 0x0 PUSH2 0x2078 DUP3 PUSH2 0x27CD JUMP JUMPDEST PUSH2 0x2082 DUP2 DUP6 PUSH2 0x2814 JUMP JUMPDEST SWAP4 POP PUSH2 0x2092 DUP2 DUP6 PUSH1 0x20 DUP7 ADD PUSH2 0x2917 JUMP JUMPDEST PUSH2 0x209B DUP2 PUSH2 0x2B24 JUMP JUMPDEST DUP5 ADD SWAP2 POP POP SWAP3 SWAP2 POP POP JUMP JUMPDEST PUSH1 0x0 PUSH2 0x20B1 DUP3 PUSH2 0x27CD JUMP JUMPDEST PUSH2 0x20BB DUP2 DUP6 PUSH2 0x2825 JUMP JUMPDEST SWAP4 POP PUSH2 0x20CB DUP2 DUP6 PUSH1 0x20 DUP7 ADD PUSH2 0x2917 JUMP JUMPDEST PUSH2 0x20D4 DUP2 PUSH2 0x2B24 JUMP JUMPDEST DUP5 ADD SWAP2 POP POP SWAP3 SWAP2 POP POP JUMP JUMPDEST PUSH1 0x0 PUSH2 0x20EA DUP3 PUSH2 0x27CD JUMP JUMPDEST PUSH2 0x20F4 DUP2 DUP6 PUSH2 0x2836 JUMP JUMPDEST SWAP4 POP PUSH2 0x2104 DUP2 DUP6 PUSH1 0x20 DUP7 ADD PUSH2 0x2917 JUMP JUMPDEST DUP1 DUP5 ADD SWAP2 POP POP SWAP3 SWAP2 POP POP JUMP JUMPDEST PUSH1 0x0 DUP2 SLOAD PUSH2 0x211D DUP2 PUSH2 0x294A JUMP JUMPDEST PUSH2 0x2127 DUP2 DUP7 PUSH2 0x2836 JUMP JUMPDEST SWAP5 POP PUSH1 0x1 DUP3 AND PUSH1 0x0 DUP2 EQ PUSH2 0x2142 JUMPI PUSH1 0x1 DUP2 EQ PUSH2 0x2153 JUMPI PUSH2 0x2186 JUMP JUMPDEST PUSH1 0xFF NOT DUP4 AND DUP7 MSTORE DUP2 DUP7 ADD SWAP4 POP PUSH2 0x2186 JUMP JUMPDEST PUSH2 0x215C DUP6 PUSH2 0x27A2 JUMP JUMPDEST PUSH1 0x0 JUMPDEST DUP4 DUP2 LT ISZERO PUSH2 0x217E JUMPI DUP2 SLOAD DUP2 DUP10 ADD MSTORE PUSH1 0x1 DUP3 ADD SWAP2 POP PUSH1 0x20 DUP2 ADD SWAP1 POP PUSH2 0x215F JUMP JUMPDEST DUP4 DUP9 ADD SWAP6 POP POP POP JUMPDEST POP POP POP SWAP3 SWAP2 POP POP JUMP JUMPDEST PUSH1 0x0 PUSH2 0x219C PUSH1 0x15 DUP4 PUSH2 0x2825 JUMP JUMPDEST SWAP2 POP PUSH2 0x21A7 DUP3 PUSH2 0x2B35 JUMP JUMPDEST PUSH1 0x20 DUP3 ADD SWAP1 POP SWAP2 SWAP1 POP JUMP JUMPDEST PUSH1 0x0 PUSH2 0x21BF PUSH1 0x9 DUP4 PUSH2 0x2825 JUMP JUMPDEST SWAP2 POP PUSH2 0x21CA DUP3 PUSH2 0x2B5E JUMP JUMPDEST PUSH1 0x20 DUP3 ADD SWAP1 POP SWAP2 SWAP1 POP JUMP JUMPDEST PUSH1 0x0 PUSH2 0x21E2 PUSH1 0x1C DUP4 PUSH2 0x2825 JUMP JUMPDEST SWAP2 POP PUSH2 0x21ED DUP3 PUSH2 0x2B87 JUMP JUMPDEST PUSH1 0x20 DUP3 ADD SWAP1 POP SWAP2 SWAP1 POP JUMP JUMPDEST PUSH1 0x0 PUSH2 0x2205 PUSH1 0x1E DUP4 PUSH2 0x2825 JUMP JUMPDEST SWAP2 POP PUSH2 0x2210 DUP3 PUSH2 0x2BB0 JUMP JUMPDEST PUSH1 0x20 DUP3 ADD SWAP1 POP SWAP2 SWAP1 POP JUMP JUMPDEST PUSH1 0x0 PUSH2 0x2228 PUSH1 0x1E DUP4 PUSH2 0x2825 JUMP JUMPDEST SWAP2 POP PUSH2 0x2233 DUP3 PUSH2 0x2BD9 JUMP JUMPDEST PUSH1 0x20 DUP3 ADD SWAP1 POP SWAP2 SWAP1 POP JUMP JUMPDEST PUSH1 0x0 PUSH2 0x120 DUP4 ADD PUSH1 0x0 DUP4 ADD MLOAD PUSH2 0x2257 PUSH1 0x0 DUP7 ADD DUP3 PUSH2 0x230A JUMP JUMPDEST POP PUSH1 0x20 DUP4 ADD MLOAD DUP5 DUP3 SUB PUSH1 0x20 DUP7 ADD MSTORE PUSH2 0x226F DUP3 DUP3 PUSH2 0x206D JUMP JUMPDEST SWAP2 POP POP PUSH1 0x40 DUP4 ADD MLOAD DUP5 DUP3 SUB PUSH1 0x40 DUP7 ADD MSTORE PUSH2 0x2289 DUP3 DUP3 PUSH2 0x206D JUMP JUMPDEST SWAP2 POP POP PUSH1 0x60 DUP4 ADD MLOAD PUSH2 0x229E PUSH1 0x60 DUP7 ADD DUP3 PUSH2 0x230A JUMP JUMPDEST POP PUSH1 0x80 DUP4 ADD MLOAD PUSH2 0x22B1 PUSH1 0x80 DUP7 ADD DUP3 PUSH2 0x230A JUMP JUMPDEST POP PUSH1 0xA0 DUP4 ADD MLOAD PUSH2 0x22C4 PUSH1 0xA0 DUP7 ADD DUP3 PUSH2 0x230A JUMP JUMPDEST POP PUSH1 0xC0 DUP4 ADD MLOAD PUSH2 0x22D7 PUSH1 0xC0 DUP7 ADD DUP3 PUSH2 0x230A JUMP JUMPDEST POP PUSH1 0xE0 DUP4 ADD MLOAD PUSH2 0x22EA PUSH1 0xE0 DUP7 ADD DUP3 PUSH2 0x230A JUMP JUMPDEST POP PUSH2 0x100 DUP4 ADD MLOAD PUSH2 0x22FF PUSH2 0x100 DUP7 ADD DUP3 PUSH2 0x1F38 JUMP JUMPDEST POP DUP1 SWAP2 POP POP SWAP3 SWAP2 POP POP JUMP JUMPDEST PUSH2 0x2313 DUP2 PUSH2 0x28C4 JUMP JUMPDEST DUP3 MSTORE POP POP JUMP JUMPDEST PUSH2 0x2322 DUP2 PUSH2 0x28C4 JUMP JUMPDEST DUP3 MSTORE POP POP JUMP JUMPDEST PUSH1 0x0 PUSH2 0x2334 DUP3 DUP5 PUSH2 0x20DF JUMP JUMPDEST SWAP2 POP DUP2 SWAP1 POP SWAP3 SWAP2 POP POP JUMP JUMPDEST PUSH1 0x0 PUSH2 0x234B DUP3 DUP5 PUSH2 0x2110 JUMP JUMPDEST SWAP2 POP DUP2 SWAP1 POP SWAP3 SWAP2 POP POP JUMP JUMPDEST PUSH1 0x0 PUSH1 0x20 DUP3 ADD SWAP1 POP DUP2 DUP2 SUB PUSH1 0x0 DUP4 ADD MSTORE PUSH2 0x2370 DUP2 DUP5 PUSH2 0x1F56 JUMP JUMPDEST SWAP1 POP SWAP3 SWAP2 POP POP JUMP JUMPDEST PUSH1 0x0 PUSH1 0x20 DUP3 ADD SWAP1 POP DUP2 DUP2 SUB PUSH1 0x0 DUP4 ADD MSTORE PUSH2 0x2392 DUP2 DUP5 PUSH2 0x1FCB JUMP JUMPDEST SWAP1 POP SWAP3 SWAP2 POP POP JUMP JUMPDEST PUSH1 0x0 PUSH1 0x20 DUP3 ADD SWAP1 POP PUSH2 0x23AF PUSH1 0x0 DUP4 ADD DUP5 PUSH2 0x2040 JUMP JUMPDEST SWAP3 SWAP2 POP POP JUMP JUMPDEST PUSH1 0x0 PUSH1 0x20 DUP3 ADD SWAP1 POP DUP2 DUP2 SUB PUSH1 0x0 DUP4 ADD MSTORE PUSH2 0x23CF DUP2 DUP5 PUSH2 0x20A6 JUMP JUMPDEST SWAP1 POP SWAP3 SWAP2 POP POP JUMP JUMPDEST PUSH1 0x0 PUSH1 0x80 DUP3 ADD SWAP1 POP DUP2 DUP2 SUB PUSH1 0x0 DUP4 ADD MSTORE PUSH2 0x23F1 DUP2 DUP8 PUSH2 0x20A6 JUMP JUMPDEST SWAP1 POP PUSH2 0x2400 PUSH1 0x20 DUP4 ADD DUP7 PUSH2 0x204F JUMP JUMPDEST PUSH2 0x240D PUSH1 0x40 DUP4 ADD DUP6 PUSH2 0x204F JUMP JUMPDEST PUSH2 0x241A PUSH1 0x60 DUP4 ADD DUP5 PUSH2 0x2319 JUMP JUMPDEST SWAP6 SWAP5 POP POP POP POP POP JUMP JUMPDEST PUSH1 0x0 PUSH1 0x80 DUP3 ADD SWAP1 POP DUP2 DUP2 SUB PUSH1 0x0 DUP4 ADD MSTORE PUSH2 0x243D DUP2 DUP8 PUSH2 0x20A6 JUMP JUMPDEST SWAP1 POP PUSH2 0x244C PUSH1 0x20 DUP4 ADD DUP7 PUSH2 0x204F JUMP JUMPDEST PUSH2 0x2459 PUSH1 0x40 DUP4 ADD DUP6 PUSH2 0x205E JUMP JUMPDEST PUSH2 0x2466 PUSH1 0x60 DUP4 ADD DUP5 PUSH2 0x2319 JUMP JUMPDEST SWAP6 SWAP5 POP POP POP POP POP JUMP JUMPDEST PUSH1 0x0 PUSH1 0x40 DUP3 ADD SWAP1 POP DUP2 DUP2 SUB PUSH1 0x0 DUP4 ADD MSTORE PUSH2 0x2489 DUP2 DUP5 PUSH2 0x20A6 JUMP JUMPDEST SWAP1 POP DUP2 DUP2 SUB PUSH1 0x20 DUP4 ADD MSTORE PUSH2 0x249C DUP2 PUSH2 0x21D5 JUMP JUMPDEST SWAP1 POP SWAP3 SWAP2 POP POP JUMP JUMPDEST PUSH1 0x0 PUSH1 0xE0 DUP3 ADD SWAP1 POP DUP2 DUP2 SUB PUSH1 0x0 DUP4 ADD MSTORE PUSH2 0x24BE DUP2 DUP10 PUSH2 0x20A6 JUMP JUMPDEST SWAP1 POP PUSH2 0x24CD PUSH1 0x20 DUP4 ADD DUP9 PUSH2 0x2319 JUMP JUMPDEST PUSH2 0x24DA PUSH1 0x40 DUP4 ADD DUP8 PUSH2 0x2319 JUMP JUMPDEST PUSH2 0x24E7 PUSH1 0x60 DUP4 ADD DUP7 PUSH2 0x2319 JUMP JUMPDEST PUSH2 0x24F4 PUSH1 0x80 DUP4 ADD DUP6 PUSH2 0x2319 JUMP JUMPDEST PUSH2 0x2501 PUSH1 0xA0 DUP4 ADD DUP5 PUSH2 0x1F47 JUMP JUMPDEST DUP2 DUP2 SUB PUSH1 0xC0 DUP4 ADD MSTORE PUSH2 0x2512 DUP2 PUSH2 0x221B JUMP JUMPDEST SWAP1 POP SWAP8 SWAP7 POP POP POP POP POP POP POP JUMP JUMPDEST PUSH1 0x0 PUSH2 0x120 DUP3 ADD SWAP1 POP DUP2 DUP2 SUB PUSH1 0x0 DUP4 ADD MSTORE PUSH2 0x253A DUP2 DUP13 PUSH2 0x20A6 JUMP JUMPDEST SWAP1 POP PUSH2 0x2549 PUSH1 0x20 DUP4 ADD DUP12 PUSH2 0x2319 JUMP JUMPDEST PUSH2 0x2556 PUSH1 0x40 DUP4 ADD DUP11 PUSH2 0x2319 JUMP JUMPDEST PUSH2 0x2563 PUSH1 0x60 DUP4 ADD DUP10 PUSH2 0x2319 JUMP JUMPDEST PUSH2 0x2570 PUSH1 0x80 DUP4 ADD DUP9 PUSH2 0x2319 JUMP JUMPDEST PUSH2 0x257D PUSH1 0xA0 DUP4 ADD DUP8 PUSH2 0x204F JUMP JUMPDEST PUSH2 0x258A PUSH1 0xC0 DUP4 ADD DUP7 PUSH2 0x2319 JUMP JUMPDEST PUSH2 0x2597 PUSH1 0xE0 DUP4 ADD DUP6 PUSH2 0x2319 JUMP JUMPDEST PUSH2 0x25A5 PUSH2 0x100 DUP4 ADD DUP5 PUSH2 0x1F47 JUMP JUMPDEST SWAP11 SWAP10 POP POP POP POP POP POP POP POP POP POP JUMP JUMPDEST PUSH1 0x0 PUSH1 0x20 DUP3 ADD SWAP1 POP DUP2 DUP2 SUB PUSH1 0x0 DUP4 ADD MSTORE PUSH2 0x25CC DUP2 PUSH2 0x21B2 JUMP JUMPDEST SWAP1 POP SWAP2 SWAP1 POP JUMP JUMPDEST PUSH1 0x0 PUSH1 0x20 DUP3 ADD SWAP1 POP DUP2 DUP2 SUB PUSH1 0x0 DUP4 ADD MSTORE PUSH2 0x25EC DUP2 PUSH2 0x21F8 JUMP JUMPDEST SWAP1 POP SWAP2 SWAP1 POP JUMP JUMPDEST PUSH1 0x0 PUSH1 0x20 DUP3 ADD SWAP1 POP PUSH2 0x2608 PUSH1 0x0 DUP4 ADD DUP5 PUSH2 0x2319 JUMP JUMPDEST SWAP3 SWAP2 POP POP JUMP JUMPDEST PUSH1 0x0 PUSH2 0x120 DUP3 ADD SWAP1 POP PUSH2 0x2624 PUSH1 0x0 DUP4 ADD DUP13 PUSH2 0x2319 JUMP JUMPDEST DUP2 DUP2 SUB PUSH1 0x20 DUP4 ADD MSTORE PUSH2 0x2636 DUP2 DUP12 PUSH2 0x20A6 JUMP JUMPDEST SWAP1 POP DUP2 DUP2 SUB PUSH1 0x40 DUP4 ADD MSTORE PUSH2 0x264A DUP2 DUP11 PUSH2 0x20A6 JUMP JUMPDEST SWAP1 POP PUSH2 0x2659 PUSH1 0x60 DUP4 ADD DUP10 PUSH2 0x2319 JUMP JUMPDEST PUSH2 0x2666 PUSH1 0x80 DUP4 ADD DUP9 PUSH2 0x2319 JUMP JUMPDEST PUSH2 0x2673 PUSH1 0xA0 DUP4 ADD DUP8 PUSH2 0x2319 JUMP JUMPDEST PUSH2 0x2680 PUSH1 0xC0 DUP4 ADD DUP7 PUSH2 0x2319 JUMP JUMPDEST PUSH2 0x268D PUSH1 0xE0 DUP4 ADD DUP6 PUSH2 0x2319 JUMP JUMPDEST PUSH2 0x269B PUSH2 0x100 DUP4 ADD DUP5 PUSH2 0x1F47 JUMP JUMPDEST SWAP11 SWAP10 POP POP POP POP POP POP POP POP POP POP JUMP JUMPDEST PUSH1 0x0 PUSH2 0x100 DUP3 ADD SWAP1 POP PUSH2 0x26BF PUSH1 0x0 DUP4 ADD DUP11 PUSH2 0x2319 JUMP JUMPDEST PUSH2 0x26CC PUSH1 0x20 DUP4 ADD DUP10 PUSH2 0x2319 JUMP JUMPDEST PUSH2 0x26D9 PUSH1 0x40 DUP4 ADD DUP9 PUSH2 0x2319 JUMP JUMPDEST PUSH2 0x26E6 PUSH1 0x60 DUP4 ADD DUP8 PUSH2 0x2319 JUMP JUMPDEST PUSH2 0x26F3 PUSH1 0x80 DUP4 ADD DUP7 PUSH2 0x1F47 JUMP JUMPDEST PUSH2 0x2700 PUSH1 0xA0 DUP4 ADD DUP6 PUSH2 0x2319 JUMP JUMPDEST PUSH2 0x270D PUSH1 0xC0 DUP4 ADD DUP5 PUSH2 0x2319 JUMP JUMPDEST DUP2 DUP2 SUB PUSH1 0xE0 DUP4 ADD MSTORE PUSH2 0x271E DUP2 PUSH2 0x218F JUMP JUMPDEST SWAP1 POP SWAP9 SWAP8 POP POP POP POP POP POP POP POP JUMP JUMPDEST PUSH1 0x0 PUSH2 0x2736 PUSH2 0x2747 JUMP JUMPDEST SWAP1 POP PUSH2 0x2742 DUP3 DUP3 PUSH2 0x297C JUMP JUMPDEST SWAP2 SWAP1 POP JUMP JUMPDEST PUSH1 0x0 PUSH1 0x40 MLOAD SWAP1 POP SWAP1 JUMP JUMPDEST PUSH1 0x0 PUSH8 0xFFFFFFFFFFFFFFFF DUP3 GT ISZERO PUSH2 0x276C JUMPI PUSH2 0x276B PUSH2 0x2AE1 JUMP JUMPDEST JUMPDEST PUSH2 0x2775 DUP3 PUSH2 0x2B24 JUMP JUMPDEST SWAP1 POP PUSH1 0x20 DUP2 ADD SWAP1 POP SWAP2 SWAP1 POP JUMP JUMPDEST PUSH1 0x0 DUP2 SWAP1 POP PUSH1 0x20 DUP3 ADD SWAP1 POP SWAP2 SWAP1 POP JUMP JUMPDEST PUSH1 0x0 DUP2 SWAP1 POP PUSH1 0x20 DUP3 ADD SWAP1 POP SWAP2 SWAP1 POP JUMP JUMPDEST PUSH1 0x0 DUP2 SWAP1 POP DUP2 PUSH1 0x0 MSTORE PUSH1 0x20 PUSH1 0x0 KECCAK256 SWAP1 POP SWAP2 SWAP1 POP JUMP JUMPDEST PUSH1 0x0 DUP2 MLOAD SWAP1 POP SWAP2 SWAP1 POP JUMP JUMPDEST PUSH1 0x0 DUP2 MLOAD SWAP1 POP SWAP2 SWAP1 POP JUMP JUMPDEST PUSH1 0x0 DUP2 MLOAD SWAP1 POP SWAP2 SWAP1 POP JUMP JUMPDEST PUSH1 0x0 PUSH1 0x20 DUP3 ADD SWAP1 POP SWAP2 SWAP1 POP JUMP JUMPDEST PUSH1 0x0 PUSH1 0x20 DUP3 ADD SWAP1 POP SWAP2 SWAP1 POP JUMP JUMPDEST PUSH1 0x0 DUP3 DUP3 MSTORE PUSH1 0x20 DUP3 ADD SWAP1 POP SWAP3 SWAP2 POP POP JUMP JUMPDEST PUSH1 0x0 DUP3 DUP3 MSTORE PUSH1 0x20 DUP3 ADD SWAP1 POP SWAP3 SWAP2 POP POP JUMP JUMPDEST PUSH1 0x0 DUP3 DUP3 MSTORE PUSH1 0x20 DUP3 ADD SWAP1 POP SWAP3 SWAP2 POP POP JUMP JUMPDEST PUSH1 0x0 DUP3 DUP3 MSTORE PUSH1 0x20 DUP3 ADD SWAP1 POP SWAP3 SWAP2 POP POP JUMP JUMPDEST PUSH1 0x0 DUP2 SWAP1 POP SWAP3 SWAP2 POP POP JUMP JUMPDEST PUSH1 0x0 PUSH2 0x284C DUP3 PUSH2 0x28C4 JUMP JUMPDEST SWAP2 POP PUSH2 0x2857 DUP4 PUSH2 0x28C4 JUMP JUMPDEST SWAP3 POP DUP3 DUP3 LT ISZERO PUSH2 0x286A JUMPI PUSH2 0x2869 PUSH2 0x29F6 JUMP JUMPDEST JUMPDEST DUP3 DUP3 SUB SWAP1 POP SWAP3 SWAP2 POP POP JUMP JUMPDEST PUSH1 0x0 PUSH2 0x2880 DUP3 PUSH2 0x28A4 JUMP JUMPDEST SWAP1 POP SWAP2 SWAP1 POP JUMP JUMPDEST PUSH1 0x0 DUP2 SWAP1 POP PUSH2 0x2895 DUP3 PUSH2 0x2C02 JUMP JUMPDEST SWAP2 SWAP1 POP JUMP JUMPDEST PUSH1 0x0 DUP2 SWAP1 POP SWAP2 SWAP1 POP JUMP JUMPDEST PUSH1 0x0 PUSH20 0xFFFFFFFFFFFFFFFFFFFFFFFFFFFFFFFFFFFFFFFF DUP3 AND SWAP1 POP SWAP2 SWAP1 POP JUMP JUMPDEST PUSH1 0x0 DUP2 SWAP1 POP SWAP2 SWAP1 POP JUMP JUMPDEST PUSH1 0x0 PUSH10 0xFFFFFFFFFFFFFFFFFFFF DUP3 AND SWAP1 POP SWAP2 SWAP1 POP JUMP JUMPDEST PUSH1 0x0 PUSH2 0x28EF DUP3 PUSH2 0x2887 JUMP JUMPDEST SWAP1 POP SWAP2 SWAP1 POP JUMP JUMPDEST PUSH1 0x0 PUSH2 0x2901 DUP3 PUSH2 0x289A JUMP JUMPDEST SWAP1 POP SWAP2 SWAP1 POP JUMP JUMPDEST DUP3 DUP2 DUP4 CALLDATACOPY PUSH1 0x0 DUP4 DUP4 ADD MSTORE POP POP POP JUMP JUMPDEST PUSH1 0x0 JUMPDEST DUP4 DUP2 LT ISZERO PUSH2 0x2935 JUMPI DUP1 DUP3 ADD MLOAD DUP2 DUP5 ADD MSTORE PUSH1 0x20 DUP2 ADD SWAP1 POP PUSH2 0x291A JUMP JUMPDEST DUP4 DUP2 GT ISZERO PUSH2 0x2944 JUMPI PUSH1 0x0 DUP5 DUP5 ADD MSTORE JUMPDEST POP POP POP POP JUMP JUMPDEST PUSH1 0x0 PUSH1 0x2 DUP3 DIV SWAP1 POP PUSH1 0x1 DUP3 AND DUP1 PUSH2 0x2962 JUMPI PUSH1 0x7F DUP3 AND SWAP2 POP JUMPDEST PUSH1 0x20 DUP3 LT DUP2 EQ ISZERO PUSH2 0x2976 JUMPI PUSH2 0x2975 PUSH2 0x2A54 JUMP JUMPDEST JUMPDEST POP SWAP2 SWAP1 POP JUMP JUMPDEST PUSH2 0x2985 DUP3 PUSH2 0x2B24 JUMP JUMPDEST DUP2 ADD DUP2 DUP2 LT PUSH8 0xFFFFFFFFFFFFFFFF DUP3 GT OR ISZERO PUSH2 0x29A4 JUMPI PUSH2 0x29A3 PUSH2 0x2AE1 JUMP JUMPDEST JUMPDEST DUP1 PUSH1 0x40 MSTORE POP POP POP JUMP JUMPDEST PUSH1 0x0 PUSH2 0x29B8 DUP3 PUSH2 0x28C4 JUMP JUMPDEST SWAP2 POP PUSH32 0xFFFFFFFFFFFFFFFFFFFFFFFFFFFFFFFFFFFFFFFFFFFFFFFFFFFFFFFFFFFFFFFF DUP3 EQ ISZERO PUSH2 0x29EB JUMPI PUSH2 0x29EA PUSH2 0x29F6 JUMP JUMPDEST JUMPDEST PUSH1 0x1 DUP3 ADD SWAP1 POP SWAP2 SWAP1 POP JUMP JUMPDEST PUSH32 0x4E487B7100000000000000000000000000000000000000000000000000000000 PUSH1 0x0 MSTORE PUSH1 0x11 PUSH1 0x4 MSTORE PUSH1 0x24 PUSH1 0x0 REVERT JUMPDEST PUSH32 0x4E487B7100000000000000000000000000000000000000000000000000000000 PUSH1 0x0 MSTORE PUSH1 0x21 PUSH1 0x4 MSTORE PUSH1 0x24 PUSH1 0x0 REVERT JUMPDEST PUSH32 0x4E487B7100000000000000000000000000000000000000000000000000000000 PUSH1 0x0 MSTORE PUSH1 0x22 PUSH1 0x4 MSTORE PUSH1 0x24 PUSH1 0x0 REVERT JUMPDEST PUSH32 0x4E487B7100000000000000000000000000000000000000000000000000000000 PUSH1 0x0 MSTORE PUSH1 0x31 PUSH1 0x4 MSTORE PUSH1 0x24 PUSH1 0x0 REVERT JUMPDEST PUSH32 0x4E487B7100000000000000000000000000000000000000000000000000000000 PUSH1 0x0 MSTORE PUSH1 0x32 PUSH1 0x4 MSTORE PUSH1 0x24 PUSH1 0x0 REVERT JUMPDEST PUSH32 0x4E487B7100000000000000000000000000000000000000000000000000000000 PUSH1 0x0 MSTORE PUSH1 0x41 PUSH1 0x4 MSTORE PUSH1 0x24 PUSH1 0x0 REVERT JUMPDEST PUSH1 0x0 DUP1 REVERT JUMPDEST PUSH1 0x0 DUP1 REVERT JUMPDEST PUSH1 0x0 DUP1 REVERT JUMPDEST PUSH1 0x0 DUP1 REVERT JUMPDEST PUSH1 0x0 PUSH1 0x1F NOT PUSH1 0x1F DUP4 ADD AND SWAP1 POP SWAP2 SWAP1 POP JUMP JUMPDEST PUSH32 0x646C636C696E6B3A6372656174652D646C633A76300000000000000000000000 PUSH1 0x0 DUP3 ADD MSTORE POP JUMP JUMPDEST PUSH32 0x4E6F7420466F756E640000000000000000000000000000000000000000000000 PUSH1 0x0 DUP3 ADD MSTORE POP JUMP JUMPDEST PUSH32 0x646C636C696E6B3A7365742D7374617475732D66756E6465643A763000000000 PUSH1 0x0 DUP3 ADD MSTORE POP JUMP JUMPDEST PUSH32 0x56616C69646174696F6E206661696C656420666F7220636C6F7365446C630000 PUSH1 0x0 DUP3 ADD MSTORE POP JUMP JUMPDEST PUSH32 0x646C636C696E6B3A6372656174652D646C632D696E7465726E616C3A76300000 PUSH1 0x0 DUP3 ADD MSTORE POP JUMP JUMPDEST PUSH1 0x7 DUP2 LT PUSH2 0x2C13 JUMPI PUSH2 0x2C12 PUSH2 0x2A25 JUMP JUMPDEST JUMPDEST POP JUMP JUMPDEST PUSH2 0x2C1F DUP2 PUSH2 0x2875 JUMP JUMPDEST DUP2 EQ PUSH2 0x2C2A JUMPI PUSH1 0x0 DUP1 REVERT JUMPDEST POP JUMP JUMPDEST PUSH1 0x7 DUP2 LT PUSH2 0x2C3A JUMPI PUSH1 0x0 DUP1 REVERT JUMPDEST POP JUMP JUMPDEST PUSH2 0x2C46 DUP2 PUSH2 0x289A JUMP JUMPDEST DUP2 EQ PUSH2 0x2C51 JUMPI PUSH1 0x0 DUP1 REVERT JUMPDEST POP JUMP JUMPDEST PUSH2 0x2C5D DUP2 PUSH2 0x28C4 JUMP JUMPDEST DUP2 EQ PUSH2 0x2C68 JUMPI PUSH1 0x0 DUP1 REVERT JUMPDEST POP JUMP JUMPDEST PUSH2 0x2C74 DUP2 PUSH2 0x28CE JUMP JUMPDEST DUP2 EQ PUSH2 0x2C7F JUMPI PUSH1 0x0 DUP1 REVERT JUMPDEST POP JUMP INVALID LOG2 PUSH5 0x6970667358 0x22 SLT KECCAK256 0xCD PUSH7 0x498A11DA7C9B79 0x4D 0x2F 0xA5 0xAC 0xB6 PUSH26 0xF68EA504FF8698B2286EDD52D01BBA4464736F6C6343000807 STOP CALLER "
				},
				"gasEstimates": {
					"creation": {
						"codeDepositCost": "2289600",
						"executionCost": "infinite",
						"totalCost": "infinite"
					},
					"external": {
						"closeDlc(string)": "infinite",
						"closeDlcLiquidate(string)": "infinite",
						"createDLCInternal(string,uint256,uint256,uint256,uint256,address,uint256)": "infinite",
						"createDlc(uint256,uint256,uint256,uint256,address,uint256,uint256)": "infinite",
						"dlcs(string)": "infinite",
						"getAllLoansForAddress(address)": "infinite",
						"getAllUUIDs()": "infinite",
						"liquidateLoan(uint256)": "infinite",
						"loans(uint256)": "infinite",
						"loansPerAddress(address)": "2859",
						"numLoans()": "2517",
						"openUUIDs(uint256)": "infinite",
						"repayLoan(uint256)": "infinite",
						"setStatusFunded(string)": "infinite",
						"setupLoan(uint256,uint256,uint256,uint256,uint256)": "infinite",
						"status()": "2606",
						"statuses(uint8)": "infinite"
					},
					"internal": {
						"findIndex(string memory)": "infinite",
						"findLoanIndex(string memory)": "infinite",
						"getLatestPrice(address)": "infinite",
						"removeClosedDLC(uint256)": "infinite"
					}
				},
				"methodIdentifiers": {
					"closeDlc(string)": "9e098026",
					"closeDlcLiquidate(string)": "d4252cc3",
					"createDLCInternal(string,uint256,uint256,uint256,uint256,address,uint256)": "35dd76ce",
					"createDlc(uint256,uint256,uint256,uint256,address,uint256,uint256)": "3902fe90",
					"dlcs(string)": "0ef2feff",
					"getAllLoansForAddress(address)": "572343f1",
					"getAllUUIDs()": "8ff37151",
					"liquidateLoan(uint256)": "ccdd9f5d",
					"loans(uint256)": "e1ec3c68",
					"loansPerAddress(address)": "41f5d7cd",
					"numLoans()": "d463eeb3",
					"openUUIDs(uint256)": "2e730910",
					"repayLoan(uint256)": "ab7b1c89",
					"setStatusFunded(string)": "89a12db4",
					"setupLoan(uint256,uint256,uint256,uint256,uint256)": "47f8bf1c",
					"status()": "200d2ed2",
					"statuses(uint8)": "62e87240"
				}
			},
			"storageLayout": {
				"storage": [
					{
						"astId": 49,
						"contract": "DiscreetLog_flat.sol:DiscreetLog",
						"label": "openUUIDs",
						"offset": 0,
						"slot": "0",
						"type": "t_array(t_string_storage)dyn_storage"
					},
					{
						"astId": 54,
						"contract": "DiscreetLog_flat.sol:DiscreetLog",
						"label": "dlcs",
						"offset": 0,
						"slot": "1",
						"type": "t_mapping(t_string_memory_ptr,t_struct(DLC)101_storage)"
					},
					{
						"astId": 59,
						"contract": "DiscreetLog_flat.sol:DiscreetLog",
						"label": "loans",
						"offset": 0,
						"slot": "2",
						"type": "t_mapping(t_uint256,t_struct(Loan)120_storage)"
					},
					{
						"astId": 62,
						"contract": "DiscreetLog_flat.sol:DiscreetLog",
						"label": "numLoans",
						"offset": 0,
						"slot": "3",
						"type": "t_uint256"
					},
					{
						"astId": 66,
						"contract": "DiscreetLog_flat.sol:DiscreetLog",
						"label": "loansPerAddress",
						"offset": 0,
						"slot": "4",
						"type": "t_mapping(t_address,t_uint256)"
					},
					{
						"astId": 77,
						"contract": "DiscreetLog_flat.sol:DiscreetLog",
						"label": "status",
						"offset": 0,
						"slot": "5",
						"type": "t_enum(Status)74"
					},
					{
						"astId": 82,
						"contract": "DiscreetLog_flat.sol:DiscreetLog",
						"label": "statuses",
						"offset": 0,
						"slot": "6",
						"type": "t_mapping(t_enum(Status)74,t_string_storage)"
					}
				],
				"types": {
					"t_address": {
						"encoding": "inplace",
						"label": "address",
						"numberOfBytes": "20"
					},
					"t_array(t_string_storage)dyn_storage": {
						"base": "t_string_storage",
						"encoding": "dynamic_array",
						"label": "string[]",
						"numberOfBytes": "32"
					},
					"t_enum(Status)74": {
						"encoding": "inplace",
						"label": "enum DiscreetLog.Status",
						"numberOfBytes": "1"
					},
					"t_int256": {
						"encoding": "inplace",
						"label": "int256",
						"numberOfBytes": "32"
					},
					"t_mapping(t_address,t_uint256)": {
						"encoding": "mapping",
						"key": "t_address",
						"label": "mapping(address => uint256)",
						"numberOfBytes": "32",
						"value": "t_uint256"
					},
					"t_mapping(t_enum(Status)74,t_string_storage)": {
						"encoding": "mapping",
						"key": "t_enum(Status)74",
						"label": "mapping(enum DiscreetLog.Status => string)",
						"numberOfBytes": "32",
						"value": "t_string_storage"
					},
					"t_mapping(t_string_memory_ptr,t_struct(DLC)101_storage)": {
						"encoding": "mapping",
						"key": "t_string_memory_ptr",
						"label": "mapping(string => struct DiscreetLog.DLC)",
						"numberOfBytes": "32",
						"value": "t_struct(DLC)101_storage"
					},
					"t_mapping(t_uint256,t_struct(Loan)120_storage)": {
						"encoding": "mapping",
						"key": "t_uint256",
						"label": "mapping(uint256 => struct DiscreetLog.Loan)",
						"numberOfBytes": "32",
						"value": "t_struct(Loan)120_storage"
					},
					"t_string_memory_ptr": {
						"encoding": "bytes",
						"label": "string",
						"numberOfBytes": "32"
					},
					"t_string_storage": {
						"encoding": "bytes",
						"label": "string",
						"numberOfBytes": "32"
					},
					"t_struct(DLC)101_storage": {
						"encoding": "inplace",
						"label": "struct DiscreetLog.DLC",
						"members": [
							{
								"astId": 84,
								"contract": "DiscreetLog_flat.sol:DiscreetLog",
								"label": "uuid",
								"offset": 0,
								"slot": "0",
								"type": "t_string_storage"
							},
							{
								"astId": 86,
								"contract": "DiscreetLog_flat.sol:DiscreetLog",
								"label": "btcDeposit",
								"offset": 0,
								"slot": "1",
								"type": "t_uint256"
							},
							{
								"astId": 88,
								"contract": "DiscreetLog_flat.sol:DiscreetLog",
								"label": "liquidationRatio",
								"offset": 0,
								"slot": "2",
								"type": "t_uint256"
							},
							{
								"astId": 90,
								"contract": "DiscreetLog_flat.sol:DiscreetLog",
								"label": "liquidationFee",
								"offset": 0,
								"slot": "3",
								"type": "t_uint256"
							},
							{
								"astId": 92,
								"contract": "DiscreetLog_flat.sol:DiscreetLog",
								"label": "closingTime",
								"offset": 0,
								"slot": "4",
								"type": "t_uint256"
							},
							{
								"astId": 94,
								"contract": "DiscreetLog_flat.sol:DiscreetLog",
								"label": "closingPrice",
								"offset": 0,
								"slot": "5",
								"type": "t_int256"
							},
							{
								"astId": 96,
								"contract": "DiscreetLog_flat.sol:DiscreetLog",
								"label": "actualClosingTime",
								"offset": 0,
								"slot": "6",
								"type": "t_uint256"
							},
							{
								"astId": 98,
								"contract": "DiscreetLog_flat.sol:DiscreetLog",
								"label": "emergencyRefundTime",
								"offset": 0,
								"slot": "7",
								"type": "t_uint256"
							},
							{
								"astId": 100,
								"contract": "DiscreetLog_flat.sol:DiscreetLog",
								"label": "creator",
								"offset": 0,
								"slot": "8",
								"type": "t_address"
							}
						],
						"numberOfBytes": "288"
					},
					"t_struct(Loan)120_storage": {
						"encoding": "inplace",
						"label": "struct DiscreetLog.Loan",
						"members": [
							{
								"astId": 103,
								"contract": "DiscreetLog_flat.sol:DiscreetLog",
								"label": "id",
								"offset": 0,
								"slot": "0",
								"type": "t_uint256"
							},
							{
								"astId": 105,
								"contract": "DiscreetLog_flat.sol:DiscreetLog",
								"label": "dlc_uuid",
								"offset": 0,
								"slot": "1",
								"type": "t_string_storage"
							},
							{
								"astId": 107,
								"contract": "DiscreetLog_flat.sol:DiscreetLog",
								"label": "status",
								"offset": 0,
								"slot": "2",
								"type": "t_string_storage"
							},
							{
								"astId": 109,
								"contract": "DiscreetLog_flat.sol:DiscreetLog",
								"label": "vaultLoan",
								"offset": 0,
								"slot": "3",
								"type": "t_uint256"
							},
							{
								"astId": 111,
								"contract": "DiscreetLog_flat.sol:DiscreetLog",
								"label": "vaultCollateral",
								"offset": 0,
								"slot": "4",
								"type": "t_uint256"
							},
							{
								"astId": 113,
								"contract": "DiscreetLog_flat.sol:DiscreetLog",
								"label": "liquidationRatio",
								"offset": 0,
								"slot": "5",
								"type": "t_uint256"
							},
							{
								"astId": 115,
								"contract": "DiscreetLog_flat.sol:DiscreetLog",
								"label": "liquidationFee",
								"offset": 0,
								"slot": "6",
								"type": "t_uint256"
							},
							{
								"astId": 117,
								"contract": "DiscreetLog_flat.sol:DiscreetLog",
								"label": "closingPrice",
								"offset": 0,
								"slot": "7",
								"type": "t_uint256"
							},
							{
								"astId": 119,
								"contract": "DiscreetLog_flat.sol:DiscreetLog",
								"label": "owner",
								"offset": 0,
								"slot": "8",
								"type": "t_address"
							}
						],
						"numberOfBytes": "288"
					},
					"t_uint256": {
						"encoding": "inplace",
						"label": "uint256",
						"numberOfBytes": "32"
					}
				}
			},
			"userdoc": {
				"kind": "user",
				"methods": {},
				"version": 1
			}
		}
	}
}