{
	"contracts/DiscreetLog.sol": {
		"DiscreetLog": {
			"abi": [
				{
					"inputs": [
						{
							"internalType": "address",
							"name": "_adminAddress",
							"type": "address"
						}
					],
					"stateMutability": "nonpayable",
					"type": "constructor"
				},
				{
					"anonymous": false,
					"inputs": [
						{
							"indexed": false,
							"internalType": "string",
							"name": "UUID",
							"type": "string"
						},
						{
							"indexed": false,
							"internalType": "int256",
							"name": "price",
							"type": "int256"
						},
						{
							"indexed": false,
							"internalType": "uint256",
							"name": "actualClosingTime",
							"type": "uint256"
						}
					],
					"name": "CloseDLC",
					"type": "event"
				},
				{
					"anonymous": false,
					"inputs": [
						{
							"indexed": false,
							"internalType": "string",
							"name": "UUID",
							"type": "string"
						},
						{
							"indexed": false,
							"internalType": "int256",
							"name": "price",
							"type": "int256"
						},
						{
							"indexed": false,
							"internalType": "uint256",
							"name": "actualClosingTime",
							"type": "uint256"
						}
					],
					"name": "EarlyCloseDLC",
					"type": "event"
				},
				{
					"anonymous": false,
					"inputs": [
						{
							"indexed": false,
							"internalType": "string",
							"name": "UUID",
							"type": "string"
						},
						{
							"indexed": false,
							"internalType": "address",
							"name": "feedAddress",
							"type": "address"
						},
						{
							"indexed": false,
							"internalType": "uint256",
							"name": "closingTime",
							"type": "uint256"
						},
						{
							"indexed": false,
							"internalType": "uint256",
							"name": "emergencyRefundTime",
							"type": "uint256"
						}
					],
					"name": "NewDLC",
					"type": "event"
				},
				{
					"anonymous": false,
					"inputs": [
						{
							"indexed": false,
							"internalType": "address",
							"name": "feedAddress",
							"type": "address"
						},
						{
							"indexed": false,
							"internalType": "uint256",
							"name": "closingTime",
							"type": "uint256"
						},
						{
							"indexed": false,
							"internalType": "uint256",
							"name": "emergencyRefundTime",
							"type": "uint256"
						},
						{
							"indexed": false,
							"internalType": "address",
							"name": "caller",
							"type": "address"
						}
					],
					"name": "RequestCreateDLC",
					"type": "event"
				},
				{
					"anonymous": false,
					"inputs": [
						{
							"indexed": true,
							"internalType": "bytes32",
							"name": "role",
							"type": "bytes32"
						},
						{
							"indexed": true,
							"internalType": "bytes32",
							"name": "previousAdminRole",
							"type": "bytes32"
						},
						{
							"indexed": true,
							"internalType": "bytes32",
							"name": "newAdminRole",
							"type": "bytes32"
						}
					],
					"name": "RoleAdminChanged",
					"type": "event"
				},
				{
					"anonymous": false,
					"inputs": [
						{
							"indexed": true,
							"internalType": "bytes32",
							"name": "role",
							"type": "bytes32"
						},
						{
							"indexed": true,
							"internalType": "address",
							"name": "account",
							"type": "address"
						},
						{
							"indexed": true,
							"internalType": "address",
							"name": "sender",
							"type": "address"
						}
					],
					"name": "RoleGranted",
					"type": "event"
				},
				{
					"anonymous": false,
					"inputs": [
						{
							"indexed": true,
							"internalType": "bytes32",
							"name": "role",
							"type": "bytes32"
						},
						{
							"indexed": true,
							"internalType": "address",
							"name": "account",
							"type": "address"
						},
						{
							"indexed": true,
							"internalType": "address",
							"name": "sender",
							"type": "address"
						}
					],
					"name": "RoleRevoked",
					"type": "event"
				},
				{
					"inputs": [],
					"name": "DEFAULT_ADMIN_ROLE",
					"outputs": [
						{
							"internalType": "bytes32",
							"name": "",
							"type": "bytes32"
						}
					],
					"stateMutability": "view",
					"type": "function"
				},
				{
					"inputs": [],
					"name": "DLC_ADMIN_ROLE",
					"outputs": [
						{
							"internalType": "bytes32",
							"name": "",
							"type": "bytes32"
						}
					],
					"stateMutability": "view",
					"type": "function"
				},
				{
					"inputs": [
						{
							"internalType": "string",
							"name": "_UUID",
							"type": "string"
						},
						{
							"internalType": "address",
							"name": "_feedAddress",
							"type": "address"
						},
						{
							"internalType": "uint256",
							"name": "_closingTime",
							"type": "uint256"
						},
						{
							"internalType": "uint256",
							"name": "_emergencyRefundTime",
							"type": "uint256"
						}
					],
					"name": "addNewDLC",
					"outputs": [],
					"stateMutability": "nonpayable",
					"type": "function"
				},
				{
					"inputs": [],
					"name": "allOpenDLC",
					"outputs": [
						{
							"internalType": "string[]",
							"name": "",
							"type": "string[]"
						}
					],
					"stateMutability": "view",
					"type": "function"
				},
				{
					"inputs": [
						{
							"internalType": "string",
							"name": "_UUID",
							"type": "string"
						}
					],
					"name": "cancelEarly",
					"outputs": [
						{
							"internalType": "int256",
							"name": "",
							"type": "int256"
						}
					],
					"stateMutability": "nonpayable",
					"type": "function"
				},
				{
					"inputs": [
						{
							"internalType": "bytes",
							"name": "",
							"type": "bytes"
						}
					],
					"name": "checkUpkeep",
					"outputs": [
						{
							"internalType": "bool",
							"name": "upkeepNeeded",
							"type": "bool"
						},
						{
							"internalType": "bytes",
							"name": "performData",
							"type": "bytes"
						}
					],
					"stateMutability": "view",
					"type": "function"
				},
				{
					"inputs": [
						{
							"internalType": "string",
							"name": "_UUID",
							"type": "string"
						}
					],
					"name": "closingPriceAndTimeOfDLC",
					"outputs": [
						{
							"internalType": "int256",
							"name": "",
							"type": "int256"
						},
						{
							"internalType": "uint256",
							"name": "",
							"type": "uint256"
						}
					],
					"stateMutability": "view",
					"type": "function"
				},
				{
					"inputs": [
						{
							"internalType": "string",
							"name": "",
							"type": "string"
						}
					],
					"name": "dlcs",
					"outputs": [
						{
							"internalType": "string",
							"name": "UUID",
							"type": "string"
						},
						{
							"internalType": "address",
							"name": "feedAddress",
							"type": "address"
						},
						{
							"internalType": "uint256",
							"name": "closingTime",
							"type": "uint256"
						},
						{
							"internalType": "int256",
							"name": "closingPrice",
							"type": "int256"
						},
						{
							"internalType": "uint256",
							"name": "actualClosingTime",
							"type": "uint256"
						},
						{
							"internalType": "uint256",
							"name": "emergencyRefundTime",
							"type": "uint256"
						}
					],
					"stateMutability": "view",
					"type": "function"
				},
				{
					"inputs": [
						{
							"internalType": "bytes32",
							"name": "role",
							"type": "bytes32"
						}
					],
					"name": "getRoleAdmin",
					"outputs": [
						{
							"internalType": "bytes32",
							"name": "",
							"type": "bytes32"
						}
					],
					"stateMutability": "view",
					"type": "function"
				},
				{
					"inputs": [
						{
							"internalType": "bytes32",
							"name": "role",
							"type": "bytes32"
						},
						{
							"internalType": "address",
							"name": "account",
							"type": "address"
						}
					],
					"name": "grantRole",
					"outputs": [],
					"stateMutability": "nonpayable",
					"type": "function"
				},
				{
					"inputs": [
						{
							"internalType": "bytes32",
							"name": "role",
							"type": "bytes32"
						},
						{
							"internalType": "address",
							"name": "account",
							"type": "address"
						}
					],
					"name": "hasRole",
					"outputs": [
						{
							"internalType": "bool",
							"name": "",
							"type": "bool"
						}
					],
					"stateMutability": "view",
					"type": "function"
				},
				{
					"inputs": [
						{
							"internalType": "uint256",
							"name": "",
							"type": "uint256"
						}
					],
					"name": "openUUIDs",
					"outputs": [
						{
							"internalType": "string",
							"name": "",
							"type": "string"
						}
					],
					"stateMutability": "view",
					"type": "function"
				},
				{
					"inputs": [
						{
							"internalType": "bytes",
							"name": "performData",
							"type": "bytes"
						}
					],
					"name": "performUpkeep",
					"outputs": [],
					"stateMutability": "nonpayable",
					"type": "function"
				},
				{
					"inputs": [
						{
							"internalType": "bytes32",
							"name": "role",
							"type": "bytes32"
						},
						{
							"internalType": "address",
							"name": "account",
							"type": "address"
						}
					],
					"name": "renounceRole",
					"outputs": [],
					"stateMutability": "nonpayable",
					"type": "function"
				},
				{
					"inputs": [
						{
							"internalType": "address",
							"name": "_feedAddress",
							"type": "address"
						},
						{
							"internalType": "uint256",
							"name": "_closingTime",
							"type": "uint256"
						},
						{
							"internalType": "uint256",
							"name": "_emergencyRefundTime",
							"type": "uint256"
						}
					],
					"name": "requestCreateDLC",
					"outputs": [],
					"stateMutability": "nonpayable",
					"type": "function"
				},
				{
					"inputs": [
						{
							"internalType": "bytes32",
							"name": "role",
							"type": "bytes32"
						},
						{
							"internalType": "address",
							"name": "account",
							"type": "address"
						}
					],
					"name": "revokeRole",
					"outputs": [],
					"stateMutability": "nonpayable",
					"type": "function"
				},
				{
					"inputs": [
						{
							"internalType": "bytes4",
							"name": "interfaceId",
							"type": "bytes4"
						}
					],
					"name": "supportsInterface",
					"outputs": [
						{
							"internalType": "bool",
							"name": "",
							"type": "bool"
						}
					],
					"stateMutability": "view",
					"type": "function"
				}
			],
			"devdoc": {
				"kind": "dev",
				"methods": {
					"getRoleAdmin(bytes32)": {
						"details": "Returns the admin role that controls `role`. See {grantRole} and {revokeRole}. To change a role's admin, use {_setRoleAdmin}."
					},
					"grantRole(bytes32,address)": {
						"details": "Grants `role` to `account`. If `account` had not been already granted `role`, emits a {RoleGranted} event. Requirements: - the caller must have ``role``'s admin role."
					},
					"hasRole(bytes32,address)": {
						"details": "Returns `true` if `account` has been granted `role`."
					},
					"performUpkeep(bytes)": {
						"details": "The input to this method should not be trusted, and the caller of the method should not even be restricted to any single registry. Anyone should be able call it, and the input should be validated, there is no guarantee that the data passed in is the performData returned from checkUpkeep. This could happen due to malicious keepers, racing keepers, or simply a state change while the performUpkeep transaction is waiting for confirmation. Always validate the data passed in.",
						"params": {
							"performData": "is the data which was passed back from the checkData simulation. If it is encoded, it can easily be decoded into other types by calling `abi.decode`. This data should not be trusted, and should be validated against the contract's current state."
						}
					},
					"renounceRole(bytes32,address)": {
						"details": "Revokes `role` from the calling account. Roles are often managed via {grantRole} and {revokeRole}: this function's purpose is to provide a mechanism for accounts to lose their privileges if they are compromised (such as when a trusted device is misplaced). If the calling account had been revoked `role`, emits a {RoleRevoked} event. Requirements: - the caller must be `account`."
					},
					"revokeRole(bytes32,address)": {
						"details": "Revokes `role` from `account`. If `account` had been granted `role`, emits a {RoleRevoked} event. Requirements: - the caller must have ``role``'s admin role."
					},
					"supportsInterface(bytes4)": {
						"details": "See {IERC165-supportsInterface}."
					}
				},
				"version": 1
			},
			"evm": {
				"assembly": "    /* \"contracts/DiscreetLog.sol\":256:6164  contract DiscreetLog is KeeperCompatibleInterface, AccessControl {... */\n  mstore(0x40, 0x80)\n    /* \"contracts/DiscreetLog.sol\":1091:1423  constructor(address _adminAddress) {... */\n  callvalue\n  dup1\n  iszero\n  tag_1\n  jumpi\n  0x00\n  dup1\n  revert\ntag_1:\n  pop\n  mload(0x40)\n  sub(codesize, bytecodeSize)\n  dup1\n  bytecodeSize\n  dup4\n  codecopy\n  dup2\n  dup2\n  add\n  0x40\n  mstore\n  dup2\n  add\n  swap1\n  tag_2\n  swap2\n  swap1\n  tag_3\n  jump\t// in\ntag_2:\n    /* \"contracts/DiscreetLog.sol\":1177:1218  _setupRole(DLC_ADMIN_ROLE, _adminAddress) */\n  tag_6\n    /* \"contracts/DiscreetLog.sol\":369:396  keccak256(\"DLC_ADMIN_ROLE\") */\n  0x2bf88000669ee6f7a648a231f4adbc117f5a8e34f980c08420b9b9a9f2640aa1\n    /* \"contracts/DiscreetLog.sol\":1204:1217  _adminAddress */\n  dup3\n    /* \"contracts/DiscreetLog.sol\":1177:1187  _setupRole */\n  shl(0x20, tag_7)\n    /* \"contracts/DiscreetLog.sol\":1177:1218  _setupRole(DLC_ADMIN_ROLE, _adminAddress) */\n  0x20\n  shr\n  jump\t// in\ntag_6:\n    /* \"contracts/DiscreetLog.sol\":1374:1416  _setupRole(DEFAULT_ADMIN_ROLE, msg.sender) */\n  tag_8\n    /* \"@openzeppelin/contracts/access/AccessControl.sol\":2072:2076  0x00 */\n  0x00\n    /* \"contracts/DiscreetLog.sol\":1385:1403  DEFAULT_ADMIN_ROLE */\n  dup1\n  shl\n    /* \"contracts/DiscreetLog.sol\":1405:1415  msg.sender */\n  caller\n    /* \"contracts/DiscreetLog.sol\":1374:1384  _setupRole */\n  shl(0x20, tag_7)\n    /* \"contracts/DiscreetLog.sol\":1374:1416  _setupRole(DEFAULT_ADMIN_ROLE, msg.sender) */\n  0x20\n  shr\n  jump\t// in\ntag_8:\n    /* \"contracts/DiscreetLog.sol\":1091:1423  constructor(address _adminAddress) {... */\n  pop\n    /* \"contracts/DiscreetLog.sol\":256:6164  contract DiscreetLog is KeeperCompatibleInterface, AccessControl {... */\n  jump(tag_9)\n    /* \"@openzeppelin/contracts/access/AccessControl.sol\":6640:6750  function _setupRole(bytes32 role, address account) internal virtual {... */\ntag_7:\n    /* \"@openzeppelin/contracts/access/AccessControl.sol\":6718:6743  _grantRole(role, account) */\n  tag_11\n    /* \"@openzeppelin/contracts/access/AccessControl.sol\":6729:6733  role */\n  dup3\n    /* \"@openzeppelin/contracts/access/AccessControl.sol\":6735:6742  account */\n  dup3\n    /* \"@openzeppelin/contracts/access/AccessControl.sol\":6718:6728  _grantRole */\n  shl(0x20, tag_12)\n    /* \"@openzeppelin/contracts/access/AccessControl.sol\":6718:6743  _grantRole(role, account) */\n  0x20\n  shr\n  jump\t// in\ntag_11:\n    /* \"@openzeppelin/contracts/access/AccessControl.sol\":6640:6750  function _setupRole(bytes32 role, address account) internal virtual {... */\n  pop\n  pop\n  jump\t// out\n    /* \"@openzeppelin/contracts/access/AccessControl.sol\":7244:7477  function _grantRole(bytes32 role, address account) internal virtual {... */\ntag_12:\n    /* \"@openzeppelin/contracts/access/AccessControl.sol\":7327:7349  hasRole(role, account) */\n  tag_14\n    /* \"@openzeppelin/contracts/access/AccessControl.sol\":7335:7339  role */\n  dup3\n    /* \"@openzeppelin/contracts/access/AccessControl.sol\":7341:7348  account */\n  dup3\n    /* \"@openzeppelin/contracts/access/AccessControl.sol\":7327:7334  hasRole */\n  shl(0x20, tag_15)\n    /* \"@openzeppelin/contracts/access/AccessControl.sol\":7327:7349  hasRole(role, account) */\n  0x20\n  shr\n  jump\t// in\ntag_14:\n    /* \"@openzeppelin/contracts/access/AccessControl.sol\":7322:7471  if (!hasRole(role, account)) {... */\n  tag_16\n  jumpi\n    /* \"@openzeppelin/contracts/access/AccessControl.sol\":7397:7401  true */\n  0x01\n    /* \"@openzeppelin/contracts/access/AccessControl.sol\":7365:7371  _roles */\n  0x00\n    /* \"@openzeppelin/contracts/access/AccessControl.sol\":7365:7377  _roles[role] */\n  dup1\n    /* \"@openzeppelin/contracts/access/AccessControl.sol\":7372:7376  role */\n  dup5\n    /* \"@openzeppelin/contracts/access/AccessControl.sol\":7365:7377  _roles[role] */\n  dup2\n  mstore\n  0x20\n  add\n  swap1\n  dup2\n  mstore\n  0x20\n  add\n  0x00\n  keccak256\n    /* \"@openzeppelin/contracts/access/AccessControl.sol\":7365:7385  _roles[role].members */\n  0x00\n  add\n    /* \"@openzeppelin/contracts/access/AccessControl.sol\":7365:7394  _roles[role].members[account] */\n  0x00\n    /* \"@openzeppelin/contracts/access/AccessControl.sol\":7386:7393  account */\n  dup4\n    /* \"@openzeppelin/contracts/access/AccessControl.sol\":7365:7394  _roles[role].members[account] */\n  0xffffffffffffffffffffffffffffffffffffffff\n  and\n  0xffffffffffffffffffffffffffffffffffffffff\n  and\n  dup2\n  mstore\n  0x20\n  add\n  swap1\n  dup2\n  mstore\n  0x20\n  add\n  0x00\n  keccak256\n  0x00\n    /* \"@openzeppelin/contracts/access/AccessControl.sol\":7365:7401  _roles[role].members[account] = true */\n  0x0100\n  exp\n  dup2\n  sload\n  dup2\n  0xff\n  mul\n  not\n  and\n  swap1\n  dup4\n  iszero\n  iszero\n  mul\n  or\n  swap1\n  sstore\n  pop\n    /* \"@openzeppelin/contracts/access/AccessControl.sol\":7447:7459  _msgSender() */\n  tag_17\n    /* \"@openzeppelin/contracts/access/AccessControl.sol\":7447:7457  _msgSender */\n  shl(0x20, tag_18)\n    /* \"@openzeppelin/contracts/access/AccessControl.sol\":7447:7459  _msgSender() */\n  0x20\n  shr\n  jump\t// in\ntag_17:\n    /* \"@openzeppelin/contracts/access/AccessControl.sol\":7420:7460  RoleGranted(role, account, _msgSender()) */\n  0xffffffffffffffffffffffffffffffffffffffff\n  and\n    /* \"@openzeppelin/contracts/access/AccessControl.sol\":7438:7445  account */\n  dup2\n    /* \"@openzeppelin/contracts/access/AccessControl.sol\":7420:7460  RoleGranted(role, account, _msgSender()) */\n  0xffffffffffffffffffffffffffffffffffffffff\n  and\n    /* \"@openzeppelin/contracts/access/AccessControl.sol\":7432:7436  role */\n  dup4\n    /* \"@openzeppelin/contracts/access/AccessControl.sol\":7420:7460  RoleGranted(role, account, _msgSender()) */\n  0x2f8788117e7eff1d82e926ec794901d17c78024a50270940304540a733656f0d\n  mload(0x40)\n  mload(0x40)\n  dup1\n  swap2\n  sub\n  swap1\n  log4\n    /* \"@openzeppelin/contracts/access/AccessControl.sol\":7322:7471  if (!hasRole(role, account)) {... */\ntag_16:\n    /* \"@openzeppelin/contracts/access/AccessControl.sol\":7244:7477  function _grantRole(bytes32 role, address account) internal virtual {... */\n  pop\n  pop\n  jump\t// out\n    /* \"@openzeppelin/contracts/access/AccessControl.sol\":2895:3040  function hasRole(bytes32 role, address account) public view virtual override returns (bool) {... */\ntag_15:\n    /* \"@openzeppelin/contracts/access/AccessControl.sol\":2981:2985  bool */\n  0x00\n    /* \"@openzeppelin/contracts/access/AccessControl.sol\":3004:3010  _roles */\n  dup1\n    /* \"@openzeppelin/contracts/access/AccessControl.sol\":3004:3016  _roles[role] */\n  0x00\n    /* \"@openzeppelin/contracts/access/AccessControl.sol\":3011:3015  role */\n  dup5\n    /* \"@openzeppelin/contracts/access/AccessControl.sol\":3004:3016  _roles[role] */\n  dup2\n  mstore\n  0x20\n  add\n  swap1\n  dup2\n  mstore\n  0x20\n  add\n  0x00\n  keccak256\n    /* \"@openzeppelin/contracts/access/AccessControl.sol\":3004:3024  _roles[role].members */\n  0x00\n  add\n    /* \"@openzeppelin/contracts/access/AccessControl.sol\":3004:3033  _roles[role].members[account] */\n  0x00\n    /* \"@openzeppelin/contracts/access/AccessControl.sol\":3025:3032  account */\n  dup4\n    /* \"@openzeppelin/contracts/access/AccessControl.sol\":3004:3033  _roles[role].members[account] */\n  0xffffffffffffffffffffffffffffffffffffffff\n  and\n  0xffffffffffffffffffffffffffffffffffffffff\n  and\n  dup2\n  mstore\n  0x20\n  add\n  swap1\n  dup2\n  mstore\n  0x20\n  add\n  0x00\n  keccak256\n  0x00\n  swap1\n  sload\n  swap1\n  0x0100\n  exp\n  swap1\n  div\n  0xff\n  and\n    /* \"@openzeppelin/contracts/access/AccessControl.sol\":2997:3033  return _roles[role].members[account] */\n  swap1\n  pop\n    /* \"@openzeppelin/contracts/access/AccessControl.sol\":2895:3040  function hasRole(bytes32 role, address account) public view virtual override returns (bool) {... */\n  swap3\n  swap2\n  pop\n  pop\n  jump\t// out\n    /* \"@openzeppelin/contracts/utils/Context.sol\":640:736  function _msgSender() internal view virtual returns (address) {... */\ntag_18:\n    /* \"@openzeppelin/contracts/utils/Context.sol\":693:700  address */\n  0x00\n    /* \"@openzeppelin/contracts/utils/Context.sol\":719:729  msg.sender */\n  caller\n    /* \"@openzeppelin/contracts/utils/Context.sol\":712:729  return msg.sender */\n  swap1\n  pop\n    /* \"@openzeppelin/contracts/utils/Context.sol\":640:736  function _msgSender() internal view virtual returns (address) {... */\n  swap1\n  jump\t// out\n    /* \"#utility.yul\":7:150   */\ntag_22:\n    /* \"#utility.yul\":64:69   */\n  0x00\n    /* \"#utility.yul\":95:101   */\n  dup2\n    /* \"#utility.yul\":89:102   */\n  mload\n    /* \"#utility.yul\":80:102   */\n  swap1\n  pop\n    /* \"#utility.yul\":111:144   */\n  tag_24\n    /* \"#utility.yul\":138:143   */\n  dup2\n    /* \"#utility.yul\":111:144   */\n  tag_25\n  jump\t// in\ntag_24:\n    /* \"#utility.yul\":7:150   */\n  swap3\n  swap2\n  pop\n  pop\n  jump\t// out\n    /* \"#utility.yul\":156:507   */\ntag_3:\n    /* \"#utility.yul\":226:232   */\n  0x00\n    /* \"#utility.yul\":275:277   */\n  0x20\n    /* \"#utility.yul\":263:272   */\n  dup3\n    /* \"#utility.yul\":254:261   */\n  dup5\n    /* \"#utility.yul\":250:273   */\n  sub\n    /* \"#utility.yul\":246:278   */\n  slt\n    /* \"#utility.yul\":243:362   */\n  iszero\n  tag_27\n  jumpi\n    /* \"#utility.yul\":281:360   */\n  tag_28\n  tag_29\n  jump\t// in\ntag_28:\n    /* \"#utility.yul\":243:362   */\ntag_27:\n    /* \"#utility.yul\":401:402   */\n  0x00\n    /* \"#utility.yul\":426:490   */\n  tag_30\n    /* \"#utility.yul\":482:489   */\n  dup5\n    /* \"#utility.yul\":473:479   */\n  dup3\n    /* \"#utility.yul\":462:471   */\n  dup6\n    /* \"#utility.yul\":458:480   */\n  add\n    /* \"#utility.yul\":426:490   */\n  tag_22\n  jump\t// in\ntag_30:\n    /* \"#utility.yul\":416:490   */\n  swap2\n  pop\n    /* \"#utility.yul\":372:500   */\n  pop\n    /* \"#utility.yul\":156:507   */\n  swap3\n  swap2\n  pop\n  pop\n  jump\t// out\n    /* \"#utility.yul\":594:690   */\ntag_33:\n    /* \"#utility.yul\":631:638   */\n  0x00\n    /* \"#utility.yul\":660:684   */\n  tag_35\n    /* \"#utility.yul\":678:683   */\n  dup3\n    /* \"#utility.yul\":660:684   */\n  tag_36\n  jump\t// in\ntag_35:\n    /* \"#utility.yul\":649:684   */\n  swap1\n  pop\n    /* \"#utility.yul\":594:690   */\n  swap2\n  swap1\n  pop\n  jump\t// out\n    /* \"#utility.yul\":696:822   */\ntag_36:\n    /* \"#utility.yul\":733:740   */\n  0x00\n    /* \"#utility.yul\":773:815   */\n  0xffffffffffffffffffffffffffffffffffffffff\n    /* \"#utility.yul\":766:771   */\n  dup3\n    /* \"#utility.yul\":762:816   */\n  and\n    /* \"#utility.yul\":751:816   */\n  swap1\n  pop\n    /* \"#utility.yul\":696:822   */\n  swap2\n  swap1\n  pop\n  jump\t// out\n    /* \"#utility.yul\":951:1068   */\ntag_29:\n    /* \"#utility.yul\":1060:1061   */\n  0x00\n    /* \"#utility.yul\":1057:1058   */\n  dup1\n    /* \"#utility.yul\":1050:1062   */\n  revert\n    /* \"#utility.yul\":1074:1196   */\ntag_25:\n    /* \"#utility.yul\":1147:1171   */\n  tag_42\n    /* \"#utility.yul\":1165:1170   */\n  dup2\n    /* \"#utility.yul\":1147:1171   */\n  tag_33\n  jump\t// in\ntag_42:\n    /* \"#utility.yul\":1140:1145   */\n  dup2\n    /* \"#utility.yul\":1137:1172   */\n  eq\n    /* \"#utility.yul\":1127:1190   */\n  tag_43\n  jumpi\n    /* \"#utility.yul\":1186:1187   */\n  0x00\n    /* \"#utility.yul\":1183:1184   */\n  dup1\n    /* \"#utility.yul\":1176:1188   */\n  revert\n    /* \"#utility.yul\":1127:1190   */\ntag_43:\n    /* \"#utility.yul\":1074:1196   */\n  pop\n  jump\t// out\n    /* \"contracts/DiscreetLog.sol\":256:6164  contract DiscreetLog is KeeperCompatibleInterface, AccessControl {... */\ntag_9:\n  dataSize(sub_0)\n  dup1\n  dataOffset(sub_0)\n  0x00\n  codecopy\n  0x00\n  return\nstop\n\nsub_0: assembly {\n        /* \"contracts/DiscreetLog.sol\":256:6164  contract DiscreetLog is KeeperCompatibleInterface, AccessControl {... */\n      mstore(0x40, 0x80)\n      callvalue\n      dup1\n      iszero\n      tag_1\n      jumpi\n      0x00\n      dup1\n      revert\n    tag_1:\n      pop\n      jumpi(tag_2, lt(calldatasize, 0x04))\n      shr(0xe0, calldataload(0x00))\n      dup1\n      0x54499002\n      gt\n      tag_20\n      jumpi\n      dup1\n      0x91f2dfbf\n      gt\n      tag_21\n      jumpi\n      dup1\n      0x91f2dfbf\n      eq\n      tag_15\n      jumpi\n      dup1\n      0x94c2d0db\n      eq\n      tag_16\n      jumpi\n      dup1\n      0xa217fddf\n      eq\n      tag_17\n      jumpi\n      dup1\n      0xd547741f\n      eq\n      tag_18\n      jumpi\n      dup1\n      0xefa643bb\n      eq\n      tag_19\n      jumpi\n      jump(tag_2)\n    tag_21:\n      dup1\n      0x54499002\n      eq\n      tag_11\n      jumpi\n      dup1\n      0x5e4a9e15\n      eq\n      tag_12\n      jumpi\n      dup1\n      0x6e04ff0d\n      eq\n      tag_13\n      jumpi\n      dup1\n      0x91d14854\n      eq\n      tag_14\n      jumpi\n      jump(tag_2)\n    tag_20:\n      dup1\n      0x2f2ff15d\n      gt\n      tag_22\n      jumpi\n      dup1\n      0x2f2ff15d\n      eq\n      tag_7\n      jumpi\n      dup1\n      0x36568abe\n      eq\n      tag_8\n      jumpi\n      dup1\n      0x4585e33b\n      eq\n      tag_9\n      jumpi\n      dup1\n      0x4dcc2774\n      eq\n      tag_10\n      jumpi\n      jump(tag_2)\n    tag_22:\n      dup1\n      0x01ffc9a7\n      eq\n      tag_3\n      jumpi\n      dup1\n      0x0ef2feff\n      eq\n      tag_4\n      jumpi\n      dup1\n      0x248a9ca3\n      eq\n      tag_5\n      jumpi\n      dup1\n      0x2e730910\n      eq\n      tag_6\n      jumpi\n    tag_2:\n      0x00\n      dup1\n      revert\n        /* \"@openzeppelin/contracts/access/AccessControl.sol\":2606:2808  function supportsInterface(bytes4 interfaceId) public view virtual override returns (bool) {... */\n    tag_3:\n      tag_23\n      0x04\n      dup1\n      calldatasize\n      sub\n      dup2\n      add\n      swap1\n      tag_24\n      swap2\n      swap1\n      tag_25\n      jump\t// in\n    tag_24:\n      tag_26\n      jump\t// in\n    tag_23:\n      mload(0x40)\n      tag_27\n      swap2\n      swap1\n      tag_28\n      jump\t// in\n    tag_27:\n      mload(0x40)\n      dup1\n      swap2\n      sub\n      swap1\n      return\n        /* \"contracts/DiscreetLog.sol\":434:468  mapping(string => DLC) public dlcs */\n    tag_4:\n      tag_29\n      0x04\n      dup1\n      calldatasize\n      sub\n      dup2\n      add\n      swap1\n      tag_30\n      swap2\n      swap1\n      tag_31\n      jump\t// in\n    tag_30:\n      tag_32\n      jump\t// in\n    tag_29:\n      mload(0x40)\n      tag_33\n      swap7\n      swap6\n      swap5\n      swap4\n      swap3\n      swap2\n      swap1\n      tag_34\n      jump\t// in\n    tag_33:\n      mload(0x40)\n      dup1\n      swap2\n      sub\n      swap1\n      return\n        /* \"@openzeppelin/contracts/access/AccessControl.sol\":4391:4520  function getRoleAdmin(bytes32 role) public view virtual override returns (bytes32) {... */\n    tag_5:\n      tag_35\n      0x04\n      dup1\n      calldatasize\n      sub\n      dup2\n      add\n      swap1\n      tag_36\n      swap2\n      swap1\n      tag_37\n      jump\t// in\n    tag_36:\n      tag_38\n      jump\t// in\n    tag_35:\n      mload(0x40)\n      tag_39\n      swap2\n      swap1\n      tag_40\n      jump\t// in\n    tag_39:\n      mload(0x40)\n      dup1\n      swap2\n      sub\n      swap1\n      return\n        /* \"contracts/DiscreetLog.sol\":403:428  string[] public openUUIDs */\n    tag_6:\n      tag_41\n      0x04\n      dup1\n      calldatasize\n      sub\n      dup2\n      add\n      swap1\n      tag_42\n      swap2\n      swap1\n      tag_43\n      jump\t// in\n    tag_42:\n      tag_44\n      jump\t// in\n    tag_41:\n      mload(0x40)\n      tag_45\n      swap2\n      swap1\n      tag_46\n      jump\t// in\n    tag_45:\n      mload(0x40)\n      dup1\n      swap2\n      sub\n      swap1\n      return\n        /* \"@openzeppelin/contracts/access/AccessControl.sol\":4770:4915  function grantRole(bytes32 role, address account) public virtual override onlyRole(getRoleAdmin(role)) {... */\n    tag_7:\n      tag_47\n      0x04\n      dup1\n      calldatasize\n      sub\n      dup2\n      add\n      swap1\n      tag_48\n      swap2\n      swap1\n      tag_49\n      jump\t// in\n    tag_48:\n      tag_50\n      jump\t// in\n    tag_47:\n      stop\n        /* \"@openzeppelin/contracts/access/AccessControl.sol\":5787:6001  function renounceRole(bytes32 role, address account) public virtual override {... */\n    tag_8:\n      tag_51\n      0x04\n      dup1\n      calldatasize\n      sub\n      dup2\n      add\n      swap1\n      tag_52\n      swap2\n      swap1\n      tag_49\n      jump\t// in\n    tag_52:\n      tag_53\n      jump\t// in\n    tag_51:\n      stop\n        /* \"contracts/DiscreetLog.sol\":3888:4741  function performUpkeep(bytes calldata performData) external override {... */\n    tag_9:\n      tag_54\n      0x04\n      dup1\n      calldatasize\n      sub\n      dup2\n      add\n      swap1\n      tag_55\n      swap2\n      swap1\n      tag_56\n      jump\t// in\n    tag_55:\n      tag_57\n      jump\t// in\n    tag_54:\n      stop\n        /* \"contracts/DiscreetLog.sol\":328:396  bytes32 public constant DLC_ADMIN_ROLE = keccak256(\"DLC_ADMIN_ROLE\") */\n    tag_10:\n      tag_58\n      tag_59\n      jump\t// in\n    tag_58:\n      mload(0x40)\n      tag_60\n      swap2\n      swap1\n      tag_40\n      jump\t// in\n    tag_60:\n      mload(0x40)\n      dup1\n      swap2\n      sub\n      swap1\n      return\n        /* \"contracts/DiscreetLog.sol\":4747:5021  function closingPriceAndTimeOfDLC(string memory _UUID) external view returns (int, uint){... */\n    tag_11:\n      tag_61\n      0x04\n      dup1\n      calldatasize\n      sub\n      dup2\n      add\n      swap1\n      tag_62\n      swap2\n      swap1\n      tag_31\n      jump\t// in\n    tag_62:\n      tag_63\n      jump\t// in\n    tag_61:\n      mload(0x40)\n      tag_64\n      swap3\n      swap2\n      swap1\n      tag_65\n      jump\t// in\n    tag_64:\n      mload(0x40)\n      dup1\n      swap2\n      sub\n      swap1\n      return\n        /* \"contracts/DiscreetLog.sol\":5027:5122  function allOpenDLC() external view returns (string[] memory) {... */\n    tag_12:\n      tag_66\n      tag_67\n      jump\t// in\n    tag_66:\n      mload(0x40)\n      tag_68\n      swap2\n      swap1\n      tag_69\n      jump\t// in\n    tag_68:\n      mload(0x40)\n      dup1\n      swap2\n      sub\n      swap1\n      return\n        /* \"contracts/DiscreetLog.sol\":3092:3798  function checkUpkeep(bytes calldata /* checkData */) external view override returns (bool upkeepNeeded, bytes memory performData) {... */\n    tag_13:\n      tag_70\n      0x04\n      dup1\n      calldatasize\n      sub\n      dup2\n      add\n      swap1\n      tag_71\n      swap2\n      swap1\n      tag_56\n      jump\t// in\n    tag_71:\n      tag_72\n      jump\t// in\n    tag_70:\n      mload(0x40)\n      tag_73\n      swap3\n      swap2\n      swap1\n      tag_74\n      jump\t// in\n    tag_73:\n      mload(0x40)\n      dup1\n      swap2\n      sub\n      swap1\n      return\n        /* \"@openzeppelin/contracts/access/AccessControl.sol\":2895:3040  function hasRole(bytes32 role, address account) public view virtual override returns (bool) {... */\n    tag_14:\n      tag_75\n      0x04\n      dup1\n      calldatasize\n      sub\n      dup2\n      add\n      swap1\n      tag_76\n      swap2\n      swap1\n      tag_49\n      jump\t// in\n    tag_76:\n      tag_77\n      jump\t// in\n    tag_75:\n      mload(0x40)\n      tag_78\n      swap2\n      swap1\n      tag_28\n      jump\t// in\n    tag_78:\n      mload(0x40)\n      dup1\n      swap2\n      sub\n      swap1\n      return\n        /* \"contracts/DiscreetLog.sol\":1429:2109  function addNewDLC(string memory _UUID, address _feedAddress, uint _closingTime, uint _emergencyRefundTime) external onlyRole(DLC_ADMIN_ROLE){... */\n    tag_15:\n      tag_79\n      0x04\n      dup1\n      calldatasize\n      sub\n      dup2\n      add\n      swap1\n      tag_80\n      swap2\n      swap1\n      tag_81\n      jump\t// in\n    tag_80:\n      tag_82\n      jump\t// in\n    tag_79:\n      stop\n        /* \"contracts/DiscreetLog.sol\":2410:3012  function cancelEarly(string memory _UUID) external onlyRole(DLC_ADMIN_ROLE) returns (int){... */\n    tag_16:\n      tag_83\n      0x04\n      dup1\n      calldatasize\n      sub\n      dup2\n      add\n      swap1\n      tag_84\n      swap2\n      swap1\n      tag_31\n      jump\t// in\n    tag_84:\n      tag_85\n      jump\t// in\n    tag_83:\n      mload(0x40)\n      tag_86\n      swap2\n      swap1\n      tag_87\n      jump\t// in\n    tag_86:\n      mload(0x40)\n      dup1\n      swap2\n      sub\n      swap1\n      return\n        /* \"@openzeppelin/contracts/access/AccessControl.sol\":2027:2076  bytes32 public constant DEFAULT_ADMIN_ROLE = 0x00 */\n    tag_17:\n      tag_88\n      tag_89\n      jump\t// in\n    tag_88:\n      mload(0x40)\n      tag_90\n      swap2\n      swap1\n      tag_40\n      jump\t// in\n    tag_90:\n      mload(0x40)\n      dup1\n      swap2\n      sub\n      swap1\n      return\n        /* \"@openzeppelin/contracts/access/AccessControl.sol\":5149:5296  function revokeRole(bytes32 role, address account) public virtual override onlyRole(getRoleAdmin(role)) {... */\n    tag_18:\n      tag_91\n      0x04\n      dup1\n      calldatasize\n      sub\n      dup2\n      add\n      swap1\n      tag_92\n      swap2\n      swap1\n      tag_49\n      jump\t// in\n    tag_92:\n      tag_93\n      jump\t// in\n    tag_91:\n      stop\n        /* \"contracts/DiscreetLog.sol\":2115:2404  function requestCreateDLC(address _feedAddress, uint _closingTime, uint _emergencyRefundTime) external {... */\n    tag_19:\n      tag_94\n      0x04\n      dup1\n      calldatasize\n      sub\n      dup2\n      add\n      swap1\n      tag_95\n      swap2\n      swap1\n      tag_96\n      jump\t// in\n    tag_95:\n      tag_97\n      jump\t// in\n    tag_94:\n      stop\n        /* \"@openzeppelin/contracts/access/AccessControl.sol\":2606:2808  function supportsInterface(bytes4 interfaceId) public view virtual override returns (bool) {... */\n    tag_26:\n        /* \"@openzeppelin/contracts/access/AccessControl.sol\":2691:2695  bool */\n      0x00\n        /* \"@openzeppelin/contracts/access/AccessControl.sol\":2729:2761  type(IAccessControl).interfaceId */\n      0x7965db0b00000000000000000000000000000000000000000000000000000000\n        /* \"@openzeppelin/contracts/access/AccessControl.sol\":2714:2761  interfaceId == type(IAccessControl).interfaceId */\n      not(0xffffffffffffffffffffffffffffffffffffffffffffffffffffffff)\n      and\n        /* \"@openzeppelin/contracts/access/AccessControl.sol\":2714:2725  interfaceId */\n      dup3\n        /* \"@openzeppelin/contracts/access/AccessControl.sol\":2714:2761  interfaceId == type(IAccessControl).interfaceId */\n      not(0xffffffffffffffffffffffffffffffffffffffffffffffffffffffff)\n      and\n      eq\n        /* \"@openzeppelin/contracts/access/AccessControl.sol\":2714:2801  interfaceId == type(IAccessControl).interfaceId || super.supportsInterface(interfaceId) */\n      dup1\n      tag_99\n      jumpi\n      pop\n        /* \"@openzeppelin/contracts/access/AccessControl.sol\":2765:2801  super.supportsInterface(interfaceId) */\n      tag_100\n        /* \"@openzeppelin/contracts/access/AccessControl.sol\":2789:2800  interfaceId */\n      dup3\n        /* \"@openzeppelin/contracts/access/AccessControl.sol\":2765:2788  super.supportsInterface */\n      tag_101\n        /* \"@openzeppelin/contracts/access/AccessControl.sol\":2765:2801  super.supportsInterface(interfaceId) */\n      jump\t// in\n    tag_100:\n        /* \"@openzeppelin/contracts/access/AccessControl.sol\":2714:2801  interfaceId == type(IAccessControl).interfaceId || super.supportsInterface(interfaceId) */\n    tag_99:\n        /* \"@openzeppelin/contracts/access/AccessControl.sol\":2707:2801  return interfaceId == type(IAccessControl).interfaceId || super.supportsInterface(interfaceId) */\n      swap1\n      pop\n        /* \"@openzeppelin/contracts/access/AccessControl.sol\":2606:2808  function supportsInterface(bytes4 interfaceId) public view virtual override returns (bool) {... */\n      swap2\n      swap1\n      pop\n      jump\t// out\n        /* \"contracts/DiscreetLog.sol\":434:468  mapping(string => DLC) public dlcs */\n    tag_32:\n      0x02\n      dup2\n      dup1\n      mload\n      0x20\n      dup2\n      add\n      dup3\n      add\n      dup1\n      mload\n      dup5\n      dup3\n      mstore\n      0x20\n      dup4\n      add\n      0x20\n      dup6\n      add\n      keccak256\n      dup2\n      dup4\n      mstore\n      dup1\n      swap6\n      pop\n      pop\n      pop\n      pop\n      pop\n      pop\n      0x00\n      swap2\n      pop\n      swap1\n      pop\n      dup1\n      0x00\n      add\n      dup1\n      sload\n      tag_102\n      swap1\n      tag_103\n      jump\t// in\n    tag_102:\n      dup1\n      0x1f\n      add\n      0x20\n      dup1\n      swap2\n      div\n      mul\n      0x20\n      add\n      mload(0x40)\n      swap1\n      dup2\n      add\n      0x40\n      mstore\n      dup1\n      swap3\n      swap2\n      swap1\n      dup2\n      dup2\n      mstore\n      0x20\n      add\n      dup3\n      dup1\n      sload\n      tag_104\n      swap1\n      tag_103\n      jump\t// in\n    tag_104:\n      dup1\n      iszero\n      tag_105\n      jumpi\n      dup1\n      0x1f\n      lt\n      tag_106\n      jumpi\n      0x0100\n      dup1\n      dup4\n      sload\n      div\n      mul\n      dup4\n      mstore\n      swap2\n      0x20\n      add\n      swap2\n      jump(tag_105)\n    tag_106:\n      dup3\n      add\n      swap2\n      swap1\n      0x00\n      mstore\n      keccak256(0x00, 0x20)\n      swap1\n    tag_107:\n      dup2\n      sload\n      dup2\n      mstore\n      swap1\n      0x01\n      add\n      swap1\n      0x20\n      add\n      dup1\n      dup4\n      gt\n      tag_107\n      jumpi\n      dup3\n      swap1\n      sub\n      0x1f\n      and\n      dup3\n      add\n      swap2\n    tag_105:\n      pop\n      pop\n      pop\n      pop\n      pop\n      swap1\n      dup1\n      0x01\n      add\n      0x00\n      swap1\n      sload\n      swap1\n      0x0100\n      exp\n      swap1\n      div\n      0xffffffffffffffffffffffffffffffffffffffff\n      and\n      swap1\n      dup1\n      0x02\n      add\n      sload\n      swap1\n      dup1\n      0x03\n      add\n      sload\n      swap1\n      dup1\n      0x04\n      add\n      sload\n      swap1\n      dup1\n      0x05\n      add\n      sload\n      swap1\n      pop\n      dup7\n      jump\t// out\n        /* \"@openzeppelin/contracts/access/AccessControl.sol\":4391:4520  function getRoleAdmin(bytes32 role) public view virtual override returns (bytes32) {... */\n    tag_38:\n        /* \"@openzeppelin/contracts/access/AccessControl.sol\":4465:4472  bytes32 */\n      0x00\n        /* \"@openzeppelin/contracts/access/AccessControl.sol\":4491:4497  _roles */\n      dup1\n        /* \"@openzeppelin/contracts/access/AccessControl.sol\":4491:4503  _roles[role] */\n      0x00\n        /* \"@openzeppelin/contracts/access/AccessControl.sol\":4498:4502  role */\n      dup4\n        /* \"@openzeppelin/contracts/access/AccessControl.sol\":4491:4503  _roles[role] */\n      dup2\n      mstore\n      0x20\n      add\n      swap1\n      dup2\n      mstore\n      0x20\n      add\n      0x00\n      keccak256\n        /* \"@openzeppelin/contracts/access/AccessControl.sol\":4491:4513  _roles[role].adminRole */\n      0x01\n      add\n      sload\n        /* \"@openzeppelin/contracts/access/AccessControl.sol\":4484:4513  return _roles[role].adminRole */\n      swap1\n      pop\n        /* \"@openzeppelin/contracts/access/AccessControl.sol\":4391:4520  function getRoleAdmin(bytes32 role) public view virtual override returns (bytes32) {... */\n      swap2\n      swap1\n      pop\n      jump\t// out\n        /* \"contracts/DiscreetLog.sol\":403:428  string[] public openUUIDs */\n    tag_44:\n      0x01\n      dup2\n      dup2\n      sload\n      dup2\n      lt\n      tag_109\n      jumpi\n      0x00\n      dup1\n      revert\n    tag_109:\n      swap1\n      0x00\n      mstore\n      keccak256(0x00, 0x20)\n      add\n      0x00\n      swap2\n      pop\n      swap1\n      pop\n      dup1\n      sload\n      tag_111\n      swap1\n      tag_103\n      jump\t// in\n    tag_111:\n      dup1\n      0x1f\n      add\n      0x20\n      dup1\n      swap2\n      div\n      mul\n      0x20\n      add\n      mload(0x40)\n      swap1\n      dup2\n      add\n      0x40\n      mstore\n      dup1\n      swap3\n      swap2\n      swap1\n      dup2\n      dup2\n      mstore\n      0x20\n      add\n      dup3\n      dup1\n      sload\n      tag_112\n      swap1\n      tag_103\n      jump\t// in\n    tag_112:\n      dup1\n      iszero\n      tag_113\n      jumpi\n      dup1\n      0x1f\n      lt\n      tag_114\n      jumpi\n      0x0100\n      dup1\n      dup4\n      sload\n      div\n      mul\n      dup4\n      mstore\n      swap2\n      0x20\n      add\n      swap2\n      jump(tag_113)\n    tag_114:\n      dup3\n      add\n      swap2\n      swap1\n      0x00\n      mstore\n      keccak256(0x00, 0x20)\n      swap1\n    tag_115:\n      dup2\n      sload\n      dup2\n      mstore\n      swap1\n      0x01\n      add\n      swap1\n      0x20\n      add\n      dup1\n      dup4\n      gt\n      tag_115\n      jumpi\n      dup3\n      swap1\n      sub\n      0x1f\n      and\n      dup3\n      add\n      swap2\n    tag_113:\n      pop\n      pop\n      pop\n      pop\n      pop\n      dup2\n      jump\t// out\n        /* \"@openzeppelin/contracts/access/AccessControl.sol\":4770:4915  function grantRole(bytes32 role, address account) public virtual override onlyRole(getRoleAdmin(role)) {... */\n    tag_50:\n        /* \"@openzeppelin/contracts/access/AccessControl.sol\":4853:4871  getRoleAdmin(role) */\n      tag_116\n        /* \"@openzeppelin/contracts/access/AccessControl.sol\":4866:4870  role */\n      dup3\n        /* \"@openzeppelin/contracts/access/AccessControl.sol\":4853:4865  getRoleAdmin */\n      tag_38\n        /* \"@openzeppelin/contracts/access/AccessControl.sol\":4853:4871  getRoleAdmin(role) */\n      jump\t// in\n    tag_116:\n        /* \"@openzeppelin/contracts/access/AccessControl.sol\":2505:2521  _checkRole(role) */\n      tag_118\n        /* \"@openzeppelin/contracts/access/AccessControl.sol\":2516:2520  role */\n      dup2\n        /* \"@openzeppelin/contracts/access/AccessControl.sol\":2505:2515  _checkRole */\n      tag_119\n        /* \"@openzeppelin/contracts/access/AccessControl.sol\":2505:2521  _checkRole(role) */\n      jump\t// in\n    tag_118:\n        /* \"@openzeppelin/contracts/access/AccessControl.sol\":4883:4908  _grantRole(role, account) */\n      tag_121\n        /* \"@openzeppelin/contracts/access/AccessControl.sol\":4894:4898  role */\n      dup4\n        /* \"@openzeppelin/contracts/access/AccessControl.sol\":4900:4907  account */\n      dup4\n        /* \"@openzeppelin/contracts/access/AccessControl.sol\":4883:4893  _grantRole */\n      tag_122\n        /* \"@openzeppelin/contracts/access/AccessControl.sol\":4883:4908  _grantRole(role, account) */\n      jump\t// in\n    tag_121:\n        /* \"@openzeppelin/contracts/access/AccessControl.sol\":4770:4915  function grantRole(bytes32 role, address account) public virtual override onlyRole(getRoleAdmin(role)) {... */\n      pop\n      pop\n      pop\n      jump\t// out\n        /* \"@openzeppelin/contracts/access/AccessControl.sol\":5787:6001  function renounceRole(bytes32 role, address account) public virtual override {... */\n    tag_53:\n        /* \"@openzeppelin/contracts/access/AccessControl.sol\":5893:5905  _msgSender() */\n      tag_124\n        /* \"@openzeppelin/contracts/access/AccessControl.sol\":5893:5903  _msgSender */\n      tag_125\n        /* \"@openzeppelin/contracts/access/AccessControl.sol\":5893:5905  _msgSender() */\n      jump\t// in\n    tag_124:\n        /* \"@openzeppelin/contracts/access/AccessControl.sol\":5882:5905  account == _msgSender() */\n      0xffffffffffffffffffffffffffffffffffffffff\n      and\n        /* \"@openzeppelin/contracts/access/AccessControl.sol\":5882:5889  account */\n      dup2\n        /* \"@openzeppelin/contracts/access/AccessControl.sol\":5882:5905  account == _msgSender() */\n      0xffffffffffffffffffffffffffffffffffffffff\n      and\n      eq\n        /* \"@openzeppelin/contracts/access/AccessControl.sol\":5874:5957  require(account == _msgSender(), \"AccessControl: can only renounce roles for self\") */\n      tag_126\n      jumpi\n      mload(0x40)\n      0x08c379a000000000000000000000000000000000000000000000000000000000\n      dup2\n      mstore\n      0x04\n      add\n      tag_127\n      swap1\n      tag_128\n      jump\t// in\n    tag_127:\n      mload(0x40)\n      dup1\n      swap2\n      sub\n      swap1\n      revert\n    tag_126:\n        /* \"@openzeppelin/contracts/access/AccessControl.sol\":5968:5994  _revokeRole(role, account) */\n      tag_129\n        /* \"@openzeppelin/contracts/access/AccessControl.sol\":5980:5984  role */\n      dup3\n        /* \"@openzeppelin/contracts/access/AccessControl.sol\":5986:5993  account */\n      dup3\n        /* \"@openzeppelin/contracts/access/AccessControl.sol\":5968:5979  _revokeRole */\n      tag_130\n        /* \"@openzeppelin/contracts/access/AccessControl.sol\":5968:5994  _revokeRole(role, account) */\n      jump\t// in\n    tag_129:\n        /* \"@openzeppelin/contracts/access/AccessControl.sol\":5787:6001  function renounceRole(bytes32 role, address account) public virtual override {... */\n      pop\n      pop\n      jump\t// out\n        /* \"contracts/DiscreetLog.sol\":3888:4741  function performUpkeep(bytes calldata performData) external override {... */\n    tag_57:\n        /* \"contracts/DiscreetLog.sol\":3967:3993  PerformDataPack memory pdp */\n      0x00\n        /* \"contracts/DiscreetLog.sol\":4007:4018  performData */\n      dup3\n      dup3\n        /* \"contracts/DiscreetLog.sol\":3996:4038  abi.decode(performData, (PerformDataPack)) */\n      dup2\n      add\n      swap1\n      tag_132\n      swap2\n      swap1\n      tag_133\n      jump\t// in\n    tag_132:\n        /* \"contracts/DiscreetLog.sol\":3967:4038  PerformDataPack memory pdp = abi.decode(performData, (PerformDataPack)) */\n      swap1\n      pop\n        /* \"contracts/DiscreetLog.sol\":4048:4063  DLC storage dlc */\n      0x00\n        /* \"contracts/DiscreetLog.sol\":4066:4070  dlcs */\n      0x02\n        /* \"contracts/DiscreetLog.sol\":4071:4074  pdp */\n      dup3\n        /* \"contracts/DiscreetLog.sol\":4071:4079  pdp.UUID */\n      0x00\n      add\n      mload\n        /* \"contracts/DiscreetLog.sol\":4066:4080  dlcs[pdp.UUID] */\n      mload(0x40)\n      tag_134\n      swap2\n      swap1\n      tag_135\n      jump\t// in\n    tag_134:\n      swap1\n      dup2\n      mstore\n      0x20\n      add\n      mload(0x40)\n      dup1\n      swap2\n      sub\n      swap1\n      keccak256\n        /* \"contracts/DiscreetLog.sol\":4048:4080  DLC storage dlc = dlcs[pdp.UUID] */\n      swap1\n      pop\n        /* \"contracts/DiscreetLog.sol\":4323:4338  block.timestamp */\n      timestamp\n        /* \"contracts/DiscreetLog.sol\":4304:4307  dlc */\n      dup2\n        /* \"contracts/DiscreetLog.sol\":4304:4319  dlc.closingTime */\n      0x02\n      add\n      sload\n        /* \"contracts/DiscreetLog.sol\":4304:4338  dlc.closingTime <= block.timestamp */\n      gt\n      iszero\n        /* \"contracts/DiscreetLog.sol\":4304:4368  dlc.closingTime <= block.timestamp && dlc.actualClosingTime == 0 */\n      dup1\n      iszero\n      tag_136\n      jumpi\n      pop\n        /* \"contracts/DiscreetLog.sol\":4367:4368  0 */\n      0x00\n        /* \"contracts/DiscreetLog.sol\":4342:4345  dlc */\n      dup2\n        /* \"contracts/DiscreetLog.sol\":4342:4363  dlc.actualClosingTime */\n      0x04\n      add\n      sload\n        /* \"contracts/DiscreetLog.sol\":4342:4368  dlc.actualClosingTime == 0 */\n      eq\n        /* \"contracts/DiscreetLog.sol\":4304:4368  dlc.closingTime <= block.timestamp && dlc.actualClosingTime == 0 */\n    tag_136:\n        /* \"contracts/DiscreetLog.sol\":4485:4488  pdp */\n      dup3\n        /* \"contracts/DiscreetLog.sol\":4485:4493  pdp.UUID */\n      0x00\n      add\n      mload\n        /* \"contracts/DiscreetLog.sol\":4468:4494  abi.encodePacked(pdp.UUID) */\n      add(0x20, mload(0x40))\n      tag_137\n      swap2\n      swap1\n      tag_135\n      jump\t// in\n    tag_137:\n      mload(0x40)\n      0x20\n      dup2\n      dup4\n      sub\n      sub\n      dup2\n      mstore\n      swap1\n      0x40\n      mstore\n        /* \"contracts/DiscreetLog.sol\":4394:4496  abi.encodePacked(\"Validation failed for performUpKeep for UUID: \", string(abi.encodePacked(pdp.UUID))) */\n      add(0x20, mload(0x40))\n      tag_138\n      swap2\n      swap1\n      tag_139\n      jump\t// in\n    tag_138:\n      mload(0x40)\n      0x20\n      dup2\n      dup4\n      sub\n      sub\n      dup2\n      mstore\n      swap1\n      0x40\n      mstore\n        /* \"contracts/DiscreetLog.sol\":4296:4498  require(dlc.closingTime <= block.timestamp && dlc.actualClosingTime == 0, ... */\n      swap1\n      tag_140\n      jumpi\n      mload(0x40)\n      0x08c379a000000000000000000000000000000000000000000000000000000000\n      dup2\n      mstore\n      0x04\n      add\n      tag_141\n      swap2\n      swap1\n      tag_46\n      jump\t// in\n    tag_141:\n      mload(0x40)\n      dup1\n      swap2\n      sub\n      swap1\n      revert\n    tag_140:\n      pop\n        /* \"contracts/DiscreetLog.sol\":4510:4519  int price */\n      0x00\n        /* \"contracts/DiscreetLog.sol\":4521:4535  uint timeStamp */\n      dup1\n        /* \"contracts/DiscreetLog.sol\":4539:4570  getLatestPrice(dlc.feedAddress) */\n      tag_142\n        /* \"contracts/DiscreetLog.sol\":4554:4557  dlc */\n      dup4\n        /* \"contracts/DiscreetLog.sol\":4554:4569  dlc.feedAddress */\n      0x01\n      add\n      0x00\n      swap1\n      sload\n      swap1\n      0x0100\n      exp\n      swap1\n      div\n      0xffffffffffffffffffffffffffffffffffffffff\n      and\n        /* \"contracts/DiscreetLog.sol\":4539:4553  getLatestPrice */\n      tag_143\n        /* \"contracts/DiscreetLog.sol\":4539:4570  getLatestPrice(dlc.feedAddress) */\n      jump\t// in\n    tag_142:\n        /* \"contracts/DiscreetLog.sol\":4509:4570  (int price, uint timeStamp) = getLatestPrice(dlc.feedAddress) */\n      swap2\n      pop\n      swap2\n      pop\n        /* \"contracts/DiscreetLog.sol\":4599:4604  price */\n      dup2\n        /* \"contracts/DiscreetLog.sol\":4580:4583  dlc */\n      dup4\n        /* \"contracts/DiscreetLog.sol\":4580:4596  dlc.closingPrice */\n      0x03\n      add\n        /* \"contracts/DiscreetLog.sol\":4580:4604  dlc.closingPrice = price */\n      dup2\n      swap1\n      sstore\n      pop\n        /* \"contracts/DiscreetLog.sol\":4638:4647  timeStamp */\n      dup1\n        /* \"contracts/DiscreetLog.sol\":4614:4617  dlc */\n      dup4\n        /* \"contracts/DiscreetLog.sol\":4614:4635  dlc.actualClosingTime */\n      0x04\n      add\n        /* \"contracts/DiscreetLog.sol\":4614:4647  dlc.actualClosingTime = timeStamp */\n      dup2\n      swap1\n      sstore\n      pop\n        /* \"contracts/DiscreetLog.sol\":4657:4683  removeClosedDLC(pdp.index) */\n      tag_144\n        /* \"contracts/DiscreetLog.sol\":4673:4676  pdp */\n      dup5\n        /* \"contracts/DiscreetLog.sol\":4673:4682  pdp.index */\n      0x20\n      add\n      mload\n        /* \"contracts/DiscreetLog.sol\":4657:4672  removeClosedDLC */\n      tag_145\n        /* \"contracts/DiscreetLog.sol\":4657:4683  removeClosedDLC(pdp.index) */\n      jump\t// in\n    tag_144:\n      pop\n        /* \"contracts/DiscreetLog.sol\":4698:4734  CloseDLC(pdp.UUID, price, timeStamp) */\n      0xdebd6b75f78fa046f3f6b55da164573acd1103cf3c4815ffc592130389d89d7c\n        /* \"contracts/DiscreetLog.sol\":4707:4710  pdp */\n      dup5\n        /* \"contracts/DiscreetLog.sol\":4707:4715  pdp.UUID */\n      0x00\n      add\n      mload\n        /* \"contracts/DiscreetLog.sol\":4717:4722  price */\n      dup4\n        /* \"contracts/DiscreetLog.sol\":4724:4733  timeStamp */\n      dup4\n        /* \"contracts/DiscreetLog.sol\":4698:4734  CloseDLC(pdp.UUID, price, timeStamp) */\n      mload(0x40)\n      tag_146\n      swap4\n      swap3\n      swap2\n      swap1\n      tag_147\n      jump\t// in\n    tag_146:\n      mload(0x40)\n      dup1\n      swap2\n      sub\n      swap1\n      log1\n        /* \"contracts/DiscreetLog.sol\":3957:4741  {... */\n      pop\n      pop\n      pop\n      pop\n        /* \"contracts/DiscreetLog.sol\":3888:4741  function performUpkeep(bytes calldata performData) external override {... */\n      pop\n      pop\n      jump\t// out\n        /* \"contracts/DiscreetLog.sol\":328:396  bytes32 public constant DLC_ADMIN_ROLE = keccak256(\"DLC_ADMIN_ROLE\") */\n    tag_59:\n        /* \"contracts/DiscreetLog.sol\":369:396  keccak256(\"DLC_ADMIN_ROLE\") */\n      0x2bf88000669ee6f7a648a231f4adbc117f5a8e34f980c08420b9b9a9f2640aa1\n        /* \"contracts/DiscreetLog.sol\":328:396  bytes32 public constant DLC_ADMIN_ROLE = keccak256(\"DLC_ADMIN_ROLE\") */\n      dup2\n      jump\t// out\n        /* \"contracts/DiscreetLog.sol\":4747:5021  function closingPriceAndTimeOfDLC(string memory _UUID) external view returns (int, uint){... */\n    tag_63:\n        /* \"contracts/DiscreetLog.sol\":4825:4828  int */\n      0x00\n        /* \"contracts/DiscreetLog.sol\":4830:4834  uint */\n      dup1\n        /* \"contracts/DiscreetLog.sol\":4845:4859  DLC memory dlc */\n      0x00\n        /* \"contracts/DiscreetLog.sol\":4862:4866  dlcs */\n      0x02\n        /* \"contracts/DiscreetLog.sol\":4867:4872  _UUID */\n      dup5\n        /* \"contracts/DiscreetLog.sol\":4862:4873  dlcs[_UUID] */\n      mload(0x40)\n      tag_149\n      swap2\n      swap1\n      tag_135\n      jump\t// in\n    tag_149:\n      swap1\n      dup2\n      mstore\n      0x20\n      add\n      mload(0x40)\n      dup1\n      swap2\n      sub\n      swap1\n      keccak256\n        /* \"contracts/DiscreetLog.sol\":4845:4873  DLC memory dlc = dlcs[_UUID] */\n      mload(0x40)\n      dup1\n      0xc0\n      add\n      0x40\n      mstore\n      swap1\n      dup2\n      0x00\n      dup3\n      add\n      dup1\n      sload\n      tag_150\n      swap1\n      tag_103\n      jump\t// in\n    tag_150:\n      dup1\n      0x1f\n      add\n      0x20\n      dup1\n      swap2\n      div\n      mul\n      0x20\n      add\n      mload(0x40)\n      swap1\n      dup2\n      add\n      0x40\n      mstore\n      dup1\n      swap3\n      swap2\n      swap1\n      dup2\n      dup2\n      mstore\n      0x20\n      add\n      dup3\n      dup1\n      sload\n      tag_151\n      swap1\n      tag_103\n      jump\t// in\n    tag_151:\n      dup1\n      iszero\n      tag_152\n      jumpi\n      dup1\n      0x1f\n      lt\n      tag_153\n      jumpi\n      0x0100\n      dup1\n      dup4\n      sload\n      div\n      mul\n      dup4\n      mstore\n      swap2\n      0x20\n      add\n      swap2\n      jump(tag_152)\n    tag_153:\n      dup3\n      add\n      swap2\n      swap1\n      0x00\n      mstore\n      keccak256(0x00, 0x20)\n      swap1\n    tag_154:\n      dup2\n      sload\n      dup2\n      mstore\n      swap1\n      0x01\n      add\n      swap1\n      0x20\n      add\n      dup1\n      dup4\n      gt\n      tag_154\n      jumpi\n      dup3\n      swap1\n      sub\n      0x1f\n      and\n      dup3\n      add\n      swap2\n    tag_152:\n      pop\n      pop\n      pop\n      pop\n      pop\n      dup2\n      mstore\n      0x20\n      add\n      0x01\n      dup3\n      add\n      0x00\n      swap1\n      sload\n      swap1\n      0x0100\n      exp\n      swap1\n      div\n      0xffffffffffffffffffffffffffffffffffffffff\n      and\n      0xffffffffffffffffffffffffffffffffffffffff\n      and\n      0xffffffffffffffffffffffffffffffffffffffff\n      and\n      dup2\n      mstore\n      0x20\n      add\n      0x02\n      dup3\n      add\n      sload\n      dup2\n      mstore\n      0x20\n      add\n      0x03\n      dup3\n      add\n      sload\n      dup2\n      mstore\n      0x20\n      add\n      0x04\n      dup3\n      add\n      sload\n      dup2\n      mstore\n      0x20\n      add\n      0x05\n      dup3\n      add\n      sload\n      dup2\n      mstore\n      pop\n      pop\n      swap1\n      pop\n        /* \"contracts/DiscreetLog.sol\":4915:4916  0 */\n      0x00\n        /* \"contracts/DiscreetLog.sol\":4891:4894  dlc */\n      dup2\n        /* \"contracts/DiscreetLog.sol\":4891:4912  dlc.actualClosingTime */\n      0x80\n      add\n      mload\n        /* \"contracts/DiscreetLog.sol\":4891:4916  dlc.actualClosingTime > 0 */\n      gt\n        /* \"contracts/DiscreetLog.sol\":4883:4956  require(dlc.actualClosingTime > 0, \"The requested DLC is not closed yet\") */\n      tag_155\n      jumpi\n      mload(0x40)\n      0x08c379a000000000000000000000000000000000000000000000000000000000\n      dup2\n      mstore\n      0x04\n      add\n      tag_156\n      swap1\n      tag_157\n      jump\t// in\n    tag_156:\n      mload(0x40)\n      dup1\n      swap2\n      sub\n      swap1\n      revert\n    tag_155:\n        /* \"contracts/DiscreetLog.sol\":4974:4977  dlc */\n      dup1\n        /* \"contracts/DiscreetLog.sol\":4974:4990  dlc.closingPrice */\n      0x60\n      add\n      mload\n        /* \"contracts/DiscreetLog.sol\":4992:4995  dlc */\n      dup2\n        /* \"contracts/DiscreetLog.sol\":4992:5013  dlc.actualClosingTime */\n      0x80\n      add\n      mload\n        /* \"contracts/DiscreetLog.sol\":4966:5014  return (dlc.closingPrice, dlc.actualClosingTime) */\n      swap3\n      pop\n      swap3\n      pop\n      pop\n        /* \"contracts/DiscreetLog.sol\":4747:5021  function closingPriceAndTimeOfDLC(string memory _UUID) external view returns (int, uint){... */\n      swap2\n      pop\n      swap2\n      jump\t// out\n        /* \"contracts/DiscreetLog.sol\":5027:5122  function allOpenDLC() external view returns (string[] memory) {... */\n    tag_67:\n        /* \"contracts/DiscreetLog.sol\":5072:5087  string[] memory */\n      0x60\n        /* \"contracts/DiscreetLog.sol\":5106:5115  openUUIDs */\n      0x01\n        /* \"contracts/DiscreetLog.sol\":5099:5115  return openUUIDs */\n      dup1\n      sload\n      dup1\n      0x20\n      mul\n      0x20\n      add\n      mload(0x40)\n      swap1\n      dup2\n      add\n      0x40\n      mstore\n      dup1\n      swap3\n      swap2\n      swap1\n      dup2\n      dup2\n      mstore\n      0x20\n      add\n      0x00\n      swap1\n    tag_159:\n      dup3\n      dup3\n      lt\n      iszero\n      tag_160\n      jumpi\n      dup4\n      dup3\n      swap1\n      0x00\n      mstore\n      keccak256(0x00, 0x20)\n      add\n      dup1\n      sload\n      tag_162\n      swap1\n      tag_103\n      jump\t// in\n    tag_162:\n      dup1\n      0x1f\n      add\n      0x20\n      dup1\n      swap2\n      div\n      mul\n      0x20\n      add\n      mload(0x40)\n      swap1\n      dup2\n      add\n      0x40\n      mstore\n      dup1\n      swap3\n      swap2\n      swap1\n      dup2\n      dup2\n      mstore\n      0x20\n      add\n      dup3\n      dup1\n      sload\n      tag_163\n      swap1\n      tag_103\n      jump\t// in\n    tag_163:\n      dup1\n      iszero\n      tag_164\n      jumpi\n      dup1\n      0x1f\n      lt\n      tag_165\n      jumpi\n      0x0100\n      dup1\n      dup4\n      sload\n      div\n      mul\n      dup4\n      mstore\n      swap2\n      0x20\n      add\n      swap2\n      jump(tag_164)\n    tag_165:\n      dup3\n      add\n      swap2\n      swap1\n      0x00\n      mstore\n      keccak256(0x00, 0x20)\n      swap1\n    tag_166:\n      dup2\n      sload\n      dup2\n      mstore\n      swap1\n      0x01\n      add\n      swap1\n      0x20\n      add\n      dup1\n      dup4\n      gt\n      tag_166\n      jumpi\n      dup3\n      swap1\n      sub\n      0x1f\n      and\n      dup3\n      add\n      swap2\n    tag_164:\n      pop\n      pop\n      pop\n      pop\n      pop\n      dup2\n      mstore\n      0x20\n      add\n      swap1\n      0x01\n      add\n      swap1\n      jump(tag_159)\n    tag_160:\n      pop\n      pop\n      pop\n      pop\n      swap1\n      pop\n        /* \"contracts/DiscreetLog.sol\":5027:5122  function allOpenDLC() external view returns (string[] memory) {... */\n      swap1\n      jump\t// out\n        /* \"contracts/DiscreetLog.sol\":3092:3798  function checkUpkeep(bytes calldata /* checkData */) external view override returns (bool upkeepNeeded, bytes memory performData) {... */\n    tag_72:\n        /* \"contracts/DiscreetLog.sol\":3177:3194  bool upkeepNeeded */\n      0x00\n        /* \"contracts/DiscreetLog.sol\":3196:3220  bytes memory performData */\n      0x60\n        /* \"contracts/DiscreetLog.sol\":3237:3246  uint256 i */\n      0x00\n        /* \"contracts/DiscreetLog.sol\":3232:3792  for (uint256 i = 0; i < openUUIDs.length; i++) {... */\n    tag_168:\n        /* \"contracts/DiscreetLog.sol\":3256:3265  openUUIDs */\n      0x01\n        /* \"contracts/DiscreetLog.sol\":3256:3272  openUUIDs.length */\n      dup1\n      sload\n      swap1\n      pop\n        /* \"contracts/DiscreetLog.sol\":3252:3253  i */\n      dup2\n        /* \"contracts/DiscreetLog.sol\":3252:3272  i < openUUIDs.length */\n      lt\n        /* \"contracts/DiscreetLog.sol\":3232:3792  for (uint256 i = 0; i < openUUIDs.length; i++) {... */\n      iszero\n      tag_169\n      jumpi\n        /* \"contracts/DiscreetLog.sol\":3293:3307  DLC memory dlc */\n      0x00\n        /* \"contracts/DiscreetLog.sol\":3310:3314  dlcs */\n      0x02\n        /* \"contracts/DiscreetLog.sol\":3315:3324  openUUIDs */\n      0x01\n        /* \"contracts/DiscreetLog.sol\":3325:3326  i */\n      dup4\n        /* \"contracts/DiscreetLog.sol\":3315:3327  openUUIDs[i] */\n      dup2\n      sload\n      dup2\n      lt\n      tag_171\n      jumpi\n      tag_172\n      tag_173\n      jump\t// in\n    tag_172:\n    tag_171:\n      swap1\n      0x00\n      mstore\n      keccak256(0x00, 0x20)\n      add\n        /* \"contracts/DiscreetLog.sol\":3310:3328  dlcs[openUUIDs[i]] */\n      mload(0x40)\n      tag_175\n      swap2\n      swap1\n      tag_176\n      jump\t// in\n    tag_175:\n      swap1\n      dup2\n      mstore\n      0x20\n      add\n      mload(0x40)\n      dup1\n      swap2\n      sub\n      swap1\n      keccak256\n        /* \"contracts/DiscreetLog.sol\":3293:3328  DLC memory dlc = dlcs[openUUIDs[i]] */\n      mload(0x40)\n      dup1\n      0xc0\n      add\n      0x40\n      mstore\n      swap1\n      dup2\n      0x00\n      dup3\n      add\n      dup1\n      sload\n      tag_177\n      swap1\n      tag_103\n      jump\t// in\n    tag_177:\n      dup1\n      0x1f\n      add\n      0x20\n      dup1\n      swap2\n      div\n      mul\n      0x20\n      add\n      mload(0x40)\n      swap1\n      dup2\n      add\n      0x40\n      mstore\n      dup1\n      swap3\n      swap2\n      swap1\n      dup2\n      dup2\n      mstore\n      0x20\n      add\n      dup3\n      dup1\n      sload\n      tag_178\n      swap1\n      tag_103\n      jump\t// in\n    tag_178:\n      dup1\n      iszero\n      tag_179\n      jumpi\n      dup1\n      0x1f\n      lt\n      tag_180\n      jumpi\n      0x0100\n      dup1\n      dup4\n      sload\n      div\n      mul\n      dup4\n      mstore\n      swap2\n      0x20\n      add\n      swap2\n      jump(tag_179)\n    tag_180:\n      dup3\n      add\n      swap2\n      swap1\n      0x00\n      mstore\n      keccak256(0x00, 0x20)\n      swap1\n    tag_181:\n      dup2\n      sload\n      dup2\n      mstore\n      swap1\n      0x01\n      add\n      swap1\n      0x20\n      add\n      dup1\n      dup4\n      gt\n      tag_181\n      jumpi\n      dup3\n      swap1\n      sub\n      0x1f\n      and\n      dup3\n      add\n      swap2\n    tag_179:\n      pop\n      pop\n      pop\n      pop\n      pop\n      dup2\n      mstore\n      0x20\n      add\n      0x01\n      dup3\n      add\n      0x00\n      swap1\n      sload\n      swap1\n      0x0100\n      exp\n      swap1\n      div\n      0xffffffffffffffffffffffffffffffffffffffff\n      and\n      0xffffffffffffffffffffffffffffffffffffffff\n      and\n      0xffffffffffffffffffffffffffffffffffffffff\n      and\n      dup2\n      mstore\n      0x20\n      add\n      0x02\n      dup3\n      add\n      sload\n      dup2\n      mstore\n      0x20\n      add\n      0x03\n      dup3\n      add\n      sload\n      dup2\n      mstore\n      0x20\n      add\n      0x04\n      dup3\n      add\n      sload\n      dup2\n      mstore\n      0x20\n      add\n      0x05\n      dup3\n      add\n      sload\n      dup2\n      mstore\n      pop\n      pop\n      swap1\n      pop\n        /* \"contracts/DiscreetLog.sol\":3364:3379  block.timestamp */\n      timestamp\n        /* \"contracts/DiscreetLog.sol\":3345:3348  dlc */\n      dup2\n        /* \"contracts/DiscreetLog.sol\":3345:3360  dlc.closingTime */\n      0x40\n      add\n      mload\n        /* \"contracts/DiscreetLog.sol\":3345:3379  dlc.closingTime <= block.timestamp */\n      gt\n      iszero\n        /* \"contracts/DiscreetLog.sol\":3345:3409  dlc.closingTime <= block.timestamp && dlc.actualClosingTime == 0 */\n      dup1\n      iszero\n      tag_182\n      jumpi\n      pop\n        /* \"contracts/DiscreetLog.sol\":3408:3409  0 */\n      0x00\n        /* \"contracts/DiscreetLog.sol\":3383:3386  dlc */\n      dup2\n        /* \"contracts/DiscreetLog.sol\":3383:3404  dlc.actualClosingTime */\n      0x80\n      add\n      mload\n        /* \"contracts/DiscreetLog.sol\":3383:3409  dlc.actualClosingTime == 0 */\n      eq\n        /* \"contracts/DiscreetLog.sol\":3345:3409  dlc.closingTime <= block.timestamp && dlc.actualClosingTime == 0 */\n    tag_182:\n        /* \"contracts/DiscreetLog.sol\":3342:3782  if(dlc.closingTime <= block.timestamp && dlc.actualClosingTime == 0){  // only perform upkeep if closingTime passed and DLC not closed yet... */\n      iszero\n      tag_183\n      jumpi\n        /* \"contracts/DiscreetLog.sol\":3512:3516  true */\n      0x01\n        /* \"contracts/DiscreetLog.sol\":3497:3516  upkeepNeeded = true */\n      swap4\n      pop\n        /* \"contracts/DiscreetLog.sol\":3559:3743  PerformDataPack({... */\n      mload(0x40)\n      dup1\n      0x40\n      add\n      0x40\n      mstore\n      dup1\n        /* \"contracts/DiscreetLog.sol\":3603:3612  openUUIDs */\n      0x01\n        /* \"contracts/DiscreetLog.sol\":3613:3614  i */\n      dup5\n        /* \"contracts/DiscreetLog.sol\":3603:3615  openUUIDs[i] */\n      dup2\n      sload\n      dup2\n      lt\n      tag_184\n      jumpi\n      tag_185\n      tag_173\n      jump\t// in\n    tag_185:\n    tag_184:\n      swap1\n      0x00\n      mstore\n      keccak256(0x00, 0x20)\n      add\n        /* \"contracts/DiscreetLog.sol\":3559:3743  PerformDataPack({... */\n      dup1\n      sload\n      tag_187\n      swap1\n      tag_103\n      jump\t// in\n    tag_187:\n      dup1\n      0x1f\n      add\n      0x20\n      dup1\n      swap2\n      div\n      mul\n      0x20\n      add\n      mload(0x40)\n      swap1\n      dup2\n      add\n      0x40\n      mstore\n      dup1\n      swap3\n      swap2\n      swap1\n      dup2\n      dup2\n      mstore\n      0x20\n      add\n      dup3\n      dup1\n      sload\n      tag_188\n      swap1\n      tag_103\n      jump\t// in\n    tag_188:\n      dup1\n      iszero\n      tag_189\n      jumpi\n      dup1\n      0x1f\n      lt\n      tag_190\n      jumpi\n      0x0100\n      dup1\n      dup4\n      sload\n      div\n      mul\n      dup4\n      mstore\n      swap2\n      0x20\n      add\n      swap2\n      jump(tag_189)\n    tag_190:\n      dup3\n      add\n      swap2\n      swap1\n      0x00\n      mstore\n      keccak256(0x00, 0x20)\n      swap1\n    tag_191:\n      dup2\n      sload\n      dup2\n      mstore\n      swap1\n      0x01\n      add\n      swap1\n      0x20\n      add\n      dup1\n      dup4\n      gt\n      tag_191\n      jumpi\n      dup3\n      swap1\n      sub\n      0x1f\n      and\n      dup3\n      add\n      swap2\n    tag_189:\n      pop\n      pop\n      pop\n      pop\n      pop\n      dup2\n      mstore\n      0x20\n      add\n        /* \"contracts/DiscreetLog.sol\":3644:3667  findIndex(openUUIDs[i]) */\n      tag_192\n        /* \"contracts/DiscreetLog.sol\":3654:3663  openUUIDs */\n      0x01\n        /* \"contracts/DiscreetLog.sol\":3664:3665  i */\n      dup6\n        /* \"contracts/DiscreetLog.sol\":3654:3666  openUUIDs[i] */\n      dup2\n      sload\n      dup2\n      lt\n      tag_193\n      jumpi\n      tag_194\n      tag_173\n      jump\t// in\n    tag_194:\n    tag_193:\n      swap1\n      0x00\n      mstore\n      keccak256(0x00, 0x20)\n      add\n        /* \"contracts/DiscreetLog.sol\":3644:3667  findIndex(openUUIDs[i]) */\n      dup1\n      sload\n      tag_196\n      swap1\n      tag_103\n      jump\t// in\n    tag_196:\n      dup1\n      0x1f\n      add\n      0x20\n      dup1\n      swap2\n      div\n      mul\n      0x20\n      add\n      mload(0x40)\n      swap1\n      dup2\n      add\n      0x40\n      mstore\n      dup1\n      swap3\n      swap2\n      swap1\n      dup2\n      dup2\n      mstore\n      0x20\n      add\n      dup3\n      dup1\n      sload\n      tag_197\n      swap1\n      tag_103\n      jump\t// in\n    tag_197:\n      dup1\n      iszero\n      tag_198\n      jumpi\n      dup1\n      0x1f\n      lt\n      tag_199\n      jumpi\n      0x0100\n      dup1\n      dup4\n      sload\n      div\n      mul\n      dup4\n      mstore\n      swap2\n      0x20\n      add\n      swap2\n      jump(tag_198)\n    tag_199:\n      dup3\n      add\n      swap2\n      swap1\n      0x00\n      mstore\n      keccak256(0x00, 0x20)\n      swap1\n    tag_200:\n      dup2\n      sload\n      dup2\n      mstore\n      swap1\n      0x01\n      add\n      swap1\n      0x20\n      add\n      dup1\n      dup4\n      gt\n      tag_200\n      jumpi\n      dup3\n      swap1\n      sub\n      0x1f\n      and\n      dup3\n      add\n      swap2\n    tag_198:\n      pop\n      pop\n      pop\n      pop\n      pop\n        /* \"contracts/DiscreetLog.sol\":3644:3653  findIndex */\n      tag_201\n        /* \"contracts/DiscreetLog.sol\":3644:3667  findIndex(openUUIDs[i]) */\n      jump\t// in\n    tag_192:\n        /* \"contracts/DiscreetLog.sol\":3559:3743  PerformDataPack({... */\n      dup2\n      mstore\n      pop\n        /* \"contracts/DiscreetLog.sol\":3548:3744  abi.encode(PerformDataPack({... */\n      add(0x20, mload(0x40))\n      tag_202\n      swap2\n      swap1\n      tag_203\n      jump\t// in\n    tag_202:\n      mload(0x40)\n      0x20\n      dup2\n      dup4\n      sub\n      sub\n      dup2\n      mstore\n      swap1\n      0x40\n      mstore\n        /* \"contracts/DiscreetLog.sol\":3534:3744  performData = abi.encode(PerformDataPack({... */\n      swap3\n      pop\n        /* \"contracts/DiscreetLog.sol\":3762:3767  break */\n      pop\n      jump(tag_169)\n        /* \"contracts/DiscreetLog.sol\":3342:3782  if(dlc.closingTime <= block.timestamp && dlc.actualClosingTime == 0){  // only perform upkeep if closingTime passed and DLC not closed yet... */\n    tag_183:\n        /* \"contracts/DiscreetLog.sol\":3279:3792  {... */\n      pop\n        /* \"contracts/DiscreetLog.sol\":3274:3277  i++ */\n      dup1\n      dup1\n      tag_204\n      swap1\n      tag_205\n      jump\t// in\n    tag_204:\n      swap2\n      pop\n      pop\n        /* \"contracts/DiscreetLog.sol\":3232:3792  for (uint256 i = 0; i < openUUIDs.length; i++) {... */\n      jump(tag_168)\n    tag_169:\n      pop\n        /* \"contracts/DiscreetLog.sol\":3092:3798  function checkUpkeep(bytes calldata /* checkData */) external view override returns (bool upkeepNeeded, bytes memory performData) {... */\n      swap3\n      pop\n      swap3\n      swap1\n      pop\n      jump\t// out\n        /* \"@openzeppelin/contracts/access/AccessControl.sol\":2895:3040  function hasRole(bytes32 role, address account) public view virtual override returns (bool) {... */\n    tag_77:\n        /* \"@openzeppelin/contracts/access/AccessControl.sol\":2981:2985  bool */\n      0x00\n        /* \"@openzeppelin/contracts/access/AccessControl.sol\":3004:3010  _roles */\n      dup1\n        /* \"@openzeppelin/contracts/access/AccessControl.sol\":3004:3016  _roles[role] */\n      0x00\n        /* \"@openzeppelin/contracts/access/AccessControl.sol\":3011:3015  role */\n      dup5\n        /* \"@openzeppelin/contracts/access/AccessControl.sol\":3004:3016  _roles[role] */\n      dup2\n      mstore\n      0x20\n      add\n      swap1\n      dup2\n      mstore\n      0x20\n      add\n      0x00\n      keccak256\n        /* \"@openzeppelin/contracts/access/AccessControl.sol\":3004:3024  _roles[role].members */\n      0x00\n      add\n        /* \"@openzeppelin/contracts/access/AccessControl.sol\":3004:3033  _roles[role].members[account] */\n      0x00\n        /* \"@openzeppelin/contracts/access/AccessControl.sol\":3025:3032  account */\n      dup4\n        /* \"@openzeppelin/contracts/access/AccessControl.sol\":3004:3033  _roles[role].members[account] */\n      0xffffffffffffffffffffffffffffffffffffffff\n      and\n      0xffffffffffffffffffffffffffffffffffffffff\n      and\n      dup2\n      mstore\n      0x20\n      add\n      swap1\n      dup2\n      mstore\n      0x20\n      add\n      0x00\n      keccak256\n      0x00\n      swap1\n      sload\n      swap1\n      0x0100\n      exp\n      swap1\n      div\n      0xff\n      and\n        /* \"@openzeppelin/contracts/access/AccessControl.sol\":2997:3033  return _roles[role].members[account] */\n      swap1\n      pop\n        /* \"@openzeppelin/contracts/access/AccessControl.sol\":2895:3040  function hasRole(bytes32 role, address account) public view virtual override returns (bool) {... */\n      swap3\n      swap2\n      pop\n      pop\n      jump\t// out\n        /* \"contracts/DiscreetLog.sol\":1429:2109  function addNewDLC(string memory _UUID, address _feedAddress, uint _closingTime, uint _emergencyRefundTime) external onlyRole(DLC_ADMIN_ROLE){... */\n    tag_82:\n        /* \"contracts/DiscreetLog.sol\":369:396  keccak256(\"DLC_ADMIN_ROLE\") */\n      0x2bf88000669ee6f7a648a231f4adbc117f5a8e34f980c08420b9b9a9f2640aa1\n        /* \"@openzeppelin/contracts/access/AccessControl.sol\":2505:2521  _checkRole(role) */\n      tag_208\n        /* \"@openzeppelin/contracts/access/AccessControl.sol\":2516:2520  role */\n      dup2\n        /* \"@openzeppelin/contracts/access/AccessControl.sol\":2505:2515  _checkRole */\n      tag_119\n        /* \"@openzeppelin/contracts/access/AccessControl.sol\":2505:2521  _checkRole(role) */\n      jump\t// in\n    tag_208:\n        /* \"contracts/DiscreetLog.sol\":1623:1624  0 */\n      0x00\n        /* \"contracts/DiscreetLog.sol\":1588:1625  dlcs[_UUID].feedAddress == address(0) */\n      0xffffffffffffffffffffffffffffffffffffffff\n      and\n        /* \"contracts/DiscreetLog.sol\":1588:1592  dlcs */\n      0x02\n        /* \"contracts/DiscreetLog.sol\":1593:1598  _UUID */\n      dup7\n        /* \"contracts/DiscreetLog.sol\":1588:1599  dlcs[_UUID] */\n      mload(0x40)\n      tag_210\n      swap2\n      swap1\n      tag_135\n      jump\t// in\n    tag_210:\n      swap1\n      dup2\n      mstore\n      0x20\n      add\n      mload(0x40)\n      dup1\n      swap2\n      sub\n      swap1\n      keccak256\n        /* \"contracts/DiscreetLog.sol\":1588:1611  dlcs[_UUID].feedAddress */\n      0x01\n      add\n      0x00\n      swap1\n      sload\n      swap1\n      0x0100\n      exp\n      swap1\n      div\n      0xffffffffffffffffffffffffffffffffffffffff\n      and\n        /* \"contracts/DiscreetLog.sol\":1588:1625  dlcs[_UUID].feedAddress == address(0) */\n      0xffffffffffffffffffffffffffffffffffffffff\n      and\n      eq\n        /* \"contracts/DiscreetLog.sol\":1580:1647  require(dlcs[_UUID].feedAddress == address(0), \"DLC already added\") */\n      tag_211\n      jumpi\n      mload(0x40)\n      0x08c379a000000000000000000000000000000000000000000000000000000000\n      dup2\n      mstore\n      0x04\n      add\n      tag_212\n      swap1\n      tag_213\n      jump\t// in\n    tag_212:\n      mload(0x40)\n      dup1\n      swap2\n      sub\n      swap1\n      revert\n    tag_211:\n        /* \"contracts/DiscreetLog.sol\":1680:1695  block.timestamp */\n      timestamp\n        /* \"contracts/DiscreetLog.sol\":1665:1677  _closingTime */\n      dup4\n        /* \"contracts/DiscreetLog.sol\":1665:1695  _closingTime > block.timestamp */\n      gt\n        /* \"contracts/DiscreetLog.sol\":1657:1733  require(_closingTime > block.timestamp, \"Closing time can't be in the past\") */\n      tag_214\n      jumpi\n      mload(0x40)\n      0x08c379a000000000000000000000000000000000000000000000000000000000\n      dup2\n      mstore\n      0x04\n      add\n      tag_215\n      swap1\n      tag_216\n      jump\t// in\n    tag_215:\n      mload(0x40)\n      dup1\n      swap2\n      sub\n      swap1\n      revert\n    tag_214:\n        /* \"contracts/DiscreetLog.sol\":1757:1993  DLC({... */\n      mload(0x40)\n      dup1\n      0xc0\n      add\n      0x40\n      mstore\n      dup1\n        /* \"contracts/DiscreetLog.sol\":1781:1786  _UUID */\n      dup7\n        /* \"contracts/DiscreetLog.sol\":1757:1993  DLC({... */\n      dup2\n      mstore\n      0x20\n      add\n        /* \"contracts/DiscreetLog.sol\":1813:1825  _feedAddress */\n      dup6\n        /* \"contracts/DiscreetLog.sol\":1757:1993  DLC({... */\n      0xffffffffffffffffffffffffffffffffffffffff\n      and\n      dup2\n      mstore\n      0x20\n      add\n        /* \"contracts/DiscreetLog.sol\":1852:1864  _closingTime */\n      dup5\n        /* \"contracts/DiscreetLog.sol\":1757:1993  DLC({... */\n      dup2\n      mstore\n      0x20\n      add\n        /* \"contracts/DiscreetLog.sol\":1892:1893  0 */\n      0x00\n        /* \"contracts/DiscreetLog.sol\":1757:1993  DLC({... */\n      dup2\n      mstore\n      0x20\n      add\n        /* \"contracts/DiscreetLog.sol\":1926:1927  0 */\n      0x00\n        /* \"contracts/DiscreetLog.sol\":1757:1993  DLC({... */\n      dup2\n      mstore\n      0x20\n      add\n        /* \"contracts/DiscreetLog.sol\":1962:1982  _emergencyRefundTime */\n      dup4\n        /* \"contracts/DiscreetLog.sol\":1757:1993  DLC({... */\n      dup2\n      mstore\n      pop\n        /* \"contracts/DiscreetLog.sol\":1743:1747  dlcs */\n      0x02\n        /* \"contracts/DiscreetLog.sol\":1748:1753  _UUID */\n      dup7\n        /* \"contracts/DiscreetLog.sol\":1743:1754  dlcs[_UUID] */\n      mload(0x40)\n      tag_217\n      swap2\n      swap1\n      tag_135\n      jump\t// in\n    tag_217:\n      swap1\n      dup2\n      mstore\n      0x20\n      add\n      mload(0x40)\n      dup1\n      swap2\n      sub\n      swap1\n      keccak256\n        /* \"contracts/DiscreetLog.sol\":1743:1993  dlcs[_UUID] = DLC({... */\n      0x00\n      dup3\n      add\n      mload\n      dup2\n      0x00\n      add\n      swap1\n      dup1\n      mload\n      swap1\n      0x20\n      add\n      swap1\n      tag_218\n      swap3\n      swap2\n      swap1\n      tag_219\n      jump\t// in\n    tag_218:\n      pop\n      0x20\n      dup3\n      add\n      mload\n      dup2\n      0x01\n      add\n      exp(0x0100, 0x00)\n      dup2\n      sload\n      dup2\n      0xffffffffffffffffffffffffffffffffffffffff\n      mul\n      not\n      and\n      swap1\n      dup4\n      0xffffffffffffffffffffffffffffffffffffffff\n      and\n      mul\n      or\n      swap1\n      sstore\n      pop\n      0x40\n      dup3\n      add\n      mload\n      dup2\n      0x02\n      add\n      sstore\n      0x60\n      dup3\n      add\n      mload\n      dup2\n      0x03\n      add\n      sstore\n      0x80\n      dup3\n      add\n      mload\n      dup2\n      0x04\n      add\n      sstore\n      0xa0\n      dup3\n      add\n      mload\n      dup2\n      0x05\n      add\n      sstore\n      swap1\n      pop\n      pop\n        /* \"contracts/DiscreetLog.sol\":2003:2012  openUUIDs */\n      0x01\n        /* \"contracts/DiscreetLog.sol\":2018:2023  _UUID */\n      dup6\n        /* \"contracts/DiscreetLog.sol\":2003:2024  openUUIDs.push(_UUID) */\n      swap1\n      dup1\n      0x01\n      dup2\n      sload\n      add\n      dup1\n      dup3\n      sstore\n      dup1\n      swap2\n      pop\n      pop\n      0x01\n      swap1\n      sub\n      swap1\n      0x00\n      mstore\n      keccak256(0x00, 0x20)\n      add\n      0x00\n      swap1\n      swap2\n      swap1\n      swap2\n      swap1\n      swap2\n      pop\n      swap1\n      dup1\n      mload\n      swap1\n      0x20\n      add\n      swap1\n      tag_221\n      swap3\n      swap2\n      swap1\n      tag_219\n      jump\t// in\n    tag_221:\n      pop\n        /* \"contracts/DiscreetLog.sol\":2039:2102  NewDLC(_UUID, _feedAddress, _closingTime, _emergencyRefundTime) */\n      0x64f8e747c650091d76093dca1a6c200a28a9ad70b12f628b2a3369c97bdb458d\n        /* \"contracts/DiscreetLog.sol\":2046:2051  _UUID */\n      dup6\n        /* \"contracts/DiscreetLog.sol\":2053:2065  _feedAddress */\n      dup6\n        /* \"contracts/DiscreetLog.sol\":2067:2079  _closingTime */\n      dup6\n        /* \"contracts/DiscreetLog.sol\":2081:2101  _emergencyRefundTime */\n      dup6\n        /* \"contracts/DiscreetLog.sol\":2039:2102  NewDLC(_UUID, _feedAddress, _closingTime, _emergencyRefundTime) */\n      mload(0x40)\n      tag_222\n      swap5\n      swap4\n      swap3\n      swap2\n      swap1\n      tag_223\n      jump\t// in\n    tag_222:\n      mload(0x40)\n      dup1\n      swap2\n      sub\n      swap1\n      log1\n        /* \"contracts/DiscreetLog.sol\":1429:2109  function addNewDLC(string memory _UUID, address _feedAddress, uint _closingTime, uint _emergencyRefundTime) external onlyRole(DLC_ADMIN_ROLE){... */\n      pop\n      pop\n      pop\n      pop\n      pop\n      jump\t// out\n        /* \"contracts/DiscreetLog.sol\":2410:3012  function cancelEarly(string memory _UUID) external onlyRole(DLC_ADMIN_ROLE) returns (int){... */\n    tag_85:\n        /* \"contracts/DiscreetLog.sol\":2495:2498  int */\n      0x00\n        /* \"contracts/DiscreetLog.sol\":369:396  keccak256(\"DLC_ADMIN_ROLE\") */\n      0x2bf88000669ee6f7a648a231f4adbc117f5a8e34f980c08420b9b9a9f2640aa1\n        /* \"@openzeppelin/contracts/access/AccessControl.sol\":2505:2521  _checkRole(role) */\n      tag_225\n        /* \"@openzeppelin/contracts/access/AccessControl.sol\":2516:2520  role */\n      dup2\n        /* \"@openzeppelin/contracts/access/AccessControl.sol\":2505:2515  _checkRole */\n      tag_119\n        /* \"@openzeppelin/contracts/access/AccessControl.sol\":2505:2521  _checkRole(role) */\n      jump\t// in\n    tag_225:\n        /* \"contracts/DiscreetLog.sol\":2509:2524  DLC storage dlc */\n      0x00\n        /* \"contracts/DiscreetLog.sol\":2527:2531  dlcs */\n      0x02\n        /* \"contracts/DiscreetLog.sol\":2532:2537  _UUID */\n      dup5\n        /* \"contracts/DiscreetLog.sol\":2527:2538  dlcs[_UUID] */\n      mload(0x40)\n      tag_227\n      swap2\n      swap1\n      tag_135\n      jump\t// in\n    tag_227:\n      swap1\n      dup2\n      mstore\n      0x20\n      add\n      mload(0x40)\n      dup1\n      swap2\n      sub\n      swap1\n      keccak256\n        /* \"contracts/DiscreetLog.sol\":2509:2538  DLC storage dlc = dlcs[_UUID] */\n      swap1\n      pop\n        /* \"contracts/DiscreetLog.sol\":2574:2577  dlc */\n      dup1\n        /* \"contracts/DiscreetLog.sol\":2574:2589  dlc.closingTime */\n      0x02\n      add\n      sload\n        /* \"contracts/DiscreetLog.sol\":2556:2571  block.timestamp */\n      timestamp\n        /* \"contracts/DiscreetLog.sol\":2556:2589  block.timestamp < dlc.closingTime */\n      lt\n        /* \"contracts/DiscreetLog.sol\":2548:2636  require(block.timestamp < dlc.closingTime, \"Can only be called before the closing time\") */\n      tag_228\n      jumpi\n      mload(0x40)\n      0x08c379a000000000000000000000000000000000000000000000000000000000\n      dup2\n      mstore\n      0x04\n      add\n      tag_229\n      swap1\n      tag_230\n      jump\t// in\n    tag_229:\n      mload(0x40)\n      dup1\n      swap2\n      sub\n      swap1\n      revert\n    tag_228:\n        /* \"contracts/DiscreetLog.sol\":2679:2680  0 */\n      0x00\n        /* \"contracts/DiscreetLog.sol\":2654:2657  dlc */\n      dup2\n        /* \"contracts/DiscreetLog.sol\":2654:2675  dlc.actualClosingTime */\n      0x04\n      add\n      sload\n        /* \"contracts/DiscreetLog.sol\":2654:2680  dlc.actualClosingTime == 0 */\n      eq\n        /* \"contracts/DiscreetLog.sol\":2646:2738  require(dlc.actualClosingTime == 0, \"Can only be called if the DLC has not been closed yet\") */\n      tag_231\n      jumpi\n      mload(0x40)\n      0x08c379a000000000000000000000000000000000000000000000000000000000\n      dup2\n      mstore\n      0x04\n      add\n      tag_232\n      swap1\n      tag_233\n      jump\t// in\n    tag_232:\n      mload(0x40)\n      dup1\n      swap2\n      sub\n      swap1\n      revert\n    tag_231:\n        /* \"contracts/DiscreetLog.sol\":2750:2759  int price */\n      0x00\n        /* \"contracts/DiscreetLog.sol\":2761:2775  uint timeStamp */\n      dup1\n        /* \"contracts/DiscreetLog.sol\":2779:2810  getLatestPrice(dlc.feedAddress) */\n      tag_234\n        /* \"contracts/DiscreetLog.sol\":2794:2797  dlc */\n      dup4\n        /* \"contracts/DiscreetLog.sol\":2794:2809  dlc.feedAddress */\n      0x01\n      add\n      0x00\n      swap1\n      sload\n      swap1\n      0x0100\n      exp\n      swap1\n      div\n      0xffffffffffffffffffffffffffffffffffffffff\n      and\n        /* \"contracts/DiscreetLog.sol\":2779:2793  getLatestPrice */\n      tag_143\n        /* \"contracts/DiscreetLog.sol\":2779:2810  getLatestPrice(dlc.feedAddress) */\n      jump\t// in\n    tag_234:\n        /* \"contracts/DiscreetLog.sol\":2749:2810  (int price, uint timeStamp) = getLatestPrice(dlc.feedAddress) */\n      swap2\n      pop\n      swap2\n      pop\n        /* \"contracts/DiscreetLog.sol\":2839:2844  price */\n      dup2\n        /* \"contracts/DiscreetLog.sol\":2820:2823  dlc */\n      dup4\n        /* \"contracts/DiscreetLog.sol\":2820:2836  dlc.closingPrice */\n      0x03\n      add\n        /* \"contracts/DiscreetLog.sol\":2820:2844  dlc.closingPrice = price */\n      dup2\n      swap1\n      sstore\n      pop\n        /* \"contracts/DiscreetLog.sol\":2878:2887  timeStamp */\n      dup1\n        /* \"contracts/DiscreetLog.sol\":2854:2857  dlc */\n      dup4\n        /* \"contracts/DiscreetLog.sol\":2854:2875  dlc.actualClosingTime */\n      0x04\n      add\n        /* \"contracts/DiscreetLog.sol\":2854:2887  dlc.actualClosingTime = timeStamp */\n      dup2\n      swap1\n      sstore\n      pop\n        /* \"contracts/DiscreetLog.sol\":2897:2930  removeClosedDLC(findIndex(_UUID)) */\n      tag_235\n        /* \"contracts/DiscreetLog.sol\":2913:2929  findIndex(_UUID) */\n      tag_236\n        /* \"contracts/DiscreetLog.sol\":2923:2928  _UUID */\n      dup8\n        /* \"contracts/DiscreetLog.sol\":2913:2922  findIndex */\n      tag_201\n        /* \"contracts/DiscreetLog.sol\":2913:2929  findIndex(_UUID) */\n      jump\t// in\n    tag_236:\n        /* \"contracts/DiscreetLog.sol\":2897:2912  removeClosedDLC */\n      tag_145\n        /* \"contracts/DiscreetLog.sol\":2897:2930  removeClosedDLC(findIndex(_UUID)) */\n      jump\t// in\n    tag_235:\n      pop\n        /* \"contracts/DiscreetLog.sol\":2945:2983  EarlyCloseDLC(_UUID, price, timeStamp) */\n      0x49e0b636815dc79dcb9a0d30f307838293583b407695f07f6c4b15187c259d39\n        /* \"contracts/DiscreetLog.sol\":2959:2964  _UUID */\n      dup7\n        /* \"contracts/DiscreetLog.sol\":2966:2971  price */\n      dup4\n        /* \"contracts/DiscreetLog.sol\":2973:2982  timeStamp */\n      dup4\n        /* \"contracts/DiscreetLog.sol\":2945:2983  EarlyCloseDLC(_UUID, price, timeStamp) */\n      mload(0x40)\n      tag_237\n      swap4\n      swap3\n      swap2\n      swap1\n      tag_147\n      jump\t// in\n    tag_237:\n      mload(0x40)\n      dup1\n      swap2\n      sub\n      swap1\n      log1\n        /* \"contracts/DiscreetLog.sol\":3000:3005  price */\n      dup2\n        /* \"contracts/DiscreetLog.sol\":2993:3005  return price */\n      swap5\n      pop\n      pop\n      pop\n      pop\n        /* \"contracts/DiscreetLog.sol\":2410:3012  function cancelEarly(string memory _UUID) external onlyRole(DLC_ADMIN_ROLE) returns (int){... */\n      pop\n      swap2\n      swap1\n      pop\n      jump\t// out\n        /* \"@openzeppelin/contracts/access/AccessControl.sol\":2027:2076  bytes32 public constant DEFAULT_ADMIN_ROLE = 0x00 */\n    tag_89:\n        /* \"@openzeppelin/contracts/access/AccessControl.sol\":2072:2076  0x00 */\n      0x00\n        /* \"@openzeppelin/contracts/access/AccessControl.sol\":2027:2076  bytes32 public constant DEFAULT_ADMIN_ROLE = 0x00 */\n      dup1\n      shl\n      dup2\n      jump\t// out\n        /* \"@openzeppelin/contracts/access/AccessControl.sol\":5149:5296  function revokeRole(bytes32 role, address account) public virtual override onlyRole(getRoleAdmin(role)) {... */\n    tag_93:\n        /* \"@openzeppelin/contracts/access/AccessControl.sol\":5233:5251  getRoleAdmin(role) */\n      tag_238\n        /* \"@openzeppelin/contracts/access/AccessControl.sol\":5246:5250  role */\n      dup3\n        /* \"@openzeppelin/contracts/access/AccessControl.sol\":5233:5245  getRoleAdmin */\n      tag_38\n        /* \"@openzeppelin/contracts/access/AccessControl.sol\":5233:5251  getRoleAdmin(role) */\n      jump\t// in\n    tag_238:\n        /* \"@openzeppelin/contracts/access/AccessControl.sol\":2505:2521  _checkRole(role) */\n      tag_240\n        /* \"@openzeppelin/contracts/access/AccessControl.sol\":2516:2520  role */\n      dup2\n        /* \"@openzeppelin/contracts/access/AccessControl.sol\":2505:2515  _checkRole */\n      tag_119\n        /* \"@openzeppelin/contracts/access/AccessControl.sol\":2505:2521  _checkRole(role) */\n      jump\t// in\n    tag_240:\n        /* \"@openzeppelin/contracts/access/AccessControl.sol\":5263:5289  _revokeRole(role, account) */\n      tag_242\n        /* \"@openzeppelin/contracts/access/AccessControl.sol\":5275:5279  role */\n      dup4\n        /* \"@openzeppelin/contracts/access/AccessControl.sol\":5281:5288  account */\n      dup4\n        /* \"@openzeppelin/contracts/access/AccessControl.sol\":5263:5274  _revokeRole */\n      tag_130\n        /* \"@openzeppelin/contracts/access/AccessControl.sol\":5263:5289  _revokeRole(role, account) */\n      jump\t// in\n    tag_242:\n        /* \"@openzeppelin/contracts/access/AccessControl.sol\":5149:5296  function revokeRole(bytes32 role, address account) public virtual override onlyRole(getRoleAdmin(role)) {... */\n      pop\n      pop\n      pop\n      jump\t// out\n        /* \"contracts/DiscreetLog.sol\":2115:2404  function requestCreateDLC(address _feedAddress, uint _closingTime, uint _emergencyRefundTime) external {... */\n    tag_97:\n        /* \"contracts/DiscreetLog.sol\":2251:2266  block.timestamp */\n      timestamp\n        /* \"contracts/DiscreetLog.sol\":2236:2248  _closingTime */\n      dup3\n        /* \"contracts/DiscreetLog.sol\":2236:2266  _closingTime > block.timestamp */\n      gt\n        /* \"contracts/DiscreetLog.sol\":2228:2304  require(_closingTime > block.timestamp, \"Closing time can't be in the past\") */\n      tag_244\n      jumpi\n      mload(0x40)\n      0x08c379a000000000000000000000000000000000000000000000000000000000\n      dup2\n      mstore\n      0x04\n      add\n      tag_245\n      swap1\n      tag_216\n      jump\t// in\n    tag_245:\n      mload(0x40)\n      dup1\n      swap2\n      sub\n      swap1\n      revert\n    tag_244:\n        /* \"contracts/DiscreetLog.sol\":2319:2397  RequestCreateDLC(_feedAddress, _closingTime, _emergencyRefundTime, msg.sender) */\n      0x76570f28e10fdede20130ab377b0716e5f58f534e68fbbd8d7591059a59ac7bd\n        /* \"contracts/DiscreetLog.sol\":2336:2348  _feedAddress */\n      dup4\n        /* \"contracts/DiscreetLog.sol\":2350:2362  _closingTime */\n      dup4\n        /* \"contracts/DiscreetLog.sol\":2364:2384  _emergencyRefundTime */\n      dup4\n        /* \"contracts/DiscreetLog.sol\":2386:2396  msg.sender */\n      caller\n        /* \"contracts/DiscreetLog.sol\":2319:2397  RequestCreateDLC(_feedAddress, _closingTime, _emergencyRefundTime, msg.sender) */\n      mload(0x40)\n      tag_246\n      swap5\n      swap4\n      swap3\n      swap2\n      swap1\n      tag_247\n      jump\t// in\n    tag_246:\n      mload(0x40)\n      dup1\n      swap2\n      sub\n      swap1\n      log1\n        /* \"contracts/DiscreetLog.sol\":2115:2404  function requestCreateDLC(address _feedAddress, uint _closingTime, uint _emergencyRefundTime) external {... */\n      pop\n      pop\n      pop\n      jump\t// out\n        /* \"@openzeppelin/contracts/utils/introspection/ERC165.sol\":829:984  function supportsInterface(bytes4 interfaceId) public view virtual override returns (bool) {... */\n    tag_101:\n        /* \"@openzeppelin/contracts/utils/introspection/ERC165.sol\":914:918  bool */\n      0x00\n        /* \"@openzeppelin/contracts/utils/introspection/ERC165.sol\":952:977  type(IERC165).interfaceId */\n      0x01ffc9a700000000000000000000000000000000000000000000000000000000\n        /* \"@openzeppelin/contracts/utils/introspection/ERC165.sol\":937:977  interfaceId == type(IERC165).interfaceId */\n      not(0xffffffffffffffffffffffffffffffffffffffffffffffffffffffff)\n      and\n        /* \"@openzeppelin/contracts/utils/introspection/ERC165.sol\":937:948  interfaceId */\n      dup3\n        /* \"@openzeppelin/contracts/utils/introspection/ERC165.sol\":937:977  interfaceId == type(IERC165).interfaceId */\n      not(0xffffffffffffffffffffffffffffffffffffffffffffffffffffffff)\n      and\n      eq\n        /* \"@openzeppelin/contracts/utils/introspection/ERC165.sol\":930:977  return interfaceId == type(IERC165).interfaceId */\n      swap1\n      pop\n        /* \"@openzeppelin/contracts/utils/introspection/ERC165.sol\":829:984  function supportsInterface(bytes4 interfaceId) public view virtual override returns (bool) {... */\n      swap2\n      swap1\n      pop\n      jump\t// out\n        /* \"@openzeppelin/contracts/access/AccessControl.sol\":3334:3437  function _checkRole(bytes32 role) internal view virtual {... */\n    tag_119:\n        /* \"@openzeppelin/contracts/access/AccessControl.sol\":3400:3430  _checkRole(role, _msgSender()) */\n      tag_250\n        /* \"@openzeppelin/contracts/access/AccessControl.sol\":3411:3415  role */\n      dup2\n        /* \"@openzeppelin/contracts/access/AccessControl.sol\":3417:3429  _msgSender() */\n      tag_251\n        /* \"@openzeppelin/contracts/access/AccessControl.sol\":3417:3427  _msgSender */\n      tag_125\n        /* \"@openzeppelin/contracts/access/AccessControl.sol\":3417:3429  _msgSender() */\n      jump\t// in\n    tag_251:\n        /* \"@openzeppelin/contracts/access/AccessControl.sol\":3400:3410  _checkRole */\n      tag_252\n        /* \"@openzeppelin/contracts/access/AccessControl.sol\":3400:3430  _checkRole(role, _msgSender()) */\n      jump\t// in\n    tag_250:\n        /* \"@openzeppelin/contracts/access/AccessControl.sol\":3334:3437  function _checkRole(bytes32 role) internal view virtual {... */\n      pop\n      jump\t// out\n        /* \"@openzeppelin/contracts/access/AccessControl.sol\":7244:7477  function _grantRole(bytes32 role, address account) internal virtual {... */\n    tag_122:\n        /* \"@openzeppelin/contracts/access/AccessControl.sol\":7327:7349  hasRole(role, account) */\n      tag_254\n        /* \"@openzeppelin/contracts/access/AccessControl.sol\":7335:7339  role */\n      dup3\n        /* \"@openzeppelin/contracts/access/AccessControl.sol\":7341:7348  account */\n      dup3\n        /* \"@openzeppelin/contracts/access/AccessControl.sol\":7327:7334  hasRole */\n      tag_77\n        /* \"@openzeppelin/contracts/access/AccessControl.sol\":7327:7349  hasRole(role, account) */\n      jump\t// in\n    tag_254:\n        /* \"@openzeppelin/contracts/access/AccessControl.sol\":7322:7471  if (!hasRole(role, account)) {... */\n      tag_255\n      jumpi\n        /* \"@openzeppelin/contracts/access/AccessControl.sol\":7397:7401  true */\n      0x01\n        /* \"@openzeppelin/contracts/access/AccessControl.sol\":7365:7371  _roles */\n      0x00\n        /* \"@openzeppelin/contracts/access/AccessControl.sol\":7365:7377  _roles[role] */\n      dup1\n        /* \"@openzeppelin/contracts/access/AccessControl.sol\":7372:7376  role */\n      dup5\n        /* \"@openzeppelin/contracts/access/AccessControl.sol\":7365:7377  _roles[role] */\n      dup2\n      mstore\n      0x20\n      add\n      swap1\n      dup2\n      mstore\n      0x20\n      add\n      0x00\n      keccak256\n        /* \"@openzeppelin/contracts/access/AccessControl.sol\":7365:7385  _roles[role].members */\n      0x00\n      add\n        /* \"@openzeppelin/contracts/access/AccessControl.sol\":7365:7394  _roles[role].members[account] */\n      0x00\n        /* \"@openzeppelin/contracts/access/AccessControl.sol\":7386:7393  account */\n      dup4\n        /* \"@openzeppelin/contracts/access/AccessControl.sol\":7365:7394  _roles[role].members[account] */\n      0xffffffffffffffffffffffffffffffffffffffff\n      and\n      0xffffffffffffffffffffffffffffffffffffffff\n      and\n      dup2\n      mstore\n      0x20\n      add\n      swap1\n      dup2\n      mstore\n      0x20\n      add\n      0x00\n      keccak256\n      0x00\n        /* \"@openzeppelin/contracts/access/AccessControl.sol\":7365:7401  _roles[role].members[account] = true */\n      0x0100\n      exp\n      dup2\n      sload\n      dup2\n      0xff\n      mul\n      not\n      and\n      swap1\n      dup4\n      iszero\n      iszero\n      mul\n      or\n      swap1\n      sstore\n      pop\n        /* \"@openzeppelin/contracts/access/AccessControl.sol\":7447:7459  _msgSender() */\n      tag_256\n        /* \"@openzeppelin/contracts/access/AccessControl.sol\":7447:7457  _msgSender */\n      tag_125\n        /* \"@openzeppelin/contracts/access/AccessControl.sol\":7447:7459  _msgSender() */\n      jump\t// in\n    tag_256:\n        /* \"@openzeppelin/contracts/access/AccessControl.sol\":7420:7460  RoleGranted(role, account, _msgSender()) */\n      0xffffffffffffffffffffffffffffffffffffffff\n      and\n        /* \"@openzeppelin/contracts/access/AccessControl.sol\":7438:7445  account */\n      dup2\n        /* \"@openzeppelin/contracts/access/AccessControl.sol\":7420:7460  RoleGranted(role, account, _msgSender()) */\n      0xffffffffffffffffffffffffffffffffffffffff\n      and\n        /* \"@openzeppelin/contracts/access/AccessControl.sol\":7432:7436  role */\n      dup4\n        /* \"@openzeppelin/contracts/access/AccessControl.sol\":7420:7460  RoleGranted(role, account, _msgSender()) */\n      0x2f8788117e7eff1d82e926ec794901d17c78024a50270940304540a733656f0d\n      mload(0x40)\n      mload(0x40)\n      dup1\n      swap2\n      sub\n      swap1\n      log4\n        /* \"@openzeppelin/contracts/access/AccessControl.sol\":7322:7471  if (!hasRole(role, account)) {... */\n    tag_255:\n        /* \"@openzeppelin/contracts/access/AccessControl.sol\":7244:7477  function _grantRole(bytes32 role, address account) internal virtual {... */\n      pop\n      pop\n      jump\t// out\n        /* \"@openzeppelin/contracts/utils/Context.sol\":640:736  function _msgSender() internal view virtual returns (address) {... */\n    tag_125:\n        /* \"@openzeppelin/contracts/utils/Context.sol\":693:700  address */\n      0x00\n        /* \"@openzeppelin/contracts/utils/Context.sol\":719:729  msg.sender */\n      caller\n        /* \"@openzeppelin/contracts/utils/Context.sol\":712:729  return msg.sender */\n      swap1\n      pop\n        /* \"@openzeppelin/contracts/utils/Context.sol\":640:736  function _msgSender() internal view virtual returns (address) {... */\n      swap1\n      jump\t// out\n        /* \"@openzeppelin/contracts/access/AccessControl.sol\":7602:7836  function _revokeRole(bytes32 role, address account) internal virtual {... */\n    tag_130:\n        /* \"@openzeppelin/contracts/access/AccessControl.sol\":7685:7707  hasRole(role, account) */\n      tag_259\n        /* \"@openzeppelin/contracts/access/AccessControl.sol\":7693:7697  role */\n      dup3\n        /* \"@openzeppelin/contracts/access/AccessControl.sol\":7699:7706  account */\n      dup3\n        /* \"@openzeppelin/contracts/access/AccessControl.sol\":7685:7692  hasRole */\n      tag_77\n        /* \"@openzeppelin/contracts/access/AccessControl.sol\":7685:7707  hasRole(role, account) */\n      jump\t// in\n    tag_259:\n        /* \"@openzeppelin/contracts/access/AccessControl.sol\":7681:7830  if (hasRole(role, account)) {... */\n      iszero\n      tag_260\n      jumpi\n        /* \"@openzeppelin/contracts/access/AccessControl.sol\":7755:7760  false */\n      0x00\n        /* \"@openzeppelin/contracts/access/AccessControl.sol\":7723:7729  _roles */\n      dup1\n        /* \"@openzeppelin/contracts/access/AccessControl.sol\":7723:7735  _roles[role] */\n      0x00\n        /* \"@openzeppelin/contracts/access/AccessControl.sol\":7730:7734  role */\n      dup5\n        /* \"@openzeppelin/contracts/access/AccessControl.sol\":7723:7735  _roles[role] */\n      dup2\n      mstore\n      0x20\n      add\n      swap1\n      dup2\n      mstore\n      0x20\n      add\n      0x00\n      keccak256\n        /* \"@openzeppelin/contracts/access/AccessControl.sol\":7723:7743  _roles[role].members */\n      0x00\n      add\n        /* \"@openzeppelin/contracts/access/AccessControl.sol\":7723:7752  _roles[role].members[account] */\n      0x00\n        /* \"@openzeppelin/contracts/access/AccessControl.sol\":7744:7751  account */\n      dup4\n        /* \"@openzeppelin/contracts/access/AccessControl.sol\":7723:7752  _roles[role].members[account] */\n      0xffffffffffffffffffffffffffffffffffffffff\n      and\n      0xffffffffffffffffffffffffffffffffffffffff\n      and\n      dup2\n      mstore\n      0x20\n      add\n      swap1\n      dup2\n      mstore\n      0x20\n      add\n      0x00\n      keccak256\n      0x00\n        /* \"@openzeppelin/contracts/access/AccessControl.sol\":7723:7760  _roles[role].members[account] = false */\n      0x0100\n      exp\n      dup2\n      sload\n      dup2\n      0xff\n      mul\n      not\n      and\n      swap1\n      dup4\n      iszero\n      iszero\n      mul\n      or\n      swap1\n      sstore\n      pop\n        /* \"@openzeppelin/contracts/access/AccessControl.sol\":7806:7818  _msgSender() */\n      tag_261\n        /* \"@openzeppelin/contracts/access/AccessControl.sol\":7806:7816  _msgSender */\n      tag_125\n        /* \"@openzeppelin/contracts/access/AccessControl.sol\":7806:7818  _msgSender() */\n      jump\t// in\n    tag_261:\n        /* \"@openzeppelin/contracts/access/AccessControl.sol\":7779:7819  RoleRevoked(role, account, _msgSender()) */\n      0xffffffffffffffffffffffffffffffffffffffff\n      and\n        /* \"@openzeppelin/contracts/access/AccessControl.sol\":7797:7804  account */\n      dup2\n        /* \"@openzeppelin/contracts/access/AccessControl.sol\":7779:7819  RoleRevoked(role, account, _msgSender()) */\n      0xffffffffffffffffffffffffffffffffffffffff\n      and\n        /* \"@openzeppelin/contracts/access/AccessControl.sol\":7791:7795  role */\n      dup4\n        /* \"@openzeppelin/contracts/access/AccessControl.sol\":7779:7819  RoleRevoked(role, account, _msgSender()) */\n      0xf6391f5c32d9c69d2a47ea670b442974b53935d1edc7fd64eb21e047a839171b\n      mload(0x40)\n      mload(0x40)\n      dup1\n      swap2\n      sub\n      swap1\n      log4\n        /* \"@openzeppelin/contracts/access/AccessControl.sol\":7681:7830  if (hasRole(role, account)) {... */\n    tag_260:\n        /* \"@openzeppelin/contracts/access/AccessControl.sol\":7602:7836  function _revokeRole(bytes32 role, address account) internal virtual {... */\n      pop\n      pop\n      jump\t// out\n        /* \"contracts/DiscreetLog.sol\":5128:5398  function getLatestPrice(address _feedAddress) internal view returns (int, uint) {... */\n    tag_143:\n        /* \"contracts/DiscreetLog.sol\":5197:5200  int */\n      0x00\n        /* \"contracts/DiscreetLog.sol\":5202:5206  uint */\n      dup1\n        /* \"contracts/DiscreetLog.sol\":5218:5249  AggregatorV3Interface priceFeed */\n      0x00\n        /* \"contracts/DiscreetLog.sol\":5274:5286  _feedAddress */\n      dup4\n        /* \"contracts/DiscreetLog.sol\":5218:5287  AggregatorV3Interface priceFeed = AggregatorV3Interface(_feedAddress) */\n      swap1\n      pop\n        /* \"contracts/DiscreetLog.sol\":5299:5308  int price */\n      0x00\n        /* \"contracts/DiscreetLog.sol\":5310:5324  uint timeStamp */\n      dup1\n        /* \"contracts/DiscreetLog.sol\":5329:5338  priceFeed */\n      dup3\n        /* \"contracts/DiscreetLog.sol\":5329:5354  priceFeed.latestRoundData */\n      0xffffffffffffffffffffffffffffffffffffffff\n      and\n      0xfeaf968c\n        /* \"contracts/DiscreetLog.sol\":5329:5356  priceFeed.latestRoundData() */\n      mload(0x40)\n      dup2\n      0xffffffff\n      and\n      0xe0\n      shl\n      dup2\n      mstore\n      0x04\n      add\n      0xa0\n      mload(0x40)\n      dup1\n      dup4\n      sub\n      dup2\n      dup7\n      dup1\n      extcodesize\n      iszero\n      dup1\n      iszero\n      tag_263\n      jumpi\n      0x00\n      dup1\n      revert\n    tag_263:\n      pop\n      gas\n      staticcall\n      iszero\n      dup1\n      iszero\n      tag_265\n      jumpi\n      returndatasize\n      0x00\n      dup1\n      returndatacopy\n      revert(0x00, returndatasize)\n    tag_265:\n      pop\n      pop\n      pop\n      pop\n      mload(0x40)\n      returndatasize\n      not(0x1f)\n      0x1f\n      dup3\n      add\n      and\n      dup3\n      add\n      dup1\n      0x40\n      mstore\n      pop\n      dup2\n      add\n      swap1\n      tag_266\n      swap2\n      swap1\n      tag_267\n      jump\t// in\n    tag_266:\n        /* \"contracts/DiscreetLog.sol\":5297:5356  (,int price,,uint timeStamp,) = priceFeed.latestRoundData() */\n      pop\n      swap4\n      pop\n      pop\n      swap3\n      pop\n      pop\n        /* \"contracts/DiscreetLog.sol\":5374:5379  price */\n      dup2\n        /* \"contracts/DiscreetLog.sol\":5381:5390  timeStamp */\n      dup2\n        /* \"contracts/DiscreetLog.sol\":5366:5391  return (price, timeStamp) */\n      swap5\n      pop\n      swap5\n      pop\n      pop\n      pop\n      pop\n        /* \"contracts/DiscreetLog.sol\":5128:5398  function getLatestPrice(address _feedAddress) internal view returns (int, uint) {... */\n      swap2\n      pop\n      swap2\n      jump\t// out\n        /* \"contracts/DiscreetLog.sol\":5454:5771  function removeClosedDLC(uint index) private returns(string[] memory) {... */\n    tag_145:\n        /* \"contracts/DiscreetLog.sol\":5507:5522  string[] memory */\n      0x60\n        /* \"contracts/DiscreetLog.sol\":5550:5559  openUUIDs */\n      0x01\n        /* \"contracts/DiscreetLog.sol\":5550:5566  openUUIDs.length */\n      dup1\n      sload\n      swap1\n      pop\n        /* \"contracts/DiscreetLog.sol\":5542:5547  index */\n      dup3\n        /* \"contracts/DiscreetLog.sol\":5542:5566  index < openUUIDs.length */\n      lt\n        /* \"contracts/DiscreetLog.sol\":5534:5567  require(index < openUUIDs.length) */\n      tag_269\n      jumpi\n      0x00\n      dup1\n      revert\n    tag_269:\n        /* \"contracts/DiscreetLog.sol\":5649:5658  openUUIDs */\n      0x01\n        /* \"contracts/DiscreetLog.sol\":5676:5677  1 */\n      dup1\n        /* \"contracts/DiscreetLog.sol\":5659:5668  openUUIDs */\n      dup1\n        /* \"contracts/DiscreetLog.sol\":5659:5675  openUUIDs.length */\n      dup1\n      sload\n      swap1\n      pop\n        /* \"contracts/DiscreetLog.sol\":5659:5677  openUUIDs.length-1 */\n      tag_270\n      swap2\n      swap1\n      tag_271\n      jump\t// in\n    tag_270:\n        /* \"contracts/DiscreetLog.sol\":5649:5678  openUUIDs[openUUIDs.length-1] */\n      dup2\n      sload\n      dup2\n      lt\n      tag_272\n      jumpi\n      tag_273\n      tag_173\n      jump\t// in\n    tag_273:\n    tag_272:\n      swap1\n      0x00\n      mstore\n      keccak256(0x00, 0x20)\n      add\n        /* \"contracts/DiscreetLog.sol\":5630:5639  openUUIDs */\n      0x01\n        /* \"contracts/DiscreetLog.sol\":5640:5645  index */\n      dup4\n        /* \"contracts/DiscreetLog.sol\":5630:5646  openUUIDs[index] */\n      dup2\n      sload\n      dup2\n      lt\n      tag_275\n      jumpi\n      tag_276\n      tag_173\n      jump\t// in\n    tag_276:\n    tag_275:\n      swap1\n      0x00\n      mstore\n      keccak256(0x00, 0x20)\n      add\n        /* \"contracts/DiscreetLog.sol\":5630:5678  openUUIDs[index] = openUUIDs[openUUIDs.length-1] */\n      swap1\n      dup1\n      sload\n      tag_278\n      swap1\n      tag_103\n      jump\t// in\n    tag_278:\n      tag_279\n      swap3\n      swap2\n      swap1\n      tag_280\n      jump\t// in\n    tag_279:\n      pop\n        /* \"contracts/DiscreetLog.sol\":5723:5732  openUUIDs */\n      0x01\n        /* \"contracts/DiscreetLog.sol\":5723:5738  openUUIDs.pop() */\n      dup1\n      sload\n      dup1\n      tag_281\n      jumpi\n      tag_282\n      tag_283\n      jump\t// in\n    tag_282:\n    tag_281:\n      0x01\n      swap1\n      sub\n      dup2\n      dup2\n      swap1\n      0x00\n      mstore\n      keccak256(0x00, 0x20)\n      add\n      0x00\n      tag_285\n      swap2\n      swap1\n      tag_286\n      jump\t// in\n    tag_285:\n      swap1\n      sstore\n        /* \"contracts/DiscreetLog.sol\":5755:5764  openUUIDs */\n      0x01\n        /* \"contracts/DiscreetLog.sol\":5748:5764  return openUUIDs */\n      dup1\n      sload\n      dup1\n      0x20\n      mul\n      0x20\n      add\n      mload(0x40)\n      swap1\n      dup2\n      add\n      0x40\n      mstore\n      dup1\n      swap3\n      swap2\n      swap1\n      dup2\n      dup2\n      mstore\n      0x20\n      add\n      0x00\n      swap1\n    tag_287:\n      dup3\n      dup3\n      lt\n      iszero\n      tag_288\n      jumpi\n      dup4\n      dup3\n      swap1\n      0x00\n      mstore\n      keccak256(0x00, 0x20)\n      add\n      dup1\n      sload\n      tag_290\n      swap1\n      tag_103\n      jump\t// in\n    tag_290:\n      dup1\n      0x1f\n      add\n      0x20\n      dup1\n      swap2\n      div\n      mul\n      0x20\n      add\n      mload(0x40)\n      swap1\n      dup2\n      add\n      0x40\n      mstore\n      dup1\n      swap3\n      swap2\n      swap1\n      dup2\n      dup2\n      mstore\n      0x20\n      add\n      dup3\n      dup1\n      sload\n      tag_291\n      swap1\n      tag_103\n      jump\t// in\n    tag_291:\n      dup1\n      iszero\n      tag_292\n      jumpi\n      dup1\n      0x1f\n      lt\n      tag_293\n      jumpi\n      0x0100\n      dup1\n      dup4\n      sload\n      div\n      mul\n      dup4\n      mstore\n      swap2\n      0x20\n      add\n      swap2\n      jump(tag_292)\n    tag_293:\n      dup3\n      add\n      swap2\n      swap1\n      0x00\n      mstore\n      keccak256(0x00, 0x20)\n      swap1\n    tag_294:\n      dup2\n      sload\n      dup2\n      mstore\n      swap1\n      0x01\n      add\n      swap1\n      0x20\n      add\n      dup1\n      dup4\n      gt\n      tag_294\n      jumpi\n      dup3\n      swap1\n      sub\n      0x1f\n      and\n      dup3\n      add\n      swap2\n    tag_292:\n      pop\n      pop\n      pop\n      pop\n      pop\n      dup2\n      mstore\n      0x20\n      add\n      swap1\n      0x01\n      add\n      swap1\n      jump(tag_287)\n    tag_288:\n      pop\n      pop\n      pop\n      pop\n      swap1\n      pop\n        /* \"contracts/DiscreetLog.sol\":5454:5771  function removeClosedDLC(uint index) private returns(string[] memory) {... */\n      swap2\n      swap1\n      pop\n      jump\t// out\n        /* \"contracts/DiscreetLog.sol\":5777:6162  function findIndex(string memory _UUID) private view returns (uint) {... */\n    tag_201:\n        /* \"contracts/DiscreetLog.sol\":5839:5843  uint */\n      0x00\n        /* \"contracts/DiscreetLog.sol\":5907:5913  uint i */\n      dup1\n        /* \"contracts/DiscreetLog.sol\":5916:5917  0 */\n      0x00\n        /* \"contracts/DiscreetLog.sol\":5907:5917  uint i = 0 */\n      swap1\n      pop\n        /* \"contracts/DiscreetLog.sol\":5902:6093  for (uint i = 0; i < openUUIDs.length; i++){... */\n    tag_296:\n        /* \"contracts/DiscreetLog.sol\":5923:5932  openUUIDs */\n      0x01\n        /* \"contracts/DiscreetLog.sol\":5923:5939  openUUIDs.length */\n      dup1\n      sload\n      swap1\n      pop\n        /* \"contracts/DiscreetLog.sol\":5919:5920  i */\n      dup2\n        /* \"contracts/DiscreetLog.sol\":5919:5939  i < openUUIDs.length */\n      lt\n        /* \"contracts/DiscreetLog.sol\":5902:6093  for (uint i = 0; i < openUUIDs.length; i++){... */\n      iszero\n      tag_297\n      jumpi\n        /* \"contracts/DiscreetLog.sol\":6034:6039  _UUID */\n      dup3\n        /* \"contracts/DiscreetLog.sol\":6017:6040  abi.encodePacked(_UUID) */\n      add(0x20, mload(0x40))\n      tag_299\n      swap2\n      swap1\n      tag_135\n      jump\t// in\n    tag_299:\n      mload(0x40)\n      0x20\n      dup2\n      dup4\n      sub\n      sub\n      dup2\n      mstore\n      swap1\n      0x40\n      mstore\n        /* \"contracts/DiscreetLog.sol\":6007:6041  keccak256(abi.encodePacked(_UUID)) */\n      dup1\n      mload\n      swap1\n      0x20\n      add\n      keccak256\n        /* \"contracts/DiscreetLog.sol\":5989:5998  openUUIDs */\n      0x01\n        /* \"contracts/DiscreetLog.sol\":5999:6000  i */\n      dup3\n        /* \"contracts/DiscreetLog.sol\":5989:6001  openUUIDs[i] */\n      dup2\n      sload\n      dup2\n      lt\n      tag_300\n      jumpi\n      tag_301\n      tag_173\n      jump\t// in\n    tag_301:\n    tag_300:\n      swap1\n      0x00\n      mstore\n      keccak256(0x00, 0x20)\n      add\n        /* \"contracts/DiscreetLog.sol\":5972:6002  abi.encodePacked(openUUIDs[i]) */\n      add(0x20, mload(0x40))\n      tag_303\n      swap2\n      swap1\n      tag_176\n      jump\t// in\n    tag_303:\n      mload(0x40)\n      0x20\n      dup2\n      dup4\n      sub\n      sub\n      dup2\n      mstore\n      swap1\n      0x40\n      mstore\n        /* \"contracts/DiscreetLog.sol\":5962:6003  keccak256(abi.encodePacked(openUUIDs[i])) */\n      dup1\n      mload\n      swap1\n      0x20\n      add\n      keccak256\n        /* \"contracts/DiscreetLog.sol\":5962:6041  keccak256(abi.encodePacked(openUUIDs[i])) == keccak256(abi.encodePacked(_UUID)) */\n      eq\n        /* \"contracts/DiscreetLog.sol\":5959:6083  if(keccak256(abi.encodePacked(openUUIDs[i])) == keccak256(abi.encodePacked(_UUID))){... */\n      iszero\n      tag_304\n      jumpi\n        /* \"contracts/DiscreetLog.sol\":6067:6068  i */\n      dup1\n        /* \"contracts/DiscreetLog.sol\":6060:6068  return i */\n      swap2\n      pop\n      pop\n      jump(tag_295)\n        /* \"contracts/DiscreetLog.sol\":5959:6083  if(keccak256(abi.encodePacked(openUUIDs[i])) == keccak256(abi.encodePacked(_UUID))){... */\n    tag_304:\n        /* \"contracts/DiscreetLog.sol\":5941:5944  i++ */\n      dup1\n      dup1\n      tag_305\n      swap1\n      tag_205\n      jump\t// in\n    tag_305:\n      swap2\n      pop\n      pop\n        /* \"contracts/DiscreetLog.sol\":5902:6093  for (uint i = 0; i < openUUIDs.length; i++){... */\n      jump(tag_296)\n    tag_297:\n      pop\n        /* \"contracts/DiscreetLog.sol\":6102:6121  revert(\"Not Found\") */\n      mload(0x40)\n      0x08c379a000000000000000000000000000000000000000000000000000000000\n      dup2\n      mstore\n      0x04\n      add\n      tag_306\n      swap1\n      tag_307\n      jump\t// in\n    tag_306:\n      mload(0x40)\n      dup1\n      swap2\n      sub\n      swap1\n      revert\n        /* \"contracts/DiscreetLog.sol\":5777:6162  function findIndex(string memory _UUID) private view returns (uint) {... */\n    tag_295:\n      swap2\n      swap1\n      pop\n      jump\t// out\n        /* \"@openzeppelin/contracts/access/AccessControl.sol\":3718:4210  function _checkRole(bytes32 role, address account) internal view virtual {... */\n    tag_252:\n        /* \"@openzeppelin/contracts/access/AccessControl.sol\":3806:3828  hasRole(role, account) */\n      tag_309\n        /* \"@openzeppelin/contracts/access/AccessControl.sol\":3814:3818  role */\n      dup3\n        /* \"@openzeppelin/contracts/access/AccessControl.sol\":3820:3827  account */\n      dup3\n        /* \"@openzeppelin/contracts/access/AccessControl.sol\":3806:3813  hasRole */\n      tag_77\n        /* \"@openzeppelin/contracts/access/AccessControl.sol\":3806:3828  hasRole(role, account) */\n      jump\t// in\n    tag_309:\n        /* \"@openzeppelin/contracts/access/AccessControl.sol\":3801:4204  if (!hasRole(role, account)) {... */\n      tag_310\n      jumpi\n        /* \"@openzeppelin/contracts/access/AccessControl.sol\":3989:4030  Strings.toHexString(uint160(account), 20) */\n      tag_311\n        /* \"@openzeppelin/contracts/access/AccessControl.sol\":4017:4024  account */\n      dup2\n        /* \"@openzeppelin/contracts/access/AccessControl.sol\":3989:4030  Strings.toHexString(uint160(account), 20) */\n      0xffffffffffffffffffffffffffffffffffffffff\n      and\n        /* \"@openzeppelin/contracts/access/AccessControl.sol\":4027:4029  20 */\n      0x14\n        /* \"@openzeppelin/contracts/access/AccessControl.sol\":3989:4008  Strings.toHexString */\n      tag_312\n        /* \"@openzeppelin/contracts/access/AccessControl.sol\":3989:4030  Strings.toHexString(uint160(account), 20) */\n      jump\t// in\n    tag_311:\n        /* \"@openzeppelin/contracts/access/AccessControl.sol\":4101:4139  Strings.toHexString(uint256(role), 32) */\n      tag_313\n        /* \"@openzeppelin/contracts/access/AccessControl.sol\":4129:4133  role */\n      dup4\n        /* \"@openzeppelin/contracts/access/AccessControl.sol\":4121:4134  uint256(role) */\n      0x00\n      shr\n        /* \"@openzeppelin/contracts/access/AccessControl.sol\":4136:4138  32 */\n      0x20\n        /* \"@openzeppelin/contracts/access/AccessControl.sol\":4101:4120  Strings.toHexString */\n      tag_312\n        /* \"@openzeppelin/contracts/access/AccessControl.sol\":4101:4139  Strings.toHexString(uint256(role), 32) */\n      jump\t// in\n    tag_313:\n        /* \"@openzeppelin/contracts/access/AccessControl.sol\":3896:4161  abi.encodePacked(... */\n      add(0x20, mload(0x40))\n      tag_314\n      swap3\n      swap2\n      swap1\n      tag_315\n      jump\t// in\n    tag_314:\n      mload(0x40)\n      0x20\n      dup2\n      dup4\n      sub\n      sub\n      dup2\n      mstore\n      swap1\n      0x40\n      mstore\n        /* \"@openzeppelin/contracts/access/AccessControl.sol\":3844:4193  revert(... */\n      mload(0x40)\n      0x08c379a000000000000000000000000000000000000000000000000000000000\n      dup2\n      mstore\n      0x04\n      add\n      tag_316\n      swap2\n      swap1\n      tag_46\n      jump\t// in\n    tag_316:\n      mload(0x40)\n      dup1\n      swap2\n      sub\n      swap1\n      revert\n        /* \"@openzeppelin/contracts/access/AccessControl.sol\":3801:4204  if (!hasRole(role, account)) {... */\n    tag_310:\n        /* \"@openzeppelin/contracts/access/AccessControl.sol\":3718:4210  function _checkRole(bytes32 role, address account) internal view virtual {... */\n      pop\n      pop\n      jump\t// out\n        /* \"@openzeppelin/contracts/utils/Strings.sol\":1588:2029  function toHexString(uint256 value, uint256 length) internal pure returns (string memory) {... */\n    tag_312:\n        /* \"@openzeppelin/contracts/utils/Strings.sol\":1663:1676  string memory */\n      0x60\n        /* \"@openzeppelin/contracts/utils/Strings.sol\":1688:1707  bytes memory buffer */\n      0x00\n        /* \"@openzeppelin/contracts/utils/Strings.sol\":1733:1734  2 */\n      0x02\n        /* \"@openzeppelin/contracts/utils/Strings.sol\":1724:1730  length */\n      dup4\n        /* \"@openzeppelin/contracts/utils/Strings.sol\":1720:1721  2 */\n      0x02\n        /* \"@openzeppelin/contracts/utils/Strings.sol\":1720:1730  2 * length */\n      tag_318\n      swap2\n      swap1\n      tag_319\n      jump\t// in\n    tag_318:\n        /* \"@openzeppelin/contracts/utils/Strings.sol\":1720:1734  2 * length + 2 */\n      tag_320\n      swap2\n      swap1\n      tag_321\n      jump\t// in\n    tag_320:\n        /* \"@openzeppelin/contracts/utils/Strings.sol\":1710:1735  new bytes(2 * length + 2) */\n      0xffffffffffffffff\n      dup2\n      gt\n      iszero\n      tag_322\n      jumpi\n      tag_323\n      tag_324\n      jump\t// in\n    tag_323:\n    tag_322:\n      mload(0x40)\n      swap1\n      dup1\n      dup3\n      mstore\n      dup1\n      0x1f\n      add\n      not(0x1f)\n      and\n      0x20\n      add\n      dup3\n      add\n      0x40\n      mstore\n      dup1\n      iszero\n      tag_325\n      jumpi\n      dup2\n      0x20\n      add\n      0x01\n      dup3\n      mul\n      dup1\n      calldatasize\n      dup4\n      calldatacopy\n      dup1\n      dup3\n      add\n      swap2\n      pop\n      pop\n      swap1\n      pop\n    tag_325:\n      pop\n        /* \"@openzeppelin/contracts/utils/Strings.sol\":1688:1735  bytes memory buffer = new bytes(2 * length + 2) */\n      swap1\n      pop\n        /* \"@openzeppelin/contracts/utils/Strings.sol\":1745:1760  buffer[0] = \"0\" */\n      0x3000000000000000000000000000000000000000000000000000000000000000\n        /* \"@openzeppelin/contracts/utils/Strings.sol\":1745:1751  buffer */\n      dup2\n        /* \"@openzeppelin/contracts/utils/Strings.sol\":1752:1753  0 */\n      0x00\n        /* \"@openzeppelin/contracts/utils/Strings.sol\":1745:1754  buffer[0] */\n      dup2\n      mload\n      dup2\n      lt\n      tag_326\n      jumpi\n      tag_327\n      tag_173\n      jump\t// in\n    tag_327:\n    tag_326:\n      0x20\n      add\n      add\n        /* \"@openzeppelin/contracts/utils/Strings.sol\":1745:1760  buffer[0] = \"0\" */\n      swap1\n      not(0xffffffffffffffffffffffffffffffffffffffffffffffffffffffffffffff)\n      and\n      swap1\n      dup2\n      0x00\n      byte\n      swap1\n      mstore8\n      pop\n        /* \"@openzeppelin/contracts/utils/Strings.sol\":1770:1785  buffer[1] = \"x\" */\n      0x7800000000000000000000000000000000000000000000000000000000000000\n        /* \"@openzeppelin/contracts/utils/Strings.sol\":1770:1776  buffer */\n      dup2\n        /* \"@openzeppelin/contracts/utils/Strings.sol\":1777:1778  1 */\n      0x01\n        /* \"@openzeppelin/contracts/utils/Strings.sol\":1770:1779  buffer[1] */\n      dup2\n      mload\n      dup2\n      lt\n      tag_328\n      jumpi\n      tag_329\n      tag_173\n      jump\t// in\n    tag_329:\n    tag_328:\n      0x20\n      add\n      add\n        /* \"@openzeppelin/contracts/utils/Strings.sol\":1770:1785  buffer[1] = \"x\" */\n      swap1\n      not(0xffffffffffffffffffffffffffffffffffffffffffffffffffffffffffffff)\n      and\n      swap1\n      dup2\n      0x00\n      byte\n      swap1\n      mstore8\n      pop\n        /* \"@openzeppelin/contracts/utils/Strings.sol\":1800:1809  uint256 i */\n      0x00\n        /* \"@openzeppelin/contracts/utils/Strings.sol\":1825:1826  1 */\n      0x01\n        /* \"@openzeppelin/contracts/utils/Strings.sol\":1816:1822  length */\n      dup5\n        /* \"@openzeppelin/contracts/utils/Strings.sol\":1812:1813  2 */\n      0x02\n        /* \"@openzeppelin/contracts/utils/Strings.sol\":1812:1822  2 * length */\n      tag_333\n      swap2\n      swap1\n      tag_319\n      jump\t// in\n    tag_333:\n        /* \"@openzeppelin/contracts/utils/Strings.sol\":1812:1826  2 * length + 1 */\n      tag_334\n      swap2\n      swap1\n      tag_321\n      jump\t// in\n    tag_334:\n        /* \"@openzeppelin/contracts/utils/Strings.sol\":1800:1826  uint256 i = 2 * length + 1 */\n      swap1\n      pop\n        /* \"@openzeppelin/contracts/utils/Strings.sol\":1795:1927  for (uint256 i = 2 * length + 1; i > 1; --i) {... */\n    tag_330:\n        /* \"@openzeppelin/contracts/utils/Strings.sol\":1832:1833  1 */\n      0x01\n        /* \"@openzeppelin/contracts/utils/Strings.sol\":1828:1829  i */\n      dup2\n        /* \"@openzeppelin/contracts/utils/Strings.sol\":1828:1833  i > 1 */\n      gt\n        /* \"@openzeppelin/contracts/utils/Strings.sol\":1795:1927  for (uint256 i = 2 * length + 1; i > 1; --i) {... */\n      iszero\n      tag_331\n      jumpi\n        /* \"@openzeppelin/contracts/utils/Strings.sol\":1866:1878  _HEX_SYMBOLS */\n      0x3031323334353637383961626364656600000000000000000000000000000000\n        /* \"@openzeppelin/contracts/utils/Strings.sol\":1887:1890  0xf */\n      0x0f\n        /* \"@openzeppelin/contracts/utils/Strings.sol\":1879:1884  value */\n      dup7\n        /* \"@openzeppelin/contracts/utils/Strings.sol\":1879:1890  value & 0xf */\n      and\n        /* \"@openzeppelin/contracts/utils/Strings.sol\":1866:1891  _HEX_SYMBOLS[value & 0xf] */\n      0x10\n      dup2\n      lt\n      tag_335\n      jumpi\n      tag_336\n      tag_173\n      jump\t// in\n    tag_336:\n    tag_335:\n      byte\n      0xf8\n      shl\n        /* \"@openzeppelin/contracts/utils/Strings.sol\":1854:1860  buffer */\n      dup3\n        /* \"@openzeppelin/contracts/utils/Strings.sol\":1861:1862  i */\n      dup3\n        /* \"@openzeppelin/contracts/utils/Strings.sol\":1854:1863  buffer[i] */\n      dup2\n      mload\n      dup2\n      lt\n      tag_337\n      jumpi\n      tag_338\n      tag_173\n      jump\t// in\n    tag_338:\n    tag_337:\n      0x20\n      add\n      add\n        /* \"@openzeppelin/contracts/utils/Strings.sol\":1854:1891  buffer[i] = _HEX_SYMBOLS[value & 0xf] */\n      swap1\n      not(0xffffffffffffffffffffffffffffffffffffffffffffffffffffffffffffff)\n      and\n      swap1\n      dup2\n      0x00\n      byte\n      swap1\n      mstore8\n      pop\n        /* \"@openzeppelin/contracts/utils/Strings.sol\":1915:1916  4 */\n      0x04\n        /* \"@openzeppelin/contracts/utils/Strings.sol\":1905:1916  value >>= 4 */\n      dup6\n      swap1\n      shr\n      swap5\n      pop\n        /* \"@openzeppelin/contracts/utils/Strings.sol\":1835:1838  --i */\n      dup1\n      tag_339\n      swap1\n      tag_340\n      jump\t// in\n    tag_339:\n      swap1\n      pop\n        /* \"@openzeppelin/contracts/utils/Strings.sol\":1795:1927  for (uint256 i = 2 * length + 1; i > 1; --i) {... */\n      jump(tag_330)\n    tag_331:\n      pop\n        /* \"@openzeppelin/contracts/utils/Strings.sol\":1953:1954  0 */\n      0x00\n        /* \"@openzeppelin/contracts/utils/Strings.sol\":1944:1949  value */\n      dup5\n        /* \"@openzeppelin/contracts/utils/Strings.sol\":1944:1954  value == 0 */\n      eq\n        /* \"@openzeppelin/contracts/utils/Strings.sol\":1936:1991  require(value == 0, \"Strings: hex length insufficient\") */\n      tag_341\n      jumpi\n      mload(0x40)\n      0x08c379a000000000000000000000000000000000000000000000000000000000\n      dup2\n      mstore\n      0x04\n      add\n      tag_342\n      swap1\n      tag_343\n      jump\t// in\n    tag_342:\n      mload(0x40)\n      dup1\n      swap2\n      sub\n      swap1\n      revert\n    tag_341:\n        /* \"@openzeppelin/contracts/utils/Strings.sol\":2015:2021  buffer */\n      dup1\n        /* \"@openzeppelin/contracts/utils/Strings.sol\":2001:2022  return string(buffer) */\n      swap2\n      pop\n      pop\n        /* \"@openzeppelin/contracts/utils/Strings.sol\":1588:2029  function toHexString(uint256 value, uint256 length) internal pure returns (string memory) {... */\n      swap3\n      swap2\n      pop\n      pop\n      jump\t// out\n    tag_219:\n      dup3\n      dup1\n      sload\n      tag_344\n      swap1\n      tag_103\n      jump\t// in\n    tag_344:\n      swap1\n      0x00\n      mstore\n      keccak256(0x00, 0x20)\n      swap1\n      0x1f\n      add\n      0x20\n      swap1\n      div\n      dup2\n      add\n      swap3\n      dup3\n      tag_346\n      jumpi\n      0x00\n      dup6\n      sstore\n      jump(tag_345)\n    tag_346:\n      dup3\n      0x1f\n      lt\n      tag_347\n      jumpi\n      dup1\n      mload\n      not(0xff)\n      and\n      dup4\n      dup1\n      add\n      or\n      dup6\n      sstore\n      jump(tag_345)\n    tag_347:\n      dup3\n      dup1\n      add\n      0x01\n      add\n      dup6\n      sstore\n      dup3\n      iszero\n      tag_345\n      jumpi\n      swap2\n      dup3\n      add\n    tag_348:\n      dup3\n      dup2\n      gt\n      iszero\n      tag_349\n      jumpi\n      dup3\n      mload\n      dup3\n      sstore\n      swap2\n      0x20\n      add\n      swap2\n      swap1\n      0x01\n      add\n      swap1\n      jump(tag_348)\n    tag_349:\n    tag_345:\n      pop\n      swap1\n      pop\n      tag_350\n      swap2\n      swap1\n      tag_351\n      jump\t// in\n    tag_350:\n      pop\n      swap1\n      jump\t// out\n    tag_280:\n      dup3\n      dup1\n      sload\n      tag_352\n      swap1\n      tag_103\n      jump\t// in\n    tag_352:\n      swap1\n      0x00\n      mstore\n      keccak256(0x00, 0x20)\n      swap1\n      0x1f\n      add\n      0x20\n      swap1\n      div\n      dup2\n      add\n      swap3\n      dup3\n      tag_354\n      jumpi\n      0x00\n      dup6\n      sstore\n      jump(tag_353)\n    tag_354:\n      dup3\n      0x1f\n      lt\n      tag_355\n      jumpi\n      dup1\n      sload\n      dup6\n      sstore\n      jump(tag_353)\n    tag_355:\n      dup3\n      dup1\n      add\n      0x01\n      add\n      dup6\n      sstore\n      dup3\n      iszero\n      tag_353\n      jumpi\n      0x00\n      mstore\n      keccak256(0x00, 0x20)\n      swap2\n      0x1f\n      add\n      0x20\n      swap1\n      div\n      dup3\n      add\n    tag_356:\n      dup3\n      dup2\n      gt\n      iszero\n      tag_357\n      jumpi\n      dup3\n      sload\n      dup3\n      sstore\n      swap2\n      0x01\n      add\n      swap2\n      swap1\n      0x01\n      add\n      swap1\n      jump(tag_356)\n    tag_357:\n    tag_353:\n      pop\n      swap1\n      pop\n      tag_358\n      swap2\n      swap1\n      tag_351\n      jump\t// in\n    tag_358:\n      pop\n      swap1\n      jump\t// out\n    tag_286:\n      pop\n      dup1\n      sload\n      tag_359\n      swap1\n      tag_103\n      jump\t// in\n    tag_359:\n      0x00\n      dup3\n      sstore\n      dup1\n      0x1f\n      lt\n      tag_361\n      jumpi\n      pop\n      jump(tag_360)\n    tag_361:\n      0x1f\n      add\n      0x20\n      swap1\n      div\n      swap1\n      0x00\n      mstore\n      keccak256(0x00, 0x20)\n      swap1\n      dup2\n      add\n      swap1\n      tag_362\n      swap2\n      swap1\n      tag_351\n      jump\t// in\n    tag_362:\n    tag_360:\n      pop\n      jump\t// out\n    tag_351:\n    tag_363:\n      dup1\n      dup3\n      gt\n      iszero\n      tag_364\n      jumpi\n      0x00\n      dup2\n      0x00\n      swap1\n      sstore\n      pop\n      0x01\n      add\n      jump(tag_363)\n    tag_364:\n      pop\n      swap1\n      jump\t// out\n        /* \"#utility.yul\":7:419   */\n    tag_366:\n        /* \"#utility.yul\":85:90   */\n      0x00\n        /* \"#utility.yul\":110:176   */\n      tag_368\n        /* \"#utility.yul\":126:175   */\n      tag_369\n        /* \"#utility.yul\":168:174   */\n      dup5\n        /* \"#utility.yul\":126:175   */\n      tag_370\n      jump\t// in\n    tag_369:\n        /* \"#utility.yul\":110:176   */\n      tag_371\n      jump\t// in\n    tag_368:\n        /* \"#utility.yul\":101:176   */\n      swap1\n      pop\n        /* \"#utility.yul\":199:205   */\n      dup3\n        /* \"#utility.yul\":192:197   */\n      dup2\n        /* \"#utility.yul\":185:206   */\n      mstore\n        /* \"#utility.yul\":237:241   */\n      0x20\n        /* \"#utility.yul\":230:235   */\n      dup2\n        /* \"#utility.yul\":226:242   */\n      add\n        /* \"#utility.yul\":275:278   */\n      dup5\n        /* \"#utility.yul\":266:272   */\n      dup5\n        /* \"#utility.yul\":261:264   */\n      dup5\n        /* \"#utility.yul\":257:273   */\n      add\n        /* \"#utility.yul\":254:279   */\n      gt\n        /* \"#utility.yul\":251:363   */\n      iszero\n      tag_372\n      jumpi\n        /* \"#utility.yul\":282:361   */\n      tag_373\n      tag_374\n      jump\t// in\n    tag_373:\n        /* \"#utility.yul\":251:363   */\n    tag_372:\n        /* \"#utility.yul\":372:413   */\n      tag_375\n        /* \"#utility.yul\":406:412   */\n      dup5\n        /* \"#utility.yul\":401:404   */\n      dup3\n        /* \"#utility.yul\":396:399   */\n      dup6\n        /* \"#utility.yul\":372:413   */\n      tag_376\n      jump\t// in\n    tag_375:\n        /* \"#utility.yul\":91:419   */\n      pop\n        /* \"#utility.yul\":7:419   */\n      swap4\n      swap3\n      pop\n      pop\n      pop\n      jump\t// out\n        /* \"#utility.yul\":425:564   */\n    tag_377:\n        /* \"#utility.yul\":471:476   */\n      0x00\n        /* \"#utility.yul\":509:515   */\n      dup2\n        /* \"#utility.yul\":496:516   */\n      calldataload\n        /* \"#utility.yul\":487:516   */\n      swap1\n      pop\n        /* \"#utility.yul\":525:558   */\n      tag_379\n        /* \"#utility.yul\":552:557   */\n      dup2\n        /* \"#utility.yul\":525:558   */\n      tag_380\n      jump\t// in\n    tag_379:\n        /* \"#utility.yul\":425:564   */\n      swap3\n      swap2\n      pop\n      pop\n      jump\t// out\n        /* \"#utility.yul\":570:709   */\n    tag_381:\n        /* \"#utility.yul\":616:621   */\n      0x00\n        /* \"#utility.yul\":654:660   */\n      dup2\n        /* \"#utility.yul\":641:661   */\n      calldataload\n        /* \"#utility.yul\":632:661   */\n      swap1\n      pop\n        /* \"#utility.yul\":670:703   */\n      tag_383\n        /* \"#utility.yul\":697:702   */\n      dup2\n        /* \"#utility.yul\":670:703   */\n      tag_384\n      jump\t// in\n    tag_383:\n        /* \"#utility.yul\":570:709   */\n      swap3\n      swap2\n      pop\n      pop\n      jump\t// out\n        /* \"#utility.yul\":715:852   */\n    tag_385:\n        /* \"#utility.yul\":760:765   */\n      0x00\n        /* \"#utility.yul\":798:804   */\n      dup2\n        /* \"#utility.yul\":785:805   */\n      calldataload\n        /* \"#utility.yul\":776:805   */\n      swap1\n      pop\n        /* \"#utility.yul\":814:846   */\n      tag_387\n        /* \"#utility.yul\":840:845   */\n      dup2\n        /* \"#utility.yul\":814:846   */\n      tag_388\n      jump\t// in\n    tag_387:\n        /* \"#utility.yul\":715:852   */\n      swap3\n      swap2\n      pop\n      pop\n      jump\t// out\n        /* \"#utility.yul\":871:1423   */\n    tag_389:\n        /* \"#utility.yul\":928:936   */\n      0x00\n        /* \"#utility.yul\":938:944   */\n      dup1\n        /* \"#utility.yul\":988:991   */\n      dup4\n        /* \"#utility.yul\":981:985   */\n      0x1f\n        /* \"#utility.yul\":973:979   */\n      dup5\n        /* \"#utility.yul\":969:986   */\n      add\n        /* \"#utility.yul\":965:992   */\n      slt\n        /* \"#utility.yul\":955:1077   */\n      tag_391\n      jumpi\n        /* \"#utility.yul\":996:1075   */\n      tag_392\n      tag_393\n      jump\t// in\n    tag_392:\n        /* \"#utility.yul\":955:1077   */\n    tag_391:\n        /* \"#utility.yul\":1109:1115   */\n      dup3\n        /* \"#utility.yul\":1096:1116   */\n      calldataload\n        /* \"#utility.yul\":1086:1116   */\n      swap1\n      pop\n        /* \"#utility.yul\":1139:1157   */\n      0xffffffffffffffff\n        /* \"#utility.yul\":1131:1137   */\n      dup2\n        /* \"#utility.yul\":1128:1158   */\n      gt\n        /* \"#utility.yul\":1125:1242   */\n      iszero\n      tag_394\n      jumpi\n        /* \"#utility.yul\":1161:1240   */\n      tag_395\n      tag_396\n      jump\t// in\n    tag_395:\n        /* \"#utility.yul\":1125:1242   */\n    tag_394:\n        /* \"#utility.yul\":1275:1279   */\n      0x20\n        /* \"#utility.yul\":1267:1273   */\n      dup4\n        /* \"#utility.yul\":1263:1280   */\n      add\n        /* \"#utility.yul\":1251:1280   */\n      swap2\n      pop\n        /* \"#utility.yul\":1329:1332   */\n      dup4\n        /* \"#utility.yul\":1321:1325   */\n      0x01\n        /* \"#utility.yul\":1313:1319   */\n      dup3\n        /* \"#utility.yul\":1309:1326   */\n      mul\n        /* \"#utility.yul\":1299:1307   */\n      dup4\n        /* \"#utility.yul\":1295:1327   */\n      add\n        /* \"#utility.yul\":1292:1333   */\n      gt\n        /* \"#utility.yul\":1289:1417   */\n      iszero\n      tag_397\n      jumpi\n        /* \"#utility.yul\":1336:1415   */\n      tag_398\n      tag_399\n      jump\t// in\n    tag_398:\n        /* \"#utility.yul\":1289:1417   */\n    tag_397:\n        /* \"#utility.yul\":871:1423   */\n      swap3\n      pop\n      swap3\n      swap1\n      pop\n      jump\t// out\n        /* \"#utility.yul\":1429:1570   */\n    tag_400:\n        /* \"#utility.yul\":1485:1490   */\n      0x00\n        /* \"#utility.yul\":1516:1522   */\n      dup2\n        /* \"#utility.yul\":1510:1523   */\n      mload\n        /* \"#utility.yul\":1501:1523   */\n      swap1\n      pop\n        /* \"#utility.yul\":1532:1564   */\n      tag_402\n        /* \"#utility.yul\":1558:1563   */\n      dup2\n        /* \"#utility.yul\":1532:1564   */\n      tag_403\n      jump\t// in\n    tag_402:\n        /* \"#utility.yul\":1429:1570   */\n      swap3\n      swap2\n      pop\n      pop\n      jump\t// out\n        /* \"#utility.yul\":1590:1930   */\n    tag_404:\n        /* \"#utility.yul\":1646:1651   */\n      0x00\n        /* \"#utility.yul\":1695:1698   */\n      dup3\n        /* \"#utility.yul\":1688:1692   */\n      0x1f\n        /* \"#utility.yul\":1680:1686   */\n      dup4\n        /* \"#utility.yul\":1676:1693   */\n      add\n        /* \"#utility.yul\":1672:1699   */\n      slt\n        /* \"#utility.yul\":1662:1784   */\n      tag_406\n      jumpi\n        /* \"#utility.yul\":1703:1782   */\n      tag_407\n      tag_393\n      jump\t// in\n    tag_407:\n        /* \"#utility.yul\":1662:1784   */\n    tag_406:\n        /* \"#utility.yul\":1820:1826   */\n      dup2\n        /* \"#utility.yul\":1807:1827   */\n      calldataload\n        /* \"#utility.yul\":1845:1924   */\n      tag_408\n        /* \"#utility.yul\":1920:1923   */\n      dup5\n        /* \"#utility.yul\":1912:1918   */\n      dup3\n        /* \"#utility.yul\":1905:1909   */\n      0x20\n        /* \"#utility.yul\":1897:1903   */\n      dup7\n        /* \"#utility.yul\":1893:1910   */\n      add\n        /* \"#utility.yul\":1845:1924   */\n      tag_366\n      jump\t// in\n    tag_408:\n        /* \"#utility.yul\":1836:1924   */\n      swap2\n      pop\n        /* \"#utility.yul\":1652:1930   */\n      pop\n        /* \"#utility.yul\":1590:1930   */\n      swap3\n      swap2\n      pop\n      pop\n      jump\t// out\n        /* \"#utility.yul\":1978:2730   */\n    tag_409:\n        /* \"#utility.yul\":2059:2064   */\n      0x00\n        /* \"#utility.yul\":2103:2107   */\n      0x40\n        /* \"#utility.yul\":2091:2100   */\n      dup3\n        /* \"#utility.yul\":2086:2089   */\n      dup5\n        /* \"#utility.yul\":2082:2101   */\n      sub\n        /* \"#utility.yul\":2078:2108   */\n      slt\n        /* \"#utility.yul\":2075:2192   */\n      iszero\n      tag_411\n      jumpi\n        /* \"#utility.yul\":2111:2190   */\n      tag_412\n      tag_413\n      jump\t// in\n    tag_412:\n        /* \"#utility.yul\":2075:2192   */\n    tag_411:\n        /* \"#utility.yul\":2210:2231   */\n      tag_414\n        /* \"#utility.yul\":2226:2230   */\n      0x40\n        /* \"#utility.yul\":2210:2231   */\n      tag_371\n      jump\t// in\n    tag_414:\n        /* \"#utility.yul\":2201:2231   */\n      swap1\n      pop\n        /* \"#utility.yul\":2318:2319   */\n      0x00\n        /* \"#utility.yul\":2307:2316   */\n      dup3\n        /* \"#utility.yul\":2303:2320   */\n      add\n        /* \"#utility.yul\":2290:2321   */\n      calldataload\n        /* \"#utility.yul\":2348:2366   */\n      0xffffffffffffffff\n        /* \"#utility.yul\":2340:2346   */\n      dup2\n        /* \"#utility.yul\":2337:2367   */\n      gt\n        /* \"#utility.yul\":2334:2451   */\n      iszero\n      tag_415\n      jumpi\n        /* \"#utility.yul\":2370:2449   */\n      tag_416\n      tag_417\n      jump\t// in\n    tag_416:\n        /* \"#utility.yul\":2334:2451   */\n    tag_415:\n        /* \"#utility.yul\":2490:2549   */\n      tag_418\n        /* \"#utility.yul\":2545:2548   */\n      dup5\n        /* \"#utility.yul\":2536:2542   */\n      dup3\n        /* \"#utility.yul\":2525:2534   */\n      dup6\n        /* \"#utility.yul\":2521:2543   */\n      add\n        /* \"#utility.yul\":2490:2549   */\n      tag_404\n      jump\t// in\n    tag_418:\n        /* \"#utility.yul\":2483:2487   */\n      0x00\n        /* \"#utility.yul\":2476:2481   */\n      dup4\n        /* \"#utility.yul\":2472:2488   */\n      add\n        /* \"#utility.yul\":2465:2550   */\n      mstore\n        /* \"#utility.yul\":2241:2561   */\n      pop\n        /* \"#utility.yul\":2621:2623   */\n      0x20\n        /* \"#utility.yul\":2662:2711   */\n      tag_419\n        /* \"#utility.yul\":2707:2710   */\n      dup5\n        /* \"#utility.yul\":2698:2704   */\n      dup3\n        /* \"#utility.yul\":2687:2696   */\n      dup6\n        /* \"#utility.yul\":2683:2705   */\n      add\n        /* \"#utility.yul\":2662:2711   */\n      tag_420\n      jump\t// in\n    tag_419:\n        /* \"#utility.yul\":2655:2659   */\n      0x20\n        /* \"#utility.yul\":2648:2653   */\n      dup4\n        /* \"#utility.yul\":2644:2660   */\n      add\n        /* \"#utility.yul\":2637:2712   */\n      mstore\n        /* \"#utility.yul\":2571:2723   */\n      pop\n        /* \"#utility.yul\":1978:2730   */\n      swap3\n      swap2\n      pop\n      pop\n      jump\t// out\n        /* \"#utility.yul\":2736:2875   */\n    tag_420:\n        /* \"#utility.yul\":2782:2787   */\n      0x00\n        /* \"#utility.yul\":2820:2826   */\n      dup2\n        /* \"#utility.yul\":2807:2827   */\n      calldataload\n        /* \"#utility.yul\":2798:2827   */\n      swap1\n      pop\n        /* \"#utility.yul\":2836:2869   */\n      tag_422\n        /* \"#utility.yul\":2863:2868   */\n      dup2\n        /* \"#utility.yul\":2836:2869   */\n      tag_423\n      jump\t// in\n    tag_422:\n        /* \"#utility.yul\":2736:2875   */\n      swap3\n      swap2\n      pop\n      pop\n      jump\t// out\n        /* \"#utility.yul\":2881:3024   */\n    tag_424:\n        /* \"#utility.yul\":2938:2943   */\n      0x00\n        /* \"#utility.yul\":2969:2975   */\n      dup2\n        /* \"#utility.yul\":2963:2976   */\n      mload\n        /* \"#utility.yul\":2954:2976   */\n      swap1\n      pop\n        /* \"#utility.yul\":2985:3018   */\n      tag_426\n        /* \"#utility.yul\":3012:3017   */\n      dup2\n        /* \"#utility.yul\":2985:3018   */\n      tag_423\n      jump\t// in\n    tag_426:\n        /* \"#utility.yul\":2881:3024   */\n      swap3\n      swap2\n      pop\n      pop\n      jump\t// out\n        /* \"#utility.yul\":3030:3171   */\n    tag_427:\n        /* \"#utility.yul\":3086:3091   */\n      0x00\n        /* \"#utility.yul\":3117:3123   */\n      dup2\n        /* \"#utility.yul\":3111:3124   */\n      mload\n        /* \"#utility.yul\":3102:3124   */\n      swap1\n      pop\n        /* \"#utility.yul\":3133:3165   */\n      tag_429\n        /* \"#utility.yul\":3159:3164   */\n      dup2\n        /* \"#utility.yul\":3133:3165   */\n      tag_430\n      jump\t// in\n    tag_429:\n        /* \"#utility.yul\":3030:3171   */\n      swap3\n      swap2\n      pop\n      pop\n      jump\t// out\n        /* \"#utility.yul\":3177:3796   */\n    tag_96:\n        /* \"#utility.yul\":3254:3260   */\n      0x00\n        /* \"#utility.yul\":3262:3268   */\n      dup1\n        /* \"#utility.yul\":3270:3276   */\n      0x00\n        /* \"#utility.yul\":3319:3321   */\n      0x60\n        /* \"#utility.yul\":3307:3316   */\n      dup5\n        /* \"#utility.yul\":3298:3305   */\n      dup7\n        /* \"#utility.yul\":3294:3317   */\n      sub\n        /* \"#utility.yul\":3290:3322   */\n      slt\n        /* \"#utility.yul\":3287:3406   */\n      iszero\n      tag_432\n      jumpi\n        /* \"#utility.yul\":3325:3404   */\n      tag_433\n      tag_434\n      jump\t// in\n    tag_433:\n        /* \"#utility.yul\":3287:3406   */\n    tag_432:\n        /* \"#utility.yul\":3445:3446   */\n      0x00\n        /* \"#utility.yul\":3470:3523   */\n      tag_435\n        /* \"#utility.yul\":3515:3522   */\n      dup7\n        /* \"#utility.yul\":3506:3512   */\n      dup3\n        /* \"#utility.yul\":3495:3504   */\n      dup8\n        /* \"#utility.yul\":3491:3513   */\n      add\n        /* \"#utility.yul\":3470:3523   */\n      tag_377\n      jump\t// in\n    tag_435:\n        /* \"#utility.yul\":3460:3523   */\n      swap4\n      pop\n        /* \"#utility.yul\":3416:3533   */\n      pop\n        /* \"#utility.yul\":3572:3574   */\n      0x20\n        /* \"#utility.yul\":3598:3651   */\n      tag_436\n        /* \"#utility.yul\":3643:3650   */\n      dup7\n        /* \"#utility.yul\":3634:3640   */\n      dup3\n        /* \"#utility.yul\":3623:3632   */\n      dup8\n        /* \"#utility.yul\":3619:3641   */\n      add\n        /* \"#utility.yul\":3598:3651   */\n      tag_420\n      jump\t// in\n    tag_436:\n        /* \"#utility.yul\":3588:3651   */\n      swap3\n      pop\n        /* \"#utility.yul\":3543:3661   */\n      pop\n        /* \"#utility.yul\":3700:3702   */\n      0x40\n        /* \"#utility.yul\":3726:3779   */\n      tag_437\n        /* \"#utility.yul\":3771:3778   */\n      dup7\n        /* \"#utility.yul\":3762:3768   */\n      dup3\n        /* \"#utility.yul\":3751:3760   */\n      dup8\n        /* \"#utility.yul\":3747:3769   */\n      add\n        /* \"#utility.yul\":3726:3779   */\n      tag_420\n      jump\t// in\n    tag_437:\n        /* \"#utility.yul\":3716:3779   */\n      swap2\n      pop\n        /* \"#utility.yul\":3671:3789   */\n      pop\n        /* \"#utility.yul\":3177:3796   */\n      swap3\n      pop\n      swap3\n      pop\n      swap3\n      jump\t// out\n        /* \"#utility.yul\":3802:4131   */\n    tag_37:\n        /* \"#utility.yul\":3861:3867   */\n      0x00\n        /* \"#utility.yul\":3910:3912   */\n      0x20\n        /* \"#utility.yul\":3898:3907   */\n      dup3\n        /* \"#utility.yul\":3889:3896   */\n      dup5\n        /* \"#utility.yul\":3885:3908   */\n      sub\n        /* \"#utility.yul\":3881:3913   */\n      slt\n        /* \"#utility.yul\":3878:3997   */\n      iszero\n      tag_439\n      jumpi\n        /* \"#utility.yul\":3916:3995   */\n      tag_440\n      tag_434\n      jump\t// in\n    tag_440:\n        /* \"#utility.yul\":3878:3997   */\n    tag_439:\n        /* \"#utility.yul\":4036:4037   */\n      0x00\n        /* \"#utility.yul\":4061:4114   */\n      tag_441\n        /* \"#utility.yul\":4106:4113   */\n      dup5\n        /* \"#utility.yul\":4097:4103   */\n      dup3\n        /* \"#utility.yul\":4086:4095   */\n      dup6\n        /* \"#utility.yul\":4082:4104   */\n      add\n        /* \"#utility.yul\":4061:4114   */\n      tag_381\n      jump\t// in\n    tag_441:\n        /* \"#utility.yul\":4051:4114   */\n      swap2\n      pop\n        /* \"#utility.yul\":4007:4124   */\n      pop\n        /* \"#utility.yul\":3802:4131   */\n      swap3\n      swap2\n      pop\n      pop\n      jump\t// out\n        /* \"#utility.yul\":4137:4611   */\n    tag_49:\n        /* \"#utility.yul\":4205:4211   */\n      0x00\n        /* \"#utility.yul\":4213:4219   */\n      dup1\n        /* \"#utility.yul\":4262:4264   */\n      0x40\n        /* \"#utility.yul\":4250:4259   */\n      dup4\n        /* \"#utility.yul\":4241:4248   */\n      dup6\n        /* \"#utility.yul\":4237:4260   */\n      sub\n        /* \"#utility.yul\":4233:4265   */\n      slt\n        /* \"#utility.yul\":4230:4349   */\n      iszero\n      tag_443\n      jumpi\n        /* \"#utility.yul\":4268:4347   */\n      tag_444\n      tag_434\n      jump\t// in\n    tag_444:\n        /* \"#utility.yul\":4230:4349   */\n    tag_443:\n        /* \"#utility.yul\":4388:4389   */\n      0x00\n        /* \"#utility.yul\":4413:4466   */\n      tag_445\n        /* \"#utility.yul\":4458:4465   */\n      dup6\n        /* \"#utility.yul\":4449:4455   */\n      dup3\n        /* \"#utility.yul\":4438:4447   */\n      dup7\n        /* \"#utility.yul\":4434:4456   */\n      add\n        /* \"#utility.yul\":4413:4466   */\n      tag_381\n      jump\t// in\n    tag_445:\n        /* \"#utility.yul\":4403:4466   */\n      swap3\n      pop\n        /* \"#utility.yul\":4359:4476   */\n      pop\n        /* \"#utility.yul\":4515:4517   */\n      0x20\n        /* \"#utility.yul\":4541:4594   */\n      tag_446\n        /* \"#utility.yul\":4586:4593   */\n      dup6\n        /* \"#utility.yul\":4577:4583   */\n      dup3\n        /* \"#utility.yul\":4566:4575   */\n      dup7\n        /* \"#utility.yul\":4562:4584   */\n      add\n        /* \"#utility.yul\":4541:4594   */\n      tag_377\n      jump\t// in\n    tag_446:\n        /* \"#utility.yul\":4531:4594   */\n      swap2\n      pop\n        /* \"#utility.yul\":4486:4604   */\n      pop\n        /* \"#utility.yul\":4137:4611   */\n      swap3\n      pop\n      swap3\n      swap1\n      pop\n      jump\t// out\n        /* \"#utility.yul\":4617:4944   */\n    tag_25:\n        /* \"#utility.yul\":4675:4681   */\n      0x00\n        /* \"#utility.yul\":4724:4726   */\n      0x20\n        /* \"#utility.yul\":4712:4721   */\n      dup3\n        /* \"#utility.yul\":4703:4710   */\n      dup5\n        /* \"#utility.yul\":4699:4722   */\n      sub\n        /* \"#utility.yul\":4695:4727   */\n      slt\n        /* \"#utility.yul\":4692:4811   */\n      iszero\n      tag_448\n      jumpi\n        /* \"#utility.yul\":4730:4809   */\n      tag_449\n      tag_434\n      jump\t// in\n    tag_449:\n        /* \"#utility.yul\":4692:4811   */\n    tag_448:\n        /* \"#utility.yul\":4850:4851   */\n      0x00\n        /* \"#utility.yul\":4875:4927   */\n      tag_450\n        /* \"#utility.yul\":4919:4926   */\n      dup5\n        /* \"#utility.yul\":4910:4916   */\n      dup3\n        /* \"#utility.yul\":4899:4908   */\n      dup6\n        /* \"#utility.yul\":4895:4917   */\n      add\n        /* \"#utility.yul\":4875:4927   */\n      tag_385\n      jump\t// in\n    tag_450:\n        /* \"#utility.yul\":4865:4927   */\n      swap2\n      pop\n        /* \"#utility.yul\":4821:4937   */\n      pop\n        /* \"#utility.yul\":4617:4944   */\n      swap3\n      swap2\n      pop\n      pop\n      jump\t// out\n        /* \"#utility.yul\":4950:5477   */\n    tag_56:\n        /* \"#utility.yul\":5020:5026   */\n      0x00\n        /* \"#utility.yul\":5028:5034   */\n      dup1\n        /* \"#utility.yul\":5077:5079   */\n      0x20\n        /* \"#utility.yul\":5065:5074   */\n      dup4\n        /* \"#utility.yul\":5056:5063   */\n      dup6\n        /* \"#utility.yul\":5052:5075   */\n      sub\n        /* \"#utility.yul\":5048:5080   */\n      slt\n        /* \"#utility.yul\":5045:5164   */\n      iszero\n      tag_452\n      jumpi\n        /* \"#utility.yul\":5083:5162   */\n      tag_453\n      tag_434\n      jump\t// in\n    tag_453:\n        /* \"#utility.yul\":5045:5164   */\n    tag_452:\n        /* \"#utility.yul\":5231:5232   */\n      0x00\n        /* \"#utility.yul\":5220:5229   */\n      dup4\n        /* \"#utility.yul\":5216:5233   */\n      add\n        /* \"#utility.yul\":5203:5234   */\n      calldataload\n        /* \"#utility.yul\":5261:5279   */\n      0xffffffffffffffff\n        /* \"#utility.yul\":5253:5259   */\n      dup2\n        /* \"#utility.yul\":5250:5280   */\n      gt\n        /* \"#utility.yul\":5247:5364   */\n      iszero\n      tag_454\n      jumpi\n        /* \"#utility.yul\":5283:5362   */\n      tag_455\n      tag_456\n      jump\t// in\n    tag_455:\n        /* \"#utility.yul\":5247:5364   */\n    tag_454:\n        /* \"#utility.yul\":5396:5460   */\n      tag_457\n        /* \"#utility.yul\":5452:5459   */\n      dup6\n        /* \"#utility.yul\":5443:5449   */\n      dup3\n        /* \"#utility.yul\":5432:5441   */\n      dup7\n        /* \"#utility.yul\":5428:5450   */\n      add\n        /* \"#utility.yul\":5396:5460   */\n      tag_389\n      jump\t// in\n    tag_457:\n        /* \"#utility.yul\":5378:5460   */\n      swap3\n      pop\n      swap3\n      pop\n        /* \"#utility.yul\":5174:5470   */\n      pop\n        /* \"#utility.yul\":4950:5477   */\n      swap3\n      pop\n      swap3\n      swap1\n      pop\n      jump\t// out\n        /* \"#utility.yul\":5483:5992   */\n    tag_31:\n        /* \"#utility.yul\":5552:5558   */\n      0x00\n        /* \"#utility.yul\":5601:5603   */\n      0x20\n        /* \"#utility.yul\":5589:5598   */\n      dup3\n        /* \"#utility.yul\":5580:5587   */\n      dup5\n        /* \"#utility.yul\":5576:5599   */\n      sub\n        /* \"#utility.yul\":5572:5604   */\n      slt\n        /* \"#utility.yul\":5569:5688   */\n      iszero\n      tag_459\n      jumpi\n        /* \"#utility.yul\":5607:5686   */\n      tag_460\n      tag_434\n      jump\t// in\n    tag_460:\n        /* \"#utility.yul\":5569:5688   */\n    tag_459:\n        /* \"#utility.yul\":5755:5756   */\n      0x00\n        /* \"#utility.yul\":5744:5753   */\n      dup3\n        /* \"#utility.yul\":5740:5757   */\n      add\n        /* \"#utility.yul\":5727:5758   */\n      calldataload\n        /* \"#utility.yul\":5785:5803   */\n      0xffffffffffffffff\n        /* \"#utility.yul\":5777:5783   */\n      dup2\n        /* \"#utility.yul\":5774:5804   */\n      gt\n        /* \"#utility.yul\":5771:5888   */\n      iszero\n      tag_461\n      jumpi\n        /* \"#utility.yul\":5807:5886   */\n      tag_462\n      tag_456\n      jump\t// in\n    tag_462:\n        /* \"#utility.yul\":5771:5888   */\n    tag_461:\n        /* \"#utility.yul\":5912:5975   */\n      tag_463\n        /* \"#utility.yul\":5967:5974   */\n      dup5\n        /* \"#utility.yul\":5958:5964   */\n      dup3\n        /* \"#utility.yul\":5947:5956   */\n      dup6\n        /* \"#utility.yul\":5943:5965   */\n      add\n        /* \"#utility.yul\":5912:5975   */\n      tag_404\n      jump\t// in\n    tag_463:\n        /* \"#utility.yul\":5902:5975   */\n      swap2\n      pop\n        /* \"#utility.yul\":5698:5985   */\n      pop\n        /* \"#utility.yul\":5483:5992   */\n      swap3\n      swap2\n      pop\n      pop\n      jump\t// out\n        /* \"#utility.yul\":5998:6943   */\n    tag_81:\n        /* \"#utility.yul\":6094:6100   */\n      0x00\n        /* \"#utility.yul\":6102:6108   */\n      dup1\n        /* \"#utility.yul\":6110:6116   */\n      0x00\n        /* \"#utility.yul\":6118:6124   */\n      dup1\n        /* \"#utility.yul\":6167:6170   */\n      0x80\n        /* \"#utility.yul\":6155:6164   */\n      dup6\n        /* \"#utility.yul\":6146:6153   */\n      dup8\n        /* \"#utility.yul\":6142:6165   */\n      sub\n        /* \"#utility.yul\":6138:6171   */\n      slt\n        /* \"#utility.yul\":6135:6255   */\n      iszero\n      tag_465\n      jumpi\n        /* \"#utility.yul\":6174:6253   */\n      tag_466\n      tag_434\n      jump\t// in\n    tag_466:\n        /* \"#utility.yul\":6135:6255   */\n    tag_465:\n        /* \"#utility.yul\":6322:6323   */\n      0x00\n        /* \"#utility.yul\":6311:6320   */\n      dup6\n        /* \"#utility.yul\":6307:6324   */\n      add\n        /* \"#utility.yul\":6294:6325   */\n      calldataload\n        /* \"#utility.yul\":6352:6370   */\n      0xffffffffffffffff\n        /* \"#utility.yul\":6344:6350   */\n      dup2\n        /* \"#utility.yul\":6341:6371   */\n      gt\n        /* \"#utility.yul\":6338:6455   */\n      iszero\n      tag_467\n      jumpi\n        /* \"#utility.yul\":6374:6453   */\n      tag_468\n      tag_456\n      jump\t// in\n    tag_468:\n        /* \"#utility.yul\":6338:6455   */\n    tag_467:\n        /* \"#utility.yul\":6479:6542   */\n      tag_469\n        /* \"#utility.yul\":6534:6541   */\n      dup8\n        /* \"#utility.yul\":6525:6531   */\n      dup3\n        /* \"#utility.yul\":6514:6523   */\n      dup9\n        /* \"#utility.yul\":6510:6532   */\n      add\n        /* \"#utility.yul\":6479:6542   */\n      tag_404\n      jump\t// in\n    tag_469:\n        /* \"#utility.yul\":6469:6542   */\n      swap5\n      pop\n        /* \"#utility.yul\":6265:6552   */\n      pop\n        /* \"#utility.yul\":6591:6593   */\n      0x20\n        /* \"#utility.yul\":6617:6670   */\n      tag_470\n        /* \"#utility.yul\":6662:6669   */\n      dup8\n        /* \"#utility.yul\":6653:6659   */\n      dup3\n        /* \"#utility.yul\":6642:6651   */\n      dup9\n        /* \"#utility.yul\":6638:6660   */\n      add\n        /* \"#utility.yul\":6617:6670   */\n      tag_377\n      jump\t// in\n    tag_470:\n        /* \"#utility.yul\":6607:6670   */\n      swap4\n      pop\n        /* \"#utility.yul\":6562:6680   */\n      pop\n        /* \"#utility.yul\":6719:6721   */\n      0x40\n        /* \"#utility.yul\":6745:6798   */\n      tag_471\n        /* \"#utility.yul\":6790:6797   */\n      dup8\n        /* \"#utility.yul\":6781:6787   */\n      dup3\n        /* \"#utility.yul\":6770:6779   */\n      dup9\n        /* \"#utility.yul\":6766:6788   */\n      add\n        /* \"#utility.yul\":6745:6798   */\n      tag_420\n      jump\t// in\n    tag_471:\n        /* \"#utility.yul\":6735:6798   */\n      swap3\n      pop\n        /* \"#utility.yul\":6690:6808   */\n      pop\n        /* \"#utility.yul\":6847:6849   */\n      0x60\n        /* \"#utility.yul\":6873:6926   */\n      tag_472\n        /* \"#utility.yul\":6918:6925   */\n      dup8\n        /* \"#utility.yul\":6909:6915   */\n      dup3\n        /* \"#utility.yul\":6898:6907   */\n      dup9\n        /* \"#utility.yul\":6894:6916   */\n      add\n        /* \"#utility.yul\":6873:6926   */\n      tag_420\n      jump\t// in\n    tag_472:\n        /* \"#utility.yul\":6863:6926   */\n      swap2\n      pop\n        /* \"#utility.yul\":6818:6936   */\n      pop\n        /* \"#utility.yul\":5998:6943   */\n      swap3\n      swap6\n      swap2\n      swap5\n      pop\n      swap3\n      pop\n      jump\t// out\n        /* \"#utility.yul\":6949:7502   */\n    tag_133:\n        /* \"#utility.yul\":7040:7046   */\n      0x00\n        /* \"#utility.yul\":7089:7091   */\n      0x20\n        /* \"#utility.yul\":7077:7086   */\n      dup3\n        /* \"#utility.yul\":7068:7075   */\n      dup5\n        /* \"#utility.yul\":7064:7087   */\n      sub\n        /* \"#utility.yul\":7060:7092   */\n      slt\n        /* \"#utility.yul\":7057:7176   */\n      iszero\n      tag_474\n      jumpi\n        /* \"#utility.yul\":7095:7174   */\n      tag_475\n      tag_434\n      jump\t// in\n    tag_475:\n        /* \"#utility.yul\":7057:7176   */\n    tag_474:\n        /* \"#utility.yul\":7243:7244   */\n      0x00\n        /* \"#utility.yul\":7232:7241   */\n      dup3\n        /* \"#utility.yul\":7228:7245   */\n      add\n        /* \"#utility.yul\":7215:7246   */\n      calldataload\n        /* \"#utility.yul\":7273:7291   */\n      0xffffffffffffffff\n        /* \"#utility.yul\":7265:7271   */\n      dup2\n        /* \"#utility.yul\":7262:7292   */\n      gt\n        /* \"#utility.yul\":7259:7376   */\n      iszero\n      tag_476\n      jumpi\n        /* \"#utility.yul\":7295:7374   */\n      tag_477\n      tag_456\n      jump\t// in\n    tag_477:\n        /* \"#utility.yul\":7259:7376   */\n    tag_476:\n        /* \"#utility.yul\":7400:7485   */\n      tag_478\n        /* \"#utility.yul\":7477:7484   */\n      dup5\n        /* \"#utility.yul\":7468:7474   */\n      dup3\n        /* \"#utility.yul\":7457:7466   */\n      dup6\n        /* \"#utility.yul\":7453:7475   */\n      add\n        /* \"#utility.yul\":7400:7485   */\n      tag_409\n      jump\t// in\n    tag_478:\n        /* \"#utility.yul\":7390:7485   */\n      swap2\n      pop\n        /* \"#utility.yul\":7186:7495   */\n      pop\n        /* \"#utility.yul\":6949:7502   */\n      swap3\n      swap2\n      pop\n      pop\n      jump\t// out\n        /* \"#utility.yul\":7508:7837   */\n    tag_43:\n        /* \"#utility.yul\":7567:7573   */\n      0x00\n        /* \"#utility.yul\":7616:7618   */\n      0x20\n        /* \"#utility.yul\":7604:7613   */\n      dup3\n        /* \"#utility.yul\":7595:7602   */\n      dup5\n        /* \"#utility.yul\":7591:7614   */\n      sub\n        /* \"#utility.yul\":7587:7619   */\n      slt\n        /* \"#utility.yul\":7584:7703   */\n      iszero\n      tag_480\n      jumpi\n        /* \"#utility.yul\":7622:7701   */\n      tag_481\n      tag_434\n      jump\t// in\n    tag_481:\n        /* \"#utility.yul\":7584:7703   */\n    tag_480:\n        /* \"#utility.yul\":7742:7743   */\n      0x00\n        /* \"#utility.yul\":7767:7820   */\n      tag_482\n        /* \"#utility.yul\":7812:7819   */\n      dup5\n        /* \"#utility.yul\":7803:7809   */\n      dup3\n        /* \"#utility.yul\":7792:7801   */\n      dup6\n        /* \"#utility.yul\":7788:7810   */\n      add\n        /* \"#utility.yul\":7767:7820   */\n      tag_420\n      jump\t// in\n    tag_482:\n        /* \"#utility.yul\":7757:7820   */\n      swap2\n      pop\n        /* \"#utility.yul\":7713:7830   */\n      pop\n        /* \"#utility.yul\":7508:7837   */\n      swap3\n      swap2\n      pop\n      pop\n      jump\t// out\n        /* \"#utility.yul\":7843:8814   */\n    tag_267:\n        /* \"#utility.yul\":7946:7952   */\n      0x00\n        /* \"#utility.yul\":7954:7960   */\n      dup1\n        /* \"#utility.yul\":7962:7968   */\n      0x00\n        /* \"#utility.yul\":7970:7976   */\n      dup1\n        /* \"#utility.yul\":7978:7984   */\n      0x00\n        /* \"#utility.yul\":8027:8030   */\n      0xa0\n        /* \"#utility.yul\":8015:8024   */\n      dup7\n        /* \"#utility.yul\":8006:8013   */\n      dup9\n        /* \"#utility.yul\":8002:8025   */\n      sub\n        /* \"#utility.yul\":7998:8031   */\n      slt\n        /* \"#utility.yul\":7995:8115   */\n      iszero\n      tag_484\n      jumpi\n        /* \"#utility.yul\":8034:8113   */\n      tag_485\n      tag_434\n      jump\t// in\n    tag_485:\n        /* \"#utility.yul\":7995:8115   */\n    tag_484:\n        /* \"#utility.yul\":8154:8155   */\n      0x00\n        /* \"#utility.yul\":8179:8242   */\n      tag_486\n        /* \"#utility.yul\":8234:8241   */\n      dup9\n        /* \"#utility.yul\":8225:8231   */\n      dup3\n        /* \"#utility.yul\":8214:8223   */\n      dup10\n        /* \"#utility.yul\":8210:8232   */\n      add\n        /* \"#utility.yul\":8179:8242   */\n      tag_427\n      jump\t// in\n    tag_486:\n        /* \"#utility.yul\":8169:8242   */\n      swap6\n      pop\n        /* \"#utility.yul\":8125:8252   */\n      pop\n        /* \"#utility.yul\":8291:8293   */\n      0x20\n        /* \"#utility.yul\":8317:8380   */\n      tag_487\n        /* \"#utility.yul\":8372:8379   */\n      dup9\n        /* \"#utility.yul\":8363:8369   */\n      dup3\n        /* \"#utility.yul\":8352:8361   */\n      dup10\n        /* \"#utility.yul\":8348:8370   */\n      add\n        /* \"#utility.yul\":8317:8380   */\n      tag_400\n      jump\t// in\n    tag_487:\n        /* \"#utility.yul\":8307:8380   */\n      swap5\n      pop\n        /* \"#utility.yul\":8262:8390   */\n      pop\n        /* \"#utility.yul\":8429:8431   */\n      0x40\n        /* \"#utility.yul\":8455:8519   */\n      tag_488\n        /* \"#utility.yul\":8511:8518   */\n      dup9\n        /* \"#utility.yul\":8502:8508   */\n      dup3\n        /* \"#utility.yul\":8491:8500   */\n      dup10\n        /* \"#utility.yul\":8487:8509   */\n      add\n        /* \"#utility.yul\":8455:8519   */\n      tag_424\n      jump\t// in\n    tag_488:\n        /* \"#utility.yul\":8445:8519   */\n      swap4\n      pop\n        /* \"#utility.yul\":8400:8529   */\n      pop\n        /* \"#utility.yul\":8568:8570   */\n      0x60\n        /* \"#utility.yul\":8594:8658   */\n      tag_489\n        /* \"#utility.yul\":8650:8657   */\n      dup9\n        /* \"#utility.yul\":8641:8647   */\n      dup3\n        /* \"#utility.yul\":8630:8639   */\n      dup10\n        /* \"#utility.yul\":8626:8648   */\n      add\n        /* \"#utility.yul\":8594:8658   */\n      tag_424\n      jump\t// in\n    tag_489:\n        /* \"#utility.yul\":8584:8658   */\n      swap3\n      pop\n        /* \"#utility.yul\":8539:8668   */\n      pop\n        /* \"#utility.yul\":8707:8710   */\n      0x80\n        /* \"#utility.yul\":8734:8797   */\n      tag_490\n        /* \"#utility.yul\":8789:8796   */\n      dup9\n        /* \"#utility.yul\":8780:8786   */\n      dup3\n        /* \"#utility.yul\":8769:8778   */\n      dup10\n        /* \"#utility.yul\":8765:8787   */\n      add\n        /* \"#utility.yul\":8734:8797   */\n      tag_427\n      jump\t// in\n    tag_490:\n        /* \"#utility.yul\":8724:8797   */\n      swap2\n      pop\n        /* \"#utility.yul\":8678:8807   */\n      pop\n        /* \"#utility.yul\":7843:8814   */\n      swap3\n      swap6\n      pop\n      swap3\n      swap6\n      swap1\n      swap4\n      pop\n      jump\t// out\n        /* \"#utility.yul\":8820:9016   */\n    tag_491:\n        /* \"#utility.yul\":8909:8919   */\n      0x00\n        /* \"#utility.yul\":8944:9010   */\n      tag_493\n        /* \"#utility.yul\":9006:9009   */\n      dup4\n        /* \"#utility.yul\":8998:9004   */\n      dup4\n        /* \"#utility.yul\":8944:9010   */\n      tag_494\n      jump\t// in\n    tag_493:\n        /* \"#utility.yul\":8930:9010   */\n      swap1\n      pop\n        /* \"#utility.yul\":8820:9016   */\n      swap3\n      swap2\n      pop\n      pop\n      jump\t// out\n        /* \"#utility.yul\":9022:9140   */\n    tag_495:\n        /* \"#utility.yul\":9109:9133   */\n      tag_497\n        /* \"#utility.yul\":9127:9132   */\n      dup2\n        /* \"#utility.yul\":9109:9133   */\n      tag_498\n      jump\t// in\n    tag_497:\n        /* \"#utility.yul\":9104:9107   */\n      dup3\n        /* \"#utility.yul\":9097:9134   */\n      mstore\n        /* \"#utility.yul\":9022:9140   */\n      pop\n      pop\n      jump\t// out\n        /* \"#utility.yul\":9174:10165   */\n    tag_499:\n        /* \"#utility.yul\":9313:9316   */\n      0x00\n        /* \"#utility.yul\":9342:9406   */\n      tag_501\n        /* \"#utility.yul\":9400:9405   */\n      dup3\n        /* \"#utility.yul\":9342:9406   */\n      tag_502\n      jump\t// in\n    tag_501:\n        /* \"#utility.yul\":9422:9518   */\n      tag_503\n        /* \"#utility.yul\":9511:9517   */\n      dup2\n        /* \"#utility.yul\":9506:9509   */\n      dup6\n        /* \"#utility.yul\":9422:9518   */\n      tag_504\n      jump\t// in\n    tag_503:\n        /* \"#utility.yul\":9415:9518   */\n      swap4\n      pop\n        /* \"#utility.yul\":9544:9547   */\n      dup4\n        /* \"#utility.yul\":9589:9593   */\n      0x20\n        /* \"#utility.yul\":9581:9587   */\n      dup3\n        /* \"#utility.yul\":9577:9594   */\n      mul\n        /* \"#utility.yul\":9572:9575   */\n      dup6\n        /* \"#utility.yul\":9568:9595   */\n      add\n        /* \"#utility.yul\":9619:9685   */\n      tag_505\n        /* \"#utility.yul\":9679:9684   */\n      dup6\n        /* \"#utility.yul\":9619:9685   */\n      tag_506\n      jump\t// in\n    tag_505:\n        /* \"#utility.yul\":9708:9715   */\n      dup1\n        /* \"#utility.yul\":9739:9740   */\n      0x00\n        /* \"#utility.yul\":9724:10120   */\n    tag_507:\n        /* \"#utility.yul\":9749:9755   */\n      dup6\n        /* \"#utility.yul\":9746:9747   */\n      dup2\n        /* \"#utility.yul\":9743:9756   */\n      lt\n        /* \"#utility.yul\":9724:10120   */\n      iszero\n      tag_509\n      jumpi\n        /* \"#utility.yul\":9820:9829   */\n      dup5\n        /* \"#utility.yul\":9814:9818   */\n      dup5\n        /* \"#utility.yul\":9810:9830   */\n      sub\n        /* \"#utility.yul\":9805:9808   */\n      dup10\n        /* \"#utility.yul\":9798:9831   */\n      mstore\n        /* \"#utility.yul\":9871:9877   */\n      dup2\n        /* \"#utility.yul\":9865:9878   */\n      mload\n        /* \"#utility.yul\":9899:9983   */\n      tag_510\n        /* \"#utility.yul\":9978:9982   */\n      dup6\n        /* \"#utility.yul\":9963:9976   */\n      dup3\n        /* \"#utility.yul\":9899:9983   */\n      tag_491\n      jump\t// in\n    tag_510:\n        /* \"#utility.yul\":9891:9983   */\n      swap5\n      pop\n        /* \"#utility.yul\":10006:10076   */\n      tag_511\n        /* \"#utility.yul\":10069:10075   */\n      dup4\n        /* \"#utility.yul\":10006:10076   */\n      tag_512\n      jump\t// in\n    tag_511:\n        /* \"#utility.yul\":9996:10076   */\n      swap3\n      pop\n        /* \"#utility.yul\":10105:10109   */\n      0x20\n        /* \"#utility.yul\":10100:10103   */\n      dup11\n        /* \"#utility.yul\":10096:10110   */\n      add\n        /* \"#utility.yul\":10089:10110   */\n      swap10\n      pop\n        /* \"#utility.yul\":9784:10120   */\n      pop\n        /* \"#utility.yul\":9771:9772   */\n      0x01\n        /* \"#utility.yul\":9768:9769   */\n      dup2\n        /* \"#utility.yul\":9764:9773   */\n      add\n        /* \"#utility.yul\":9759:9773   */\n      swap1\n      pop\n        /* \"#utility.yul\":9724:10120   */\n      jump(tag_507)\n    tag_509:\n        /* \"#utility.yul\":9728:9742   */\n      pop\n        /* \"#utility.yul\":10136:10140   */\n      dup3\n        /* \"#utility.yul\":10129:10140   */\n      swap8\n      pop\n        /* \"#utility.yul\":10156:10159   */\n      dup8\n        /* \"#utility.yul\":10149:10159   */\n      swap6\n      pop\n        /* \"#utility.yul\":9318:10165   */\n      pop\n      pop\n      pop\n      pop\n      pop\n        /* \"#utility.yul\":9174:10165   */\n      swap3\n      swap2\n      pop\n      pop\n      jump\t// out\n        /* \"#utility.yul\":10171:10280   */\n    tag_513:\n        /* \"#utility.yul\":10252:10273   */\n      tag_515\n        /* \"#utility.yul\":10267:10272   */\n      dup2\n        /* \"#utility.yul\":10252:10273   */\n      tag_516\n      jump\t// in\n    tag_515:\n        /* \"#utility.yul\":10247:10250   */\n      dup3\n        /* \"#utility.yul\":10240:10274   */\n      mstore\n        /* \"#utility.yul\":10171:10280   */\n      pop\n      pop\n      jump\t// out\n        /* \"#utility.yul\":10286:10404   */\n    tag_517:\n        /* \"#utility.yul\":10373:10397   */\n      tag_519\n        /* \"#utility.yul\":10391:10396   */\n      dup2\n        /* \"#utility.yul\":10373:10397   */\n      tag_520\n      jump\t// in\n    tag_519:\n        /* \"#utility.yul\":10368:10371   */\n      dup3\n        /* \"#utility.yul\":10361:10398   */\n      mstore\n        /* \"#utility.yul\":10286:10404   */\n      pop\n      pop\n      jump\t// out\n        /* \"#utility.yul\":10410:10770   */\n    tag_521:\n        /* \"#utility.yul\":10496:10499   */\n      0x00\n        /* \"#utility.yul\":10524:10562   */\n      tag_523\n        /* \"#utility.yul\":10556:10561   */\n      dup3\n        /* \"#utility.yul\":10524:10562   */\n      tag_524\n      jump\t// in\n    tag_523:\n        /* \"#utility.yul\":10578:10648   */\n      tag_525\n        /* \"#utility.yul\":10641:10647   */\n      dup2\n        /* \"#utility.yul\":10636:10639   */\n      dup6\n        /* \"#utility.yul\":10578:10648   */\n      tag_526\n      jump\t// in\n    tag_525:\n        /* \"#utility.yul\":10571:10648   */\n      swap4\n      pop\n        /* \"#utility.yul\":10657:10709   */\n      tag_527\n        /* \"#utility.yul\":10702:10708   */\n      dup2\n        /* \"#utility.yul\":10697:10700   */\n      dup6\n        /* \"#utility.yul\":10690:10694   */\n      0x20\n        /* \"#utility.yul\":10683:10688   */\n      dup7\n        /* \"#utility.yul\":10679:10695   */\n      add\n        /* \"#utility.yul\":10657:10709   */\n      tag_528\n      jump\t// in\n    tag_527:\n        /* \"#utility.yul\":10734:10763   */\n      tag_529\n        /* \"#utility.yul\":10756:10762   */\n      dup2\n        /* \"#utility.yul\":10734:10763   */\n      tag_530\n      jump\t// in\n    tag_529:\n        /* \"#utility.yul\":10729:10732   */\n      dup5\n        /* \"#utility.yul\":10725:10764   */\n      add\n        /* \"#utility.yul\":10718:10764   */\n      swap2\n      pop\n        /* \"#utility.yul\":10500:10770   */\n      pop\n        /* \"#utility.yul\":10410:10770   */\n      swap3\n      swap2\n      pop\n      pop\n      jump\t// out\n        /* \"#utility.yul\":10776:10891   */\n    tag_531:\n        /* \"#utility.yul\":10861:10884   */\n      tag_533\n        /* \"#utility.yul\":10878:10883   */\n      dup2\n        /* \"#utility.yul\":10861:10884   */\n      tag_534\n      jump\t// in\n    tag_533:\n        /* \"#utility.yul\":10856:10859   */\n      dup3\n        /* \"#utility.yul\":10849:10885   */\n      mstore\n        /* \"#utility.yul\":10776:10891   */\n      pop\n      pop\n      jump\t// out\n        /* \"#utility.yul\":10897:11241   */\n    tag_494:\n        /* \"#utility.yul\":10975:10978   */\n      0x00\n        /* \"#utility.yul\":11003:11042   */\n      tag_536\n        /* \"#utility.yul\":11036:11041   */\n      dup3\n        /* \"#utility.yul\":11003:11042   */\n      tag_537\n      jump\t// in\n    tag_536:\n        /* \"#utility.yul\":11058:11119   */\n      tag_538\n        /* \"#utility.yul\":11112:11118   */\n      dup2\n        /* \"#utility.yul\":11107:11110   */\n      dup6\n        /* \"#utility.yul\":11058:11119   */\n      tag_539\n      jump\t// in\n    tag_538:\n        /* \"#utility.yul\":11051:11119   */\n      swap4\n      pop\n        /* \"#utility.yul\":11128:11180   */\n      tag_540\n        /* \"#utility.yul\":11173:11179   */\n      dup2\n        /* \"#utility.yul\":11168:11171   */\n      dup6\n        /* \"#utility.yul\":11161:11165   */\n      0x20\n        /* \"#utility.yul\":11154:11159   */\n      dup7\n        /* \"#utility.yul\":11150:11166   */\n      add\n        /* \"#utility.yul\":11128:11180   */\n      tag_528\n      jump\t// in\n    tag_540:\n        /* \"#utility.yul\":11205:11234   */\n      tag_541\n        /* \"#utility.yul\":11227:11233   */\n      dup2\n        /* \"#utility.yul\":11205:11234   */\n      tag_530\n      jump\t// in\n    tag_541:\n        /* \"#utility.yul\":11200:11203   */\n      dup5\n        /* \"#utility.yul\":11196:11235   */\n      add\n        /* \"#utility.yul\":11189:11235   */\n      swap2\n      pop\n        /* \"#utility.yul\":10979:11241   */\n      pop\n        /* \"#utility.yul\":10897:11241   */\n      swap3\n      swap2\n      pop\n      pop\n      jump\t// out\n        /* \"#utility.yul\":11247:11611   */\n    tag_542:\n        /* \"#utility.yul\":11335:11338   */\n      0x00\n        /* \"#utility.yul\":11363:11402   */\n      tag_544\n        /* \"#utility.yul\":11396:11401   */\n      dup3\n        /* \"#utility.yul\":11363:11402   */\n      tag_537\n      jump\t// in\n    tag_544:\n        /* \"#utility.yul\":11418:11489   */\n      tag_545\n        /* \"#utility.yul\":11482:11488   */\n      dup2\n        /* \"#utility.yul\":11477:11480   */\n      dup6\n        /* \"#utility.yul\":11418:11489   */\n      tag_546\n      jump\t// in\n    tag_545:\n        /* \"#utility.yul\":11411:11489   */\n      swap4\n      pop\n        /* \"#utility.yul\":11498:11550   */\n      tag_547\n        /* \"#utility.yul\":11543:11549   */\n      dup2\n        /* \"#utility.yul\":11538:11541   */\n      dup6\n        /* \"#utility.yul\":11531:11535   */\n      0x20\n        /* \"#utility.yul\":11524:11529   */\n      dup7\n        /* \"#utility.yul\":11520:11536   */\n      add\n        /* \"#utility.yul\":11498:11550   */\n      tag_528\n      jump\t// in\n    tag_547:\n        /* \"#utility.yul\":11575:11604   */\n      tag_548\n        /* \"#utility.yul\":11597:11603   */\n      dup2\n        /* \"#utility.yul\":11575:11604   */\n      tag_530\n      jump\t// in\n    tag_548:\n        /* \"#utility.yul\":11570:11573   */\n      dup5\n        /* \"#utility.yul\":11566:11605   */\n      add\n        /* \"#utility.yul\":11559:11605   */\n      swap2\n      pop\n        /* \"#utility.yul\":11339:11611   */\n      pop\n        /* \"#utility.yul\":11247:11611   */\n      swap3\n      swap2\n      pop\n      pop\n      jump\t// out\n        /* \"#utility.yul\":11617:11994   */\n    tag_549:\n        /* \"#utility.yul\":11723:11726   */\n      0x00\n        /* \"#utility.yul\":11751:11790   */\n      tag_551\n        /* \"#utility.yul\":11784:11789   */\n      dup3\n        /* \"#utility.yul\":11751:11790   */\n      tag_537\n      jump\t// in\n    tag_551:\n        /* \"#utility.yul\":11806:11895   */\n      tag_552\n        /* \"#utility.yul\":11888:11894   */\n      dup2\n        /* \"#utility.yul\":11883:11886   */\n      dup6\n        /* \"#utility.yul\":11806:11895   */\n      tag_553\n      jump\t// in\n    tag_552:\n        /* \"#utility.yul\":11799:11895   */\n      swap4\n      pop\n        /* \"#utility.yul\":11904:11956   */\n      tag_554\n        /* \"#utility.yul\":11949:11955   */\n      dup2\n        /* \"#utility.yul\":11944:11947   */\n      dup6\n        /* \"#utility.yul\":11937:11941   */\n      0x20\n        /* \"#utility.yul\":11930:11935   */\n      dup7\n        /* \"#utility.yul\":11926:11942   */\n      add\n        /* \"#utility.yul\":11904:11956   */\n      tag_528\n      jump\t// in\n    tag_554:\n        /* \"#utility.yul\":11981:11987   */\n      dup1\n        /* \"#utility.yul\":11976:11979   */\n      dup5\n        /* \"#utility.yul\":11972:11988   */\n      add\n        /* \"#utility.yul\":11965:11988   */\n      swap2\n      pop\n        /* \"#utility.yul\":11727:11994   */\n      pop\n        /* \"#utility.yul\":11617:11994   */\n      swap3\n      swap2\n      pop\n      pop\n      jump\t// out\n        /* \"#utility.yul\":12024:12869   */\n    tag_555:\n        /* \"#utility.yul\":12127:12130   */\n      0x00\n        /* \"#utility.yul\":12164:12169   */\n      dup2\n        /* \"#utility.yul\":12158:12170   */\n      sload\n        /* \"#utility.yul\":12193:12229   */\n      tag_557\n        /* \"#utility.yul\":12219:12228   */\n      dup2\n        /* \"#utility.yul\":12193:12229   */\n      tag_103\n      jump\t// in\n    tag_557:\n        /* \"#utility.yul\":12245:12334   */\n      tag_558\n        /* \"#utility.yul\":12327:12333   */\n      dup2\n        /* \"#utility.yul\":12322:12325   */\n      dup7\n        /* \"#utility.yul\":12245:12334   */\n      tag_553\n      jump\t// in\n    tag_558:\n        /* \"#utility.yul\":12238:12334   */\n      swap5\n      pop\n        /* \"#utility.yul\":12365:12366   */\n      0x01\n        /* \"#utility.yul\":12354:12363   */\n      dup3\n        /* \"#utility.yul\":12350:12367   */\n      and\n        /* \"#utility.yul\":12381:12382   */\n      0x00\n        /* \"#utility.yul\":12376:12513   */\n      dup2\n      eq\n      tag_560\n      jumpi\n        /* \"#utility.yul\":12527:12528   */\n      0x01\n        /* \"#utility.yul\":12522:12863   */\n      dup2\n      eq\n      tag_561\n      jumpi\n        /* \"#utility.yul\":12343:12863   */\n      jump(tag_559)\n        /* \"#utility.yul\":12376:12513   */\n    tag_560:\n        /* \"#utility.yul\":12460:12464   */\n      0xff\n        /* \"#utility.yul\":12456:12465   */\n      not\n        /* \"#utility.yul\":12445:12454   */\n      dup4\n        /* \"#utility.yul\":12441:12466   */\n      and\n        /* \"#utility.yul\":12436:12439   */\n      dup7\n        /* \"#utility.yul\":12429:12467   */\n      mstore\n        /* \"#utility.yul\":12496:12502   */\n      dup2\n        /* \"#utility.yul\":12491:12494   */\n      dup7\n        /* \"#utility.yul\":12487:12503   */\n      add\n        /* \"#utility.yul\":12480:12503   */\n      swap4\n      pop\n        /* \"#utility.yul\":12376:12513   */\n      jump(tag_559)\n        /* \"#utility.yul\":12522:12863   */\n    tag_561:\n        /* \"#utility.yul\":12589:12627   */\n      tag_562\n        /* \"#utility.yul\":12621:12626   */\n      dup6\n        /* \"#utility.yul\":12589:12627   */\n      tag_563\n      jump\t// in\n    tag_562:\n        /* \"#utility.yul\":12649:12650   */\n      0x00\n        /* \"#utility.yul\":12663:12817   */\n    tag_564:\n        /* \"#utility.yul\":12677:12683   */\n      dup4\n        /* \"#utility.yul\":12674:12675   */\n      dup2\n        /* \"#utility.yul\":12671:12684   */\n      lt\n        /* \"#utility.yul\":12663:12817   */\n      iszero\n      tag_566\n      jumpi\n        /* \"#utility.yul\":12751:12758   */\n      dup2\n        /* \"#utility.yul\":12745:12759   */\n      sload\n        /* \"#utility.yul\":12741:12742   */\n      dup2\n        /* \"#utility.yul\":12736:12739   */\n      dup10\n        /* \"#utility.yul\":12732:12743   */\n      add\n        /* \"#utility.yul\":12725:12760   */\n      mstore\n        /* \"#utility.yul\":12801:12802   */\n      0x01\n        /* \"#utility.yul\":12792:12799   */\n      dup3\n        /* \"#utility.yul\":12788:12803   */\n      add\n        /* \"#utility.yul\":12777:12803   */\n      swap2\n      pop\n        /* \"#utility.yul\":12699:12703   */\n      0x20\n        /* \"#utility.yul\":12696:12697   */\n      dup2\n        /* \"#utility.yul\":12692:12704   */\n      add\n        /* \"#utility.yul\":12687:12704   */\n      swap1\n      pop\n        /* \"#utility.yul\":12663:12817   */\n      jump(tag_564)\n    tag_566:\n        /* \"#utility.yul\":12846:12852   */\n      dup4\n        /* \"#utility.yul\":12841:12844   */\n      dup9\n        /* \"#utility.yul\":12837:12853   */\n      add\n        /* \"#utility.yul\":12830:12853   */\n      swap6\n      pop\n        /* \"#utility.yul\":12529:12863   */\n      pop\n      pop\n        /* \"#utility.yul\":12343:12863   */\n    tag_559:\n      pop\n        /* \"#utility.yul\":12131:12869   */\n      pop\n      pop\n        /* \"#utility.yul\":12024:12869   */\n      swap3\n      swap2\n      pop\n      pop\n      jump\t// out\n        /* \"#utility.yul\":12875:13241   */\n    tag_567:\n        /* \"#utility.yul\":13017:13020   */\n      0x00\n        /* \"#utility.yul\":13038:13105   */\n      tag_569\n        /* \"#utility.yul\":13102:13104   */\n      0x23\n        /* \"#utility.yul\":13097:13100   */\n      dup4\n        /* \"#utility.yul\":13038:13105   */\n      tag_546\n      jump\t// in\n    tag_569:\n        /* \"#utility.yul\":13031:13105   */\n      swap2\n      pop\n        /* \"#utility.yul\":13114:13207   */\n      tag_570\n        /* \"#utility.yul\":13203:13206   */\n      dup3\n        /* \"#utility.yul\":13114:13207   */\n      tag_571\n      jump\t// in\n    tag_570:\n        /* \"#utility.yul\":13232:13234   */\n      0x40\n        /* \"#utility.yul\":13227:13230   */\n      dup3\n        /* \"#utility.yul\":13223:13235   */\n      add\n        /* \"#utility.yul\":13216:13235   */\n      swap1\n      pop\n        /* \"#utility.yul\":12875:13241   */\n      swap2\n      swap1\n      pop\n      jump\t// out\n        /* \"#utility.yul\":13247:13613   */\n    tag_572:\n        /* \"#utility.yul\":13389:13392   */\n      0x00\n        /* \"#utility.yul\":13410:13477   */\n      tag_574\n        /* \"#utility.yul\":13474:13476   */\n      0x20\n        /* \"#utility.yul\":13469:13472   */\n      dup4\n        /* \"#utility.yul\":13410:13477   */\n      tag_546\n      jump\t// in\n    tag_574:\n        /* \"#utility.yul\":13403:13477   */\n      swap2\n      pop\n        /* \"#utility.yul\":13486:13579   */\n      tag_575\n        /* \"#utility.yul\":13575:13578   */\n      dup3\n        /* \"#utility.yul\":13486:13579   */\n      tag_576\n      jump\t// in\n    tag_575:\n        /* \"#utility.yul\":13604:13606   */\n      0x20\n        /* \"#utility.yul\":13599:13602   */\n      dup3\n        /* \"#utility.yul\":13595:13607   */\n      add\n        /* \"#utility.yul\":13588:13607   */\n      swap1\n      pop\n        /* \"#utility.yul\":13247:13613   */\n      swap2\n      swap1\n      pop\n      jump\t// out\n        /* \"#utility.yul\":13619:13985   */\n    tag_577:\n        /* \"#utility.yul\":13761:13764   */\n      0x00\n        /* \"#utility.yul\":13782:13849   */\n      tag_579\n        /* \"#utility.yul\":13846:13848   */\n      0x35\n        /* \"#utility.yul\":13841:13844   */\n      dup4\n        /* \"#utility.yul\":13782:13849   */\n      tag_546\n      jump\t// in\n    tag_579:\n        /* \"#utility.yul\":13775:13849   */\n      swap2\n      pop\n        /* \"#utility.yul\":13858:13951   */\n      tag_580\n        /* \"#utility.yul\":13947:13950   */\n      dup3\n        /* \"#utility.yul\":13858:13951   */\n      tag_581\n      jump\t// in\n    tag_580:\n        /* \"#utility.yul\":13976:13978   */\n      0x40\n        /* \"#utility.yul\":13971:13974   */\n      dup3\n        /* \"#utility.yul\":13967:13979   */\n      add\n        /* \"#utility.yul\":13960:13979   */\n      swap1\n      pop\n        /* \"#utility.yul\":13619:13985   */\n      swap2\n      swap1\n      pop\n      jump\t// out\n        /* \"#utility.yul\":13991:14356   */\n    tag_582:\n        /* \"#utility.yul\":14133:14136   */\n      0x00\n        /* \"#utility.yul\":14154:14220   */\n      tag_584\n        /* \"#utility.yul\":14218:14219   */\n      0x09\n        /* \"#utility.yul\":14213:14216   */\n      dup4\n        /* \"#utility.yul\":14154:14220   */\n      tag_546\n      jump\t// in\n    tag_584:\n        /* \"#utility.yul\":14147:14220   */\n      swap2\n      pop\n        /* \"#utility.yul\":14229:14322   */\n      tag_585\n        /* \"#utility.yul\":14318:14321   */\n      dup3\n        /* \"#utility.yul\":14229:14322   */\n      tag_586\n      jump\t// in\n    tag_585:\n        /* \"#utility.yul\":14347:14349   */\n      0x20\n        /* \"#utility.yul\":14342:14345   */\n      dup3\n        /* \"#utility.yul\":14338:14350   */\n      add\n        /* \"#utility.yul\":14331:14350   */\n      swap1\n      pop\n        /* \"#utility.yul\":13991:14356   */\n      swap2\n      swap1\n      pop\n      jump\t// out\n        /* \"#utility.yul\":14362:14764   */\n    tag_587:\n        /* \"#utility.yul\":14522:14525   */\n      0x00\n        /* \"#utility.yul\":14543:14628   */\n      tag_589\n        /* \"#utility.yul\":14625:14627   */\n      0x2e\n        /* \"#utility.yul\":14620:14623   */\n      dup4\n        /* \"#utility.yul\":14543:14628   */\n      tag_553\n      jump\t// in\n    tag_589:\n        /* \"#utility.yul\":14536:14628   */\n      swap2\n      pop\n        /* \"#utility.yul\":14637:14730   */\n      tag_590\n        /* \"#utility.yul\":14726:14729   */\n      dup3\n        /* \"#utility.yul\":14637:14730   */\n      tag_591\n      jump\t// in\n    tag_590:\n        /* \"#utility.yul\":14755:14757   */\n      0x2e\n        /* \"#utility.yul\":14750:14753   */\n      dup3\n        /* \"#utility.yul\":14746:14758   */\n      add\n        /* \"#utility.yul\":14739:14758   */\n      swap1\n      pop\n        /* \"#utility.yul\":14362:14764   */\n      swap2\n      swap1\n      pop\n      jump\t// out\n        /* \"#utility.yul\":14770:15136   */\n    tag_592:\n        /* \"#utility.yul\":14912:14915   */\n      0x00\n        /* \"#utility.yul\":14933:15000   */\n      tag_594\n        /* \"#utility.yul\":14997:14999   */\n      0x2a\n        /* \"#utility.yul\":14992:14995   */\n      dup4\n        /* \"#utility.yul\":14933:15000   */\n      tag_546\n      jump\t// in\n    tag_594:\n        /* \"#utility.yul\":14926:15000   */\n      swap2\n      pop\n        /* \"#utility.yul\":15009:15102   */\n      tag_595\n        /* \"#utility.yul\":15098:15101   */\n      dup3\n        /* \"#utility.yul\":15009:15102   */\n      tag_596\n      jump\t// in\n    tag_595:\n        /* \"#utility.yul\":15127:15129   */\n      0x40\n        /* \"#utility.yul\":15122:15125   */\n      dup3\n        /* \"#utility.yul\":15118:15130   */\n      add\n        /* \"#utility.yul\":15111:15130   */\n      swap1\n      pop\n        /* \"#utility.yul\":14770:15136   */\n      swap2\n      swap1\n      pop\n      jump\t// out\n        /* \"#utility.yul\":15142:15508   */\n    tag_597:\n        /* \"#utility.yul\":15284:15287   */\n      0x00\n        /* \"#utility.yul\":15305:15372   */\n      tag_599\n        /* \"#utility.yul\":15369:15371   */\n      0x21\n        /* \"#utility.yul\":15364:15367   */\n      dup4\n        /* \"#utility.yul\":15305:15372   */\n      tag_546\n      jump\t// in\n    tag_599:\n        /* \"#utility.yul\":15298:15372   */\n      swap2\n      pop\n        /* \"#utility.yul\":15381:15474   */\n      tag_600\n        /* \"#utility.yul\":15470:15473   */\n      dup3\n        /* \"#utility.yul\":15381:15474   */\n      tag_601\n      jump\t// in\n    tag_600:\n        /* \"#utility.yul\":15499:15501   */\n      0x40\n        /* \"#utility.yul\":15494:15497   */\n      dup3\n        /* \"#utility.yul\":15490:15502   */\n      add\n        /* \"#utility.yul\":15483:15502   */\n      swap1\n      pop\n        /* \"#utility.yul\":15142:15508   */\n      swap2\n      swap1\n      pop\n      jump\t// out\n        /* \"#utility.yul\":15514:15916   */\n    tag_602:\n        /* \"#utility.yul\":15674:15677   */\n      0x00\n        /* \"#utility.yul\":15695:15780   */\n      tag_604\n        /* \"#utility.yul\":15777:15779   */\n      0x17\n        /* \"#utility.yul\":15772:15775   */\n      dup4\n        /* \"#utility.yul\":15695:15780   */\n      tag_553\n      jump\t// in\n    tag_604:\n        /* \"#utility.yul\":15688:15780   */\n      swap2\n      pop\n        /* \"#utility.yul\":15789:15882   */\n      tag_605\n        /* \"#utility.yul\":15878:15881   */\n      dup3\n        /* \"#utility.yul\":15789:15882   */\n      tag_606\n      jump\t// in\n    tag_605:\n        /* \"#utility.yul\":15907:15909   */\n      0x17\n        /* \"#utility.yul\":15902:15905   */\n      dup3\n        /* \"#utility.yul\":15898:15910   */\n      add\n        /* \"#utility.yul\":15891:15910   */\n      swap1\n      pop\n        /* \"#utility.yul\":15514:15916   */\n      swap2\n      swap1\n      pop\n      jump\t// out\n        /* \"#utility.yul\":15922:16324   */\n    tag_607:\n        /* \"#utility.yul\":16082:16085   */\n      0x00\n        /* \"#utility.yul\":16103:16188   */\n      tag_609\n        /* \"#utility.yul\":16185:16187   */\n      0x11\n        /* \"#utility.yul\":16180:16183   */\n      dup4\n        /* \"#utility.yul\":16103:16188   */\n      tag_553\n      jump\t// in\n    tag_609:\n        /* \"#utility.yul\":16096:16188   */\n      swap2\n      pop\n        /* \"#utility.yul\":16197:16290   */\n      tag_610\n        /* \"#utility.yul\":16286:16289   */\n      dup3\n        /* \"#utility.yul\":16197:16290   */\n      tag_611\n      jump\t// in\n    tag_610:\n        /* \"#utility.yul\":16315:16317   */\n      0x11\n        /* \"#utility.yul\":16310:16313   */\n      dup3\n        /* \"#utility.yul\":16306:16318   */\n      add\n        /* \"#utility.yul\":16299:16318   */\n      swap1\n      pop\n        /* \"#utility.yul\":15922:16324   */\n      swap2\n      swap1\n      pop\n      jump\t// out\n        /* \"#utility.yul\":16330:16696   */\n    tag_612:\n        /* \"#utility.yul\":16472:16475   */\n      0x00\n        /* \"#utility.yul\":16493:16560   */\n      tag_614\n        /* \"#utility.yul\":16557:16559   */\n      0x2f\n        /* \"#utility.yul\":16552:16555   */\n      dup4\n        /* \"#utility.yul\":16493:16560   */\n      tag_546\n      jump\t// in\n    tag_614:\n        /* \"#utility.yul\":16486:16560   */\n      swap2\n      pop\n        /* \"#utility.yul\":16569:16662   */\n      tag_615\n        /* \"#utility.yul\":16658:16661   */\n      dup3\n        /* \"#utility.yul\":16569:16662   */\n      tag_616\n      jump\t// in\n    tag_615:\n        /* \"#utility.yul\":16687:16689   */\n      0x40\n        /* \"#utility.yul\":16682:16685   */\n      dup3\n        /* \"#utility.yul\":16678:16690   */\n      add\n        /* \"#utility.yul\":16671:16690   */\n      swap1\n      pop\n        /* \"#utility.yul\":16330:16696   */\n      swap2\n      swap1\n      pop\n      jump\t// out\n        /* \"#utility.yul\":16702:17068   */\n    tag_617:\n        /* \"#utility.yul\":16844:16847   */\n      0x00\n        /* \"#utility.yul\":16865:16932   */\n      tag_619\n        /* \"#utility.yul\":16929:16931   */\n      0x11\n        /* \"#utility.yul\":16924:16927   */\n      dup4\n        /* \"#utility.yul\":16865:16932   */\n      tag_546\n      jump\t// in\n    tag_619:\n        /* \"#utility.yul\":16858:16932   */\n      swap2\n      pop\n        /* \"#utility.yul\":16941:17034   */\n      tag_620\n        /* \"#utility.yul\":17030:17033   */\n      dup3\n        /* \"#utility.yul\":16941:17034   */\n      tag_621\n      jump\t// in\n    tag_620:\n        /* \"#utility.yul\":17059:17061   */\n      0x20\n        /* \"#utility.yul\":17054:17057   */\n      dup3\n        /* \"#utility.yul\":17050:17062   */\n      add\n        /* \"#utility.yul\":17043:17062   */\n      swap1\n      pop\n        /* \"#utility.yul\":16702:17068   */\n      swap2\n      swap1\n      pop\n      jump\t// out\n        /* \"#utility.yul\":17154:17775   */\n    tag_622:\n        /* \"#utility.yul\":17287:17290   */\n      0x00\n        /* \"#utility.yul\":17323:17327   */\n      0x40\n        /* \"#utility.yul\":17318:17321   */\n      dup4\n        /* \"#utility.yul\":17314:17328   */\n      add\n        /* \"#utility.yul\":17410:17414   */\n      0x00\n        /* \"#utility.yul\":17403:17408   */\n      dup4\n        /* \"#utility.yul\":17399:17415   */\n      add\n        /* \"#utility.yul\":17393:17416   */\n      mload\n        /* \"#utility.yul\":17463:17466   */\n      dup5\n        /* \"#utility.yul\":17457:17461   */\n      dup3\n        /* \"#utility.yul\":17453:17467   */\n      sub\n        /* \"#utility.yul\":17446:17450   */\n      0x00\n        /* \"#utility.yul\":17441:17444   */\n      dup7\n        /* \"#utility.yul\":17437:17451   */\n      add\n        /* \"#utility.yul\":17430:17468   */\n      mstore\n        /* \"#utility.yul\":17489:17562   */\n      tag_624\n        /* \"#utility.yul\":17557:17561   */\n      dup3\n        /* \"#utility.yul\":17543:17555   */\n      dup3\n        /* \"#utility.yul\":17489:17562   */\n      tag_494\n      jump\t// in\n    tag_624:\n        /* \"#utility.yul\":17481:17562   */\n      swap2\n      pop\n        /* \"#utility.yul\":17338:17573   */\n      pop\n        /* \"#utility.yul\":17656:17660   */\n      0x20\n        /* \"#utility.yul\":17649:17654   */\n      dup4\n        /* \"#utility.yul\":17645:17661   */\n      add\n        /* \"#utility.yul\":17639:17662   */\n      mload\n        /* \"#utility.yul\":17675:17738   */\n      tag_625\n        /* \"#utility.yul\":17732:17736   */\n      0x20\n        /* \"#utility.yul\":17727:17730   */\n      dup7\n        /* \"#utility.yul\":17723:17737   */\n      add\n        /* \"#utility.yul\":17709:17721   */\n      dup3\n        /* \"#utility.yul\":17675:17738   */\n      tag_626\n      jump\t// in\n    tag_625:\n        /* \"#utility.yul\":17583:17748   */\n      pop\n        /* \"#utility.yul\":17765:17769   */\n      dup1\n        /* \"#utility.yul\":17758:17769   */\n      swap2\n      pop\n        /* \"#utility.yul\":17292:17775   */\n      pop\n        /* \"#utility.yul\":17154:17775   */\n      swap3\n      swap2\n      pop\n      pop\n      jump\t// out\n        /* \"#utility.yul\":17781:17889   */\n    tag_626:\n        /* \"#utility.yul\":17858:17882   */\n      tag_628\n        /* \"#utility.yul\":17876:17881   */\n      dup2\n        /* \"#utility.yul\":17858:17882   */\n      tag_629\n      jump\t// in\n    tag_628:\n        /* \"#utility.yul\":17853:17856   */\n      dup3\n        /* \"#utility.yul\":17846:17883   */\n      mstore\n        /* \"#utility.yul\":17781:17889   */\n      pop\n      pop\n      jump\t// out\n        /* \"#utility.yul\":17895:18013   */\n    tag_630:\n        /* \"#utility.yul\":17982:18006   */\n      tag_632\n        /* \"#utility.yul\":18000:18005   */\n      dup2\n        /* \"#utility.yul\":17982:18006   */\n      tag_629\n      jump\t// in\n    tag_632:\n        /* \"#utility.yul\":17977:17980   */\n      dup3\n        /* \"#utility.yul\":17970:18007   */\n      mstore\n        /* \"#utility.yul\":17895:18013   */\n      pop\n      pop\n      jump\t// out\n        /* \"#utility.yul\":18019:18294   */\n    tag_135:\n        /* \"#utility.yul\":18151:18154   */\n      0x00\n        /* \"#utility.yul\":18173:18268   */\n      tag_634\n        /* \"#utility.yul\":18264:18267   */\n      dup3\n        /* \"#utility.yul\":18255:18261   */\n      dup5\n        /* \"#utility.yul\":18173:18268   */\n      tag_549\n      jump\t// in\n    tag_634:\n        /* \"#utility.yul\":18166:18268   */\n      swap2\n      pop\n        /* \"#utility.yul\":18285:18288   */\n      dup2\n        /* \"#utility.yul\":18278:18288   */\n      swap1\n      pop\n        /* \"#utility.yul\":18019:18294   */\n      swap3\n      swap2\n      pop\n      pop\n      jump\t// out\n        /* \"#utility.yul\":18300:18569   */\n    tag_176:\n        /* \"#utility.yul\":18429:18432   */\n      0x00\n        /* \"#utility.yul\":18451:18543   */\n      tag_636\n        /* \"#utility.yul\":18539:18542   */\n      dup3\n        /* \"#utility.yul\":18530:18536   */\n      dup5\n        /* \"#utility.yul\":18451:18543   */\n      tag_555\n      jump\t// in\n    tag_636:\n        /* \"#utility.yul\":18444:18543   */\n      swap2\n      pop\n        /* \"#utility.yul\":18560:18563   */\n      dup2\n        /* \"#utility.yul\":18553:18563   */\n      swap1\n      pop\n        /* \"#utility.yul\":18300:18569   */\n      swap3\n      swap2\n      pop\n      pop\n      jump\t// out\n        /* \"#utility.yul\":18575:19116   */\n    tag_139:\n        /* \"#utility.yul\":18808:18811   */\n      0x00\n        /* \"#utility.yul\":18830:18978   */\n      tag_638\n        /* \"#utility.yul\":18974:18977   */\n      dup3\n        /* \"#utility.yul\":18830:18978   */\n      tag_587\n      jump\t// in\n    tag_638:\n        /* \"#utility.yul\":18823:18978   */\n      swap2\n      pop\n        /* \"#utility.yul\":18995:19090   */\n      tag_639\n        /* \"#utility.yul\":19086:19089   */\n      dup3\n        /* \"#utility.yul\":19077:19083   */\n      dup5\n        /* \"#utility.yul\":18995:19090   */\n      tag_549\n      jump\t// in\n    tag_639:\n        /* \"#utility.yul\":18988:19090   */\n      swap2\n      pop\n        /* \"#utility.yul\":19107:19110   */\n      dup2\n        /* \"#utility.yul\":19100:19110   */\n      swap1\n      pop\n        /* \"#utility.yul\":18575:19116   */\n      swap3\n      swap2\n      pop\n      pop\n      jump\t// out\n        /* \"#utility.yul\":19122:20089   */\n    tag_315:\n        /* \"#utility.yul\":19504:19507   */\n      0x00\n        /* \"#utility.yul\":19526:19674   */\n      tag_641\n        /* \"#utility.yul\":19670:19673   */\n      dup3\n        /* \"#utility.yul\":19526:19674   */\n      tag_602\n      jump\t// in\n    tag_641:\n        /* \"#utility.yul\":19519:19674   */\n      swap2\n      pop\n        /* \"#utility.yul\":19691:19786   */\n      tag_642\n        /* \"#utility.yul\":19782:19785   */\n      dup3\n        /* \"#utility.yul\":19773:19779   */\n      dup6\n        /* \"#utility.yul\":19691:19786   */\n      tag_549\n      jump\t// in\n    tag_642:\n        /* \"#utility.yul\":19684:19786   */\n      swap2\n      pop\n        /* \"#utility.yul\":19803:19951   */\n      tag_643\n        /* \"#utility.yul\":19947:19950   */\n      dup3\n        /* \"#utility.yul\":19803:19951   */\n      tag_607\n      jump\t// in\n    tag_643:\n        /* \"#utility.yul\":19796:19951   */\n      swap2\n      pop\n        /* \"#utility.yul\":19968:20063   */\n      tag_644\n        /* \"#utility.yul\":20059:20062   */\n      dup3\n        /* \"#utility.yul\":20050:20056   */\n      dup5\n        /* \"#utility.yul\":19968:20063   */\n      tag_549\n      jump\t// in\n    tag_644:\n        /* \"#utility.yul\":19961:20063   */\n      swap2\n      pop\n        /* \"#utility.yul\":20080:20083   */\n      dup2\n        /* \"#utility.yul\":20073:20083   */\n      swap1\n      pop\n        /* \"#utility.yul\":19122:20089   */\n      swap4\n      swap3\n      pop\n      pop\n      pop\n      jump\t// out\n        /* \"#utility.yul\":20095:20648   */\n    tag_247:\n        /* \"#utility.yul\":20272:20276   */\n      0x00\n        /* \"#utility.yul\":20310:20313   */\n      0x80\n        /* \"#utility.yul\":20299:20308   */\n      dup3\n        /* \"#utility.yul\":20295:20314   */\n      add\n        /* \"#utility.yul\":20287:20314   */\n      swap1\n      pop\n        /* \"#utility.yul\":20324:20395   */\n      tag_646\n        /* \"#utility.yul\":20392:20393   */\n      0x00\n        /* \"#utility.yul\":20381:20390   */\n      dup4\n        /* \"#utility.yul\":20377:20394   */\n      add\n        /* \"#utility.yul\":20368:20374   */\n      dup8\n        /* \"#utility.yul\":20324:20395   */\n      tag_495\n      jump\t// in\n    tag_646:\n        /* \"#utility.yul\":20405:20477   */\n      tag_647\n        /* \"#utility.yul\":20473:20475   */\n      0x20\n        /* \"#utility.yul\":20462:20471   */\n      dup4\n        /* \"#utility.yul\":20458:20476   */\n      add\n        /* \"#utility.yul\":20449:20455   */\n      dup7\n        /* \"#utility.yul\":20405:20477   */\n      tag_630\n      jump\t// in\n    tag_647:\n        /* \"#utility.yul\":20487:20559   */\n      tag_648\n        /* \"#utility.yul\":20555:20557   */\n      0x40\n        /* \"#utility.yul\":20544:20553   */\n      dup4\n        /* \"#utility.yul\":20540:20558   */\n      add\n        /* \"#utility.yul\":20531:20537   */\n      dup6\n        /* \"#utility.yul\":20487:20559   */\n      tag_630\n      jump\t// in\n    tag_648:\n        /* \"#utility.yul\":20569:20641   */\n      tag_649\n        /* \"#utility.yul\":20637:20639   */\n      0x60\n        /* \"#utility.yul\":20626:20635   */\n      dup4\n        /* \"#utility.yul\":20622:20640   */\n      add\n        /* \"#utility.yul\":20613:20619   */\n      dup5\n        /* \"#utility.yul\":20569:20641   */\n      tag_495\n      jump\t// in\n    tag_649:\n        /* \"#utility.yul\":20095:20648   */\n      swap6\n      swap5\n      pop\n      pop\n      pop\n      pop\n      pop\n      jump\t// out\n        /* \"#utility.yul\":20654:21067   */\n    tag_69:\n        /* \"#utility.yul\":20817:20821   */\n      0x00\n        /* \"#utility.yul\":20855:20857   */\n      0x20\n        /* \"#utility.yul\":20844:20853   */\n      dup3\n        /* \"#utility.yul\":20840:20858   */\n      add\n        /* \"#utility.yul\":20832:20858   */\n      swap1\n      pop\n        /* \"#utility.yul\":20904:20913   */\n      dup2\n        /* \"#utility.yul\":20898:20902   */\n      dup2\n        /* \"#utility.yul\":20894:20914   */\n      sub\n        /* \"#utility.yul\":20890:20891   */\n      0x00\n        /* \"#utility.yul\":20879:20888   */\n      dup4\n        /* \"#utility.yul\":20875:20892   */\n      add\n        /* \"#utility.yul\":20868:20915   */\n      mstore\n        /* \"#utility.yul\":20932:21060   */\n      tag_651\n        /* \"#utility.yul\":21055:21059   */\n      dup2\n        /* \"#utility.yul\":21046:21052   */\n      dup5\n        /* \"#utility.yul\":20932:21060   */\n      tag_499\n      jump\t// in\n    tag_651:\n        /* \"#utility.yul\":20924:21060   */\n      swap1\n      pop\n        /* \"#utility.yul\":20654:21067   */\n      swap3\n      swap2\n      pop\n      pop\n      jump\t// out\n        /* \"#utility.yul\":21073:21283   */\n    tag_28:\n        /* \"#utility.yul\":21160:21164   */\n      0x00\n        /* \"#utility.yul\":21198:21200   */\n      0x20\n        /* \"#utility.yul\":21187:21196   */\n      dup3\n        /* \"#utility.yul\":21183:21201   */\n      add\n        /* \"#utility.yul\":21175:21201   */\n      swap1\n      pop\n        /* \"#utility.yul\":21211:21276   */\n      tag_653\n        /* \"#utility.yul\":21273:21274   */\n      0x00\n        /* \"#utility.yul\":21262:21271   */\n      dup4\n        /* \"#utility.yul\":21258:21275   */\n      add\n        /* \"#utility.yul\":21249:21255   */\n      dup5\n        /* \"#utility.yul\":21211:21276   */\n      tag_513\n      jump\t// in\n    tag_653:\n        /* \"#utility.yul\":21073:21283   */\n      swap3\n      swap2\n      pop\n      pop\n      jump\t// out\n        /* \"#utility.yul\":21289:21696   */\n    tag_74:\n        /* \"#utility.yul\":21422:21426   */\n      0x00\n        /* \"#utility.yul\":21460:21462   */\n      0x40\n        /* \"#utility.yul\":21449:21458   */\n      dup3\n        /* \"#utility.yul\":21445:21463   */\n      add\n        /* \"#utility.yul\":21437:21463   */\n      swap1\n      pop\n        /* \"#utility.yul\":21473:21538   */\n      tag_655\n        /* \"#utility.yul\":21535:21536   */\n      0x00\n        /* \"#utility.yul\":21524:21533   */\n      dup4\n        /* \"#utility.yul\":21520:21537   */\n      add\n        /* \"#utility.yul\":21511:21517   */\n      dup6\n        /* \"#utility.yul\":21473:21538   */\n      tag_513\n      jump\t// in\n    tag_655:\n        /* \"#utility.yul\":21585:21594   */\n      dup2\n        /* \"#utility.yul\":21579:21583   */\n      dup2\n        /* \"#utility.yul\":21575:21595   */\n      sub\n        /* \"#utility.yul\":21570:21572   */\n      0x20\n        /* \"#utility.yul\":21559:21568   */\n      dup4\n        /* \"#utility.yul\":21555:21573   */\n      add\n        /* \"#utility.yul\":21548:21596   */\n      mstore\n        /* \"#utility.yul\":21613:21689   */\n      tag_656\n        /* \"#utility.yul\":21684:21688   */\n      dup2\n        /* \"#utility.yul\":21675:21681   */\n      dup5\n        /* \"#utility.yul\":21613:21689   */\n      tag_521\n      jump\t// in\n    tag_656:\n        /* \"#utility.yul\":21605:21689   */\n      swap1\n      pop\n        /* \"#utility.yul\":21289:21696   */\n      swap4\n      swap3\n      pop\n      pop\n      pop\n      jump\t// out\n        /* \"#utility.yul\":21702:21924   */\n    tag_40:\n        /* \"#utility.yul\":21795:21799   */\n      0x00\n        /* \"#utility.yul\":21833:21835   */\n      0x20\n        /* \"#utility.yul\":21822:21831   */\n      dup3\n        /* \"#utility.yul\":21818:21836   */\n      add\n        /* \"#utility.yul\":21810:21836   */\n      swap1\n      pop\n        /* \"#utility.yul\":21846:21917   */\n      tag_658\n        /* \"#utility.yul\":21914:21915   */\n      0x00\n        /* \"#utility.yul\":21903:21912   */\n      dup4\n        /* \"#utility.yul\":21899:21916   */\n      add\n        /* \"#utility.yul\":21890:21896   */\n      dup5\n        /* \"#utility.yul\":21846:21917   */\n      tag_517\n      jump\t// in\n    tag_658:\n        /* \"#utility.yul\":21702:21924   */\n      swap3\n      swap2\n      pop\n      pop\n      jump\t// out\n        /* \"#utility.yul\":21930:22148   */\n    tag_87:\n        /* \"#utility.yul\":22021:22025   */\n      0x00\n        /* \"#utility.yul\":22059:22061   */\n      0x20\n        /* \"#utility.yul\":22048:22057   */\n      dup3\n        /* \"#utility.yul\":22044:22062   */\n      add\n        /* \"#utility.yul\":22036:22062   */\n      swap1\n      pop\n        /* \"#utility.yul\":22072:22141   */\n      tag_660\n        /* \"#utility.yul\":22138:22139   */\n      0x00\n        /* \"#utility.yul\":22127:22136   */\n      dup4\n        /* \"#utility.yul\":22123:22140   */\n      add\n        /* \"#utility.yul\":22114:22120   */\n      dup5\n        /* \"#utility.yul\":22072:22141   */\n      tag_531\n      jump\t// in\n    tag_660:\n        /* \"#utility.yul\":21930:22148   */\n      swap3\n      swap2\n      pop\n      pop\n      jump\t// out\n        /* \"#utility.yul\":22154:22482   */\n    tag_65:\n        /* \"#utility.yul\":22273:22277   */\n      0x00\n        /* \"#utility.yul\":22311:22313   */\n      0x40\n        /* \"#utility.yul\":22300:22309   */\n      dup3\n        /* \"#utility.yul\":22296:22314   */\n      add\n        /* \"#utility.yul\":22288:22314   */\n      swap1\n      pop\n        /* \"#utility.yul\":22324:22393   */\n      tag_662\n        /* \"#utility.yul\":22390:22391   */\n      0x00\n        /* \"#utility.yul\":22379:22388   */\n      dup4\n        /* \"#utility.yul\":22375:22392   */\n      add\n        /* \"#utility.yul\":22366:22372   */\n      dup6\n        /* \"#utility.yul\":22324:22393   */\n      tag_531\n      jump\t// in\n    tag_662:\n        /* \"#utility.yul\":22403:22475   */\n      tag_663\n        /* \"#utility.yul\":22471:22473   */\n      0x20\n        /* \"#utility.yul\":22460:22469   */\n      dup4\n        /* \"#utility.yul\":22456:22474   */\n      add\n        /* \"#utility.yul\":22447:22453   */\n      dup5\n        /* \"#utility.yul\":22403:22475   */\n      tag_630\n      jump\t// in\n    tag_663:\n        /* \"#utility.yul\":22154:22482   */\n      swap4\n      swap3\n      pop\n      pop\n      pop\n      jump\t// out\n        /* \"#utility.yul\":22488:22801   */\n    tag_46:\n        /* \"#utility.yul\":22601:22605   */\n      0x00\n        /* \"#utility.yul\":22639:22641   */\n      0x20\n        /* \"#utility.yul\":22628:22637   */\n      dup3\n        /* \"#utility.yul\":22624:22642   */\n      add\n        /* \"#utility.yul\":22616:22642   */\n      swap1\n      pop\n        /* \"#utility.yul\":22688:22697   */\n      dup2\n        /* \"#utility.yul\":22682:22686   */\n      dup2\n        /* \"#utility.yul\":22678:22698   */\n      sub\n        /* \"#utility.yul\":22674:22675   */\n      0x00\n        /* \"#utility.yul\":22663:22672   */\n      dup4\n        /* \"#utility.yul\":22659:22676   */\n      add\n        /* \"#utility.yul\":22652:22699   */\n      mstore\n        /* \"#utility.yul\":22716:22794   */\n      tag_665\n        /* \"#utility.yul\":22789:22793   */\n      dup2\n        /* \"#utility.yul\":22780:22786   */\n      dup5\n        /* \"#utility.yul\":22716:22794   */\n      tag_542\n      jump\t// in\n    tag_665:\n        /* \"#utility.yul\":22708:22794   */\n      swap1\n      pop\n        /* \"#utility.yul\":22488:22801   */\n      swap3\n      swap2\n      pop\n      pop\n      jump\t// out\n        /* \"#utility.yul\":22807:23669   */\n    tag_34:\n        /* \"#utility.yul\":23058:23062   */\n      0x00\n        /* \"#utility.yul\":23096:23099   */\n      0xc0\n        /* \"#utility.yul\":23085:23094   */\n      dup3\n        /* \"#utility.yul\":23081:23100   */\n      add\n        /* \"#utility.yul\":23073:23100   */\n      swap1\n      pop\n        /* \"#utility.yul\":23146:23155   */\n      dup2\n        /* \"#utility.yul\":23140:23144   */\n      dup2\n        /* \"#utility.yul\":23136:23156   */\n      sub\n        /* \"#utility.yul\":23132:23133   */\n      0x00\n        /* \"#utility.yul\":23121:23130   */\n      dup4\n        /* \"#utility.yul\":23117:23134   */\n      add\n        /* \"#utility.yul\":23110:23157   */\n      mstore\n        /* \"#utility.yul\":23174:23252   */\n      tag_667\n        /* \"#utility.yul\":23247:23251   */\n      dup2\n        /* \"#utility.yul\":23238:23244   */\n      dup10\n        /* \"#utility.yul\":23174:23252   */\n      tag_542\n      jump\t// in\n    tag_667:\n        /* \"#utility.yul\":23166:23252   */\n      swap1\n      pop\n        /* \"#utility.yul\":23262:23334   */\n      tag_668\n        /* \"#utility.yul\":23330:23332   */\n      0x20\n        /* \"#utility.yul\":23319:23328   */\n      dup4\n        /* \"#utility.yul\":23315:23333   */\n      add\n        /* \"#utility.yul\":23306:23312   */\n      dup9\n        /* \"#utility.yul\":23262:23334   */\n      tag_495\n      jump\t// in\n    tag_668:\n        /* \"#utility.yul\":23344:23416   */\n      tag_669\n        /* \"#utility.yul\":23412:23414   */\n      0x40\n        /* \"#utility.yul\":23401:23410   */\n      dup4\n        /* \"#utility.yul\":23397:23415   */\n      add\n        /* \"#utility.yul\":23388:23394   */\n      dup8\n        /* \"#utility.yul\":23344:23416   */\n      tag_630\n      jump\t// in\n    tag_669:\n        /* \"#utility.yul\":23426:23496   */\n      tag_670\n        /* \"#utility.yul\":23492:23494   */\n      0x60\n        /* \"#utility.yul\":23481:23490   */\n      dup4\n        /* \"#utility.yul\":23477:23495   */\n      add\n        /* \"#utility.yul\":23468:23474   */\n      dup7\n        /* \"#utility.yul\":23426:23496   */\n      tag_531\n      jump\t// in\n    tag_670:\n        /* \"#utility.yul\":23506:23579   */\n      tag_671\n        /* \"#utility.yul\":23574:23577   */\n      0x80\n        /* \"#utility.yul\":23563:23572   */\n      dup4\n        /* \"#utility.yul\":23559:23578   */\n      add\n        /* \"#utility.yul\":23550:23556   */\n      dup6\n        /* \"#utility.yul\":23506:23579   */\n      tag_630\n      jump\t// in\n    tag_671:\n        /* \"#utility.yul\":23589:23662   */\n      tag_672\n        /* \"#utility.yul\":23657:23660   */\n      0xa0\n        /* \"#utility.yul\":23646:23655   */\n      dup4\n        /* \"#utility.yul\":23642:23661   */\n      add\n        /* \"#utility.yul\":23633:23639   */\n      dup5\n        /* \"#utility.yul\":23589:23662   */\n      tag_630\n      jump\t// in\n    tag_672:\n        /* \"#utility.yul\":22807:23669   */\n      swap8\n      swap7\n      pop\n      pop\n      pop\n      pop\n      pop\n      pop\n      pop\n      jump\t// out\n        /* \"#utility.yul\":23675:24319   */\n    tag_223:\n        /* \"#utility.yul\":23872:23876   */\n      0x00\n        /* \"#utility.yul\":23910:23913   */\n      0x80\n        /* \"#utility.yul\":23899:23908   */\n      dup3\n        /* \"#utility.yul\":23895:23914   */\n      add\n        /* \"#utility.yul\":23887:23914   */\n      swap1\n      pop\n        /* \"#utility.yul\":23960:23969   */\n      dup2\n        /* \"#utility.yul\":23954:23958   */\n      dup2\n        /* \"#utility.yul\":23950:23970   */\n      sub\n        /* \"#utility.yul\":23946:23947   */\n      0x00\n        /* \"#utility.yul\":23935:23944   */\n      dup4\n        /* \"#utility.yul\":23931:23948   */\n      add\n        /* \"#utility.yul\":23924:23971   */\n      mstore\n        /* \"#utility.yul\":23988:24066   */\n      tag_674\n        /* \"#utility.yul\":24061:24065   */\n      dup2\n        /* \"#utility.yul\":24052:24058   */\n      dup8\n        /* \"#utility.yul\":23988:24066   */\n      tag_542\n      jump\t// in\n    tag_674:\n        /* \"#utility.yul\":23980:24066   */\n      swap1\n      pop\n        /* \"#utility.yul\":24076:24148   */\n      tag_675\n        /* \"#utility.yul\":24144:24146   */\n      0x20\n        /* \"#utility.yul\":24133:24142   */\n      dup4\n        /* \"#utility.yul\":24129:24147   */\n      add\n        /* \"#utility.yul\":24120:24126   */\n      dup7\n        /* \"#utility.yul\":24076:24148   */\n      tag_495\n      jump\t// in\n    tag_675:\n        /* \"#utility.yul\":24158:24230   */\n      tag_676\n        /* \"#utility.yul\":24226:24228   */\n      0x40\n        /* \"#utility.yul\":24215:24224   */\n      dup4\n        /* \"#utility.yul\":24211:24229   */\n      add\n        /* \"#utility.yul\":24202:24208   */\n      dup6\n        /* \"#utility.yul\":24158:24230   */\n      tag_630\n      jump\t// in\n    tag_676:\n        /* \"#utility.yul\":24240:24312   */\n      tag_677\n        /* \"#utility.yul\":24308:24310   */\n      0x60\n        /* \"#utility.yul\":24297:24306   */\n      dup4\n        /* \"#utility.yul\":24293:24311   */\n      add\n        /* \"#utility.yul\":24284:24290   */\n      dup5\n        /* \"#utility.yul\":24240:24312   */\n      tag_630\n      jump\t// in\n    tag_677:\n        /* \"#utility.yul\":23675:24319   */\n      swap6\n      swap5\n      pop\n      pop\n      pop\n      pop\n      pop\n      jump\t// out\n        /* \"#utility.yul\":24325:24854   */\n    tag_147:\n        /* \"#utility.yul\":24492:24496   */\n      0x00\n        /* \"#utility.yul\":24530:24532   */\n      0x60\n        /* \"#utility.yul\":24519:24528   */\n      dup3\n        /* \"#utility.yul\":24515:24533   */\n      add\n        /* \"#utility.yul\":24507:24533   */\n      swap1\n      pop\n        /* \"#utility.yul\":24579:24588   */\n      dup2\n        /* \"#utility.yul\":24573:24577   */\n      dup2\n        /* \"#utility.yul\":24569:24589   */\n      sub\n        /* \"#utility.yul\":24565:24566   */\n      0x00\n        /* \"#utility.yul\":24554:24563   */\n      dup4\n        /* \"#utility.yul\":24550:24567   */\n      add\n        /* \"#utility.yul\":24543:24590   */\n      mstore\n        /* \"#utility.yul\":24607:24685   */\n      tag_679\n        /* \"#utility.yul\":24680:24684   */\n      dup2\n        /* \"#utility.yul\":24671:24677   */\n      dup7\n        /* \"#utility.yul\":24607:24685   */\n      tag_542\n      jump\t// in\n    tag_679:\n        /* \"#utility.yul\":24599:24685   */\n      swap1\n      pop\n        /* \"#utility.yul\":24695:24765   */\n      tag_680\n        /* \"#utility.yul\":24761:24763   */\n      0x20\n        /* \"#utility.yul\":24750:24759   */\n      dup4\n        /* \"#utility.yul\":24746:24764   */\n      add\n        /* \"#utility.yul\":24737:24743   */\n      dup6\n        /* \"#utility.yul\":24695:24765   */\n      tag_531\n      jump\t// in\n    tag_680:\n        /* \"#utility.yul\":24775:24847   */\n      tag_681\n        /* \"#utility.yul\":24843:24845   */\n      0x40\n        /* \"#utility.yul\":24832:24841   */\n      dup4\n        /* \"#utility.yul\":24828:24846   */\n      add\n        /* \"#utility.yul\":24819:24825   */\n      dup5\n        /* \"#utility.yul\":24775:24847   */\n      tag_630\n      jump\t// in\n    tag_681:\n        /* \"#utility.yul\":24325:24854   */\n      swap5\n      swap4\n      pop\n      pop\n      pop\n      pop\n      jump\t// out\n        /* \"#utility.yul\":24860:25279   */\n    tag_157:\n        /* \"#utility.yul\":25026:25030   */\n      0x00\n        /* \"#utility.yul\":25064:25066   */\n      0x20\n        /* \"#utility.yul\":25053:25062   */\n      dup3\n        /* \"#utility.yul\":25049:25067   */\n      add\n        /* \"#utility.yul\":25041:25067   */\n      swap1\n      pop\n        /* \"#utility.yul\":25113:25122   */\n      dup2\n        /* \"#utility.yul\":25107:25111   */\n      dup2\n        /* \"#utility.yul\":25103:25123   */\n      sub\n        /* \"#utility.yul\":25099:25100   */\n      0x00\n        /* \"#utility.yul\":25088:25097   */\n      dup4\n        /* \"#utility.yul\":25084:25101   */\n      add\n        /* \"#utility.yul\":25077:25124   */\n      mstore\n        /* \"#utility.yul\":25141:25272   */\n      tag_683\n        /* \"#utility.yul\":25267:25271   */\n      dup2\n        /* \"#utility.yul\":25141:25272   */\n      tag_567\n      jump\t// in\n    tag_683:\n        /* \"#utility.yul\":25133:25272   */\n      swap1\n      pop\n        /* \"#utility.yul\":24860:25279   */\n      swap2\n      swap1\n      pop\n      jump\t// out\n        /* \"#utility.yul\":25285:25704   */\n    tag_343:\n        /* \"#utility.yul\":25451:25455   */\n      0x00\n        /* \"#utility.yul\":25489:25491   */\n      0x20\n        /* \"#utility.yul\":25478:25487   */\n      dup3\n        /* \"#utility.yul\":25474:25492   */\n      add\n        /* \"#utility.yul\":25466:25492   */\n      swap1\n      pop\n        /* \"#utility.yul\":25538:25547   */\n      dup2\n        /* \"#utility.yul\":25532:25536   */\n      dup2\n        /* \"#utility.yul\":25528:25548   */\n      sub\n        /* \"#utility.yul\":25524:25525   */\n      0x00\n        /* \"#utility.yul\":25513:25522   */\n      dup4\n        /* \"#utility.yul\":25509:25526   */\n      add\n        /* \"#utility.yul\":25502:25549   */\n      mstore\n        /* \"#utility.yul\":25566:25697   */\n      tag_685\n        /* \"#utility.yul\":25692:25696   */\n      dup2\n        /* \"#utility.yul\":25566:25697   */\n      tag_572\n      jump\t// in\n    tag_685:\n        /* \"#utility.yul\":25558:25697   */\n      swap1\n      pop\n        /* \"#utility.yul\":25285:25704   */\n      swap2\n      swap1\n      pop\n      jump\t// out\n        /* \"#utility.yul\":25710:26129   */\n    tag_233:\n        /* \"#utility.yul\":25876:25880   */\n      0x00\n        /* \"#utility.yul\":25914:25916   */\n      0x20\n        /* \"#utility.yul\":25903:25912   */\n      dup3\n        /* \"#utility.yul\":25899:25917   */\n      add\n        /* \"#utility.yul\":25891:25917   */\n      swap1\n      pop\n        /* \"#utility.yul\":25963:25972   */\n      dup2\n        /* \"#utility.yul\":25957:25961   */\n      dup2\n        /* \"#utility.yul\":25953:25973   */\n      sub\n        /* \"#utility.yul\":25949:25950   */\n      0x00\n        /* \"#utility.yul\":25938:25947   */\n      dup4\n        /* \"#utility.yul\":25934:25951   */\n      add\n        /* \"#utility.yul\":25927:25974   */\n      mstore\n        /* \"#utility.yul\":25991:26122   */\n      tag_687\n        /* \"#utility.yul\":26117:26121   */\n      dup2\n        /* \"#utility.yul\":25991:26122   */\n      tag_577\n      jump\t// in\n    tag_687:\n        /* \"#utility.yul\":25983:26122   */\n      swap1\n      pop\n        /* \"#utility.yul\":25710:26129   */\n      swap2\n      swap1\n      pop\n      jump\t// out\n        /* \"#utility.yul\":26135:26554   */\n    tag_307:\n        /* \"#utility.yul\":26301:26305   */\n      0x00\n        /* \"#utility.yul\":26339:26341   */\n      0x20\n        /* \"#utility.yul\":26328:26337   */\n      dup3\n        /* \"#utility.yul\":26324:26342   */\n      add\n        /* \"#utility.yul\":26316:26342   */\n      swap1\n      pop\n        /* \"#utility.yul\":26388:26397   */\n      dup2\n        /* \"#utility.yul\":26382:26386   */\n      dup2\n        /* \"#utility.yul\":26378:26398   */\n      sub\n        /* \"#utility.yul\":26374:26375   */\n      0x00\n        /* \"#utility.yul\":26363:26372   */\n      dup4\n        /* \"#utility.yul\":26359:26376   */\n      add\n        /* \"#utility.yul\":26352:26399   */\n      mstore\n        /* \"#utility.yul\":26416:26547   */\n      tag_689\n        /* \"#utility.yul\":26542:26546   */\n      dup2\n        /* \"#utility.yul\":26416:26547   */\n      tag_582\n      jump\t// in\n    tag_689:\n        /* \"#utility.yul\":26408:26547   */\n      swap1\n      pop\n        /* \"#utility.yul\":26135:26554   */\n      swap2\n      swap1\n      pop\n      jump\t// out\n        /* \"#utility.yul\":26560:26979   */\n    tag_230:\n        /* \"#utility.yul\":26726:26730   */\n      0x00\n        /* \"#utility.yul\":26764:26766   */\n      0x20\n        /* \"#utility.yul\":26753:26762   */\n      dup3\n        /* \"#utility.yul\":26749:26767   */\n      add\n        /* \"#utility.yul\":26741:26767   */\n      swap1\n      pop\n        /* \"#utility.yul\":26813:26822   */\n      dup2\n        /* \"#utility.yul\":26807:26811   */\n      dup2\n        /* \"#utility.yul\":26803:26823   */\n      sub\n        /* \"#utility.yul\":26799:26800   */\n      0x00\n        /* \"#utility.yul\":26788:26797   */\n      dup4\n        /* \"#utility.yul\":26784:26801   */\n      add\n        /* \"#utility.yul\":26777:26824   */\n      mstore\n        /* \"#utility.yul\":26841:26972   */\n      tag_691\n        /* \"#utility.yul\":26967:26971   */\n      dup2\n        /* \"#utility.yul\":26841:26972   */\n      tag_592\n      jump\t// in\n    tag_691:\n        /* \"#utility.yul\":26833:26972   */\n      swap1\n      pop\n        /* \"#utility.yul\":26560:26979   */\n      swap2\n      swap1\n      pop\n      jump\t// out\n        /* \"#utility.yul\":26985:27404   */\n    tag_216:\n        /* \"#utility.yul\":27151:27155   */\n      0x00\n        /* \"#utility.yul\":27189:27191   */\n      0x20\n        /* \"#utility.yul\":27178:27187   */\n      dup3\n        /* \"#utility.yul\":27174:27192   */\n      add\n        /* \"#utility.yul\":27166:27192   */\n      swap1\n      pop\n        /* \"#utility.yul\":27238:27247   */\n      dup2\n        /* \"#utility.yul\":27232:27236   */\n      dup2\n        /* \"#utility.yul\":27228:27248   */\n      sub\n        /* \"#utility.yul\":27224:27225   */\n      0x00\n        /* \"#utility.yul\":27213:27222   */\n      dup4\n        /* \"#utility.yul\":27209:27226   */\n      add\n        /* \"#utility.yul\":27202:27249   */\n      mstore\n        /* \"#utility.yul\":27266:27397   */\n      tag_693\n        /* \"#utility.yul\":27392:27396   */\n      dup2\n        /* \"#utility.yul\":27266:27397   */\n      tag_597\n      jump\t// in\n    tag_693:\n        /* \"#utility.yul\":27258:27397   */\n      swap1\n      pop\n        /* \"#utility.yul\":26985:27404   */\n      swap2\n      swap1\n      pop\n      jump\t// out\n        /* \"#utility.yul\":27410:27829   */\n    tag_128:\n        /* \"#utility.yul\":27576:27580   */\n      0x00\n        /* \"#utility.yul\":27614:27616   */\n      0x20\n        /* \"#utility.yul\":27603:27612   */\n      dup3\n        /* \"#utility.yul\":27599:27617   */\n      add\n        /* \"#utility.yul\":27591:27617   */\n      swap1\n      pop\n        /* \"#utility.yul\":27663:27672   */\n      dup2\n        /* \"#utility.yul\":27657:27661   */\n      dup2\n        /* \"#utility.yul\":27653:27673   */\n      sub\n        /* \"#utility.yul\":27649:27650   */\n      0x00\n        /* \"#utility.yul\":27638:27647   */\n      dup4\n        /* \"#utility.yul\":27634:27651   */\n      add\n        /* \"#utility.yul\":27627:27674   */\n      mstore\n        /* \"#utility.yul\":27691:27822   */\n      tag_695\n        /* \"#utility.yul\":27817:27821   */\n      dup2\n        /* \"#utility.yul\":27691:27822   */\n      tag_612\n      jump\t// in\n    tag_695:\n        /* \"#utility.yul\":27683:27822   */\n      swap1\n      pop\n        /* \"#utility.yul\":27410:27829   */\n      swap2\n      swap1\n      pop\n      jump\t// out\n        /* \"#utility.yul\":27835:28254   */\n    tag_213:\n        /* \"#utility.yul\":28001:28005   */\n      0x00\n        /* \"#utility.yul\":28039:28041   */\n      0x20\n        /* \"#utility.yul\":28028:28037   */\n      dup3\n        /* \"#utility.yul\":28024:28042   */\n      add\n        /* \"#utility.yul\":28016:28042   */\n      swap1\n      pop\n        /* \"#utility.yul\":28088:28097   */\n      dup2\n        /* \"#utility.yul\":28082:28086   */\n      dup2\n        /* \"#utility.yul\":28078:28098   */\n      sub\n        /* \"#utility.yul\":28074:28075   */\n      0x00\n        /* \"#utility.yul\":28063:28072   */\n      dup4\n        /* \"#utility.yul\":28059:28076   */\n      add\n        /* \"#utility.yul\":28052:28099   */\n      mstore\n        /* \"#utility.yul\":28116:28247   */\n      tag_697\n        /* \"#utility.yul\":28242:28246   */\n      dup2\n        /* \"#utility.yul\":28116:28247   */\n      tag_617\n      jump\t// in\n    tag_697:\n        /* \"#utility.yul\":28108:28247   */\n      swap1\n      pop\n        /* \"#utility.yul\":27835:28254   */\n      swap2\n      swap1\n      pop\n      jump\t// out\n        /* \"#utility.yul\":28260:28661   */\n    tag_203:\n        /* \"#utility.yul\":28417:28421   */\n      0x00\n        /* \"#utility.yul\":28455:28457   */\n      0x20\n        /* \"#utility.yul\":28444:28453   */\n      dup3\n        /* \"#utility.yul\":28440:28458   */\n      add\n        /* \"#utility.yul\":28432:28458   */\n      swap1\n      pop\n        /* \"#utility.yul\":28504:28513   */\n      dup2\n        /* \"#utility.yul\":28498:28502   */\n      dup2\n        /* \"#utility.yul\":28494:28514   */\n      sub\n        /* \"#utility.yul\":28490:28491   */\n      0x00\n        /* \"#utility.yul\":28479:28488   */\n      dup4\n        /* \"#utility.yul\":28475:28492   */\n      add\n        /* \"#utility.yul\":28468:28515   */\n      mstore\n        /* \"#utility.yul\":28532:28654   */\n      tag_699\n        /* \"#utility.yul\":28649:28653   */\n      dup2\n        /* \"#utility.yul\":28640:28646   */\n      dup5\n        /* \"#utility.yul\":28532:28654   */\n      tag_622\n      jump\t// in\n    tag_699:\n        /* \"#utility.yul\":28524:28654   */\n      swap1\n      pop\n        /* \"#utility.yul\":28260:28661   */\n      swap3\n      swap2\n      pop\n      pop\n      jump\t// out\n        /* \"#utility.yul\":28667:28796   */\n    tag_371:\n        /* \"#utility.yul\":28701:28707   */\n      0x00\n        /* \"#utility.yul\":28728:28748   */\n      tag_701\n      tag_702\n      jump\t// in\n    tag_701:\n        /* \"#utility.yul\":28718:28748   */\n      swap1\n      pop\n        /* \"#utility.yul\":28757:28790   */\n      tag_703\n        /* \"#utility.yul\":28785:28789   */\n      dup3\n        /* \"#utility.yul\":28777:28783   */\n      dup3\n        /* \"#utility.yul\":28757:28790   */\n      tag_704\n      jump\t// in\n    tag_703:\n        /* \"#utility.yul\":28667:28796   */\n      swap2\n      swap1\n      pop\n      jump\t// out\n        /* \"#utility.yul\":28802:28877   */\n    tag_702:\n        /* \"#utility.yul\":28835:28841   */\n      0x00\n        /* \"#utility.yul\":28868:28870   */\n      0x40\n        /* \"#utility.yul\":28862:28871   */\n      mload\n        /* \"#utility.yul\":28852:28871   */\n      swap1\n      pop\n        /* \"#utility.yul\":28802:28877   */\n      swap1\n      jump\t// out\n        /* \"#utility.yul\":28883:29191   */\n    tag_370:\n        /* \"#utility.yul\":28945:28949   */\n      0x00\n        /* \"#utility.yul\":29035:29053   */\n      0xffffffffffffffff\n        /* \"#utility.yul\":29027:29033   */\n      dup3\n        /* \"#utility.yul\":29024:29054   */\n      gt\n        /* \"#utility.yul\":29021:29077   */\n      iszero\n      tag_707\n      jumpi\n        /* \"#utility.yul\":29057:29075   */\n      tag_708\n      tag_324\n      jump\t// in\n    tag_708:\n        /* \"#utility.yul\":29021:29077   */\n    tag_707:\n        /* \"#utility.yul\":29095:29124   */\n      tag_709\n        /* \"#utility.yul\":29117:29123   */\n      dup3\n        /* \"#utility.yul\":29095:29124   */\n      tag_530\n      jump\t// in\n    tag_709:\n        /* \"#utility.yul\":29087:29124   */\n      swap1\n      pop\n        /* \"#utility.yul\":29179:29183   */\n      0x20\n        /* \"#utility.yul\":29173:29177   */\n      dup2\n        /* \"#utility.yul\":29169:29184   */\n      add\n        /* \"#utility.yul\":29161:29184   */\n      swap1\n      pop\n        /* \"#utility.yul\":28883:29191   */\n      swap2\n      swap1\n      pop\n      jump\t// out\n        /* \"#utility.yul\":29197:29339   */\n    tag_506:\n        /* \"#utility.yul\":29274:29278   */\n      0x00\n        /* \"#utility.yul\":29297:29300   */\n      dup2\n        /* \"#utility.yul\":29289:29300   */\n      swap1\n      pop\n        /* \"#utility.yul\":29327:29331   */\n      0x20\n        /* \"#utility.yul\":29322:29325   */\n      dup3\n        /* \"#utility.yul\":29318:29332   */\n      add\n        /* \"#utility.yul\":29310:29332   */\n      swap1\n      pop\n        /* \"#utility.yul\":29197:29339   */\n      swap2\n      swap1\n      pop\n      jump\t// out\n        /* \"#utility.yul\":29345:29486   */\n    tag_563:\n        /* \"#utility.yul\":29394:29398   */\n      0x00\n        /* \"#utility.yul\":29417:29420   */\n      dup2\n        /* \"#utility.yul\":29409:29420   */\n      swap1\n      pop\n        /* \"#utility.yul\":29440:29443   */\n      dup2\n        /* \"#utility.yul\":29437:29438   */\n      0x00\n        /* \"#utility.yul\":29430:29444   */\n      mstore\n        /* \"#utility.yul\":29474:29478   */\n      0x20\n        /* \"#utility.yul\":29471:29472   */\n      0x00\n        /* \"#utility.yul\":29461:29479   */\n      keccak256\n        /* \"#utility.yul\":29453:29479   */\n      swap1\n      pop\n        /* \"#utility.yul\":29345:29486   */\n      swap2\n      swap1\n      pop\n      jump\t// out\n        /* \"#utility.yul\":29492:29616   */\n    tag_502:\n        /* \"#utility.yul\":29569:29575   */\n      0x00\n        /* \"#utility.yul\":29603:29608   */\n      dup2\n        /* \"#utility.yul\":29597:29609   */\n      mload\n        /* \"#utility.yul\":29587:29609   */\n      swap1\n      pop\n        /* \"#utility.yul\":29492:29616   */\n      swap2\n      swap1\n      pop\n      jump\t// out\n        /* \"#utility.yul\":29622:29720   */\n    tag_524:\n        /* \"#utility.yul\":29673:29679   */\n      0x00\n        /* \"#utility.yul\":29707:29712   */\n      dup2\n        /* \"#utility.yul\":29701:29713   */\n      mload\n        /* \"#utility.yul\":29691:29713   */\n      swap1\n      pop\n        /* \"#utility.yul\":29622:29720   */\n      swap2\n      swap1\n      pop\n      jump\t// out\n        /* \"#utility.yul\":29726:29825   */\n    tag_537:\n        /* \"#utility.yul\":29778:29784   */\n      0x00\n        /* \"#utility.yul\":29812:29817   */\n      dup2\n        /* \"#utility.yul\":29806:29818   */\n      mload\n        /* \"#utility.yul\":29796:29818   */\n      swap1\n      pop\n        /* \"#utility.yul\":29726:29825   */\n      swap2\n      swap1\n      pop\n      jump\t// out\n        /* \"#utility.yul\":29831:29954   */\n    tag_512:\n        /* \"#utility.yul\":29911:29915   */\n      0x00\n        /* \"#utility.yul\":29943:29947   */\n      0x20\n        /* \"#utility.yul\":29938:29941   */\n      dup3\n        /* \"#utility.yul\":29934:29948   */\n      add\n        /* \"#utility.yul\":29926:29948   */\n      swap1\n      pop\n        /* \"#utility.yul\":29831:29954   */\n      swap2\n      swap1\n      pop\n      jump\t// out\n        /* \"#utility.yul\":29960:30154   */\n    tag_504:\n        /* \"#utility.yul\":30069:30080   */\n      0x00\n        /* \"#utility.yul\":30103:30109   */\n      dup3\n        /* \"#utility.yul\":30098:30101   */\n      dup3\n        /* \"#utility.yul\":30091:30110   */\n      mstore\n        /* \"#utility.yul\":30143:30147   */\n      0x20\n        /* \"#utility.yul\":30138:30141   */\n      dup3\n        /* \"#utility.yul\":30134:30148   */\n      add\n        /* \"#utility.yul\":30119:30148   */\n      swap1\n      pop\n        /* \"#utility.yul\":29960:30154   */\n      swap3\n      swap2\n      pop\n      pop\n      jump\t// out\n        /* \"#utility.yul\":30160:30328   */\n    tag_526:\n        /* \"#utility.yul\":30243:30254   */\n      0x00\n        /* \"#utility.yul\":30277:30283   */\n      dup3\n        /* \"#utility.yul\":30272:30275   */\n      dup3\n        /* \"#utility.yul\":30265:30284   */\n      mstore\n        /* \"#utility.yul\":30317:30321   */\n      0x20\n        /* \"#utility.yul\":30312:30315   */\n      dup3\n        /* \"#utility.yul\":30308:30322   */\n      add\n        /* \"#utility.yul\":30293:30322   */\n      swap1\n      pop\n        /* \"#utility.yul\":30160:30328   */\n      swap3\n      swap2\n      pop\n      pop\n      jump\t// out\n        /* \"#utility.yul\":30334:30493   */\n    tag_539:\n        /* \"#utility.yul\":30408:30419   */\n      0x00\n        /* \"#utility.yul\":30442:30448   */\n      dup3\n        /* \"#utility.yul\":30437:30440   */\n      dup3\n        /* \"#utility.yul\":30430:30449   */\n      mstore\n        /* \"#utility.yul\":30482:30486   */\n      0x20\n        /* \"#utility.yul\":30477:30480   */\n      dup3\n        /* \"#utility.yul\":30473:30487   */\n      add\n        /* \"#utility.yul\":30458:30487   */\n      swap1\n      pop\n        /* \"#utility.yul\":30334:30493   */\n      swap3\n      swap2\n      pop\n      pop\n      jump\t// out\n        /* \"#utility.yul\":30499:30668   */\n    tag_546:\n        /* \"#utility.yul\":30583:30594   */\n      0x00\n        /* \"#utility.yul\":30617:30623   */\n      dup3\n        /* \"#utility.yul\":30612:30615   */\n      dup3\n        /* \"#utility.yul\":30605:30624   */\n      mstore\n        /* \"#utility.yul\":30657:30661   */\n      0x20\n        /* \"#utility.yul\":30652:30655   */\n      dup3\n        /* \"#utility.yul\":30648:30662   */\n      add\n        /* \"#utility.yul\":30633:30662   */\n      swap1\n      pop\n        /* \"#utility.yul\":30499:30668   */\n      swap3\n      swap2\n      pop\n      pop\n      jump\t// out\n        /* \"#utility.yul\":30674:30822   */\n    tag_553:\n        /* \"#utility.yul\":30776:30787   */\n      0x00\n        /* \"#utility.yul\":30813:30816   */\n      dup2\n        /* \"#utility.yul\":30798:30816   */\n      swap1\n      pop\n        /* \"#utility.yul\":30674:30822   */\n      swap3\n      swap2\n      pop\n      pop\n      jump\t// out\n        /* \"#utility.yul\":30828:31133   */\n    tag_321:\n        /* \"#utility.yul\":30868:30871   */\n      0x00\n        /* \"#utility.yul\":30887:30907   */\n      tag_722\n        /* \"#utility.yul\":30905:30906   */\n      dup3\n        /* \"#utility.yul\":30887:30907   */\n      tag_629\n      jump\t// in\n    tag_722:\n        /* \"#utility.yul\":30882:30907   */\n      swap2\n      pop\n        /* \"#utility.yul\":30921:30941   */\n      tag_723\n        /* \"#utility.yul\":30939:30940   */\n      dup4\n        /* \"#utility.yul\":30921:30941   */\n      tag_629\n      jump\t// in\n    tag_723:\n        /* \"#utility.yul\":30916:30941   */\n      swap3\n      pop\n        /* \"#utility.yul\":31075:31076   */\n      dup3\n        /* \"#utility.yul\":31007:31073   */\n      0xffffffffffffffffffffffffffffffffffffffffffffffffffffffffffffffff\n        /* \"#utility.yul\":31003:31077   */\n      sub\n        /* \"#utility.yul\":31000:31001   */\n      dup3\n        /* \"#utility.yul\":30997:31078   */\n      gt\n        /* \"#utility.yul\":30994:31101   */\n      iszero\n      tag_724\n      jumpi\n        /* \"#utility.yul\":31081:31099   */\n      tag_725\n      tag_726\n      jump\t// in\n    tag_725:\n        /* \"#utility.yul\":30994:31101   */\n    tag_724:\n        /* \"#utility.yul\":31125:31126   */\n      dup3\n        /* \"#utility.yul\":31122:31123   */\n      dup3\n        /* \"#utility.yul\":31118:31127   */\n      add\n        /* \"#utility.yul\":31111:31127   */\n      swap1\n      pop\n        /* \"#utility.yul\":30828:31133   */\n      swap3\n      swap2\n      pop\n      pop\n      jump\t// out\n        /* \"#utility.yul\":31139:31487   */\n    tag_319:\n        /* \"#utility.yul\":31179:31186   */\n      0x00\n        /* \"#utility.yul\":31202:31222   */\n      tag_728\n        /* \"#utility.yul\":31220:31221   */\n      dup3\n        /* \"#utility.yul\":31202:31222   */\n      tag_629\n      jump\t// in\n    tag_728:\n        /* \"#utility.yul\":31197:31222   */\n      swap2\n      pop\n        /* \"#utility.yul\":31236:31256   */\n      tag_729\n        /* \"#utility.yul\":31254:31255   */\n      dup4\n        /* \"#utility.yul\":31236:31256   */\n      tag_629\n      jump\t// in\n    tag_729:\n        /* \"#utility.yul\":31231:31256   */\n      swap3\n      pop\n        /* \"#utility.yul\":31424:31425   */\n      dup2\n        /* \"#utility.yul\":31356:31422   */\n      0xffffffffffffffffffffffffffffffffffffffffffffffffffffffffffffffff\n        /* \"#utility.yul\":31352:31426   */\n      div\n        /* \"#utility.yul\":31349:31350   */\n      dup4\n        /* \"#utility.yul\":31346:31427   */\n      gt\n        /* \"#utility.yul\":31341:31342   */\n      dup3\n        /* \"#utility.yul\":31334:31343   */\n      iszero\n        /* \"#utility.yul\":31327:31344   */\n      iszero\n        /* \"#utility.yul\":31323:31428   */\n      and\n        /* \"#utility.yul\":31320:31451   */\n      iszero\n      tag_730\n      jumpi\n        /* \"#utility.yul\":31431:31449   */\n      tag_731\n      tag_726\n      jump\t// in\n    tag_731:\n        /* \"#utility.yul\":31320:31451   */\n    tag_730:\n        /* \"#utility.yul\":31479:31480   */\n      dup3\n        /* \"#utility.yul\":31476:31477   */\n      dup3\n        /* \"#utility.yul\":31472:31481   */\n      mul\n        /* \"#utility.yul\":31461:31481   */\n      swap1\n      pop\n        /* \"#utility.yul\":31139:31487   */\n      swap3\n      swap2\n      pop\n      pop\n      jump\t// out\n        /* \"#utility.yul\":31493:31684   */\n    tag_271:\n        /* \"#utility.yul\":31533:31537   */\n      0x00\n        /* \"#utility.yul\":31553:31573   */\n      tag_733\n        /* \"#utility.yul\":31571:31572   */\n      dup3\n        /* \"#utility.yul\":31553:31573   */\n      tag_629\n      jump\t// in\n    tag_733:\n        /* \"#utility.yul\":31548:31573   */\n      swap2\n      pop\n        /* \"#utility.yul\":31587:31607   */\n      tag_734\n        /* \"#utility.yul\":31605:31606   */\n      dup4\n        /* \"#utility.yul\":31587:31607   */\n      tag_629\n      jump\t// in\n    tag_734:\n        /* \"#utility.yul\":31582:31607   */\n      swap3\n      pop\n        /* \"#utility.yul\":31626:31627   */\n      dup3\n        /* \"#utility.yul\":31623:31624   */\n      dup3\n        /* \"#utility.yul\":31620:31628   */\n      lt\n        /* \"#utility.yul\":31617:31651   */\n      iszero\n      tag_735\n      jumpi\n        /* \"#utility.yul\":31631:31649   */\n      tag_736\n      tag_726\n      jump\t// in\n    tag_736:\n        /* \"#utility.yul\":31617:31651   */\n    tag_735:\n        /* \"#utility.yul\":31676:31677   */\n      dup3\n        /* \"#utility.yul\":31673:31674   */\n      dup3\n        /* \"#utility.yul\":31669:31678   */\n      sub\n        /* \"#utility.yul\":31661:31678   */\n      swap1\n      pop\n        /* \"#utility.yul\":31493:31684   */\n      swap3\n      swap2\n      pop\n      pop\n      jump\t// out\n        /* \"#utility.yul\":31690:31786   */\n    tag_498:\n        /* \"#utility.yul\":31727:31734   */\n      0x00\n        /* \"#utility.yul\":31756:31780   */\n      tag_738\n        /* \"#utility.yul\":31774:31779   */\n      dup3\n        /* \"#utility.yul\":31756:31780   */\n      tag_739\n      jump\t// in\n    tag_738:\n        /* \"#utility.yul\":31745:31780   */\n      swap1\n      pop\n        /* \"#utility.yul\":31690:31786   */\n      swap2\n      swap1\n      pop\n      jump\t// out\n        /* \"#utility.yul\":31792:31882   */\n    tag_516:\n        /* \"#utility.yul\":31826:31833   */\n      0x00\n        /* \"#utility.yul\":31869:31874   */\n      dup2\n        /* \"#utility.yul\":31862:31875   */\n      iszero\n        /* \"#utility.yul\":31855:31876   */\n      iszero\n        /* \"#utility.yul\":31844:31876   */\n      swap1\n      pop\n        /* \"#utility.yul\":31792:31882   */\n      swap2\n      swap1\n      pop\n      jump\t// out\n        /* \"#utility.yul\":31888:31965   */\n    tag_520:\n        /* \"#utility.yul\":31925:31932   */\n      0x00\n        /* \"#utility.yul\":31954:31959   */\n      dup2\n        /* \"#utility.yul\":31943:31959   */\n      swap1\n      pop\n        /* \"#utility.yul\":31888:31965   */\n      swap2\n      swap1\n      pop\n      jump\t// out\n        /* \"#utility.yul\":31971:32120   */\n    tag_742:\n        /* \"#utility.yul\":32007:32014   */\n      0x00\n        /* \"#utility.yul\":32047:32113   */\n      0xffffffff00000000000000000000000000000000000000000000000000000000\n        /* \"#utility.yul\":32040:32045   */\n      dup3\n        /* \"#utility.yul\":32036:32114   */\n      and\n        /* \"#utility.yul\":32025:32114   */\n      swap1\n      pop\n        /* \"#utility.yul\":31971:32120   */\n      swap2\n      swap1\n      pop\n      jump\t// out\n        /* \"#utility.yul\":32126:32202   */\n    tag_534:\n        /* \"#utility.yul\":32162:32169   */\n      0x00\n        /* \"#utility.yul\":32191:32196   */\n      dup2\n        /* \"#utility.yul\":32180:32196   */\n      swap1\n      pop\n        /* \"#utility.yul\":32126:32202   */\n      swap2\n      swap1\n      pop\n      jump\t// out\n        /* \"#utility.yul\":32208:32334   */\n    tag_739:\n        /* \"#utility.yul\":32245:32252   */\n      0x00\n        /* \"#utility.yul\":32285:32327   */\n      0xffffffffffffffffffffffffffffffffffffffff\n        /* \"#utility.yul\":32278:32283   */\n      dup3\n        /* \"#utility.yul\":32274:32328   */\n      and\n        /* \"#utility.yul\":32263:32328   */\n      swap1\n      pop\n        /* \"#utility.yul\":32208:32334   */\n      swap2\n      swap1\n      pop\n      jump\t// out\n        /* \"#utility.yul\":32340:32417   */\n    tag_629:\n        /* \"#utility.yul\":32377:32384   */\n      0x00\n        /* \"#utility.yul\":32406:32411   */\n      dup2\n        /* \"#utility.yul\":32395:32411   */\n      swap1\n      pop\n        /* \"#utility.yul\":32340:32417   */\n      swap2\n      swap1\n      pop\n      jump\t// out\n        /* \"#utility.yul\":32423:32528   */\n    tag_747:\n        /* \"#utility.yul\":32459:32466   */\n      0x00\n        /* \"#utility.yul\":32499:32521   */\n      0xffffffffffffffffffff\n        /* \"#utility.yul\":32492:32497   */\n      dup3\n        /* \"#utility.yul\":32488:32522   */\n      and\n        /* \"#utility.yul\":32477:32522   */\n      swap1\n      pop\n        /* \"#utility.yul\":32423:32528   */\n      swap2\n      swap1\n      pop\n      jump\t// out\n        /* \"#utility.yul\":32534:32688   */\n    tag_376:\n        /* \"#utility.yul\":32618:32624   */\n      dup3\n        /* \"#utility.yul\":32613:32616   */\n      dup2\n        /* \"#utility.yul\":32608:32611   */\n      dup4\n        /* \"#utility.yul\":32595:32625   */\n      calldatacopy\n        /* \"#utility.yul\":32680:32681   */\n      0x00\n        /* \"#utility.yul\":32671:32677   */\n      dup4\n        /* \"#utility.yul\":32666:32669   */\n      dup4\n        /* \"#utility.yul\":32662:32678   */\n      add\n        /* \"#utility.yul\":32655:32682   */\n      mstore\n        /* \"#utility.yul\":32534:32688   */\n      pop\n      pop\n      pop\n      jump\t// out\n        /* \"#utility.yul\":32694:33001   */\n    tag_528:\n        /* \"#utility.yul\":32762:32763   */\n      0x00\n        /* \"#utility.yul\":32772:32885   */\n    tag_751:\n        /* \"#utility.yul\":32786:32792   */\n      dup4\n        /* \"#utility.yul\":32783:32784   */\n      dup2\n        /* \"#utility.yul\":32780:32793   */\n      lt\n        /* \"#utility.yul\":32772:32885   */\n      iszero\n      tag_753\n      jumpi\n        /* \"#utility.yul\":32871:32872   */\n      dup1\n        /* \"#utility.yul\":32866:32869   */\n      dup3\n        /* \"#utility.yul\":32862:32873   */\n      add\n        /* \"#utility.yul\":32856:32874   */\n      mload\n        /* \"#utility.yul\":32852:32853   */\n      dup2\n        /* \"#utility.yul\":32847:32850   */\n      dup5\n        /* \"#utility.yul\":32843:32854   */\n      add\n        /* \"#utility.yul\":32836:32875   */\n      mstore\n        /* \"#utility.yul\":32808:32810   */\n      0x20\n        /* \"#utility.yul\":32805:32806   */\n      dup2\n        /* \"#utility.yul\":32801:32811   */\n      add\n        /* \"#utility.yul\":32796:32811   */\n      swap1\n      pop\n        /* \"#utility.yul\":32772:32885   */\n      jump(tag_751)\n    tag_753:\n        /* \"#utility.yul\":32903:32909   */\n      dup4\n        /* \"#utility.yul\":32900:32901   */\n      dup2\n        /* \"#utility.yul\":32897:32910   */\n      gt\n        /* \"#utility.yul\":32894:32995   */\n      iszero\n      tag_754\n      jumpi\n        /* \"#utility.yul\":32983:32984   */\n      0x00\n        /* \"#utility.yul\":32974:32980   */\n      dup5\n        /* \"#utility.yul\":32969:32972   */\n      dup5\n        /* \"#utility.yul\":32965:32981   */\n      add\n        /* \"#utility.yul\":32958:32985   */\n      mstore\n        /* \"#utility.yul\":32894:32995   */\n    tag_754:\n        /* \"#utility.yul\":32743:33001   */\n      pop\n        /* \"#utility.yul\":32694:33001   */\n      pop\n      pop\n      pop\n      jump\t// out\n        /* \"#utility.yul\":33007:33178   */\n    tag_340:\n        /* \"#utility.yul\":33046:33049   */\n      0x00\n        /* \"#utility.yul\":33069:33093   */\n      tag_756\n        /* \"#utility.yul\":33087:33092   */\n      dup3\n        /* \"#utility.yul\":33069:33093   */\n      tag_629\n      jump\t// in\n    tag_756:\n        /* \"#utility.yul\":33060:33093   */\n      swap2\n      pop\n        /* \"#utility.yul\":33115:33119   */\n      0x00\n        /* \"#utility.yul\":33108:33113   */\n      dup3\n        /* \"#utility.yul\":33105:33120   */\n      eq\n        /* \"#utility.yul\":33102:33143   */\n      iszero\n      tag_757\n      jumpi\n        /* \"#utility.yul\":33123:33141   */\n      tag_758\n      tag_726\n      jump\t// in\n    tag_758:\n        /* \"#utility.yul\":33102:33143   */\n    tag_757:\n        /* \"#utility.yul\":33170:33171   */\n      0x01\n        /* \"#utility.yul\":33163:33168   */\n      dup3\n        /* \"#utility.yul\":33159:33172   */\n      sub\n        /* \"#utility.yul\":33152:33172   */\n      swap1\n      pop\n        /* \"#utility.yul\":33007:33178   */\n      swap2\n      swap1\n      pop\n      jump\t// out\n        /* \"#utility.yul\":33184:33504   */\n    tag_103:\n        /* \"#utility.yul\":33228:33234   */\n      0x00\n        /* \"#utility.yul\":33265:33266   */\n      0x02\n        /* \"#utility.yul\":33259:33263   */\n      dup3\n        /* \"#utility.yul\":33255:33267   */\n      div\n        /* \"#utility.yul\":33245:33267   */\n      swap1\n      pop\n        /* \"#utility.yul\":33312:33313   */\n      0x01\n        /* \"#utility.yul\":33306:33310   */\n      dup3\n        /* \"#utility.yul\":33302:33314   */\n      and\n        /* \"#utility.yul\":33333:33351   */\n      dup1\n        /* \"#utility.yul\":33323:33404   */\n      tag_760\n      jumpi\n        /* \"#utility.yul\":33389:33393   */\n      0x7f\n        /* \"#utility.yul\":33381:33387   */\n      dup3\n        /* \"#utility.yul\":33377:33394   */\n      and\n        /* \"#utility.yul\":33367:33394   */\n      swap2\n      pop\n        /* \"#utility.yul\":33323:33404   */\n    tag_760:\n        /* \"#utility.yul\":33451:33453   */\n      0x20\n        /* \"#utility.yul\":33443:33449   */\n      dup3\n        /* \"#utility.yul\":33440:33454   */\n      lt\n        /* \"#utility.yul\":33420:33438   */\n      dup2\n        /* \"#utility.yul\":33417:33455   */\n      eq\n        /* \"#utility.yul\":33414:33498   */\n      iszero\n      tag_761\n      jumpi\n        /* \"#utility.yul\":33470:33488   */\n      tag_762\n      tag_763\n      jump\t// in\n    tag_762:\n        /* \"#utility.yul\":33414:33498   */\n    tag_761:\n        /* \"#utility.yul\":33235:33504   */\n      pop\n        /* \"#utility.yul\":33184:33504   */\n      swap2\n      swap1\n      pop\n      jump\t// out\n        /* \"#utility.yul\":33510:33791   */\n    tag_704:\n        /* \"#utility.yul\":33593:33620   */\n      tag_765\n        /* \"#utility.yul\":33615:33619   */\n      dup3\n        /* \"#utility.yul\":33593:33620   */\n      tag_530\n      jump\t// in\n    tag_765:\n        /* \"#utility.yul\":33585:33591   */\n      dup2\n        /* \"#utility.yul\":33581:33621   */\n      add\n        /* \"#utility.yul\":33723:33729   */\n      dup2\n        /* \"#utility.yul\":33711:33721   */\n      dup2\n        /* \"#utility.yul\":33708:33730   */\n      lt\n        /* \"#utility.yul\":33687:33705   */\n      0xffffffffffffffff\n        /* \"#utility.yul\":33675:33685   */\n      dup3\n        /* \"#utility.yul\":33672:33706   */\n      gt\n        /* \"#utility.yul\":33669:33731   */\n      or\n        /* \"#utility.yul\":33666:33754   */\n      iszero\n      tag_766\n      jumpi\n        /* \"#utility.yul\":33734:33752   */\n      tag_767\n      tag_324\n      jump\t// in\n    tag_767:\n        /* \"#utility.yul\":33666:33754   */\n    tag_766:\n        /* \"#utility.yul\":33774:33784   */\n      dup1\n        /* \"#utility.yul\":33770:33772   */\n      0x40\n        /* \"#utility.yul\":33763:33785   */\n      mstore\n        /* \"#utility.yul\":33553:33791   */\n      pop\n        /* \"#utility.yul\":33510:33791   */\n      pop\n      pop\n      jump\t// out\n        /* \"#utility.yul\":33797:34030   */\n    tag_205:\n        /* \"#utility.yul\":33836:33839   */\n      0x00\n        /* \"#utility.yul\":33859:33883   */\n      tag_769\n        /* \"#utility.yul\":33877:33882   */\n      dup3\n        /* \"#utility.yul\":33859:33883   */\n      tag_629\n      jump\t// in\n    tag_769:\n        /* \"#utility.yul\":33850:33883   */\n      swap2\n      pop\n        /* \"#utility.yul\":33905:33971   */\n      0xffffffffffffffffffffffffffffffffffffffffffffffffffffffffffffffff\n        /* \"#utility.yul\":33898:33903   */\n      dup3\n        /* \"#utility.yul\":33895:33972   */\n      eq\n        /* \"#utility.yul\":33892:33995   */\n      iszero\n      tag_770\n      jumpi\n        /* \"#utility.yul\":33975:33993   */\n      tag_771\n      tag_726\n      jump\t// in\n    tag_771:\n        /* \"#utility.yul\":33892:33995   */\n    tag_770:\n        /* \"#utility.yul\":34022:34023   */\n      0x01\n        /* \"#utility.yul\":34015:34020   */\n      dup3\n        /* \"#utility.yul\":34011:34024   */\n      add\n        /* \"#utility.yul\":34004:34024   */\n      swap1\n      pop\n        /* \"#utility.yul\":33797:34030   */\n      swap2\n      swap1\n      pop\n      jump\t// out\n        /* \"#utility.yul\":34036:34216   */\n    tag_726:\n        /* \"#utility.yul\":34084:34161   */\n      0x4e487b7100000000000000000000000000000000000000000000000000000000\n        /* \"#utility.yul\":34081:34082   */\n      0x00\n        /* \"#utility.yul\":34074:34162   */\n      mstore\n        /* \"#utility.yul\":34181:34185   */\n      0x11\n        /* \"#utility.yul\":34178:34179   */\n      0x04\n        /* \"#utility.yul\":34171:34186   */\n      mstore\n        /* \"#utility.yul\":34205:34209   */\n      0x24\n        /* \"#utility.yul\":34202:34203   */\n      0x00\n        /* \"#utility.yul\":34195:34210   */\n      revert\n        /* \"#utility.yul\":34222:34402   */\n    tag_763:\n        /* \"#utility.yul\":34270:34347   */\n      0x4e487b7100000000000000000000000000000000000000000000000000000000\n        /* \"#utility.yul\":34267:34268   */\n      0x00\n        /* \"#utility.yul\":34260:34348   */\n      mstore\n        /* \"#utility.yul\":34367:34371   */\n      0x22\n        /* \"#utility.yul\":34364:34365   */\n      0x04\n        /* \"#utility.yul\":34357:34372   */\n      mstore\n        /* \"#utility.yul\":34391:34395   */\n      0x24\n        /* \"#utility.yul\":34388:34389   */\n      0x00\n        /* \"#utility.yul\":34381:34396   */\n      revert\n        /* \"#utility.yul\":34408:34588   */\n    tag_283:\n        /* \"#utility.yul\":34456:34533   */\n      0x4e487b7100000000000000000000000000000000000000000000000000000000\n        /* \"#utility.yul\":34453:34454   */\n      0x00\n        /* \"#utility.yul\":34446:34534   */\n      mstore\n        /* \"#utility.yul\":34553:34557   */\n      0x31\n        /* \"#utility.yul\":34550:34551   */\n      0x04\n        /* \"#utility.yul\":34543:34558   */\n      mstore\n        /* \"#utility.yul\":34577:34581   */\n      0x24\n        /* \"#utility.yul\":34574:34575   */\n      0x00\n        /* \"#utility.yul\":34567:34582   */\n      revert\n        /* \"#utility.yul\":34594:34774   */\n    tag_173:\n        /* \"#utility.yul\":34642:34719   */\n      0x4e487b7100000000000000000000000000000000000000000000000000000000\n        /* \"#utility.yul\":34639:34640   */\n      0x00\n        /* \"#utility.yul\":34632:34720   */\n      mstore\n        /* \"#utility.yul\":34739:34743   */\n      0x32\n        /* \"#utility.yul\":34736:34737   */\n      0x04\n        /* \"#utility.yul\":34729:34744   */\n      mstore\n        /* \"#utility.yul\":34763:34767   */\n      0x24\n        /* \"#utility.yul\":34760:34761   */\n      0x00\n        /* \"#utility.yul\":34753:34768   */\n      revert\n        /* \"#utility.yul\":34780:34960   */\n    tag_324:\n        /* \"#utility.yul\":34828:34905   */\n      0x4e487b7100000000000000000000000000000000000000000000000000000000\n        /* \"#utility.yul\":34825:34826   */\n      0x00\n        /* \"#utility.yul\":34818:34906   */\n      mstore\n        /* \"#utility.yul\":34925:34929   */\n      0x41\n        /* \"#utility.yul\":34922:34923   */\n      0x04\n        /* \"#utility.yul\":34915:34930   */\n      mstore\n        /* \"#utility.yul\":34949:34953   */\n      0x24\n        /* \"#utility.yul\":34946:34947   */\n      0x00\n        /* \"#utility.yul\":34939:34954   */\n      revert\n        /* \"#utility.yul\":34966:35083   */\n    tag_396:\n        /* \"#utility.yul\":35075:35076   */\n      0x00\n        /* \"#utility.yul\":35072:35073   */\n      dup1\n        /* \"#utility.yul\":35065:35077   */\n      revert\n        /* \"#utility.yul\":35089:35206   */\n    tag_393:\n        /* \"#utility.yul\":35198:35199   */\n      0x00\n        /* \"#utility.yul\":35195:35196   */\n      dup1\n        /* \"#utility.yul\":35188:35200   */\n      revert\n        /* \"#utility.yul\":35212:35329   */\n    tag_413:\n        /* \"#utility.yul\":35321:35322   */\n      0x00\n        /* \"#utility.yul\":35318:35319   */\n      dup1\n        /* \"#utility.yul\":35311:35323   */\n      revert\n        /* \"#utility.yul\":35335:35452   */\n    tag_417:\n        /* \"#utility.yul\":35444:35445   */\n      0x00\n        /* \"#utility.yul\":35441:35442   */\n      dup1\n        /* \"#utility.yul\":35434:35446   */\n      revert\n        /* \"#utility.yul\":35458:35575   */\n    tag_399:\n        /* \"#utility.yul\":35567:35568   */\n      0x00\n        /* \"#utility.yul\":35564:35565   */\n      dup1\n        /* \"#utility.yul\":35557:35569   */\n      revert\n        /* \"#utility.yul\":35581:35698   */\n    tag_374:\n        /* \"#utility.yul\":35690:35691   */\n      0x00\n        /* \"#utility.yul\":35687:35688   */\n      dup1\n        /* \"#utility.yul\":35680:35692   */\n      revert\n        /* \"#utility.yul\":35704:35821   */\n    tag_456:\n        /* \"#utility.yul\":35813:35814   */\n      0x00\n        /* \"#utility.yul\":35810:35811   */\n      dup1\n        /* \"#utility.yul\":35803:35815   */\n      revert\n        /* \"#utility.yul\":35827:35944   */\n    tag_434:\n        /* \"#utility.yul\":35936:35937   */\n      0x00\n        /* \"#utility.yul\":35933:35934   */\n      dup1\n        /* \"#utility.yul\":35926:35938   */\n      revert\n        /* \"#utility.yul\":35950:36052   */\n    tag_530:\n        /* \"#utility.yul\":35991:35997   */\n      0x00\n        /* \"#utility.yul\":36042:36044   */\n      0x1f\n        /* \"#utility.yul\":36038:36045   */\n      not\n        /* \"#utility.yul\":36033:36035   */\n      0x1f\n        /* \"#utility.yul\":36026:36031   */\n      dup4\n        /* \"#utility.yul\":36022:36036   */\n      add\n        /* \"#utility.yul\":36018:36046   */\n      and\n        /* \"#utility.yul\":36008:36046   */\n      swap1\n      pop\n        /* \"#utility.yul\":35950:36052   */\n      swap2\n      swap1\n      pop\n      jump\t// out\n        /* \"#utility.yul\":36058:36280   */\n    tag_571:\n        /* \"#utility.yul\":36198:36232   */\n      0x5468652072657175657374656420444c43206973206e6f7420636c6f73656420\n        /* \"#utility.yul\":36194:36195   */\n      0x00\n        /* \"#utility.yul\":36186:36192   */\n      dup3\n        /* \"#utility.yul\":36182:36196   */\n      add\n        /* \"#utility.yul\":36175:36233   */\n      mstore\n        /* \"#utility.yul\":36267:36272   */\n      0x7965740000000000000000000000000000000000000000000000000000000000\n        /* \"#utility.yul\":36262:36264   */\n      0x20\n        /* \"#utility.yul\":36254:36260   */\n      dup3\n        /* \"#utility.yul\":36250:36265   */\n      add\n        /* \"#utility.yul\":36243:36273   */\n      mstore\n        /* \"#utility.yul\":36058:36280   */\n      pop\n      jump\t// out\n        /* \"#utility.yul\":36286:36468   */\n    tag_576:\n        /* \"#utility.yul\":36426:36460   */\n      0x537472696e67733a20686578206c656e67746820696e73756666696369656e74\n        /* \"#utility.yul\":36422:36423   */\n      0x00\n        /* \"#utility.yul\":36414:36420   */\n      dup3\n        /* \"#utility.yul\":36410:36424   */\n      add\n        /* \"#utility.yul\":36403:36461   */\n      mstore\n        /* \"#utility.yul\":36286:36468   */\n      pop\n      jump\t// out\n        /* \"#utility.yul\":36474:36714   */\n    tag_581:\n        /* \"#utility.yul\":36614:36648   */\n      0x43616e206f6e6c792062652063616c6c65642069662074686520444c43206861\n        /* \"#utility.yul\":36610:36611   */\n      0x00\n        /* \"#utility.yul\":36602:36608   */\n      dup3\n        /* \"#utility.yul\":36598:36612   */\n      add\n        /* \"#utility.yul\":36591:36649   */\n      mstore\n        /* \"#utility.yul\":36683:36706   */\n      0x73206e6f74206265656e20636c6f736564207965740000000000000000000000\n        /* \"#utility.yul\":36678:36680   */\n      0x20\n        /* \"#utility.yul\":36670:36676   */\n      dup3\n        /* \"#utility.yul\":36666:36681   */\n      add\n        /* \"#utility.yul\":36659:36707   */\n      mstore\n        /* \"#utility.yul\":36474:36714   */\n      pop\n      jump\t// out\n        /* \"#utility.yul\":36720:36879   */\n    tag_586:\n        /* \"#utility.yul\":36860:36871   */\n      0x4e6f7420466f756e640000000000000000000000000000000000000000000000\n        /* \"#utility.yul\":36856:36857   */\n      0x00\n        /* \"#utility.yul\":36848:36854   */\n      dup3\n        /* \"#utility.yul\":36844:36858   */\n      add\n        /* \"#utility.yul\":36837:36872   */\n      mstore\n        /* \"#utility.yul\":36720:36879   */\n      pop\n      jump\t// out\n        /* \"#utility.yul\":36885:37118   */\n    tag_591:\n        /* \"#utility.yul\":37025:37059   */\n      0x56616c69646174696f6e206661696c656420666f7220706572666f726d55704b\n        /* \"#utility.yul\":37021:37022   */\n      0x00\n        /* \"#utility.yul\":37013:37019   */\n      dup3\n        /* \"#utility.yul\":37009:37023   */\n      add\n        /* \"#utility.yul\":37002:37060   */\n      mstore\n        /* \"#utility.yul\":37094:37110   */\n      0x65657020666f7220555549443a20000000000000000000000000000000000000\n        /* \"#utility.yul\":37089:37091   */\n      0x20\n        /* \"#utility.yul\":37081:37087   */\n      dup3\n        /* \"#utility.yul\":37077:37092   */\n      add\n        /* \"#utility.yul\":37070:37111   */\n      mstore\n        /* \"#utility.yul\":36885:37118   */\n      pop\n      jump\t// out\n        /* \"#utility.yul\":37124:37353   */\n    tag_596:\n        /* \"#utility.yul\":37264:37298   */\n      0x43616e206f6e6c792062652063616c6c6564206265666f72652074686520636c\n        /* \"#utility.yul\":37260:37261   */\n      0x00\n        /* \"#utility.yul\":37252:37258   */\n      dup3\n        /* \"#utility.yul\":37248:37262   */\n      add\n        /* \"#utility.yul\":37241:37299   */\n      mstore\n        /* \"#utility.yul\":37333:37345   */\n      0x6f73696e672074696d6500000000000000000000000000000000000000000000\n        /* \"#utility.yul\":37328:37330   */\n      0x20\n        /* \"#utility.yul\":37320:37326   */\n      dup3\n        /* \"#utility.yul\":37316:37331   */\n      add\n        /* \"#utility.yul\":37309:37346   */\n      mstore\n        /* \"#utility.yul\":37124:37353   */\n      pop\n      jump\t// out\n        /* \"#utility.yul\":37359:37579   */\n    tag_601:\n        /* \"#utility.yul\":37499:37533   */\n      0x436c6f73696e672074696d652063616e277420626520696e2074686520706173\n        /* \"#utility.yul\":37495:37496   */\n      0x00\n        /* \"#utility.yul\":37487:37493   */\n      dup3\n        /* \"#utility.yul\":37483:37497   */\n      add\n        /* \"#utility.yul\":37476:37534   */\n      mstore\n        /* \"#utility.yul\":37568:37571   */\n      0x7400000000000000000000000000000000000000000000000000000000000000\n        /* \"#utility.yul\":37563:37565   */\n      0x20\n        /* \"#utility.yul\":37555:37561   */\n      dup3\n        /* \"#utility.yul\":37551:37566   */\n      add\n        /* \"#utility.yul\":37544:37572   */\n      mstore\n        /* \"#utility.yul\":37359:37579   */\n      pop\n      jump\t// out\n        /* \"#utility.yul\":37585:37758   */\n    tag_606:\n        /* \"#utility.yul\":37725:37750   */\n      0x416363657373436f6e74726f6c3a206163636f756e7420000000000000000000\n        /* \"#utility.yul\":37721:37722   */\n      0x00\n        /* \"#utility.yul\":37713:37719   */\n      dup3\n        /* \"#utility.yul\":37709:37723   */\n      add\n        /* \"#utility.yul\":37702:37751   */\n      mstore\n        /* \"#utility.yul\":37585:37758   */\n      pop\n      jump\t// out\n        /* \"#utility.yul\":37764:37931   */\n    tag_611:\n        /* \"#utility.yul\":37904:37923   */\n      0x206973206d697373696e6720726f6c6520000000000000000000000000000000\n        /* \"#utility.yul\":37900:37901   */\n      0x00\n        /* \"#utility.yul\":37892:37898   */\n      dup3\n        /* \"#utility.yul\":37888:37902   */\n      add\n        /* \"#utility.yul\":37881:37924   */\n      mstore\n        /* \"#utility.yul\":37764:37931   */\n      pop\n      jump\t// out\n        /* \"#utility.yul\":37937:38171   */\n    tag_616:\n        /* \"#utility.yul\":38077:38111   */\n      0x416363657373436f6e74726f6c3a2063616e206f6e6c792072656e6f756e6365\n        /* \"#utility.yul\":38073:38074   */\n      0x00\n        /* \"#utility.yul\":38065:38071   */\n      dup3\n        /* \"#utility.yul\":38061:38075   */\n      add\n        /* \"#utility.yul\":38054:38112   */\n      mstore\n        /* \"#utility.yul\":38146:38163   */\n      0x20726f6c657320666f722073656c660000000000000000000000000000000000\n        /* \"#utility.yul\":38141:38143   */\n      0x20\n        /* \"#utility.yul\":38133:38139   */\n      dup3\n        /* \"#utility.yul\":38129:38144   */\n      add\n        /* \"#utility.yul\":38122:38164   */\n      mstore\n        /* \"#utility.yul\":37937:38171   */\n      pop\n      jump\t// out\n        /* \"#utility.yul\":38177:38344   */\n    tag_621:\n        /* \"#utility.yul\":38317:38336   */\n      0x444c4320616c7265616479206164646564000000000000000000000000000000\n        /* \"#utility.yul\":38313:38314   */\n      0x00\n        /* \"#utility.yul\":38305:38311   */\n      dup3\n        /* \"#utility.yul\":38301:38315   */\n      add\n        /* \"#utility.yul\":38294:38337   */\n      mstore\n        /* \"#utility.yul\":38177:38344   */\n      pop\n      jump\t// out\n        /* \"#utility.yul\":38350:38472   */\n    tag_380:\n        /* \"#utility.yul\":38423:38447   */\n      tag_798\n        /* \"#utility.yul\":38441:38446   */\n      dup2\n        /* \"#utility.yul\":38423:38447   */\n      tag_498\n      jump\t// in\n    tag_798:\n        /* \"#utility.yul\":38416:38421   */\n      dup2\n        /* \"#utility.yul\":38413:38448   */\n      eq\n        /* \"#utility.yul\":38403:38466   */\n      tag_799\n      jumpi\n        /* \"#utility.yul\":38462:38463   */\n      0x00\n        /* \"#utility.yul\":38459:38460   */\n      dup1\n        /* \"#utility.yul\":38452:38464   */\n      revert\n        /* \"#utility.yul\":38403:38466   */\n    tag_799:\n        /* \"#utility.yul\":38350:38472   */\n      pop\n      jump\t// out\n        /* \"#utility.yul\":38478:38600   */\n    tag_384:\n        /* \"#utility.yul\":38551:38575   */\n      tag_801\n        /* \"#utility.yul\":38569:38574   */\n      dup2\n        /* \"#utility.yul\":38551:38575   */\n      tag_520\n      jump\t// in\n    tag_801:\n        /* \"#utility.yul\":38544:38549   */\n      dup2\n        /* \"#utility.yul\":38541:38576   */\n      eq\n        /* \"#utility.yul\":38531:38594   */\n      tag_802\n      jumpi\n        /* \"#utility.yul\":38590:38591   */\n      0x00\n        /* \"#utility.yul\":38587:38588   */\n      dup1\n        /* \"#utility.yul\":38580:38592   */\n      revert\n        /* \"#utility.yul\":38531:38594   */\n    tag_802:\n        /* \"#utility.yul\":38478:38600   */\n      pop\n      jump\t// out\n        /* \"#utility.yul\":38606:38726   */\n    tag_388:\n        /* \"#utility.yul\":38678:38701   */\n      tag_804\n        /* \"#utility.yul\":38695:38700   */\n      dup2\n        /* \"#utility.yul\":38678:38701   */\n      tag_742\n      jump\t// in\n    tag_804:\n        /* \"#utility.yul\":38671:38676   */\n      dup2\n        /* \"#utility.yul\":38668:38702   */\n      eq\n        /* \"#utility.yul\":38658:38720   */\n      tag_805\n      jumpi\n        /* \"#utility.yul\":38716:38717   */\n      0x00\n        /* \"#utility.yul\":38713:38714   */\n      dup1\n        /* \"#utility.yul\":38706:38718   */\n      revert\n        /* \"#utility.yul\":38658:38720   */\n    tag_805:\n        /* \"#utility.yul\":38606:38726   */\n      pop\n      jump\t// out\n        /* \"#utility.yul\":38732:38852   */\n    tag_403:\n        /* \"#utility.yul\":38804:38827   */\n      tag_807\n        /* \"#utility.yul\":38821:38826   */\n      dup2\n        /* \"#utility.yul\":38804:38827   */\n      tag_534\n      jump\t// in\n    tag_807:\n        /* \"#utility.yul\":38797:38802   */\n      dup2\n        /* \"#utility.yul\":38794:38828   */\n      eq\n        /* \"#utility.yul\":38784:38846   */\n      tag_808\n      jumpi\n        /* \"#utility.yul\":38842:38843   */\n      0x00\n        /* \"#utility.yul\":38839:38840   */\n      dup1\n        /* \"#utility.yul\":38832:38844   */\n      revert\n        /* \"#utility.yul\":38784:38846   */\n    tag_808:\n        /* \"#utility.yul\":38732:38852   */\n      pop\n      jump\t// out\n        /* \"#utility.yul\":38858:38980   */\n    tag_423:\n        /* \"#utility.yul\":38931:38955   */\n      tag_810\n        /* \"#utility.yul\":38949:38954   */\n      dup2\n        /* \"#utility.yul\":38931:38955   */\n      tag_629\n      jump\t// in\n    tag_810:\n        /* \"#utility.yul\":38924:38929   */\n      dup2\n        /* \"#utility.yul\":38921:38956   */\n      eq\n        /* \"#utility.yul\":38911:38974   */\n      tag_811\n      jumpi\n        /* \"#utility.yul\":38970:38971   */\n      0x00\n        /* \"#utility.yul\":38967:38968   */\n      dup1\n        /* \"#utility.yul\":38960:38972   */\n      revert\n        /* \"#utility.yul\":38911:38974   */\n    tag_811:\n        /* \"#utility.yul\":38858:38980   */\n      pop\n      jump\t// out\n        /* \"#utility.yul\":38986:39106   */\n    tag_430:\n        /* \"#utility.yul\":39058:39081   */\n      tag_813\n        /* \"#utility.yul\":39075:39080   */\n      dup2\n        /* \"#utility.yul\":39058:39081   */\n      tag_747\n      jump\t// in\n    tag_813:\n        /* \"#utility.yul\":39051:39056   */\n      dup2\n        /* \"#utility.yul\":39048:39082   */\n      eq\n        /* \"#utility.yul\":39038:39100   */\n      tag_814\n      jumpi\n        /* \"#utility.yul\":39096:39097   */\n      0x00\n        /* \"#utility.yul\":39093:39094   */\n      dup1\n        /* \"#utility.yul\":39086:39098   */\n      revert\n        /* \"#utility.yul\":39038:39100   */\n    tag_814:\n        /* \"#utility.yul\":38986:39106   */\n      pop\n      jump\t// out\n\n    auxdata: 0xa2646970667358221220394d96187fda8e14b299e3219e884445bd89b4f9b7fb15ba1dc34b191330216364736f6c63430008070033\n}\n",
				"bytecode": {
					"linkReferences": {},
					"object": "60806040523480156200001157600080fd5b50604051620033be380380620033be833981810160405281019062000037919062000215565b620000697f2bf88000669ee6f7a648a231f4adbc117f5a8e34f980c08420b9b9a9f2640aa1826200008560201b60201c565b6200007e6000801b336200008560201b60201c565b506200029a565b6200009782826200009b60201b60201c565b5050565b620000ad82826200018c60201b60201c565b6200018857600160008084815260200190815260200160002060000160008373ffffffffffffffffffffffffffffffffffffffff1673ffffffffffffffffffffffffffffffffffffffff16815260200190815260200160002060006101000a81548160ff0219169083151502179055506200012d620001f660201b60201c565b73ffffffffffffffffffffffffffffffffffffffff168173ffffffffffffffffffffffffffffffffffffffff16837f2f8788117e7eff1d82e926ec794901d17c78024a50270940304540a733656f0d60405160405180910390a45b5050565b600080600084815260200190815260200160002060000160008373ffffffffffffffffffffffffffffffffffffffff1673ffffffffffffffffffffffffffffffffffffffff16815260200190815260200160002060009054906101000a900460ff16905092915050565b600033905090565b6000815190506200020f8162000280565b92915050565b6000602082840312156200022e576200022d6200027b565b5b60006200023e84828501620001fe565b91505092915050565b600062000254826200025b565b9050919050565b600073ffffffffffffffffffffffffffffffffffffffff82169050919050565b600080fd5b6200028b8162000247565b81146200029757600080fd5b50565b61311480620002aa6000396000f3fe608060405234801561001057600080fd5b506004361061010b5760003560e01c806354499002116100a257806391f2dfbf1161007157806391f2dfbf146102f757806394c2d0db14610313578063a217fddf14610343578063d547741f14610361578063efa643bb1461037d5761010b565b806354499002146102475780635e4a9e15146102785780636e04ff0d1461029657806391d14854146102c75761010b565b80632f2ff15d116100de5780632f2ff15d146101d557806336568abe146101f15780634585e33b1461020d5780634dcc2774146102295761010b565b806301ffc9a7146101105780630ef2feff14610140578063248a9ca3146101755780632e730910146101a5575b600080fd5b61012a60048036038101906101259190611ef3565b610399565b6040516101379190612617565b60405180910390f35b61015a60048036038101906101559190611f6d565b610413565b60405161016c969594939291906126e3565b60405180910390f35b61018f600480360381019061018a9190611e86565b61050d565b60405161019c9190612662565b60405180910390f35b6101bf60048036038101906101ba9190612082565b61052c565b6040516101cc91906126c1565b60405180910390f35b6101ef60048036038101906101ea9190611eb3565b6105d8565b005b61020b60048036038101906102069190611eb3565b6105f9565b005b61022760048036038101906102229190611f20565b61067c565b005b6102316107ed565b60405161023e9190612662565b60405180910390f35b610261600480360381019061025c9190611f6d565b610811565b60405161026f929190612698565b60405180910390f35b6102806109ac565b60405161028d91906125f5565b60405180910390f35b6102b060048036038101906102ab9190611f20565b610a85565b6040516102be929190612632565b60405180910390f35b6102e160048036038101906102dc9190611eb3565b610dc0565b6040516102ee9190612617565b60405180910390f35b610311600480360381019061030c9190611fb6565b610e2a565b005b61032d60048036038101906103289190611f6d565b6110b8565b60405161033a919061267d565b60405180910390f35b61034b611232565b6040516103589190612662565b60405180910390f35b61037b60048036038101906103769190611eb3565b611239565b005b61039760048036038101906103929190611e33565b61125a565b005b60007f7965db0b000000000000000000000000000000000000000000000000000000007bffffffffffffffffffffffffffffffffffffffffffffffffffffffff1916827bffffffffffffffffffffffffffffffffffffffffffffffffffffffff1916148061040c575061040b826112de565b5b9050919050565b60028180516020810182018051848252602083016020850120818352809550505050505060009150905080600001805461044c90612bdd565b80601f016020809104026020016040519081016040528092919081815260200182805461047890612bdd565b80156104c55780601f1061049a576101008083540402835291602001916104c5565b820191906000526020600020905b8154815290600101906020018083116104a857829003601f168201915b5050505050908060010160009054906101000a900473ffffffffffffffffffffffffffffffffffffffff16908060020154908060030154908060040154908060050154905086565b6000806000838152602001908152602001600020600101549050919050565b6001818154811061053c57600080fd5b90600052602060002001600091509050805461055790612bdd565b80601f016020809104026020016040519081016040528092919081815260200182805461058390612bdd565b80156105d05780601f106105a5576101008083540402835291602001916105d0565b820191906000526020600020905b8154815290600101906020018083116105b357829003601f168201915b505050505081565b6105e18261050d565b6105ea81611348565b6105f4838361135c565b505050565b61060161143c565b73ffffffffffffffffffffffffffffffffffffffff168173ffffffffffffffffffffffffffffffffffffffff161461066e576040517f08c379a000000000000000000000000000000000000000000000000000000000815260040161066590612895565b60405180910390fd5b6106788282611444565b5050565b6000828281019061068d9190612039565b90506000600282600001516040516106a59190612526565b90815260200160405180910390209050428160020154111580156106cd575060008160040154145b82600001516040516020016106e29190612526565b6040516020818303038152906040526040516020016107019190612554565b60405160208183030381529060405290610751576040517f08c379a000000000000000000000000000000000000000000000000000000000815260040161074891906126c1565b60405180910390fd5b506000806107828360010160009054906101000a900473ffffffffffffffffffffffffffffffffffffffff16611525565b915091508183600301819055508083600401819055506107a584602001516115c3565b507fdebd6b75f78fa046f3f6b55da164573acd1103cf3c4815ffc592130389d89d7c846000015183836040516107dd93929190612797565b60405180910390a1505050505050565b7f2bf88000669ee6f7a648a231f4adbc117f5a8e34f980c08420b9b9a9f2640aa181565b60008060006002846040516108269190612526565b90815260200160405180910390206040518060c001604052908160008201805461084f90612bdd565b80601f016020809104026020016040519081016040528092919081815260200182805461087b90612bdd565b80156108c85780601f1061089d576101008083540402835291602001916108c8565b820191906000526020600020905b8154815290600101906020018083116108ab57829003601f168201915b505050505081526020016001820160009054906101000a900473ffffffffffffffffffffffffffffffffffffffff1673ffffffffffffffffffffffffffffffffffffffff1673ffffffffffffffffffffffffffffffffffffffff16815260200160028201548152602001600382015481526020016004820154815260200160058201548152505090506000816080015111610998576040517f08c379a000000000000000000000000000000000000000000000000000000000815260040161098f906127d5565b60405180910390fd5b806060015181608001519250925050915091565b60606001805480602002602001604051908101604052809291908181526020016000905b82821015610a7c5783829060005260206000200180546109ef90612bdd565b80601f0160208091040260200160405190810160405280929190818152602001828054610a1b90612bdd565b8015610a685780601f10610a3d57610100808354040283529160200191610a68565b820191906000526020600020905b815481529060010190602001808311610a4b57829003601f168201915b5050505050815260200190600101906109d0565b50505050905090565b6000606060005b600180549050811015610db8576000600260018381548110610ab157610ab0612d16565b5b90600052602060002001604051610ac8919061253d565b90815260200160405180910390206040518060c0016040529081600082018054610af190612bdd565b80601f0160208091040260200160405190810160405280929190818152602001828054610b1d90612bdd565b8015610b6a5780601f10610b3f57610100808354040283529160200191610b6a565b820191906000526020600020905b815481529060010190602001808311610b4d57829003601f168201915b505050505081526020016001820160009054906101000a900473ffffffffffffffffffffffffffffffffffffffff1673ffffffffffffffffffffffffffffffffffffffff1673ffffffffffffffffffffffffffffffffffffffff168152602001600282015481526020016003820154815260200160048201548152602001600582015481525050905042816040015111158015610c0b575060008160800151145b15610da45760019350604051806040016040528060018481548110610c3357610c32612d16565b5b906000526020600020018054610c4890612bdd565b80601f0160208091040260200160405190810160405280929190818152602001828054610c7490612bdd565b8015610cc15780601f10610c9657610100808354040283529160200191610cc1565b820191906000526020600020905b815481529060010190602001808311610ca457829003601f168201915b50505050508152602001610d7a60018581548110610ce257610ce1612d16565b5b906000526020600020018054610cf790612bdd565b80601f0160208091040260200160405190810160405280929190818152602001828054610d2390612bdd565b8015610d705780601f10610d4557610100808354040283529160200191610d70565b820191906000526020600020905b815481529060010190602001808311610d5357829003601f168201915b5050505050611742565b815250604051602001610d8d91906128d5565b604051602081830303815290604052925050610db8565b508080610db090612c40565b915050610a8c565b509250929050565b600080600084815260200190815260200160002060000160008373ffffffffffffffffffffffffffffffffffffffff1673ffffffffffffffffffffffffffffffffffffffff16815260200190815260200160002060009054906101000a900460ff16905092915050565b7f2bf88000669ee6f7a648a231f4adbc117f5a8e34f980c08420b9b9a9f2640aa1610e5481611348565b600073ffffffffffffffffffffffffffffffffffffffff16600286604051610e7c9190612526565b908152602001604051809103902060010160009054906101000a900473ffffffffffffffffffffffffffffffffffffffff1673ffffffffffffffffffffffffffffffffffffffff1614610f04576040517f08c379a0000000000000000000000000000000000000000000000000000000008152600401610efb906128b5565b60405180910390fd5b428311610f46576040517f08c379a0000000000000000000000000000000000000000000000000000000008152600401610f3d90612875565b60405180910390fd5b6040518060c001604052808681526020018573ffffffffffffffffffffffffffffffffffffffff168152602001848152602001600081526020016000815260200183815250600286604051610f9b9190612526565b90815260200160405180910390206000820151816000019080519060200190610fc5929190611afe565b5060208201518160010160006101000a81548173ffffffffffffffffffffffffffffffffffffffff021916908373ffffffffffffffffffffffffffffffffffffffff16021790555060408201518160020155606082015181600301556080820151816004015560a08201518160050155905050600185908060018154018082558091505060019003906000526020600020016000909190919091509080519060200190611073929190611afe565b507f64f8e747c650091d76093dca1a6c200a28a9ad70b12f628b2a3369c97bdb458d858585856040516110a9949392919061274b565b60405180910390a15050505050565b60007f2bf88000669ee6f7a648a231f4adbc117f5a8e34f980c08420b9b9a9f2640aa16110e481611348565b60006002846040516110f69190612526565b908152602001604051809103902090508060020154421061114c576040517f08c379a000000000000000000000000000000000000000000000000000000000815260040161114390612855565b60405180910390fd5b6000816004015414611193576040517f08c379a000000000000000000000000000000000000000000000000000000000815260040161118a90612815565b60405180910390fd5b6000806111c38360010160009054906101000a900473ffffffffffffffffffffffffffffffffffffffff16611525565b915091508183600301819055508083600401819055506111ea6111e587611742565b6115c3565b507f49e0b636815dc79dcb9a0d30f307838293583b407695f07f6c4b15187c259d3986838360405161121e93929190612797565b60405180910390a181945050505050919050565b6000801b81565b6112428261050d565b61124b81611348565b6112558383611444565b505050565b42821161129c576040517f08c379a000000000000000000000000000000000000000000000000000000000815260040161129390612875565b60405180910390fd5b7f76570f28e10fdede20130ab377b0716e5f58f534e68fbbd8d7591059a59ac7bd838383336040516112d194939291906125b0565b60405180910390a1505050565b60007f01ffc9a7000000000000000000000000000000000000000000000000000000007bffffffffffffffffffffffffffffffffffffffffffffffffffffffff1916827bffffffffffffffffffffffffffffffffffffffffffffffffffffffff1916149050919050565b6113598161135461143c565b611825565b50565b6113668282610dc0565b61143857600160008084815260200190815260200160002060000160008373ffffffffffffffffffffffffffffffffffffffff1673ffffffffffffffffffffffffffffffffffffffff16815260200190815260200160002060006101000a81548160ff0219169083151502179055506113dd61143c565b73ffffffffffffffffffffffffffffffffffffffff168173ffffffffffffffffffffffffffffffffffffffff16837f2f8788117e7eff1d82e926ec794901d17c78024a50270940304540a733656f0d60405160405180910390a45b5050565b600033905090565b61144e8282610dc0565b1561152157600080600084815260200190815260200160002060000160008373ffffffffffffffffffffffffffffffffffffffff1673ffffffffffffffffffffffffffffffffffffffff16815260200190815260200160002060006101000a81548160ff0219169083151502179055506114c661143c565b73ffffffffffffffffffffffffffffffffffffffff168173ffffffffffffffffffffffffffffffffffffffff16837ff6391f5c32d9c69d2a47ea670b442974b53935d1edc7fd64eb21e047a839171b60405160405180910390a45b5050565b60008060008390506000808273ffffffffffffffffffffffffffffffffffffffff1663feaf968c6040518163ffffffff1660e01b815260040160a06040518083038186803b15801561157657600080fd5b505afa15801561158a573d6000803e3d6000fd5b505050506040513d601f19601f820116820180604052508101906115ae91906120af565b50935050925050818194509450505050915091565b606060018054905082106115d657600080fd5b60018080805490506115e89190612a9f565b815481106115f9576115f8612d16565b5b906000526020600020016001838154811061161757611616612d16565b5b9060005260206000200190805461162d90612bdd565b611638929190611b84565b50600180548061164b5761164a612ce7565b5b6001900381819060005260206000200160006116679190611c11565b90556001805480602002602001604051908101604052809291908181526020016000905b828210156117375783829060005260206000200180546116aa90612bdd565b80601f01602080910402602001604051908101604052809291908181526020018280546116d690612bdd565b80156117235780601f106116f857610100808354040283529160200191611723565b820191906000526020600020905b81548152906001019060200180831161170657829003601f168201915b50505050508152602001906001019061168b565b505050509050919050565b600080600090505b6001805490508110156117e457826040516020016117689190612526565b604051602081830303815290604052805190602001206001828154811061179257611791612d16565b5b906000526020600020016040516020016117ac919061253d565b6040516020818303038152906040528051906020012014156117d15780915050611820565b80806117dc90612c40565b91505061174a565b506040517f08c379a000000000000000000000000000000000000000000000000000000000815260040161181790612835565b60405180910390fd5b919050565b61182f8282610dc0565b6118be576118548173ffffffffffffffffffffffffffffffffffffffff1660146118c2565b6118628360001c60206118c2565b604051602001611873929190612576565b6040516020818303038152906040526040517f08c379a00000000000000000000000000000000000000000000000000000000081526004016118b591906126c1565b60405180910390fd5b5050565b6060600060028360026118d59190612a45565b6118df91906129ef565b67ffffffffffffffff8111156118f8576118f7612d45565b5b6040519080825280601f01601f19166020018201604052801561192a5781602001600182028036833780820191505090505b5090507f30000000000000000000000000000000000000000000000000000000000000008160008151811061196257611961612d16565b5b60200101907effffffffffffffffffffffffffffffffffffffffffffffffffffffffffffff1916908160001a9053507f7800000000000000000000000000000000000000000000000000000000000000816001815181106119c6576119c5612d16565b5b60200101907effffffffffffffffffffffffffffffffffffffffffffffffffffffffffffff1916908160001a90535060006001846002611a069190612a45565b611a1091906129ef565b90505b6001811115611ab0577f3031323334353637383961626364656600000000000000000000000000000000600f861660108110611a5257611a51612d16565b5b1a60f81b828281518110611a6957611a68612d16565b5b60200101907effffffffffffffffffffffffffffffffffffffffffffffffffffffffffffff1916908160001a905350600485901c945080611aa990612bb3565b9050611a13565b5060008414611af4576040517f08c379a0000000000000000000000000000000000000000000000000000000008152600401611aeb906127f5565b60405180910390fd5b8091505092915050565b828054611b0a90612bdd565b90600052602060002090601f016020900481019282611b2c5760008555611b73565b82601f10611b4557805160ff1916838001178555611b73565b82800160010185558215611b73579182015b82811115611b72578251825591602001919060010190611b57565b5b509050611b809190611c51565b5090565b828054611b9090612bdd565b90600052602060002090601f016020900481019282611bb25760008555611c00565b82601f10611bc35780548555611c00565b82800160010185558215611c0057600052602060002091601f016020900482015b82811115611bff578254825591600101919060010190611be4565b5b509050611c0d9190611c51565b5090565b508054611c1d90612bdd565b6000825580601f10611c2f5750611c4e565b601f016020900490600052602060002090810190611c4d9190611c51565b5b50565b5b80821115611c6a576000816000905550600101611c52565b5090565b6000611c81611c7c8461291c565b6128f7565b905082815260208101848484011115611c9d57611c9c612d8d565b5b611ca8848285612b71565b509392505050565b600081359050611cbf81613054565b92915050565b600081359050611cd48161306b565b92915050565b600081359050611ce981613082565b92915050565b60008083601f840112611d0557611d04612d79565b5b8235905067ffffffffffffffff811115611d2257611d21612d74565b5b602083019150836001820283011115611d3e57611d3d612d88565b5b9250929050565b600081519050611d5481613099565b92915050565b600082601f830112611d6f57611d6e612d79565b5b8135611d7f848260208601611c6e565b91505092915050565b600060408284031215611d9e57611d9d612d7e565b5b611da860406128f7565b9050600082013567ffffffffffffffff811115611dc857611dc7612d83565b5b611dd484828501611d5a565b6000830152506020611de884828501611df4565b60208301525092915050565b600081359050611e03816130b0565b92915050565b600081519050611e18816130b0565b92915050565b600081519050611e2d816130c7565b92915050565b600080600060608486031215611e4c57611e4b612d97565b5b6000611e5a86828701611cb0565b9350506020611e6b86828701611df4565b9250506040611e7c86828701611df4565b9150509250925092565b600060208284031215611e9c57611e9b612d97565b5b6000611eaa84828501611cc5565b91505092915050565b60008060408385031215611eca57611ec9612d97565b5b6000611ed885828601611cc5565b9250506020611ee985828601611cb0565b9150509250929050565b600060208284031215611f0957611f08612d97565b5b6000611f1784828501611cda565b91505092915050565b60008060208385031215611f3757611f36612d97565b5b600083013567ffffffffffffffff811115611f5557611f54612d92565b5b611f6185828601611cef565b92509250509250929050565b600060208284031215611f8357611f82612d97565b5b600082013567ffffffffffffffff811115611fa157611fa0612d92565b5b611fad84828501611d5a565b91505092915050565b60008060008060808587031215611fd057611fcf612d97565b5b600085013567ffffffffffffffff811115611fee57611fed612d92565b5b611ffa87828801611d5a565b945050602061200b87828801611cb0565b935050604061201c87828801611df4565b925050606061202d87828801611df4565b91505092959194509250565b60006020828403121561204f5761204e612d97565b5b600082013567ffffffffffffffff81111561206d5761206c612d92565b5b61207984828501611d88565b91505092915050565b60006020828403121561209857612097612d97565b5b60006120a684828501611df4565b91505092915050565b600080600080600060a086880312156120cb576120ca612d97565b5b60006120d988828901611e1e565b95505060206120ea88828901611d45565b94505060406120fb88828901611e09565b935050606061210c88828901611e09565b925050608061211d88828901611e1e565b9150509295509295909350565b60006121368383612228565b905092915050565b61214781612ad3565b82525050565b600061215882612972565b61216281856129a0565b9350836020820285016121748561294d565b8060005b858110156121b05784840389528151612191858261212a565b945061219c83612993565b925060208a01995050600181019050612178565b50829750879550505050505092915050565b6121cb81612ae5565b82525050565b6121da81612af1565b82525050565b60006121eb8261297d565b6121f581856129b1565b9350612205818560208601612b80565b61220e81612d9c565b840191505092915050565b61222281612b27565b82525050565b600061223382612988565b61223d81856129c2565b935061224d818560208601612b80565b61225681612d9c565b840191505092915050565b600061226c82612988565b61227681856129d3565b9350612286818560208601612b80565b61228f81612d9c565b840191505092915050565b60006122a582612988565b6122af81856129e4565b93506122bf818560208601612b80565b80840191505092915050565b600081546122d881612bdd565b6122e281866129e4565b945060018216600081146122fd576001811461230e57612341565b60ff19831686528186019350612341565b6123178561295d565b60005b838110156123395781548189015260018201915060208101905061231a565b838801955050505b50505092915050565b60006123576023836129d3565b915061236282612dad565b604082019050919050565b600061237a6020836129d3565b915061238582612dfc565b602082019050919050565b600061239d6035836129d3565b91506123a882612e25565b604082019050919050565b60006123c06009836129d3565b91506123cb82612e74565b602082019050919050565b60006123e3602e836129e4565b91506123ee82612e9d565b602e82019050919050565b6000612406602a836129d3565b915061241182612eec565b604082019050919050565b60006124296021836129d3565b915061243482612f3b565b604082019050919050565b600061244c6017836129e4565b915061245782612f8a565b601782019050919050565b600061246f6011836129e4565b915061247a82612fb3565b601182019050919050565b6000612492602f836129d3565b915061249d82612fdc565b604082019050919050565b60006124b56011836129d3565b91506124c08261302b565b602082019050919050565b600060408301600083015184820360008601526124e88282612228565b91505060208301516124fd6020860182612508565b508091505092915050565b61251181612b51565b82525050565b61252081612b51565b82525050565b6000612532828461229a565b915081905092915050565b600061254982846122cb565b915081905092915050565b600061255f826123d6565b915061256b828461229a565b915081905092915050565b60006125818261243f565b915061258d828561229a565b915061259882612462565b91506125a4828461229a565b91508190509392505050565b60006080820190506125c5600083018761213e565b6125d26020830186612517565b6125df6040830185612517565b6125ec606083018461213e565b95945050505050565b6000602082019050818103600083015261260f818461214d565b905092915050565b600060208201905061262c60008301846121c2565b92915050565b600060408201905061264760008301856121c2565b818103602083015261265981846121e0565b90509392505050565b600060208201905061267760008301846121d1565b92915050565b60006020820190506126926000830184612219565b92915050565b60006040820190506126ad6000830185612219565b6126ba6020830184612517565b9392505050565b600060208201905081810360008301526126db8184612261565b905092915050565b600060c08201905081810360008301526126fd8189612261565b905061270c602083018861213e565b6127196040830187612517565b6127266060830186612219565b6127336080830185612517565b61274060a0830184612517565b979650505050505050565b600060808201905081810360008301526127658187612261565b9050612774602083018661213e565b6127816040830185612517565b61278e6060830184612517565b95945050505050565b600060608201905081810360008301526127b18186612261565b90506127c06020830185612219565b6127cd6040830184612517565b949350505050565b600060208201905081810360008301526127ee8161234a565b9050919050565b6000602082019050818103600083015261280e8161236d565b9050919050565b6000602082019050818103600083015261282e81612390565b9050919050565b6000602082019050818103600083015261284e816123b3565b9050919050565b6000602082019050818103600083015261286e816123f9565b9050919050565b6000602082019050818103600083015261288e8161241c565b9050919050565b600060208201905081810360008301526128ae81612485565b9050919050565b600060208201905081810360008301526128ce816124a8565b9050919050565b600060208201905081810360008301526128ef81846124cb565b905092915050565b6000612901612912565b905061290d8282612c0f565b919050565b6000604051905090565b600067ffffffffffffffff82111561293757612936612d45565b5b61294082612d9c565b9050602081019050919050565b6000819050602082019050919050565b60008190508160005260206000209050919050565b600081519050919050565b600081519050919050565b600081519050919050565b6000602082019050919050565b600082825260208201905092915050565b600082825260208201905092915050565b600082825260208201905092915050565b600082825260208201905092915050565b600081905092915050565b60006129fa82612b51565b9150612a0583612b51565b9250827fffffffffffffffffffffffffffffffffffffffffffffffffffffffffffffffff03821115612a3a57612a39612c89565b5b828201905092915050565b6000612a5082612b51565b9150612a5b83612b51565b9250817fffffffffffffffffffffffffffffffffffffffffffffffffffffffffffffffff0483118215151615612a9457612a93612c89565b5b828202905092915050565b6000612aaa82612b51565b9150612ab583612b51565b925082821015612ac857612ac7612c89565b5b828203905092915050565b6000612ade82612b31565b9050919050565b60008115159050919050565b6000819050919050565b60007fffffffff0000000000000000000000000000000000000000000000000000000082169050919050565b6000819050919050565b600073ffffffffffffffffffffffffffffffffffffffff82169050919050565b6000819050919050565b600069ffffffffffffffffffff82169050919050565b82818337600083830152505050565b60005b83811015612b9e578082015181840152602081019050612b83565b83811115612bad576000848401525b50505050565b6000612bbe82612b51565b91506000821415612bd257612bd1612c89565b5b600182039050919050565b60006002820490506001821680612bf557607f821691505b60208210811415612c0957612c08612cb8565b5b50919050565b612c1882612d9c565b810181811067ffffffffffffffff82111715612c3757612c36612d45565b5b80604052505050565b6000612c4b82612b51565b91507fffffffffffffffffffffffffffffffffffffffffffffffffffffffffffffffff821415612c7e57612c7d612c89565b5b600182019050919050565b7f4e487b7100000000000000000000000000000000000000000000000000000000600052601160045260246000fd5b7f4e487b7100000000000000000000000000000000000000000000000000000000600052602260045260246000fd5b7f4e487b7100000000000000000000000000000000000000000000000000000000600052603160045260246000fd5b7f4e487b7100000000000000000000000000000000000000000000000000000000600052603260045260246000fd5b7f4e487b7100000000000000000000000000000000000000000000000000000000600052604160045260246000fd5b600080fd5b600080fd5b600080fd5b600080fd5b600080fd5b600080fd5b600080fd5b600080fd5b6000601f19601f8301169050919050565b7f5468652072657175657374656420444c43206973206e6f7420636c6f7365642060008201527f7965740000000000000000000000000000000000000000000000000000000000602082015250565b7f537472696e67733a20686578206c656e67746820696e73756666696369656e74600082015250565b7f43616e206f6e6c792062652063616c6c65642069662074686520444c4320686160008201527f73206e6f74206265656e20636c6f736564207965740000000000000000000000602082015250565b7f4e6f7420466f756e640000000000000000000000000000000000000000000000600082015250565b7f56616c69646174696f6e206661696c656420666f7220706572666f726d55704b60008201527f65657020666f7220555549443a20000000000000000000000000000000000000602082015250565b7f43616e206f6e6c792062652063616c6c6564206265666f72652074686520636c60008201527f6f73696e672074696d6500000000000000000000000000000000000000000000602082015250565b7f436c6f73696e672074696d652063616e277420626520696e207468652070617360008201527f7400000000000000000000000000000000000000000000000000000000000000602082015250565b7f416363657373436f6e74726f6c3a206163636f756e7420000000000000000000600082015250565b7f206973206d697373696e6720726f6c6520000000000000000000000000000000600082015250565b7f416363657373436f6e74726f6c3a2063616e206f6e6c792072656e6f756e636560008201527f20726f6c657320666f722073656c660000000000000000000000000000000000602082015250565b7f444c4320616c7265616479206164646564000000000000000000000000000000600082015250565b61305d81612ad3565b811461306857600080fd5b50565b61307481612af1565b811461307f57600080fd5b50565b61308b81612afb565b811461309657600080fd5b50565b6130a281612b27565b81146130ad57600080fd5b50565b6130b981612b51565b81146130c457600080fd5b50565b6130d081612b5b565b81146130db57600080fd5b5056fea2646970667358221220394d96187fda8e14b299e3219e884445bd89b4f9b7fb15ba1dc34b191330216364736f6c63430008070033",
					"opcodes": "PUSH1 0x80 PUSH1 0x40 MSTORE CALLVALUE DUP1 ISZERO PUSH3 0x11 JUMPI PUSH1 0x0 DUP1 REVERT JUMPDEST POP PUSH1 0x40 MLOAD PUSH3 0x33BE CODESIZE SUB DUP1 PUSH3 0x33BE DUP4 CODECOPY DUP2 DUP2 ADD PUSH1 0x40 MSTORE DUP2 ADD SWAP1 PUSH3 0x37 SWAP2 SWAP1 PUSH3 0x215 JUMP JUMPDEST PUSH3 0x69 PUSH32 0x2BF88000669EE6F7A648A231F4ADBC117F5A8E34F980C08420B9B9A9F2640AA1 DUP3 PUSH3 0x85 PUSH1 0x20 SHL PUSH1 0x20 SHR JUMP JUMPDEST PUSH3 0x7E PUSH1 0x0 DUP1 SHL CALLER PUSH3 0x85 PUSH1 0x20 SHL PUSH1 0x20 SHR JUMP JUMPDEST POP PUSH3 0x29A JUMP JUMPDEST PUSH3 0x97 DUP3 DUP3 PUSH3 0x9B PUSH1 0x20 SHL PUSH1 0x20 SHR JUMP JUMPDEST POP POP JUMP JUMPDEST PUSH3 0xAD DUP3 DUP3 PUSH3 0x18C PUSH1 0x20 SHL PUSH1 0x20 SHR JUMP JUMPDEST PUSH3 0x188 JUMPI PUSH1 0x1 PUSH1 0x0 DUP1 DUP5 DUP2 MSTORE PUSH1 0x20 ADD SWAP1 DUP2 MSTORE PUSH1 0x20 ADD PUSH1 0x0 KECCAK256 PUSH1 0x0 ADD PUSH1 0x0 DUP4 PUSH20 0xFFFFFFFFFFFFFFFFFFFFFFFFFFFFFFFFFFFFFFFF AND PUSH20 0xFFFFFFFFFFFFFFFFFFFFFFFFFFFFFFFFFFFFFFFF AND DUP2 MSTORE PUSH1 0x20 ADD SWAP1 DUP2 MSTORE PUSH1 0x20 ADD PUSH1 0x0 KECCAK256 PUSH1 0x0 PUSH2 0x100 EXP DUP2 SLOAD DUP2 PUSH1 0xFF MUL NOT AND SWAP1 DUP4 ISZERO ISZERO MUL OR SWAP1 SSTORE POP PUSH3 0x12D PUSH3 0x1F6 PUSH1 0x20 SHL PUSH1 0x20 SHR JUMP JUMPDEST PUSH20 0xFFFFFFFFFFFFFFFFFFFFFFFFFFFFFFFFFFFFFFFF AND DUP2 PUSH20 0xFFFFFFFFFFFFFFFFFFFFFFFFFFFFFFFFFFFFFFFF AND DUP4 PUSH32 0x2F8788117E7EFF1D82E926EC794901D17C78024A50270940304540A733656F0D PUSH1 0x40 MLOAD PUSH1 0x40 MLOAD DUP1 SWAP2 SUB SWAP1 LOG4 JUMPDEST POP POP JUMP JUMPDEST PUSH1 0x0 DUP1 PUSH1 0x0 DUP5 DUP2 MSTORE PUSH1 0x20 ADD SWAP1 DUP2 MSTORE PUSH1 0x20 ADD PUSH1 0x0 KECCAK256 PUSH1 0x0 ADD PUSH1 0x0 DUP4 PUSH20 0xFFFFFFFFFFFFFFFFFFFFFFFFFFFFFFFFFFFFFFFF AND PUSH20 0xFFFFFFFFFFFFFFFFFFFFFFFFFFFFFFFFFFFFFFFF AND DUP2 MSTORE PUSH1 0x20 ADD SWAP1 DUP2 MSTORE PUSH1 0x20 ADD PUSH1 0x0 KECCAK256 PUSH1 0x0 SWAP1 SLOAD SWAP1 PUSH2 0x100 EXP SWAP1 DIV PUSH1 0xFF AND SWAP1 POP SWAP3 SWAP2 POP POP JUMP JUMPDEST PUSH1 0x0 CALLER SWAP1 POP SWAP1 JUMP JUMPDEST PUSH1 0x0 DUP2 MLOAD SWAP1 POP PUSH3 0x20F DUP2 PUSH3 0x280 JUMP JUMPDEST SWAP3 SWAP2 POP POP JUMP JUMPDEST PUSH1 0x0 PUSH1 0x20 DUP3 DUP5 SUB SLT ISZERO PUSH3 0x22E JUMPI PUSH3 0x22D PUSH3 0x27B JUMP JUMPDEST JUMPDEST PUSH1 0x0 PUSH3 0x23E DUP5 DUP3 DUP6 ADD PUSH3 0x1FE JUMP JUMPDEST SWAP2 POP POP SWAP3 SWAP2 POP POP JUMP JUMPDEST PUSH1 0x0 PUSH3 0x254 DUP3 PUSH3 0x25B JUMP JUMPDEST SWAP1 POP SWAP2 SWAP1 POP JUMP JUMPDEST PUSH1 0x0 PUSH20 0xFFFFFFFFFFFFFFFFFFFFFFFFFFFFFFFFFFFFFFFF DUP3 AND SWAP1 POP SWAP2 SWAP1 POP JUMP JUMPDEST PUSH1 0x0 DUP1 REVERT JUMPDEST PUSH3 0x28B DUP2 PUSH3 0x247 JUMP JUMPDEST DUP2 EQ PUSH3 0x297 JUMPI PUSH1 0x0 DUP1 REVERT JUMPDEST POP JUMP JUMPDEST PUSH2 0x3114 DUP1 PUSH3 0x2AA PUSH1 0x0 CODECOPY PUSH1 0x0 RETURN INVALID PUSH1 0x80 PUSH1 0x40 MSTORE CALLVALUE DUP1 ISZERO PUSH2 0x10 JUMPI PUSH1 0x0 DUP1 REVERT JUMPDEST POP PUSH1 0x4 CALLDATASIZE LT PUSH2 0x10B JUMPI PUSH1 0x0 CALLDATALOAD PUSH1 0xE0 SHR DUP1 PUSH4 0x54499002 GT PUSH2 0xA2 JUMPI DUP1 PUSH4 0x91F2DFBF GT PUSH2 0x71 JUMPI DUP1 PUSH4 0x91F2DFBF EQ PUSH2 0x2F7 JUMPI DUP1 PUSH4 0x94C2D0DB EQ PUSH2 0x313 JUMPI DUP1 PUSH4 0xA217FDDF EQ PUSH2 0x343 JUMPI DUP1 PUSH4 0xD547741F EQ PUSH2 0x361 JUMPI DUP1 PUSH4 0xEFA643BB EQ PUSH2 0x37D JUMPI PUSH2 0x10B JUMP JUMPDEST DUP1 PUSH4 0x54499002 EQ PUSH2 0x247 JUMPI DUP1 PUSH4 0x5E4A9E15 EQ PUSH2 0x278 JUMPI DUP1 PUSH4 0x6E04FF0D EQ PUSH2 0x296 JUMPI DUP1 PUSH4 0x91D14854 EQ PUSH2 0x2C7 JUMPI PUSH2 0x10B JUMP JUMPDEST DUP1 PUSH4 0x2F2FF15D GT PUSH2 0xDE JUMPI DUP1 PUSH4 0x2F2FF15D EQ PUSH2 0x1D5 JUMPI DUP1 PUSH4 0x36568ABE EQ PUSH2 0x1F1 JUMPI DUP1 PUSH4 0x4585E33B EQ PUSH2 0x20D JUMPI DUP1 PUSH4 0x4DCC2774 EQ PUSH2 0x229 JUMPI PUSH2 0x10B JUMP JUMPDEST DUP1 PUSH4 0x1FFC9A7 EQ PUSH2 0x110 JUMPI DUP1 PUSH4 0xEF2FEFF EQ PUSH2 0x140 JUMPI DUP1 PUSH4 0x248A9CA3 EQ PUSH2 0x175 JUMPI DUP1 PUSH4 0x2E730910 EQ PUSH2 0x1A5 JUMPI JUMPDEST PUSH1 0x0 DUP1 REVERT JUMPDEST PUSH2 0x12A PUSH1 0x4 DUP1 CALLDATASIZE SUB DUP2 ADD SWAP1 PUSH2 0x125 SWAP2 SWAP1 PUSH2 0x1EF3 JUMP JUMPDEST PUSH2 0x399 JUMP JUMPDEST PUSH1 0x40 MLOAD PUSH2 0x137 SWAP2 SWAP1 PUSH2 0x2617 JUMP JUMPDEST PUSH1 0x40 MLOAD DUP1 SWAP2 SUB SWAP1 RETURN JUMPDEST PUSH2 0x15A PUSH1 0x4 DUP1 CALLDATASIZE SUB DUP2 ADD SWAP1 PUSH2 0x155 SWAP2 SWAP1 PUSH2 0x1F6D JUMP JUMPDEST PUSH2 0x413 JUMP JUMPDEST PUSH1 0x40 MLOAD PUSH2 0x16C SWAP7 SWAP6 SWAP5 SWAP4 SWAP3 SWAP2 SWAP1 PUSH2 0x26E3 JUMP JUMPDEST PUSH1 0x40 MLOAD DUP1 SWAP2 SUB SWAP1 RETURN JUMPDEST PUSH2 0x18F PUSH1 0x4 DUP1 CALLDATASIZE SUB DUP2 ADD SWAP1 PUSH2 0x18A SWAP2 SWAP1 PUSH2 0x1E86 JUMP JUMPDEST PUSH2 0x50D JUMP JUMPDEST PUSH1 0x40 MLOAD PUSH2 0x19C SWAP2 SWAP1 PUSH2 0x2662 JUMP JUMPDEST PUSH1 0x40 MLOAD DUP1 SWAP2 SUB SWAP1 RETURN JUMPDEST PUSH2 0x1BF PUSH1 0x4 DUP1 CALLDATASIZE SUB DUP2 ADD SWAP1 PUSH2 0x1BA SWAP2 SWAP1 PUSH2 0x2082 JUMP JUMPDEST PUSH2 0x52C JUMP JUMPDEST PUSH1 0x40 MLOAD PUSH2 0x1CC SWAP2 SWAP1 PUSH2 0x26C1 JUMP JUMPDEST PUSH1 0x40 MLOAD DUP1 SWAP2 SUB SWAP1 RETURN JUMPDEST PUSH2 0x1EF PUSH1 0x4 DUP1 CALLDATASIZE SUB DUP2 ADD SWAP1 PUSH2 0x1EA SWAP2 SWAP1 PUSH2 0x1EB3 JUMP JUMPDEST PUSH2 0x5D8 JUMP JUMPDEST STOP JUMPDEST PUSH2 0x20B PUSH1 0x4 DUP1 CALLDATASIZE SUB DUP2 ADD SWAP1 PUSH2 0x206 SWAP2 SWAP1 PUSH2 0x1EB3 JUMP JUMPDEST PUSH2 0x5F9 JUMP JUMPDEST STOP JUMPDEST PUSH2 0x227 PUSH1 0x4 DUP1 CALLDATASIZE SUB DUP2 ADD SWAP1 PUSH2 0x222 SWAP2 SWAP1 PUSH2 0x1F20 JUMP JUMPDEST PUSH2 0x67C JUMP JUMPDEST STOP JUMPDEST PUSH2 0x231 PUSH2 0x7ED JUMP JUMPDEST PUSH1 0x40 MLOAD PUSH2 0x23E SWAP2 SWAP1 PUSH2 0x2662 JUMP JUMPDEST PUSH1 0x40 MLOAD DUP1 SWAP2 SUB SWAP1 RETURN JUMPDEST PUSH2 0x261 PUSH1 0x4 DUP1 CALLDATASIZE SUB DUP2 ADD SWAP1 PUSH2 0x25C SWAP2 SWAP1 PUSH2 0x1F6D JUMP JUMPDEST PUSH2 0x811 JUMP JUMPDEST PUSH1 0x40 MLOAD PUSH2 0x26F SWAP3 SWAP2 SWAP1 PUSH2 0x2698 JUMP JUMPDEST PUSH1 0x40 MLOAD DUP1 SWAP2 SUB SWAP1 RETURN JUMPDEST PUSH2 0x280 PUSH2 0x9AC JUMP JUMPDEST PUSH1 0x40 MLOAD PUSH2 0x28D SWAP2 SWAP1 PUSH2 0x25F5 JUMP JUMPDEST PUSH1 0x40 MLOAD DUP1 SWAP2 SUB SWAP1 RETURN JUMPDEST PUSH2 0x2B0 PUSH1 0x4 DUP1 CALLDATASIZE SUB DUP2 ADD SWAP1 PUSH2 0x2AB SWAP2 SWAP1 PUSH2 0x1F20 JUMP JUMPDEST PUSH2 0xA85 JUMP JUMPDEST PUSH1 0x40 MLOAD PUSH2 0x2BE SWAP3 SWAP2 SWAP1 PUSH2 0x2632 JUMP JUMPDEST PUSH1 0x40 MLOAD DUP1 SWAP2 SUB SWAP1 RETURN JUMPDEST PUSH2 0x2E1 PUSH1 0x4 DUP1 CALLDATASIZE SUB DUP2 ADD SWAP1 PUSH2 0x2DC SWAP2 SWAP1 PUSH2 0x1EB3 JUMP JUMPDEST PUSH2 0xDC0 JUMP JUMPDEST PUSH1 0x40 MLOAD PUSH2 0x2EE SWAP2 SWAP1 PUSH2 0x2617 JUMP JUMPDEST PUSH1 0x40 MLOAD DUP1 SWAP2 SUB SWAP1 RETURN JUMPDEST PUSH2 0x311 PUSH1 0x4 DUP1 CALLDATASIZE SUB DUP2 ADD SWAP1 PUSH2 0x30C SWAP2 SWAP1 PUSH2 0x1FB6 JUMP JUMPDEST PUSH2 0xE2A JUMP JUMPDEST STOP JUMPDEST PUSH2 0x32D PUSH1 0x4 DUP1 CALLDATASIZE SUB DUP2 ADD SWAP1 PUSH2 0x328 SWAP2 SWAP1 PUSH2 0x1F6D JUMP JUMPDEST PUSH2 0x10B8 JUMP JUMPDEST PUSH1 0x40 MLOAD PUSH2 0x33A SWAP2 SWAP1 PUSH2 0x267D JUMP JUMPDEST PUSH1 0x40 MLOAD DUP1 SWAP2 SUB SWAP1 RETURN JUMPDEST PUSH2 0x34B PUSH2 0x1232 JUMP JUMPDEST PUSH1 0x40 MLOAD PUSH2 0x358 SWAP2 SWAP1 PUSH2 0x2662 JUMP JUMPDEST PUSH1 0x40 MLOAD DUP1 SWAP2 SUB SWAP1 RETURN JUMPDEST PUSH2 0x37B PUSH1 0x4 DUP1 CALLDATASIZE SUB DUP2 ADD SWAP1 PUSH2 0x376 SWAP2 SWAP1 PUSH2 0x1EB3 JUMP JUMPDEST PUSH2 0x1239 JUMP JUMPDEST STOP JUMPDEST PUSH2 0x397 PUSH1 0x4 DUP1 CALLDATASIZE SUB DUP2 ADD SWAP1 PUSH2 0x392 SWAP2 SWAP1 PUSH2 0x1E33 JUMP JUMPDEST PUSH2 0x125A JUMP JUMPDEST STOP JUMPDEST PUSH1 0x0 PUSH32 0x7965DB0B00000000000000000000000000000000000000000000000000000000 PUSH28 0xFFFFFFFFFFFFFFFFFFFFFFFFFFFFFFFFFFFFFFFFFFFFFFFFFFFFFFFF NOT AND DUP3 PUSH28 0xFFFFFFFFFFFFFFFFFFFFFFFFFFFFFFFFFFFFFFFFFFFFFFFFFFFFFFFF NOT AND EQ DUP1 PUSH2 0x40C JUMPI POP PUSH2 0x40B DUP3 PUSH2 0x12DE JUMP JUMPDEST JUMPDEST SWAP1 POP SWAP2 SWAP1 POP JUMP JUMPDEST PUSH1 0x2 DUP2 DUP1 MLOAD PUSH1 0x20 DUP2 ADD DUP3 ADD DUP1 MLOAD DUP5 DUP3 MSTORE PUSH1 0x20 DUP4 ADD PUSH1 0x20 DUP6 ADD KECCAK256 DUP2 DUP4 MSTORE DUP1 SWAP6 POP POP POP POP POP POP PUSH1 0x0 SWAP2 POP SWAP1 POP DUP1 PUSH1 0x0 ADD DUP1 SLOAD PUSH2 0x44C SWAP1 PUSH2 0x2BDD JUMP JUMPDEST DUP1 PUSH1 0x1F ADD PUSH1 0x20 DUP1 SWAP2 DIV MUL PUSH1 0x20 ADD PUSH1 0x40 MLOAD SWAP1 DUP2 ADD PUSH1 0x40 MSTORE DUP1 SWAP3 SWAP2 SWAP1 DUP2 DUP2 MSTORE PUSH1 0x20 ADD DUP3 DUP1 SLOAD PUSH2 0x478 SWAP1 PUSH2 0x2BDD JUMP JUMPDEST DUP1 ISZERO PUSH2 0x4C5 JUMPI DUP1 PUSH1 0x1F LT PUSH2 0x49A JUMPI PUSH2 0x100 DUP1 DUP4 SLOAD DIV MUL DUP4 MSTORE SWAP2 PUSH1 0x20 ADD SWAP2 PUSH2 0x4C5 JUMP JUMPDEST DUP3 ADD SWAP2 SWAP1 PUSH1 0x0 MSTORE PUSH1 0x20 PUSH1 0x0 KECCAK256 SWAP1 JUMPDEST DUP2 SLOAD DUP2 MSTORE SWAP1 PUSH1 0x1 ADD SWAP1 PUSH1 0x20 ADD DUP1 DUP4 GT PUSH2 0x4A8 JUMPI DUP3 SWAP1 SUB PUSH1 0x1F AND DUP3 ADD SWAP2 JUMPDEST POP POP POP POP POP SWAP1 DUP1 PUSH1 0x1 ADD PUSH1 0x0 SWAP1 SLOAD SWAP1 PUSH2 0x100 EXP SWAP1 DIV PUSH20 0xFFFFFFFFFFFFFFFFFFFFFFFFFFFFFFFFFFFFFFFF AND SWAP1 DUP1 PUSH1 0x2 ADD SLOAD SWAP1 DUP1 PUSH1 0x3 ADD SLOAD SWAP1 DUP1 PUSH1 0x4 ADD SLOAD SWAP1 DUP1 PUSH1 0x5 ADD SLOAD SWAP1 POP DUP7 JUMP JUMPDEST PUSH1 0x0 DUP1 PUSH1 0x0 DUP4 DUP2 MSTORE PUSH1 0x20 ADD SWAP1 DUP2 MSTORE PUSH1 0x20 ADD PUSH1 0x0 KECCAK256 PUSH1 0x1 ADD SLOAD SWAP1 POP SWAP2 SWAP1 POP JUMP JUMPDEST PUSH1 0x1 DUP2 DUP2 SLOAD DUP2 LT PUSH2 0x53C JUMPI PUSH1 0x0 DUP1 REVERT JUMPDEST SWAP1 PUSH1 0x0 MSTORE PUSH1 0x20 PUSH1 0x0 KECCAK256 ADD PUSH1 0x0 SWAP2 POP SWAP1 POP DUP1 SLOAD PUSH2 0x557 SWAP1 PUSH2 0x2BDD JUMP JUMPDEST DUP1 PUSH1 0x1F ADD PUSH1 0x20 DUP1 SWAP2 DIV MUL PUSH1 0x20 ADD PUSH1 0x40 MLOAD SWAP1 DUP2 ADD PUSH1 0x40 MSTORE DUP1 SWAP3 SWAP2 SWAP1 DUP2 DUP2 MSTORE PUSH1 0x20 ADD DUP3 DUP1 SLOAD PUSH2 0x583 SWAP1 PUSH2 0x2BDD JUMP JUMPDEST DUP1 ISZERO PUSH2 0x5D0 JUMPI DUP1 PUSH1 0x1F LT PUSH2 0x5A5 JUMPI PUSH2 0x100 DUP1 DUP4 SLOAD DIV MUL DUP4 MSTORE SWAP2 PUSH1 0x20 ADD SWAP2 PUSH2 0x5D0 JUMP JUMPDEST DUP3 ADD SWAP2 SWAP1 PUSH1 0x0 MSTORE PUSH1 0x20 PUSH1 0x0 KECCAK256 SWAP1 JUMPDEST DUP2 SLOAD DUP2 MSTORE SWAP1 PUSH1 0x1 ADD SWAP1 PUSH1 0x20 ADD DUP1 DUP4 GT PUSH2 0x5B3 JUMPI DUP3 SWAP1 SUB PUSH1 0x1F AND DUP3 ADD SWAP2 JUMPDEST POP POP POP POP POP DUP2 JUMP JUMPDEST PUSH2 0x5E1 DUP3 PUSH2 0x50D JUMP JUMPDEST PUSH2 0x5EA DUP2 PUSH2 0x1348 JUMP JUMPDEST PUSH2 0x5F4 DUP4 DUP4 PUSH2 0x135C JUMP JUMPDEST POP POP POP JUMP JUMPDEST PUSH2 0x601 PUSH2 0x143C JUMP JUMPDEST PUSH20 0xFFFFFFFFFFFFFFFFFFFFFFFFFFFFFFFFFFFFFFFF AND DUP2 PUSH20 0xFFFFFFFFFFFFFFFFFFFFFFFFFFFFFFFFFFFFFFFF AND EQ PUSH2 0x66E JUMPI PUSH1 0x40 MLOAD PUSH32 0x8C379A000000000000000000000000000000000000000000000000000000000 DUP2 MSTORE PUSH1 0x4 ADD PUSH2 0x665 SWAP1 PUSH2 0x2895 JUMP JUMPDEST PUSH1 0x40 MLOAD DUP1 SWAP2 SUB SWAP1 REVERT JUMPDEST PUSH2 0x678 DUP3 DUP3 PUSH2 0x1444 JUMP JUMPDEST POP POP JUMP JUMPDEST PUSH1 0x0 DUP3 DUP3 DUP2 ADD SWAP1 PUSH2 0x68D SWAP2 SWAP1 PUSH2 0x2039 JUMP JUMPDEST SWAP1 POP PUSH1 0x0 PUSH1 0x2 DUP3 PUSH1 0x0 ADD MLOAD PUSH1 0x40 MLOAD PUSH2 0x6A5 SWAP2 SWAP1 PUSH2 0x2526 JUMP JUMPDEST SWAP1 DUP2 MSTORE PUSH1 0x20 ADD PUSH1 0x40 MLOAD DUP1 SWAP2 SUB SWAP1 KECCAK256 SWAP1 POP TIMESTAMP DUP2 PUSH1 0x2 ADD SLOAD GT ISZERO DUP1 ISZERO PUSH2 0x6CD JUMPI POP PUSH1 0x0 DUP2 PUSH1 0x4 ADD SLOAD EQ JUMPDEST DUP3 PUSH1 0x0 ADD MLOAD PUSH1 0x40 MLOAD PUSH1 0x20 ADD PUSH2 0x6E2 SWAP2 SWAP1 PUSH2 0x2526 JUMP JUMPDEST PUSH1 0x40 MLOAD PUSH1 0x20 DUP2 DUP4 SUB SUB DUP2 MSTORE SWAP1 PUSH1 0x40 MSTORE PUSH1 0x40 MLOAD PUSH1 0x20 ADD PUSH2 0x701 SWAP2 SWAP1 PUSH2 0x2554 JUMP JUMPDEST PUSH1 0x40 MLOAD PUSH1 0x20 DUP2 DUP4 SUB SUB DUP2 MSTORE SWAP1 PUSH1 0x40 MSTORE SWAP1 PUSH2 0x751 JUMPI PUSH1 0x40 MLOAD PUSH32 0x8C379A000000000000000000000000000000000000000000000000000000000 DUP2 MSTORE PUSH1 0x4 ADD PUSH2 0x748 SWAP2 SWAP1 PUSH2 0x26C1 JUMP JUMPDEST PUSH1 0x40 MLOAD DUP1 SWAP2 SUB SWAP1 REVERT JUMPDEST POP PUSH1 0x0 DUP1 PUSH2 0x782 DUP4 PUSH1 0x1 ADD PUSH1 0x0 SWAP1 SLOAD SWAP1 PUSH2 0x100 EXP SWAP1 DIV PUSH20 0xFFFFFFFFFFFFFFFFFFFFFFFFFFFFFFFFFFFFFFFF AND PUSH2 0x1525 JUMP JUMPDEST SWAP2 POP SWAP2 POP DUP2 DUP4 PUSH1 0x3 ADD DUP2 SWAP1 SSTORE POP DUP1 DUP4 PUSH1 0x4 ADD DUP2 SWAP1 SSTORE POP PUSH2 0x7A5 DUP5 PUSH1 0x20 ADD MLOAD PUSH2 0x15C3 JUMP JUMPDEST POP PUSH32 0xDEBD6B75F78FA046F3F6B55DA164573ACD1103CF3C4815FFC592130389D89D7C DUP5 PUSH1 0x0 ADD MLOAD DUP4 DUP4 PUSH1 0x40 MLOAD PUSH2 0x7DD SWAP4 SWAP3 SWAP2 SWAP1 PUSH2 0x2797 JUMP JUMPDEST PUSH1 0x40 MLOAD DUP1 SWAP2 SUB SWAP1 LOG1 POP POP POP POP POP POP JUMP JUMPDEST PUSH32 0x2BF88000669EE6F7A648A231F4ADBC117F5A8E34F980C08420B9B9A9F2640AA1 DUP2 JUMP JUMPDEST PUSH1 0x0 DUP1 PUSH1 0x0 PUSH1 0x2 DUP5 PUSH1 0x40 MLOAD PUSH2 0x826 SWAP2 SWAP1 PUSH2 0x2526 JUMP JUMPDEST SWAP1 DUP2 MSTORE PUSH1 0x20 ADD PUSH1 0x40 MLOAD DUP1 SWAP2 SUB SWAP1 KECCAK256 PUSH1 0x40 MLOAD DUP1 PUSH1 0xC0 ADD PUSH1 0x40 MSTORE SWAP1 DUP2 PUSH1 0x0 DUP3 ADD DUP1 SLOAD PUSH2 0x84F SWAP1 PUSH2 0x2BDD JUMP JUMPDEST DUP1 PUSH1 0x1F ADD PUSH1 0x20 DUP1 SWAP2 DIV MUL PUSH1 0x20 ADD PUSH1 0x40 MLOAD SWAP1 DUP2 ADD PUSH1 0x40 MSTORE DUP1 SWAP3 SWAP2 SWAP1 DUP2 DUP2 MSTORE PUSH1 0x20 ADD DUP3 DUP1 SLOAD PUSH2 0x87B SWAP1 PUSH2 0x2BDD JUMP JUMPDEST DUP1 ISZERO PUSH2 0x8C8 JUMPI DUP1 PUSH1 0x1F LT PUSH2 0x89D JUMPI PUSH2 0x100 DUP1 DUP4 SLOAD DIV MUL DUP4 MSTORE SWAP2 PUSH1 0x20 ADD SWAP2 PUSH2 0x8C8 JUMP JUMPDEST DUP3 ADD SWAP2 SWAP1 PUSH1 0x0 MSTORE PUSH1 0x20 PUSH1 0x0 KECCAK256 SWAP1 JUMPDEST DUP2 SLOAD DUP2 MSTORE SWAP1 PUSH1 0x1 ADD SWAP1 PUSH1 0x20 ADD DUP1 DUP4 GT PUSH2 0x8AB JUMPI DUP3 SWAP1 SUB PUSH1 0x1F AND DUP3 ADD SWAP2 JUMPDEST POP POP POP POP POP DUP2 MSTORE PUSH1 0x20 ADD PUSH1 0x1 DUP3 ADD PUSH1 0x0 SWAP1 SLOAD SWAP1 PUSH2 0x100 EXP SWAP1 DIV PUSH20 0xFFFFFFFFFFFFFFFFFFFFFFFFFFFFFFFFFFFFFFFF AND PUSH20 0xFFFFFFFFFFFFFFFFFFFFFFFFFFFFFFFFFFFFFFFF AND PUSH20 0xFFFFFFFFFFFFFFFFFFFFFFFFFFFFFFFFFFFFFFFF AND DUP2 MSTORE PUSH1 0x20 ADD PUSH1 0x2 DUP3 ADD SLOAD DUP2 MSTORE PUSH1 0x20 ADD PUSH1 0x3 DUP3 ADD SLOAD DUP2 MSTORE PUSH1 0x20 ADD PUSH1 0x4 DUP3 ADD SLOAD DUP2 MSTORE PUSH1 0x20 ADD PUSH1 0x5 DUP3 ADD SLOAD DUP2 MSTORE POP POP SWAP1 POP PUSH1 0x0 DUP2 PUSH1 0x80 ADD MLOAD GT PUSH2 0x998 JUMPI PUSH1 0x40 MLOAD PUSH32 0x8C379A000000000000000000000000000000000000000000000000000000000 DUP2 MSTORE PUSH1 0x4 ADD PUSH2 0x98F SWAP1 PUSH2 0x27D5 JUMP JUMPDEST PUSH1 0x40 MLOAD DUP1 SWAP2 SUB SWAP1 REVERT JUMPDEST DUP1 PUSH1 0x60 ADD MLOAD DUP2 PUSH1 0x80 ADD MLOAD SWAP3 POP SWAP3 POP POP SWAP2 POP SWAP2 JUMP JUMPDEST PUSH1 0x60 PUSH1 0x1 DUP1 SLOAD DUP1 PUSH1 0x20 MUL PUSH1 0x20 ADD PUSH1 0x40 MLOAD SWAP1 DUP2 ADD PUSH1 0x40 MSTORE DUP1 SWAP3 SWAP2 SWAP1 DUP2 DUP2 MSTORE PUSH1 0x20 ADD PUSH1 0x0 SWAP1 JUMPDEST DUP3 DUP3 LT ISZERO PUSH2 0xA7C JUMPI DUP4 DUP3 SWAP1 PUSH1 0x0 MSTORE PUSH1 0x20 PUSH1 0x0 KECCAK256 ADD DUP1 SLOAD PUSH2 0x9EF SWAP1 PUSH2 0x2BDD JUMP JUMPDEST DUP1 PUSH1 0x1F ADD PUSH1 0x20 DUP1 SWAP2 DIV MUL PUSH1 0x20 ADD PUSH1 0x40 MLOAD SWAP1 DUP2 ADD PUSH1 0x40 MSTORE DUP1 SWAP3 SWAP2 SWAP1 DUP2 DUP2 MSTORE PUSH1 0x20 ADD DUP3 DUP1 SLOAD PUSH2 0xA1B SWAP1 PUSH2 0x2BDD JUMP JUMPDEST DUP1 ISZERO PUSH2 0xA68 JUMPI DUP1 PUSH1 0x1F LT PUSH2 0xA3D JUMPI PUSH2 0x100 DUP1 DUP4 SLOAD DIV MUL DUP4 MSTORE SWAP2 PUSH1 0x20 ADD SWAP2 PUSH2 0xA68 JUMP JUMPDEST DUP3 ADD SWAP2 SWAP1 PUSH1 0x0 MSTORE PUSH1 0x20 PUSH1 0x0 KECCAK256 SWAP1 JUMPDEST DUP2 SLOAD DUP2 MSTORE SWAP1 PUSH1 0x1 ADD SWAP1 PUSH1 0x20 ADD DUP1 DUP4 GT PUSH2 0xA4B JUMPI DUP3 SWAP1 SUB PUSH1 0x1F AND DUP3 ADD SWAP2 JUMPDEST POP POP POP POP POP DUP2 MSTORE PUSH1 0x20 ADD SWAP1 PUSH1 0x1 ADD SWAP1 PUSH2 0x9D0 JUMP JUMPDEST POP POP POP POP SWAP1 POP SWAP1 JUMP JUMPDEST PUSH1 0x0 PUSH1 0x60 PUSH1 0x0 JUMPDEST PUSH1 0x1 DUP1 SLOAD SWAP1 POP DUP2 LT ISZERO PUSH2 0xDB8 JUMPI PUSH1 0x0 PUSH1 0x2 PUSH1 0x1 DUP4 DUP2 SLOAD DUP2 LT PUSH2 0xAB1 JUMPI PUSH2 0xAB0 PUSH2 0x2D16 JUMP JUMPDEST JUMPDEST SWAP1 PUSH1 0x0 MSTORE PUSH1 0x20 PUSH1 0x0 KECCAK256 ADD PUSH1 0x40 MLOAD PUSH2 0xAC8 SWAP2 SWAP1 PUSH2 0x253D JUMP JUMPDEST SWAP1 DUP2 MSTORE PUSH1 0x20 ADD PUSH1 0x40 MLOAD DUP1 SWAP2 SUB SWAP1 KECCAK256 PUSH1 0x40 MLOAD DUP1 PUSH1 0xC0 ADD PUSH1 0x40 MSTORE SWAP1 DUP2 PUSH1 0x0 DUP3 ADD DUP1 SLOAD PUSH2 0xAF1 SWAP1 PUSH2 0x2BDD JUMP JUMPDEST DUP1 PUSH1 0x1F ADD PUSH1 0x20 DUP1 SWAP2 DIV MUL PUSH1 0x20 ADD PUSH1 0x40 MLOAD SWAP1 DUP2 ADD PUSH1 0x40 MSTORE DUP1 SWAP3 SWAP2 SWAP1 DUP2 DUP2 MSTORE PUSH1 0x20 ADD DUP3 DUP1 SLOAD PUSH2 0xB1D SWAP1 PUSH2 0x2BDD JUMP JUMPDEST DUP1 ISZERO PUSH2 0xB6A JUMPI DUP1 PUSH1 0x1F LT PUSH2 0xB3F JUMPI PUSH2 0x100 DUP1 DUP4 SLOAD DIV MUL DUP4 MSTORE SWAP2 PUSH1 0x20 ADD SWAP2 PUSH2 0xB6A JUMP JUMPDEST DUP3 ADD SWAP2 SWAP1 PUSH1 0x0 MSTORE PUSH1 0x20 PUSH1 0x0 KECCAK256 SWAP1 JUMPDEST DUP2 SLOAD DUP2 MSTORE SWAP1 PUSH1 0x1 ADD SWAP1 PUSH1 0x20 ADD DUP1 DUP4 GT PUSH2 0xB4D JUMPI DUP3 SWAP1 SUB PUSH1 0x1F AND DUP3 ADD SWAP2 JUMPDEST POP POP POP POP POP DUP2 MSTORE PUSH1 0x20 ADD PUSH1 0x1 DUP3 ADD PUSH1 0x0 SWAP1 SLOAD SWAP1 PUSH2 0x100 EXP SWAP1 DIV PUSH20 0xFFFFFFFFFFFFFFFFFFFFFFFFFFFFFFFFFFFFFFFF AND PUSH20 0xFFFFFFFFFFFFFFFFFFFFFFFFFFFFFFFFFFFFFFFF AND PUSH20 0xFFFFFFFFFFFFFFFFFFFFFFFFFFFFFFFFFFFFFFFF AND DUP2 MSTORE PUSH1 0x20 ADD PUSH1 0x2 DUP3 ADD SLOAD DUP2 MSTORE PUSH1 0x20 ADD PUSH1 0x3 DUP3 ADD SLOAD DUP2 MSTORE PUSH1 0x20 ADD PUSH1 0x4 DUP3 ADD SLOAD DUP2 MSTORE PUSH1 0x20 ADD PUSH1 0x5 DUP3 ADD SLOAD DUP2 MSTORE POP POP SWAP1 POP TIMESTAMP DUP2 PUSH1 0x40 ADD MLOAD GT ISZERO DUP1 ISZERO PUSH2 0xC0B JUMPI POP PUSH1 0x0 DUP2 PUSH1 0x80 ADD MLOAD EQ JUMPDEST ISZERO PUSH2 0xDA4 JUMPI PUSH1 0x1 SWAP4 POP PUSH1 0x40 MLOAD DUP1 PUSH1 0x40 ADD PUSH1 0x40 MSTORE DUP1 PUSH1 0x1 DUP5 DUP2 SLOAD DUP2 LT PUSH2 0xC33 JUMPI PUSH2 0xC32 PUSH2 0x2D16 JUMP JUMPDEST JUMPDEST SWAP1 PUSH1 0x0 MSTORE PUSH1 0x20 PUSH1 0x0 KECCAK256 ADD DUP1 SLOAD PUSH2 0xC48 SWAP1 PUSH2 0x2BDD JUMP JUMPDEST DUP1 PUSH1 0x1F ADD PUSH1 0x20 DUP1 SWAP2 DIV MUL PUSH1 0x20 ADD PUSH1 0x40 MLOAD SWAP1 DUP2 ADD PUSH1 0x40 MSTORE DUP1 SWAP3 SWAP2 SWAP1 DUP2 DUP2 MSTORE PUSH1 0x20 ADD DUP3 DUP1 SLOAD PUSH2 0xC74 SWAP1 PUSH2 0x2BDD JUMP JUMPDEST DUP1 ISZERO PUSH2 0xCC1 JUMPI DUP1 PUSH1 0x1F LT PUSH2 0xC96 JUMPI PUSH2 0x100 DUP1 DUP4 SLOAD DIV MUL DUP4 MSTORE SWAP2 PUSH1 0x20 ADD SWAP2 PUSH2 0xCC1 JUMP JUMPDEST DUP3 ADD SWAP2 SWAP1 PUSH1 0x0 MSTORE PUSH1 0x20 PUSH1 0x0 KECCAK256 SWAP1 JUMPDEST DUP2 SLOAD DUP2 MSTORE SWAP1 PUSH1 0x1 ADD SWAP1 PUSH1 0x20 ADD DUP1 DUP4 GT PUSH2 0xCA4 JUMPI DUP3 SWAP1 SUB PUSH1 0x1F AND DUP3 ADD SWAP2 JUMPDEST POP POP POP POP POP DUP2 MSTORE PUSH1 0x20 ADD PUSH2 0xD7A PUSH1 0x1 DUP6 DUP2 SLOAD DUP2 LT PUSH2 0xCE2 JUMPI PUSH2 0xCE1 PUSH2 0x2D16 JUMP JUMPDEST JUMPDEST SWAP1 PUSH1 0x0 MSTORE PUSH1 0x20 PUSH1 0x0 KECCAK256 ADD DUP1 SLOAD PUSH2 0xCF7 SWAP1 PUSH2 0x2BDD JUMP JUMPDEST DUP1 PUSH1 0x1F ADD PUSH1 0x20 DUP1 SWAP2 DIV MUL PUSH1 0x20 ADD PUSH1 0x40 MLOAD SWAP1 DUP2 ADD PUSH1 0x40 MSTORE DUP1 SWAP3 SWAP2 SWAP1 DUP2 DUP2 MSTORE PUSH1 0x20 ADD DUP3 DUP1 SLOAD PUSH2 0xD23 SWAP1 PUSH2 0x2BDD JUMP JUMPDEST DUP1 ISZERO PUSH2 0xD70 JUMPI DUP1 PUSH1 0x1F LT PUSH2 0xD45 JUMPI PUSH2 0x100 DUP1 DUP4 SLOAD DIV MUL DUP4 MSTORE SWAP2 PUSH1 0x20 ADD SWAP2 PUSH2 0xD70 JUMP JUMPDEST DUP3 ADD SWAP2 SWAP1 PUSH1 0x0 MSTORE PUSH1 0x20 PUSH1 0x0 KECCAK256 SWAP1 JUMPDEST DUP2 SLOAD DUP2 MSTORE SWAP1 PUSH1 0x1 ADD SWAP1 PUSH1 0x20 ADD DUP1 DUP4 GT PUSH2 0xD53 JUMPI DUP3 SWAP1 SUB PUSH1 0x1F AND DUP3 ADD SWAP2 JUMPDEST POP POP POP POP POP PUSH2 0x1742 JUMP JUMPDEST DUP2 MSTORE POP PUSH1 0x40 MLOAD PUSH1 0x20 ADD PUSH2 0xD8D SWAP2 SWAP1 PUSH2 0x28D5 JUMP JUMPDEST PUSH1 0x40 MLOAD PUSH1 0x20 DUP2 DUP4 SUB SUB DUP2 MSTORE SWAP1 PUSH1 0x40 MSTORE SWAP3 POP POP PUSH2 0xDB8 JUMP JUMPDEST POP DUP1 DUP1 PUSH2 0xDB0 SWAP1 PUSH2 0x2C40 JUMP JUMPDEST SWAP2 POP POP PUSH2 0xA8C JUMP JUMPDEST POP SWAP3 POP SWAP3 SWAP1 POP JUMP JUMPDEST PUSH1 0x0 DUP1 PUSH1 0x0 DUP5 DUP2 MSTORE PUSH1 0x20 ADD SWAP1 DUP2 MSTORE PUSH1 0x20 ADD PUSH1 0x0 KECCAK256 PUSH1 0x0 ADD PUSH1 0x0 DUP4 PUSH20 0xFFFFFFFFFFFFFFFFFFFFFFFFFFFFFFFFFFFFFFFF AND PUSH20 0xFFFFFFFFFFFFFFFFFFFFFFFFFFFFFFFFFFFFFFFF AND DUP2 MSTORE PUSH1 0x20 ADD SWAP1 DUP2 MSTORE PUSH1 0x20 ADD PUSH1 0x0 KECCAK256 PUSH1 0x0 SWAP1 SLOAD SWAP1 PUSH2 0x100 EXP SWAP1 DIV PUSH1 0xFF AND SWAP1 POP SWAP3 SWAP2 POP POP JUMP JUMPDEST PUSH32 0x2BF88000669EE6F7A648A231F4ADBC117F5A8E34F980C08420B9B9A9F2640AA1 PUSH2 0xE54 DUP2 PUSH2 0x1348 JUMP JUMPDEST PUSH1 0x0 PUSH20 0xFFFFFFFFFFFFFFFFFFFFFFFFFFFFFFFFFFFFFFFF AND PUSH1 0x2 DUP7 PUSH1 0x40 MLOAD PUSH2 0xE7C SWAP2 SWAP1 PUSH2 0x2526 JUMP JUMPDEST SWAP1 DUP2 MSTORE PUSH1 0x20 ADD PUSH1 0x40 MLOAD DUP1 SWAP2 SUB SWAP1 KECCAK256 PUSH1 0x1 ADD PUSH1 0x0 SWAP1 SLOAD SWAP1 PUSH2 0x100 EXP SWAP1 DIV PUSH20 0xFFFFFFFFFFFFFFFFFFFFFFFFFFFFFFFFFFFFFFFF AND PUSH20 0xFFFFFFFFFFFFFFFFFFFFFFFFFFFFFFFFFFFFFFFF AND EQ PUSH2 0xF04 JUMPI PUSH1 0x40 MLOAD PUSH32 0x8C379A000000000000000000000000000000000000000000000000000000000 DUP2 MSTORE PUSH1 0x4 ADD PUSH2 0xEFB SWAP1 PUSH2 0x28B5 JUMP JUMPDEST PUSH1 0x40 MLOAD DUP1 SWAP2 SUB SWAP1 REVERT JUMPDEST TIMESTAMP DUP4 GT PUSH2 0xF46 JUMPI PUSH1 0x40 MLOAD PUSH32 0x8C379A000000000000000000000000000000000000000000000000000000000 DUP2 MSTORE PUSH1 0x4 ADD PUSH2 0xF3D SWAP1 PUSH2 0x2875 JUMP JUMPDEST PUSH1 0x40 MLOAD DUP1 SWAP2 SUB SWAP1 REVERT JUMPDEST PUSH1 0x40 MLOAD DUP1 PUSH1 0xC0 ADD PUSH1 0x40 MSTORE DUP1 DUP7 DUP2 MSTORE PUSH1 0x20 ADD DUP6 PUSH20 0xFFFFFFFFFFFFFFFFFFFFFFFFFFFFFFFFFFFFFFFF AND DUP2 MSTORE PUSH1 0x20 ADD DUP5 DUP2 MSTORE PUSH1 0x20 ADD PUSH1 0x0 DUP2 MSTORE PUSH1 0x20 ADD PUSH1 0x0 DUP2 MSTORE PUSH1 0x20 ADD DUP4 DUP2 MSTORE POP PUSH1 0x2 DUP7 PUSH1 0x40 MLOAD PUSH2 0xF9B SWAP2 SWAP1 PUSH2 0x2526 JUMP JUMPDEST SWAP1 DUP2 MSTORE PUSH1 0x20 ADD PUSH1 0x40 MLOAD DUP1 SWAP2 SUB SWAP1 KECCAK256 PUSH1 0x0 DUP3 ADD MLOAD DUP2 PUSH1 0x0 ADD SWAP1 DUP1 MLOAD SWAP1 PUSH1 0x20 ADD SWAP1 PUSH2 0xFC5 SWAP3 SWAP2 SWAP1 PUSH2 0x1AFE JUMP JUMPDEST POP PUSH1 0x20 DUP3 ADD MLOAD DUP2 PUSH1 0x1 ADD PUSH1 0x0 PUSH2 0x100 EXP DUP2 SLOAD DUP2 PUSH20 0xFFFFFFFFFFFFFFFFFFFFFFFFFFFFFFFFFFFFFFFF MUL NOT AND SWAP1 DUP4 PUSH20 0xFFFFFFFFFFFFFFFFFFFFFFFFFFFFFFFFFFFFFFFF AND MUL OR SWAP1 SSTORE POP PUSH1 0x40 DUP3 ADD MLOAD DUP2 PUSH1 0x2 ADD SSTORE PUSH1 0x60 DUP3 ADD MLOAD DUP2 PUSH1 0x3 ADD SSTORE PUSH1 0x80 DUP3 ADD MLOAD DUP2 PUSH1 0x4 ADD SSTORE PUSH1 0xA0 DUP3 ADD MLOAD DUP2 PUSH1 0x5 ADD SSTORE SWAP1 POP POP PUSH1 0x1 DUP6 SWAP1 DUP1 PUSH1 0x1 DUP2 SLOAD ADD DUP1 DUP3 SSTORE DUP1 SWAP2 POP POP PUSH1 0x1 SWAP1 SUB SWAP1 PUSH1 0x0 MSTORE PUSH1 0x20 PUSH1 0x0 KECCAK256 ADD PUSH1 0x0 SWAP1 SWAP2 SWAP1 SWAP2 SWAP1 SWAP2 POP SWAP1 DUP1 MLOAD SWAP1 PUSH1 0x20 ADD SWAP1 PUSH2 0x1073 SWAP3 SWAP2 SWAP1 PUSH2 0x1AFE JUMP JUMPDEST POP PUSH32 0x64F8E747C650091D76093DCA1A6C200A28A9AD70B12F628B2A3369C97BDB458D DUP6 DUP6 DUP6 DUP6 PUSH1 0x40 MLOAD PUSH2 0x10A9 SWAP5 SWAP4 SWAP3 SWAP2 SWAP1 PUSH2 0x274B JUMP JUMPDEST PUSH1 0x40 MLOAD DUP1 SWAP2 SUB SWAP1 LOG1 POP POP POP POP POP JUMP JUMPDEST PUSH1 0x0 PUSH32 0x2BF88000669EE6F7A648A231F4ADBC117F5A8E34F980C08420B9B9A9F2640AA1 PUSH2 0x10E4 DUP2 PUSH2 0x1348 JUMP JUMPDEST PUSH1 0x0 PUSH1 0x2 DUP5 PUSH1 0x40 MLOAD PUSH2 0x10F6 SWAP2 SWAP1 PUSH2 0x2526 JUMP JUMPDEST SWAP1 DUP2 MSTORE PUSH1 0x20 ADD PUSH1 0x40 MLOAD DUP1 SWAP2 SUB SWAP1 KECCAK256 SWAP1 POP DUP1 PUSH1 0x2 ADD SLOAD TIMESTAMP LT PUSH2 0x114C JUMPI PUSH1 0x40 MLOAD PUSH32 0x8C379A000000000000000000000000000000000000000000000000000000000 DUP2 MSTORE PUSH1 0x4 ADD PUSH2 0x1143 SWAP1 PUSH2 0x2855 JUMP JUMPDEST PUSH1 0x40 MLOAD DUP1 SWAP2 SUB SWAP1 REVERT JUMPDEST PUSH1 0x0 DUP2 PUSH1 0x4 ADD SLOAD EQ PUSH2 0x1193 JUMPI PUSH1 0x40 MLOAD PUSH32 0x8C379A000000000000000000000000000000000000000000000000000000000 DUP2 MSTORE PUSH1 0x4 ADD PUSH2 0x118A SWAP1 PUSH2 0x2815 JUMP JUMPDEST PUSH1 0x40 MLOAD DUP1 SWAP2 SUB SWAP1 REVERT JUMPDEST PUSH1 0x0 DUP1 PUSH2 0x11C3 DUP4 PUSH1 0x1 ADD PUSH1 0x0 SWAP1 SLOAD SWAP1 PUSH2 0x100 EXP SWAP1 DIV PUSH20 0xFFFFFFFFFFFFFFFFFFFFFFFFFFFFFFFFFFFFFFFF AND PUSH2 0x1525 JUMP JUMPDEST SWAP2 POP SWAP2 POP DUP2 DUP4 PUSH1 0x3 ADD DUP2 SWAP1 SSTORE POP DUP1 DUP4 PUSH1 0x4 ADD DUP2 SWAP1 SSTORE POP PUSH2 0x11EA PUSH2 0x11E5 DUP8 PUSH2 0x1742 JUMP JUMPDEST PUSH2 0x15C3 JUMP JUMPDEST POP PUSH32 0x49E0B636815DC79DCB9A0D30F307838293583B407695F07F6C4B15187C259D39 DUP7 DUP4 DUP4 PUSH1 0x40 MLOAD PUSH2 0x121E SWAP4 SWAP3 SWAP2 SWAP1 PUSH2 0x2797 JUMP JUMPDEST PUSH1 0x40 MLOAD DUP1 SWAP2 SUB SWAP1 LOG1 DUP2 SWAP5 POP POP POP POP POP SWAP2 SWAP1 POP JUMP JUMPDEST PUSH1 0x0 DUP1 SHL DUP2 JUMP JUMPDEST PUSH2 0x1242 DUP3 PUSH2 0x50D JUMP JUMPDEST PUSH2 0x124B DUP2 PUSH2 0x1348 JUMP JUMPDEST PUSH2 0x1255 DUP4 DUP4 PUSH2 0x1444 JUMP JUMPDEST POP POP POP JUMP JUMPDEST TIMESTAMP DUP3 GT PUSH2 0x129C JUMPI PUSH1 0x40 MLOAD PUSH32 0x8C379A000000000000000000000000000000000000000000000000000000000 DUP2 MSTORE PUSH1 0x4 ADD PUSH2 0x1293 SWAP1 PUSH2 0x2875 JUMP JUMPDEST PUSH1 0x40 MLOAD DUP1 SWAP2 SUB SWAP1 REVERT JUMPDEST PUSH32 0x76570F28E10FDEDE20130AB377B0716E5F58F534E68FBBD8D7591059A59AC7BD DUP4 DUP4 DUP4 CALLER PUSH1 0x40 MLOAD PUSH2 0x12D1 SWAP5 SWAP4 SWAP3 SWAP2 SWAP1 PUSH2 0x25B0 JUMP JUMPDEST PUSH1 0x40 MLOAD DUP1 SWAP2 SUB SWAP1 LOG1 POP POP POP JUMP JUMPDEST PUSH1 0x0 PUSH32 0x1FFC9A700000000000000000000000000000000000000000000000000000000 PUSH28 0xFFFFFFFFFFFFFFFFFFFFFFFFFFFFFFFFFFFFFFFFFFFFFFFFFFFFFFFF NOT AND DUP3 PUSH28 0xFFFFFFFFFFFFFFFFFFFFFFFFFFFFFFFFFFFFFFFFFFFFFFFFFFFFFFFF NOT AND EQ SWAP1 POP SWAP2 SWAP1 POP JUMP JUMPDEST PUSH2 0x1359 DUP2 PUSH2 0x1354 PUSH2 0x143C JUMP JUMPDEST PUSH2 0x1825 JUMP JUMPDEST POP JUMP JUMPDEST PUSH2 0x1366 DUP3 DUP3 PUSH2 0xDC0 JUMP JUMPDEST PUSH2 0x1438 JUMPI PUSH1 0x1 PUSH1 0x0 DUP1 DUP5 DUP2 MSTORE PUSH1 0x20 ADD SWAP1 DUP2 MSTORE PUSH1 0x20 ADD PUSH1 0x0 KECCAK256 PUSH1 0x0 ADD PUSH1 0x0 DUP4 PUSH20 0xFFFFFFFFFFFFFFFFFFFFFFFFFFFFFFFFFFFFFFFF AND PUSH20 0xFFFFFFFFFFFFFFFFFFFFFFFFFFFFFFFFFFFFFFFF AND DUP2 MSTORE PUSH1 0x20 ADD SWAP1 DUP2 MSTORE PUSH1 0x20 ADD PUSH1 0x0 KECCAK256 PUSH1 0x0 PUSH2 0x100 EXP DUP2 SLOAD DUP2 PUSH1 0xFF MUL NOT AND SWAP1 DUP4 ISZERO ISZERO MUL OR SWAP1 SSTORE POP PUSH2 0x13DD PUSH2 0x143C JUMP JUMPDEST PUSH20 0xFFFFFFFFFFFFFFFFFFFFFFFFFFFFFFFFFFFFFFFF AND DUP2 PUSH20 0xFFFFFFFFFFFFFFFFFFFFFFFFFFFFFFFFFFFFFFFF AND DUP4 PUSH32 0x2F8788117E7EFF1D82E926EC794901D17C78024A50270940304540A733656F0D PUSH1 0x40 MLOAD PUSH1 0x40 MLOAD DUP1 SWAP2 SUB SWAP1 LOG4 JUMPDEST POP POP JUMP JUMPDEST PUSH1 0x0 CALLER SWAP1 POP SWAP1 JUMP JUMPDEST PUSH2 0x144E DUP3 DUP3 PUSH2 0xDC0 JUMP JUMPDEST ISZERO PUSH2 0x1521 JUMPI PUSH1 0x0 DUP1 PUSH1 0x0 DUP5 DUP2 MSTORE PUSH1 0x20 ADD SWAP1 DUP2 MSTORE PUSH1 0x20 ADD PUSH1 0x0 KECCAK256 PUSH1 0x0 ADD PUSH1 0x0 DUP4 PUSH20 0xFFFFFFFFFFFFFFFFFFFFFFFFFFFFFFFFFFFFFFFF AND PUSH20 0xFFFFFFFFFFFFFFFFFFFFFFFFFFFFFFFFFFFFFFFF AND DUP2 MSTORE PUSH1 0x20 ADD SWAP1 DUP2 MSTORE PUSH1 0x20 ADD PUSH1 0x0 KECCAK256 PUSH1 0x0 PUSH2 0x100 EXP DUP2 SLOAD DUP2 PUSH1 0xFF MUL NOT AND SWAP1 DUP4 ISZERO ISZERO MUL OR SWAP1 SSTORE POP PUSH2 0x14C6 PUSH2 0x143C JUMP JUMPDEST PUSH20 0xFFFFFFFFFFFFFFFFFFFFFFFFFFFFFFFFFFFFFFFF AND DUP2 PUSH20 0xFFFFFFFFFFFFFFFFFFFFFFFFFFFFFFFFFFFFFFFF AND DUP4 PUSH32 0xF6391F5C32D9C69D2A47EA670B442974B53935D1EDC7FD64EB21E047A839171B PUSH1 0x40 MLOAD PUSH1 0x40 MLOAD DUP1 SWAP2 SUB SWAP1 LOG4 JUMPDEST POP POP JUMP JUMPDEST PUSH1 0x0 DUP1 PUSH1 0x0 DUP4 SWAP1 POP PUSH1 0x0 DUP1 DUP3 PUSH20 0xFFFFFFFFFFFFFFFFFFFFFFFFFFFFFFFFFFFFFFFF AND PUSH4 0xFEAF968C PUSH1 0x40 MLOAD DUP2 PUSH4 0xFFFFFFFF AND PUSH1 0xE0 SHL DUP2 MSTORE PUSH1 0x4 ADD PUSH1 0xA0 PUSH1 0x40 MLOAD DUP1 DUP4 SUB DUP2 DUP7 DUP1 EXTCODESIZE ISZERO DUP1 ISZERO PUSH2 0x1576 JUMPI PUSH1 0x0 DUP1 REVERT JUMPDEST POP GAS STATICCALL ISZERO DUP1 ISZERO PUSH2 0x158A JUMPI RETURNDATASIZE PUSH1 0x0 DUP1 RETURNDATACOPY RETURNDATASIZE PUSH1 0x0 REVERT JUMPDEST POP POP POP POP PUSH1 0x40 MLOAD RETURNDATASIZE PUSH1 0x1F NOT PUSH1 0x1F DUP3 ADD AND DUP3 ADD DUP1 PUSH1 0x40 MSTORE POP DUP2 ADD SWAP1 PUSH2 0x15AE SWAP2 SWAP1 PUSH2 0x20AF JUMP JUMPDEST POP SWAP4 POP POP SWAP3 POP POP DUP2 DUP2 SWAP5 POP SWAP5 POP POP POP POP SWAP2 POP SWAP2 JUMP JUMPDEST PUSH1 0x60 PUSH1 0x1 DUP1 SLOAD SWAP1 POP DUP3 LT PUSH2 0x15D6 JUMPI PUSH1 0x0 DUP1 REVERT JUMPDEST PUSH1 0x1 DUP1 DUP1 DUP1 SLOAD SWAP1 POP PUSH2 0x15E8 SWAP2 SWAP1 PUSH2 0x2A9F JUMP JUMPDEST DUP2 SLOAD DUP2 LT PUSH2 0x15F9 JUMPI PUSH2 0x15F8 PUSH2 0x2D16 JUMP JUMPDEST JUMPDEST SWAP1 PUSH1 0x0 MSTORE PUSH1 0x20 PUSH1 0x0 KECCAK256 ADD PUSH1 0x1 DUP4 DUP2 SLOAD DUP2 LT PUSH2 0x1617 JUMPI PUSH2 0x1616 PUSH2 0x2D16 JUMP JUMPDEST JUMPDEST SWAP1 PUSH1 0x0 MSTORE PUSH1 0x20 PUSH1 0x0 KECCAK256 ADD SWAP1 DUP1 SLOAD PUSH2 0x162D SWAP1 PUSH2 0x2BDD JUMP JUMPDEST PUSH2 0x1638 SWAP3 SWAP2 SWAP1 PUSH2 0x1B84 JUMP JUMPDEST POP PUSH1 0x1 DUP1 SLOAD DUP1 PUSH2 0x164B JUMPI PUSH2 0x164A PUSH2 0x2CE7 JUMP JUMPDEST JUMPDEST PUSH1 0x1 SWAP1 SUB DUP2 DUP2 SWAP1 PUSH1 0x0 MSTORE PUSH1 0x20 PUSH1 0x0 KECCAK256 ADD PUSH1 0x0 PUSH2 0x1667 SWAP2 SWAP1 PUSH2 0x1C11 JUMP JUMPDEST SWAP1 SSTORE PUSH1 0x1 DUP1 SLOAD DUP1 PUSH1 0x20 MUL PUSH1 0x20 ADD PUSH1 0x40 MLOAD SWAP1 DUP2 ADD PUSH1 0x40 MSTORE DUP1 SWAP3 SWAP2 SWAP1 DUP2 DUP2 MSTORE PUSH1 0x20 ADD PUSH1 0x0 SWAP1 JUMPDEST DUP3 DUP3 LT ISZERO PUSH2 0x1737 JUMPI DUP4 DUP3 SWAP1 PUSH1 0x0 MSTORE PUSH1 0x20 PUSH1 0x0 KECCAK256 ADD DUP1 SLOAD PUSH2 0x16AA SWAP1 PUSH2 0x2BDD JUMP JUMPDEST DUP1 PUSH1 0x1F ADD PUSH1 0x20 DUP1 SWAP2 DIV MUL PUSH1 0x20 ADD PUSH1 0x40 MLOAD SWAP1 DUP2 ADD PUSH1 0x40 MSTORE DUP1 SWAP3 SWAP2 SWAP1 DUP2 DUP2 MSTORE PUSH1 0x20 ADD DUP3 DUP1 SLOAD PUSH2 0x16D6 SWAP1 PUSH2 0x2BDD JUMP JUMPDEST DUP1 ISZERO PUSH2 0x1723 JUMPI DUP1 PUSH1 0x1F LT PUSH2 0x16F8 JUMPI PUSH2 0x100 DUP1 DUP4 SLOAD DIV MUL DUP4 MSTORE SWAP2 PUSH1 0x20 ADD SWAP2 PUSH2 0x1723 JUMP JUMPDEST DUP3 ADD SWAP2 SWAP1 PUSH1 0x0 MSTORE PUSH1 0x20 PUSH1 0x0 KECCAK256 SWAP1 JUMPDEST DUP2 SLOAD DUP2 MSTORE SWAP1 PUSH1 0x1 ADD SWAP1 PUSH1 0x20 ADD DUP1 DUP4 GT PUSH2 0x1706 JUMPI DUP3 SWAP1 SUB PUSH1 0x1F AND DUP3 ADD SWAP2 JUMPDEST POP POP POP POP POP DUP2 MSTORE PUSH1 0x20 ADD SWAP1 PUSH1 0x1 ADD SWAP1 PUSH2 0x168B JUMP JUMPDEST POP POP POP POP SWAP1 POP SWAP2 SWAP1 POP JUMP JUMPDEST PUSH1 0x0 DUP1 PUSH1 0x0 SWAP1 POP JUMPDEST PUSH1 0x1 DUP1 SLOAD SWAP1 POP DUP2 LT ISZERO PUSH2 0x17E4 JUMPI DUP3 PUSH1 0x40 MLOAD PUSH1 0x20 ADD PUSH2 0x1768 SWAP2 SWAP1 PUSH2 0x2526 JUMP JUMPDEST PUSH1 0x40 MLOAD PUSH1 0x20 DUP2 DUP4 SUB SUB DUP2 MSTORE SWAP1 PUSH1 0x40 MSTORE DUP1 MLOAD SWAP1 PUSH1 0x20 ADD KECCAK256 PUSH1 0x1 DUP3 DUP2 SLOAD DUP2 LT PUSH2 0x1792 JUMPI PUSH2 0x1791 PUSH2 0x2D16 JUMP JUMPDEST JUMPDEST SWAP1 PUSH1 0x0 MSTORE PUSH1 0x20 PUSH1 0x0 KECCAK256 ADD PUSH1 0x40 MLOAD PUSH1 0x20 ADD PUSH2 0x17AC SWAP2 SWAP1 PUSH2 0x253D JUMP JUMPDEST PUSH1 0x40 MLOAD PUSH1 0x20 DUP2 DUP4 SUB SUB DUP2 MSTORE SWAP1 PUSH1 0x40 MSTORE DUP1 MLOAD SWAP1 PUSH1 0x20 ADD KECCAK256 EQ ISZERO PUSH2 0x17D1 JUMPI DUP1 SWAP2 POP POP PUSH2 0x1820 JUMP JUMPDEST DUP1 DUP1 PUSH2 0x17DC SWAP1 PUSH2 0x2C40 JUMP JUMPDEST SWAP2 POP POP PUSH2 0x174A JUMP JUMPDEST POP PUSH1 0x40 MLOAD PUSH32 0x8C379A000000000000000000000000000000000000000000000000000000000 DUP2 MSTORE PUSH1 0x4 ADD PUSH2 0x1817 SWAP1 PUSH2 0x2835 JUMP JUMPDEST PUSH1 0x40 MLOAD DUP1 SWAP2 SUB SWAP1 REVERT JUMPDEST SWAP2 SWAP1 POP JUMP JUMPDEST PUSH2 0x182F DUP3 DUP3 PUSH2 0xDC0 JUMP JUMPDEST PUSH2 0x18BE JUMPI PUSH2 0x1854 DUP2 PUSH20 0xFFFFFFFFFFFFFFFFFFFFFFFFFFFFFFFFFFFFFFFF AND PUSH1 0x14 PUSH2 0x18C2 JUMP JUMPDEST PUSH2 0x1862 DUP4 PUSH1 0x0 SHR PUSH1 0x20 PUSH2 0x18C2 JUMP JUMPDEST PUSH1 0x40 MLOAD PUSH1 0x20 ADD PUSH2 0x1873 SWAP3 SWAP2 SWAP1 PUSH2 0x2576 JUMP JUMPDEST PUSH1 0x40 MLOAD PUSH1 0x20 DUP2 DUP4 SUB SUB DUP2 MSTORE SWAP1 PUSH1 0x40 MSTORE PUSH1 0x40 MLOAD PUSH32 0x8C379A000000000000000000000000000000000000000000000000000000000 DUP2 MSTORE PUSH1 0x4 ADD PUSH2 0x18B5 SWAP2 SWAP1 PUSH2 0x26C1 JUMP JUMPDEST PUSH1 0x40 MLOAD DUP1 SWAP2 SUB SWAP1 REVERT JUMPDEST POP POP JUMP JUMPDEST PUSH1 0x60 PUSH1 0x0 PUSH1 0x2 DUP4 PUSH1 0x2 PUSH2 0x18D5 SWAP2 SWAP1 PUSH2 0x2A45 JUMP JUMPDEST PUSH2 0x18DF SWAP2 SWAP1 PUSH2 0x29EF JUMP JUMPDEST PUSH8 0xFFFFFFFFFFFFFFFF DUP2 GT ISZERO PUSH2 0x18F8 JUMPI PUSH2 0x18F7 PUSH2 0x2D45 JUMP JUMPDEST JUMPDEST PUSH1 0x40 MLOAD SWAP1 DUP1 DUP3 MSTORE DUP1 PUSH1 0x1F ADD PUSH1 0x1F NOT AND PUSH1 0x20 ADD DUP3 ADD PUSH1 0x40 MSTORE DUP1 ISZERO PUSH2 0x192A JUMPI DUP2 PUSH1 0x20 ADD PUSH1 0x1 DUP3 MUL DUP1 CALLDATASIZE DUP4 CALLDATACOPY DUP1 DUP3 ADD SWAP2 POP POP SWAP1 POP JUMPDEST POP SWAP1 POP PUSH32 0x3000000000000000000000000000000000000000000000000000000000000000 DUP2 PUSH1 0x0 DUP2 MLOAD DUP2 LT PUSH2 0x1962 JUMPI PUSH2 0x1961 PUSH2 0x2D16 JUMP JUMPDEST JUMPDEST PUSH1 0x20 ADD ADD SWAP1 PUSH31 0xFFFFFFFFFFFFFFFFFFFFFFFFFFFFFFFFFFFFFFFFFFFFFFFFFFFFFFFFFFFFFF NOT AND SWAP1 DUP2 PUSH1 0x0 BYTE SWAP1 MSTORE8 POP PUSH32 0x7800000000000000000000000000000000000000000000000000000000000000 DUP2 PUSH1 0x1 DUP2 MLOAD DUP2 LT PUSH2 0x19C6 JUMPI PUSH2 0x19C5 PUSH2 0x2D16 JUMP JUMPDEST JUMPDEST PUSH1 0x20 ADD ADD SWAP1 PUSH31 0xFFFFFFFFFFFFFFFFFFFFFFFFFFFFFFFFFFFFFFFFFFFFFFFFFFFFFFFFFFFFFF NOT AND SWAP1 DUP2 PUSH1 0x0 BYTE SWAP1 MSTORE8 POP PUSH1 0x0 PUSH1 0x1 DUP5 PUSH1 0x2 PUSH2 0x1A06 SWAP2 SWAP1 PUSH2 0x2A45 JUMP JUMPDEST PUSH2 0x1A10 SWAP2 SWAP1 PUSH2 0x29EF JUMP JUMPDEST SWAP1 POP JUMPDEST PUSH1 0x1 DUP2 GT ISZERO PUSH2 0x1AB0 JUMPI PUSH32 0x3031323334353637383961626364656600000000000000000000000000000000 PUSH1 0xF DUP7 AND PUSH1 0x10 DUP2 LT PUSH2 0x1A52 JUMPI PUSH2 0x1A51 PUSH2 0x2D16 JUMP JUMPDEST JUMPDEST BYTE PUSH1 0xF8 SHL DUP3 DUP3 DUP2 MLOAD DUP2 LT PUSH2 0x1A69 JUMPI PUSH2 0x1A68 PUSH2 0x2D16 JUMP JUMPDEST JUMPDEST PUSH1 0x20 ADD ADD SWAP1 PUSH31 0xFFFFFFFFFFFFFFFFFFFFFFFFFFFFFFFFFFFFFFFFFFFFFFFFFFFFFFFFFFFFFF NOT AND SWAP1 DUP2 PUSH1 0x0 BYTE SWAP1 MSTORE8 POP PUSH1 0x4 DUP6 SWAP1 SHR SWAP5 POP DUP1 PUSH2 0x1AA9 SWAP1 PUSH2 0x2BB3 JUMP JUMPDEST SWAP1 POP PUSH2 0x1A13 JUMP JUMPDEST POP PUSH1 0x0 DUP5 EQ PUSH2 0x1AF4 JUMPI PUSH1 0x40 MLOAD PUSH32 0x8C379A000000000000000000000000000000000000000000000000000000000 DUP2 MSTORE PUSH1 0x4 ADD PUSH2 0x1AEB SWAP1 PUSH2 0x27F5 JUMP JUMPDEST PUSH1 0x40 MLOAD DUP1 SWAP2 SUB SWAP1 REVERT JUMPDEST DUP1 SWAP2 POP POP SWAP3 SWAP2 POP POP JUMP JUMPDEST DUP3 DUP1 SLOAD PUSH2 0x1B0A SWAP1 PUSH2 0x2BDD JUMP JUMPDEST SWAP1 PUSH1 0x0 MSTORE PUSH1 0x20 PUSH1 0x0 KECCAK256 SWAP1 PUSH1 0x1F ADD PUSH1 0x20 SWAP1 DIV DUP2 ADD SWAP3 DUP3 PUSH2 0x1B2C JUMPI PUSH1 0x0 DUP6 SSTORE PUSH2 0x1B73 JUMP JUMPDEST DUP3 PUSH1 0x1F LT PUSH2 0x1B45 JUMPI DUP1 MLOAD PUSH1 0xFF NOT AND DUP4 DUP1 ADD OR DUP6 SSTORE PUSH2 0x1B73 JUMP JUMPDEST DUP3 DUP1 ADD PUSH1 0x1 ADD DUP6 SSTORE DUP3 ISZERO PUSH2 0x1B73 JUMPI SWAP2 DUP3 ADD JUMPDEST DUP3 DUP2 GT ISZERO PUSH2 0x1B72 JUMPI DUP3 MLOAD DUP3 SSTORE SWAP2 PUSH1 0x20 ADD SWAP2 SWAP1 PUSH1 0x1 ADD SWAP1 PUSH2 0x1B57 JUMP JUMPDEST JUMPDEST POP SWAP1 POP PUSH2 0x1B80 SWAP2 SWAP1 PUSH2 0x1C51 JUMP JUMPDEST POP SWAP1 JUMP JUMPDEST DUP3 DUP1 SLOAD PUSH2 0x1B90 SWAP1 PUSH2 0x2BDD JUMP JUMPDEST SWAP1 PUSH1 0x0 MSTORE PUSH1 0x20 PUSH1 0x0 KECCAK256 SWAP1 PUSH1 0x1F ADD PUSH1 0x20 SWAP1 DIV DUP2 ADD SWAP3 DUP3 PUSH2 0x1BB2 JUMPI PUSH1 0x0 DUP6 SSTORE PUSH2 0x1C00 JUMP JUMPDEST DUP3 PUSH1 0x1F LT PUSH2 0x1BC3 JUMPI DUP1 SLOAD DUP6 SSTORE PUSH2 0x1C00 JUMP JUMPDEST DUP3 DUP1 ADD PUSH1 0x1 ADD DUP6 SSTORE DUP3 ISZERO PUSH2 0x1C00 JUMPI PUSH1 0x0 MSTORE PUSH1 0x20 PUSH1 0x0 KECCAK256 SWAP2 PUSH1 0x1F ADD PUSH1 0x20 SWAP1 DIV DUP3 ADD JUMPDEST DUP3 DUP2 GT ISZERO PUSH2 0x1BFF JUMPI DUP3 SLOAD DUP3 SSTORE SWAP2 PUSH1 0x1 ADD SWAP2 SWAP1 PUSH1 0x1 ADD SWAP1 PUSH2 0x1BE4 JUMP JUMPDEST JUMPDEST POP SWAP1 POP PUSH2 0x1C0D SWAP2 SWAP1 PUSH2 0x1C51 JUMP JUMPDEST POP SWAP1 JUMP JUMPDEST POP DUP1 SLOAD PUSH2 0x1C1D SWAP1 PUSH2 0x2BDD JUMP JUMPDEST PUSH1 0x0 DUP3 SSTORE DUP1 PUSH1 0x1F LT PUSH2 0x1C2F JUMPI POP PUSH2 0x1C4E JUMP JUMPDEST PUSH1 0x1F ADD PUSH1 0x20 SWAP1 DIV SWAP1 PUSH1 0x0 MSTORE PUSH1 0x20 PUSH1 0x0 KECCAK256 SWAP1 DUP2 ADD SWAP1 PUSH2 0x1C4D SWAP2 SWAP1 PUSH2 0x1C51 JUMP JUMPDEST JUMPDEST POP JUMP JUMPDEST JUMPDEST DUP1 DUP3 GT ISZERO PUSH2 0x1C6A JUMPI PUSH1 0x0 DUP2 PUSH1 0x0 SWAP1 SSTORE POP PUSH1 0x1 ADD PUSH2 0x1C52 JUMP JUMPDEST POP SWAP1 JUMP JUMPDEST PUSH1 0x0 PUSH2 0x1C81 PUSH2 0x1C7C DUP5 PUSH2 0x291C JUMP JUMPDEST PUSH2 0x28F7 JUMP JUMPDEST SWAP1 POP DUP3 DUP2 MSTORE PUSH1 0x20 DUP2 ADD DUP5 DUP5 DUP5 ADD GT ISZERO PUSH2 0x1C9D JUMPI PUSH2 0x1C9C PUSH2 0x2D8D JUMP JUMPDEST JUMPDEST PUSH2 0x1CA8 DUP5 DUP3 DUP6 PUSH2 0x2B71 JUMP JUMPDEST POP SWAP4 SWAP3 POP POP POP JUMP JUMPDEST PUSH1 0x0 DUP2 CALLDATALOAD SWAP1 POP PUSH2 0x1CBF DUP2 PUSH2 0x3054 JUMP JUMPDEST SWAP3 SWAP2 POP POP JUMP JUMPDEST PUSH1 0x0 DUP2 CALLDATALOAD SWAP1 POP PUSH2 0x1CD4 DUP2 PUSH2 0x306B JUMP JUMPDEST SWAP3 SWAP2 POP POP JUMP JUMPDEST PUSH1 0x0 DUP2 CALLDATALOAD SWAP1 POP PUSH2 0x1CE9 DUP2 PUSH2 0x3082 JUMP JUMPDEST SWAP3 SWAP2 POP POP JUMP JUMPDEST PUSH1 0x0 DUP1 DUP4 PUSH1 0x1F DUP5 ADD SLT PUSH2 0x1D05 JUMPI PUSH2 0x1D04 PUSH2 0x2D79 JUMP JUMPDEST JUMPDEST DUP3 CALLDATALOAD SWAP1 POP PUSH8 0xFFFFFFFFFFFFFFFF DUP2 GT ISZERO PUSH2 0x1D22 JUMPI PUSH2 0x1D21 PUSH2 0x2D74 JUMP JUMPDEST JUMPDEST PUSH1 0x20 DUP4 ADD SWAP2 POP DUP4 PUSH1 0x1 DUP3 MUL DUP4 ADD GT ISZERO PUSH2 0x1D3E JUMPI PUSH2 0x1D3D PUSH2 0x2D88 JUMP JUMPDEST JUMPDEST SWAP3 POP SWAP3 SWAP1 POP JUMP JUMPDEST PUSH1 0x0 DUP2 MLOAD SWAP1 POP PUSH2 0x1D54 DUP2 PUSH2 0x3099 JUMP JUMPDEST SWAP3 SWAP2 POP POP JUMP JUMPDEST PUSH1 0x0 DUP3 PUSH1 0x1F DUP4 ADD SLT PUSH2 0x1D6F JUMPI PUSH2 0x1D6E PUSH2 0x2D79 JUMP JUMPDEST JUMPDEST DUP2 CALLDATALOAD PUSH2 0x1D7F DUP5 DUP3 PUSH1 0x20 DUP7 ADD PUSH2 0x1C6E JUMP JUMPDEST SWAP2 POP POP SWAP3 SWAP2 POP POP JUMP JUMPDEST PUSH1 0x0 PUSH1 0x40 DUP3 DUP5 SUB SLT ISZERO PUSH2 0x1D9E JUMPI PUSH2 0x1D9D PUSH2 0x2D7E JUMP JUMPDEST JUMPDEST PUSH2 0x1DA8 PUSH1 0x40 PUSH2 0x28F7 JUMP JUMPDEST SWAP1 POP PUSH1 0x0 DUP3 ADD CALLDATALOAD PUSH8 0xFFFFFFFFFFFFFFFF DUP2 GT ISZERO PUSH2 0x1DC8 JUMPI PUSH2 0x1DC7 PUSH2 0x2D83 JUMP JUMPDEST JUMPDEST PUSH2 0x1DD4 DUP5 DUP3 DUP6 ADD PUSH2 0x1D5A JUMP JUMPDEST PUSH1 0x0 DUP4 ADD MSTORE POP PUSH1 0x20 PUSH2 0x1DE8 DUP5 DUP3 DUP6 ADD PUSH2 0x1DF4 JUMP JUMPDEST PUSH1 0x20 DUP4 ADD MSTORE POP SWAP3 SWAP2 POP POP JUMP JUMPDEST PUSH1 0x0 DUP2 CALLDATALOAD SWAP1 POP PUSH2 0x1E03 DUP2 PUSH2 0x30B0 JUMP JUMPDEST SWAP3 SWAP2 POP POP JUMP JUMPDEST PUSH1 0x0 DUP2 MLOAD SWAP1 POP PUSH2 0x1E18 DUP2 PUSH2 0x30B0 JUMP JUMPDEST SWAP3 SWAP2 POP POP JUMP JUMPDEST PUSH1 0x0 DUP2 MLOAD SWAP1 POP PUSH2 0x1E2D DUP2 PUSH2 0x30C7 JUMP JUMPDEST SWAP3 SWAP2 POP POP JUMP JUMPDEST PUSH1 0x0 DUP1 PUSH1 0x0 PUSH1 0x60 DUP5 DUP7 SUB SLT ISZERO PUSH2 0x1E4C JUMPI PUSH2 0x1E4B PUSH2 0x2D97 JUMP JUMPDEST JUMPDEST PUSH1 0x0 PUSH2 0x1E5A DUP7 DUP3 DUP8 ADD PUSH2 0x1CB0 JUMP JUMPDEST SWAP4 POP POP PUSH1 0x20 PUSH2 0x1E6B DUP7 DUP3 DUP8 ADD PUSH2 0x1DF4 JUMP JUMPDEST SWAP3 POP POP PUSH1 0x40 PUSH2 0x1E7C DUP7 DUP3 DUP8 ADD PUSH2 0x1DF4 JUMP JUMPDEST SWAP2 POP POP SWAP3 POP SWAP3 POP SWAP3 JUMP JUMPDEST PUSH1 0x0 PUSH1 0x20 DUP3 DUP5 SUB SLT ISZERO PUSH2 0x1E9C JUMPI PUSH2 0x1E9B PUSH2 0x2D97 JUMP JUMPDEST JUMPDEST PUSH1 0x0 PUSH2 0x1EAA DUP5 DUP3 DUP6 ADD PUSH2 0x1CC5 JUMP JUMPDEST SWAP2 POP POP SWAP3 SWAP2 POP POP JUMP JUMPDEST PUSH1 0x0 DUP1 PUSH1 0x40 DUP4 DUP6 SUB SLT ISZERO PUSH2 0x1ECA JUMPI PUSH2 0x1EC9 PUSH2 0x2D97 JUMP JUMPDEST JUMPDEST PUSH1 0x0 PUSH2 0x1ED8 DUP6 DUP3 DUP7 ADD PUSH2 0x1CC5 JUMP JUMPDEST SWAP3 POP POP PUSH1 0x20 PUSH2 0x1EE9 DUP6 DUP3 DUP7 ADD PUSH2 0x1CB0 JUMP JUMPDEST SWAP2 POP POP SWAP3 POP SWAP3 SWAP1 POP JUMP JUMPDEST PUSH1 0x0 PUSH1 0x20 DUP3 DUP5 SUB SLT ISZERO PUSH2 0x1F09 JUMPI PUSH2 0x1F08 PUSH2 0x2D97 JUMP JUMPDEST JUMPDEST PUSH1 0x0 PUSH2 0x1F17 DUP5 DUP3 DUP6 ADD PUSH2 0x1CDA JUMP JUMPDEST SWAP2 POP POP SWAP3 SWAP2 POP POP JUMP JUMPDEST PUSH1 0x0 DUP1 PUSH1 0x20 DUP4 DUP6 SUB SLT ISZERO PUSH2 0x1F37 JUMPI PUSH2 0x1F36 PUSH2 0x2D97 JUMP JUMPDEST JUMPDEST PUSH1 0x0 DUP4 ADD CALLDATALOAD PUSH8 0xFFFFFFFFFFFFFFFF DUP2 GT ISZERO PUSH2 0x1F55 JUMPI PUSH2 0x1F54 PUSH2 0x2D92 JUMP JUMPDEST JUMPDEST PUSH2 0x1F61 DUP6 DUP3 DUP7 ADD PUSH2 0x1CEF JUMP JUMPDEST SWAP3 POP SWAP3 POP POP SWAP3 POP SWAP3 SWAP1 POP JUMP JUMPDEST PUSH1 0x0 PUSH1 0x20 DUP3 DUP5 SUB SLT ISZERO PUSH2 0x1F83 JUMPI PUSH2 0x1F82 PUSH2 0x2D97 JUMP JUMPDEST JUMPDEST PUSH1 0x0 DUP3 ADD CALLDATALOAD PUSH8 0xFFFFFFFFFFFFFFFF DUP2 GT ISZERO PUSH2 0x1FA1 JUMPI PUSH2 0x1FA0 PUSH2 0x2D92 JUMP JUMPDEST JUMPDEST PUSH2 0x1FAD DUP5 DUP3 DUP6 ADD PUSH2 0x1D5A JUMP JUMPDEST SWAP2 POP POP SWAP3 SWAP2 POP POP JUMP JUMPDEST PUSH1 0x0 DUP1 PUSH1 0x0 DUP1 PUSH1 0x80 DUP6 DUP8 SUB SLT ISZERO PUSH2 0x1FD0 JUMPI PUSH2 0x1FCF PUSH2 0x2D97 JUMP JUMPDEST JUMPDEST PUSH1 0x0 DUP6 ADD CALLDATALOAD PUSH8 0xFFFFFFFFFFFFFFFF DUP2 GT ISZERO PUSH2 0x1FEE JUMPI PUSH2 0x1FED PUSH2 0x2D92 JUMP JUMPDEST JUMPDEST PUSH2 0x1FFA DUP8 DUP3 DUP9 ADD PUSH2 0x1D5A JUMP JUMPDEST SWAP5 POP POP PUSH1 0x20 PUSH2 0x200B DUP8 DUP3 DUP9 ADD PUSH2 0x1CB0 JUMP JUMPDEST SWAP4 POP POP PUSH1 0x40 PUSH2 0x201C DUP8 DUP3 DUP9 ADD PUSH2 0x1DF4 JUMP JUMPDEST SWAP3 POP POP PUSH1 0x60 PUSH2 0x202D DUP8 DUP3 DUP9 ADD PUSH2 0x1DF4 JUMP JUMPDEST SWAP2 POP POP SWAP3 SWAP6 SWAP2 SWAP5 POP SWAP3 POP JUMP JUMPDEST PUSH1 0x0 PUSH1 0x20 DUP3 DUP5 SUB SLT ISZERO PUSH2 0x204F JUMPI PUSH2 0x204E PUSH2 0x2D97 JUMP JUMPDEST JUMPDEST PUSH1 0x0 DUP3 ADD CALLDATALOAD PUSH8 0xFFFFFFFFFFFFFFFF DUP2 GT ISZERO PUSH2 0x206D JUMPI PUSH2 0x206C PUSH2 0x2D92 JUMP JUMPDEST JUMPDEST PUSH2 0x2079 DUP5 DUP3 DUP6 ADD PUSH2 0x1D88 JUMP JUMPDEST SWAP2 POP POP SWAP3 SWAP2 POP POP JUMP JUMPDEST PUSH1 0x0 PUSH1 0x20 DUP3 DUP5 SUB SLT ISZERO PUSH2 0x2098 JUMPI PUSH2 0x2097 PUSH2 0x2D97 JUMP JUMPDEST JUMPDEST PUSH1 0x0 PUSH2 0x20A6 DUP5 DUP3 DUP6 ADD PUSH2 0x1DF4 JUMP JUMPDEST SWAP2 POP POP SWAP3 SWAP2 POP POP JUMP JUMPDEST PUSH1 0x0 DUP1 PUSH1 0x0 DUP1 PUSH1 0x0 PUSH1 0xA0 DUP7 DUP9 SUB SLT ISZERO PUSH2 0x20CB JUMPI PUSH2 0x20CA PUSH2 0x2D97 JUMP JUMPDEST JUMPDEST PUSH1 0x0 PUSH2 0x20D9 DUP9 DUP3 DUP10 ADD PUSH2 0x1E1E JUMP JUMPDEST SWAP6 POP POP PUSH1 0x20 PUSH2 0x20EA DUP9 DUP3 DUP10 ADD PUSH2 0x1D45 JUMP JUMPDEST SWAP5 POP POP PUSH1 0x40 PUSH2 0x20FB DUP9 DUP3 DUP10 ADD PUSH2 0x1E09 JUMP JUMPDEST SWAP4 POP POP PUSH1 0x60 PUSH2 0x210C DUP9 DUP3 DUP10 ADD PUSH2 0x1E09 JUMP JUMPDEST SWAP3 POP POP PUSH1 0x80 PUSH2 0x211D DUP9 DUP3 DUP10 ADD PUSH2 0x1E1E JUMP JUMPDEST SWAP2 POP POP SWAP3 SWAP6 POP SWAP3 SWAP6 SWAP1 SWAP4 POP JUMP JUMPDEST PUSH1 0x0 PUSH2 0x2136 DUP4 DUP4 PUSH2 0x2228 JUMP JUMPDEST SWAP1 POP SWAP3 SWAP2 POP POP JUMP JUMPDEST PUSH2 0x2147 DUP2 PUSH2 0x2AD3 JUMP JUMPDEST DUP3 MSTORE POP POP JUMP JUMPDEST PUSH1 0x0 PUSH2 0x2158 DUP3 PUSH2 0x2972 JUMP JUMPDEST PUSH2 0x2162 DUP2 DUP6 PUSH2 0x29A0 JUMP JUMPDEST SWAP4 POP DUP4 PUSH1 0x20 DUP3 MUL DUP6 ADD PUSH2 0x2174 DUP6 PUSH2 0x294D JUMP JUMPDEST DUP1 PUSH1 0x0 JUMPDEST DUP6 DUP2 LT ISZERO PUSH2 0x21B0 JUMPI DUP5 DUP5 SUB DUP10 MSTORE DUP2 MLOAD PUSH2 0x2191 DUP6 DUP3 PUSH2 0x212A JUMP JUMPDEST SWAP5 POP PUSH2 0x219C DUP4 PUSH2 0x2993 JUMP JUMPDEST SWAP3 POP PUSH1 0x20 DUP11 ADD SWAP10 POP POP PUSH1 0x1 DUP2 ADD SWAP1 POP PUSH2 0x2178 JUMP JUMPDEST POP DUP3 SWAP8 POP DUP8 SWAP6 POP POP POP POP POP POP SWAP3 SWAP2 POP POP JUMP JUMPDEST PUSH2 0x21CB DUP2 PUSH2 0x2AE5 JUMP JUMPDEST DUP3 MSTORE POP POP JUMP JUMPDEST PUSH2 0x21DA DUP2 PUSH2 0x2AF1 JUMP JUMPDEST DUP3 MSTORE POP POP JUMP JUMPDEST PUSH1 0x0 PUSH2 0x21EB DUP3 PUSH2 0x297D JUMP JUMPDEST PUSH2 0x21F5 DUP2 DUP6 PUSH2 0x29B1 JUMP JUMPDEST SWAP4 POP PUSH2 0x2205 DUP2 DUP6 PUSH1 0x20 DUP7 ADD PUSH2 0x2B80 JUMP JUMPDEST PUSH2 0x220E DUP2 PUSH2 0x2D9C JUMP JUMPDEST DUP5 ADD SWAP2 POP POP SWAP3 SWAP2 POP POP JUMP JUMPDEST PUSH2 0x2222 DUP2 PUSH2 0x2B27 JUMP JUMPDEST DUP3 MSTORE POP POP JUMP JUMPDEST PUSH1 0x0 PUSH2 0x2233 DUP3 PUSH2 0x2988 JUMP JUMPDEST PUSH2 0x223D DUP2 DUP6 PUSH2 0x29C2 JUMP JUMPDEST SWAP4 POP PUSH2 0x224D DUP2 DUP6 PUSH1 0x20 DUP7 ADD PUSH2 0x2B80 JUMP JUMPDEST PUSH2 0x2256 DUP2 PUSH2 0x2D9C JUMP JUMPDEST DUP5 ADD SWAP2 POP POP SWAP3 SWAP2 POP POP JUMP JUMPDEST PUSH1 0x0 PUSH2 0x226C DUP3 PUSH2 0x2988 JUMP JUMPDEST PUSH2 0x2276 DUP2 DUP6 PUSH2 0x29D3 JUMP JUMPDEST SWAP4 POP PUSH2 0x2286 DUP2 DUP6 PUSH1 0x20 DUP7 ADD PUSH2 0x2B80 JUMP JUMPDEST PUSH2 0x228F DUP2 PUSH2 0x2D9C JUMP JUMPDEST DUP5 ADD SWAP2 POP POP SWAP3 SWAP2 POP POP JUMP JUMPDEST PUSH1 0x0 PUSH2 0x22A5 DUP3 PUSH2 0x2988 JUMP JUMPDEST PUSH2 0x22AF DUP2 DUP6 PUSH2 0x29E4 JUMP JUMPDEST SWAP4 POP PUSH2 0x22BF DUP2 DUP6 PUSH1 0x20 DUP7 ADD PUSH2 0x2B80 JUMP JUMPDEST DUP1 DUP5 ADD SWAP2 POP POP SWAP3 SWAP2 POP POP JUMP JUMPDEST PUSH1 0x0 DUP2 SLOAD PUSH2 0x22D8 DUP2 PUSH2 0x2BDD JUMP JUMPDEST PUSH2 0x22E2 DUP2 DUP7 PUSH2 0x29E4 JUMP JUMPDEST SWAP5 POP PUSH1 0x1 DUP3 AND PUSH1 0x0 DUP2 EQ PUSH2 0x22FD JUMPI PUSH1 0x1 DUP2 EQ PUSH2 0x230E JUMPI PUSH2 0x2341 JUMP JUMPDEST PUSH1 0xFF NOT DUP4 AND DUP7 MSTORE DUP2 DUP7 ADD SWAP4 POP PUSH2 0x2341 JUMP JUMPDEST PUSH2 0x2317 DUP6 PUSH2 0x295D JUMP JUMPDEST PUSH1 0x0 JUMPDEST DUP4 DUP2 LT ISZERO PUSH2 0x2339 JUMPI DUP2 SLOAD DUP2 DUP10 ADD MSTORE PUSH1 0x1 DUP3 ADD SWAP2 POP PUSH1 0x20 DUP2 ADD SWAP1 POP PUSH2 0x231A JUMP JUMPDEST DUP4 DUP9 ADD SWAP6 POP POP POP JUMPDEST POP POP POP SWAP3 SWAP2 POP POP JUMP JUMPDEST PUSH1 0x0 PUSH2 0x2357 PUSH1 0x23 DUP4 PUSH2 0x29D3 JUMP JUMPDEST SWAP2 POP PUSH2 0x2362 DUP3 PUSH2 0x2DAD JUMP JUMPDEST PUSH1 0x40 DUP3 ADD SWAP1 POP SWAP2 SWAP1 POP JUMP JUMPDEST PUSH1 0x0 PUSH2 0x237A PUSH1 0x20 DUP4 PUSH2 0x29D3 JUMP JUMPDEST SWAP2 POP PUSH2 0x2385 DUP3 PUSH2 0x2DFC JUMP JUMPDEST PUSH1 0x20 DUP3 ADD SWAP1 POP SWAP2 SWAP1 POP JUMP JUMPDEST PUSH1 0x0 PUSH2 0x239D PUSH1 0x35 DUP4 PUSH2 0x29D3 JUMP JUMPDEST SWAP2 POP PUSH2 0x23A8 DUP3 PUSH2 0x2E25 JUMP JUMPDEST PUSH1 0x40 DUP3 ADD SWAP1 POP SWAP2 SWAP1 POP JUMP JUMPDEST PUSH1 0x0 PUSH2 0x23C0 PUSH1 0x9 DUP4 PUSH2 0x29D3 JUMP JUMPDEST SWAP2 POP PUSH2 0x23CB DUP3 PUSH2 0x2E74 JUMP JUMPDEST PUSH1 0x20 DUP3 ADD SWAP1 POP SWAP2 SWAP1 POP JUMP JUMPDEST PUSH1 0x0 PUSH2 0x23E3 PUSH1 0x2E DUP4 PUSH2 0x29E4 JUMP JUMPDEST SWAP2 POP PUSH2 0x23EE DUP3 PUSH2 0x2E9D JUMP JUMPDEST PUSH1 0x2E DUP3 ADD SWAP1 POP SWAP2 SWAP1 POP JUMP JUMPDEST PUSH1 0x0 PUSH2 0x2406 PUSH1 0x2A DUP4 PUSH2 0x29D3 JUMP JUMPDEST SWAP2 POP PUSH2 0x2411 DUP3 PUSH2 0x2EEC JUMP JUMPDEST PUSH1 0x40 DUP3 ADD SWAP1 POP SWAP2 SWAP1 POP JUMP JUMPDEST PUSH1 0x0 PUSH2 0x2429 PUSH1 0x21 DUP4 PUSH2 0x29D3 JUMP JUMPDEST SWAP2 POP PUSH2 0x2434 DUP3 PUSH2 0x2F3B JUMP JUMPDEST PUSH1 0x40 DUP3 ADD SWAP1 POP SWAP2 SWAP1 POP JUMP JUMPDEST PUSH1 0x0 PUSH2 0x244C PUSH1 0x17 DUP4 PUSH2 0x29E4 JUMP JUMPDEST SWAP2 POP PUSH2 0x2457 DUP3 PUSH2 0x2F8A JUMP JUMPDEST PUSH1 0x17 DUP3 ADD SWAP1 POP SWAP2 SWAP1 POP JUMP JUMPDEST PUSH1 0x0 PUSH2 0x246F PUSH1 0x11 DUP4 PUSH2 0x29E4 JUMP JUMPDEST SWAP2 POP PUSH2 0x247A DUP3 PUSH2 0x2FB3 JUMP JUMPDEST PUSH1 0x11 DUP3 ADD SWAP1 POP SWAP2 SWAP1 POP JUMP JUMPDEST PUSH1 0x0 PUSH2 0x2492 PUSH1 0x2F DUP4 PUSH2 0x29D3 JUMP JUMPDEST SWAP2 POP PUSH2 0x249D DUP3 PUSH2 0x2FDC JUMP JUMPDEST PUSH1 0x40 DUP3 ADD SWAP1 POP SWAP2 SWAP1 POP JUMP JUMPDEST PUSH1 0x0 PUSH2 0x24B5 PUSH1 0x11 DUP4 PUSH2 0x29D3 JUMP JUMPDEST SWAP2 POP PUSH2 0x24C0 DUP3 PUSH2 0x302B JUMP JUMPDEST PUSH1 0x20 DUP3 ADD SWAP1 POP SWAP2 SWAP1 POP JUMP JUMPDEST PUSH1 0x0 PUSH1 0x40 DUP4 ADD PUSH1 0x0 DUP4 ADD MLOAD DUP5 DUP3 SUB PUSH1 0x0 DUP7 ADD MSTORE PUSH2 0x24E8 DUP3 DUP3 PUSH2 0x2228 JUMP JUMPDEST SWAP2 POP POP PUSH1 0x20 DUP4 ADD MLOAD PUSH2 0x24FD PUSH1 0x20 DUP7 ADD DUP3 PUSH2 0x2508 JUMP JUMPDEST POP DUP1 SWAP2 POP POP SWAP3 SWAP2 POP POP JUMP JUMPDEST PUSH2 0x2511 DUP2 PUSH2 0x2B51 JUMP JUMPDEST DUP3 MSTORE POP POP JUMP JUMPDEST PUSH2 0x2520 DUP2 PUSH2 0x2B51 JUMP JUMPDEST DUP3 MSTORE POP POP JUMP JUMPDEST PUSH1 0x0 PUSH2 0x2532 DUP3 DUP5 PUSH2 0x229A JUMP JUMPDEST SWAP2 POP DUP2 SWAP1 POP SWAP3 SWAP2 POP POP JUMP JUMPDEST PUSH1 0x0 PUSH2 0x2549 DUP3 DUP5 PUSH2 0x22CB JUMP JUMPDEST SWAP2 POP DUP2 SWAP1 POP SWAP3 SWAP2 POP POP JUMP JUMPDEST PUSH1 0x0 PUSH2 0x255F DUP3 PUSH2 0x23D6 JUMP JUMPDEST SWAP2 POP PUSH2 0x256B DUP3 DUP5 PUSH2 0x229A JUMP JUMPDEST SWAP2 POP DUP2 SWAP1 POP SWAP3 SWAP2 POP POP JUMP JUMPDEST PUSH1 0x0 PUSH2 0x2581 DUP3 PUSH2 0x243F JUMP JUMPDEST SWAP2 POP PUSH2 0x258D DUP3 DUP6 PUSH2 0x229A JUMP JUMPDEST SWAP2 POP PUSH2 0x2598 DUP3 PUSH2 0x2462 JUMP JUMPDEST SWAP2 POP PUSH2 0x25A4 DUP3 DUP5 PUSH2 0x229A JUMP JUMPDEST SWAP2 POP DUP2 SWAP1 POP SWAP4 SWAP3 POP POP POP JUMP JUMPDEST PUSH1 0x0 PUSH1 0x80 DUP3 ADD SWAP1 POP PUSH2 0x25C5 PUSH1 0x0 DUP4 ADD DUP8 PUSH2 0x213E JUMP JUMPDEST PUSH2 0x25D2 PUSH1 0x20 DUP4 ADD DUP7 PUSH2 0x2517 JUMP JUMPDEST PUSH2 0x25DF PUSH1 0x40 DUP4 ADD DUP6 PUSH2 0x2517 JUMP JUMPDEST PUSH2 0x25EC PUSH1 0x60 DUP4 ADD DUP5 PUSH2 0x213E JUMP JUMPDEST SWAP6 SWAP5 POP POP POP POP POP JUMP JUMPDEST PUSH1 0x0 PUSH1 0x20 DUP3 ADD SWAP1 POP DUP2 DUP2 SUB PUSH1 0x0 DUP4 ADD MSTORE PUSH2 0x260F DUP2 DUP5 PUSH2 0x214D JUMP JUMPDEST SWAP1 POP SWAP3 SWAP2 POP POP JUMP JUMPDEST PUSH1 0x0 PUSH1 0x20 DUP3 ADD SWAP1 POP PUSH2 0x262C PUSH1 0x0 DUP4 ADD DUP5 PUSH2 0x21C2 JUMP JUMPDEST SWAP3 SWAP2 POP POP JUMP JUMPDEST PUSH1 0x0 PUSH1 0x40 DUP3 ADD SWAP1 POP PUSH2 0x2647 PUSH1 0x0 DUP4 ADD DUP6 PUSH2 0x21C2 JUMP JUMPDEST DUP2 DUP2 SUB PUSH1 0x20 DUP4 ADD MSTORE PUSH2 0x2659 DUP2 DUP5 PUSH2 0x21E0 JUMP JUMPDEST SWAP1 POP SWAP4 SWAP3 POP POP POP JUMP JUMPDEST PUSH1 0x0 PUSH1 0x20 DUP3 ADD SWAP1 POP PUSH2 0x2677 PUSH1 0x0 DUP4 ADD DUP5 PUSH2 0x21D1 JUMP JUMPDEST SWAP3 SWAP2 POP POP JUMP JUMPDEST PUSH1 0x0 PUSH1 0x20 DUP3 ADD SWAP1 POP PUSH2 0x2692 PUSH1 0x0 DUP4 ADD DUP5 PUSH2 0x2219 JUMP JUMPDEST SWAP3 SWAP2 POP POP JUMP JUMPDEST PUSH1 0x0 PUSH1 0x40 DUP3 ADD SWAP1 POP PUSH2 0x26AD PUSH1 0x0 DUP4 ADD DUP6 PUSH2 0x2219 JUMP JUMPDEST PUSH2 0x26BA PUSH1 0x20 DUP4 ADD DUP5 PUSH2 0x2517 JUMP JUMPDEST SWAP4 SWAP3 POP POP POP JUMP JUMPDEST PUSH1 0x0 PUSH1 0x20 DUP3 ADD SWAP1 POP DUP2 DUP2 SUB PUSH1 0x0 DUP4 ADD MSTORE PUSH2 0x26DB DUP2 DUP5 PUSH2 0x2261 JUMP JUMPDEST SWAP1 POP SWAP3 SWAP2 POP POP JUMP JUMPDEST PUSH1 0x0 PUSH1 0xC0 DUP3 ADD SWAP1 POP DUP2 DUP2 SUB PUSH1 0x0 DUP4 ADD MSTORE PUSH2 0x26FD DUP2 DUP10 PUSH2 0x2261 JUMP JUMPDEST SWAP1 POP PUSH2 0x270C PUSH1 0x20 DUP4 ADD DUP9 PUSH2 0x213E JUMP JUMPDEST PUSH2 0x2719 PUSH1 0x40 DUP4 ADD DUP8 PUSH2 0x2517 JUMP JUMPDEST PUSH2 0x2726 PUSH1 0x60 DUP4 ADD DUP7 PUSH2 0x2219 JUMP JUMPDEST PUSH2 0x2733 PUSH1 0x80 DUP4 ADD DUP6 PUSH2 0x2517 JUMP JUMPDEST PUSH2 0x2740 PUSH1 0xA0 DUP4 ADD DUP5 PUSH2 0x2517 JUMP JUMPDEST SWAP8 SWAP7 POP POP POP POP POP POP POP JUMP JUMPDEST PUSH1 0x0 PUSH1 0x80 DUP3 ADD SWAP1 POP DUP2 DUP2 SUB PUSH1 0x0 DUP4 ADD MSTORE PUSH2 0x2765 DUP2 DUP8 PUSH2 0x2261 JUMP JUMPDEST SWAP1 POP PUSH2 0x2774 PUSH1 0x20 DUP4 ADD DUP7 PUSH2 0x213E JUMP JUMPDEST PUSH2 0x2781 PUSH1 0x40 DUP4 ADD DUP6 PUSH2 0x2517 JUMP JUMPDEST PUSH2 0x278E PUSH1 0x60 DUP4 ADD DUP5 PUSH2 0x2517 JUMP JUMPDEST SWAP6 SWAP5 POP POP POP POP POP JUMP JUMPDEST PUSH1 0x0 PUSH1 0x60 DUP3 ADD SWAP1 POP DUP2 DUP2 SUB PUSH1 0x0 DUP4 ADD MSTORE PUSH2 0x27B1 DUP2 DUP7 PUSH2 0x2261 JUMP JUMPDEST SWAP1 POP PUSH2 0x27C0 PUSH1 0x20 DUP4 ADD DUP6 PUSH2 0x2219 JUMP JUMPDEST PUSH2 0x27CD PUSH1 0x40 DUP4 ADD DUP5 PUSH2 0x2517 JUMP JUMPDEST SWAP5 SWAP4 POP POP POP POP JUMP JUMPDEST PUSH1 0x0 PUSH1 0x20 DUP3 ADD SWAP1 POP DUP2 DUP2 SUB PUSH1 0x0 DUP4 ADD MSTORE PUSH2 0x27EE DUP2 PUSH2 0x234A JUMP JUMPDEST SWAP1 POP SWAP2 SWAP1 POP JUMP JUMPDEST PUSH1 0x0 PUSH1 0x20 DUP3 ADD SWAP1 POP DUP2 DUP2 SUB PUSH1 0x0 DUP4 ADD MSTORE PUSH2 0x280E DUP2 PUSH2 0x236D JUMP JUMPDEST SWAP1 POP SWAP2 SWAP1 POP JUMP JUMPDEST PUSH1 0x0 PUSH1 0x20 DUP3 ADD SWAP1 POP DUP2 DUP2 SUB PUSH1 0x0 DUP4 ADD MSTORE PUSH2 0x282E DUP2 PUSH2 0x2390 JUMP JUMPDEST SWAP1 POP SWAP2 SWAP1 POP JUMP JUMPDEST PUSH1 0x0 PUSH1 0x20 DUP3 ADD SWAP1 POP DUP2 DUP2 SUB PUSH1 0x0 DUP4 ADD MSTORE PUSH2 0x284E DUP2 PUSH2 0x23B3 JUMP JUMPDEST SWAP1 POP SWAP2 SWAP1 POP JUMP JUMPDEST PUSH1 0x0 PUSH1 0x20 DUP3 ADD SWAP1 POP DUP2 DUP2 SUB PUSH1 0x0 DUP4 ADD MSTORE PUSH2 0x286E DUP2 PUSH2 0x23F9 JUMP JUMPDEST SWAP1 POP SWAP2 SWAP1 POP JUMP JUMPDEST PUSH1 0x0 PUSH1 0x20 DUP3 ADD SWAP1 POP DUP2 DUP2 SUB PUSH1 0x0 DUP4 ADD MSTORE PUSH2 0x288E DUP2 PUSH2 0x241C JUMP JUMPDEST SWAP1 POP SWAP2 SWAP1 POP JUMP JUMPDEST PUSH1 0x0 PUSH1 0x20 DUP3 ADD SWAP1 POP DUP2 DUP2 SUB PUSH1 0x0 DUP4 ADD MSTORE PUSH2 0x28AE DUP2 PUSH2 0x2485 JUMP JUMPDEST SWAP1 POP SWAP2 SWAP1 POP JUMP JUMPDEST PUSH1 0x0 PUSH1 0x20 DUP3 ADD SWAP1 POP DUP2 DUP2 SUB PUSH1 0x0 DUP4 ADD MSTORE PUSH2 0x28CE DUP2 PUSH2 0x24A8 JUMP JUMPDEST SWAP1 POP SWAP2 SWAP1 POP JUMP JUMPDEST PUSH1 0x0 PUSH1 0x20 DUP3 ADD SWAP1 POP DUP2 DUP2 SUB PUSH1 0x0 DUP4 ADD MSTORE PUSH2 0x28EF DUP2 DUP5 PUSH2 0x24CB JUMP JUMPDEST SWAP1 POP SWAP3 SWAP2 POP POP JUMP JUMPDEST PUSH1 0x0 PUSH2 0x2901 PUSH2 0x2912 JUMP JUMPDEST SWAP1 POP PUSH2 0x290D DUP3 DUP3 PUSH2 0x2C0F JUMP JUMPDEST SWAP2 SWAP1 POP JUMP JUMPDEST PUSH1 0x0 PUSH1 0x40 MLOAD SWAP1 POP SWAP1 JUMP JUMPDEST PUSH1 0x0 PUSH8 0xFFFFFFFFFFFFFFFF DUP3 GT ISZERO PUSH2 0x2937 JUMPI PUSH2 0x2936 PUSH2 0x2D45 JUMP JUMPDEST JUMPDEST PUSH2 0x2940 DUP3 PUSH2 0x2D9C JUMP JUMPDEST SWAP1 POP PUSH1 0x20 DUP2 ADD SWAP1 POP SWAP2 SWAP1 POP JUMP JUMPDEST PUSH1 0x0 DUP2 SWAP1 POP PUSH1 0x20 DUP3 ADD SWAP1 POP SWAP2 SWAP1 POP JUMP JUMPDEST PUSH1 0x0 DUP2 SWAP1 POP DUP2 PUSH1 0x0 MSTORE PUSH1 0x20 PUSH1 0x0 KECCAK256 SWAP1 POP SWAP2 SWAP1 POP JUMP JUMPDEST PUSH1 0x0 DUP2 MLOAD SWAP1 POP SWAP2 SWAP1 POP JUMP JUMPDEST PUSH1 0x0 DUP2 MLOAD SWAP1 POP SWAP2 SWAP1 POP JUMP JUMPDEST PUSH1 0x0 DUP2 MLOAD SWAP1 POP SWAP2 SWAP1 POP JUMP JUMPDEST PUSH1 0x0 PUSH1 0x20 DUP3 ADD SWAP1 POP SWAP2 SWAP1 POP JUMP JUMPDEST PUSH1 0x0 DUP3 DUP3 MSTORE PUSH1 0x20 DUP3 ADD SWAP1 POP SWAP3 SWAP2 POP POP JUMP JUMPDEST PUSH1 0x0 DUP3 DUP3 MSTORE PUSH1 0x20 DUP3 ADD SWAP1 POP SWAP3 SWAP2 POP POP JUMP JUMPDEST PUSH1 0x0 DUP3 DUP3 MSTORE PUSH1 0x20 DUP3 ADD SWAP1 POP SWAP3 SWAP2 POP POP JUMP JUMPDEST PUSH1 0x0 DUP3 DUP3 MSTORE PUSH1 0x20 DUP3 ADD SWAP1 POP SWAP3 SWAP2 POP POP JUMP JUMPDEST PUSH1 0x0 DUP2 SWAP1 POP SWAP3 SWAP2 POP POP JUMP JUMPDEST PUSH1 0x0 PUSH2 0x29FA DUP3 PUSH2 0x2B51 JUMP JUMPDEST SWAP2 POP PUSH2 0x2A05 DUP4 PUSH2 0x2B51 JUMP JUMPDEST SWAP3 POP DUP3 PUSH32 0xFFFFFFFFFFFFFFFFFFFFFFFFFFFFFFFFFFFFFFFFFFFFFFFFFFFFFFFFFFFFFFFF SUB DUP3 GT ISZERO PUSH2 0x2A3A JUMPI PUSH2 0x2A39 PUSH2 0x2C89 JUMP JUMPDEST JUMPDEST DUP3 DUP3 ADD SWAP1 POP SWAP3 SWAP2 POP POP JUMP JUMPDEST PUSH1 0x0 PUSH2 0x2A50 DUP3 PUSH2 0x2B51 JUMP JUMPDEST SWAP2 POP PUSH2 0x2A5B DUP4 PUSH2 0x2B51 JUMP JUMPDEST SWAP3 POP DUP2 PUSH32 0xFFFFFFFFFFFFFFFFFFFFFFFFFFFFFFFFFFFFFFFFFFFFFFFFFFFFFFFFFFFFFFFF DIV DUP4 GT DUP3 ISZERO ISZERO AND ISZERO PUSH2 0x2A94 JUMPI PUSH2 0x2A93 PUSH2 0x2C89 JUMP JUMPDEST JUMPDEST DUP3 DUP3 MUL SWAP1 POP SWAP3 SWAP2 POP POP JUMP JUMPDEST PUSH1 0x0 PUSH2 0x2AAA DUP3 PUSH2 0x2B51 JUMP JUMPDEST SWAP2 POP PUSH2 0x2AB5 DUP4 PUSH2 0x2B51 JUMP JUMPDEST SWAP3 POP DUP3 DUP3 LT ISZERO PUSH2 0x2AC8 JUMPI PUSH2 0x2AC7 PUSH2 0x2C89 JUMP JUMPDEST JUMPDEST DUP3 DUP3 SUB SWAP1 POP SWAP3 SWAP2 POP POP JUMP JUMPDEST PUSH1 0x0 PUSH2 0x2ADE DUP3 PUSH2 0x2B31 JUMP JUMPDEST SWAP1 POP SWAP2 SWAP1 POP JUMP JUMPDEST PUSH1 0x0 DUP2 ISZERO ISZERO SWAP1 POP SWAP2 SWAP1 POP JUMP JUMPDEST PUSH1 0x0 DUP2 SWAP1 POP SWAP2 SWAP1 POP JUMP JUMPDEST PUSH1 0x0 PUSH32 0xFFFFFFFF00000000000000000000000000000000000000000000000000000000 DUP3 AND SWAP1 POP SWAP2 SWAP1 POP JUMP JUMPDEST PUSH1 0x0 DUP2 SWAP1 POP SWAP2 SWAP1 POP JUMP JUMPDEST PUSH1 0x0 PUSH20 0xFFFFFFFFFFFFFFFFFFFFFFFFFFFFFFFFFFFFFFFF DUP3 AND SWAP1 POP SWAP2 SWAP1 POP JUMP JUMPDEST PUSH1 0x0 DUP2 SWAP1 POP SWAP2 SWAP1 POP JUMP JUMPDEST PUSH1 0x0 PUSH10 0xFFFFFFFFFFFFFFFFFFFF DUP3 AND SWAP1 POP SWAP2 SWAP1 POP JUMP JUMPDEST DUP3 DUP2 DUP4 CALLDATACOPY PUSH1 0x0 DUP4 DUP4 ADD MSTORE POP POP POP JUMP JUMPDEST PUSH1 0x0 JUMPDEST DUP4 DUP2 LT ISZERO PUSH2 0x2B9E JUMPI DUP1 DUP3 ADD MLOAD DUP2 DUP5 ADD MSTORE PUSH1 0x20 DUP2 ADD SWAP1 POP PUSH2 0x2B83 JUMP JUMPDEST DUP4 DUP2 GT ISZERO PUSH2 0x2BAD JUMPI PUSH1 0x0 DUP5 DUP5 ADD MSTORE JUMPDEST POP POP POP POP JUMP JUMPDEST PUSH1 0x0 PUSH2 0x2BBE DUP3 PUSH2 0x2B51 JUMP JUMPDEST SWAP2 POP PUSH1 0x0 DUP3 EQ ISZERO PUSH2 0x2BD2 JUMPI PUSH2 0x2BD1 PUSH2 0x2C89 JUMP JUMPDEST JUMPDEST PUSH1 0x1 DUP3 SUB SWAP1 POP SWAP2 SWAP1 POP JUMP JUMPDEST PUSH1 0x0 PUSH1 0x2 DUP3 DIV SWAP1 POP PUSH1 0x1 DUP3 AND DUP1 PUSH2 0x2BF5 JUMPI PUSH1 0x7F DUP3 AND SWAP2 POP JUMPDEST PUSH1 0x20 DUP3 LT DUP2 EQ ISZERO PUSH2 0x2C09 JUMPI PUSH2 0x2C08 PUSH2 0x2CB8 JUMP JUMPDEST JUMPDEST POP SWAP2 SWAP1 POP JUMP JUMPDEST PUSH2 0x2C18 DUP3 PUSH2 0x2D9C JUMP JUMPDEST DUP2 ADD DUP2 DUP2 LT PUSH8 0xFFFFFFFFFFFFFFFF DUP3 GT OR ISZERO PUSH2 0x2C37 JUMPI PUSH2 0x2C36 PUSH2 0x2D45 JUMP JUMPDEST JUMPDEST DUP1 PUSH1 0x40 MSTORE POP POP POP JUMP JUMPDEST PUSH1 0x0 PUSH2 0x2C4B DUP3 PUSH2 0x2B51 JUMP JUMPDEST SWAP2 POP PUSH32 0xFFFFFFFFFFFFFFFFFFFFFFFFFFFFFFFFFFFFFFFFFFFFFFFFFFFFFFFFFFFFFFFF DUP3 EQ ISZERO PUSH2 0x2C7E JUMPI PUSH2 0x2C7D PUSH2 0x2C89 JUMP JUMPDEST JUMPDEST PUSH1 0x1 DUP3 ADD SWAP1 POP SWAP2 SWAP1 POP JUMP JUMPDEST PUSH32 0x4E487B7100000000000000000000000000000000000000000000000000000000 PUSH1 0x0 MSTORE PUSH1 0x11 PUSH1 0x4 MSTORE PUSH1 0x24 PUSH1 0x0 REVERT JUMPDEST PUSH32 0x4E487B7100000000000000000000000000000000000000000000000000000000 PUSH1 0x0 MSTORE PUSH1 0x22 PUSH1 0x4 MSTORE PUSH1 0x24 PUSH1 0x0 REVERT JUMPDEST PUSH32 0x4E487B7100000000000000000000000000000000000000000000000000000000 PUSH1 0x0 MSTORE PUSH1 0x31 PUSH1 0x4 MSTORE PUSH1 0x24 PUSH1 0x0 REVERT JUMPDEST PUSH32 0x4E487B7100000000000000000000000000000000000000000000000000000000 PUSH1 0x0 MSTORE PUSH1 0x32 PUSH1 0x4 MSTORE PUSH1 0x24 PUSH1 0x0 REVERT JUMPDEST PUSH32 0x4E487B7100000000000000000000000000000000000000000000000000000000 PUSH1 0x0 MSTORE PUSH1 0x41 PUSH1 0x4 MSTORE PUSH1 0x24 PUSH1 0x0 REVERT JUMPDEST PUSH1 0x0 DUP1 REVERT JUMPDEST PUSH1 0x0 DUP1 REVERT JUMPDEST PUSH1 0x0 DUP1 REVERT JUMPDEST PUSH1 0x0 DUP1 REVERT JUMPDEST PUSH1 0x0 DUP1 REVERT JUMPDEST PUSH1 0x0 DUP1 REVERT JUMPDEST PUSH1 0x0 DUP1 REVERT JUMPDEST PUSH1 0x0 DUP1 REVERT JUMPDEST PUSH1 0x0 PUSH1 0x1F NOT PUSH1 0x1F DUP4 ADD AND SWAP1 POP SWAP2 SWAP1 POP JUMP JUMPDEST PUSH32 0x5468652072657175657374656420444C43206973206E6F7420636C6F73656420 PUSH1 0x0 DUP3 ADD MSTORE PUSH32 0x7965740000000000000000000000000000000000000000000000000000000000 PUSH1 0x20 DUP3 ADD MSTORE POP JUMP JUMPDEST PUSH32 0x537472696E67733A20686578206C656E67746820696E73756666696369656E74 PUSH1 0x0 DUP3 ADD MSTORE POP JUMP JUMPDEST PUSH32 0x43616E206F6E6C792062652063616C6C65642069662074686520444C43206861 PUSH1 0x0 DUP3 ADD MSTORE PUSH32 0x73206E6F74206265656E20636C6F736564207965740000000000000000000000 PUSH1 0x20 DUP3 ADD MSTORE POP JUMP JUMPDEST PUSH32 0x4E6F7420466F756E640000000000000000000000000000000000000000000000 PUSH1 0x0 DUP3 ADD MSTORE POP JUMP JUMPDEST PUSH32 0x56616C69646174696F6E206661696C656420666F7220706572666F726D55704B PUSH1 0x0 DUP3 ADD MSTORE PUSH32 0x65657020666F7220555549443A20000000000000000000000000000000000000 PUSH1 0x20 DUP3 ADD MSTORE POP JUMP JUMPDEST PUSH32 0x43616E206F6E6C792062652063616C6C6564206265666F72652074686520636C PUSH1 0x0 DUP3 ADD MSTORE PUSH32 0x6F73696E672074696D6500000000000000000000000000000000000000000000 PUSH1 0x20 DUP3 ADD MSTORE POP JUMP JUMPDEST PUSH32 0x436C6F73696E672074696D652063616E277420626520696E2074686520706173 PUSH1 0x0 DUP3 ADD MSTORE PUSH32 0x7400000000000000000000000000000000000000000000000000000000000000 PUSH1 0x20 DUP3 ADD MSTORE POP JUMP JUMPDEST PUSH32 0x416363657373436F6E74726F6C3A206163636F756E7420000000000000000000 PUSH1 0x0 DUP3 ADD MSTORE POP JUMP JUMPDEST PUSH32 0x206973206D697373696E6720726F6C6520000000000000000000000000000000 PUSH1 0x0 DUP3 ADD MSTORE POP JUMP JUMPDEST PUSH32 0x416363657373436F6E74726F6C3A2063616E206F6E6C792072656E6F756E6365 PUSH1 0x0 DUP3 ADD MSTORE PUSH32 0x20726F6C657320666F722073656C660000000000000000000000000000000000 PUSH1 0x20 DUP3 ADD MSTORE POP JUMP JUMPDEST PUSH32 0x444C4320616C7265616479206164646564000000000000000000000000000000 PUSH1 0x0 DUP3 ADD MSTORE POP JUMP JUMPDEST PUSH2 0x305D DUP2 PUSH2 0x2AD3 JUMP JUMPDEST DUP2 EQ PUSH2 0x3068 JUMPI PUSH1 0x0 DUP1 REVERT JUMPDEST POP JUMP JUMPDEST PUSH2 0x3074 DUP2 PUSH2 0x2AF1 JUMP JUMPDEST DUP2 EQ PUSH2 0x307F JUMPI PUSH1 0x0 DUP1 REVERT JUMPDEST POP JUMP JUMPDEST PUSH2 0x308B DUP2 PUSH2 0x2AFB JUMP JUMPDEST DUP2 EQ PUSH2 0x3096 JUMPI PUSH1 0x0 DUP1 REVERT JUMPDEST POP JUMP JUMPDEST PUSH2 0x30A2 DUP2 PUSH2 0x2B27 JUMP JUMPDEST DUP2 EQ PUSH2 0x30AD JUMPI PUSH1 0x0 DUP1 REVERT JUMPDEST POP JUMP JUMPDEST PUSH2 0x30B9 DUP2 PUSH2 0x2B51 JUMP JUMPDEST DUP2 EQ PUSH2 0x30C4 JUMPI PUSH1 0x0 DUP1 REVERT JUMPDEST POP JUMP JUMPDEST PUSH2 0x30D0 DUP2 PUSH2 0x2B5B JUMP JUMPDEST DUP2 EQ PUSH2 0x30DB JUMPI PUSH1 0x0 DUP1 REVERT JUMPDEST POP JUMP INVALID LOG2 PUSH5 0x6970667358 0x22 SLT KECCAK256 CODECOPY 0x4D SWAP7 XOR PUSH32 0xDA8E14B299E3219E884445BD89B4F9B7FB15BA1DC34B191330216364736F6C63 NUMBER STOP ADDMOD SMOD STOP CALLER "
				},
				"gasEstimates": {
					"creation": {
						"codeDepositCost": "2512800",
						"executionCost": "infinite",
						"totalCost": "infinite"
					},
					"external": {
						"DEFAULT_ADMIN_ROLE()": "401",
						"DLC_ADMIN_ROLE()": "418",
						"addNewDLC(string,address,uint256,uint256)": "infinite",
						"allOpenDLC()": "infinite",
						"cancelEarly(string)": "infinite",
						"checkUpkeep(bytes)": "infinite",
						"closingPriceAndTimeOfDLC(string)": "infinite",
						"dlcs(string)": "infinite",
						"getRoleAdmin(bytes32)": "infinite",
						"grantRole(bytes32,address)": "infinite",
						"hasRole(bytes32,address)": "3229",
						"openUUIDs(uint256)": "infinite",
						"performUpkeep(bytes)": "infinite",
						"renounceRole(bytes32,address)": "infinite",
						"requestCreateDLC(address,uint256,uint256)": "infinite",
						"revokeRole(bytes32,address)": "infinite",
						"supportsInterface(bytes4)": "751"
					},
					"internal": {
						"findIndex(string memory)": "infinite",
						"getLatestPrice(address)": "infinite",
						"removeClosedDLC(uint256)": "infinite"
					}
				},
				"methodIdentifiers": {
					"DEFAULT_ADMIN_ROLE()": "a217fddf",
					"DLC_ADMIN_ROLE()": "4dcc2774",
					"addNewDLC(string,address,uint256,uint256)": "91f2dfbf",
					"allOpenDLC()": "5e4a9e15",
					"cancelEarly(string)": "94c2d0db",
					"checkUpkeep(bytes)": "6e04ff0d",
					"closingPriceAndTimeOfDLC(string)": "54499002",
					"dlcs(string)": "0ef2feff",
					"getRoleAdmin(bytes32)": "248a9ca3",
					"grantRole(bytes32,address)": "2f2ff15d",
					"hasRole(bytes32,address)": "91d14854",
					"openUUIDs(uint256)": "2e730910",
					"performUpkeep(bytes)": "4585e33b",
					"renounceRole(bytes32,address)": "36568abe",
					"requestCreateDLC(address,uint256,uint256)": "efa643bb",
					"revokeRole(bytes32,address)": "d547741f",
					"supportsInterface(bytes4)": "01ffc9a7"
				}
			},
			"storageLayout": {
				"storage": [
					{
						"astId": 128,
						"contract": "contracts/DiscreetLog.sol:DiscreetLog",
						"label": "_roles",
						"offset": 0,
						"slot": "0",
						"type": "t_mapping(t_bytes32,t_struct(RoleData)123_storage)"
					},
					{
						"astId": 774,
						"contract": "contracts/DiscreetLog.sol:DiscreetLog",
						"label": "openUUIDs",
						"offset": 0,
						"slot": "1",
						"type": "t_array(t_string_storage)dyn_storage"
					},
					{
						"astId": 779,
						"contract": "contracts/DiscreetLog.sol:DiscreetLog",
						"label": "dlcs",
						"offset": 0,
						"slot": "2",
						"type": "t_mapping(t_string_memory_ptr,t_struct(DLC)792_storage)"
					}
				],
				"types": {
					"t_address": {
						"encoding": "inplace",
						"label": "address",
						"numberOfBytes": "20"
					},
					"t_array(t_string_storage)dyn_storage": {
						"base": "t_string_storage",
						"encoding": "dynamic_array",
						"label": "string[]",
						"numberOfBytes": "32"
					},
					"t_bool": {
						"encoding": "inplace",
						"label": "bool",
						"numberOfBytes": "1"
					},
					"t_bytes32": {
						"encoding": "inplace",
						"label": "bytes32",
						"numberOfBytes": "32"
					},
					"t_int256": {
						"encoding": "inplace",
						"label": "int256",
						"numberOfBytes": "32"
					},
					"t_mapping(t_address,t_bool)": {
						"encoding": "mapping",
						"key": "t_address",
						"label": "mapping(address => bool)",
						"numberOfBytes": "32",
						"value": "t_bool"
					},
					"t_mapping(t_bytes32,t_struct(RoleData)123_storage)": {
						"encoding": "mapping",
						"key": "t_bytes32",
						"label": "mapping(bytes32 => struct AccessControl.RoleData)",
						"numberOfBytes": "32",
						"value": "t_struct(RoleData)123_storage"
					},
					"t_mapping(t_string_memory_ptr,t_struct(DLC)792_storage)": {
						"encoding": "mapping",
						"key": "t_string_memory_ptr",
						"label": "mapping(string => struct DiscreetLog.DLC)",
						"numberOfBytes": "32",
						"value": "t_struct(DLC)792_storage"
					},
					"t_string_memory_ptr": {
						"encoding": "bytes",
						"label": "string",
						"numberOfBytes": "32"
					},
					"t_string_storage": {
						"encoding": "bytes",
						"label": "string",
						"numberOfBytes": "32"
					},
					"t_struct(DLC)792_storage": {
						"encoding": "inplace",
						"label": "struct DiscreetLog.DLC",
						"members": [
							{
								"astId": 781,
								"contract": "contracts/DiscreetLog.sol:DiscreetLog",
								"label": "UUID",
								"offset": 0,
								"slot": "0",
								"type": "t_string_storage"
							},
							{
								"astId": 783,
								"contract": "contracts/DiscreetLog.sol:DiscreetLog",
								"label": "feedAddress",
								"offset": 0,
								"slot": "1",
								"type": "t_address"
							},
							{
								"astId": 785,
								"contract": "contracts/DiscreetLog.sol:DiscreetLog",
								"label": "closingTime",
								"offset": 0,
								"slot": "2",
								"type": "t_uint256"
							},
							{
								"astId": 787,
								"contract": "contracts/DiscreetLog.sol:DiscreetLog",
								"label": "closingPrice",
								"offset": 0,
								"slot": "3",
								"type": "t_int256"
							},
							{
								"astId": 789,
								"contract": "contracts/DiscreetLog.sol:DiscreetLog",
								"label": "actualClosingTime",
								"offset": 0,
								"slot": "4",
								"type": "t_uint256"
							},
							{
								"astId": 791,
								"contract": "contracts/DiscreetLog.sol:DiscreetLog",
								"label": "emergencyRefundTime",
								"offset": 0,
								"slot": "5",
								"type": "t_uint256"
							}
						],
						"numberOfBytes": "192"
					},
					"t_struct(RoleData)123_storage": {
						"encoding": "inplace",
						"label": "struct AccessControl.RoleData",
						"members": [
							{
								"astId": 120,
								"contract": "contracts/DiscreetLog.sol:DiscreetLog",
								"label": "members",
								"offset": 0,
								"slot": "0",
								"type": "t_mapping(t_address,t_bool)"
							},
							{
								"astId": 122,
								"contract": "contracts/DiscreetLog.sol:DiscreetLog",
								"label": "adminRole",
								"offset": 0,
								"slot": "1",
								"type": "t_bytes32"
							}
						],
						"numberOfBytes": "64"
					},
					"t_uint256": {
						"encoding": "inplace",
						"label": "uint256",
						"numberOfBytes": "32"
					}
				}
			},
			"userdoc": {
				"kind": "user",
				"methods": {
					"performUpkeep(bytes)": {
						"notice": "method that is actually executed by the keepers, via the registry. The data returned by the checkUpkeep simulation will be passed into this method to actually be executed."
					}
				},
				"version": 1
			}
		}
	}
}