{
	"data": {
		"bytecode": {
			"linkReferences": {},
			"object": "608060405234801561001057600080fd5b506118ad806100206000396000f3fe608060405234801561001057600080fd5b50600436106100575760003560e01c80630ef2feff1461005c578063140b2efa146100935780632e730910146100af5780633037fac9146100df5780639e098026146100fb575b600080fd5b61007660048036038101906100719190610e33565b610117565b60405161008a98979695949392919061130d565b60405180910390f35b6100ad60048036038101906100a89190610e7c565b6102a5565b005b6100c960048036038101906100c49190610f56565b610503565b6040516100d691906112eb565b60405180910390f35b6100f960048036038101906100f49190610d71565b6105af565b005b61011560048036038101906101109190610d24565b610600565b005b600181805160208101820180518482526020830160208501208183528095505050505050600091509050806000018054610150906115da565b80601f016020809104026020016040519081016040528092919081815260200182805461017c906115da565b80156101c95780601f1061019e576101008083540402835291602001916101c9565b820191906000526020600020905b8154815290600101906020018083116101ac57829003601f168201915b5050505050908060010180546101de906115da565b80601f016020809104026020016040519081016040528092919081815260200182805461020a906115da565b80156102575780601f1061022c57610100808354040283529160200191610257565b820191906000526020600020905b81548152906001019060200180831161023a57829003601f168201915b5050505050908060020154908060030154908060040154908060050154908060060154908060070160009054906101000a900473ffffffffffffffffffffffffffffffffffffffff16905088565b600073ffffffffffffffffffffffffffffffffffffffff166001886040516102cd91906111e8565b908152602001604051809103902060070160009054906101000a900473ffffffffffffffffffffffffffffffffffffffff1673ffffffffffffffffffffffffffffffffffffffff1614610355576040517f08c379a000000000000000000000000000000000000000000000000000000000815260040161034c90611456565b60405180910390fd5b60405180610100016040528088815260200187815260200186815260200160008152602001858152602001600081526020018481526020018273ffffffffffffffffffffffffffffffffffffffff168152506001886040516103b791906111e8565b908152602001604051809103902060008201518160000190805190602001906103e1929190610a70565b5060208201518160010190805190602001906103fe929190610a70565b5060408201518160020155606082015181600301556080820151816004015560a0820151816005015560c0820151816006015560e08201518160070160006101000a81548173ffffffffffffffffffffffffffffffffffffffff021916908373ffffffffffffffffffffffffffffffffffffffff1602179055509050506000879080600181540180825580915050600190039060005260206000200160009091909190915090805190602001906104b6929190610a70565b507f7d2c76799ee0b9c6f68b973bd42eb5fb2033b6dceb3eb048c1deaa090dcb7c23878787878787876040516104f29796959493929190611399565b60405180910390a150505050505050565b6000818154811061051357600080fd5b90600052602060002001600091509050805461052e906115da565b80601f016020809104026020016040519081016040528092919081815260200182805461055a906115da565b80156105a75780601f1061057c576101008083540402835291602001916105a7565b820191906000526020600020905b81548152906001019060200180831161058a57829003601f168201915b505050505081565b7f83acf344c166d9790f648ca175b2d53d48804f29930fbdd0e0d87f670412d86d8888888888338989896040516105ee99989796959493929190611264565b60405180910390a15050505050505050565b6000600183836040516106149291906111cf565b908152602001604051809103902090504281600401541115801561063c575060008160050154145b61067b576040517f08c379a000000000000000000000000000000000000000000000000000000000815260040161067290611436565b60405180910390fd5b6000806106ab8360070160009054906101000a900473ffffffffffffffffffffffffffffffffffffffff1661076e565b915091508183600301819055506000828460020154136106cc5760016106cf565b60005b905061072661072187878080601f016020809104026020016040519081016040528093929190818152602001838380828437600081840152601f19601f8201169050808301925050505050505061080c565b6108ef565b507fc244ef6abb581fce6ec7f623ffa560ac7d27f787d59020e83a6936bfb9d1d731868683868660405161075e959493929190611216565b60405180910390a1505050505050565b60008060008390506000808273ffffffffffffffffffffffffffffffffffffffff1663feaf968c6040518163ffffffff1660e01b815260040160a06040518083038186803b1580156107bf57600080fd5b505afa1580156107d3573d6000803e3d6000fd5b505050506040513d601f19601f820116820180604052508101906107f79190610f83565b50935050925050818194509450505050915091565b600080600090505b6000805490508110156108ae578260405160200161083291906111e8565b604051602081830303815290604052805190602001206000828154811061085c5761085b611713565b5b9060005260206000200160405160200161087691906111ff565b60405160208183030381529060405280519060200120141561089b57809150506108ea565b80806108a69061163d565b915050610814565b506040517f08c379a00000000000000000000000000000000000000000000000000000000081526004016108e190611416565b60405180910390fd5b919050565b6060600080549050821061090257600080fd5b600060016000805490506109169190611508565b8154811061092757610926611713565b5b906000526020600020016000838154811061094557610944611713565b5b9060005260206000200190805461095b906115da565b610966929190610af6565b506000805480610979576109786116e4565b5b6001900381819060005260206000200160006109959190610b83565b90556000805480602002602001604051908101604052809291908181526020016000905b82821015610a655783829060005260206000200180546109d8906115da565b80601f0160208091040260200160405190810160405280929190818152602001828054610a04906115da565b8015610a515780601f10610a2657610100808354040283529160200191610a51565b820191906000526020600020905b815481529060010190602001808311610a3457829003601f168201915b5050505050815260200190600101906109b9565b505050509050919050565b828054610a7c906115da565b90600052602060002090601f016020900481019282610a9e5760008555610ae5565b82601f10610ab757805160ff1916838001178555610ae5565b82800160010185558215610ae5579182015b82811115610ae4578251825591602001919060010190610ac9565b5b509050610af29190610bc3565b5090565b828054610b02906115da565b90600052602060002090601f016020900481019282610b245760008555610b72565b82601f10610b355780548555610b72565b82800160010185558215610b7257600052602060002091601f016020900482015b82811115610b71578254825591600101919060010190610b56565b5b509050610b7f9190610bc3565b5090565b508054610b8f906115da565b6000825580601f10610ba15750610bc0565b601f016020900490600052602060002090810190610bbf9190610bc3565b5b50565b5b80821115610bdc576000816000905550600101610bc4565b5090565b6000610bf3610bee8461149b565b611476565b905082815260208101848484011115610c0f57610c0e611780565b5b610c1a848285611598565b509392505050565b600081359050610c318161181b565b92915050565b600081359050610c4681611832565b92915050565b600081519050610c5b81611832565b92915050565b60008083601f840112610c7757610c76611776565b5b8235905067ffffffffffffffff811115610c9457610c93611771565b5b602083019150836001820283011115610cb057610caf61177b565b5b9250929050565b600082601f830112610ccc57610ccb611776565b5b8135610cdc848260208601610be0565b91505092915050565b600081359050610cf481611849565b92915050565b600081519050610d0981611849565b92915050565b600081519050610d1e81611860565b92915050565b60008060208385031215610d3b57610d3a61178a565b5b600083013567ffffffffffffffff811115610d5957610d58611785565b5b610d6585828601610c61565b92509250509250929050565b60008060008060008060008060e0898b031215610d9157610d9061178a565b5b600089013567ffffffffffffffff811115610daf57610dae611785565b5b610dbb8b828c01610c61565b98509850506020610dce8b828c01610c37565b9650506040610ddf8b828c01610ce5565b9550506060610df08b828c01610ce5565b9450506080610e018b828c01610c22565b93505060a0610e128b828c01610ce5565b92505060c0610e238b828c01610c22565b9150509295985092959890939650565b600060208284031215610e4957610e4861178a565b5b600082013567ffffffffffffffff811115610e6757610e66611785565b5b610e7384828501610cb7565b91505092915050565b600080600080600080600060e0888a031215610e9b57610e9a61178a565b5b600088013567ffffffffffffffff811115610eb957610eb8611785565b5b610ec58a828b01610cb7565b975050602088013567ffffffffffffffff811115610ee657610ee5611785565b5b610ef28a828b01610cb7565b9650506040610f038a828b01610c37565b9550506060610f148a828b01610ce5565b9450506080610f258a828b01610ce5565b93505060a0610f368a828b01610c22565b92505060c0610f478a828b01610c22565b91505092959891949750929550565b600060208284031215610f6c57610f6b61178a565b5b6000610f7a84828501610ce5565b91505092915050565b600080600080600060a08688031215610f9f57610f9e61178a565b5b6000610fad88828901610d0f565b9550506020610fbe88828901610c4c565b9450506040610fcf88828901610cfa565b9350506060610fe088828901610cfa565b9250506080610ff188828901610d0f565b9150509295509295909350565b6110078161153c565b82525050565b6110168161154e565b82525050565b600061102883856114ec565b9350611035838584611598565b61103e8361178f565b840190509392505050565b600061105583856114fd565b9350611062838584611598565b82840190509392505050565b6000611079826114e1565b61108381856114ec565b93506110938185602086016115a7565b61109c8161178f565b840191505092915050565b60006110b2826114e1565b6110bc81856114fd565b93506110cc8185602086016115a7565b80840191505092915050565b600081546110e5816115da565b6110ef81866114fd565b9450600182166000811461110a576001811461111b5761114e565b60ff1983168652818601935061114e565b611124856114cc565b60005b8381101561114657815481890152600182019150602081019050611127565b838801955050505b50505092915050565b60006111646009836114ec565b915061116f826117a0565b602082019050919050565b6000611187601e836114ec565b9150611192826117c9565b602082019050919050565b60006111aa6011836114ec565b91506111b5826117f2565b602082019050919050565b6111c981611578565b82525050565b60006111dc828486611049565b91508190509392505050565b60006111f482846110a7565b915081905092915050565b600061120b82846110d8565b915081905092915050565b6000608082019050818103600083015261123181878961101c565b9050611240602083018661100d565b61124d604083018561100d565b61125a60608301846111c0565b9695505050505050565b6000610100820190508181036000830152611280818b8d61101c565b905061128f602083018a61100d565b61129c60408301896111c0565b6112a960608301886111c0565b6112b66080830187610ffe565b6112c360a0830186610ffe565b6112d060c08301856111c0565b6112dd60e0830184610ffe565b9a9950505050505050505050565b60006020820190508181036000830152611305818461106e565b905092915050565b6000610100820190508181036000830152611328818b61106e565b9050818103602083015261133c818a61106e565b905061134b604083018961100d565b611358606083018861100d565b61136560808301876111c0565b61137260a08301866111c0565b61137f60c08301856111c0565b61138c60e0830184610ffe565b9998505050505050505050565b600060e08201905081810360008301526113b3818a61106e565b905081810360208301526113c7818961106e565b90506113d6604083018861100d565b6113e360608301876111c0565b6113f060808301866111c0565b6113fd60a0830185610ffe565b61140a60c0830184610ffe565b98975050505050505050565b6000602082019050818103600083015261142f81611157565b9050919050565b6000602082019050818103600083015261144f8161117a565b9050919050565b6000602082019050818103600083015261146f8161119d565b9050919050565b6000611480611491565b905061148c828261160c565b919050565b6000604051905090565b600067ffffffffffffffff8211156114b6576114b5611742565b5b6114bf8261178f565b9050602081019050919050565b60008190508160005260206000209050919050565b600081519050919050565b600082825260208201905092915050565b600081905092915050565b600061151382611578565b915061151e83611578565b92508282101561153157611530611686565b5b828203905092915050565b600061154782611558565b9050919050565b6000819050919050565b600073ffffffffffffffffffffffffffffffffffffffff82169050919050565b6000819050919050565b600069ffffffffffffffffffff82169050919050565b82818337600083830152505050565b60005b838110156115c55780820151818401526020810190506115aa565b838111156115d4576000848401525b50505050565b600060028204905060018216806115f257607f821691505b60208210811415611606576116056116b5565b5b50919050565b6116158261178f565b810181811067ffffffffffffffff8211171561163457611633611742565b5b80604052505050565b600061164882611578565b91507fffffffffffffffffffffffffffffffffffffffffffffffffffffffffffffffff82141561167b5761167a611686565b5b600182019050919050565b7f4e487b7100000000000000000000000000000000000000000000000000000000600052601160045260246000fd5b7f4e487b7100000000000000000000000000000000000000000000000000000000600052602260045260246000fd5b7f4e487b7100000000000000000000000000000000000000000000000000000000600052603160045260246000fd5b7f4e487b7100000000000000000000000000000000000000000000000000000000600052603260045260246000fd5b7f4e487b7100000000000000000000000000000000000000000000000000000000600052604160045260246000fd5b600080fd5b600080fd5b600080fd5b600080fd5b600080fd5b600080fd5b6000601f19601f8301169050919050565b7f4e6f7420466f756e640000000000000000000000000000000000000000000000600082015250565b7f56616c69646174696f6e206661696c656420666f7220636c6f7365446c630000600082015250565b7f444c4320616c7265616479206164646564000000000000000000000000000000600082015250565b6118248161153c565b811461182f57600080fd5b50565b61183b8161154e565b811461184657600080fd5b50565b61185281611578565b811461185d57600080fd5b50565b61186981611582565b811461187457600080fd5b5056fea2646970667358221220aaa9b3c9cebbc4ff2125fb085ee55056d49735d4e34b8edb6714a2e5da177c2464736f6c63430008070033",
			"opcodes": "PUSH1 0x80 PUSH1 0x40 MSTORE CALLVALUE DUP1 ISZERO PUSH2 0x10 JUMPI PUSH1 0x0 DUP1 REVERT JUMPDEST POP PUSH2 0x18AD DUP1 PUSH2 0x20 PUSH1 0x0 CODECOPY PUSH1 0x0 RETURN INVALID PUSH1 0x80 PUSH1 0x40 MSTORE CALLVALUE DUP1 ISZERO PUSH2 0x10 JUMPI PUSH1 0x0 DUP1 REVERT JUMPDEST POP PUSH1 0x4 CALLDATASIZE LT PUSH2 0x57 JUMPI PUSH1 0x0 CALLDATALOAD PUSH1 0xE0 SHR DUP1 PUSH4 0xEF2FEFF EQ PUSH2 0x5C JUMPI DUP1 PUSH4 0x140B2EFA EQ PUSH2 0x93 JUMPI DUP1 PUSH4 0x2E730910 EQ PUSH2 0xAF JUMPI DUP1 PUSH4 0x3037FAC9 EQ PUSH2 0xDF JUMPI DUP1 PUSH4 0x9E098026 EQ PUSH2 0xFB JUMPI JUMPDEST PUSH1 0x0 DUP1 REVERT JUMPDEST PUSH2 0x76 PUSH1 0x4 DUP1 CALLDATASIZE SUB DUP2 ADD SWAP1 PUSH2 0x71 SWAP2 SWAP1 PUSH2 0xE33 JUMP JUMPDEST PUSH2 0x117 JUMP JUMPDEST PUSH1 0x40 MLOAD PUSH2 0x8A SWAP9 SWAP8 SWAP7 SWAP6 SWAP5 SWAP4 SWAP3 SWAP2 SWAP1 PUSH2 0x130D JUMP JUMPDEST PUSH1 0x40 MLOAD DUP1 SWAP2 SUB SWAP1 RETURN JUMPDEST PUSH2 0xAD PUSH1 0x4 DUP1 CALLDATASIZE SUB DUP2 ADD SWAP1 PUSH2 0xA8 SWAP2 SWAP1 PUSH2 0xE7C JUMP JUMPDEST PUSH2 0x2A5 JUMP JUMPDEST STOP JUMPDEST PUSH2 0xC9 PUSH1 0x4 DUP1 CALLDATASIZE SUB DUP2 ADD SWAP1 PUSH2 0xC4 SWAP2 SWAP1 PUSH2 0xF56 JUMP JUMPDEST PUSH2 0x503 JUMP JUMPDEST PUSH1 0x40 MLOAD PUSH2 0xD6 SWAP2 SWAP1 PUSH2 0x12EB JUMP JUMPDEST PUSH1 0x40 MLOAD DUP1 SWAP2 SUB SWAP1 RETURN JUMPDEST PUSH2 0xF9 PUSH1 0x4 DUP1 CALLDATASIZE SUB DUP2 ADD SWAP1 PUSH2 0xF4 SWAP2 SWAP1 PUSH2 0xD71 JUMP JUMPDEST PUSH2 0x5AF JUMP JUMPDEST STOP JUMPDEST PUSH2 0x115 PUSH1 0x4 DUP1 CALLDATASIZE SUB DUP2 ADD SWAP1 PUSH2 0x110 SWAP2 SWAP1 PUSH2 0xD24 JUMP JUMPDEST PUSH2 0x600 JUMP JUMPDEST STOP JUMPDEST PUSH1 0x1 DUP2 DUP1 MLOAD PUSH1 0x20 DUP2 ADD DUP3 ADD DUP1 MLOAD DUP5 DUP3 MSTORE PUSH1 0x20 DUP4 ADD PUSH1 0x20 DUP6 ADD KECCAK256 DUP2 DUP4 MSTORE DUP1 SWAP6 POP POP POP POP POP POP PUSH1 0x0 SWAP2 POP SWAP1 POP DUP1 PUSH1 0x0 ADD DUP1 SLOAD PUSH2 0x150 SWAP1 PUSH2 0x15DA JUMP JUMPDEST DUP1 PUSH1 0x1F ADD PUSH1 0x20 DUP1 SWAP2 DIV MUL PUSH1 0x20 ADD PUSH1 0x40 MLOAD SWAP1 DUP2 ADD PUSH1 0x40 MSTORE DUP1 SWAP3 SWAP2 SWAP1 DUP2 DUP2 MSTORE PUSH1 0x20 ADD DUP3 DUP1 SLOAD PUSH2 0x17C SWAP1 PUSH2 0x15DA JUMP JUMPDEST DUP1 ISZERO PUSH2 0x1C9 JUMPI DUP1 PUSH1 0x1F LT PUSH2 0x19E JUMPI PUSH2 0x100 DUP1 DUP4 SLOAD DIV MUL DUP4 MSTORE SWAP2 PUSH1 0x20 ADD SWAP2 PUSH2 0x1C9 JUMP JUMPDEST DUP3 ADD SWAP2 SWAP1 PUSH1 0x0 MSTORE PUSH1 0x20 PUSH1 0x0 KECCAK256 SWAP1 JUMPDEST DUP2 SLOAD DUP2 MSTORE SWAP1 PUSH1 0x1 ADD SWAP1 PUSH1 0x20 ADD DUP1 DUP4 GT PUSH2 0x1AC JUMPI DUP3 SWAP1 SUB PUSH1 0x1F AND DUP3 ADD SWAP2 JUMPDEST POP POP POP POP POP SWAP1 DUP1 PUSH1 0x1 ADD DUP1 SLOAD PUSH2 0x1DE SWAP1 PUSH2 0x15DA JUMP JUMPDEST DUP1 PUSH1 0x1F ADD PUSH1 0x20 DUP1 SWAP2 DIV MUL PUSH1 0x20 ADD PUSH1 0x40 MLOAD SWAP1 DUP2 ADD PUSH1 0x40 MSTORE DUP1 SWAP3 SWAP2 SWAP1 DUP2 DUP2 MSTORE PUSH1 0x20 ADD DUP3 DUP1 SLOAD PUSH2 0x20A SWAP1 PUSH2 0x15DA JUMP JUMPDEST DUP1 ISZERO PUSH2 0x257 JUMPI DUP1 PUSH1 0x1F LT PUSH2 0x22C JUMPI PUSH2 0x100 DUP1 DUP4 SLOAD DIV MUL DUP4 MSTORE SWAP2 PUSH1 0x20 ADD SWAP2 PUSH2 0x257 JUMP JUMPDEST DUP3 ADD SWAP2 SWAP1 PUSH1 0x0 MSTORE PUSH1 0x20 PUSH1 0x0 KECCAK256 SWAP1 JUMPDEST DUP2 SLOAD DUP2 MSTORE SWAP1 PUSH1 0x1 ADD SWAP1 PUSH1 0x20 ADD DUP1 DUP4 GT PUSH2 0x23A JUMPI DUP3 SWAP1 SUB PUSH1 0x1F AND DUP3 ADD SWAP2 JUMPDEST POP POP POP POP POP SWAP1 DUP1 PUSH1 0x2 ADD SLOAD SWAP1 DUP1 PUSH1 0x3 ADD SLOAD SWAP1 DUP1 PUSH1 0x4 ADD SLOAD SWAP1 DUP1 PUSH1 0x5 ADD SLOAD SWAP1 DUP1 PUSH1 0x6 ADD SLOAD SWAP1 DUP1 PUSH1 0x7 ADD PUSH1 0x0 SWAP1 SLOAD SWAP1 PUSH2 0x100 EXP SWAP1 DIV PUSH20 0xFFFFFFFFFFFFFFFFFFFFFFFFFFFFFFFFFFFFFFFF AND SWAP1 POP DUP9 JUMP JUMPDEST PUSH1 0x0 PUSH20 0xFFFFFFFFFFFFFFFFFFFFFFFFFFFFFFFFFFFFFFFF AND PUSH1 0x1 DUP9 PUSH1 0x40 MLOAD PUSH2 0x2CD SWAP2 SWAP1 PUSH2 0x11E8 JUMP JUMPDEST SWAP1 DUP2 MSTORE PUSH1 0x20 ADD PUSH1 0x40 MLOAD DUP1 SWAP2 SUB SWAP1 KECCAK256 PUSH1 0x7 ADD PUSH1 0x0 SWAP1 SLOAD SWAP1 PUSH2 0x100 EXP SWAP1 DIV PUSH20 0xFFFFFFFFFFFFFFFFFFFFFFFFFFFFFFFFFFFFFFFF AND PUSH20 0xFFFFFFFFFFFFFFFFFFFFFFFFFFFFFFFFFFFFFFFF AND EQ PUSH2 0x355 JUMPI PUSH1 0x40 MLOAD PUSH32 0x8C379A000000000000000000000000000000000000000000000000000000000 DUP2 MSTORE PUSH1 0x4 ADD PUSH2 0x34C SWAP1 PUSH2 0x1456 JUMP JUMPDEST PUSH1 0x40 MLOAD DUP1 SWAP2 SUB SWAP1 REVERT JUMPDEST PUSH1 0x40 MLOAD DUP1 PUSH2 0x100 ADD PUSH1 0x40 MSTORE DUP1 DUP9 DUP2 MSTORE PUSH1 0x20 ADD DUP8 DUP2 MSTORE PUSH1 0x20 ADD DUP7 DUP2 MSTORE PUSH1 0x20 ADD PUSH1 0x0 DUP2 MSTORE PUSH1 0x20 ADD DUP6 DUP2 MSTORE PUSH1 0x20 ADD PUSH1 0x0 DUP2 MSTORE PUSH1 0x20 ADD DUP5 DUP2 MSTORE PUSH1 0x20 ADD DUP3 PUSH20 0xFFFFFFFFFFFFFFFFFFFFFFFFFFFFFFFFFFFFFFFF AND DUP2 MSTORE POP PUSH1 0x1 DUP9 PUSH1 0x40 MLOAD PUSH2 0x3B7 SWAP2 SWAP1 PUSH2 0x11E8 JUMP JUMPDEST SWAP1 DUP2 MSTORE PUSH1 0x20 ADD PUSH1 0x40 MLOAD DUP1 SWAP2 SUB SWAP1 KECCAK256 PUSH1 0x0 DUP3 ADD MLOAD DUP2 PUSH1 0x0 ADD SWAP1 DUP1 MLOAD SWAP1 PUSH1 0x20 ADD SWAP1 PUSH2 0x3E1 SWAP3 SWAP2 SWAP1 PUSH2 0xA70 JUMP JUMPDEST POP PUSH1 0x20 DUP3 ADD MLOAD DUP2 PUSH1 0x1 ADD SWAP1 DUP1 MLOAD SWAP1 PUSH1 0x20 ADD SWAP1 PUSH2 0x3FE SWAP3 SWAP2 SWAP1 PUSH2 0xA70 JUMP JUMPDEST POP PUSH1 0x40 DUP3 ADD MLOAD DUP2 PUSH1 0x2 ADD SSTORE PUSH1 0x60 DUP3 ADD MLOAD DUP2 PUSH1 0x3 ADD SSTORE PUSH1 0x80 DUP3 ADD MLOAD DUP2 PUSH1 0x4 ADD SSTORE PUSH1 0xA0 DUP3 ADD MLOAD DUP2 PUSH1 0x5 ADD SSTORE PUSH1 0xC0 DUP3 ADD MLOAD DUP2 PUSH1 0x6 ADD SSTORE PUSH1 0xE0 DUP3 ADD MLOAD DUP2 PUSH1 0x7 ADD PUSH1 0x0 PUSH2 0x100 EXP DUP2 SLOAD DUP2 PUSH20 0xFFFFFFFFFFFFFFFFFFFFFFFFFFFFFFFFFFFFFFFF MUL NOT AND SWAP1 DUP4 PUSH20 0xFFFFFFFFFFFFFFFFFFFFFFFFFFFFFFFFFFFFFFFF AND MUL OR SWAP1 SSTORE POP SWAP1 POP POP PUSH1 0x0 DUP8 SWAP1 DUP1 PUSH1 0x1 DUP2 SLOAD ADD DUP1 DUP3 SSTORE DUP1 SWAP2 POP POP PUSH1 0x1 SWAP1 SUB SWAP1 PUSH1 0x0 MSTORE PUSH1 0x20 PUSH1 0x0 KECCAK256 ADD PUSH1 0x0 SWAP1 SWAP2 SWAP1 SWAP2 SWAP1 SWAP2 POP SWAP1 DUP1 MLOAD SWAP1 PUSH1 0x20 ADD SWAP1 PUSH2 0x4B6 SWAP3 SWAP2 SWAP1 PUSH2 0xA70 JUMP JUMPDEST POP PUSH32 0x7D2C76799EE0B9C6F68B973BD42EB5FB2033B6DCEB3EB048C1DEAA090DCB7C23 DUP8 DUP8 DUP8 DUP8 DUP8 DUP8 DUP8 PUSH1 0x40 MLOAD PUSH2 0x4F2 SWAP8 SWAP7 SWAP6 SWAP5 SWAP4 SWAP3 SWAP2 SWAP1 PUSH2 0x1399 JUMP JUMPDEST PUSH1 0x40 MLOAD DUP1 SWAP2 SUB SWAP1 LOG1 POP POP POP POP POP POP POP JUMP JUMPDEST PUSH1 0x0 DUP2 DUP2 SLOAD DUP2 LT PUSH2 0x513 JUMPI PUSH1 0x0 DUP1 REVERT JUMPDEST SWAP1 PUSH1 0x0 MSTORE PUSH1 0x20 PUSH1 0x0 KECCAK256 ADD PUSH1 0x0 SWAP2 POP SWAP1 POP DUP1 SLOAD PUSH2 0x52E SWAP1 PUSH2 0x15DA JUMP JUMPDEST DUP1 PUSH1 0x1F ADD PUSH1 0x20 DUP1 SWAP2 DIV MUL PUSH1 0x20 ADD PUSH1 0x40 MLOAD SWAP1 DUP2 ADD PUSH1 0x40 MSTORE DUP1 SWAP3 SWAP2 SWAP1 DUP2 DUP2 MSTORE PUSH1 0x20 ADD DUP3 DUP1 SLOAD PUSH2 0x55A SWAP1 PUSH2 0x15DA JUMP JUMPDEST DUP1 ISZERO PUSH2 0x5A7 JUMPI DUP1 PUSH1 0x1F LT PUSH2 0x57C JUMPI PUSH2 0x100 DUP1 DUP4 SLOAD DIV MUL DUP4 MSTORE SWAP2 PUSH1 0x20 ADD SWAP2 PUSH2 0x5A7 JUMP JUMPDEST DUP3 ADD SWAP2 SWAP1 PUSH1 0x0 MSTORE PUSH1 0x20 PUSH1 0x0 KECCAK256 SWAP1 JUMPDEST DUP2 SLOAD DUP2 MSTORE SWAP1 PUSH1 0x1 ADD SWAP1 PUSH1 0x20 ADD DUP1 DUP4 GT PUSH2 0x58A JUMPI DUP3 SWAP1 SUB PUSH1 0x1F AND DUP3 ADD SWAP2 JUMPDEST POP POP POP POP POP DUP2 JUMP JUMPDEST PUSH32 0x83ACF344C166D9790F648CA175B2D53D48804F29930FBDD0E0D87F670412D86D DUP9 DUP9 DUP9 DUP9 DUP9 CALLER DUP10 DUP10 DUP10 PUSH1 0x40 MLOAD PUSH2 0x5EE SWAP10 SWAP9 SWAP8 SWAP7 SWAP6 SWAP5 SWAP4 SWAP3 SWAP2 SWAP1 PUSH2 0x1264 JUMP JUMPDEST PUSH1 0x40 MLOAD DUP1 SWAP2 SUB SWAP1 LOG1 POP POP POP POP POP POP POP POP JUMP JUMPDEST PUSH1 0x0 PUSH1 0x1 DUP4 DUP4 PUSH1 0x40 MLOAD PUSH2 0x614 SWAP3 SWAP2 SWAP1 PUSH2 0x11CF JUMP JUMPDEST SWAP1 DUP2 MSTORE PUSH1 0x20 ADD PUSH1 0x40 MLOAD DUP1 SWAP2 SUB SWAP1 KECCAK256 SWAP1 POP TIMESTAMP DUP2 PUSH1 0x4 ADD SLOAD GT ISZERO DUP1 ISZERO PUSH2 0x63C JUMPI POP PUSH1 0x0 DUP2 PUSH1 0x5 ADD SLOAD EQ JUMPDEST PUSH2 0x67B JUMPI PUSH1 0x40 MLOAD PUSH32 0x8C379A000000000000000000000000000000000000000000000000000000000 DUP2 MSTORE PUSH1 0x4 ADD PUSH2 0x672 SWAP1 PUSH2 0x1436 JUMP JUMPDEST PUSH1 0x40 MLOAD DUP1 SWAP2 SUB SWAP1 REVERT JUMPDEST PUSH1 0x0 DUP1 PUSH2 0x6AB DUP4 PUSH1 0x7 ADD PUSH1 0x0 SWAP1 SLOAD SWAP1 PUSH2 0x100 EXP SWAP1 DIV PUSH20 0xFFFFFFFFFFFFFFFFFFFFFFFFFFFFFFFFFFFFFFFF AND PUSH2 0x76E JUMP JUMPDEST SWAP2 POP SWAP2 POP DUP2 DUP4 PUSH1 0x3 ADD DUP2 SWAP1 SSTORE POP PUSH1 0x0 DUP3 DUP5 PUSH1 0x2 ADD SLOAD SGT PUSH2 0x6CC JUMPI PUSH1 0x1 PUSH2 0x6CF JUMP JUMPDEST PUSH1 0x0 JUMPDEST SWAP1 POP PUSH2 0x726 PUSH2 0x721 DUP8 DUP8 DUP1 DUP1 PUSH1 0x1F ADD PUSH1 0x20 DUP1 SWAP2 DIV MUL PUSH1 0x20 ADD PUSH1 0x40 MLOAD SWAP1 DUP2 ADD PUSH1 0x40 MSTORE DUP1 SWAP4 SWAP3 SWAP2 SWAP1 DUP2 DUP2 MSTORE PUSH1 0x20 ADD DUP4 DUP4 DUP1 DUP3 DUP5 CALLDATACOPY PUSH1 0x0 DUP2 DUP5 ADD MSTORE PUSH1 0x1F NOT PUSH1 0x1F DUP3 ADD AND SWAP1 POP DUP1 DUP4 ADD SWAP3 POP POP POP POP POP POP POP PUSH2 0x80C JUMP JUMPDEST PUSH2 0x8EF JUMP JUMPDEST POP PUSH32 0xC244EF6ABB581FCE6EC7F623FFA560AC7D27F787D59020E83A6936BFB9D1D731 DUP7 DUP7 DUP4 DUP7 DUP7 PUSH1 0x40 MLOAD PUSH2 0x75E SWAP6 SWAP5 SWAP4 SWAP3 SWAP2 SWAP1 PUSH2 0x1216 JUMP JUMPDEST PUSH1 0x40 MLOAD DUP1 SWAP2 SUB SWAP1 LOG1 POP POP POP POP POP POP JUMP JUMPDEST PUSH1 0x0 DUP1 PUSH1 0x0 DUP4 SWAP1 POP PUSH1 0x0 DUP1 DUP3 PUSH20 0xFFFFFFFFFFFFFFFFFFFFFFFFFFFFFFFFFFFFFFFF AND PUSH4 0xFEAF968C PUSH1 0x40 MLOAD DUP2 PUSH4 0xFFFFFFFF AND PUSH1 0xE0 SHL DUP2 MSTORE PUSH1 0x4 ADD PUSH1 0xA0 PUSH1 0x40 MLOAD DUP1 DUP4 SUB DUP2 DUP7 DUP1 EXTCODESIZE ISZERO DUP1 ISZERO PUSH2 0x7BF JUMPI PUSH1 0x0 DUP1 REVERT JUMPDEST POP GAS STATICCALL ISZERO DUP1 ISZERO PUSH2 0x7D3 JUMPI RETURNDATASIZE PUSH1 0x0 DUP1 RETURNDATACOPY RETURNDATASIZE PUSH1 0x0 REVERT JUMPDEST POP POP POP POP PUSH1 0x40 MLOAD RETURNDATASIZE PUSH1 0x1F NOT PUSH1 0x1F DUP3 ADD AND DUP3 ADD DUP1 PUSH1 0x40 MSTORE POP DUP2 ADD SWAP1 PUSH2 0x7F7 SWAP2 SWAP1 PUSH2 0xF83 JUMP JUMPDEST POP SWAP4 POP POP SWAP3 POP POP DUP2 DUP2 SWAP5 POP SWAP5 POP POP POP POP SWAP2 POP SWAP2 JUMP JUMPDEST PUSH1 0x0 DUP1 PUSH1 0x0 SWAP1 POP JUMPDEST PUSH1 0x0 DUP1 SLOAD SWAP1 POP DUP2 LT ISZERO PUSH2 0x8AE JUMPI DUP3 PUSH1 0x40 MLOAD PUSH1 0x20 ADD PUSH2 0x832 SWAP2 SWAP1 PUSH2 0x11E8 JUMP JUMPDEST PUSH1 0x40 MLOAD PUSH1 0x20 DUP2 DUP4 SUB SUB DUP2 MSTORE SWAP1 PUSH1 0x40 MSTORE DUP1 MLOAD SWAP1 PUSH1 0x20 ADD KECCAK256 PUSH1 0x0 DUP3 DUP2 SLOAD DUP2 LT PUSH2 0x85C JUMPI PUSH2 0x85B PUSH2 0x1713 JUMP JUMPDEST JUMPDEST SWAP1 PUSH1 0x0 MSTORE PUSH1 0x20 PUSH1 0x0 KECCAK256 ADD PUSH1 0x40 MLOAD PUSH1 0x20 ADD PUSH2 0x876 SWAP2 SWAP1 PUSH2 0x11FF JUMP JUMPDEST PUSH1 0x40 MLOAD PUSH1 0x20 DUP2 DUP4 SUB SUB DUP2 MSTORE SWAP1 PUSH1 0x40 MSTORE DUP1 MLOAD SWAP1 PUSH1 0x20 ADD KECCAK256 EQ ISZERO PUSH2 0x89B JUMPI DUP1 SWAP2 POP POP PUSH2 0x8EA JUMP JUMPDEST DUP1 DUP1 PUSH2 0x8A6 SWAP1 PUSH2 0x163D JUMP JUMPDEST SWAP2 POP POP PUSH2 0x814 JUMP JUMPDEST POP PUSH1 0x40 MLOAD PUSH32 0x8C379A000000000000000000000000000000000000000000000000000000000 DUP2 MSTORE PUSH1 0x4 ADD PUSH2 0x8E1 SWAP1 PUSH2 0x1416 JUMP JUMPDEST PUSH1 0x40 MLOAD DUP1 SWAP2 SUB SWAP1 REVERT JUMPDEST SWAP2 SWAP1 POP JUMP JUMPDEST PUSH1 0x60 PUSH1 0x0 DUP1 SLOAD SWAP1 POP DUP3 LT PUSH2 0x902 JUMPI PUSH1 0x0 DUP1 REVERT JUMPDEST PUSH1 0x0 PUSH1 0x1 PUSH1 0x0 DUP1 SLOAD SWAP1 POP PUSH2 0x916 SWAP2 SWAP1 PUSH2 0x1508 JUMP JUMPDEST DUP2 SLOAD DUP2 LT PUSH2 0x927 JUMPI PUSH2 0x926 PUSH2 0x1713 JUMP JUMPDEST JUMPDEST SWAP1 PUSH1 0x0 MSTORE PUSH1 0x20 PUSH1 0x0 KECCAK256 ADD PUSH1 0x0 DUP4 DUP2 SLOAD DUP2 LT PUSH2 0x945 JUMPI PUSH2 0x944 PUSH2 0x1713 JUMP JUMPDEST JUMPDEST SWAP1 PUSH1 0x0 MSTORE PUSH1 0x20 PUSH1 0x0 KECCAK256 ADD SWAP1 DUP1 SLOAD PUSH2 0x95B SWAP1 PUSH2 0x15DA JUMP JUMPDEST PUSH2 0x966 SWAP3 SWAP2 SWAP1 PUSH2 0xAF6 JUMP JUMPDEST POP PUSH1 0x0 DUP1 SLOAD DUP1 PUSH2 0x979 JUMPI PUSH2 0x978 PUSH2 0x16E4 JUMP JUMPDEST JUMPDEST PUSH1 0x1 SWAP1 SUB DUP2 DUP2 SWAP1 PUSH1 0x0 MSTORE PUSH1 0x20 PUSH1 0x0 KECCAK256 ADD PUSH1 0x0 PUSH2 0x995 SWAP2 SWAP1 PUSH2 0xB83 JUMP JUMPDEST SWAP1 SSTORE PUSH1 0x0 DUP1 SLOAD DUP1 PUSH1 0x20 MUL PUSH1 0x20 ADD PUSH1 0x40 MLOAD SWAP1 DUP2 ADD PUSH1 0x40 MSTORE DUP1 SWAP3 SWAP2 SWAP1 DUP2 DUP2 MSTORE PUSH1 0x20 ADD PUSH1 0x0 SWAP1 JUMPDEST DUP3 DUP3 LT ISZERO PUSH2 0xA65 JUMPI DUP4 DUP3 SWAP1 PUSH1 0x0 MSTORE PUSH1 0x20 PUSH1 0x0 KECCAK256 ADD DUP1 SLOAD PUSH2 0x9D8 SWAP1 PUSH2 0x15DA JUMP JUMPDEST DUP1 PUSH1 0x1F ADD PUSH1 0x20 DUP1 SWAP2 DIV MUL PUSH1 0x20 ADD PUSH1 0x40 MLOAD SWAP1 DUP2 ADD PUSH1 0x40 MSTORE DUP1 SWAP3 SWAP2 SWAP1 DUP2 DUP2 MSTORE PUSH1 0x20 ADD DUP3 DUP1 SLOAD PUSH2 0xA04 SWAP1 PUSH2 0x15DA JUMP JUMPDEST DUP1 ISZERO PUSH2 0xA51 JUMPI DUP1 PUSH1 0x1F LT PUSH2 0xA26 JUMPI PUSH2 0x100 DUP1 DUP4 SLOAD DIV MUL DUP4 MSTORE SWAP2 PUSH1 0x20 ADD SWAP2 PUSH2 0xA51 JUMP JUMPDEST DUP3 ADD SWAP2 SWAP1 PUSH1 0x0 MSTORE PUSH1 0x20 PUSH1 0x0 KECCAK256 SWAP1 JUMPDEST DUP2 SLOAD DUP2 MSTORE SWAP1 PUSH1 0x1 ADD SWAP1 PUSH1 0x20 ADD DUP1 DUP4 GT PUSH2 0xA34 JUMPI DUP3 SWAP1 SUB PUSH1 0x1F AND DUP3 ADD SWAP2 JUMPDEST POP POP POP POP POP DUP2 MSTORE PUSH1 0x20 ADD SWAP1 PUSH1 0x1 ADD SWAP1 PUSH2 0x9B9 JUMP JUMPDEST POP POP POP POP SWAP1 POP SWAP2 SWAP1 POP JUMP JUMPDEST DUP3 DUP1 SLOAD PUSH2 0xA7C SWAP1 PUSH2 0x15DA JUMP JUMPDEST SWAP1 PUSH1 0x0 MSTORE PUSH1 0x20 PUSH1 0x0 KECCAK256 SWAP1 PUSH1 0x1F ADD PUSH1 0x20 SWAP1 DIV DUP2 ADD SWAP3 DUP3 PUSH2 0xA9E JUMPI PUSH1 0x0 DUP6 SSTORE PUSH2 0xAE5 JUMP JUMPDEST DUP3 PUSH1 0x1F LT PUSH2 0xAB7 JUMPI DUP1 MLOAD PUSH1 0xFF NOT AND DUP4 DUP1 ADD OR DUP6 SSTORE PUSH2 0xAE5 JUMP JUMPDEST DUP3 DUP1 ADD PUSH1 0x1 ADD DUP6 SSTORE DUP3 ISZERO PUSH2 0xAE5 JUMPI SWAP2 DUP3 ADD JUMPDEST DUP3 DUP2 GT ISZERO PUSH2 0xAE4 JUMPI DUP3 MLOAD DUP3 SSTORE SWAP2 PUSH1 0x20 ADD SWAP2 SWAP1 PUSH1 0x1 ADD SWAP1 PUSH2 0xAC9 JUMP JUMPDEST JUMPDEST POP SWAP1 POP PUSH2 0xAF2 SWAP2 SWAP1 PUSH2 0xBC3 JUMP JUMPDEST POP SWAP1 JUMP JUMPDEST DUP3 DUP1 SLOAD PUSH2 0xB02 SWAP1 PUSH2 0x15DA JUMP JUMPDEST SWAP1 PUSH1 0x0 MSTORE PUSH1 0x20 PUSH1 0x0 KECCAK256 SWAP1 PUSH1 0x1F ADD PUSH1 0x20 SWAP1 DIV DUP2 ADD SWAP3 DUP3 PUSH2 0xB24 JUMPI PUSH1 0x0 DUP6 SSTORE PUSH2 0xB72 JUMP JUMPDEST DUP3 PUSH1 0x1F LT PUSH2 0xB35 JUMPI DUP1 SLOAD DUP6 SSTORE PUSH2 0xB72 JUMP JUMPDEST DUP3 DUP1 ADD PUSH1 0x1 ADD DUP6 SSTORE DUP3 ISZERO PUSH2 0xB72 JUMPI PUSH1 0x0 MSTORE PUSH1 0x20 PUSH1 0x0 KECCAK256 SWAP2 PUSH1 0x1F ADD PUSH1 0x20 SWAP1 DIV DUP3 ADD JUMPDEST DUP3 DUP2 GT ISZERO PUSH2 0xB71 JUMPI DUP3 SLOAD DUP3 SSTORE SWAP2 PUSH1 0x1 ADD SWAP2 SWAP1 PUSH1 0x1 ADD SWAP1 PUSH2 0xB56 JUMP JUMPDEST JUMPDEST POP SWAP1 POP PUSH2 0xB7F SWAP2 SWAP1 PUSH2 0xBC3 JUMP JUMPDEST POP SWAP1 JUMP JUMPDEST POP DUP1 SLOAD PUSH2 0xB8F SWAP1 PUSH2 0x15DA JUMP JUMPDEST PUSH1 0x0 DUP3 SSTORE DUP1 PUSH1 0x1F LT PUSH2 0xBA1 JUMPI POP PUSH2 0xBC0 JUMP JUMPDEST PUSH1 0x1F ADD PUSH1 0x20 SWAP1 DIV SWAP1 PUSH1 0x0 MSTORE PUSH1 0x20 PUSH1 0x0 KECCAK256 SWAP1 DUP2 ADD SWAP1 PUSH2 0xBBF SWAP2 SWAP1 PUSH2 0xBC3 JUMP JUMPDEST JUMPDEST POP JUMP JUMPDEST JUMPDEST DUP1 DUP3 GT ISZERO PUSH2 0xBDC JUMPI PUSH1 0x0 DUP2 PUSH1 0x0 SWAP1 SSTORE POP PUSH1 0x1 ADD PUSH2 0xBC4 JUMP JUMPDEST POP SWAP1 JUMP JUMPDEST PUSH1 0x0 PUSH2 0xBF3 PUSH2 0xBEE DUP5 PUSH2 0x149B JUMP JUMPDEST PUSH2 0x1476 JUMP JUMPDEST SWAP1 POP DUP3 DUP2 MSTORE PUSH1 0x20 DUP2 ADD DUP5 DUP5 DUP5 ADD GT ISZERO PUSH2 0xC0F JUMPI PUSH2 0xC0E PUSH2 0x1780 JUMP JUMPDEST JUMPDEST PUSH2 0xC1A DUP5 DUP3 DUP6 PUSH2 0x1598 JUMP JUMPDEST POP SWAP4 SWAP3 POP POP POP JUMP JUMPDEST PUSH1 0x0 DUP2 CALLDATALOAD SWAP1 POP PUSH2 0xC31 DUP2 PUSH2 0x181B JUMP JUMPDEST SWAP3 SWAP2 POP POP JUMP JUMPDEST PUSH1 0x0 DUP2 CALLDATALOAD SWAP1 POP PUSH2 0xC46 DUP2 PUSH2 0x1832 JUMP JUMPDEST SWAP3 SWAP2 POP POP JUMP JUMPDEST PUSH1 0x0 DUP2 MLOAD SWAP1 POP PUSH2 0xC5B DUP2 PUSH2 0x1832 JUMP JUMPDEST SWAP3 SWAP2 POP POP JUMP JUMPDEST PUSH1 0x0 DUP1 DUP4 PUSH1 0x1F DUP5 ADD SLT PUSH2 0xC77 JUMPI PUSH2 0xC76 PUSH2 0x1776 JUMP JUMPDEST JUMPDEST DUP3 CALLDATALOAD SWAP1 POP PUSH8 0xFFFFFFFFFFFFFFFF DUP2 GT ISZERO PUSH2 0xC94 JUMPI PUSH2 0xC93 PUSH2 0x1771 JUMP JUMPDEST JUMPDEST PUSH1 0x20 DUP4 ADD SWAP2 POP DUP4 PUSH1 0x1 DUP3 MUL DUP4 ADD GT ISZERO PUSH2 0xCB0 JUMPI PUSH2 0xCAF PUSH2 0x177B JUMP JUMPDEST JUMPDEST SWAP3 POP SWAP3 SWAP1 POP JUMP JUMPDEST PUSH1 0x0 DUP3 PUSH1 0x1F DUP4 ADD SLT PUSH2 0xCCC JUMPI PUSH2 0xCCB PUSH2 0x1776 JUMP JUMPDEST JUMPDEST DUP2 CALLDATALOAD PUSH2 0xCDC DUP5 DUP3 PUSH1 0x20 DUP7 ADD PUSH2 0xBE0 JUMP JUMPDEST SWAP2 POP POP SWAP3 SWAP2 POP POP JUMP JUMPDEST PUSH1 0x0 DUP2 CALLDATALOAD SWAP1 POP PUSH2 0xCF4 DUP2 PUSH2 0x1849 JUMP JUMPDEST SWAP3 SWAP2 POP POP JUMP JUMPDEST PUSH1 0x0 DUP2 MLOAD SWAP1 POP PUSH2 0xD09 DUP2 PUSH2 0x1849 JUMP JUMPDEST SWAP3 SWAP2 POP POP JUMP JUMPDEST PUSH1 0x0 DUP2 MLOAD SWAP1 POP PUSH2 0xD1E DUP2 PUSH2 0x1860 JUMP JUMPDEST SWAP3 SWAP2 POP POP JUMP JUMPDEST PUSH1 0x0 DUP1 PUSH1 0x20 DUP4 DUP6 SUB SLT ISZERO PUSH2 0xD3B JUMPI PUSH2 0xD3A PUSH2 0x178A JUMP JUMPDEST JUMPDEST PUSH1 0x0 DUP4 ADD CALLDATALOAD PUSH8 0xFFFFFFFFFFFFFFFF DUP2 GT ISZERO PUSH2 0xD59 JUMPI PUSH2 0xD58 PUSH2 0x1785 JUMP JUMPDEST JUMPDEST PUSH2 0xD65 DUP6 DUP3 DUP7 ADD PUSH2 0xC61 JUMP JUMPDEST SWAP3 POP SWAP3 POP POP SWAP3 POP SWAP3 SWAP1 POP JUMP JUMPDEST PUSH1 0x0 DUP1 PUSH1 0x0 DUP1 PUSH1 0x0 DUP1 PUSH1 0x0 DUP1 PUSH1 0xE0 DUP10 DUP12 SUB SLT ISZERO PUSH2 0xD91 JUMPI PUSH2 0xD90 PUSH2 0x178A JUMP JUMPDEST JUMPDEST PUSH1 0x0 DUP10 ADD CALLDATALOAD PUSH8 0xFFFFFFFFFFFFFFFF DUP2 GT ISZERO PUSH2 0xDAF JUMPI PUSH2 0xDAE PUSH2 0x1785 JUMP JUMPDEST JUMPDEST PUSH2 0xDBB DUP12 DUP3 DUP13 ADD PUSH2 0xC61 JUMP JUMPDEST SWAP9 POP SWAP9 POP POP PUSH1 0x20 PUSH2 0xDCE DUP12 DUP3 DUP13 ADD PUSH2 0xC37 JUMP JUMPDEST SWAP7 POP POP PUSH1 0x40 PUSH2 0xDDF DUP12 DUP3 DUP13 ADD PUSH2 0xCE5 JUMP JUMPDEST SWAP6 POP POP PUSH1 0x60 PUSH2 0xDF0 DUP12 DUP3 DUP13 ADD PUSH2 0xCE5 JUMP JUMPDEST SWAP5 POP POP PUSH1 0x80 PUSH2 0xE01 DUP12 DUP3 DUP13 ADD PUSH2 0xC22 JUMP JUMPDEST SWAP4 POP POP PUSH1 0xA0 PUSH2 0xE12 DUP12 DUP3 DUP13 ADD PUSH2 0xCE5 JUMP JUMPDEST SWAP3 POP POP PUSH1 0xC0 PUSH2 0xE23 DUP12 DUP3 DUP13 ADD PUSH2 0xC22 JUMP JUMPDEST SWAP2 POP POP SWAP3 SWAP6 SWAP9 POP SWAP3 SWAP6 SWAP9 SWAP1 SWAP4 SWAP7 POP JUMP JUMPDEST PUSH1 0x0 PUSH1 0x20 DUP3 DUP5 SUB SLT ISZERO PUSH2 0xE49 JUMPI PUSH2 0xE48 PUSH2 0x178A JUMP JUMPDEST JUMPDEST PUSH1 0x0 DUP3 ADD CALLDATALOAD PUSH8 0xFFFFFFFFFFFFFFFF DUP2 GT ISZERO PUSH2 0xE67 JUMPI PUSH2 0xE66 PUSH2 0x1785 JUMP JUMPDEST JUMPDEST PUSH2 0xE73 DUP5 DUP3 DUP6 ADD PUSH2 0xCB7 JUMP JUMPDEST SWAP2 POP POP SWAP3 SWAP2 POP POP JUMP JUMPDEST PUSH1 0x0 DUP1 PUSH1 0x0 DUP1 PUSH1 0x0 DUP1 PUSH1 0x0 PUSH1 0xE0 DUP9 DUP11 SUB SLT ISZERO PUSH2 0xE9B JUMPI PUSH2 0xE9A PUSH2 0x178A JUMP JUMPDEST JUMPDEST PUSH1 0x0 DUP9 ADD CALLDATALOAD PUSH8 0xFFFFFFFFFFFFFFFF DUP2 GT ISZERO PUSH2 0xEB9 JUMPI PUSH2 0xEB8 PUSH2 0x1785 JUMP JUMPDEST JUMPDEST PUSH2 0xEC5 DUP11 DUP3 DUP12 ADD PUSH2 0xCB7 JUMP JUMPDEST SWAP8 POP POP PUSH1 0x20 DUP9 ADD CALLDATALOAD PUSH8 0xFFFFFFFFFFFFFFFF DUP2 GT ISZERO PUSH2 0xEE6 JUMPI PUSH2 0xEE5 PUSH2 0x1785 JUMP JUMPDEST JUMPDEST PUSH2 0xEF2 DUP11 DUP3 DUP12 ADD PUSH2 0xCB7 JUMP JUMPDEST SWAP7 POP POP PUSH1 0x40 PUSH2 0xF03 DUP11 DUP3 DUP12 ADD PUSH2 0xC37 JUMP JUMPDEST SWAP6 POP POP PUSH1 0x60 PUSH2 0xF14 DUP11 DUP3 DUP12 ADD PUSH2 0xCE5 JUMP JUMPDEST SWAP5 POP POP PUSH1 0x80 PUSH2 0xF25 DUP11 DUP3 DUP12 ADD PUSH2 0xCE5 JUMP JUMPDEST SWAP4 POP POP PUSH1 0xA0 PUSH2 0xF36 DUP11 DUP3 DUP12 ADD PUSH2 0xC22 JUMP JUMPDEST SWAP3 POP POP PUSH1 0xC0 PUSH2 0xF47 DUP11 DUP3 DUP12 ADD PUSH2 0xC22 JUMP JUMPDEST SWAP2 POP POP SWAP3 SWAP6 SWAP9 SWAP2 SWAP5 SWAP8 POP SWAP3 SWAP6 POP JUMP JUMPDEST PUSH1 0x0 PUSH1 0x20 DUP3 DUP5 SUB SLT ISZERO PUSH2 0xF6C JUMPI PUSH2 0xF6B PUSH2 0x178A JUMP JUMPDEST JUMPDEST PUSH1 0x0 PUSH2 0xF7A DUP5 DUP3 DUP6 ADD PUSH2 0xCE5 JUMP JUMPDEST SWAP2 POP POP SWAP3 SWAP2 POP POP JUMP JUMPDEST PUSH1 0x0 DUP1 PUSH1 0x0 DUP1 PUSH1 0x0 PUSH1 0xA0 DUP7 DUP9 SUB SLT ISZERO PUSH2 0xF9F JUMPI PUSH2 0xF9E PUSH2 0x178A JUMP JUMPDEST JUMPDEST PUSH1 0x0 PUSH2 0xFAD DUP9 DUP3 DUP10 ADD PUSH2 0xD0F JUMP JUMPDEST SWAP6 POP POP PUSH1 0x20 PUSH2 0xFBE DUP9 DUP3 DUP10 ADD PUSH2 0xC4C JUMP JUMPDEST SWAP5 POP POP PUSH1 0x40 PUSH2 0xFCF DUP9 DUP3 DUP10 ADD PUSH2 0xCFA JUMP JUMPDEST SWAP4 POP POP PUSH1 0x60 PUSH2 0xFE0 DUP9 DUP3 DUP10 ADD PUSH2 0xCFA JUMP JUMPDEST SWAP3 POP POP PUSH1 0x80 PUSH2 0xFF1 DUP9 DUP3 DUP10 ADD PUSH2 0xD0F JUMP JUMPDEST SWAP2 POP POP SWAP3 SWAP6 POP SWAP3 SWAP6 SWAP1 SWAP4 POP JUMP JUMPDEST PUSH2 0x1007 DUP2 PUSH2 0x153C JUMP JUMPDEST DUP3 MSTORE POP POP JUMP JUMPDEST PUSH2 0x1016 DUP2 PUSH2 0x154E JUMP JUMPDEST DUP3 MSTORE POP POP JUMP JUMPDEST PUSH1 0x0 PUSH2 0x1028 DUP4 DUP6 PUSH2 0x14EC JUMP JUMPDEST SWAP4 POP PUSH2 0x1035 DUP4 DUP6 DUP5 PUSH2 0x1598 JUMP JUMPDEST PUSH2 0x103E DUP4 PUSH2 0x178F JUMP JUMPDEST DUP5 ADD SWAP1 POP SWAP4 SWAP3 POP POP POP JUMP JUMPDEST PUSH1 0x0 PUSH2 0x1055 DUP4 DUP6 PUSH2 0x14FD JUMP JUMPDEST SWAP4 POP PUSH2 0x1062 DUP4 DUP6 DUP5 PUSH2 0x1598 JUMP JUMPDEST DUP3 DUP5 ADD SWAP1 POP SWAP4 SWAP3 POP POP POP JUMP JUMPDEST PUSH1 0x0 PUSH2 0x1079 DUP3 PUSH2 0x14E1 JUMP JUMPDEST PUSH2 0x1083 DUP2 DUP6 PUSH2 0x14EC JUMP JUMPDEST SWAP4 POP PUSH2 0x1093 DUP2 DUP6 PUSH1 0x20 DUP7 ADD PUSH2 0x15A7 JUMP JUMPDEST PUSH2 0x109C DUP2 PUSH2 0x178F JUMP JUMPDEST DUP5 ADD SWAP2 POP POP SWAP3 SWAP2 POP POP JUMP JUMPDEST PUSH1 0x0 PUSH2 0x10B2 DUP3 PUSH2 0x14E1 JUMP JUMPDEST PUSH2 0x10BC DUP2 DUP6 PUSH2 0x14FD JUMP JUMPDEST SWAP4 POP PUSH2 0x10CC DUP2 DUP6 PUSH1 0x20 DUP7 ADD PUSH2 0x15A7 JUMP JUMPDEST DUP1 DUP5 ADD SWAP2 POP POP SWAP3 SWAP2 POP POP JUMP JUMPDEST PUSH1 0x0 DUP2 SLOAD PUSH2 0x10E5 DUP2 PUSH2 0x15DA JUMP JUMPDEST PUSH2 0x10EF DUP2 DUP7 PUSH2 0x14FD JUMP JUMPDEST SWAP5 POP PUSH1 0x1 DUP3 AND PUSH1 0x0 DUP2 EQ PUSH2 0x110A JUMPI PUSH1 0x1 DUP2 EQ PUSH2 0x111B JUMPI PUSH2 0x114E JUMP JUMPDEST PUSH1 0xFF NOT DUP4 AND DUP7 MSTORE DUP2 DUP7 ADD SWAP4 POP PUSH2 0x114E JUMP JUMPDEST PUSH2 0x1124 DUP6 PUSH2 0x14CC JUMP JUMPDEST PUSH1 0x0 JUMPDEST DUP4 DUP2 LT ISZERO PUSH2 0x1146 JUMPI DUP2 SLOAD DUP2 DUP10 ADD MSTORE PUSH1 0x1 DUP3 ADD SWAP2 POP PUSH1 0x20 DUP2 ADD SWAP1 POP PUSH2 0x1127 JUMP JUMPDEST DUP4 DUP9 ADD SWAP6 POP POP POP JUMPDEST POP POP POP SWAP3 SWAP2 POP POP JUMP JUMPDEST PUSH1 0x0 PUSH2 0x1164 PUSH1 0x9 DUP4 PUSH2 0x14EC JUMP JUMPDEST SWAP2 POP PUSH2 0x116F DUP3 PUSH2 0x17A0 JUMP JUMPDEST PUSH1 0x20 DUP3 ADD SWAP1 POP SWAP2 SWAP1 POP JUMP JUMPDEST PUSH1 0x0 PUSH2 0x1187 PUSH1 0x1E DUP4 PUSH2 0x14EC JUMP JUMPDEST SWAP2 POP PUSH2 0x1192 DUP3 PUSH2 0x17C9 JUMP JUMPDEST PUSH1 0x20 DUP3 ADD SWAP1 POP SWAP2 SWAP1 POP JUMP JUMPDEST PUSH1 0x0 PUSH2 0x11AA PUSH1 0x11 DUP4 PUSH2 0x14EC JUMP JUMPDEST SWAP2 POP PUSH2 0x11B5 DUP3 PUSH2 0x17F2 JUMP JUMPDEST PUSH1 0x20 DUP3 ADD SWAP1 POP SWAP2 SWAP1 POP JUMP JUMPDEST PUSH2 0x11C9 DUP2 PUSH2 0x1578 JUMP JUMPDEST DUP3 MSTORE POP POP JUMP JUMPDEST PUSH1 0x0 PUSH2 0x11DC DUP3 DUP5 DUP7 PUSH2 0x1049 JUMP JUMPDEST SWAP2 POP DUP2 SWAP1 POP SWAP4 SWAP3 POP POP POP JUMP JUMPDEST PUSH1 0x0 PUSH2 0x11F4 DUP3 DUP5 PUSH2 0x10A7 JUMP JUMPDEST SWAP2 POP DUP2 SWAP1 POP SWAP3 SWAP2 POP POP JUMP JUMPDEST PUSH1 0x0 PUSH2 0x120B DUP3 DUP5 PUSH2 0x10D8 JUMP JUMPDEST SWAP2 POP DUP2 SWAP1 POP SWAP3 SWAP2 POP POP JUMP JUMPDEST PUSH1 0x0 PUSH1 0x80 DUP3 ADD SWAP1 POP DUP2 DUP2 SUB PUSH1 0x0 DUP4 ADD MSTORE PUSH2 0x1231 DUP2 DUP8 DUP10 PUSH2 0x101C JUMP JUMPDEST SWAP1 POP PUSH2 0x1240 PUSH1 0x20 DUP4 ADD DUP7 PUSH2 0x100D JUMP JUMPDEST PUSH2 0x124D PUSH1 0x40 DUP4 ADD DUP6 PUSH2 0x100D JUMP JUMPDEST PUSH2 0x125A PUSH1 0x60 DUP4 ADD DUP5 PUSH2 0x11C0 JUMP JUMPDEST SWAP7 SWAP6 POP POP POP POP POP POP JUMP JUMPDEST PUSH1 0x0 PUSH2 0x100 DUP3 ADD SWAP1 POP DUP2 DUP2 SUB PUSH1 0x0 DUP4 ADD MSTORE PUSH2 0x1280 DUP2 DUP12 DUP14 PUSH2 0x101C JUMP JUMPDEST SWAP1 POP PUSH2 0x128F PUSH1 0x20 DUP4 ADD DUP11 PUSH2 0x100D JUMP JUMPDEST PUSH2 0x129C PUSH1 0x40 DUP4 ADD DUP10 PUSH2 0x11C0 JUMP JUMPDEST PUSH2 0x12A9 PUSH1 0x60 DUP4 ADD DUP9 PUSH2 0x11C0 JUMP JUMPDEST PUSH2 0x12B6 PUSH1 0x80 DUP4 ADD DUP8 PUSH2 0xFFE JUMP JUMPDEST PUSH2 0x12C3 PUSH1 0xA0 DUP4 ADD DUP7 PUSH2 0xFFE JUMP JUMPDEST PUSH2 0x12D0 PUSH1 0xC0 DUP4 ADD DUP6 PUSH2 0x11C0 JUMP JUMPDEST PUSH2 0x12DD PUSH1 0xE0 DUP4 ADD DUP5 PUSH2 0xFFE JUMP JUMPDEST SWAP11 SWAP10 POP POP POP POP POP POP POP POP POP POP JUMP JUMPDEST PUSH1 0x0 PUSH1 0x20 DUP3 ADD SWAP1 POP DUP2 DUP2 SUB PUSH1 0x0 DUP4 ADD MSTORE PUSH2 0x1305 DUP2 DUP5 PUSH2 0x106E JUMP JUMPDEST SWAP1 POP SWAP3 SWAP2 POP POP JUMP JUMPDEST PUSH1 0x0 PUSH2 0x100 DUP3 ADD SWAP1 POP DUP2 DUP2 SUB PUSH1 0x0 DUP4 ADD MSTORE PUSH2 0x1328 DUP2 DUP12 PUSH2 0x106E JUMP JUMPDEST SWAP1 POP DUP2 DUP2 SUB PUSH1 0x20 DUP4 ADD MSTORE PUSH2 0x133C DUP2 DUP11 PUSH2 0x106E JUMP JUMPDEST SWAP1 POP PUSH2 0x134B PUSH1 0x40 DUP4 ADD DUP10 PUSH2 0x100D JUMP JUMPDEST PUSH2 0x1358 PUSH1 0x60 DUP4 ADD DUP9 PUSH2 0x100D JUMP JUMPDEST PUSH2 0x1365 PUSH1 0x80 DUP4 ADD DUP8 PUSH2 0x11C0 JUMP JUMPDEST PUSH2 0x1372 PUSH1 0xA0 DUP4 ADD DUP7 PUSH2 0x11C0 JUMP JUMPDEST PUSH2 0x137F PUSH1 0xC0 DUP4 ADD DUP6 PUSH2 0x11C0 JUMP JUMPDEST PUSH2 0x138C PUSH1 0xE0 DUP4 ADD DUP5 PUSH2 0xFFE JUMP JUMPDEST SWAP10 SWAP9 POP POP POP POP POP POP POP POP POP JUMP JUMPDEST PUSH1 0x0 PUSH1 0xE0 DUP3 ADD SWAP1 POP DUP2 DUP2 SUB PUSH1 0x0 DUP4 ADD MSTORE PUSH2 0x13B3 DUP2 DUP11 PUSH2 0x106E JUMP JUMPDEST SWAP1 POP DUP2 DUP2 SUB PUSH1 0x20 DUP4 ADD MSTORE PUSH2 0x13C7 DUP2 DUP10 PUSH2 0x106E JUMP JUMPDEST SWAP1 POP PUSH2 0x13D6 PUSH1 0x40 DUP4 ADD DUP9 PUSH2 0x100D JUMP JUMPDEST PUSH2 0x13E3 PUSH1 0x60 DUP4 ADD DUP8 PUSH2 0x11C0 JUMP JUMPDEST PUSH2 0x13F0 PUSH1 0x80 DUP4 ADD DUP7 PUSH2 0x11C0 JUMP JUMPDEST PUSH2 0x13FD PUSH1 0xA0 DUP4 ADD DUP6 PUSH2 0xFFE JUMP JUMPDEST PUSH2 0x140A PUSH1 0xC0 DUP4 ADD DUP5 PUSH2 0xFFE JUMP JUMPDEST SWAP9 SWAP8 POP POP POP POP POP POP POP POP JUMP JUMPDEST PUSH1 0x0 PUSH1 0x20 DUP3 ADD SWAP1 POP DUP2 DUP2 SUB PUSH1 0x0 DUP4 ADD MSTORE PUSH2 0x142F DUP2 PUSH2 0x1157 JUMP JUMPDEST SWAP1 POP SWAP2 SWAP1 POP JUMP JUMPDEST PUSH1 0x0 PUSH1 0x20 DUP3 ADD SWAP1 POP DUP2 DUP2 SUB PUSH1 0x0 DUP4 ADD MSTORE PUSH2 0x144F DUP2 PUSH2 0x117A JUMP JUMPDEST SWAP1 POP SWAP2 SWAP1 POP JUMP JUMPDEST PUSH1 0x0 PUSH1 0x20 DUP3 ADD SWAP1 POP DUP2 DUP2 SUB PUSH1 0x0 DUP4 ADD MSTORE PUSH2 0x146F DUP2 PUSH2 0x119D JUMP JUMPDEST SWAP1 POP SWAP2 SWAP1 POP JUMP JUMPDEST PUSH1 0x0 PUSH2 0x1480 PUSH2 0x1491 JUMP JUMPDEST SWAP1 POP PUSH2 0x148C DUP3 DUP3 PUSH2 0x160C JUMP JUMPDEST SWAP2 SWAP1 POP JUMP JUMPDEST PUSH1 0x0 PUSH1 0x40 MLOAD SWAP1 POP SWAP1 JUMP JUMPDEST PUSH1 0x0 PUSH8 0xFFFFFFFFFFFFFFFF DUP3 GT ISZERO PUSH2 0x14B6 JUMPI PUSH2 0x14B5 PUSH2 0x1742 JUMP JUMPDEST JUMPDEST PUSH2 0x14BF DUP3 PUSH2 0x178F JUMP JUMPDEST SWAP1 POP PUSH1 0x20 DUP2 ADD SWAP1 POP SWAP2 SWAP1 POP JUMP JUMPDEST PUSH1 0x0 DUP2 SWAP1 POP DUP2 PUSH1 0x0 MSTORE PUSH1 0x20 PUSH1 0x0 KECCAK256 SWAP1 POP SWAP2 SWAP1 POP JUMP JUMPDEST PUSH1 0x0 DUP2 MLOAD SWAP1 POP SWAP2 SWAP1 POP JUMP JUMPDEST PUSH1 0x0 DUP3 DUP3 MSTORE PUSH1 0x20 DUP3 ADD SWAP1 POP SWAP3 SWAP2 POP POP JUMP JUMPDEST PUSH1 0x0 DUP2 SWAP1 POP SWAP3 SWAP2 POP POP JUMP JUMPDEST PUSH1 0x0 PUSH2 0x1513 DUP3 PUSH2 0x1578 JUMP JUMPDEST SWAP2 POP PUSH2 0x151E DUP4 PUSH2 0x1578 JUMP JUMPDEST SWAP3 POP DUP3 DUP3 LT ISZERO PUSH2 0x1531 JUMPI PUSH2 0x1530 PUSH2 0x1686 JUMP JUMPDEST JUMPDEST DUP3 DUP3 SUB SWAP1 POP SWAP3 SWAP2 POP POP JUMP JUMPDEST PUSH1 0x0 PUSH2 0x1547 DUP3 PUSH2 0x1558 JUMP JUMPDEST SWAP1 POP SWAP2 SWAP1 POP JUMP JUMPDEST PUSH1 0x0 DUP2 SWAP1 POP SWAP2 SWAP1 POP JUMP JUMPDEST PUSH1 0x0 PUSH20 0xFFFFFFFFFFFFFFFFFFFFFFFFFFFFFFFFFFFFFFFF DUP3 AND SWAP1 POP SWAP2 SWAP1 POP JUMP JUMPDEST PUSH1 0x0 DUP2 SWAP1 POP SWAP2 SWAP1 POP JUMP JUMPDEST PUSH1 0x0 PUSH10 0xFFFFFFFFFFFFFFFFFFFF DUP3 AND SWAP1 POP SWAP2 SWAP1 POP JUMP JUMPDEST DUP3 DUP2 DUP4 CALLDATACOPY PUSH1 0x0 DUP4 DUP4 ADD MSTORE POP POP POP JUMP JUMPDEST PUSH1 0x0 JUMPDEST DUP4 DUP2 LT ISZERO PUSH2 0x15C5 JUMPI DUP1 DUP3 ADD MLOAD DUP2 DUP5 ADD MSTORE PUSH1 0x20 DUP2 ADD SWAP1 POP PUSH2 0x15AA JUMP JUMPDEST DUP4 DUP2 GT ISZERO PUSH2 0x15D4 JUMPI PUSH1 0x0 DUP5 DUP5 ADD MSTORE JUMPDEST POP POP POP POP JUMP JUMPDEST PUSH1 0x0 PUSH1 0x2 DUP3 DIV SWAP1 POP PUSH1 0x1 DUP3 AND DUP1 PUSH2 0x15F2 JUMPI PUSH1 0x7F DUP3 AND SWAP2 POP JUMPDEST PUSH1 0x20 DUP3 LT DUP2 EQ ISZERO PUSH2 0x1606 JUMPI PUSH2 0x1605 PUSH2 0x16B5 JUMP JUMPDEST JUMPDEST POP SWAP2 SWAP1 POP JUMP JUMPDEST PUSH2 0x1615 DUP3 PUSH2 0x178F JUMP JUMPDEST DUP2 ADD DUP2 DUP2 LT PUSH8 0xFFFFFFFFFFFFFFFF DUP3 GT OR ISZERO PUSH2 0x1634 JUMPI PUSH2 0x1633 PUSH2 0x1742 JUMP JUMPDEST JUMPDEST DUP1 PUSH1 0x40 MSTORE POP POP POP JUMP JUMPDEST PUSH1 0x0 PUSH2 0x1648 DUP3 PUSH2 0x1578 JUMP JUMPDEST SWAP2 POP PUSH32 0xFFFFFFFFFFFFFFFFFFFFFFFFFFFFFFFFFFFFFFFFFFFFFFFFFFFFFFFFFFFFFFFF DUP3 EQ ISZERO PUSH2 0x167B JUMPI PUSH2 0x167A PUSH2 0x1686 JUMP JUMPDEST JUMPDEST PUSH1 0x1 DUP3 ADD SWAP1 POP SWAP2 SWAP1 POP JUMP JUMPDEST PUSH32 0x4E487B7100000000000000000000000000000000000000000000000000000000 PUSH1 0x0 MSTORE PUSH1 0x11 PUSH1 0x4 MSTORE PUSH1 0x24 PUSH1 0x0 REVERT JUMPDEST PUSH32 0x4E487B7100000000000000000000000000000000000000000000000000000000 PUSH1 0x0 MSTORE PUSH1 0x22 PUSH1 0x4 MSTORE PUSH1 0x24 PUSH1 0x0 REVERT JUMPDEST PUSH32 0x4E487B7100000000000000000000000000000000000000000000000000000000 PUSH1 0x0 MSTORE PUSH1 0x31 PUSH1 0x4 MSTORE PUSH1 0x24 PUSH1 0x0 REVERT JUMPDEST PUSH32 0x4E487B7100000000000000000000000000000000000000000000000000000000 PUSH1 0x0 MSTORE PUSH1 0x32 PUSH1 0x4 MSTORE PUSH1 0x24 PUSH1 0x0 REVERT JUMPDEST PUSH32 0x4E487B7100000000000000000000000000000000000000000000000000000000 PUSH1 0x0 MSTORE PUSH1 0x41 PUSH1 0x4 MSTORE PUSH1 0x24 PUSH1 0x0 REVERT JUMPDEST PUSH1 0x0 DUP1 REVERT JUMPDEST PUSH1 0x0 DUP1 REVERT JUMPDEST PUSH1 0x0 DUP1 REVERT JUMPDEST PUSH1 0x0 DUP1 REVERT JUMPDEST PUSH1 0x0 DUP1 REVERT JUMPDEST PUSH1 0x0 DUP1 REVERT JUMPDEST PUSH1 0x0 PUSH1 0x1F NOT PUSH1 0x1F DUP4 ADD AND SWAP1 POP SWAP2 SWAP1 POP JUMP JUMPDEST PUSH32 0x4E6F7420466F756E640000000000000000000000000000000000000000000000 PUSH1 0x0 DUP3 ADD MSTORE POP JUMP JUMPDEST PUSH32 0x56616C69646174696F6E206661696C656420666F7220636C6F7365446C630000 PUSH1 0x0 DUP3 ADD MSTORE POP JUMP JUMPDEST PUSH32 0x444C4320616C7265616479206164646564000000000000000000000000000000 PUSH1 0x0 DUP3 ADD MSTORE POP JUMP JUMPDEST PUSH2 0x1824 DUP2 PUSH2 0x153C JUMP JUMPDEST DUP2 EQ PUSH2 0x182F JUMPI PUSH1 0x0 DUP1 REVERT JUMPDEST POP JUMP JUMPDEST PUSH2 0x183B DUP2 PUSH2 0x154E JUMP JUMPDEST DUP2 EQ PUSH2 0x1846 JUMPI PUSH1 0x0 DUP1 REVERT JUMPDEST POP JUMP JUMPDEST PUSH2 0x1852 DUP2 PUSH2 0x1578 JUMP JUMPDEST DUP2 EQ PUSH2 0x185D JUMPI PUSH1 0x0 DUP1 REVERT JUMPDEST POP JUMP JUMPDEST PUSH2 0x1869 DUP2 PUSH2 0x1582 JUMP JUMPDEST DUP2 EQ PUSH2 0x1874 JUMPI PUSH1 0x0 DUP1 REVERT JUMPDEST POP JUMP INVALID LOG2 PUSH5 0x6970667358 0x22 SLT KECCAK256 0xAA 0xA9 0xB3 0xC9 0xCE 0xBB 0xC4 SELFDESTRUCT 0x21 0x25 0xFB ADDMOD 0x5E 0xE5 POP JUMP 0xD4 SWAP8 CALLDATALOAD 0xD4 0xE3 0x4B DUP15 0xDB PUSH8 0x14A2E5DA177C2464 PUSH20 0x6F6C634300080700330000000000000000000000 "
		},
		"gasEstimates": {
			"creation": {
				"codeDepositCost": "1263400",
				"executionCost": "1315",
				"totalCost": "1264715"
			},
			"external": {
				"closeDlc(string)": "infinite",
				"createDLCInternal(string,string,int256,uint256,uint256,address,address)": "infinite",
				"createDlc(string,int256,uint256,uint256,address,uint256,address)": "infinite",
				"dlcs(string)": "infinite",
				"openUUIDs(uint256)": "infinite"
			},
			"internal": {
				"findIndex(string memory)": "infinite",
				"getLatestPrice(address)": "infinite",
				"removeClosedDLC(uint256)": "infinite"
			}
		},
		"methodIdentifiers": {
			"closeDlc(string)": "9e098026",
			"createDLCInternal(string,string,int256,uint256,uint256,address,address)": "140b2efa",
			"createDlc(string,int256,uint256,uint256,address,uint256,address)": "3037fac9",
			"dlcs(string)": "0ef2feff",
			"openUUIDs(uint256)": "2e730910"
		}
	},
	"abi": [
		{
			"anonymous": false,
			"inputs": [
				{
					"indexed": false,
					"internalType": "string",
					"name": "uuid",
					"type": "string"
				},
				{
					"indexed": false,
					"internalType": "int256",
					"name": "payoutRatio",
					"type": "int256"
				},
				{
					"indexed": false,
					"internalType": "int256",
					"name": "closingPrice",
					"type": "int256"
				},
				{
					"indexed": false,
					"internalType": "uint256",
					"name": "actualClosingTime",
					"type": "uint256"
				}
			],
			"name": "CloseDLC",
			"type": "event"
		},
		{
			"anonymous": false,
			"inputs": [
				{
					"indexed": false,
					"internalType": "string",
					"name": "asset",
					"type": "string"
				},
				{
					"indexed": false,
					"internalType": "int256",
					"name": "strikePrice",
					"type": "int256"
				},
				{
					"indexed": false,
					"internalType": "uint256",
					"name": "closingTime",
					"type": "uint256"
				},
				{
					"indexed": false,
					"internalType": "uint256",
					"name": "emergencyRefundTime",
					"type": "uint256"
				},
				{
					"indexed": false,
					"internalType": "address",
					"name": "creator",
					"type": "address"
				},
				{
					"indexed": false,
					"internalType": "address",
					"name": "callbackContract",
					"type": "address"
				},
				{
					"indexed": false,
					"internalType": "uint256",
					"name": "nonce",
					"type": "uint256"
				},
				{
					"indexed": false,
					"internalType": "address",
					"name": "feedAddress",
					"type": "address"
				}
			],
			"name": "CreateDLC",
			"type": "event"
		},
		{
			"anonymous": false,
			"inputs": [
				{
					"indexed": false,
					"internalType": "string",
					"name": "uuid",
					"type": "string"
				},
				{
					"indexed": false,
					"internalType": "string",
					"name": "asset",
					"type": "string"
				},
				{
					"indexed": false,
					"internalType": "int256",
					"name": "strikePrice",
					"type": "int256"
				},
				{
					"indexed": false,
					"internalType": "uint256",
					"name": "closingTime",
					"type": "uint256"
				},
				{
					"indexed": false,
					"internalType": "uint256",
					"name": "emergencyRefundTime",
					"type": "uint256"
				},
				{
					"indexed": false,
					"internalType": "address",
					"name": "caller",
					"type": "address"
				},
				{
					"indexed": false,
					"internalType": "address",
					"name": "feedAddress",
					"type": "address"
				}
			],
			"name": "CreateDLCInternal",
			"type": "event"
		},
		{
			"inputs": [
				{
					"internalType": "string",
					"name": "_uuid",
					"type": "string"
				}
			],
			"name": "closeDlc",
			"outputs": [],
			"stateMutability": "nonpayable",
			"type": "function"
		},
		{
			"inputs": [
				{
					"internalType": "string",
					"name": "_uuid",
					"type": "string"
				},
				{
					"internalType": "string",
					"name": "_asset",
					"type": "string"
				},
				{
					"internalType": "int256",
					"name": "_strikePrice",
					"type": "int256"
				},
				{
					"internalType": "uint256",
					"name": "_closingTime",
					"type": "uint256"
				},
				{
					"internalType": "uint256",
					"name": "_emergencyRefundTime",
					"type": "uint256"
				},
				{
					"internalType": "address",
					"name": "_creator",
					"type": "address"
				},
				{
					"internalType": "address",
					"name": "_feedAddress",
					"type": "address"
				}
			],
			"name": "createDLCInternal",
			"outputs": [],
			"stateMutability": "nonpayable",
			"type": "function"
		},
		{
			"inputs": [
				{
					"internalType": "string",
					"name": "_asset",
					"type": "string"
				},
				{
					"internalType": "int256",
					"name": "_strikePrice",
					"type": "int256"
				},
				{
					"internalType": "uint256",
					"name": "_closingTime",
					"type": "uint256"
				},
				{
					"internalType": "uint256",
					"name": "_emergencyRefundTime",
					"type": "uint256"
				},
				{
					"internalType": "address",
					"name": "_callbackContract",
					"type": "address"
				},
				{
					"internalType": "uint256",
					"name": "_nonce",
					"type": "uint256"
				},
				{
					"internalType": "address",
					"name": "_feedAddress",
					"type": "address"
				}
			],
			"name": "createDlc",
			"outputs": [],
			"stateMutability": "nonpayable",
			"type": "function"
		},
		{
			"inputs": [
				{
					"internalType": "string",
					"name": "",
					"type": "string"
				}
			],
			"name": "dlcs",
			"outputs": [
				{
					"internalType": "string",
					"name": "uuid",
					"type": "string"
				},
				{
					"internalType": "string",
					"name": "asset",
					"type": "string"
				},
				{
					"internalType": "int256",
					"name": "strikePrice",
					"type": "int256"
				},
				{
					"internalType": "int256",
					"name": "closingPrice",
					"type": "int256"
				},
				{
					"internalType": "uint256",
					"name": "closingTime",
					"type": "uint256"
				},
				{
					"internalType": "uint256",
					"name": "actualClosingTime",
					"type": "uint256"
				},
				{
					"internalType": "uint256",
					"name": "emergencyRefundTime",
					"type": "uint256"
				},
				{
					"internalType": "address",
					"name": "feedAddress",
					"type": "address"
				}
			],
			"stateMutability": "view",
			"type": "function"
		},
		{
			"inputs": [
				{
					"internalType": "uint256",
					"name": "",
					"type": "uint256"
				}
			],
			"name": "openUUIDs",
			"outputs": [
				{
					"internalType": "string",
					"name": "",
					"type": "string"
				}
			],
			"stateMutability": "view",
			"type": "function"
		}
	]
}