{
	"data": {
		"bytecode": {
			"linkReferences": {},
			"object": "60806040527388b21d13e5d8e40109ebaa00204c9868441710fd6000806101000a81548173ffffffffffffffffffffffffffffffffffffffff021916908373ffffffffffffffffffffffffffffffffffffffff16021790555060006004553480156200006a57600080fd5b506040518060400160405280600981526020017f6e6f742d7265616479000000000000000000000000000000000000000000000081525060076000806006811115620000bb57620000ba6200051b565b5b6006811115620000d057620000cf6200051b565b5b81526020019081526020016000209080519060200190620000f392919062000435565b506040518060400160405280600581526020017f726561647900000000000000000000000000000000000000000000000000000081525060076000600160068111156200014557620001446200051b565b5b60068111156200015a57620001596200051b565b5b815260200190815260200160002090805190602001906200017d92919062000435565b506040518060400160405280600681526020017f66756e64656400000000000000000000000000000000000000000000000000008152506007600060026006811115620001cf57620001ce6200051b565b5b6006811115620001e457620001e36200051b565b5b815260200190815260200160002090805190602001906200020792919062000435565b506040518060400160405280600a81526020017f7072652d7265706169640000000000000000000000000000000000000000000081525060076000600360068111156200025957620002586200051b565b5b60068111156200026e576200026d6200051b565b5b815260200190815260200160002090805190602001906200029192919062000435565b506040518060400160405280600681526020017f72657061696400000000000000000000000000000000000000000000000000008152506007600060046006811115620002e357620002e26200051b565b5b6006811115620002f857620002f76200051b565b5b815260200190815260200160002090805190602001906200031b92919062000435565b506040518060400160405280600e81526020017f7072652d6c69717569646174656400000000000000000000000000000000000081525060076000600560068111156200036d576200036c6200051b565b5b60068111156200038257620003816200051b565b5b81526020019081526020016000209080519060200190620003a592919062000435565b506040518060400160405280600a81526020017f6c6971756964617465640000000000000000000000000000000000000000000081525060076000600680811115620003f657620003f56200051b565b5b60068111156200040b576200040a6200051b565b5b815260200190815260200160002090805190602001906200042e92919062000435565b5062000579565b8280546200044390620004e5565b90600052602060002090601f016020900481019282620004675760008555620004b3565b82601f106200048257805160ff1916838001178555620004b3565b82800160010185558215620004b3579182015b82811115620004b257825182559160200191906001019062000495565b5b509050620004c29190620004c6565b5090565b5b80821115620004e1576000816000905550600101620004c7565b5090565b60006002820490506001821680620004fe57607f821691505b602082108114156200051557620005146200054a565b5b50919050565b7f4e487b7100000000000000000000000000000000000000000000000000000000600052602160045260246000fd5b7f4e487b7100000000000000000000000000000000000000000000000000000000600052602260045260246000fd5b612fa380620005896000396000f3fe608060405234801561001057600080fd5b506004361061010b5760003560e01c806362e87240116100a2578063ab7b1c8911610071578063ab7b1c89146102e4578063ccdd9f5d14610300578063d4252cc31461031c578063d463eeb314610338578063e1ec3c68146103565761010b565b806362e872401461025e57806389a12db41461028e5780638ff37151146102aa5780639e098026146102c85761010b565b80633902fe90116100de5780633902fe90146101b257806341f5d7cd146101ce57806347f8bf1c146101fe578063572343f11461022e5761010b565b80630ef2feff14610110578063200d2ed2146101485780632e7309101461016657806335dd76ce14610196575b600080fd5b61012a60048036038101906101259190611e52565b61038e565b60405161013f9998979695949392919061278d565b60405180910390f35b61015061049a565b60405161015d9190612608565b60405180910390f35b610180600480360381019061017b9190611f59565b6104ad565b60405161018d9190612623565b60405180910390f35b6101b060048036038101906101ab9190611e9b565b610559565b005b6101cc60048036038101906101c79190611f86565b610794565b005b6101e860048036038101906101e39190611dcb565b6107e0565b6040516101f59190612861565b60405180910390f35b61021860048036038101906102139190612028565b6107f8565b6040516102259190612861565b60405180910390f35b61024860048036038101906102439190611dcb565b610a8f565b60405161025591906125e6565b60405180910390f35b61027860048036038101906102739190611e25565b610dbe565b6040516102859190612623565b60405180910390f35b6102a860048036038101906102a39190611e52565b610e5e565b005b6102b2610ff5565b6040516102bf91906125c4565b60405180910390f35b6102e260048036038101906102dd9190611e52565b6110ce565b005b6102fe60048036038101906102f99190611f59565b61119e565b005b61031a60048036038101906103159190611f59565b61138d565b005b61033660048036038101906103319190611e52565b61149c565b005b61034061159a565b60405161034d9190612861565b60405180910390f35b610370600480360381019061036b9190611f59565b6115a0565b6040516103859998979695949392919061287c565b60405180910390f35b6002818051602081018201805184825260208301602085012081835280955050505050506000915090508060000180546103c790612c1e565b80601f01602080910402602001604051908101604052809291908181526020018280546103f390612c1e565b80156104405780601f1061041557610100808354040283529160200191610440565b820191906000526020600020905b81548152906001019060200180831161042357829003601f168201915b5050505050908060010154908060020154908060030154908060040154908060050154908060060154908060070154908060080160009054906101000a900473ffffffffffffffffffffffffffffffffffffffff16905089565b600660009054906101000a900460ff1681565b600181815481106104bd57600080fd5b9060005260206000200160009150905080546104d890612c1e565b80601f016020809104026020016040519081016040528092919081815260200182805461050490612c1e565b80156105515780601f1061052657610100808354040283529160200191610551565b820191906000526020600020905b81548152906001019060200180831161053457829003601f168201915b505050505081565b60405180610120016040528088815260200187815260200186815260200185815260200184815260200160008152602001600081526020018481526020018373ffffffffffffffffffffffffffffffffffffffff168152506002886040516105c19190612536565b908152602001604051809103902060008201518160000190805190602001906105eb929190611af6565b506020820151816001015560408201518160020155606082015181600301556080820151816004015560a0820151816005015560c0820151816006015560e082015181600701556101008201518160080160006101000a81548173ffffffffffffffffffffffffffffffffffffffff021916908373ffffffffffffffffffffffffffffffffffffffff1602179055509050506001879080600181540180825580915050600190039060005260206000200160009091909190915090805190602001906106b8929190611af6565b50866003600083815260200190815260200160002060010190805190602001906106e3929190611af6565b5060076000600160068111156106fc576106fb612cf9565b5b600681111561070e5761070d612cf9565b5b81526020019081526020016000206003600083815260200190815260200160002060020190805461073e90612c1e565b610749929190611b7c565b507fcd8f439d8f2acfcf615ca81a06950b502d3931221c697bd53d5d1c06a88d996587878787878760405161078396959493929190612712565b60405180910390a150505050505050565b7f4df421c7b448afa81019b53a86a0489ced7b8b4c57f454dba77aced8b710fb8d878787878787876040516107cf9796959493929190612917565b60405180910390a150505050505050565b60056020528060005260406000206000915090505481565b600060405180610120016040528060045481526020016040518060200160405280600081525081526020016007600080600681111561083a57610839612cf9565b5b600681111561084c5761084b612cf9565b5b8152602001908152602001600020805461086590612c1e565b80601f016020809104026020016040519081016040528092919081815260200182805461089190612c1e565b80156108de5780601f106108b3576101008083540402835291602001916108de565b820191906000526020600020905b8154815290600101906020018083116108c157829003601f168201915b50505050508152602001878152602001868152602001858152602001848152602001600081526020013373ffffffffffffffffffffffffffffffffffffffff1681525060036000600454815260200190815260200160002060008201518160000155602082015181600101908051906020019061095c929190611af6565b506040820151816002019080519060200190610979929190611af6565b50606082015181600301556080820151816004015560a0820151816005015560c0820151816006015560e082015181600701556101008201518160080160006101000a81548173ffffffffffffffffffffffffffffffffffffffff021916908373ffffffffffffffffffffffffffffffffffffffff160217905550905050610a08868686863387600454610794565b600560003373ffffffffffffffffffffffffffffffffffffffff1673ffffffffffffffffffffffffffffffffffffffff1681526020019081526020016000206000815480929190610a5890612c81565b919050555060046000815480929190610a7090612c81565b91905055506001600454610a849190612b09565b905095945050505050565b60606000600560008473ffffffffffffffffffffffffffffffffffffffff1673ffffffffffffffffffffffffffffffffffffffff1681526020019081526020016000205467ffffffffffffffff811115610aec57610aeb612db5565b5b604051908082528060200260200182016040528015610b2557816020015b610b12611c09565b815260200190600190039081610b0a5790505b5090506000805b600454811015610db3578473ffffffffffffffffffffffffffffffffffffffff166003600083815260200190815260200160002060080160009054906101000a900473ffffffffffffffffffffffffffffffffffffffff1673ffffffffffffffffffffffffffffffffffffffff161415610da057600360008281526020019081526020016000206040518061012001604052908160008201548152602001600182018054610bd990612c1e565b80601f0160208091040260200160405190810160405280929190818152602001828054610c0590612c1e565b8015610c525780601f10610c2757610100808354040283529160200191610c52565b820191906000526020600020905b815481529060010190602001808311610c3557829003601f168201915b50505050508152602001600282018054610c6b90612c1e565b80601f0160208091040260200160405190810160405280929190818152602001828054610c9790612c1e565b8015610ce45780601f10610cb957610100808354040283529160200191610ce4565b820191906000526020600020905b815481529060010190602001808311610cc757829003601f168201915b5050505050815260200160038201548152602001600482015481526020016005820154815260200160068201548152602001600782015481526020016008820160009054906101000a900473ffffffffffffffffffffffffffffffffffffffff1673ffffffffffffffffffffffffffffffffffffffff1673ffffffffffffffffffffffffffffffffffffffff1681525050838380610d8190612c81565b945081518110610d9457610d93612d86565b5b60200260200101819052505b8080610dab90612c81565b915050610b2c565b508192505050919050565b60076020528060005260406000206000915090508054610ddd90612c1e565b80601f0160208091040260200160405190810160405280929190818152602001828054610e0990612c1e565b8015610e565780601f10610e2b57610100808354040283529160200191610e56565b820191906000526020600020905b815481529060010190602001808311610e3957829003601f168201915b505050505081565b600060036000610e6d8461171e565b815260200190815260200160002090506007600060026006811115610e9557610e94612cf9565b5b6006811115610ea757610ea6612cf9565b5b815260200190815260200160002081600201908054610ec590612c1e565b610ed0929190611b7c565b5060008054906101000a900473ffffffffffffffffffffffffffffffffffffffff1673ffffffffffffffffffffffffffffffffffffffff1663a9059cbb8260080160009054906101000a900473ffffffffffffffffffffffffffffffffffffffff16670de0b6b3a76400008460030154610f4a9190612aaf565b6040518363ffffffff1660e01b8152600401610f6792919061259b565b602060405180830381600087803b158015610f8157600080fd5b505af1158015610f95573d6000803e3d6000fd5b505050506040513d601f19601f82011682018060405250810190610fb99190611df8565b507f315900bbe635fecc5728b8562969ce616fd5ec4c23ec22fc7930c46d826f906d82604051610fe991906126dd565b60405180910390a15050565b60606001805480602002602001604051908101604052809291908181526020016000905b828210156110c557838290600052602060002001805461103890612c1e565b80601f016020809104026020016040519081016040528092919081815260200182805461106490612c1e565b80156110b15780601f10611086576101008083540402835291602001916110b1565b820191906000526020600020905b81548152906001019060200180831161109457829003601f168201915b505050505081526020019060010190611019565b50505050905090565b60006002826040516110e09190612536565b9081526020016040518091039020905042816004015411158015611108575060008160060154145b611147576040517f08c379a000000000000000000000000000000000000000000000000000000000815260040161113e90612841565b60405180910390fd5b600061115a611155846117f6565b6118d9565b507fc244ef6abb581fce6ec7f623ffa560ac7d27f787d59020e83a6936bfb9d1d73183826000426040516111919493929190612691565b60405180910390a1505050565b600060036000838152602001908152602001600020905061124a8160010180546111c790612c1e565b80601f01602080910402602001604051908101604052809291908181526020018280546111f390612c1e565b80156112405780601f1061121557610100808354040283529160200191611240565b820191906000526020600020905b81548152906001019060200180831161122357829003601f168201915b50505050506110ce565b60008054906101000a900473ffffffffffffffffffffffffffffffffffffffff1673ffffffffffffffffffffffffffffffffffffffff166323b872dd8260080160009054906101000a900473ffffffffffffffffffffffffffffffffffffffff1630670de0b6b3a764000085600301546112c49190612aaf565b6040518463ffffffff1660e01b81526004016112e293929190612564565b602060405180830381600087803b1580156112fc57600080fd5b505af1158015611310573d6000803e3d6000fd5b505050506040513d601f19601f820116820180604052508101906113349190611df8565b50600760006004600681111561134d5761134c612cf9565b5b600681111561135f5761135e612cf9565b5b81526020019081526020016000208160020190805461137d90612c1e565b611388929190611b7c565b505050565b6114346003600083815260200190815260200160002060010180546113b190612c1e565b80601f01602080910402602001604051908101604052809291908181526020018280546113dd90612c1e565b801561142a5780601f106113ff5761010080835404028352916020019161142a565b820191906000526020600020905b81548152906001019060200180831161140d57829003601f168201915b505050505061149c565b6007600060068081111561144b5761144a612cf9565b5b600681111561145d5761145c612cf9565b5b81526020019081526020016000206003600083815260200190815260200160002060020190805461148d90612c1e565b611498929190611b7c565b5050565b60006002826040516114ae9190612536565b90815260200160405180910390209050428160040154111580156114d6575060008160060154145b611515576040517f08c379a000000000000000000000000000000000000000000000000000000000815260040161150c90612841565b60405180910390fd5b60008061153573a39434a63a52e749f02807ae27335515ba4b07f7611a58565b915091508183600501819055506000611555611550866117f6565b6118d9565b507fc244ef6abb581fce6ec7f623ffa560ac7d27f787d59020e83a6936bfb9d1d7318582858560405161158b9493929190612645565b60405180910390a15050505050565b60045481565b60036020528060005260406000206000915090508060000154908060010180546115c990612c1e565b80601f01602080910402602001604051908101604052809291908181526020018280546115f590612c1e565b80156116425780601f1061161757610100808354040283529160200191611642565b820191906000526020600020905b81548152906001019060200180831161162557829003601f168201915b50505050509080600201805461165790612c1e565b80601f016020809104026020016040519081016040528092919081815260200182805461168390612c1e565b80156116d05780601f106116a5576101008083540402835291602001916116d0565b820191906000526020600020905b8154815290600101906020018083116116b357829003601f168201915b5050505050908060030154908060040154908060050154908060060154908060070154908060080160009054906101000a900473ffffffffffffffffffffffffffffffffffffffff16905089565b600080600090505b6004548110156117b557826040516020016117419190612536565b604051602081830303815290604052805190602001206003600083815260200190815260200160002060010160405160200161177d919061254d565b6040516020818303038152906040528051906020012014156117a257809150506117f1565b80806117ad90612c81565b915050611726565b506040517f08c379a00000000000000000000000000000000000000000000000000000000081526004016117e890612821565b60405180910390fd5b919050565b600080600090505b600180549050811015611898578260405160200161181c9190612536565b604051602081830303815290604052805190602001206001828154811061184657611845612d86565b5b90600052602060002001604051602001611860919061254d565b60405160208183030381529060405280519060200120141561188557809150506118d4565b808061189090612c81565b9150506117fe565b506040517f08c379a00000000000000000000000000000000000000000000000000000000081526004016118cb90612821565b60405180910390fd5b919050565b606060018054905082106118ec57600080fd5b60018080805490506118fe9190612b09565b8154811061190f5761190e612d86565b5b906000526020600020016001838154811061192d5761192c612d86565b5b9060005260206000200190805461194390612c1e565b61194e929190611b7c565b50600180548061196157611960612d57565b5b60019003818190600052602060002001600061197d9190611c6b565b90556001805480602002602001604051908101604052809291908181526020016000905b82821015611a4d5783829060005260206000200180546119c090612c1e565b80601f01602080910402602001604051908101604052809291908181526020018280546119ec90612c1e565b8015611a395780601f10611a0e57610100808354040283529160200191611a39565b820191906000526020600020905b815481529060010190602001808311611a1c57829003601f168201915b5050505050815260200190600101906119a1565b505050509050919050565b60008060008390506000808273ffffffffffffffffffffffffffffffffffffffff1663feaf968c6040518163ffffffff1660e01b815260040160a06040518083038186803b158015611aa957600080fd5b505afa158015611abd573d6000803e3d6000fd5b505050506040513d601f19601f82011682018060405250810190611ae191906120a3565b50935050925050818194509450505050915091565b828054611b0290612c1e565b90600052602060002090601f016020900481019282611b245760008555611b6b565b82601f10611b3d57805160ff1916838001178555611b6b565b82800160010185558215611b6b579182015b82811115611b6a578251825591602001919060010190611b4f565b5b509050611b789190611cab565b5090565b828054611b8890612c1e565b90600052602060002090601f016020900481019282611baa5760008555611bf8565b82601f10611bbb5780548555611bf8565b82800160010185558215611bf857600052602060002091601f016020900482015b82811115611bf7578254825591600101919060010190611bdc565b5b509050611c059190611cab565b5090565b6040518061012001604052806000815260200160608152602001606081526020016000815260200160008152602001600081526020016000815260200160008152602001600073ffffffffffffffffffffffffffffffffffffffff1681525090565b508054611c7790612c1e565b6000825580601f10611c895750611ca8565b601f016020900490600052602060002090810190611ca79190611cab565b5b50565b5b80821115611cc4576000816000905550600101611cac565b5090565b6000611cdb611cd6846129bf565b61299a565b905082815260208101848484011115611cf757611cf6612de9565b5b611d02848285612bdc565b509392505050565b600081359050611d1981612eea565b92915050565b600081519050611d2e81612f01565b92915050565b600081359050611d4381612f18565b92915050565b600081519050611d5881612f28565b92915050565b600082601f830112611d7357611d72612de4565b5b8135611d83848260208601611cc8565b91505092915050565b600081359050611d9b81612f3f565b92915050565b600081519050611db081612f3f565b92915050565b600081519050611dc581612f56565b92915050565b600060208284031215611de157611de0612df3565b5b6000611def84828501611d0a565b91505092915050565b600060208284031215611e0e57611e0d612df3565b5b6000611e1c84828501611d1f565b91505092915050565b600060208284031215611e3b57611e3a612df3565b5b6000611e4984828501611d34565b91505092915050565b600060208284031215611e6857611e67612df3565b5b600082013567ffffffffffffffff811115611e8657611e85612dee565b5b611e9284828501611d5e565b91505092915050565b600080600080600080600060e0888a031215611eba57611eb9612df3565b5b600088013567ffffffffffffffff811115611ed857611ed7612dee565b5b611ee48a828b01611d5e565b9750506020611ef58a828b01611d8c565b9650506040611f068a828b01611d8c565b9550506060611f178a828b01611d8c565b9450506080611f288a828b01611d8c565b93505060a0611f398a828b01611d0a565b92505060c0611f4a8a828b01611d8c565b91505092959891949750929550565b600060208284031215611f6f57611f6e612df3565b5b6000611f7d84828501611d8c565b91505092915050565b600080600080600080600060e0888a031215611fa557611fa4612df3565b5b6000611fb38a828b01611d8c565b9750506020611fc48a828b01611d8c565b9650506040611fd58a828b01611d8c565b9550506060611fe68a828b01611d8c565b9450506080611ff78a828b01611d0a565b93505060a06120088a828b01611d8c565b92505060c06120198a828b01611d8c565b91505092959891949750929550565b600080600080600060a0868803121561204457612043612df3565b5b600061205288828901611d8c565b955050602061206388828901611d8c565b945050604061207488828901611d8c565b935050606061208588828901611d8c565b925050608061209688828901611d8c565b9150509295509295909350565b600080600080600060a086880312156120bf576120be612df3565b5b60006120cd88828901611db6565b95505060206120de88828901611d49565b94505060406120ef88828901611da1565b935050606061210088828901611da1565b925050608061211188828901611db6565b9150509295509295909350565b600061212a838361227b565b905092915050565b600061213e838361244c565b905092915050565b61214f81612b3d565b82525050565b61215e81612b3d565b82525050565b600061216f82612a25565b6121798185612a60565b93508360208202850161218b856129f0565b8060005b858110156121c757848403895281516121a8858261211e565b94506121b383612a46565b925060208a0199505060018101905061218f565b50829750879550505050505092915050565b60006121e482612a30565b6121ee8185612a71565b93508360208202850161220085612a00565b8060005b8581101561223c578484038952815161221d8582612132565b945061222883612a53565b925060208a01995050600181019050612204565b50829750879550505050505092915050565b61225781612bb8565b82525050565b61226681612b6e565b82525050565b61227581612bca565b82525050565b600061228682612a3b565b6122908185612a82565b93506122a0818560208601612beb565b6122a981612df8565b840191505092915050565b60006122bf82612a3b565b6122c98185612a93565b93506122d9818560208601612beb565b6122e281612df8565b840191505092915050565b60006122f882612a3b565b6123028185612aa4565b9350612312818560208601612beb565b80840191505092915050565b6000815461232b81612c1e565b6123358186612aa4565b94506001821660008114612350576001811461236157612394565b60ff19831686528186019350612394565b61236a85612a10565b60005b8381101561238c5781548189015260018201915060208101905061236d565b838801955050505b50505092915050565b60006123aa601583612a93565b91506123b582612e09565b602082019050919050565b60006123cd600983612a93565b91506123d882612e32565b602082019050919050565b60006123f0601c83612a93565b91506123fb82612e5b565b602082019050919050565b6000612413601e83612a93565b915061241e82612e84565b602082019050919050565b6000612436601e83612a93565b915061244182612ead565b602082019050919050565b6000610120830160008301516124656000860182612518565b506020830151848203602086015261247d828261227b565b91505060408301518482036040860152612497828261227b565b91505060608301516124ac6060860182612518565b5060808301516124bf6080860182612518565b5060a08301516124d260a0860182612518565b5060c08301516124e560c0860182612518565b5060e08301516124f860e0860182612518565b5061010083015161250d610100860182612146565b508091505092915050565b61252181612b98565b82525050565b61253081612b98565b82525050565b600061254282846122ed565b915081905092915050565b6000612559828461231e565b915081905092915050565b60006060820190506125796000830186612155565b6125866020830185612155565b6125936040830184612527565b949350505050565b60006040820190506125b06000830185612155565b6125bd6020830184612527565b9392505050565b600060208201905081810360008301526125de8184612164565b905092915050565b6000602082019050818103600083015261260081846121d9565b905092915050565b600060208201905061261d600083018461224e565b92915050565b6000602082019050818103600083015261263d81846122b4565b905092915050565b6000608082019050818103600083015261265f81876122b4565b905061266e602083018661225d565b61267b604083018561225d565b6126886060830184612527565b95945050505050565b600060808201905081810360008301526126ab81876122b4565b90506126ba602083018661225d565b6126c7604083018561226c565b6126d46060830184612527565b95945050505050565b600060408201905081810360008301526126f781846122b4565b9050818103602083015261270a816123e3565b905092915050565b600060e082019050818103600083015261272c81896122b4565b905061273b6020830188612527565b6127486040830187612527565b6127556060830186612527565b6127626080830185612527565b61276f60a0830184612155565b81810360c083015261278081612429565b9050979650505050505050565b60006101208201905081810360008301526127a8818c6122b4565b90506127b7602083018b612527565b6127c4604083018a612527565b6127d16060830189612527565b6127de6080830188612527565b6127eb60a083018761225d565b6127f860c0830186612527565b61280560e0830185612527565b612813610100830184612155565b9a9950505050505050505050565b6000602082019050818103600083015261283a816123c0565b9050919050565b6000602082019050818103600083015261285a81612406565b9050919050565b60006020820190506128766000830184612527565b92915050565b600061012082019050612892600083018c612527565b81810360208301526128a4818b6122b4565b905081810360408301526128b8818a6122b4565b90506128c76060830189612527565b6128d46080830188612527565b6128e160a0830187612527565b6128ee60c0830186612527565b6128fb60e0830185612527565b612909610100830184612155565b9a9950505050505050505050565b60006101008201905061292d600083018a612527565b61293a6020830189612527565b6129476040830188612527565b6129546060830187612527565b6129616080830186612155565b61296e60a0830185612527565b61297b60c0830184612527565b81810360e083015261298c8161239d565b905098975050505050505050565b60006129a46129b5565b90506129b08282612c50565b919050565b6000604051905090565b600067ffffffffffffffff8211156129da576129d9612db5565b5b6129e382612df8565b9050602081019050919050565b6000819050602082019050919050565b6000819050602082019050919050565b60008190508160005260206000209050919050565b600081519050919050565b600081519050919050565b600081519050919050565b6000602082019050919050565b6000602082019050919050565b600082825260208201905092915050565b600082825260208201905092915050565b600082825260208201905092915050565b600082825260208201905092915050565b600081905092915050565b6000612aba82612b98565b9150612ac583612b98565b9250817fffffffffffffffffffffffffffffffffffffffffffffffffffffffffffffffff0483118215151615612afe57612afd612cca565b5b828202905092915050565b6000612b1482612b98565b9150612b1f83612b98565b925082821015612b3257612b31612cca565b5b828203905092915050565b6000612b4882612b78565b9050919050565b60008115159050919050565b6000819050612b6982612ed6565b919050565b6000819050919050565b600073ffffffffffffffffffffffffffffffffffffffff82169050919050565b6000819050919050565b600069ffffffffffffffffffff82169050919050565b6000612bc382612b5b565b9050919050565b6000612bd582612b6e565b9050919050565b82818337600083830152505050565b60005b83811015612c09578082015181840152602081019050612bee565b83811115612c18576000848401525b50505050565b60006002820490506001821680612c3657607f821691505b60208210811415612c4a57612c49612d28565b5b50919050565b612c5982612df8565b810181811067ffffffffffffffff82111715612c7857612c77612db5565b5b80604052505050565b6000612c8c82612b98565b91507fffffffffffffffffffffffffffffffffffffffffffffffffffffffffffffffff821415612cbf57612cbe612cca565b5b600182019050919050565b7f4e487b7100000000000000000000000000000000000000000000000000000000600052601160045260246000fd5b7f4e487b7100000000000000000000000000000000000000000000000000000000600052602160045260246000fd5b7f4e487b7100000000000000000000000000000000000000000000000000000000600052602260045260246000fd5b7f4e487b7100000000000000000000000000000000000000000000000000000000600052603160045260246000fd5b7f4e487b7100000000000000000000000000000000000000000000000000000000600052603260045260246000fd5b7f4e487b7100000000000000000000000000000000000000000000000000000000600052604160045260246000fd5b600080fd5b600080fd5b600080fd5b600080fd5b6000601f19601f8301169050919050565b7f646c636c696e6b3a6372656174652d646c633a76300000000000000000000000600082015250565b7f4e6f7420466f756e640000000000000000000000000000000000000000000000600082015250565b7f646c636c696e6b3a7365742d7374617475732d66756e6465643a763000000000600082015250565b7f56616c69646174696f6e206661696c656420666f7220636c6f7365446c630000600082015250565b7f646c636c696e6b3a6372656174652d646c632d696e7465726e616c3a76300000600082015250565b60078110612ee757612ee6612cf9565b5b50565b612ef381612b3d565b8114612efe57600080fd5b50565b612f0a81612b4f565b8114612f1557600080fd5b50565b60078110612f2557600080fd5b50565b612f3181612b6e565b8114612f3c57600080fd5b50565b612f4881612b98565b8114612f5357600080fd5b50565b612f5f81612ba2565b8114612f6a57600080fd5b5056fea264697066735822122019ae634f4b845f23da0a6778f09f1ae4ab9ac2296077d39b5e0372d4c69b18f064736f6c63430008070033",
			"opcodes": "PUSH1 0x80 PUSH1 0x40 MSTORE PUSH20 0x88B21D13E5D8E40109EBAA00204C9868441710FD PUSH1 0x0 DUP1 PUSH2 0x100 EXP DUP2 SLOAD DUP2 PUSH20 0xFFFFFFFFFFFFFFFFFFFFFFFFFFFFFFFFFFFFFFFF MUL NOT AND SWAP1 DUP4 PUSH20 0xFFFFFFFFFFFFFFFFFFFFFFFFFFFFFFFFFFFFFFFF AND MUL OR SWAP1 SSTORE POP PUSH1 0x0 PUSH1 0x4 SSTORE CALLVALUE DUP1 ISZERO PUSH3 0x6A JUMPI PUSH1 0x0 DUP1 REVERT JUMPDEST POP PUSH1 0x40 MLOAD DUP1 PUSH1 0x40 ADD PUSH1 0x40 MSTORE DUP1 PUSH1 0x9 DUP2 MSTORE PUSH1 0x20 ADD PUSH32 0x6E6F742D72656164790000000000000000000000000000000000000000000000 DUP2 MSTORE POP PUSH1 0x7 PUSH1 0x0 DUP1 PUSH1 0x6 DUP2 GT ISZERO PUSH3 0xBB JUMPI PUSH3 0xBA PUSH3 0x51B JUMP JUMPDEST JUMPDEST PUSH1 0x6 DUP2 GT ISZERO PUSH3 0xD0 JUMPI PUSH3 0xCF PUSH3 0x51B JUMP JUMPDEST JUMPDEST DUP2 MSTORE PUSH1 0x20 ADD SWAP1 DUP2 MSTORE PUSH1 0x20 ADD PUSH1 0x0 KECCAK256 SWAP1 DUP1 MLOAD SWAP1 PUSH1 0x20 ADD SWAP1 PUSH3 0xF3 SWAP3 SWAP2 SWAP1 PUSH3 0x435 JUMP JUMPDEST POP PUSH1 0x40 MLOAD DUP1 PUSH1 0x40 ADD PUSH1 0x40 MSTORE DUP1 PUSH1 0x5 DUP2 MSTORE PUSH1 0x20 ADD PUSH32 0x7265616479000000000000000000000000000000000000000000000000000000 DUP2 MSTORE POP PUSH1 0x7 PUSH1 0x0 PUSH1 0x1 PUSH1 0x6 DUP2 GT ISZERO PUSH3 0x145 JUMPI PUSH3 0x144 PUSH3 0x51B JUMP JUMPDEST JUMPDEST PUSH1 0x6 DUP2 GT ISZERO PUSH3 0x15A JUMPI PUSH3 0x159 PUSH3 0x51B JUMP JUMPDEST JUMPDEST DUP2 MSTORE PUSH1 0x20 ADD SWAP1 DUP2 MSTORE PUSH1 0x20 ADD PUSH1 0x0 KECCAK256 SWAP1 DUP1 MLOAD SWAP1 PUSH1 0x20 ADD SWAP1 PUSH3 0x17D SWAP3 SWAP2 SWAP1 PUSH3 0x435 JUMP JUMPDEST POP PUSH1 0x40 MLOAD DUP1 PUSH1 0x40 ADD PUSH1 0x40 MSTORE DUP1 PUSH1 0x6 DUP2 MSTORE PUSH1 0x20 ADD PUSH32 0x66756E6465640000000000000000000000000000000000000000000000000000 DUP2 MSTORE POP PUSH1 0x7 PUSH1 0x0 PUSH1 0x2 PUSH1 0x6 DUP2 GT ISZERO PUSH3 0x1CF JUMPI PUSH3 0x1CE PUSH3 0x51B JUMP JUMPDEST JUMPDEST PUSH1 0x6 DUP2 GT ISZERO PUSH3 0x1E4 JUMPI PUSH3 0x1E3 PUSH3 0x51B JUMP JUMPDEST JUMPDEST DUP2 MSTORE PUSH1 0x20 ADD SWAP1 DUP2 MSTORE PUSH1 0x20 ADD PUSH1 0x0 KECCAK256 SWAP1 DUP1 MLOAD SWAP1 PUSH1 0x20 ADD SWAP1 PUSH3 0x207 SWAP3 SWAP2 SWAP1 PUSH3 0x435 JUMP JUMPDEST POP PUSH1 0x40 MLOAD DUP1 PUSH1 0x40 ADD PUSH1 0x40 MSTORE DUP1 PUSH1 0xA DUP2 MSTORE PUSH1 0x20 ADD PUSH32 0x7072652D72657061696400000000000000000000000000000000000000000000 DUP2 MSTORE POP PUSH1 0x7 PUSH1 0x0 PUSH1 0x3 PUSH1 0x6 DUP2 GT ISZERO PUSH3 0x259 JUMPI PUSH3 0x258 PUSH3 0x51B JUMP JUMPDEST JUMPDEST PUSH1 0x6 DUP2 GT ISZERO PUSH3 0x26E JUMPI PUSH3 0x26D PUSH3 0x51B JUMP JUMPDEST JUMPDEST DUP2 MSTORE PUSH1 0x20 ADD SWAP1 DUP2 MSTORE PUSH1 0x20 ADD PUSH1 0x0 KECCAK256 SWAP1 DUP1 MLOAD SWAP1 PUSH1 0x20 ADD SWAP1 PUSH3 0x291 SWAP3 SWAP2 SWAP1 PUSH3 0x435 JUMP JUMPDEST POP PUSH1 0x40 MLOAD DUP1 PUSH1 0x40 ADD PUSH1 0x40 MSTORE DUP1 PUSH1 0x6 DUP2 MSTORE PUSH1 0x20 ADD PUSH32 0x7265706169640000000000000000000000000000000000000000000000000000 DUP2 MSTORE POP PUSH1 0x7 PUSH1 0x0 PUSH1 0x4 PUSH1 0x6 DUP2 GT ISZERO PUSH3 0x2E3 JUMPI PUSH3 0x2E2 PUSH3 0x51B JUMP JUMPDEST JUMPDEST PUSH1 0x6 DUP2 GT ISZERO PUSH3 0x2F8 JUMPI PUSH3 0x2F7 PUSH3 0x51B JUMP JUMPDEST JUMPDEST DUP2 MSTORE PUSH1 0x20 ADD SWAP1 DUP2 MSTORE PUSH1 0x20 ADD PUSH1 0x0 KECCAK256 SWAP1 DUP1 MLOAD SWAP1 PUSH1 0x20 ADD SWAP1 PUSH3 0x31B SWAP3 SWAP2 SWAP1 PUSH3 0x435 JUMP JUMPDEST POP PUSH1 0x40 MLOAD DUP1 PUSH1 0x40 ADD PUSH1 0x40 MSTORE DUP1 PUSH1 0xE DUP2 MSTORE PUSH1 0x20 ADD PUSH32 0x7072652D6C697175696461746564000000000000000000000000000000000000 DUP2 MSTORE POP PUSH1 0x7 PUSH1 0x0 PUSH1 0x5 PUSH1 0x6 DUP2 GT ISZERO PUSH3 0x36D JUMPI PUSH3 0x36C PUSH3 0x51B JUMP JUMPDEST JUMPDEST PUSH1 0x6 DUP2 GT ISZERO PUSH3 0x382 JUMPI PUSH3 0x381 PUSH3 0x51B JUMP JUMPDEST JUMPDEST DUP2 MSTORE PUSH1 0x20 ADD SWAP1 DUP2 MSTORE PUSH1 0x20 ADD PUSH1 0x0 KECCAK256 SWAP1 DUP1 MLOAD SWAP1 PUSH1 0x20 ADD SWAP1 PUSH3 0x3A5 SWAP3 SWAP2 SWAP1 PUSH3 0x435 JUMP JUMPDEST POP PUSH1 0x40 MLOAD DUP1 PUSH1 0x40 ADD PUSH1 0x40 MSTORE DUP1 PUSH1 0xA DUP2 MSTORE PUSH1 0x20 ADD PUSH32 0x6C69717569646174656400000000000000000000000000000000000000000000 DUP2 MSTORE POP PUSH1 0x7 PUSH1 0x0 PUSH1 0x6 DUP1 DUP2 GT ISZERO PUSH3 0x3F6 JUMPI PUSH3 0x3F5 PUSH3 0x51B JUMP JUMPDEST JUMPDEST PUSH1 0x6 DUP2 GT ISZERO PUSH3 0x40B JUMPI PUSH3 0x40A PUSH3 0x51B JUMP JUMPDEST JUMPDEST DUP2 MSTORE PUSH1 0x20 ADD SWAP1 DUP2 MSTORE PUSH1 0x20 ADD PUSH1 0x0 KECCAK256 SWAP1 DUP1 MLOAD SWAP1 PUSH1 0x20 ADD SWAP1 PUSH3 0x42E SWAP3 SWAP2 SWAP1 PUSH3 0x435 JUMP JUMPDEST POP PUSH3 0x579 JUMP JUMPDEST DUP3 DUP1 SLOAD PUSH3 0x443 SWAP1 PUSH3 0x4E5 JUMP JUMPDEST SWAP1 PUSH1 0x0 MSTORE PUSH1 0x20 PUSH1 0x0 KECCAK256 SWAP1 PUSH1 0x1F ADD PUSH1 0x20 SWAP1 DIV DUP2 ADD SWAP3 DUP3 PUSH3 0x467 JUMPI PUSH1 0x0 DUP6 SSTORE PUSH3 0x4B3 JUMP JUMPDEST DUP3 PUSH1 0x1F LT PUSH3 0x482 JUMPI DUP1 MLOAD PUSH1 0xFF NOT AND DUP4 DUP1 ADD OR DUP6 SSTORE PUSH3 0x4B3 JUMP JUMPDEST DUP3 DUP1 ADD PUSH1 0x1 ADD DUP6 SSTORE DUP3 ISZERO PUSH3 0x4B3 JUMPI SWAP2 DUP3 ADD JUMPDEST DUP3 DUP2 GT ISZERO PUSH3 0x4B2 JUMPI DUP3 MLOAD DUP3 SSTORE SWAP2 PUSH1 0x20 ADD SWAP2 SWAP1 PUSH1 0x1 ADD SWAP1 PUSH3 0x495 JUMP JUMPDEST JUMPDEST POP SWAP1 POP PUSH3 0x4C2 SWAP2 SWAP1 PUSH3 0x4C6 JUMP JUMPDEST POP SWAP1 JUMP JUMPDEST JUMPDEST DUP1 DUP3 GT ISZERO PUSH3 0x4E1 JUMPI PUSH1 0x0 DUP2 PUSH1 0x0 SWAP1 SSTORE POP PUSH1 0x1 ADD PUSH3 0x4C7 JUMP JUMPDEST POP SWAP1 JUMP JUMPDEST PUSH1 0x0 PUSH1 0x2 DUP3 DIV SWAP1 POP PUSH1 0x1 DUP3 AND DUP1 PUSH3 0x4FE JUMPI PUSH1 0x7F DUP3 AND SWAP2 POP JUMPDEST PUSH1 0x20 DUP3 LT DUP2 EQ ISZERO PUSH3 0x515 JUMPI PUSH3 0x514 PUSH3 0x54A JUMP JUMPDEST JUMPDEST POP SWAP2 SWAP1 POP JUMP JUMPDEST PUSH32 0x4E487B7100000000000000000000000000000000000000000000000000000000 PUSH1 0x0 MSTORE PUSH1 0x21 PUSH1 0x4 MSTORE PUSH1 0x24 PUSH1 0x0 REVERT JUMPDEST PUSH32 0x4E487B7100000000000000000000000000000000000000000000000000000000 PUSH1 0x0 MSTORE PUSH1 0x22 PUSH1 0x4 MSTORE PUSH1 0x24 PUSH1 0x0 REVERT JUMPDEST PUSH2 0x2FA3 DUP1 PUSH3 0x589 PUSH1 0x0 CODECOPY PUSH1 0x0 RETURN INVALID PUSH1 0x80 PUSH1 0x40 MSTORE CALLVALUE DUP1 ISZERO PUSH2 0x10 JUMPI PUSH1 0x0 DUP1 REVERT JUMPDEST POP PUSH1 0x4 CALLDATASIZE LT PUSH2 0x10B JUMPI PUSH1 0x0 CALLDATALOAD PUSH1 0xE0 SHR DUP1 PUSH4 0x62E87240 GT PUSH2 0xA2 JUMPI DUP1 PUSH4 0xAB7B1C89 GT PUSH2 0x71 JUMPI DUP1 PUSH4 0xAB7B1C89 EQ PUSH2 0x2E4 JUMPI DUP1 PUSH4 0xCCDD9F5D EQ PUSH2 0x300 JUMPI DUP1 PUSH4 0xD4252CC3 EQ PUSH2 0x31C JUMPI DUP1 PUSH4 0xD463EEB3 EQ PUSH2 0x338 JUMPI DUP1 PUSH4 0xE1EC3C68 EQ PUSH2 0x356 JUMPI PUSH2 0x10B JUMP JUMPDEST DUP1 PUSH4 0x62E87240 EQ PUSH2 0x25E JUMPI DUP1 PUSH4 0x89A12DB4 EQ PUSH2 0x28E JUMPI DUP1 PUSH4 0x8FF37151 EQ PUSH2 0x2AA JUMPI DUP1 PUSH4 0x9E098026 EQ PUSH2 0x2C8 JUMPI PUSH2 0x10B JUMP JUMPDEST DUP1 PUSH4 0x3902FE90 GT PUSH2 0xDE JUMPI DUP1 PUSH4 0x3902FE90 EQ PUSH2 0x1B2 JUMPI DUP1 PUSH4 0x41F5D7CD EQ PUSH2 0x1CE JUMPI DUP1 PUSH4 0x47F8BF1C EQ PUSH2 0x1FE JUMPI DUP1 PUSH4 0x572343F1 EQ PUSH2 0x22E JUMPI PUSH2 0x10B JUMP JUMPDEST DUP1 PUSH4 0xEF2FEFF EQ PUSH2 0x110 JUMPI DUP1 PUSH4 0x200D2ED2 EQ PUSH2 0x148 JUMPI DUP1 PUSH4 0x2E730910 EQ PUSH2 0x166 JUMPI DUP1 PUSH4 0x35DD76CE EQ PUSH2 0x196 JUMPI JUMPDEST PUSH1 0x0 DUP1 REVERT JUMPDEST PUSH2 0x12A PUSH1 0x4 DUP1 CALLDATASIZE SUB DUP2 ADD SWAP1 PUSH2 0x125 SWAP2 SWAP1 PUSH2 0x1E52 JUMP JUMPDEST PUSH2 0x38E JUMP JUMPDEST PUSH1 0x40 MLOAD PUSH2 0x13F SWAP10 SWAP9 SWAP8 SWAP7 SWAP6 SWAP5 SWAP4 SWAP3 SWAP2 SWAP1 PUSH2 0x278D JUMP JUMPDEST PUSH1 0x40 MLOAD DUP1 SWAP2 SUB SWAP1 RETURN JUMPDEST PUSH2 0x150 PUSH2 0x49A JUMP JUMPDEST PUSH1 0x40 MLOAD PUSH2 0x15D SWAP2 SWAP1 PUSH2 0x2608 JUMP JUMPDEST PUSH1 0x40 MLOAD DUP1 SWAP2 SUB SWAP1 RETURN JUMPDEST PUSH2 0x180 PUSH1 0x4 DUP1 CALLDATASIZE SUB DUP2 ADD SWAP1 PUSH2 0x17B SWAP2 SWAP1 PUSH2 0x1F59 JUMP JUMPDEST PUSH2 0x4AD JUMP JUMPDEST PUSH1 0x40 MLOAD PUSH2 0x18D SWAP2 SWAP1 PUSH2 0x2623 JUMP JUMPDEST PUSH1 0x40 MLOAD DUP1 SWAP2 SUB SWAP1 RETURN JUMPDEST PUSH2 0x1B0 PUSH1 0x4 DUP1 CALLDATASIZE SUB DUP2 ADD SWAP1 PUSH2 0x1AB SWAP2 SWAP1 PUSH2 0x1E9B JUMP JUMPDEST PUSH2 0x559 JUMP JUMPDEST STOP JUMPDEST PUSH2 0x1CC PUSH1 0x4 DUP1 CALLDATASIZE SUB DUP2 ADD SWAP1 PUSH2 0x1C7 SWAP2 SWAP1 PUSH2 0x1F86 JUMP JUMPDEST PUSH2 0x794 JUMP JUMPDEST STOP JUMPDEST PUSH2 0x1E8 PUSH1 0x4 DUP1 CALLDATASIZE SUB DUP2 ADD SWAP1 PUSH2 0x1E3 SWAP2 SWAP1 PUSH2 0x1DCB JUMP JUMPDEST PUSH2 0x7E0 JUMP JUMPDEST PUSH1 0x40 MLOAD PUSH2 0x1F5 SWAP2 SWAP1 PUSH2 0x2861 JUMP JUMPDEST PUSH1 0x40 MLOAD DUP1 SWAP2 SUB SWAP1 RETURN JUMPDEST PUSH2 0x218 PUSH1 0x4 DUP1 CALLDATASIZE SUB DUP2 ADD SWAP1 PUSH2 0x213 SWAP2 SWAP1 PUSH2 0x2028 JUMP JUMPDEST PUSH2 0x7F8 JUMP JUMPDEST PUSH1 0x40 MLOAD PUSH2 0x225 SWAP2 SWAP1 PUSH2 0x2861 JUMP JUMPDEST PUSH1 0x40 MLOAD DUP1 SWAP2 SUB SWAP1 RETURN JUMPDEST PUSH2 0x248 PUSH1 0x4 DUP1 CALLDATASIZE SUB DUP2 ADD SWAP1 PUSH2 0x243 SWAP2 SWAP1 PUSH2 0x1DCB JUMP JUMPDEST PUSH2 0xA8F JUMP JUMPDEST PUSH1 0x40 MLOAD PUSH2 0x255 SWAP2 SWAP1 PUSH2 0x25E6 JUMP JUMPDEST PUSH1 0x40 MLOAD DUP1 SWAP2 SUB SWAP1 RETURN JUMPDEST PUSH2 0x278 PUSH1 0x4 DUP1 CALLDATASIZE SUB DUP2 ADD SWAP1 PUSH2 0x273 SWAP2 SWAP1 PUSH2 0x1E25 JUMP JUMPDEST PUSH2 0xDBE JUMP JUMPDEST PUSH1 0x40 MLOAD PUSH2 0x285 SWAP2 SWAP1 PUSH2 0x2623 JUMP JUMPDEST PUSH1 0x40 MLOAD DUP1 SWAP2 SUB SWAP1 RETURN JUMPDEST PUSH2 0x2A8 PUSH1 0x4 DUP1 CALLDATASIZE SUB DUP2 ADD SWAP1 PUSH2 0x2A3 SWAP2 SWAP1 PUSH2 0x1E52 JUMP JUMPDEST PUSH2 0xE5E JUMP JUMPDEST STOP JUMPDEST PUSH2 0x2B2 PUSH2 0xFF5 JUMP JUMPDEST PUSH1 0x40 MLOAD PUSH2 0x2BF SWAP2 SWAP1 PUSH2 0x25C4 JUMP JUMPDEST PUSH1 0x40 MLOAD DUP1 SWAP2 SUB SWAP1 RETURN JUMPDEST PUSH2 0x2E2 PUSH1 0x4 DUP1 CALLDATASIZE SUB DUP2 ADD SWAP1 PUSH2 0x2DD SWAP2 SWAP1 PUSH2 0x1E52 JUMP JUMPDEST PUSH2 0x10CE JUMP JUMPDEST STOP JUMPDEST PUSH2 0x2FE PUSH1 0x4 DUP1 CALLDATASIZE SUB DUP2 ADD SWAP1 PUSH2 0x2F9 SWAP2 SWAP1 PUSH2 0x1F59 JUMP JUMPDEST PUSH2 0x119E JUMP JUMPDEST STOP JUMPDEST PUSH2 0x31A PUSH1 0x4 DUP1 CALLDATASIZE SUB DUP2 ADD SWAP1 PUSH2 0x315 SWAP2 SWAP1 PUSH2 0x1F59 JUMP JUMPDEST PUSH2 0x138D JUMP JUMPDEST STOP JUMPDEST PUSH2 0x336 PUSH1 0x4 DUP1 CALLDATASIZE SUB DUP2 ADD SWAP1 PUSH2 0x331 SWAP2 SWAP1 PUSH2 0x1E52 JUMP JUMPDEST PUSH2 0x149C JUMP JUMPDEST STOP JUMPDEST PUSH2 0x340 PUSH2 0x159A JUMP JUMPDEST PUSH1 0x40 MLOAD PUSH2 0x34D SWAP2 SWAP1 PUSH2 0x2861 JUMP JUMPDEST PUSH1 0x40 MLOAD DUP1 SWAP2 SUB SWAP1 RETURN JUMPDEST PUSH2 0x370 PUSH1 0x4 DUP1 CALLDATASIZE SUB DUP2 ADD SWAP1 PUSH2 0x36B SWAP2 SWAP1 PUSH2 0x1F59 JUMP JUMPDEST PUSH2 0x15A0 JUMP JUMPDEST PUSH1 0x40 MLOAD PUSH2 0x385 SWAP10 SWAP9 SWAP8 SWAP7 SWAP6 SWAP5 SWAP4 SWAP3 SWAP2 SWAP1 PUSH2 0x287C JUMP JUMPDEST PUSH1 0x40 MLOAD DUP1 SWAP2 SUB SWAP1 RETURN JUMPDEST PUSH1 0x2 DUP2 DUP1 MLOAD PUSH1 0x20 DUP2 ADD DUP3 ADD DUP1 MLOAD DUP5 DUP3 MSTORE PUSH1 0x20 DUP4 ADD PUSH1 0x20 DUP6 ADD KECCAK256 DUP2 DUP4 MSTORE DUP1 SWAP6 POP POP POP POP POP POP PUSH1 0x0 SWAP2 POP SWAP1 POP DUP1 PUSH1 0x0 ADD DUP1 SLOAD PUSH2 0x3C7 SWAP1 PUSH2 0x2C1E JUMP JUMPDEST DUP1 PUSH1 0x1F ADD PUSH1 0x20 DUP1 SWAP2 DIV MUL PUSH1 0x20 ADD PUSH1 0x40 MLOAD SWAP1 DUP2 ADD PUSH1 0x40 MSTORE DUP1 SWAP3 SWAP2 SWAP1 DUP2 DUP2 MSTORE PUSH1 0x20 ADD DUP3 DUP1 SLOAD PUSH2 0x3F3 SWAP1 PUSH2 0x2C1E JUMP JUMPDEST DUP1 ISZERO PUSH2 0x440 JUMPI DUP1 PUSH1 0x1F LT PUSH2 0x415 JUMPI PUSH2 0x100 DUP1 DUP4 SLOAD DIV MUL DUP4 MSTORE SWAP2 PUSH1 0x20 ADD SWAP2 PUSH2 0x440 JUMP JUMPDEST DUP3 ADD SWAP2 SWAP1 PUSH1 0x0 MSTORE PUSH1 0x20 PUSH1 0x0 KECCAK256 SWAP1 JUMPDEST DUP2 SLOAD DUP2 MSTORE SWAP1 PUSH1 0x1 ADD SWAP1 PUSH1 0x20 ADD DUP1 DUP4 GT PUSH2 0x423 JUMPI DUP3 SWAP1 SUB PUSH1 0x1F AND DUP3 ADD SWAP2 JUMPDEST POP POP POP POP POP SWAP1 DUP1 PUSH1 0x1 ADD SLOAD SWAP1 DUP1 PUSH1 0x2 ADD SLOAD SWAP1 DUP1 PUSH1 0x3 ADD SLOAD SWAP1 DUP1 PUSH1 0x4 ADD SLOAD SWAP1 DUP1 PUSH1 0x5 ADD SLOAD SWAP1 DUP1 PUSH1 0x6 ADD SLOAD SWAP1 DUP1 PUSH1 0x7 ADD SLOAD SWAP1 DUP1 PUSH1 0x8 ADD PUSH1 0x0 SWAP1 SLOAD SWAP1 PUSH2 0x100 EXP SWAP1 DIV PUSH20 0xFFFFFFFFFFFFFFFFFFFFFFFFFFFFFFFFFFFFFFFF AND SWAP1 POP DUP10 JUMP JUMPDEST PUSH1 0x6 PUSH1 0x0 SWAP1 SLOAD SWAP1 PUSH2 0x100 EXP SWAP1 DIV PUSH1 0xFF AND DUP2 JUMP JUMPDEST PUSH1 0x1 DUP2 DUP2 SLOAD DUP2 LT PUSH2 0x4BD JUMPI PUSH1 0x0 DUP1 REVERT JUMPDEST SWAP1 PUSH1 0x0 MSTORE PUSH1 0x20 PUSH1 0x0 KECCAK256 ADD PUSH1 0x0 SWAP2 POP SWAP1 POP DUP1 SLOAD PUSH2 0x4D8 SWAP1 PUSH2 0x2C1E JUMP JUMPDEST DUP1 PUSH1 0x1F ADD PUSH1 0x20 DUP1 SWAP2 DIV MUL PUSH1 0x20 ADD PUSH1 0x40 MLOAD SWAP1 DUP2 ADD PUSH1 0x40 MSTORE DUP1 SWAP3 SWAP2 SWAP1 DUP2 DUP2 MSTORE PUSH1 0x20 ADD DUP3 DUP1 SLOAD PUSH2 0x504 SWAP1 PUSH2 0x2C1E JUMP JUMPDEST DUP1 ISZERO PUSH2 0x551 JUMPI DUP1 PUSH1 0x1F LT PUSH2 0x526 JUMPI PUSH2 0x100 DUP1 DUP4 SLOAD DIV MUL DUP4 MSTORE SWAP2 PUSH1 0x20 ADD SWAP2 PUSH2 0x551 JUMP JUMPDEST DUP3 ADD SWAP2 SWAP1 PUSH1 0x0 MSTORE PUSH1 0x20 PUSH1 0x0 KECCAK256 SWAP1 JUMPDEST DUP2 SLOAD DUP2 MSTORE SWAP1 PUSH1 0x1 ADD SWAP1 PUSH1 0x20 ADD DUP1 DUP4 GT PUSH2 0x534 JUMPI DUP3 SWAP1 SUB PUSH1 0x1F AND DUP3 ADD SWAP2 JUMPDEST POP POP POP POP POP DUP2 JUMP JUMPDEST PUSH1 0x40 MLOAD DUP1 PUSH2 0x120 ADD PUSH1 0x40 MSTORE DUP1 DUP9 DUP2 MSTORE PUSH1 0x20 ADD DUP8 DUP2 MSTORE PUSH1 0x20 ADD DUP7 DUP2 MSTORE PUSH1 0x20 ADD DUP6 DUP2 MSTORE PUSH1 0x20 ADD DUP5 DUP2 MSTORE PUSH1 0x20 ADD PUSH1 0x0 DUP2 MSTORE PUSH1 0x20 ADD PUSH1 0x0 DUP2 MSTORE PUSH1 0x20 ADD DUP5 DUP2 MSTORE PUSH1 0x20 ADD DUP4 PUSH20 0xFFFFFFFFFFFFFFFFFFFFFFFFFFFFFFFFFFFFFFFF AND DUP2 MSTORE POP PUSH1 0x2 DUP9 PUSH1 0x40 MLOAD PUSH2 0x5C1 SWAP2 SWAP1 PUSH2 0x2536 JUMP JUMPDEST SWAP1 DUP2 MSTORE PUSH1 0x20 ADD PUSH1 0x40 MLOAD DUP1 SWAP2 SUB SWAP1 KECCAK256 PUSH1 0x0 DUP3 ADD MLOAD DUP2 PUSH1 0x0 ADD SWAP1 DUP1 MLOAD SWAP1 PUSH1 0x20 ADD SWAP1 PUSH2 0x5EB SWAP3 SWAP2 SWAP1 PUSH2 0x1AF6 JUMP JUMPDEST POP PUSH1 0x20 DUP3 ADD MLOAD DUP2 PUSH1 0x1 ADD SSTORE PUSH1 0x40 DUP3 ADD MLOAD DUP2 PUSH1 0x2 ADD SSTORE PUSH1 0x60 DUP3 ADD MLOAD DUP2 PUSH1 0x3 ADD SSTORE PUSH1 0x80 DUP3 ADD MLOAD DUP2 PUSH1 0x4 ADD SSTORE PUSH1 0xA0 DUP3 ADD MLOAD DUP2 PUSH1 0x5 ADD SSTORE PUSH1 0xC0 DUP3 ADD MLOAD DUP2 PUSH1 0x6 ADD SSTORE PUSH1 0xE0 DUP3 ADD MLOAD DUP2 PUSH1 0x7 ADD SSTORE PUSH2 0x100 DUP3 ADD MLOAD DUP2 PUSH1 0x8 ADD PUSH1 0x0 PUSH2 0x100 EXP DUP2 SLOAD DUP2 PUSH20 0xFFFFFFFFFFFFFFFFFFFFFFFFFFFFFFFFFFFFFFFF MUL NOT AND SWAP1 DUP4 PUSH20 0xFFFFFFFFFFFFFFFFFFFFFFFFFFFFFFFFFFFFFFFF AND MUL OR SWAP1 SSTORE POP SWAP1 POP POP PUSH1 0x1 DUP8 SWAP1 DUP1 PUSH1 0x1 DUP2 SLOAD ADD DUP1 DUP3 SSTORE DUP1 SWAP2 POP POP PUSH1 0x1 SWAP1 SUB SWAP1 PUSH1 0x0 MSTORE PUSH1 0x20 PUSH1 0x0 KECCAK256 ADD PUSH1 0x0 SWAP1 SWAP2 SWAP1 SWAP2 SWAP1 SWAP2 POP SWAP1 DUP1 MLOAD SWAP1 PUSH1 0x20 ADD SWAP1 PUSH2 0x6B8 SWAP3 SWAP2 SWAP1 PUSH2 0x1AF6 JUMP JUMPDEST POP DUP7 PUSH1 0x3 PUSH1 0x0 DUP4 DUP2 MSTORE PUSH1 0x20 ADD SWAP1 DUP2 MSTORE PUSH1 0x20 ADD PUSH1 0x0 KECCAK256 PUSH1 0x1 ADD SWAP1 DUP1 MLOAD SWAP1 PUSH1 0x20 ADD SWAP1 PUSH2 0x6E3 SWAP3 SWAP2 SWAP1 PUSH2 0x1AF6 JUMP JUMPDEST POP PUSH1 0x7 PUSH1 0x0 PUSH1 0x1 PUSH1 0x6 DUP2 GT ISZERO PUSH2 0x6FC JUMPI PUSH2 0x6FB PUSH2 0x2CF9 JUMP JUMPDEST JUMPDEST PUSH1 0x6 DUP2 GT ISZERO PUSH2 0x70E JUMPI PUSH2 0x70D PUSH2 0x2CF9 JUMP JUMPDEST JUMPDEST DUP2 MSTORE PUSH1 0x20 ADD SWAP1 DUP2 MSTORE PUSH1 0x20 ADD PUSH1 0x0 KECCAK256 PUSH1 0x3 PUSH1 0x0 DUP4 DUP2 MSTORE PUSH1 0x20 ADD SWAP1 DUP2 MSTORE PUSH1 0x20 ADD PUSH1 0x0 KECCAK256 PUSH1 0x2 ADD SWAP1 DUP1 SLOAD PUSH2 0x73E SWAP1 PUSH2 0x2C1E JUMP JUMPDEST PUSH2 0x749 SWAP3 SWAP2 SWAP1 PUSH2 0x1B7C JUMP JUMPDEST POP PUSH32 0xCD8F439D8F2ACFCF615CA81A06950B502D3931221C697BD53D5D1C06A88D9965 DUP8 DUP8 DUP8 DUP8 DUP8 DUP8 PUSH1 0x40 MLOAD PUSH2 0x783 SWAP7 SWAP6 SWAP5 SWAP4 SWAP3 SWAP2 SWAP1 PUSH2 0x2712 JUMP JUMPDEST PUSH1 0x40 MLOAD DUP1 SWAP2 SUB SWAP1 LOG1 POP POP POP POP POP POP POP JUMP JUMPDEST PUSH32 0x4DF421C7B448AFA81019B53A86A0489CED7B8B4C57F454DBA77ACED8B710FB8D DUP8 DUP8 DUP8 DUP8 DUP8 DUP8 DUP8 PUSH1 0x40 MLOAD PUSH2 0x7CF SWAP8 SWAP7 SWAP6 SWAP5 SWAP4 SWAP3 SWAP2 SWAP1 PUSH2 0x2917 JUMP JUMPDEST PUSH1 0x40 MLOAD DUP1 SWAP2 SUB SWAP1 LOG1 POP POP POP POP POP POP POP JUMP JUMPDEST PUSH1 0x5 PUSH1 0x20 MSTORE DUP1 PUSH1 0x0 MSTORE PUSH1 0x40 PUSH1 0x0 KECCAK256 PUSH1 0x0 SWAP2 POP SWAP1 POP SLOAD DUP2 JUMP JUMPDEST PUSH1 0x0 PUSH1 0x40 MLOAD DUP1 PUSH2 0x120 ADD PUSH1 0x40 MSTORE DUP1 PUSH1 0x4 SLOAD DUP2 MSTORE PUSH1 0x20 ADD PUSH1 0x40 MLOAD DUP1 PUSH1 0x20 ADD PUSH1 0x40 MSTORE DUP1 PUSH1 0x0 DUP2 MSTORE POP DUP2 MSTORE PUSH1 0x20 ADD PUSH1 0x7 PUSH1 0x0 DUP1 PUSH1 0x6 DUP2 GT ISZERO PUSH2 0x83A JUMPI PUSH2 0x839 PUSH2 0x2CF9 JUMP JUMPDEST JUMPDEST PUSH1 0x6 DUP2 GT ISZERO PUSH2 0x84C JUMPI PUSH2 0x84B PUSH2 0x2CF9 JUMP JUMPDEST JUMPDEST DUP2 MSTORE PUSH1 0x20 ADD SWAP1 DUP2 MSTORE PUSH1 0x20 ADD PUSH1 0x0 KECCAK256 DUP1 SLOAD PUSH2 0x865 SWAP1 PUSH2 0x2C1E JUMP JUMPDEST DUP1 PUSH1 0x1F ADD PUSH1 0x20 DUP1 SWAP2 DIV MUL PUSH1 0x20 ADD PUSH1 0x40 MLOAD SWAP1 DUP2 ADD PUSH1 0x40 MSTORE DUP1 SWAP3 SWAP2 SWAP1 DUP2 DUP2 MSTORE PUSH1 0x20 ADD DUP3 DUP1 SLOAD PUSH2 0x891 SWAP1 PUSH2 0x2C1E JUMP JUMPDEST DUP1 ISZERO PUSH2 0x8DE JUMPI DUP1 PUSH1 0x1F LT PUSH2 0x8B3 JUMPI PUSH2 0x100 DUP1 DUP4 SLOAD DIV MUL DUP4 MSTORE SWAP2 PUSH1 0x20 ADD SWAP2 PUSH2 0x8DE JUMP JUMPDEST DUP3 ADD SWAP2 SWAP1 PUSH1 0x0 MSTORE PUSH1 0x20 PUSH1 0x0 KECCAK256 SWAP1 JUMPDEST DUP2 SLOAD DUP2 MSTORE SWAP1 PUSH1 0x1 ADD SWAP1 PUSH1 0x20 ADD DUP1 DUP4 GT PUSH2 0x8C1 JUMPI DUP3 SWAP1 SUB PUSH1 0x1F AND DUP3 ADD SWAP2 JUMPDEST POP POP POP POP POP DUP2 MSTORE PUSH1 0x20 ADD DUP8 DUP2 MSTORE PUSH1 0x20 ADD DUP7 DUP2 MSTORE PUSH1 0x20 ADD DUP6 DUP2 MSTORE PUSH1 0x20 ADD DUP5 DUP2 MSTORE PUSH1 0x20 ADD PUSH1 0x0 DUP2 MSTORE PUSH1 0x20 ADD CALLER PUSH20 0xFFFFFFFFFFFFFFFFFFFFFFFFFFFFFFFFFFFFFFFF AND DUP2 MSTORE POP PUSH1 0x3 PUSH1 0x0 PUSH1 0x4 SLOAD DUP2 MSTORE PUSH1 0x20 ADD SWAP1 DUP2 MSTORE PUSH1 0x20 ADD PUSH1 0x0 KECCAK256 PUSH1 0x0 DUP3 ADD MLOAD DUP2 PUSH1 0x0 ADD SSTORE PUSH1 0x20 DUP3 ADD MLOAD DUP2 PUSH1 0x1 ADD SWAP1 DUP1 MLOAD SWAP1 PUSH1 0x20 ADD SWAP1 PUSH2 0x95C SWAP3 SWAP2 SWAP1 PUSH2 0x1AF6 JUMP JUMPDEST POP PUSH1 0x40 DUP3 ADD MLOAD DUP2 PUSH1 0x2 ADD SWAP1 DUP1 MLOAD SWAP1 PUSH1 0x20 ADD SWAP1 PUSH2 0x979 SWAP3 SWAP2 SWAP1 PUSH2 0x1AF6 JUMP JUMPDEST POP PUSH1 0x60 DUP3 ADD MLOAD DUP2 PUSH1 0x3 ADD SSTORE PUSH1 0x80 DUP3 ADD MLOAD DUP2 PUSH1 0x4 ADD SSTORE PUSH1 0xA0 DUP3 ADD MLOAD DUP2 PUSH1 0x5 ADD SSTORE PUSH1 0xC0 DUP3 ADD MLOAD DUP2 PUSH1 0x6 ADD SSTORE PUSH1 0xE0 DUP3 ADD MLOAD DUP2 PUSH1 0x7 ADD SSTORE PUSH2 0x100 DUP3 ADD MLOAD DUP2 PUSH1 0x8 ADD PUSH1 0x0 PUSH2 0x100 EXP DUP2 SLOAD DUP2 PUSH20 0xFFFFFFFFFFFFFFFFFFFFFFFFFFFFFFFFFFFFFFFF MUL NOT AND SWAP1 DUP4 PUSH20 0xFFFFFFFFFFFFFFFFFFFFFFFFFFFFFFFFFFFFFFFF AND MUL OR SWAP1 SSTORE POP SWAP1 POP POP PUSH2 0xA08 DUP7 DUP7 DUP7 DUP7 CALLER DUP8 PUSH1 0x4 SLOAD PUSH2 0x794 JUMP JUMPDEST PUSH1 0x5 PUSH1 0x0 CALLER PUSH20 0xFFFFFFFFFFFFFFFFFFFFFFFFFFFFFFFFFFFFFFFF AND PUSH20 0xFFFFFFFFFFFFFFFFFFFFFFFFFFFFFFFFFFFFFFFF AND DUP2 MSTORE PUSH1 0x20 ADD SWAP1 DUP2 MSTORE PUSH1 0x20 ADD PUSH1 0x0 KECCAK256 PUSH1 0x0 DUP2 SLOAD DUP1 SWAP3 SWAP2 SWAP1 PUSH2 0xA58 SWAP1 PUSH2 0x2C81 JUMP JUMPDEST SWAP2 SWAP1 POP SSTORE POP PUSH1 0x4 PUSH1 0x0 DUP2 SLOAD DUP1 SWAP3 SWAP2 SWAP1 PUSH2 0xA70 SWAP1 PUSH2 0x2C81 JUMP JUMPDEST SWAP2 SWAP1 POP SSTORE POP PUSH1 0x1 PUSH1 0x4 SLOAD PUSH2 0xA84 SWAP2 SWAP1 PUSH2 0x2B09 JUMP JUMPDEST SWAP1 POP SWAP6 SWAP5 POP POP POP POP POP JUMP JUMPDEST PUSH1 0x60 PUSH1 0x0 PUSH1 0x5 PUSH1 0x0 DUP5 PUSH20 0xFFFFFFFFFFFFFFFFFFFFFFFFFFFFFFFFFFFFFFFF AND PUSH20 0xFFFFFFFFFFFFFFFFFFFFFFFFFFFFFFFFFFFFFFFF AND DUP2 MSTORE PUSH1 0x20 ADD SWAP1 DUP2 MSTORE PUSH1 0x20 ADD PUSH1 0x0 KECCAK256 SLOAD PUSH8 0xFFFFFFFFFFFFFFFF DUP2 GT ISZERO PUSH2 0xAEC JUMPI PUSH2 0xAEB PUSH2 0x2DB5 JUMP JUMPDEST JUMPDEST PUSH1 0x40 MLOAD SWAP1 DUP1 DUP3 MSTORE DUP1 PUSH1 0x20 MUL PUSH1 0x20 ADD DUP3 ADD PUSH1 0x40 MSTORE DUP1 ISZERO PUSH2 0xB25 JUMPI DUP2 PUSH1 0x20 ADD JUMPDEST PUSH2 0xB12 PUSH2 0x1C09 JUMP JUMPDEST DUP2 MSTORE PUSH1 0x20 ADD SWAP1 PUSH1 0x1 SWAP1 SUB SWAP1 DUP2 PUSH2 0xB0A JUMPI SWAP1 POP JUMPDEST POP SWAP1 POP PUSH1 0x0 DUP1 JUMPDEST PUSH1 0x4 SLOAD DUP2 LT ISZERO PUSH2 0xDB3 JUMPI DUP5 PUSH20 0xFFFFFFFFFFFFFFFFFFFFFFFFFFFFFFFFFFFFFFFF AND PUSH1 0x3 PUSH1 0x0 DUP4 DUP2 MSTORE PUSH1 0x20 ADD SWAP1 DUP2 MSTORE PUSH1 0x20 ADD PUSH1 0x0 KECCAK256 PUSH1 0x8 ADD PUSH1 0x0 SWAP1 SLOAD SWAP1 PUSH2 0x100 EXP SWAP1 DIV PUSH20 0xFFFFFFFFFFFFFFFFFFFFFFFFFFFFFFFFFFFFFFFF AND PUSH20 0xFFFFFFFFFFFFFFFFFFFFFFFFFFFFFFFFFFFFFFFF AND EQ ISZERO PUSH2 0xDA0 JUMPI PUSH1 0x3 PUSH1 0x0 DUP3 DUP2 MSTORE PUSH1 0x20 ADD SWAP1 DUP2 MSTORE PUSH1 0x20 ADD PUSH1 0x0 KECCAK256 PUSH1 0x40 MLOAD DUP1 PUSH2 0x120 ADD PUSH1 0x40 MSTORE SWAP1 DUP2 PUSH1 0x0 DUP3 ADD SLOAD DUP2 MSTORE PUSH1 0x20 ADD PUSH1 0x1 DUP3 ADD DUP1 SLOAD PUSH2 0xBD9 SWAP1 PUSH2 0x2C1E JUMP JUMPDEST DUP1 PUSH1 0x1F ADD PUSH1 0x20 DUP1 SWAP2 DIV MUL PUSH1 0x20 ADD PUSH1 0x40 MLOAD SWAP1 DUP2 ADD PUSH1 0x40 MSTORE DUP1 SWAP3 SWAP2 SWAP1 DUP2 DUP2 MSTORE PUSH1 0x20 ADD DUP3 DUP1 SLOAD PUSH2 0xC05 SWAP1 PUSH2 0x2C1E JUMP JUMPDEST DUP1 ISZERO PUSH2 0xC52 JUMPI DUP1 PUSH1 0x1F LT PUSH2 0xC27 JUMPI PUSH2 0x100 DUP1 DUP4 SLOAD DIV MUL DUP4 MSTORE SWAP2 PUSH1 0x20 ADD SWAP2 PUSH2 0xC52 JUMP JUMPDEST DUP3 ADD SWAP2 SWAP1 PUSH1 0x0 MSTORE PUSH1 0x20 PUSH1 0x0 KECCAK256 SWAP1 JUMPDEST DUP2 SLOAD DUP2 MSTORE SWAP1 PUSH1 0x1 ADD SWAP1 PUSH1 0x20 ADD DUP1 DUP4 GT PUSH2 0xC35 JUMPI DUP3 SWAP1 SUB PUSH1 0x1F AND DUP3 ADD SWAP2 JUMPDEST POP POP POP POP POP DUP2 MSTORE PUSH1 0x20 ADD PUSH1 0x2 DUP3 ADD DUP1 SLOAD PUSH2 0xC6B SWAP1 PUSH2 0x2C1E JUMP JUMPDEST DUP1 PUSH1 0x1F ADD PUSH1 0x20 DUP1 SWAP2 DIV MUL PUSH1 0x20 ADD PUSH1 0x40 MLOAD SWAP1 DUP2 ADD PUSH1 0x40 MSTORE DUP1 SWAP3 SWAP2 SWAP1 DUP2 DUP2 MSTORE PUSH1 0x20 ADD DUP3 DUP1 SLOAD PUSH2 0xC97 SWAP1 PUSH2 0x2C1E JUMP JUMPDEST DUP1 ISZERO PUSH2 0xCE4 JUMPI DUP1 PUSH1 0x1F LT PUSH2 0xCB9 JUMPI PUSH2 0x100 DUP1 DUP4 SLOAD DIV MUL DUP4 MSTORE SWAP2 PUSH1 0x20 ADD SWAP2 PUSH2 0xCE4 JUMP JUMPDEST DUP3 ADD SWAP2 SWAP1 PUSH1 0x0 MSTORE PUSH1 0x20 PUSH1 0x0 KECCAK256 SWAP1 JUMPDEST DUP2 SLOAD DUP2 MSTORE SWAP1 PUSH1 0x1 ADD SWAP1 PUSH1 0x20 ADD DUP1 DUP4 GT PUSH2 0xCC7 JUMPI DUP3 SWAP1 SUB PUSH1 0x1F AND DUP3 ADD SWAP2 JUMPDEST POP POP POP POP POP DUP2 MSTORE PUSH1 0x20 ADD PUSH1 0x3 DUP3 ADD SLOAD DUP2 MSTORE PUSH1 0x20 ADD PUSH1 0x4 DUP3 ADD SLOAD DUP2 MSTORE PUSH1 0x20 ADD PUSH1 0x5 DUP3 ADD SLOAD DUP2 MSTORE PUSH1 0x20 ADD PUSH1 0x6 DUP3 ADD SLOAD DUP2 MSTORE PUSH1 0x20 ADD PUSH1 0x7 DUP3 ADD SLOAD DUP2 MSTORE PUSH1 0x20 ADD PUSH1 0x8 DUP3 ADD PUSH1 0x0 SWAP1 SLOAD SWAP1 PUSH2 0x100 EXP SWAP1 DIV PUSH20 0xFFFFFFFFFFFFFFFFFFFFFFFFFFFFFFFFFFFFFFFF AND PUSH20 0xFFFFFFFFFFFFFFFFFFFFFFFFFFFFFFFFFFFFFFFF AND PUSH20 0xFFFFFFFFFFFFFFFFFFFFFFFFFFFFFFFFFFFFFFFF AND DUP2 MSTORE POP POP DUP4 DUP4 DUP1 PUSH2 0xD81 SWAP1 PUSH2 0x2C81 JUMP JUMPDEST SWAP5 POP DUP2 MLOAD DUP2 LT PUSH2 0xD94 JUMPI PUSH2 0xD93 PUSH2 0x2D86 JUMP JUMPDEST JUMPDEST PUSH1 0x20 MUL PUSH1 0x20 ADD ADD DUP2 SWAP1 MSTORE POP JUMPDEST DUP1 DUP1 PUSH2 0xDAB SWAP1 PUSH2 0x2C81 JUMP JUMPDEST SWAP2 POP POP PUSH2 0xB2C JUMP JUMPDEST POP DUP2 SWAP3 POP POP POP SWAP2 SWAP1 POP JUMP JUMPDEST PUSH1 0x7 PUSH1 0x20 MSTORE DUP1 PUSH1 0x0 MSTORE PUSH1 0x40 PUSH1 0x0 KECCAK256 PUSH1 0x0 SWAP2 POP SWAP1 POP DUP1 SLOAD PUSH2 0xDDD SWAP1 PUSH2 0x2C1E JUMP JUMPDEST DUP1 PUSH1 0x1F ADD PUSH1 0x20 DUP1 SWAP2 DIV MUL PUSH1 0x20 ADD PUSH1 0x40 MLOAD SWAP1 DUP2 ADD PUSH1 0x40 MSTORE DUP1 SWAP3 SWAP2 SWAP1 DUP2 DUP2 MSTORE PUSH1 0x20 ADD DUP3 DUP1 SLOAD PUSH2 0xE09 SWAP1 PUSH2 0x2C1E JUMP JUMPDEST DUP1 ISZERO PUSH2 0xE56 JUMPI DUP1 PUSH1 0x1F LT PUSH2 0xE2B JUMPI PUSH2 0x100 DUP1 DUP4 SLOAD DIV MUL DUP4 MSTORE SWAP2 PUSH1 0x20 ADD SWAP2 PUSH2 0xE56 JUMP JUMPDEST DUP3 ADD SWAP2 SWAP1 PUSH1 0x0 MSTORE PUSH1 0x20 PUSH1 0x0 KECCAK256 SWAP1 JUMPDEST DUP2 SLOAD DUP2 MSTORE SWAP1 PUSH1 0x1 ADD SWAP1 PUSH1 0x20 ADD DUP1 DUP4 GT PUSH2 0xE39 JUMPI DUP3 SWAP1 SUB PUSH1 0x1F AND DUP3 ADD SWAP2 JUMPDEST POP POP POP POP POP DUP2 JUMP JUMPDEST PUSH1 0x0 PUSH1 0x3 PUSH1 0x0 PUSH2 0xE6D DUP5 PUSH2 0x171E JUMP JUMPDEST DUP2 MSTORE PUSH1 0x20 ADD SWAP1 DUP2 MSTORE PUSH1 0x20 ADD PUSH1 0x0 KECCAK256 SWAP1 POP PUSH1 0x7 PUSH1 0x0 PUSH1 0x2 PUSH1 0x6 DUP2 GT ISZERO PUSH2 0xE95 JUMPI PUSH2 0xE94 PUSH2 0x2CF9 JUMP JUMPDEST JUMPDEST PUSH1 0x6 DUP2 GT ISZERO PUSH2 0xEA7 JUMPI PUSH2 0xEA6 PUSH2 0x2CF9 JUMP JUMPDEST JUMPDEST DUP2 MSTORE PUSH1 0x20 ADD SWAP1 DUP2 MSTORE PUSH1 0x20 ADD PUSH1 0x0 KECCAK256 DUP2 PUSH1 0x2 ADD SWAP1 DUP1 SLOAD PUSH2 0xEC5 SWAP1 PUSH2 0x2C1E JUMP JUMPDEST PUSH2 0xED0 SWAP3 SWAP2 SWAP1 PUSH2 0x1B7C JUMP JUMPDEST POP PUSH1 0x0 DUP1 SLOAD SWAP1 PUSH2 0x100 EXP SWAP1 DIV PUSH20 0xFFFFFFFFFFFFFFFFFFFFFFFFFFFFFFFFFFFFFFFF AND PUSH20 0xFFFFFFFFFFFFFFFFFFFFFFFFFFFFFFFFFFFFFFFF AND PUSH4 0xA9059CBB DUP3 PUSH1 0x8 ADD PUSH1 0x0 SWAP1 SLOAD SWAP1 PUSH2 0x100 EXP SWAP1 DIV PUSH20 0xFFFFFFFFFFFFFFFFFFFFFFFFFFFFFFFFFFFFFFFF AND PUSH8 0xDE0B6B3A7640000 DUP5 PUSH1 0x3 ADD SLOAD PUSH2 0xF4A SWAP2 SWAP1 PUSH2 0x2AAF JUMP JUMPDEST PUSH1 0x40 MLOAD DUP4 PUSH4 0xFFFFFFFF AND PUSH1 0xE0 SHL DUP2 MSTORE PUSH1 0x4 ADD PUSH2 0xF67 SWAP3 SWAP2 SWAP1 PUSH2 0x259B JUMP JUMPDEST PUSH1 0x20 PUSH1 0x40 MLOAD DUP1 DUP4 SUB DUP2 PUSH1 0x0 DUP8 DUP1 EXTCODESIZE ISZERO DUP1 ISZERO PUSH2 0xF81 JUMPI PUSH1 0x0 DUP1 REVERT JUMPDEST POP GAS CALL ISZERO DUP1 ISZERO PUSH2 0xF95 JUMPI RETURNDATASIZE PUSH1 0x0 DUP1 RETURNDATACOPY RETURNDATASIZE PUSH1 0x0 REVERT JUMPDEST POP POP POP POP PUSH1 0x40 MLOAD RETURNDATASIZE PUSH1 0x1F NOT PUSH1 0x1F DUP3 ADD AND DUP3 ADD DUP1 PUSH1 0x40 MSTORE POP DUP2 ADD SWAP1 PUSH2 0xFB9 SWAP2 SWAP1 PUSH2 0x1DF8 JUMP JUMPDEST POP PUSH32 0x315900BBE635FECC5728B8562969CE616FD5EC4C23EC22FC7930C46D826F906D DUP3 PUSH1 0x40 MLOAD PUSH2 0xFE9 SWAP2 SWAP1 PUSH2 0x26DD JUMP JUMPDEST PUSH1 0x40 MLOAD DUP1 SWAP2 SUB SWAP1 LOG1 POP POP JUMP JUMPDEST PUSH1 0x60 PUSH1 0x1 DUP1 SLOAD DUP1 PUSH1 0x20 MUL PUSH1 0x20 ADD PUSH1 0x40 MLOAD SWAP1 DUP2 ADD PUSH1 0x40 MSTORE DUP1 SWAP3 SWAP2 SWAP1 DUP2 DUP2 MSTORE PUSH1 0x20 ADD PUSH1 0x0 SWAP1 JUMPDEST DUP3 DUP3 LT ISZERO PUSH2 0x10C5 JUMPI DUP4 DUP3 SWAP1 PUSH1 0x0 MSTORE PUSH1 0x20 PUSH1 0x0 KECCAK256 ADD DUP1 SLOAD PUSH2 0x1038 SWAP1 PUSH2 0x2C1E JUMP JUMPDEST DUP1 PUSH1 0x1F ADD PUSH1 0x20 DUP1 SWAP2 DIV MUL PUSH1 0x20 ADD PUSH1 0x40 MLOAD SWAP1 DUP2 ADD PUSH1 0x40 MSTORE DUP1 SWAP3 SWAP2 SWAP1 DUP2 DUP2 MSTORE PUSH1 0x20 ADD DUP3 DUP1 SLOAD PUSH2 0x1064 SWAP1 PUSH2 0x2C1E JUMP JUMPDEST DUP1 ISZERO PUSH2 0x10B1 JUMPI DUP1 PUSH1 0x1F LT PUSH2 0x1086 JUMPI PUSH2 0x100 DUP1 DUP4 SLOAD DIV MUL DUP4 MSTORE SWAP2 PUSH1 0x20 ADD SWAP2 PUSH2 0x10B1 JUMP JUMPDEST DUP3 ADD SWAP2 SWAP1 PUSH1 0x0 MSTORE PUSH1 0x20 PUSH1 0x0 KECCAK256 SWAP1 JUMPDEST DUP2 SLOAD DUP2 MSTORE SWAP1 PUSH1 0x1 ADD SWAP1 PUSH1 0x20 ADD DUP1 DUP4 GT PUSH2 0x1094 JUMPI DUP3 SWAP1 SUB PUSH1 0x1F AND DUP3 ADD SWAP2 JUMPDEST POP POP POP POP POP DUP2 MSTORE PUSH1 0x20 ADD SWAP1 PUSH1 0x1 ADD SWAP1 PUSH2 0x1019 JUMP JUMPDEST POP POP POP POP SWAP1 POP SWAP1 JUMP JUMPDEST PUSH1 0x0 PUSH1 0x2 DUP3 PUSH1 0x40 MLOAD PUSH2 0x10E0 SWAP2 SWAP1 PUSH2 0x2536 JUMP JUMPDEST SWAP1 DUP2 MSTORE PUSH1 0x20 ADD PUSH1 0x40 MLOAD DUP1 SWAP2 SUB SWAP1 KECCAK256 SWAP1 POP TIMESTAMP DUP2 PUSH1 0x4 ADD SLOAD GT ISZERO DUP1 ISZERO PUSH2 0x1108 JUMPI POP PUSH1 0x0 DUP2 PUSH1 0x6 ADD SLOAD EQ JUMPDEST PUSH2 0x1147 JUMPI PUSH1 0x40 MLOAD PUSH32 0x8C379A000000000000000000000000000000000000000000000000000000000 DUP2 MSTORE PUSH1 0x4 ADD PUSH2 0x113E SWAP1 PUSH2 0x2841 JUMP JUMPDEST PUSH1 0x40 MLOAD DUP1 SWAP2 SUB SWAP1 REVERT JUMPDEST PUSH1 0x0 PUSH2 0x115A PUSH2 0x1155 DUP5 PUSH2 0x17F6 JUMP JUMPDEST PUSH2 0x18D9 JUMP JUMPDEST POP PUSH32 0xC244EF6ABB581FCE6EC7F623FFA560AC7D27F787D59020E83A6936BFB9D1D731 DUP4 DUP3 PUSH1 0x0 TIMESTAMP PUSH1 0x40 MLOAD PUSH2 0x1191 SWAP5 SWAP4 SWAP3 SWAP2 SWAP1 PUSH2 0x2691 JUMP JUMPDEST PUSH1 0x40 MLOAD DUP1 SWAP2 SUB SWAP1 LOG1 POP POP POP JUMP JUMPDEST PUSH1 0x0 PUSH1 0x3 PUSH1 0x0 DUP4 DUP2 MSTORE PUSH1 0x20 ADD SWAP1 DUP2 MSTORE PUSH1 0x20 ADD PUSH1 0x0 KECCAK256 SWAP1 POP PUSH2 0x124A DUP2 PUSH1 0x1 ADD DUP1 SLOAD PUSH2 0x11C7 SWAP1 PUSH2 0x2C1E JUMP JUMPDEST DUP1 PUSH1 0x1F ADD PUSH1 0x20 DUP1 SWAP2 DIV MUL PUSH1 0x20 ADD PUSH1 0x40 MLOAD SWAP1 DUP2 ADD PUSH1 0x40 MSTORE DUP1 SWAP3 SWAP2 SWAP1 DUP2 DUP2 MSTORE PUSH1 0x20 ADD DUP3 DUP1 SLOAD PUSH2 0x11F3 SWAP1 PUSH2 0x2C1E JUMP JUMPDEST DUP1 ISZERO PUSH2 0x1240 JUMPI DUP1 PUSH1 0x1F LT PUSH2 0x1215 JUMPI PUSH2 0x100 DUP1 DUP4 SLOAD DIV MUL DUP4 MSTORE SWAP2 PUSH1 0x20 ADD SWAP2 PUSH2 0x1240 JUMP JUMPDEST DUP3 ADD SWAP2 SWAP1 PUSH1 0x0 MSTORE PUSH1 0x20 PUSH1 0x0 KECCAK256 SWAP1 JUMPDEST DUP2 SLOAD DUP2 MSTORE SWAP1 PUSH1 0x1 ADD SWAP1 PUSH1 0x20 ADD DUP1 DUP4 GT PUSH2 0x1223 JUMPI DUP3 SWAP1 SUB PUSH1 0x1F AND DUP3 ADD SWAP2 JUMPDEST POP POP POP POP POP PUSH2 0x10CE JUMP JUMPDEST PUSH1 0x0 DUP1 SLOAD SWAP1 PUSH2 0x100 EXP SWAP1 DIV PUSH20 0xFFFFFFFFFFFFFFFFFFFFFFFFFFFFFFFFFFFFFFFF AND PUSH20 0xFFFFFFFFFFFFFFFFFFFFFFFFFFFFFFFFFFFFFFFF AND PUSH4 0x23B872DD DUP3 PUSH1 0x8 ADD PUSH1 0x0 SWAP1 SLOAD SWAP1 PUSH2 0x100 EXP SWAP1 DIV PUSH20 0xFFFFFFFFFFFFFFFFFFFFFFFFFFFFFFFFFFFFFFFF AND ADDRESS PUSH8 0xDE0B6B3A7640000 DUP6 PUSH1 0x3 ADD SLOAD PUSH2 0x12C4 SWAP2 SWAP1 PUSH2 0x2AAF JUMP JUMPDEST PUSH1 0x40 MLOAD DUP5 PUSH4 0xFFFFFFFF AND PUSH1 0xE0 SHL DUP2 MSTORE PUSH1 0x4 ADD PUSH2 0x12E2 SWAP4 SWAP3 SWAP2 SWAP1 PUSH2 0x2564 JUMP JUMPDEST PUSH1 0x20 PUSH1 0x40 MLOAD DUP1 DUP4 SUB DUP2 PUSH1 0x0 DUP8 DUP1 EXTCODESIZE ISZERO DUP1 ISZERO PUSH2 0x12FC JUMPI PUSH1 0x0 DUP1 REVERT JUMPDEST POP GAS CALL ISZERO DUP1 ISZERO PUSH2 0x1310 JUMPI RETURNDATASIZE PUSH1 0x0 DUP1 RETURNDATACOPY RETURNDATASIZE PUSH1 0x0 REVERT JUMPDEST POP POP POP POP PUSH1 0x40 MLOAD RETURNDATASIZE PUSH1 0x1F NOT PUSH1 0x1F DUP3 ADD AND DUP3 ADD DUP1 PUSH1 0x40 MSTORE POP DUP2 ADD SWAP1 PUSH2 0x1334 SWAP2 SWAP1 PUSH2 0x1DF8 JUMP JUMPDEST POP PUSH1 0x7 PUSH1 0x0 PUSH1 0x4 PUSH1 0x6 DUP2 GT ISZERO PUSH2 0x134D JUMPI PUSH2 0x134C PUSH2 0x2CF9 JUMP JUMPDEST JUMPDEST PUSH1 0x6 DUP2 GT ISZERO PUSH2 0x135F JUMPI PUSH2 0x135E PUSH2 0x2CF9 JUMP JUMPDEST JUMPDEST DUP2 MSTORE PUSH1 0x20 ADD SWAP1 DUP2 MSTORE PUSH1 0x20 ADD PUSH1 0x0 KECCAK256 DUP2 PUSH1 0x2 ADD SWAP1 DUP1 SLOAD PUSH2 0x137D SWAP1 PUSH2 0x2C1E JUMP JUMPDEST PUSH2 0x1388 SWAP3 SWAP2 SWAP1 PUSH2 0x1B7C JUMP JUMPDEST POP POP POP JUMP JUMPDEST PUSH2 0x1434 PUSH1 0x3 PUSH1 0x0 DUP4 DUP2 MSTORE PUSH1 0x20 ADD SWAP1 DUP2 MSTORE PUSH1 0x20 ADD PUSH1 0x0 KECCAK256 PUSH1 0x1 ADD DUP1 SLOAD PUSH2 0x13B1 SWAP1 PUSH2 0x2C1E JUMP JUMPDEST DUP1 PUSH1 0x1F ADD PUSH1 0x20 DUP1 SWAP2 DIV MUL PUSH1 0x20 ADD PUSH1 0x40 MLOAD SWAP1 DUP2 ADD PUSH1 0x40 MSTORE DUP1 SWAP3 SWAP2 SWAP1 DUP2 DUP2 MSTORE PUSH1 0x20 ADD DUP3 DUP1 SLOAD PUSH2 0x13DD SWAP1 PUSH2 0x2C1E JUMP JUMPDEST DUP1 ISZERO PUSH2 0x142A JUMPI DUP1 PUSH1 0x1F LT PUSH2 0x13FF JUMPI PUSH2 0x100 DUP1 DUP4 SLOAD DIV MUL DUP4 MSTORE SWAP2 PUSH1 0x20 ADD SWAP2 PUSH2 0x142A JUMP JUMPDEST DUP3 ADD SWAP2 SWAP1 PUSH1 0x0 MSTORE PUSH1 0x20 PUSH1 0x0 KECCAK256 SWAP1 JUMPDEST DUP2 SLOAD DUP2 MSTORE SWAP1 PUSH1 0x1 ADD SWAP1 PUSH1 0x20 ADD DUP1 DUP4 GT PUSH2 0x140D JUMPI DUP3 SWAP1 SUB PUSH1 0x1F AND DUP3 ADD SWAP2 JUMPDEST POP POP POP POP POP PUSH2 0x149C JUMP JUMPDEST PUSH1 0x7 PUSH1 0x0 PUSH1 0x6 DUP1 DUP2 GT ISZERO PUSH2 0x144B JUMPI PUSH2 0x144A PUSH2 0x2CF9 JUMP JUMPDEST JUMPDEST PUSH1 0x6 DUP2 GT ISZERO PUSH2 0x145D JUMPI PUSH2 0x145C PUSH2 0x2CF9 JUMP JUMPDEST JUMPDEST DUP2 MSTORE PUSH1 0x20 ADD SWAP1 DUP2 MSTORE PUSH1 0x20 ADD PUSH1 0x0 KECCAK256 PUSH1 0x3 PUSH1 0x0 DUP4 DUP2 MSTORE PUSH1 0x20 ADD SWAP1 DUP2 MSTORE PUSH1 0x20 ADD PUSH1 0x0 KECCAK256 PUSH1 0x2 ADD SWAP1 DUP1 SLOAD PUSH2 0x148D SWAP1 PUSH2 0x2C1E JUMP JUMPDEST PUSH2 0x1498 SWAP3 SWAP2 SWAP1 PUSH2 0x1B7C JUMP JUMPDEST POP POP JUMP JUMPDEST PUSH1 0x0 PUSH1 0x2 DUP3 PUSH1 0x40 MLOAD PUSH2 0x14AE SWAP2 SWAP1 PUSH2 0x2536 JUMP JUMPDEST SWAP1 DUP2 MSTORE PUSH1 0x20 ADD PUSH1 0x40 MLOAD DUP1 SWAP2 SUB SWAP1 KECCAK256 SWAP1 POP TIMESTAMP DUP2 PUSH1 0x4 ADD SLOAD GT ISZERO DUP1 ISZERO PUSH2 0x14D6 JUMPI POP PUSH1 0x0 DUP2 PUSH1 0x6 ADD SLOAD EQ JUMPDEST PUSH2 0x1515 JUMPI PUSH1 0x40 MLOAD PUSH32 0x8C379A000000000000000000000000000000000000000000000000000000000 DUP2 MSTORE PUSH1 0x4 ADD PUSH2 0x150C SWAP1 PUSH2 0x2841 JUMP JUMPDEST PUSH1 0x40 MLOAD DUP1 SWAP2 SUB SWAP1 REVERT JUMPDEST PUSH1 0x0 DUP1 PUSH2 0x1535 PUSH20 0xA39434A63A52E749F02807AE27335515BA4B07F7 PUSH2 0x1A58 JUMP JUMPDEST SWAP2 POP SWAP2 POP DUP2 DUP4 PUSH1 0x5 ADD DUP2 SWAP1 SSTORE POP PUSH1 0x0 PUSH2 0x1555 PUSH2 0x1550 DUP7 PUSH2 0x17F6 JUMP JUMPDEST PUSH2 0x18D9 JUMP JUMPDEST POP PUSH32 0xC244EF6ABB581FCE6EC7F623FFA560AC7D27F787D59020E83A6936BFB9D1D731 DUP6 DUP3 DUP6 DUP6 PUSH1 0x40 MLOAD PUSH2 0x158B SWAP5 SWAP4 SWAP3 SWAP2 SWAP1 PUSH2 0x2645 JUMP JUMPDEST PUSH1 0x40 MLOAD DUP1 SWAP2 SUB SWAP1 LOG1 POP POP POP POP POP JUMP JUMPDEST PUSH1 0x4 SLOAD DUP2 JUMP JUMPDEST PUSH1 0x3 PUSH1 0x20 MSTORE DUP1 PUSH1 0x0 MSTORE PUSH1 0x40 PUSH1 0x0 KECCAK256 PUSH1 0x0 SWAP2 POP SWAP1 POP DUP1 PUSH1 0x0 ADD SLOAD SWAP1 DUP1 PUSH1 0x1 ADD DUP1 SLOAD PUSH2 0x15C9 SWAP1 PUSH2 0x2C1E JUMP JUMPDEST DUP1 PUSH1 0x1F ADD PUSH1 0x20 DUP1 SWAP2 DIV MUL PUSH1 0x20 ADD PUSH1 0x40 MLOAD SWAP1 DUP2 ADD PUSH1 0x40 MSTORE DUP1 SWAP3 SWAP2 SWAP1 DUP2 DUP2 MSTORE PUSH1 0x20 ADD DUP3 DUP1 SLOAD PUSH2 0x15F5 SWAP1 PUSH2 0x2C1E JUMP JUMPDEST DUP1 ISZERO PUSH2 0x1642 JUMPI DUP1 PUSH1 0x1F LT PUSH2 0x1617 JUMPI PUSH2 0x100 DUP1 DUP4 SLOAD DIV MUL DUP4 MSTORE SWAP2 PUSH1 0x20 ADD SWAP2 PUSH2 0x1642 JUMP JUMPDEST DUP3 ADD SWAP2 SWAP1 PUSH1 0x0 MSTORE PUSH1 0x20 PUSH1 0x0 KECCAK256 SWAP1 JUMPDEST DUP2 SLOAD DUP2 MSTORE SWAP1 PUSH1 0x1 ADD SWAP1 PUSH1 0x20 ADD DUP1 DUP4 GT PUSH2 0x1625 JUMPI DUP3 SWAP1 SUB PUSH1 0x1F AND DUP3 ADD SWAP2 JUMPDEST POP POP POP POP POP SWAP1 DUP1 PUSH1 0x2 ADD DUP1 SLOAD PUSH2 0x1657 SWAP1 PUSH2 0x2C1E JUMP JUMPDEST DUP1 PUSH1 0x1F ADD PUSH1 0x20 DUP1 SWAP2 DIV MUL PUSH1 0x20 ADD PUSH1 0x40 MLOAD SWAP1 DUP2 ADD PUSH1 0x40 MSTORE DUP1 SWAP3 SWAP2 SWAP1 DUP2 DUP2 MSTORE PUSH1 0x20 ADD DUP3 DUP1 SLOAD PUSH2 0x1683 SWAP1 PUSH2 0x2C1E JUMP JUMPDEST DUP1 ISZERO PUSH2 0x16D0 JUMPI DUP1 PUSH1 0x1F LT PUSH2 0x16A5 JUMPI PUSH2 0x100 DUP1 DUP4 SLOAD DIV MUL DUP4 MSTORE SWAP2 PUSH1 0x20 ADD SWAP2 PUSH2 0x16D0 JUMP JUMPDEST DUP3 ADD SWAP2 SWAP1 PUSH1 0x0 MSTORE PUSH1 0x20 PUSH1 0x0 KECCAK256 SWAP1 JUMPDEST DUP2 SLOAD DUP2 MSTORE SWAP1 PUSH1 0x1 ADD SWAP1 PUSH1 0x20 ADD DUP1 DUP4 GT PUSH2 0x16B3 JUMPI DUP3 SWAP1 SUB PUSH1 0x1F AND DUP3 ADD SWAP2 JUMPDEST POP POP POP POP POP SWAP1 DUP1 PUSH1 0x3 ADD SLOAD SWAP1 DUP1 PUSH1 0x4 ADD SLOAD SWAP1 DUP1 PUSH1 0x5 ADD SLOAD SWAP1 DUP1 PUSH1 0x6 ADD SLOAD SWAP1 DUP1 PUSH1 0x7 ADD SLOAD SWAP1 DUP1 PUSH1 0x8 ADD PUSH1 0x0 SWAP1 SLOAD SWAP1 PUSH2 0x100 EXP SWAP1 DIV PUSH20 0xFFFFFFFFFFFFFFFFFFFFFFFFFFFFFFFFFFFFFFFF AND SWAP1 POP DUP10 JUMP JUMPDEST PUSH1 0x0 DUP1 PUSH1 0x0 SWAP1 POP JUMPDEST PUSH1 0x4 SLOAD DUP2 LT ISZERO PUSH2 0x17B5 JUMPI DUP3 PUSH1 0x40 MLOAD PUSH1 0x20 ADD PUSH2 0x1741 SWAP2 SWAP1 PUSH2 0x2536 JUMP JUMPDEST PUSH1 0x40 MLOAD PUSH1 0x20 DUP2 DUP4 SUB SUB DUP2 MSTORE SWAP1 PUSH1 0x40 MSTORE DUP1 MLOAD SWAP1 PUSH1 0x20 ADD KECCAK256 PUSH1 0x3 PUSH1 0x0 DUP4 DUP2 MSTORE PUSH1 0x20 ADD SWAP1 DUP2 MSTORE PUSH1 0x20 ADD PUSH1 0x0 KECCAK256 PUSH1 0x1 ADD PUSH1 0x40 MLOAD PUSH1 0x20 ADD PUSH2 0x177D SWAP2 SWAP1 PUSH2 0x254D JUMP JUMPDEST PUSH1 0x40 MLOAD PUSH1 0x20 DUP2 DUP4 SUB SUB DUP2 MSTORE SWAP1 PUSH1 0x40 MSTORE DUP1 MLOAD SWAP1 PUSH1 0x20 ADD KECCAK256 EQ ISZERO PUSH2 0x17A2 JUMPI DUP1 SWAP2 POP POP PUSH2 0x17F1 JUMP JUMPDEST DUP1 DUP1 PUSH2 0x17AD SWAP1 PUSH2 0x2C81 JUMP JUMPDEST SWAP2 POP POP PUSH2 0x1726 JUMP JUMPDEST POP PUSH1 0x40 MLOAD PUSH32 0x8C379A000000000000000000000000000000000000000000000000000000000 DUP2 MSTORE PUSH1 0x4 ADD PUSH2 0x17E8 SWAP1 PUSH2 0x2821 JUMP JUMPDEST PUSH1 0x40 MLOAD DUP1 SWAP2 SUB SWAP1 REVERT JUMPDEST SWAP2 SWAP1 POP JUMP JUMPDEST PUSH1 0x0 DUP1 PUSH1 0x0 SWAP1 POP JUMPDEST PUSH1 0x1 DUP1 SLOAD SWAP1 POP DUP2 LT ISZERO PUSH2 0x1898 JUMPI DUP3 PUSH1 0x40 MLOAD PUSH1 0x20 ADD PUSH2 0x181C SWAP2 SWAP1 PUSH2 0x2536 JUMP JUMPDEST PUSH1 0x40 MLOAD PUSH1 0x20 DUP2 DUP4 SUB SUB DUP2 MSTORE SWAP1 PUSH1 0x40 MSTORE DUP1 MLOAD SWAP1 PUSH1 0x20 ADD KECCAK256 PUSH1 0x1 DUP3 DUP2 SLOAD DUP2 LT PUSH2 0x1846 JUMPI PUSH2 0x1845 PUSH2 0x2D86 JUMP JUMPDEST JUMPDEST SWAP1 PUSH1 0x0 MSTORE PUSH1 0x20 PUSH1 0x0 KECCAK256 ADD PUSH1 0x40 MLOAD PUSH1 0x20 ADD PUSH2 0x1860 SWAP2 SWAP1 PUSH2 0x254D JUMP JUMPDEST PUSH1 0x40 MLOAD PUSH1 0x20 DUP2 DUP4 SUB SUB DUP2 MSTORE SWAP1 PUSH1 0x40 MSTORE DUP1 MLOAD SWAP1 PUSH1 0x20 ADD KECCAK256 EQ ISZERO PUSH2 0x1885 JUMPI DUP1 SWAP2 POP POP PUSH2 0x18D4 JUMP JUMPDEST DUP1 DUP1 PUSH2 0x1890 SWAP1 PUSH2 0x2C81 JUMP JUMPDEST SWAP2 POP POP PUSH2 0x17FE JUMP JUMPDEST POP PUSH1 0x40 MLOAD PUSH32 0x8C379A000000000000000000000000000000000000000000000000000000000 DUP2 MSTORE PUSH1 0x4 ADD PUSH2 0x18CB SWAP1 PUSH2 0x2821 JUMP JUMPDEST PUSH1 0x40 MLOAD DUP1 SWAP2 SUB SWAP1 REVERT JUMPDEST SWAP2 SWAP1 POP JUMP JUMPDEST PUSH1 0x60 PUSH1 0x1 DUP1 SLOAD SWAP1 POP DUP3 LT PUSH2 0x18EC JUMPI PUSH1 0x0 DUP1 REVERT JUMPDEST PUSH1 0x1 DUP1 DUP1 DUP1 SLOAD SWAP1 POP PUSH2 0x18FE SWAP2 SWAP1 PUSH2 0x2B09 JUMP JUMPDEST DUP2 SLOAD DUP2 LT PUSH2 0x190F JUMPI PUSH2 0x190E PUSH2 0x2D86 JUMP JUMPDEST JUMPDEST SWAP1 PUSH1 0x0 MSTORE PUSH1 0x20 PUSH1 0x0 KECCAK256 ADD PUSH1 0x1 DUP4 DUP2 SLOAD DUP2 LT PUSH2 0x192D JUMPI PUSH2 0x192C PUSH2 0x2D86 JUMP JUMPDEST JUMPDEST SWAP1 PUSH1 0x0 MSTORE PUSH1 0x20 PUSH1 0x0 KECCAK256 ADD SWAP1 DUP1 SLOAD PUSH2 0x1943 SWAP1 PUSH2 0x2C1E JUMP JUMPDEST PUSH2 0x194E SWAP3 SWAP2 SWAP1 PUSH2 0x1B7C JUMP JUMPDEST POP PUSH1 0x1 DUP1 SLOAD DUP1 PUSH2 0x1961 JUMPI PUSH2 0x1960 PUSH2 0x2D57 JUMP JUMPDEST JUMPDEST PUSH1 0x1 SWAP1 SUB DUP2 DUP2 SWAP1 PUSH1 0x0 MSTORE PUSH1 0x20 PUSH1 0x0 KECCAK256 ADD PUSH1 0x0 PUSH2 0x197D SWAP2 SWAP1 PUSH2 0x1C6B JUMP JUMPDEST SWAP1 SSTORE PUSH1 0x1 DUP1 SLOAD DUP1 PUSH1 0x20 MUL PUSH1 0x20 ADD PUSH1 0x40 MLOAD SWAP1 DUP2 ADD PUSH1 0x40 MSTORE DUP1 SWAP3 SWAP2 SWAP1 DUP2 DUP2 MSTORE PUSH1 0x20 ADD PUSH1 0x0 SWAP1 JUMPDEST DUP3 DUP3 LT ISZERO PUSH2 0x1A4D JUMPI DUP4 DUP3 SWAP1 PUSH1 0x0 MSTORE PUSH1 0x20 PUSH1 0x0 KECCAK256 ADD DUP1 SLOAD PUSH2 0x19C0 SWAP1 PUSH2 0x2C1E JUMP JUMPDEST DUP1 PUSH1 0x1F ADD PUSH1 0x20 DUP1 SWAP2 DIV MUL PUSH1 0x20 ADD PUSH1 0x40 MLOAD SWAP1 DUP2 ADD PUSH1 0x40 MSTORE DUP1 SWAP3 SWAP2 SWAP1 DUP2 DUP2 MSTORE PUSH1 0x20 ADD DUP3 DUP1 SLOAD PUSH2 0x19EC SWAP1 PUSH2 0x2C1E JUMP JUMPDEST DUP1 ISZERO PUSH2 0x1A39 JUMPI DUP1 PUSH1 0x1F LT PUSH2 0x1A0E JUMPI PUSH2 0x100 DUP1 DUP4 SLOAD DIV MUL DUP4 MSTORE SWAP2 PUSH1 0x20 ADD SWAP2 PUSH2 0x1A39 JUMP JUMPDEST DUP3 ADD SWAP2 SWAP1 PUSH1 0x0 MSTORE PUSH1 0x20 PUSH1 0x0 KECCAK256 SWAP1 JUMPDEST DUP2 SLOAD DUP2 MSTORE SWAP1 PUSH1 0x1 ADD SWAP1 PUSH1 0x20 ADD DUP1 DUP4 GT PUSH2 0x1A1C JUMPI DUP3 SWAP1 SUB PUSH1 0x1F AND DUP3 ADD SWAP2 JUMPDEST POP POP POP POP POP DUP2 MSTORE PUSH1 0x20 ADD SWAP1 PUSH1 0x1 ADD SWAP1 PUSH2 0x19A1 JUMP JUMPDEST POP POP POP POP SWAP1 POP SWAP2 SWAP1 POP JUMP JUMPDEST PUSH1 0x0 DUP1 PUSH1 0x0 DUP4 SWAP1 POP PUSH1 0x0 DUP1 DUP3 PUSH20 0xFFFFFFFFFFFFFFFFFFFFFFFFFFFFFFFFFFFFFFFF AND PUSH4 0xFEAF968C PUSH1 0x40 MLOAD DUP2 PUSH4 0xFFFFFFFF AND PUSH1 0xE0 SHL DUP2 MSTORE PUSH1 0x4 ADD PUSH1 0xA0 PUSH1 0x40 MLOAD DUP1 DUP4 SUB DUP2 DUP7 DUP1 EXTCODESIZE ISZERO DUP1 ISZERO PUSH2 0x1AA9 JUMPI PUSH1 0x0 DUP1 REVERT JUMPDEST POP GAS STATICCALL ISZERO DUP1 ISZERO PUSH2 0x1ABD JUMPI RETURNDATASIZE PUSH1 0x0 DUP1 RETURNDATACOPY RETURNDATASIZE PUSH1 0x0 REVERT JUMPDEST POP POP POP POP PUSH1 0x40 MLOAD RETURNDATASIZE PUSH1 0x1F NOT PUSH1 0x1F DUP3 ADD AND DUP3 ADD DUP1 PUSH1 0x40 MSTORE POP DUP2 ADD SWAP1 PUSH2 0x1AE1 SWAP2 SWAP1 PUSH2 0x20A3 JUMP JUMPDEST POP SWAP4 POP POP SWAP3 POP POP DUP2 DUP2 SWAP5 POP SWAP5 POP POP POP POP SWAP2 POP SWAP2 JUMP JUMPDEST DUP3 DUP1 SLOAD PUSH2 0x1B02 SWAP1 PUSH2 0x2C1E JUMP JUMPDEST SWAP1 PUSH1 0x0 MSTORE PUSH1 0x20 PUSH1 0x0 KECCAK256 SWAP1 PUSH1 0x1F ADD PUSH1 0x20 SWAP1 DIV DUP2 ADD SWAP3 DUP3 PUSH2 0x1B24 JUMPI PUSH1 0x0 DUP6 SSTORE PUSH2 0x1B6B JUMP JUMPDEST DUP3 PUSH1 0x1F LT PUSH2 0x1B3D JUMPI DUP1 MLOAD PUSH1 0xFF NOT AND DUP4 DUP1 ADD OR DUP6 SSTORE PUSH2 0x1B6B JUMP JUMPDEST DUP3 DUP1 ADD PUSH1 0x1 ADD DUP6 SSTORE DUP3 ISZERO PUSH2 0x1B6B JUMPI SWAP2 DUP3 ADD JUMPDEST DUP3 DUP2 GT ISZERO PUSH2 0x1B6A JUMPI DUP3 MLOAD DUP3 SSTORE SWAP2 PUSH1 0x20 ADD SWAP2 SWAP1 PUSH1 0x1 ADD SWAP1 PUSH2 0x1B4F JUMP JUMPDEST JUMPDEST POP SWAP1 POP PUSH2 0x1B78 SWAP2 SWAP1 PUSH2 0x1CAB JUMP JUMPDEST POP SWAP1 JUMP JUMPDEST DUP3 DUP1 SLOAD PUSH2 0x1B88 SWAP1 PUSH2 0x2C1E JUMP JUMPDEST SWAP1 PUSH1 0x0 MSTORE PUSH1 0x20 PUSH1 0x0 KECCAK256 SWAP1 PUSH1 0x1F ADD PUSH1 0x20 SWAP1 DIV DUP2 ADD SWAP3 DUP3 PUSH2 0x1BAA JUMPI PUSH1 0x0 DUP6 SSTORE PUSH2 0x1BF8 JUMP JUMPDEST DUP3 PUSH1 0x1F LT PUSH2 0x1BBB JUMPI DUP1 SLOAD DUP6 SSTORE PUSH2 0x1BF8 JUMP JUMPDEST DUP3 DUP1 ADD PUSH1 0x1 ADD DUP6 SSTORE DUP3 ISZERO PUSH2 0x1BF8 JUMPI PUSH1 0x0 MSTORE PUSH1 0x20 PUSH1 0x0 KECCAK256 SWAP2 PUSH1 0x1F ADD PUSH1 0x20 SWAP1 DIV DUP3 ADD JUMPDEST DUP3 DUP2 GT ISZERO PUSH2 0x1BF7 JUMPI DUP3 SLOAD DUP3 SSTORE SWAP2 PUSH1 0x1 ADD SWAP2 SWAP1 PUSH1 0x1 ADD SWAP1 PUSH2 0x1BDC JUMP JUMPDEST JUMPDEST POP SWAP1 POP PUSH2 0x1C05 SWAP2 SWAP1 PUSH2 0x1CAB JUMP JUMPDEST POP SWAP1 JUMP JUMPDEST PUSH1 0x40 MLOAD DUP1 PUSH2 0x120 ADD PUSH1 0x40 MSTORE DUP1 PUSH1 0x0 DUP2 MSTORE PUSH1 0x20 ADD PUSH1 0x60 DUP2 MSTORE PUSH1 0x20 ADD PUSH1 0x60 DUP2 MSTORE PUSH1 0x20 ADD PUSH1 0x0 DUP2 MSTORE PUSH1 0x20 ADD PUSH1 0x0 DUP2 MSTORE PUSH1 0x20 ADD PUSH1 0x0 DUP2 MSTORE PUSH1 0x20 ADD PUSH1 0x0 DUP2 MSTORE PUSH1 0x20 ADD PUSH1 0x0 DUP2 MSTORE PUSH1 0x20 ADD PUSH1 0x0 PUSH20 0xFFFFFFFFFFFFFFFFFFFFFFFFFFFFFFFFFFFFFFFF AND DUP2 MSTORE POP SWAP1 JUMP JUMPDEST POP DUP1 SLOAD PUSH2 0x1C77 SWAP1 PUSH2 0x2C1E JUMP JUMPDEST PUSH1 0x0 DUP3 SSTORE DUP1 PUSH1 0x1F LT PUSH2 0x1C89 JUMPI POP PUSH2 0x1CA8 JUMP JUMPDEST PUSH1 0x1F ADD PUSH1 0x20 SWAP1 DIV SWAP1 PUSH1 0x0 MSTORE PUSH1 0x20 PUSH1 0x0 KECCAK256 SWAP1 DUP2 ADD SWAP1 PUSH2 0x1CA7 SWAP2 SWAP1 PUSH2 0x1CAB JUMP JUMPDEST JUMPDEST POP JUMP JUMPDEST JUMPDEST DUP1 DUP3 GT ISZERO PUSH2 0x1CC4 JUMPI PUSH1 0x0 DUP2 PUSH1 0x0 SWAP1 SSTORE POP PUSH1 0x1 ADD PUSH2 0x1CAC JUMP JUMPDEST POP SWAP1 JUMP JUMPDEST PUSH1 0x0 PUSH2 0x1CDB PUSH2 0x1CD6 DUP5 PUSH2 0x29BF JUMP JUMPDEST PUSH2 0x299A JUMP JUMPDEST SWAP1 POP DUP3 DUP2 MSTORE PUSH1 0x20 DUP2 ADD DUP5 DUP5 DUP5 ADD GT ISZERO PUSH2 0x1CF7 JUMPI PUSH2 0x1CF6 PUSH2 0x2DE9 JUMP JUMPDEST JUMPDEST PUSH2 0x1D02 DUP5 DUP3 DUP6 PUSH2 0x2BDC JUMP JUMPDEST POP SWAP4 SWAP3 POP POP POP JUMP JUMPDEST PUSH1 0x0 DUP2 CALLDATALOAD SWAP1 POP PUSH2 0x1D19 DUP2 PUSH2 0x2EEA JUMP JUMPDEST SWAP3 SWAP2 POP POP JUMP JUMPDEST PUSH1 0x0 DUP2 MLOAD SWAP1 POP PUSH2 0x1D2E DUP2 PUSH2 0x2F01 JUMP JUMPDEST SWAP3 SWAP2 POP POP JUMP JUMPDEST PUSH1 0x0 DUP2 CALLDATALOAD SWAP1 POP PUSH2 0x1D43 DUP2 PUSH2 0x2F18 JUMP JUMPDEST SWAP3 SWAP2 POP POP JUMP JUMPDEST PUSH1 0x0 DUP2 MLOAD SWAP1 POP PUSH2 0x1D58 DUP2 PUSH2 0x2F28 JUMP JUMPDEST SWAP3 SWAP2 POP POP JUMP JUMPDEST PUSH1 0x0 DUP3 PUSH1 0x1F DUP4 ADD SLT PUSH2 0x1D73 JUMPI PUSH2 0x1D72 PUSH2 0x2DE4 JUMP JUMPDEST JUMPDEST DUP2 CALLDATALOAD PUSH2 0x1D83 DUP5 DUP3 PUSH1 0x20 DUP7 ADD PUSH2 0x1CC8 JUMP JUMPDEST SWAP2 POP POP SWAP3 SWAP2 POP POP JUMP JUMPDEST PUSH1 0x0 DUP2 CALLDATALOAD SWAP1 POP PUSH2 0x1D9B DUP2 PUSH2 0x2F3F JUMP JUMPDEST SWAP3 SWAP2 POP POP JUMP JUMPDEST PUSH1 0x0 DUP2 MLOAD SWAP1 POP PUSH2 0x1DB0 DUP2 PUSH2 0x2F3F JUMP JUMPDEST SWAP3 SWAP2 POP POP JUMP JUMPDEST PUSH1 0x0 DUP2 MLOAD SWAP1 POP PUSH2 0x1DC5 DUP2 PUSH2 0x2F56 JUMP JUMPDEST SWAP3 SWAP2 POP POP JUMP JUMPDEST PUSH1 0x0 PUSH1 0x20 DUP3 DUP5 SUB SLT ISZERO PUSH2 0x1DE1 JUMPI PUSH2 0x1DE0 PUSH2 0x2DF3 JUMP JUMPDEST JUMPDEST PUSH1 0x0 PUSH2 0x1DEF DUP5 DUP3 DUP6 ADD PUSH2 0x1D0A JUMP JUMPDEST SWAP2 POP POP SWAP3 SWAP2 POP POP JUMP JUMPDEST PUSH1 0x0 PUSH1 0x20 DUP3 DUP5 SUB SLT ISZERO PUSH2 0x1E0E JUMPI PUSH2 0x1E0D PUSH2 0x2DF3 JUMP JUMPDEST JUMPDEST PUSH1 0x0 PUSH2 0x1E1C DUP5 DUP3 DUP6 ADD PUSH2 0x1D1F JUMP JUMPDEST SWAP2 POP POP SWAP3 SWAP2 POP POP JUMP JUMPDEST PUSH1 0x0 PUSH1 0x20 DUP3 DUP5 SUB SLT ISZERO PUSH2 0x1E3B JUMPI PUSH2 0x1E3A PUSH2 0x2DF3 JUMP JUMPDEST JUMPDEST PUSH1 0x0 PUSH2 0x1E49 DUP5 DUP3 DUP6 ADD PUSH2 0x1D34 JUMP JUMPDEST SWAP2 POP POP SWAP3 SWAP2 POP POP JUMP JUMPDEST PUSH1 0x0 PUSH1 0x20 DUP3 DUP5 SUB SLT ISZERO PUSH2 0x1E68 JUMPI PUSH2 0x1E67 PUSH2 0x2DF3 JUMP JUMPDEST JUMPDEST PUSH1 0x0 DUP3 ADD CALLDATALOAD PUSH8 0xFFFFFFFFFFFFFFFF DUP2 GT ISZERO PUSH2 0x1E86 JUMPI PUSH2 0x1E85 PUSH2 0x2DEE JUMP JUMPDEST JUMPDEST PUSH2 0x1E92 DUP5 DUP3 DUP6 ADD PUSH2 0x1D5E JUMP JUMPDEST SWAP2 POP POP SWAP3 SWAP2 POP POP JUMP JUMPDEST PUSH1 0x0 DUP1 PUSH1 0x0 DUP1 PUSH1 0x0 DUP1 PUSH1 0x0 PUSH1 0xE0 DUP9 DUP11 SUB SLT ISZERO PUSH2 0x1EBA JUMPI PUSH2 0x1EB9 PUSH2 0x2DF3 JUMP JUMPDEST JUMPDEST PUSH1 0x0 DUP9 ADD CALLDATALOAD PUSH8 0xFFFFFFFFFFFFFFFF DUP2 GT ISZERO PUSH2 0x1ED8 JUMPI PUSH2 0x1ED7 PUSH2 0x2DEE JUMP JUMPDEST JUMPDEST PUSH2 0x1EE4 DUP11 DUP3 DUP12 ADD PUSH2 0x1D5E JUMP JUMPDEST SWAP8 POP POP PUSH1 0x20 PUSH2 0x1EF5 DUP11 DUP3 DUP12 ADD PUSH2 0x1D8C JUMP JUMPDEST SWAP7 POP POP PUSH1 0x40 PUSH2 0x1F06 DUP11 DUP3 DUP12 ADD PUSH2 0x1D8C JUMP JUMPDEST SWAP6 POP POP PUSH1 0x60 PUSH2 0x1F17 DUP11 DUP3 DUP12 ADD PUSH2 0x1D8C JUMP JUMPDEST SWAP5 POP POP PUSH1 0x80 PUSH2 0x1F28 DUP11 DUP3 DUP12 ADD PUSH2 0x1D8C JUMP JUMPDEST SWAP4 POP POP PUSH1 0xA0 PUSH2 0x1F39 DUP11 DUP3 DUP12 ADD PUSH2 0x1D0A JUMP JUMPDEST SWAP3 POP POP PUSH1 0xC0 PUSH2 0x1F4A DUP11 DUP3 DUP12 ADD PUSH2 0x1D8C JUMP JUMPDEST SWAP2 POP POP SWAP3 SWAP6 SWAP9 SWAP2 SWAP5 SWAP8 POP SWAP3 SWAP6 POP JUMP JUMPDEST PUSH1 0x0 PUSH1 0x20 DUP3 DUP5 SUB SLT ISZERO PUSH2 0x1F6F JUMPI PUSH2 0x1F6E PUSH2 0x2DF3 JUMP JUMPDEST JUMPDEST PUSH1 0x0 PUSH2 0x1F7D DUP5 DUP3 DUP6 ADD PUSH2 0x1D8C JUMP JUMPDEST SWAP2 POP POP SWAP3 SWAP2 POP POP JUMP JUMPDEST PUSH1 0x0 DUP1 PUSH1 0x0 DUP1 PUSH1 0x0 DUP1 PUSH1 0x0 PUSH1 0xE0 DUP9 DUP11 SUB SLT ISZERO PUSH2 0x1FA5 JUMPI PUSH2 0x1FA4 PUSH2 0x2DF3 JUMP JUMPDEST JUMPDEST PUSH1 0x0 PUSH2 0x1FB3 DUP11 DUP3 DUP12 ADD PUSH2 0x1D8C JUMP JUMPDEST SWAP8 POP POP PUSH1 0x20 PUSH2 0x1FC4 DUP11 DUP3 DUP12 ADD PUSH2 0x1D8C JUMP JUMPDEST SWAP7 POP POP PUSH1 0x40 PUSH2 0x1FD5 DUP11 DUP3 DUP12 ADD PUSH2 0x1D8C JUMP JUMPDEST SWAP6 POP POP PUSH1 0x60 PUSH2 0x1FE6 DUP11 DUP3 DUP12 ADD PUSH2 0x1D8C JUMP JUMPDEST SWAP5 POP POP PUSH1 0x80 PUSH2 0x1FF7 DUP11 DUP3 DUP12 ADD PUSH2 0x1D0A JUMP JUMPDEST SWAP4 POP POP PUSH1 0xA0 PUSH2 0x2008 DUP11 DUP3 DUP12 ADD PUSH2 0x1D8C JUMP JUMPDEST SWAP3 POP POP PUSH1 0xC0 PUSH2 0x2019 DUP11 DUP3 DUP12 ADD PUSH2 0x1D8C JUMP JUMPDEST SWAP2 POP POP SWAP3 SWAP6 SWAP9 SWAP2 SWAP5 SWAP8 POP SWAP3 SWAP6 POP JUMP JUMPDEST PUSH1 0x0 DUP1 PUSH1 0x0 DUP1 PUSH1 0x0 PUSH1 0xA0 DUP7 DUP9 SUB SLT ISZERO PUSH2 0x2044 JUMPI PUSH2 0x2043 PUSH2 0x2DF3 JUMP JUMPDEST JUMPDEST PUSH1 0x0 PUSH2 0x2052 DUP9 DUP3 DUP10 ADD PUSH2 0x1D8C JUMP JUMPDEST SWAP6 POP POP PUSH1 0x20 PUSH2 0x2063 DUP9 DUP3 DUP10 ADD PUSH2 0x1D8C JUMP JUMPDEST SWAP5 POP POP PUSH1 0x40 PUSH2 0x2074 DUP9 DUP3 DUP10 ADD PUSH2 0x1D8C JUMP JUMPDEST SWAP4 POP POP PUSH1 0x60 PUSH2 0x2085 DUP9 DUP3 DUP10 ADD PUSH2 0x1D8C JUMP JUMPDEST SWAP3 POP POP PUSH1 0x80 PUSH2 0x2096 DUP9 DUP3 DUP10 ADD PUSH2 0x1D8C JUMP JUMPDEST SWAP2 POP POP SWAP3 SWAP6 POP SWAP3 SWAP6 SWAP1 SWAP4 POP JUMP JUMPDEST PUSH1 0x0 DUP1 PUSH1 0x0 DUP1 PUSH1 0x0 PUSH1 0xA0 DUP7 DUP9 SUB SLT ISZERO PUSH2 0x20BF JUMPI PUSH2 0x20BE PUSH2 0x2DF3 JUMP JUMPDEST JUMPDEST PUSH1 0x0 PUSH2 0x20CD DUP9 DUP3 DUP10 ADD PUSH2 0x1DB6 JUMP JUMPDEST SWAP6 POP POP PUSH1 0x20 PUSH2 0x20DE DUP9 DUP3 DUP10 ADD PUSH2 0x1D49 JUMP JUMPDEST SWAP5 POP POP PUSH1 0x40 PUSH2 0x20EF DUP9 DUP3 DUP10 ADD PUSH2 0x1DA1 JUMP JUMPDEST SWAP4 POP POP PUSH1 0x60 PUSH2 0x2100 DUP9 DUP3 DUP10 ADD PUSH2 0x1DA1 JUMP JUMPDEST SWAP3 POP POP PUSH1 0x80 PUSH2 0x2111 DUP9 DUP3 DUP10 ADD PUSH2 0x1DB6 JUMP JUMPDEST SWAP2 POP POP SWAP3 SWAP6 POP SWAP3 SWAP6 SWAP1 SWAP4 POP JUMP JUMPDEST PUSH1 0x0 PUSH2 0x212A DUP4 DUP4 PUSH2 0x227B JUMP JUMPDEST SWAP1 POP SWAP3 SWAP2 POP POP JUMP JUMPDEST PUSH1 0x0 PUSH2 0x213E DUP4 DUP4 PUSH2 0x244C JUMP JUMPDEST SWAP1 POP SWAP3 SWAP2 POP POP JUMP JUMPDEST PUSH2 0x214F DUP2 PUSH2 0x2B3D JUMP JUMPDEST DUP3 MSTORE POP POP JUMP JUMPDEST PUSH2 0x215E DUP2 PUSH2 0x2B3D JUMP JUMPDEST DUP3 MSTORE POP POP JUMP JUMPDEST PUSH1 0x0 PUSH2 0x216F DUP3 PUSH2 0x2A25 JUMP JUMPDEST PUSH2 0x2179 DUP2 DUP6 PUSH2 0x2A60 JUMP JUMPDEST SWAP4 POP DUP4 PUSH1 0x20 DUP3 MUL DUP6 ADD PUSH2 0x218B DUP6 PUSH2 0x29F0 JUMP JUMPDEST DUP1 PUSH1 0x0 JUMPDEST DUP6 DUP2 LT ISZERO PUSH2 0x21C7 JUMPI DUP5 DUP5 SUB DUP10 MSTORE DUP2 MLOAD PUSH2 0x21A8 DUP6 DUP3 PUSH2 0x211E JUMP JUMPDEST SWAP5 POP PUSH2 0x21B3 DUP4 PUSH2 0x2A46 JUMP JUMPDEST SWAP3 POP PUSH1 0x20 DUP11 ADD SWAP10 POP POP PUSH1 0x1 DUP2 ADD SWAP1 POP PUSH2 0x218F JUMP JUMPDEST POP DUP3 SWAP8 POP DUP8 SWAP6 POP POP POP POP POP POP SWAP3 SWAP2 POP POP JUMP JUMPDEST PUSH1 0x0 PUSH2 0x21E4 DUP3 PUSH2 0x2A30 JUMP JUMPDEST PUSH2 0x21EE DUP2 DUP6 PUSH2 0x2A71 JUMP JUMPDEST SWAP4 POP DUP4 PUSH1 0x20 DUP3 MUL DUP6 ADD PUSH2 0x2200 DUP6 PUSH2 0x2A00 JUMP JUMPDEST DUP1 PUSH1 0x0 JUMPDEST DUP6 DUP2 LT ISZERO PUSH2 0x223C JUMPI DUP5 DUP5 SUB DUP10 MSTORE DUP2 MLOAD PUSH2 0x221D DUP6 DUP3 PUSH2 0x2132 JUMP JUMPDEST SWAP5 POP PUSH2 0x2228 DUP4 PUSH2 0x2A53 JUMP JUMPDEST SWAP3 POP PUSH1 0x20 DUP11 ADD SWAP10 POP POP PUSH1 0x1 DUP2 ADD SWAP1 POP PUSH2 0x2204 JUMP JUMPDEST POP DUP3 SWAP8 POP DUP8 SWAP6 POP POP POP POP POP POP SWAP3 SWAP2 POP POP JUMP JUMPDEST PUSH2 0x2257 DUP2 PUSH2 0x2BB8 JUMP JUMPDEST DUP3 MSTORE POP POP JUMP JUMPDEST PUSH2 0x2266 DUP2 PUSH2 0x2B6E JUMP JUMPDEST DUP3 MSTORE POP POP JUMP JUMPDEST PUSH2 0x2275 DUP2 PUSH2 0x2BCA JUMP JUMPDEST DUP3 MSTORE POP POP JUMP JUMPDEST PUSH1 0x0 PUSH2 0x2286 DUP3 PUSH2 0x2A3B JUMP JUMPDEST PUSH2 0x2290 DUP2 DUP6 PUSH2 0x2A82 JUMP JUMPDEST SWAP4 POP PUSH2 0x22A0 DUP2 DUP6 PUSH1 0x20 DUP7 ADD PUSH2 0x2BEB JUMP JUMPDEST PUSH2 0x22A9 DUP2 PUSH2 0x2DF8 JUMP JUMPDEST DUP5 ADD SWAP2 POP POP SWAP3 SWAP2 POP POP JUMP JUMPDEST PUSH1 0x0 PUSH2 0x22BF DUP3 PUSH2 0x2A3B JUMP JUMPDEST PUSH2 0x22C9 DUP2 DUP6 PUSH2 0x2A93 JUMP JUMPDEST SWAP4 POP PUSH2 0x22D9 DUP2 DUP6 PUSH1 0x20 DUP7 ADD PUSH2 0x2BEB JUMP JUMPDEST PUSH2 0x22E2 DUP2 PUSH2 0x2DF8 JUMP JUMPDEST DUP5 ADD SWAP2 POP POP SWAP3 SWAP2 POP POP JUMP JUMPDEST PUSH1 0x0 PUSH2 0x22F8 DUP3 PUSH2 0x2A3B JUMP JUMPDEST PUSH2 0x2302 DUP2 DUP6 PUSH2 0x2AA4 JUMP JUMPDEST SWAP4 POP PUSH2 0x2312 DUP2 DUP6 PUSH1 0x20 DUP7 ADD PUSH2 0x2BEB JUMP JUMPDEST DUP1 DUP5 ADD SWAP2 POP POP SWAP3 SWAP2 POP POP JUMP JUMPDEST PUSH1 0x0 DUP2 SLOAD PUSH2 0x232B DUP2 PUSH2 0x2C1E JUMP JUMPDEST PUSH2 0x2335 DUP2 DUP7 PUSH2 0x2AA4 JUMP JUMPDEST SWAP5 POP PUSH1 0x1 DUP3 AND PUSH1 0x0 DUP2 EQ PUSH2 0x2350 JUMPI PUSH1 0x1 DUP2 EQ PUSH2 0x2361 JUMPI PUSH2 0x2394 JUMP JUMPDEST PUSH1 0xFF NOT DUP4 AND DUP7 MSTORE DUP2 DUP7 ADD SWAP4 POP PUSH2 0x2394 JUMP JUMPDEST PUSH2 0x236A DUP6 PUSH2 0x2A10 JUMP JUMPDEST PUSH1 0x0 JUMPDEST DUP4 DUP2 LT ISZERO PUSH2 0x238C JUMPI DUP2 SLOAD DUP2 DUP10 ADD MSTORE PUSH1 0x1 DUP3 ADD SWAP2 POP PUSH1 0x20 DUP2 ADD SWAP1 POP PUSH2 0x236D JUMP JUMPDEST DUP4 DUP9 ADD SWAP6 POP POP POP JUMPDEST POP POP POP SWAP3 SWAP2 POP POP JUMP JUMPDEST PUSH1 0x0 PUSH2 0x23AA PUSH1 0x15 DUP4 PUSH2 0x2A93 JUMP JUMPDEST SWAP2 POP PUSH2 0x23B5 DUP3 PUSH2 0x2E09 JUMP JUMPDEST PUSH1 0x20 DUP3 ADD SWAP1 POP SWAP2 SWAP1 POP JUMP JUMPDEST PUSH1 0x0 PUSH2 0x23CD PUSH1 0x9 DUP4 PUSH2 0x2A93 JUMP JUMPDEST SWAP2 POP PUSH2 0x23D8 DUP3 PUSH2 0x2E32 JUMP JUMPDEST PUSH1 0x20 DUP3 ADD SWAP1 POP SWAP2 SWAP1 POP JUMP JUMPDEST PUSH1 0x0 PUSH2 0x23F0 PUSH1 0x1C DUP4 PUSH2 0x2A93 JUMP JUMPDEST SWAP2 POP PUSH2 0x23FB DUP3 PUSH2 0x2E5B JUMP JUMPDEST PUSH1 0x20 DUP3 ADD SWAP1 POP SWAP2 SWAP1 POP JUMP JUMPDEST PUSH1 0x0 PUSH2 0x2413 PUSH1 0x1E DUP4 PUSH2 0x2A93 JUMP JUMPDEST SWAP2 POP PUSH2 0x241E DUP3 PUSH2 0x2E84 JUMP JUMPDEST PUSH1 0x20 DUP3 ADD SWAP1 POP SWAP2 SWAP1 POP JUMP JUMPDEST PUSH1 0x0 PUSH2 0x2436 PUSH1 0x1E DUP4 PUSH2 0x2A93 JUMP JUMPDEST SWAP2 POP PUSH2 0x2441 DUP3 PUSH2 0x2EAD JUMP JUMPDEST PUSH1 0x20 DUP3 ADD SWAP1 POP SWAP2 SWAP1 POP JUMP JUMPDEST PUSH1 0x0 PUSH2 0x120 DUP4 ADD PUSH1 0x0 DUP4 ADD MLOAD PUSH2 0x2465 PUSH1 0x0 DUP7 ADD DUP3 PUSH2 0x2518 JUMP JUMPDEST POP PUSH1 0x20 DUP4 ADD MLOAD DUP5 DUP3 SUB PUSH1 0x20 DUP7 ADD MSTORE PUSH2 0x247D DUP3 DUP3 PUSH2 0x227B JUMP JUMPDEST SWAP2 POP POP PUSH1 0x40 DUP4 ADD MLOAD DUP5 DUP3 SUB PUSH1 0x40 DUP7 ADD MSTORE PUSH2 0x2497 DUP3 DUP3 PUSH2 0x227B JUMP JUMPDEST SWAP2 POP POP PUSH1 0x60 DUP4 ADD MLOAD PUSH2 0x24AC PUSH1 0x60 DUP7 ADD DUP3 PUSH2 0x2518 JUMP JUMPDEST POP PUSH1 0x80 DUP4 ADD MLOAD PUSH2 0x24BF PUSH1 0x80 DUP7 ADD DUP3 PUSH2 0x2518 JUMP JUMPDEST POP PUSH1 0xA0 DUP4 ADD MLOAD PUSH2 0x24D2 PUSH1 0xA0 DUP7 ADD DUP3 PUSH2 0x2518 JUMP JUMPDEST POP PUSH1 0xC0 DUP4 ADD MLOAD PUSH2 0x24E5 PUSH1 0xC0 DUP7 ADD DUP3 PUSH2 0x2518 JUMP JUMPDEST POP PUSH1 0xE0 DUP4 ADD MLOAD PUSH2 0x24F8 PUSH1 0xE0 DUP7 ADD DUP3 PUSH2 0x2518 JUMP JUMPDEST POP PUSH2 0x100 DUP4 ADD MLOAD PUSH2 0x250D PUSH2 0x100 DUP7 ADD DUP3 PUSH2 0x2146 JUMP JUMPDEST POP DUP1 SWAP2 POP POP SWAP3 SWAP2 POP POP JUMP JUMPDEST PUSH2 0x2521 DUP2 PUSH2 0x2B98 JUMP JUMPDEST DUP3 MSTORE POP POP JUMP JUMPDEST PUSH2 0x2530 DUP2 PUSH2 0x2B98 JUMP JUMPDEST DUP3 MSTORE POP POP JUMP JUMPDEST PUSH1 0x0 PUSH2 0x2542 DUP3 DUP5 PUSH2 0x22ED JUMP JUMPDEST SWAP2 POP DUP2 SWAP1 POP SWAP3 SWAP2 POP POP JUMP JUMPDEST PUSH1 0x0 PUSH2 0x2559 DUP3 DUP5 PUSH2 0x231E JUMP JUMPDEST SWAP2 POP DUP2 SWAP1 POP SWAP3 SWAP2 POP POP JUMP JUMPDEST PUSH1 0x0 PUSH1 0x60 DUP3 ADD SWAP1 POP PUSH2 0x2579 PUSH1 0x0 DUP4 ADD DUP7 PUSH2 0x2155 JUMP JUMPDEST PUSH2 0x2586 PUSH1 0x20 DUP4 ADD DUP6 PUSH2 0x2155 JUMP JUMPDEST PUSH2 0x2593 PUSH1 0x40 DUP4 ADD DUP5 PUSH2 0x2527 JUMP JUMPDEST SWAP5 SWAP4 POP POP POP POP JUMP JUMPDEST PUSH1 0x0 PUSH1 0x40 DUP3 ADD SWAP1 POP PUSH2 0x25B0 PUSH1 0x0 DUP4 ADD DUP6 PUSH2 0x2155 JUMP JUMPDEST PUSH2 0x25BD PUSH1 0x20 DUP4 ADD DUP5 PUSH2 0x2527 JUMP JUMPDEST SWAP4 SWAP3 POP POP POP JUMP JUMPDEST PUSH1 0x0 PUSH1 0x20 DUP3 ADD SWAP1 POP DUP2 DUP2 SUB PUSH1 0x0 DUP4 ADD MSTORE PUSH2 0x25DE DUP2 DUP5 PUSH2 0x2164 JUMP JUMPDEST SWAP1 POP SWAP3 SWAP2 POP POP JUMP JUMPDEST PUSH1 0x0 PUSH1 0x20 DUP3 ADD SWAP1 POP DUP2 DUP2 SUB PUSH1 0x0 DUP4 ADD MSTORE PUSH2 0x2600 DUP2 DUP5 PUSH2 0x21D9 JUMP JUMPDEST SWAP1 POP SWAP3 SWAP2 POP POP JUMP JUMPDEST PUSH1 0x0 PUSH1 0x20 DUP3 ADD SWAP1 POP PUSH2 0x261D PUSH1 0x0 DUP4 ADD DUP5 PUSH2 0x224E JUMP JUMPDEST SWAP3 SWAP2 POP POP JUMP JUMPDEST PUSH1 0x0 PUSH1 0x20 DUP3 ADD SWAP1 POP DUP2 DUP2 SUB PUSH1 0x0 DUP4 ADD MSTORE PUSH2 0x263D DUP2 DUP5 PUSH2 0x22B4 JUMP JUMPDEST SWAP1 POP SWAP3 SWAP2 POP POP JUMP JUMPDEST PUSH1 0x0 PUSH1 0x80 DUP3 ADD SWAP1 POP DUP2 DUP2 SUB PUSH1 0x0 DUP4 ADD MSTORE PUSH2 0x265F DUP2 DUP8 PUSH2 0x22B4 JUMP JUMPDEST SWAP1 POP PUSH2 0x266E PUSH1 0x20 DUP4 ADD DUP7 PUSH2 0x225D JUMP JUMPDEST PUSH2 0x267B PUSH1 0x40 DUP4 ADD DUP6 PUSH2 0x225D JUMP JUMPDEST PUSH2 0x2688 PUSH1 0x60 DUP4 ADD DUP5 PUSH2 0x2527 JUMP JUMPDEST SWAP6 SWAP5 POP POP POP POP POP JUMP JUMPDEST PUSH1 0x0 PUSH1 0x80 DUP3 ADD SWAP1 POP DUP2 DUP2 SUB PUSH1 0x0 DUP4 ADD MSTORE PUSH2 0x26AB DUP2 DUP8 PUSH2 0x22B4 JUMP JUMPDEST SWAP1 POP PUSH2 0x26BA PUSH1 0x20 DUP4 ADD DUP7 PUSH2 0x225D JUMP JUMPDEST PUSH2 0x26C7 PUSH1 0x40 DUP4 ADD DUP6 PUSH2 0x226C JUMP JUMPDEST PUSH2 0x26D4 PUSH1 0x60 DUP4 ADD DUP5 PUSH2 0x2527 JUMP JUMPDEST SWAP6 SWAP5 POP POP POP POP POP JUMP JUMPDEST PUSH1 0x0 PUSH1 0x40 DUP3 ADD SWAP1 POP DUP2 DUP2 SUB PUSH1 0x0 DUP4 ADD MSTORE PUSH2 0x26F7 DUP2 DUP5 PUSH2 0x22B4 JUMP JUMPDEST SWAP1 POP DUP2 DUP2 SUB PUSH1 0x20 DUP4 ADD MSTORE PUSH2 0x270A DUP2 PUSH2 0x23E3 JUMP JUMPDEST SWAP1 POP SWAP3 SWAP2 POP POP JUMP JUMPDEST PUSH1 0x0 PUSH1 0xE0 DUP3 ADD SWAP1 POP DUP2 DUP2 SUB PUSH1 0x0 DUP4 ADD MSTORE PUSH2 0x272C DUP2 DUP10 PUSH2 0x22B4 JUMP JUMPDEST SWAP1 POP PUSH2 0x273B PUSH1 0x20 DUP4 ADD DUP9 PUSH2 0x2527 JUMP JUMPDEST PUSH2 0x2748 PUSH1 0x40 DUP4 ADD DUP8 PUSH2 0x2527 JUMP JUMPDEST PUSH2 0x2755 PUSH1 0x60 DUP4 ADD DUP7 PUSH2 0x2527 JUMP JUMPDEST PUSH2 0x2762 PUSH1 0x80 DUP4 ADD DUP6 PUSH2 0x2527 JUMP JUMPDEST PUSH2 0x276F PUSH1 0xA0 DUP4 ADD DUP5 PUSH2 0x2155 JUMP JUMPDEST DUP2 DUP2 SUB PUSH1 0xC0 DUP4 ADD MSTORE PUSH2 0x2780 DUP2 PUSH2 0x2429 JUMP JUMPDEST SWAP1 POP SWAP8 SWAP7 POP POP POP POP POP POP POP JUMP JUMPDEST PUSH1 0x0 PUSH2 0x120 DUP3 ADD SWAP1 POP DUP2 DUP2 SUB PUSH1 0x0 DUP4 ADD MSTORE PUSH2 0x27A8 DUP2 DUP13 PUSH2 0x22B4 JUMP JUMPDEST SWAP1 POP PUSH2 0x27B7 PUSH1 0x20 DUP4 ADD DUP12 PUSH2 0x2527 JUMP JUMPDEST PUSH2 0x27C4 PUSH1 0x40 DUP4 ADD DUP11 PUSH2 0x2527 JUMP JUMPDEST PUSH2 0x27D1 PUSH1 0x60 DUP4 ADD DUP10 PUSH2 0x2527 JUMP JUMPDEST PUSH2 0x27DE PUSH1 0x80 DUP4 ADD DUP9 PUSH2 0x2527 JUMP JUMPDEST PUSH2 0x27EB PUSH1 0xA0 DUP4 ADD DUP8 PUSH2 0x225D JUMP JUMPDEST PUSH2 0x27F8 PUSH1 0xC0 DUP4 ADD DUP7 PUSH2 0x2527 JUMP JUMPDEST PUSH2 0x2805 PUSH1 0xE0 DUP4 ADD DUP6 PUSH2 0x2527 JUMP JUMPDEST PUSH2 0x2813 PUSH2 0x100 DUP4 ADD DUP5 PUSH2 0x2155 JUMP JUMPDEST SWAP11 SWAP10 POP POP POP POP POP POP POP POP POP POP JUMP JUMPDEST PUSH1 0x0 PUSH1 0x20 DUP3 ADD SWAP1 POP DUP2 DUP2 SUB PUSH1 0x0 DUP4 ADD MSTORE PUSH2 0x283A DUP2 PUSH2 0x23C0 JUMP JUMPDEST SWAP1 POP SWAP2 SWAP1 POP JUMP JUMPDEST PUSH1 0x0 PUSH1 0x20 DUP3 ADD SWAP1 POP DUP2 DUP2 SUB PUSH1 0x0 DUP4 ADD MSTORE PUSH2 0x285A DUP2 PUSH2 0x2406 JUMP JUMPDEST SWAP1 POP SWAP2 SWAP1 POP JUMP JUMPDEST PUSH1 0x0 PUSH1 0x20 DUP3 ADD SWAP1 POP PUSH2 0x2876 PUSH1 0x0 DUP4 ADD DUP5 PUSH2 0x2527 JUMP JUMPDEST SWAP3 SWAP2 POP POP JUMP JUMPDEST PUSH1 0x0 PUSH2 0x120 DUP3 ADD SWAP1 POP PUSH2 0x2892 PUSH1 0x0 DUP4 ADD DUP13 PUSH2 0x2527 JUMP JUMPDEST DUP2 DUP2 SUB PUSH1 0x20 DUP4 ADD MSTORE PUSH2 0x28A4 DUP2 DUP12 PUSH2 0x22B4 JUMP JUMPDEST SWAP1 POP DUP2 DUP2 SUB PUSH1 0x40 DUP4 ADD MSTORE PUSH2 0x28B8 DUP2 DUP11 PUSH2 0x22B4 JUMP JUMPDEST SWAP1 POP PUSH2 0x28C7 PUSH1 0x60 DUP4 ADD DUP10 PUSH2 0x2527 JUMP JUMPDEST PUSH2 0x28D4 PUSH1 0x80 DUP4 ADD DUP9 PUSH2 0x2527 JUMP JUMPDEST PUSH2 0x28E1 PUSH1 0xA0 DUP4 ADD DUP8 PUSH2 0x2527 JUMP JUMPDEST PUSH2 0x28EE PUSH1 0xC0 DUP4 ADD DUP7 PUSH2 0x2527 JUMP JUMPDEST PUSH2 0x28FB PUSH1 0xE0 DUP4 ADD DUP6 PUSH2 0x2527 JUMP JUMPDEST PUSH2 0x2909 PUSH2 0x100 DUP4 ADD DUP5 PUSH2 0x2155 JUMP JUMPDEST SWAP11 SWAP10 POP POP POP POP POP POP POP POP POP POP JUMP JUMPDEST PUSH1 0x0 PUSH2 0x100 DUP3 ADD SWAP1 POP PUSH2 0x292D PUSH1 0x0 DUP4 ADD DUP11 PUSH2 0x2527 JUMP JUMPDEST PUSH2 0x293A PUSH1 0x20 DUP4 ADD DUP10 PUSH2 0x2527 JUMP JUMPDEST PUSH2 0x2947 PUSH1 0x40 DUP4 ADD DUP9 PUSH2 0x2527 JUMP JUMPDEST PUSH2 0x2954 PUSH1 0x60 DUP4 ADD DUP8 PUSH2 0x2527 JUMP JUMPDEST PUSH2 0x2961 PUSH1 0x80 DUP4 ADD DUP7 PUSH2 0x2155 JUMP JUMPDEST PUSH2 0x296E PUSH1 0xA0 DUP4 ADD DUP6 PUSH2 0x2527 JUMP JUMPDEST PUSH2 0x297B PUSH1 0xC0 DUP4 ADD DUP5 PUSH2 0x2527 JUMP JUMPDEST DUP2 DUP2 SUB PUSH1 0xE0 DUP4 ADD MSTORE PUSH2 0x298C DUP2 PUSH2 0x239D JUMP JUMPDEST SWAP1 POP SWAP9 SWAP8 POP POP POP POP POP POP POP POP JUMP JUMPDEST PUSH1 0x0 PUSH2 0x29A4 PUSH2 0x29B5 JUMP JUMPDEST SWAP1 POP PUSH2 0x29B0 DUP3 DUP3 PUSH2 0x2C50 JUMP JUMPDEST SWAP2 SWAP1 POP JUMP JUMPDEST PUSH1 0x0 PUSH1 0x40 MLOAD SWAP1 POP SWAP1 JUMP JUMPDEST PUSH1 0x0 PUSH8 0xFFFFFFFFFFFFFFFF DUP3 GT ISZERO PUSH2 0x29DA JUMPI PUSH2 0x29D9 PUSH2 0x2DB5 JUMP JUMPDEST JUMPDEST PUSH2 0x29E3 DUP3 PUSH2 0x2DF8 JUMP JUMPDEST SWAP1 POP PUSH1 0x20 DUP2 ADD SWAP1 POP SWAP2 SWAP1 POP JUMP JUMPDEST PUSH1 0x0 DUP2 SWAP1 POP PUSH1 0x20 DUP3 ADD SWAP1 POP SWAP2 SWAP1 POP JUMP JUMPDEST PUSH1 0x0 DUP2 SWAP1 POP PUSH1 0x20 DUP3 ADD SWAP1 POP SWAP2 SWAP1 POP JUMP JUMPDEST PUSH1 0x0 DUP2 SWAP1 POP DUP2 PUSH1 0x0 MSTORE PUSH1 0x20 PUSH1 0x0 KECCAK256 SWAP1 POP SWAP2 SWAP1 POP JUMP JUMPDEST PUSH1 0x0 DUP2 MLOAD SWAP1 POP SWAP2 SWAP1 POP JUMP JUMPDEST PUSH1 0x0 DUP2 MLOAD SWAP1 POP SWAP2 SWAP1 POP JUMP JUMPDEST PUSH1 0x0 DUP2 MLOAD SWAP1 POP SWAP2 SWAP1 POP JUMP JUMPDEST PUSH1 0x0 PUSH1 0x20 DUP3 ADD SWAP1 POP SWAP2 SWAP1 POP JUMP JUMPDEST PUSH1 0x0 PUSH1 0x20 DUP3 ADD SWAP1 POP SWAP2 SWAP1 POP JUMP JUMPDEST PUSH1 0x0 DUP3 DUP3 MSTORE PUSH1 0x20 DUP3 ADD SWAP1 POP SWAP3 SWAP2 POP POP JUMP JUMPDEST PUSH1 0x0 DUP3 DUP3 MSTORE PUSH1 0x20 DUP3 ADD SWAP1 POP SWAP3 SWAP2 POP POP JUMP JUMPDEST PUSH1 0x0 DUP3 DUP3 MSTORE PUSH1 0x20 DUP3 ADD SWAP1 POP SWAP3 SWAP2 POP POP JUMP JUMPDEST PUSH1 0x0 DUP3 DUP3 MSTORE PUSH1 0x20 DUP3 ADD SWAP1 POP SWAP3 SWAP2 POP POP JUMP JUMPDEST PUSH1 0x0 DUP2 SWAP1 POP SWAP3 SWAP2 POP POP JUMP JUMPDEST PUSH1 0x0 PUSH2 0x2ABA DUP3 PUSH2 0x2B98 JUMP JUMPDEST SWAP2 POP PUSH2 0x2AC5 DUP4 PUSH2 0x2B98 JUMP JUMPDEST SWAP3 POP DUP2 PUSH32 0xFFFFFFFFFFFFFFFFFFFFFFFFFFFFFFFFFFFFFFFFFFFFFFFFFFFFFFFFFFFFFFFF DIV DUP4 GT DUP3 ISZERO ISZERO AND ISZERO PUSH2 0x2AFE JUMPI PUSH2 0x2AFD PUSH2 0x2CCA JUMP JUMPDEST JUMPDEST DUP3 DUP3 MUL SWAP1 POP SWAP3 SWAP2 POP POP JUMP JUMPDEST PUSH1 0x0 PUSH2 0x2B14 DUP3 PUSH2 0x2B98 JUMP JUMPDEST SWAP2 POP PUSH2 0x2B1F DUP4 PUSH2 0x2B98 JUMP JUMPDEST SWAP3 POP DUP3 DUP3 LT ISZERO PUSH2 0x2B32 JUMPI PUSH2 0x2B31 PUSH2 0x2CCA JUMP JUMPDEST JUMPDEST DUP3 DUP3 SUB SWAP1 POP SWAP3 SWAP2 POP POP JUMP JUMPDEST PUSH1 0x0 PUSH2 0x2B48 DUP3 PUSH2 0x2B78 JUMP JUMPDEST SWAP1 POP SWAP2 SWAP1 POP JUMP JUMPDEST PUSH1 0x0 DUP2 ISZERO ISZERO SWAP1 POP SWAP2 SWAP1 POP JUMP JUMPDEST PUSH1 0x0 DUP2 SWAP1 POP PUSH2 0x2B69 DUP3 PUSH2 0x2ED6 JUMP JUMPDEST SWAP2 SWAP1 POP JUMP JUMPDEST PUSH1 0x0 DUP2 SWAP1 POP SWAP2 SWAP1 POP JUMP JUMPDEST PUSH1 0x0 PUSH20 0xFFFFFFFFFFFFFFFFFFFFFFFFFFFFFFFFFFFFFFFF DUP3 AND SWAP1 POP SWAP2 SWAP1 POP JUMP JUMPDEST PUSH1 0x0 DUP2 SWAP1 POP SWAP2 SWAP1 POP JUMP JUMPDEST PUSH1 0x0 PUSH10 0xFFFFFFFFFFFFFFFFFFFF DUP3 AND SWAP1 POP SWAP2 SWAP1 POP JUMP JUMPDEST PUSH1 0x0 PUSH2 0x2BC3 DUP3 PUSH2 0x2B5B JUMP JUMPDEST SWAP1 POP SWAP2 SWAP1 POP JUMP JUMPDEST PUSH1 0x0 PUSH2 0x2BD5 DUP3 PUSH2 0x2B6E JUMP JUMPDEST SWAP1 POP SWAP2 SWAP1 POP JUMP JUMPDEST DUP3 DUP2 DUP4 CALLDATACOPY PUSH1 0x0 DUP4 DUP4 ADD MSTORE POP POP POP JUMP JUMPDEST PUSH1 0x0 JUMPDEST DUP4 DUP2 LT ISZERO PUSH2 0x2C09 JUMPI DUP1 DUP3 ADD MLOAD DUP2 DUP5 ADD MSTORE PUSH1 0x20 DUP2 ADD SWAP1 POP PUSH2 0x2BEE JUMP JUMPDEST DUP4 DUP2 GT ISZERO PUSH2 0x2C18 JUMPI PUSH1 0x0 DUP5 DUP5 ADD MSTORE JUMPDEST POP POP POP POP JUMP JUMPDEST PUSH1 0x0 PUSH1 0x2 DUP3 DIV SWAP1 POP PUSH1 0x1 DUP3 AND DUP1 PUSH2 0x2C36 JUMPI PUSH1 0x7F DUP3 AND SWAP2 POP JUMPDEST PUSH1 0x20 DUP3 LT DUP2 EQ ISZERO PUSH2 0x2C4A JUMPI PUSH2 0x2C49 PUSH2 0x2D28 JUMP JUMPDEST JUMPDEST POP SWAP2 SWAP1 POP JUMP JUMPDEST PUSH2 0x2C59 DUP3 PUSH2 0x2DF8 JUMP JUMPDEST DUP2 ADD DUP2 DUP2 LT PUSH8 0xFFFFFFFFFFFFFFFF DUP3 GT OR ISZERO PUSH2 0x2C78 JUMPI PUSH2 0x2C77 PUSH2 0x2DB5 JUMP JUMPDEST JUMPDEST DUP1 PUSH1 0x40 MSTORE POP POP POP JUMP JUMPDEST PUSH1 0x0 PUSH2 0x2C8C DUP3 PUSH2 0x2B98 JUMP JUMPDEST SWAP2 POP PUSH32 0xFFFFFFFFFFFFFFFFFFFFFFFFFFFFFFFFFFFFFFFFFFFFFFFFFFFFFFFFFFFFFFFF DUP3 EQ ISZERO PUSH2 0x2CBF JUMPI PUSH2 0x2CBE PUSH2 0x2CCA JUMP JUMPDEST JUMPDEST PUSH1 0x1 DUP3 ADD SWAP1 POP SWAP2 SWAP1 POP JUMP JUMPDEST PUSH32 0x4E487B7100000000000000000000000000000000000000000000000000000000 PUSH1 0x0 MSTORE PUSH1 0x11 PUSH1 0x4 MSTORE PUSH1 0x24 PUSH1 0x0 REVERT JUMPDEST PUSH32 0x4E487B7100000000000000000000000000000000000000000000000000000000 PUSH1 0x0 MSTORE PUSH1 0x21 PUSH1 0x4 MSTORE PUSH1 0x24 PUSH1 0x0 REVERT JUMPDEST PUSH32 0x4E487B7100000000000000000000000000000000000000000000000000000000 PUSH1 0x0 MSTORE PUSH1 0x22 PUSH1 0x4 MSTORE PUSH1 0x24 PUSH1 0x0 REVERT JUMPDEST PUSH32 0x4E487B7100000000000000000000000000000000000000000000000000000000 PUSH1 0x0 MSTORE PUSH1 0x31 PUSH1 0x4 MSTORE PUSH1 0x24 PUSH1 0x0 REVERT JUMPDEST PUSH32 0x4E487B7100000000000000000000000000000000000000000000000000000000 PUSH1 0x0 MSTORE PUSH1 0x32 PUSH1 0x4 MSTORE PUSH1 0x24 PUSH1 0x0 REVERT JUMPDEST PUSH32 0x4E487B7100000000000000000000000000000000000000000000000000000000 PUSH1 0x0 MSTORE PUSH1 0x41 PUSH1 0x4 MSTORE PUSH1 0x24 PUSH1 0x0 REVERT JUMPDEST PUSH1 0x0 DUP1 REVERT JUMPDEST PUSH1 0x0 DUP1 REVERT JUMPDEST PUSH1 0x0 DUP1 REVERT JUMPDEST PUSH1 0x0 DUP1 REVERT JUMPDEST PUSH1 0x0 PUSH1 0x1F NOT PUSH1 0x1F DUP4 ADD AND SWAP1 POP SWAP2 SWAP1 POP JUMP JUMPDEST PUSH32 0x646C636C696E6B3A6372656174652D646C633A76300000000000000000000000 PUSH1 0x0 DUP3 ADD MSTORE POP JUMP JUMPDEST PUSH32 0x4E6F7420466F756E640000000000000000000000000000000000000000000000 PUSH1 0x0 DUP3 ADD MSTORE POP JUMP JUMPDEST PUSH32 0x646C636C696E6B3A7365742D7374617475732D66756E6465643A763000000000 PUSH1 0x0 DUP3 ADD MSTORE POP JUMP JUMPDEST PUSH32 0x56616C69646174696F6E206661696C656420666F7220636C6F7365446C630000 PUSH1 0x0 DUP3 ADD MSTORE POP JUMP JUMPDEST PUSH32 0x646C636C696E6B3A6372656174652D646C632D696E7465726E616C3A76300000 PUSH1 0x0 DUP3 ADD MSTORE POP JUMP JUMPDEST PUSH1 0x7 DUP2 LT PUSH2 0x2EE7 JUMPI PUSH2 0x2EE6 PUSH2 0x2CF9 JUMP JUMPDEST JUMPDEST POP JUMP JUMPDEST PUSH2 0x2EF3 DUP2 PUSH2 0x2B3D JUMP JUMPDEST DUP2 EQ PUSH2 0x2EFE JUMPI PUSH1 0x0 DUP1 REVERT JUMPDEST POP JUMP JUMPDEST PUSH2 0x2F0A DUP2 PUSH2 0x2B4F JUMP JUMPDEST DUP2 EQ PUSH2 0x2F15 JUMPI PUSH1 0x0 DUP1 REVERT JUMPDEST POP JUMP JUMPDEST PUSH1 0x7 DUP2 LT PUSH2 0x2F25 JUMPI PUSH1 0x0 DUP1 REVERT JUMPDEST POP JUMP JUMPDEST PUSH2 0x2F31 DUP2 PUSH2 0x2B6E JUMP JUMPDEST DUP2 EQ PUSH2 0x2F3C JUMPI PUSH1 0x0 DUP1 REVERT JUMPDEST POP JUMP JUMPDEST PUSH2 0x2F48 DUP2 PUSH2 0x2B98 JUMP JUMPDEST DUP2 EQ PUSH2 0x2F53 JUMPI PUSH1 0x0 DUP1 REVERT JUMPDEST POP JUMP JUMPDEST PUSH2 0x2F5F DUP2 PUSH2 0x2BA2 JUMP JUMPDEST DUP2 EQ PUSH2 0x2F6A JUMPI PUSH1 0x0 DUP1 REVERT JUMPDEST POP JUMP INVALID LOG2 PUSH5 0x6970667358 0x22 SLT KECCAK256 NOT 0xAE PUSH4 0x4F4B845F 0x23 0xDA EXP PUSH8 0x78F09F1AE4AB9AC2 0x29 PUSH1 0x77 0xD3 SWAP12 0x5E SUB PUSH19 0xD4C69B18F064736F6C63430008070033000000 "
		},
		"gasEstimates": {
			"creation": {
				"codeDepositCost": "2439000",
				"executionCost": "infinite",
				"totalCost": "infinite"
			},
			"external": {
				"closeDlc(string)": "infinite",
				"closeDlcLiquidate(string)": "infinite",
				"createDLCInternal(string,uint256,uint256,uint256,uint256,address,uint256)": "infinite",
				"createDlc(uint256,uint256,uint256,uint256,address,uint256,uint256)": "infinite",
				"dlcs(string)": "infinite",
				"getAllLoansForAddress(address)": "infinite",
				"getAllUUIDs()": "infinite",
				"liquidateLoan(uint256)": "infinite",
				"loans(uint256)": "infinite",
				"loansPerAddress(address)": "2859",
				"numLoans()": "2517",
				"openUUIDs(uint256)": "infinite",
				"repayLoan(uint256)": "infinite",
				"setStatusFunded(string)": "infinite",
				"setupLoan(uint256,uint256,uint256,uint256,uint256)": "infinite",
				"status()": "2606",
				"statuses(uint8)": "infinite"
			},
			"internal": {
				"findIndex(string memory)": "infinite",
				"findLoanIndex(string memory)": "infinite",
				"getLatestPrice(address)": "infinite",
				"removeClosedDLC(uint256)": "infinite"
			}
		},
		"methodIdentifiers": {
			"closeDlc(string)": "9e098026",
			"closeDlcLiquidate(string)": "d4252cc3",
			"createDLCInternal(string,uint256,uint256,uint256,uint256,address,uint256)": "35dd76ce",
			"createDlc(uint256,uint256,uint256,uint256,address,uint256,uint256)": "3902fe90",
			"dlcs(string)": "0ef2feff",
			"getAllLoansForAddress(address)": "572343f1",
			"getAllUUIDs()": "8ff37151",
			"liquidateLoan(uint256)": "ccdd9f5d",
			"loans(uint256)": "e1ec3c68",
			"loansPerAddress(address)": "41f5d7cd",
			"numLoans()": "d463eeb3",
			"openUUIDs(uint256)": "2e730910",
			"repayLoan(uint256)": "ab7b1c89",
			"setStatusFunded(string)": "89a12db4",
			"setupLoan(uint256,uint256,uint256,uint256,uint256)": "47f8bf1c",
			"status()": "200d2ed2",
			"statuses(uint8)": "62e87240"
		}
	},
	"abi": [
		{
			"inputs": [],
			"stateMutability": "nonpayable",
			"type": "constructor"
		},
		{
			"anonymous": false,
			"inputs": [
				{
					"indexed": false,
					"internalType": "string",
					"name": "uuid",
					"type": "string"
				},
				{
					"indexed": false,
					"internalType": "int256",
					"name": "payoutRatio",
					"type": "int256"
				},
				{
					"indexed": false,
					"internalType": "int256",
					"name": "closingPrice",
					"type": "int256"
				},
				{
					"indexed": false,
					"internalType": "uint256",
					"name": "actualClosingTime",
					"type": "uint256"
				}
			],
			"name": "CloseDLC",
			"type": "event"
		},
		{
			"anonymous": false,
			"inputs": [
				{
					"indexed": false,
					"internalType": "uint256",
					"name": "vaultLoanAmount",
					"type": "uint256"
				},
				{
					"indexed": false,
					"internalType": "uint256",
					"name": "btcDeposit",
					"type": "uint256"
				},
				{
					"indexed": false,
					"internalType": "uint256",
					"name": "liquidationRatio",
					"type": "uint256"
				},
				{
					"indexed": false,
					"internalType": "uint256",
					"name": "liquidationFee",
					"type": "uint256"
				},
				{
					"indexed": false,
					"internalType": "address",
					"name": "creator",
					"type": "address"
				},
				{
					"indexed": false,
					"internalType": "uint256",
					"name": "emergencyRefundTime",
					"type": "uint256"
				},
				{
					"indexed": false,
					"internalType": "uint256",
					"name": "nonce",
					"type": "uint256"
				},
				{
					"indexed": false,
					"internalType": "string",
					"name": "eventSource",
					"type": "string"
				}
			],
			"name": "CreateDLC",
			"type": "event"
		},
		{
			"anonymous": false,
			"inputs": [
				{
					"indexed": false,
					"internalType": "string",
					"name": "uuid",
					"type": "string"
				},
				{
					"indexed": false,
					"internalType": "uint256",
					"name": "btcDeposit",
					"type": "uint256"
				},
				{
					"indexed": false,
					"internalType": "uint256",
					"name": "liquidationRatio",
					"type": "uint256"
				},
				{
					"indexed": false,
					"internalType": "uint256",
					"name": "liquidationFee",
					"type": "uint256"
				},
				{
					"indexed": false,
					"internalType": "uint256",
					"name": "emergencyRefundTime",
					"type": "uint256"
				},
				{
					"indexed": false,
					"internalType": "address",
					"name": "creator",
					"type": "address"
				},
				{
					"indexed": false,
					"internalType": "string",
					"name": "eventSource",
					"type": "string"
				}
			],
			"name": "CreateDLCInternal",
			"type": "event"
		},
		{
			"anonymous": false,
			"inputs": [
				{
					"indexed": false,
					"internalType": "string",
					"name": "uuid",
					"type": "string"
				},
				{
					"indexed": false,
					"internalType": "string",
					"name": "eventSource",
					"type": "string"
				}
			],
			"name": "SetStatusFunded",
			"type": "event"
		},
		{
			"inputs": [
				{
					"internalType": "string",
					"name": "_uuid",
					"type": "string"
				}
			],
			"name": "closeDlc",
			"outputs": [],
			"stateMutability": "nonpayable",
			"type": "function"
		},
		{
			"inputs": [
				{
					"internalType": "string",
					"name": "_uuid",
					"type": "string"
				}
			],
			"name": "closeDlcLiquidate",
			"outputs": [],
			"stateMutability": "nonpayable",
			"type": "function"
		},
		{
			"inputs": [
				{
					"internalType": "string",
					"name": "_uuid",
					"type": "string"
				},
				{
					"internalType": "uint256",
					"name": "_btcDeposit",
					"type": "uint256"
				},
				{
					"internalType": "uint256",
					"name": "_liquidationRatio",
					"type": "uint256"
				},
				{
					"internalType": "uint256",
					"name": "_liquidationFee",
					"type": "uint256"
				},
				{
					"internalType": "uint256",
					"name": "_emergencyRefundTime",
					"type": "uint256"
				},
				{
					"internalType": "address",
					"name": "_creator",
					"type": "address"
				},
				{
					"internalType": "uint256",
					"name": "_nonce",
					"type": "uint256"
				}
			],
			"name": "createDLCInternal",
			"outputs": [],
			"stateMutability": "nonpayable",
			"type": "function"
		},
		{
			"inputs": [
				{
					"internalType": "uint256",
					"name": "_vaultLoanAmount",
					"type": "uint256"
				},
				{
					"internalType": "uint256",
					"name": "_btcDeposit",
					"type": "uint256"
				},
				{
					"internalType": "uint256",
					"name": "_liquidationRatio",
					"type": "uint256"
				},
				{
					"internalType": "uint256",
					"name": "_liquidationFee",
					"type": "uint256"
				},
				{
					"internalType": "address",
					"name": "_creator",
					"type": "address"
				},
				{
					"internalType": "uint256",
					"name": "_emergencyRefundTime",
					"type": "uint256"
				},
				{
					"internalType": "uint256",
					"name": "_nonce",
					"type": "uint256"
				}
			],
			"name": "createDlc",
			"outputs": [],
			"stateMutability": "nonpayable",
			"type": "function"
		},
		{
			"inputs": [
				{
					"internalType": "string",
					"name": "",
					"type": "string"
				}
			],
			"name": "dlcs",
			"outputs": [
				{
					"internalType": "string",
					"name": "uuid",
					"type": "string"
				},
				{
					"internalType": "uint256",
					"name": "btcDeposit",
					"type": "uint256"
				},
				{
					"internalType": "uint256",
					"name": "liquidationRatio",
					"type": "uint256"
				},
				{
					"internalType": "uint256",
					"name": "liquidationFee",
					"type": "uint256"
				},
				{
					"internalType": "uint256",
					"name": "closingTime",
					"type": "uint256"
				},
				{
					"internalType": "int256",
					"name": "closingPrice",
					"type": "int256"
				},
				{
					"internalType": "uint256",
					"name": "actualClosingTime",
					"type": "uint256"
				},
				{
					"internalType": "uint256",
					"name": "emergencyRefundTime",
					"type": "uint256"
				},
				{
					"internalType": "address",
					"name": "creator",
					"type": "address"
				}
			],
			"stateMutability": "view",
			"type": "function"
		},
		{
			"inputs": [
				{
					"internalType": "address",
					"name": "_addy",
					"type": "address"
				}
			],
			"name": "getAllLoansForAddress",
			"outputs": [
				{
					"components": [
						{
							"internalType": "uint256",
							"name": "id",
							"type": "uint256"
						},
						{
							"internalType": "string",
							"name": "dlc_uuid",
							"type": "string"
						},
						{
							"internalType": "string",
							"name": "status",
							"type": "string"
						},
						{
							"internalType": "uint256",
							"name": "vaultLoan",
							"type": "uint256"
						},
						{
							"internalType": "uint256",
							"name": "vaultCollateral",
							"type": "uint256"
						},
						{
							"internalType": "uint256",
							"name": "liquidationRatio",
							"type": "uint256"
						},
						{
							"internalType": "uint256",
							"name": "liquidationFee",
							"type": "uint256"
						},
						{
							"internalType": "uint256",
							"name": "closingPrice",
							"type": "uint256"
						},
						{
							"internalType": "address",
							"name": "owner",
							"type": "address"
						}
					],
					"internalType": "struct DiscreetLog.Loan[]",
					"name": "",
					"type": "tuple[]"
				}
			],
			"stateMutability": "view",
			"type": "function"
		},
		{
			"inputs": [],
			"name": "getAllUUIDs",
			"outputs": [
				{
					"internalType": "string[]",
					"name": "",
					"type": "string[]"
				}
			],
			"stateMutability": "view",
			"type": "function"
		},
		{
			"inputs": [
				{
					"internalType": "uint256",
					"name": "loanId",
					"type": "uint256"
				}
			],
			"name": "liquidateLoan",
			"outputs": [],
			"stateMutability": "nonpayable",
			"type": "function"
		},
		{
			"inputs": [
				{
					"internalType": "uint256",
					"name": "",
					"type": "uint256"
				}
			],
			"name": "loans",
			"outputs": [
				{
					"internalType": "uint256",
					"name": "id",
					"type": "uint256"
				},
				{
					"internalType": "string",
					"name": "dlc_uuid",
					"type": "string"
				},
				{
					"internalType": "string",
					"name": "status",
					"type": "string"
				},
				{
					"internalType": "uint256",
					"name": "vaultLoan",
					"type": "uint256"
				},
				{
					"internalType": "uint256",
					"name": "vaultCollateral",
					"type": "uint256"
				},
				{
					"internalType": "uint256",
					"name": "liquidationRatio",
					"type": "uint256"
				},
				{
					"internalType": "uint256",
					"name": "liquidationFee",
					"type": "uint256"
				},
				{
					"internalType": "uint256",
					"name": "closingPrice",
					"type": "uint256"
				},
				{
					"internalType": "address",
					"name": "owner",
					"type": "address"
				}
			],
			"stateMutability": "view",
			"type": "function"
		},
		{
			"inputs": [
				{
					"internalType": "address",
					"name": "",
					"type": "address"
				}
			],
			"name": "loansPerAddress",
			"outputs": [
				{
					"internalType": "uint256",
					"name": "",
					"type": "uint256"
				}
			],
			"stateMutability": "view",
			"type": "function"
		},
		{
			"inputs": [],
			"name": "numLoans",
			"outputs": [
				{
					"internalType": "uint256",
					"name": "",
					"type": "uint256"
				}
			],
			"stateMutability": "view",
			"type": "function"
		},
		{
			"inputs": [
				{
					"internalType": "uint256",
					"name": "",
					"type": "uint256"
				}
			],
			"name": "openUUIDs",
			"outputs": [
				{
					"internalType": "string",
					"name": "",
					"type": "string"
				}
			],
			"stateMutability": "view",
			"type": "function"
		},
		{
			"inputs": [
				{
					"internalType": "uint256",
					"name": "loanId",
					"type": "uint256"
				}
			],
			"name": "repayLoan",
			"outputs": [],
			"stateMutability": "nonpayable",
			"type": "function"
		},
		{
			"inputs": [
				{
					"internalType": "string",
					"name": "_uuid",
					"type": "string"
				}
			],
			"name": "setStatusFunded",
			"outputs": [],
			"stateMutability": "nonpayable",
			"type": "function"
		},
		{
			"inputs": [
				{
					"internalType": "uint256",
					"name": "vaultLoanAmount",
					"type": "uint256"
				},
				{
					"internalType": "uint256",
					"name": "btcDeposit",
					"type": "uint256"
				},
				{
					"internalType": "uint256",
					"name": "liquidationRatio",
					"type": "uint256"
				},
				{
					"internalType": "uint256",
					"name": "liquidationFee",
					"type": "uint256"
				},
				{
					"internalType": "uint256",
					"name": "emergencyRefundTime",
					"type": "uint256"
				}
			],
			"name": "setupLoan",
			"outputs": [
				{
					"internalType": "uint256",
					"name": "",
					"type": "uint256"
				}
			],
			"stateMutability": "nonpayable",
			"type": "function"
		},
		{
			"inputs": [],
			"name": "status",
			"outputs": [
				{
					"internalType": "enum DiscreetLog.Status",
					"name": "",
					"type": "uint8"
				}
			],
			"stateMutability": "view",
			"type": "function"
		},
		{
			"inputs": [
				{
					"internalType": "enum DiscreetLog.Status",
					"name": "",
					"type": "uint8"
				}
			],
			"name": "statuses",
			"outputs": [
				{
					"internalType": "string",
					"name": "",
					"type": "string"
				}
			],
			"stateMutability": "view",
			"type": "function"
		}
	]
}